{
  "_format": "hh-sol-artifact-1",
  "contractName": "TestAggregatedAccount",
  "sourceName": "src/samples/TestAggregatedAccount.sol",
  "abi": [
    {
      "inputs": [
        {
          "internalType": "contract IEntryPoint",
          "name": "anEntryPoint",
          "type": "address"
        },
        {
          "internalType": "address",
          "name": "anAggregator",
          "type": "address"
        }
      ],
      "stateMutability": "nonpayable",
      "type": "constructor"
    },
    {
      "anonymous": false,
      "inputs": [
        {
          "indexed": false,
          "internalType": "address",
          "name": "previousAdmin",
          "type": "address"
        },
        {
          "indexed": false,
          "internalType": "address",
          "name": "newAdmin",
          "type": "address"
        }
      ],
      "name": "AdminChanged",
      "type": "event"
    },
    {
      "anonymous": false,
      "inputs": [
        {
          "indexed": true,
          "internalType": "address",
          "name": "beacon",
          "type": "address"
        }
      ],
      "name": "BeaconUpgraded",
      "type": "event"
    },
    {
      "anonymous": false,
      "inputs": [
        {
          "indexed": true,
          "internalType": "contract IEntryPoint",
          "name": "entryPoint",
          "type": "address"
        },
        {
          "indexed": true,
          "internalType": "address",
          "name": "owner",
          "type": "address"
        }
      ],
      "name": "EtherspotInitialized",
      "type": "event"
    },
    {
      "anonymous": false,
      "inputs": [
        {
          "indexed": false,
          "internalType": "uint8",
          "name": "version",
          "type": "uint8"
        }
      ],
      "name": "Initialized",
      "type": "event"
    },
    {
      "anonymous": false,
      "inputs": [
        {
          "indexed": true,
          "internalType": "address",
          "name": "implementation",
          "type": "address"
        }
      ],
      "name": "Upgraded",
      "type": "event"
    },
    {
      "inputs": [],
      "name": "addDeposit",
      "outputs": [],
      "stateMutability": "payable",
      "type": "function"
    },
    {
      "inputs": [],
      "name": "aggregator",
      "outputs": [
        {
          "internalType": "address",
          "name": "",
          "type": "address"
        }
      ],
      "stateMutability": "view",
      "type": "function"
    },
    {
      "inputs": [],
      "name": "entryPoint",
      "outputs": [
        {
          "internalType": "contract IEntryPoint",
          "name": "",
          "type": "address"
        }
      ],
      "stateMutability": "view",
      "type": "function"
    },
    {
      "inputs": [
        {
          "internalType": "address[]",
          "name": "dest",
          "type": "address[]"
        },
        {
          "internalType": "bytes[]",
          "name": "func",
          "type": "bytes[]"
        }
      ],
      "name": "executeBatch",
      "outputs": [],
      "stateMutability": "nonpayable",
      "type": "function"
    },
    {
      "inputs": [
        {
          "internalType": "address",
          "name": "dest",
          "type": "address"
        },
        {
          "internalType": "uint256",
          "name": "value",
          "type": "uint256"
        },
        {
          "internalType": "bytes",
          "name": "func",
          "type": "bytes"
        }
      ],
      "name": "executeTransaction",
      "outputs": [],
      "stateMutability": "nonpayable",
      "type": "function"
    },
    {
      "inputs": [],
      "name": "getAggregator",
      "outputs": [
        {
          "internalType": "address",
          "name": "",
          "type": "address"
        }
      ],
      "stateMutability": "view",
      "type": "function"
    },
    {
      "inputs": [],
      "name": "getDeposit",
      "outputs": [
        {
          "internalType": "uint256",
          "name": "",
          "type": "uint256"
        }
      ],
      "stateMutability": "view",
      "type": "function"
    },
    {
      "inputs": [
        {
          "internalType": "address",
          "name": "",
          "type": "address"
        }
      ],
      "name": "initialize",
      "outputs": [],
      "stateMutability": "nonpayable",
      "type": "function"
    },
    {
      "inputs": [],
      "name": "nonce",
      "outputs": [
        {
          "internalType": "uint256",
          "name": "",
          "type": "uint256"
        }
      ],
      "stateMutability": "view",
      "type": "function"
    },
    {
      "inputs": [],
      "name": "owner",
      "outputs": [
        {
          "internalType": "address",
          "name": "",
          "type": "address"
        }
      ],
      "stateMutability": "view",
      "type": "function"
    },
    {
      "inputs": [],
      "name": "proxiableUUID",
      "outputs": [
        {
          "internalType": "bytes32",
          "name": "",
          "type": "bytes32"
        }
      ],
      "stateMutability": "view",
      "type": "function"
    },
    {
      "inputs": [
        {
          "internalType": "address",
          "name": "newImplementation",
          "type": "address"
        }
      ],
      "name": "upgradeTo",
      "outputs": [],
      "stateMutability": "nonpayable",
      "type": "function"
    },
    {
      "inputs": [
        {
          "internalType": "address",
          "name": "newImplementation",
          "type": "address"
        },
        {
          "internalType": "bytes",
          "name": "data",
          "type": "bytes"
        }
      ],
      "name": "upgradeToAndCall",
      "outputs": [],
      "stateMutability": "payable",
      "type": "function"
    },
    {
      "inputs": [
        {
          "components": [
            {
              "internalType": "address",
              "name": "sender",
              "type": "address"
            },
            {
              "internalType": "uint256",
              "name": "nonce",
              "type": "uint256"
            },
            {
              "internalType": "bytes",
              "name": "initCode",
              "type": "bytes"
            },
            {
              "internalType": "bytes",
              "name": "callData",
              "type": "bytes"
            },
            {
              "internalType": "uint256",
              "name": "callGasLimit",
              "type": "uint256"
            },
            {
              "internalType": "uint256",
              "name": "verificationGasLimit",
              "type": "uint256"
            },
            {
              "internalType": "uint256",
              "name": "preVerificationGas",
              "type": "uint256"
            },
            {
              "internalType": "uint256",
              "name": "maxFeePerGas",
              "type": "uint256"
            },
            {
              "internalType": "uint256",
              "name": "maxPriorityFeePerGas",
              "type": "uint256"
            },
            {
              "internalType": "bytes",
              "name": "paymasterAndData",
              "type": "bytes"
            },
            {
              "internalType": "bytes",
              "name": "signature",
              "type": "bytes"
            }
          ],
          "internalType": "struct UserOperation",
          "name": "userOp",
          "type": "tuple"
        },
        {
          "internalType": "bytes32",
          "name": "userOpHash",
          "type": "bytes32"
        },
        {
          "internalType": "address",
          "name": "aggregator",
          "type": "address"
        },
        {
          "internalType": "uint256",
          "name": "missingAccountFunds",
          "type": "uint256"
        }
      ],
      "name": "validateUserOp",
      "outputs": [
        {
          "internalType": "uint256",
          "name": "deadline",
          "type": "uint256"
        }
      ],
      "stateMutability": "nonpayable",
      "type": "function"
    },
    {
      "inputs": [
        {
          "internalType": "address payable",
          "name": "withdrawAddress",
          "type": "address"
        },
        {
          "internalType": "uint256",
          "name": "amount",
          "type": "uint256"
        }
      ],
      "name": "withdrawDepositTo",
      "outputs": [],
      "stateMutability": "nonpayable",
      "type": "function"
    },
    {
      "stateMutability": "payable",
      "type": "receive"
    }
  ],
  "bytecode": "0x60e06040523073ffffffffffffffffffffffffffffffffffffffff1660809073ffffffffffffffffffffffffffffffffffffffff168152503480156200004457600080fd5b5060405162002ab438038062002ab483398181016040528101906200006a91906200018b565b818073ffffffffffffffffffffffffffffffffffffffff1660a08173ffffffffffffffffffffffffffffffffffffffff1681525050508073ffffffffffffffffffffffffffffffffffffffff1660c08173ffffffffffffffffffffffffffffffffffffffff16815250505050620001d2565b600080fd5b600073ffffffffffffffffffffffffffffffffffffffff82169050919050565b60006200010e82620000e1565b9050919050565b6000620001228262000101565b9050919050565b620001348162000115565b81146200014057600080fd5b50565b600081519050620001548162000129565b92915050565b620001658162000101565b81146200017157600080fd5b50565b60008151905062000185816200015a565b92915050565b60008060408385031215620001a557620001a4620000dc565b5b6000620001b58582860162000143565b9250506020620001c88582860162000174565b9150509250929050565b60805160a05160c05161288162000233600039600081816104b5015281816106640152610c9c015260008181610a3401526113070152600081816104d901528181610568015281816107e701528181610876015261092601526128816000f3fe6080604052600436106100ec5760003560e01c80634d44560d1161008a578063affed0e011610059578063affed0e0146102ab578063b0d691fe146102d6578063c399ec8814610301578063c4d66de81461032c576100f3565b80634d44560d146102105780634f1ef2861461023957806352d1902d146102555780638da5cb5b14610280576100f3565b80633659cfe6116100c65780633659cfe6146101895780633ad59dbc146101b25780633f579f42146101dd5780634a58db1914610206576100f3565b80630825d1fc146100f857806318dfb3c714610135578063245a7bfc1461015e576100f3565b366100f357005b600080fd5b34801561010457600080fd5b5061011f600480360381019061011a919061172f565b610355565b60405161012c91906117c1565b60405180910390f35b34801561014157600080fd5b5061015c60048036038101906101579190611897565b6103a1565b005b34801561016a57600080fd5b506101736104b3565b6040516101809190611927565b60405180910390f35b34801561019557600080fd5b506101b060048036038101906101ab9190611942565b6104d7565b005b3480156101be57600080fd5b506101c7610660565b6040516101d49190611927565b60405180910390f35b3480156101e957600080fd5b5061020460048036038101906101ff91906119c5565b610688565b005b61020e6106e5565b005b34801561021c57600080fd5b5061023760048036038101906102329190611a77565b610765565b005b610253600480360381019061024e9190611bf8565b6107e5565b005b34801561026157600080fd5b5061026a610922565b6040516102779190611c63565b60405180910390f35b34801561028c57600080fd5b506102956109db565b6040516102a29190611927565b60405180910390f35b3480156102b757600080fd5b506102c0610a01565b6040516102cd91906117c1565b60405180910390f35b3480156102e257600080fd5b506102eb610a30565b6040516102f89190611cdd565b60405180910390f35b34801561030d57600080fd5b50610316610a58565b60405161032391906117c1565b60405180910390f35b34801561033857600080fd5b50610353600480360381019061034e9190611942565b610ae0565b005b600061035f610c21565b61036a858585610c98565b9050600085806040019061037e9190611d07565b905014156103905761038f85610d33565b5b61039982610de1565b949350505050565b6103a9610e7d565b8181905084849050146103f1576040517f08c379a00000000000000000000000000000000000000000000000000000000081526004016103e890611ded565b60405180910390fd5b60005b848490508110156104ac5761049985858381811061041557610414611e0d565b5b905060200201602081019061042a9190611942565b600085858581811061043f5761043e611e0d565b5b90506020028101906104519190611d07565b8080601f016020809104026020016040519081016040528093929190818152602001838380828437600081840152601f19601f82011690508083019250505050505050610f4c565b80806104a490611e6b565b9150506103f4565b5050505050565b7f000000000000000000000000000000000000000000000000000000000000000081565b7f000000000000000000000000000000000000000000000000000000000000000073ffffffffffffffffffffffffffffffffffffffff163073ffffffffffffffffffffffffffffffffffffffff161415610566576040517f08c379a000000000000000000000000000000000000000000000000000000000815260040161055d90611f26565b60405180910390fd5b7f000000000000000000000000000000000000000000000000000000000000000073ffffffffffffffffffffffffffffffffffffffff166105a5610fd0565b73ffffffffffffffffffffffffffffffffffffffff16146105fb576040517f08c379a00000000000000000000000000000000000000000000000000000000081526004016105f290611fb8565b60405180910390fd5b61060481611027565b61065d81600067ffffffffffffffff81111561062357610622611acd565b5b6040519080825280601f01601f1916602001820160405280156106555781602001600182028036833780820191505090505b506000611032565b50565b60007f0000000000000000000000000000000000000000000000000000000000000000905090565b610690610e7d565b6106df848484848080601f016020809104026020016040519081016040528093929190818152602001838380828437600081840152601f19601f82011690508083019250505050505050610f4c565b50505050565b60006106ef610a30565b73ffffffffffffffffffffffffffffffffffffffff163460405161071290612009565b60006040518083038185875af1925050503d806000811461074f576040519150601f19603f3d011682016040523d82523d6000602084013e610754565b606091505b505090508061076257600080fd5b50565b61076d6111a0565b610775610a30565b73ffffffffffffffffffffffffffffffffffffffff1663205c287883836040518363ffffffff1660e01b81526004016107af92919061202d565b600060405180830381600087803b1580156107c957600080fd5b505af11580156107dd573d6000803e3d6000fd5b505050505050565b7f000000000000000000000000000000000000000000000000000000000000000073ffffffffffffffffffffffffffffffffffffffff163073ffffffffffffffffffffffffffffffffffffffff161415610874576040517f08c379a000000000000000000000000000000000000000000000000000000000815260040161086b90611f26565b60405180910390fd5b7f000000000000000000000000000000000000000000000000000000000000000073ffffffffffffffffffffffffffffffffffffffff166108b3610fd0565b73ffffffffffffffffffffffffffffffffffffffff1614610909576040517f08c379a000000000000000000000000000000000000000000000000000000000815260040161090090611fb8565b60405180910390fd5b61091282611027565b61091e82826001611032565b5050565b60007f000000000000000000000000000000000000000000000000000000000000000073ffffffffffffffffffffffffffffffffffffffff163073ffffffffffffffffffffffffffffffffffffffff16146109b2576040517f08c379a00000000000000000000000000000000000000000000000000000000081526004016109a9906120c8565b60405180910390fd5b7f360894a13ba1a3210667c828492db98dca3e2076cc3735a920a3ca505d382bbc60001b905090565b600160009054906101000a900473ffffffffffffffffffffffffffffffffffffffff1681565b60008060029054906101000a90046bffffffffffffffffffffffff166bffffffffffffffffffffffff16905090565b60007f0000000000000000000000000000000000000000000000000000000000000000905090565b6000610a62610a30565b73ffffffffffffffffffffffffffffffffffffffff166370a08231306040518263ffffffff1660e01b8152600401610a9a9190611927565b602060405180830381865afa158015610ab7573d6000803e3d6000fd5b505050506040513d601f19601f82011682018060405250810190610adb91906120fd565b905090565b60008060019054906101000a900460ff16159050808015610b115750600160008054906101000a900460ff1660ff16105b80610b3e5750610b2030611268565b158015610b3d5750600160008054906101000a900460ff1660ff16145b5b610b7d576040517f08c379a0000000000000000000000000000000000000000000000000000000008152600401610b749061219c565b60405180910390fd5b60016000806101000a81548160ff021916908360ff1602179055508015610bba576001600060016101000a81548160ff0219169083151502179055505b610bc4600061128b565b8015610c1d5760008060016101000a81548160ff0219169083151502179055507f7f26b83ff96e1f2b6a682f133852f6798a09c465da95921460cefb38474024986001604051610c149190612204565b60405180910390a15b5050565b610c29610a30565b73ffffffffffffffffffffffffffffffffffffffff163373ffffffffffffffffffffffffffffffffffffffff1614610c96576040517f08c379a0000000000000000000000000000000000000000000000000000000008152600401610c8d90612291565b60405180910390fd5b565b60007f000000000000000000000000000000000000000000000000000000000000000073ffffffffffffffffffffffffffffffffffffffff168273ffffffffffffffffffffffffffffffffffffffff1614610d28576040517f08c379a0000000000000000000000000000000000000000000000000000000008152600401610d1f906122fd565b60405180910390fd5b600090509392505050565b80602001356000600281819054906101000a90046bffffffffffffffffffffffff1680929190610d6290612335565b91906101000a8154816bffffffffffffffffffffffff02191690836bffffffffffffffffffffffff1602179055506bffffffffffffffffffffffff1614610dde576040517f08c379a0000000000000000000000000000000000000000000000000000000008152600401610dd5906123b6565b60405180910390fd5b50565b60008114610e7a5760003373ffffffffffffffffffffffffffffffffffffffff16827fffffffffffffffffffffffffffffffffffffffffffffffffffffffffffffffff90604051610e3190612009565b600060405180830381858888f193505050503d8060008114610e6f576040519150601f19603f3d011682016040523d82523d6000602084013e610e74565b606091505b50509050505b50565b610e85610a30565b73ffffffffffffffffffffffffffffffffffffffff163373ffffffffffffffffffffffffffffffffffffffff161480610f0b5750600160009054906101000a900473ffffffffffffffffffffffffffffffffffffffff1673ffffffffffffffffffffffffffffffffffffffff163373ffffffffffffffffffffffffffffffffffffffff16145b610f4a576040517f08c379a0000000000000000000000000000000000000000000000000000000008152600401610f4190612448565b60405180910390fd5b565b6000808473ffffffffffffffffffffffffffffffffffffffff168484604051610f7591906124d7565b60006040518083038185875af1925050503d8060008114610fb2576040519150601f19603f3d011682016040523d82523d6000602084013e610fb7565b606091505b509150915081610fc957805160208201fd5b5050505050565b6000610ffe7f360894a13ba1a3210667c828492db98dca3e2076cc3735a920a3ca505d382bbc60001b61136b565b60000160009054906101000a900473ffffffffffffffffffffffffffffffffffffffff16905090565b61102f6111a0565b50565b61105e7f4910fdfa16fed3260ed0e7147f7cc6da11a60208b5b9406d12a635614ffd914360001b611375565b60000160009054906101000a900460ff16156110825761107d8361137f565b61119b565b8273ffffffffffffffffffffffffffffffffffffffff166352d1902d6040518163ffffffff1660e01b8152600401602060405180830381865afa9250505080156110ea57506040513d601f19601f820116820180604052508101906110e79190612503565b60015b611129576040517f08c379a0000000000000000000000000000000000000000000000000000000008152600401611120906125a2565b60405180910390fd5b7f360894a13ba1a3210667c828492db98dca3e2076cc3735a920a3ca505d382bbc60001b811461118e576040517f08c379a000000000000000000000000000000000000000000000000000000000815260040161118590612634565b60405180910390fd5b5061119a838383611438565b5b505050565b600160009054906101000a900473ffffffffffffffffffffffffffffffffffffffff1673ffffffffffffffffffffffffffffffffffffffff163373ffffffffffffffffffffffffffffffffffffffff16148061122757503073ffffffffffffffffffffffffffffffffffffffff163373ffffffffffffffffffffffffffffffffffffffff16145b611266576040517f08c379a000000000000000000000000000000000000000000000000000000000815260040161125d906126a0565b60405180910390fd5b565b6000808273ffffffffffffffffffffffffffffffffffffffff163b119050919050565b80600160006101000a81548173ffffffffffffffffffffffffffffffffffffffff021916908373ffffffffffffffffffffffffffffffffffffffff160217905550600160009054906101000a900473ffffffffffffffffffffffffffffffffffffffff1673ffffffffffffffffffffffffffffffffffffffff167f000000000000000000000000000000000000000000000000000000000000000073ffffffffffffffffffffffffffffffffffffffff167fc053dd35e22ddb3ae5f46f48289137bbba99fdd1068c0f7d3069bb62dab393fd60405160405180910390a350565b6000819050919050565b6000819050919050565b61138881611268565b6113c7576040517f08c379a00000000000000000000000000000000000000000000000000000000081526004016113be90612732565b60405180910390fd5b806113f47f360894a13ba1a3210667c828492db98dca3e2076cc3735a920a3ca505d382bbc60001b61136b565b60000160006101000a81548173ffffffffffffffffffffffffffffffffffffffff021916908373ffffffffffffffffffffffffffffffffffffffff16021790555050565b61144183611464565b60008251118061144e5750805b1561145f5761145d83836114b3565b505b505050565b61146d8161137f565b8073ffffffffffffffffffffffffffffffffffffffff167fbc7cd75a20ee27fd9adebab32041f755214dbc6bffa90cc0225b39da2e5c2d3b60405160405180910390a250565b60606114d88383604051806060016040528060278152602001612825602791396114e0565b905092915050565b60606000808573ffffffffffffffffffffffffffffffffffffffff168560405161150a91906124d7565b600060405180830381855af49150503d8060008114611545576040519150601f19603f3d011682016040523d82523d6000602084013e61154a565b606091505b509150915061155b86838387611566565b925050509392505050565b606083156115c9576000835114156115c15761158185611268565b6115c0576040517f08c379a00000000000000000000000000000000000000000000000000000000081526004016115b79061279e565b60405180910390fd5b5b8290506115d4565b6115d383836115dc565b5b949350505050565b6000825111156115ef5781518083602001fd5b806040517f08c379a00000000000000000000000000000000000000000000000000000000081526004016116239190612802565b60405180910390fd5b6000604051905090565b600080fd5b600080fd5b600080fd5b6000610160828403121561165c5761165b611640565b5b81905092915050565b6000819050919050565b61167881611665565b811461168357600080fd5b50565b6000813590506116958161166f565b92915050565b600073ffffffffffffffffffffffffffffffffffffffff82169050919050565b60006116c68261169b565b9050919050565b6116d6816116bb565b81146116e157600080fd5b50565b6000813590506116f3816116cd565b92915050565b6000819050919050565b61170c816116f9565b811461171757600080fd5b50565b60008135905061172981611703565b92915050565b6000806000806080858703121561174957611748611636565b5b600085013567ffffffffffffffff8111156117675761176661163b565b5b61177387828801611645565b945050602061178487828801611686565b9350506040611795878288016116e4565b92505060606117a68782880161171a565b91505092959194509250565b6117bb816116f9565b82525050565b60006020820190506117d660008301846117b2565b92915050565b600080fd5b600080fd5b600080fd5b60008083601f840112611801576118006117dc565b5b8235905067ffffffffffffffff81111561181e5761181d6117e1565b5b60208301915083602082028301111561183a576118396117e6565b5b9250929050565b60008083601f840112611857576118566117dc565b5b8235905067ffffffffffffffff811115611874576118736117e1565b5b6020830191508360208202830111156118905761188f6117e6565b5b9250929050565b600080600080604085870312156118b1576118b0611636565b5b600085013567ffffffffffffffff8111156118cf576118ce61163b565b5b6118db878288016117eb565b9450945050602085013567ffffffffffffffff8111156118fe576118fd61163b565b5b61190a87828801611841565b925092505092959194509250565b611921816116bb565b82525050565b600060208201905061193c6000830184611918565b92915050565b60006020828403121561195857611957611636565b5b6000611966848285016116e4565b91505092915050565b60008083601f840112611985576119846117dc565b5b8235905067ffffffffffffffff8111156119a2576119a16117e1565b5b6020830191508360018202830111156119be576119bd6117e6565b5b9250929050565b600080600080606085870312156119df576119de611636565b5b60006119ed878288016116e4565b94505060206119fe8782880161171a565b935050604085013567ffffffffffffffff811115611a1f57611a1e61163b565b5b611a2b8782880161196f565b925092505092959194509250565b6000611a448261169b565b9050919050565b611a5481611a39565b8114611a5f57600080fd5b50565b600081359050611a7181611a4b565b92915050565b60008060408385031215611a8e57611a8d611636565b5b6000611a9c85828601611a62565b9250506020611aad8582860161171a565b9150509250929050565b600080fd5b6000601f19601f8301169050919050565b7f4e487b7100000000000000000000000000000000000000000000000000000000600052604160045260246000fd5b611b0582611abc565b810181811067ffffffffffffffff82111715611b2457611b23611acd565b5b80604052505050565b6000611b3761162c565b9050611b438282611afc565b919050565b600067ffffffffffffffff821115611b6357611b62611acd565b5b611b6c82611abc565b9050602081019050919050565b82818337600083830152505050565b6000611b9b611b9684611b48565b611b2d565b905082815260208101848484011115611bb757611bb6611ab7565b5b611bc2848285611b79565b509392505050565b600082601f830112611bdf57611bde6117dc565b5b8135611bef848260208601611b88565b91505092915050565b60008060408385031215611c0f57611c0e611636565b5b6000611c1d858286016116e4565b925050602083013567ffffffffffffffff811115611c3e57611c3d61163b565b5b611c4a85828601611bca565b9150509250929050565b611c5d81611665565b82525050565b6000602082019050611c786000830184611c54565b92915050565b6000819050919050565b6000611ca3611c9e611c998461169b565b611c7e565b61169b565b9050919050565b6000611cb582611c88565b9050919050565b6000611cc782611caa565b9050919050565b611cd781611cbc565b82525050565b6000602082019050611cf26000830184611cce565b92915050565b600080fd5b600080fd5b600080fd5b60008083356001602003843603038112611d2457611d23611cf8565b5b80840192508235915067ffffffffffffffff821115611d4657611d45611cfd565b5b602083019250600182023603831315611d6257611d61611d02565b5b509250929050565b600082825260208201905092915050565b7f457468657273706f744163636f756e743a3a206578656375746542617463682060008201527f2d2077726f6e67206172726179206c656e677468730000000000000000000000602082015250565b6000611dd7603583611d6a565b9150611de282611d7b565b604082019050919050565b60006020820190508181036000830152611e0681611dca565b9050919050565b7f4e487b7100000000000000000000000000000000000000000000000000000000600052603260045260246000fd5b7f4e487b7100000000000000000000000000000000000000000000000000000000600052601160045260246000fd5b6000611e76826116f9565b91507fffffffffffffffffffffffffffffffffffffffffffffffffffffffffffffffff821415611ea957611ea8611e3c565b5b600182019050919050565b7f46756e6374696f6e206d7573742062652063616c6c6564207468726f7567682060008201527f64656c656761746563616c6c0000000000000000000000000000000000000000602082015250565b6000611f10602c83611d6a565b9150611f1b82611eb4565b604082019050919050565b60006020820190508181036000830152611f3f81611f03565b9050919050565b7f46756e6374696f6e206d7573742062652063616c6c6564207468726f7567682060008201527f6163746976652070726f78790000000000000000000000000000000000000000602082015250565b6000611fa2602c83611d6a565b9150611fad82611f46565b604082019050919050565b60006020820190508181036000830152611fd181611f95565b9050919050565b600081905092915050565b50565b6000611ff3600083611fd8565b9150611ffe82611fe3565b600082019050919050565b600061201482611fe6565b9150819050919050565b61202781611a39565b82525050565b6000604082019050612042600083018561201e565b61204f60208301846117b2565b9392505050565b7f555550535570677261646561626c653a206d757374206e6f742062652063616c60008201527f6c6564207468726f7567682064656c656761746563616c6c0000000000000000602082015250565b60006120b2603883611d6a565b91506120bd82612056565b604082019050919050565b600060208201905081810360008301526120e1816120a5565b9050919050565b6000815190506120f781611703565b92915050565b60006020828403121561211357612112611636565b5b6000612121848285016120e8565b91505092915050565b7f496e697469616c697a61626c653a20636f6e747261637420697320616c72656160008201527f647920696e697469616c697a6564000000000000000000000000000000000000602082015250565b6000612186602e83611d6a565b91506121918261212a565b604082019050919050565b600060208201905081810360008301526121b581612179565b9050919050565b6000819050919050565b600060ff82169050919050565b60006121ee6121e96121e4846121bc565b611c7e565b6121c6565b9050919050565b6121fe816121d3565b82525050565b600060208201905061221960008301846121f5565b92915050565b7f457468657273706f744163636f756e743a204e6f742066726f6d20456e74727960008201527f506f696e74000000000000000000000000000000000000000000000000000000602082015250565b600061227b602583611d6a565b91506122868261221f565b604082019050919050565b600060208201905081810360008301526122aa8161226e565b9050919050565b7f77726f6e672061676772656761746f7200000000000000000000000000000000600082015250565b60006122e7601083611d6a565b91506122f2826122b1565b602082019050919050565b60006020820190508181036000830152612316816122da565b9050919050565b60006bffffffffffffffffffffffff82169050919050565b60006123408261231d565b91506bffffffffffffffffffffffff82141561235f5761235e611e3c565b5b600182019050919050565b7f457468657273706f744163636f756e743a3a20496e76616c6964206e6f6e6365600082015250565b60006123a0602083611d6a565b91506123ab8261236a565b602082019050919050565b600060208201905081810360008301526123cf81612393565b9050919050565b7f457468657273706f744163636f756e743a3a204e6f74204f776e6572206f722060008201527f456e747279506f696e7400000000000000000000000000000000000000000000602082015250565b6000612432602a83611d6a565b915061243d826123d6565b604082019050919050565b6000602082019050818103600083015261246181612425565b9050919050565b600081519050919050565b60005b83811015612491578082015181840152602081019050612476565b838111156124a0576000848401525b50505050565b60006124b182612468565b6124bb8185611fd8565b93506124cb818560208601612473565b80840191505092915050565b60006124e382846124a6565b915081905092915050565b6000815190506124fd8161166f565b92915050565b60006020828403121561251957612518611636565b5b6000612527848285016124ee565b91505092915050565b7f45524331393637557067726164653a206e657720696d706c656d656e7461746960008201527f6f6e206973206e6f742055555053000000000000000000000000000000000000602082015250565b600061258c602e83611d6a565b915061259782612530565b604082019050919050565b600060208201905081810360008301526125bb8161257f565b9050919050565b7f45524331393637557067726164653a20756e737570706f727465642070726f7860008201527f6961626c65555549440000000000000000000000000000000000000000000000602082015250565b600061261e602983611d6a565b9150612629826125c2565b604082019050919050565b6000602082019050818103600083015261264d81612611565b9050919050565b7f457468657273706f744163636f756e743a3a204f6e6c79206f776e6572000000600082015250565b600061268a601d83611d6a565b915061269582612654565b602082019050919050565b600060208201905081810360008301526126b98161267d565b9050919050565b7f455243313936373a206e657720696d706c656d656e746174696f6e206973206e60008201527f6f74206120636f6e747261637400000000000000000000000000000000000000602082015250565b600061271c602d83611d6a565b9150612727826126c0565b604082019050919050565b6000602082019050818103600083015261274b8161270f565b9050919050565b7f416464726573733a2063616c6c20746f206e6f6e2d636f6e7472616374000000600082015250565b6000612788601d83611d6a565b915061279382612752565b602082019050919050565b600060208201905081810360008301526127b78161277b565b9050919050565b600081519050919050565b60006127d4826127be565b6127de8185611d6a565b93506127ee818560208601612473565b6127f781611abc565b840191505092915050565b6000602082019050818103600083015261281c81846127c9565b90509291505056fe416464726573733a206c6f772d6c6576656c2064656c65676174652063616c6c206661696c6564a2646970667358221220fe76bdb6291156b7595140dc275b8075d9abb1e32ec6c2522e49ebffc75e082364736f6c634300080c0033",
  "linkReferences": {},
  "deployedLinkReferences": {}
}