{
  "_format": "hh-sol-artifact-1",
  "contractName": "EtherspotPaymaster",
  "sourceName": "src/TEST_EtherspotPaymaster.sol",
  "abi": [
    {
      "inputs": [
        {
          "internalType": "contract IEntryPoint",
          "name": "_entryPoint",
          "type": "address"
        }
      ],
      "stateMutability": "nonpayable",
      "type": "constructor"
    },
    {
      "anonymous": false,
      "inputs": [
        {
          "indexed": true,
          "internalType": "address",
          "name": "paymaster",
          "type": "address"
        },
        {
          "indexed": true,
          "internalType": "address[]",
          "name": "accounts",
          "type": "address[]"
        }
      ],
      "name": "AddedBatchToWhitelist",
      "type": "event"
    },
    {
      "anonymous": false,
      "inputs": [
        {
          "indexed": true,
          "internalType": "address",
          "name": "paymaster",
          "type": "address"
        },
        {
          "indexed": true,
          "internalType": "address",
          "name": "account",
          "type": "address"
        }
      ],
      "name": "AddedToWhitelist",
      "type": "event"
    },
    {
      "anonymous": false,
      "inputs": [
        {
          "indexed": true,
          "internalType": "address",
          "name": "previousOwner",
          "type": "address"
        },
        {
          "indexed": true,
          "internalType": "address",
          "name": "newOwner",
          "type": "address"
        }
      ],
      "name": "OwnershipTransferred",
      "type": "event"
    },
    {
      "anonymous": false,
      "inputs": [
        {
          "indexed": true,
          "internalType": "address",
          "name": "paymaster",
          "type": "address"
        },
        {
          "indexed": true,
          "internalType": "address[]",
          "name": "accounts",
          "type": "address[]"
        }
      ],
      "name": "RemovedBatchFromWhitelist",
      "type": "event"
    },
    {
      "anonymous": false,
      "inputs": [
        {
          "indexed": true,
          "internalType": "address",
          "name": "paymaster",
          "type": "address"
        },
        {
          "indexed": true,
          "internalType": "address",
          "name": "account",
          "type": "address"
        }
      ],
      "name": "RemovedFromWhitelist",
      "type": "event"
    },
    {
      "anonymous": false,
      "inputs": [
        {
          "indexed": false,
          "internalType": "address",
          "name": "owner",
          "type": "address"
        },
        {
          "indexed": false,
          "internalType": "string",
          "name": "version",
          "type": "string"
        }
      ],
      "name": "WhitelistInitialized",
      "type": "event"
    },
    {
      "inputs": [
        {
          "internalType": "address",
          "name": "_account",
          "type": "address"
        }
      ],
      "name": "add",
      "outputs": [],
      "stateMutability": "nonpayable",
      "type": "function"
    },
    {
      "inputs": [
        {
          "internalType": "address[]",
          "name": "_accounts",
          "type": "address[]"
        }
      ],
      "name": "addBatch",
      "outputs": [],
      "stateMutability": "nonpayable",
      "type": "function"
    },
    {
      "inputs": [
        {
          "internalType": "uint32",
          "name": "unstakeDelaySec",
          "type": "uint32"
        }
      ],
      "name": "addStake",
      "outputs": [],
      "stateMutability": "payable",
      "type": "function"
    },
    {
      "inputs": [
        {
          "internalType": "address",
          "name": "_sponsor",
          "type": "address"
        },
        {
          "internalType": "address",
          "name": "_account",
          "type": "address"
        }
      ],
      "name": "check",
      "outputs": [
        {
          "internalType": "bool",
          "name": "",
          "type": "bool"
        }
      ],
      "stateMutability": "view",
      "type": "function"
    },
    {
      "inputs": [
        {
          "internalType": "address",
          "name": "_sponsor",
          "type": "address"
        }
      ],
      "name": "checkSponsorFunds",
      "outputs": [
        {
          "internalType": "uint256",
          "name": "",
          "type": "uint256"
        }
      ],
      "stateMutability": "view",
      "type": "function"
    },
    {
      "inputs": [],
      "name": "deposit",
      "outputs": [],
      "stateMutability": "payable",
      "type": "function"
    },
    {
      "inputs": [],
      "name": "depositFunds",
      "outputs": [],
      "stateMutability": "payable",
      "type": "function"
    },
    {
      "inputs": [],
      "name": "entryPoint",
      "outputs": [
        {
          "internalType": "contract IEntryPoint",
          "name": "",
          "type": "address"
        }
      ],
      "stateMutability": "view",
      "type": "function"
    },
    {
      "inputs": [],
      "name": "getDeposit",
      "outputs": [
        {
          "internalType": "uint256",
          "name": "",
          "type": "uint256"
        }
      ],
      "stateMutability": "view",
      "type": "function"
    },
    {
      "inputs": [
        {
          "components": [
            {
              "internalType": "address",
              "name": "sender",
              "type": "address"
            },
            {
              "internalType": "uint256",
              "name": "nonce",
              "type": "uint256"
            },
            {
              "internalType": "bytes",
              "name": "initCode",
              "type": "bytes"
            },
            {
              "internalType": "bytes",
              "name": "callData",
              "type": "bytes"
            },
            {
              "internalType": "uint256",
              "name": "callGasLimit",
              "type": "uint256"
            },
            {
              "internalType": "uint256",
              "name": "verificationGasLimit",
              "type": "uint256"
            },
            {
              "internalType": "uint256",
              "name": "preVerificationGas",
              "type": "uint256"
            },
            {
              "internalType": "uint256",
              "name": "maxFeePerGas",
              "type": "uint256"
            },
            {
              "internalType": "uint256",
              "name": "maxPriorityFeePerGas",
              "type": "uint256"
            },
            {
              "internalType": "bytes",
              "name": "paymasterAndData",
              "type": "bytes"
            },
            {
              "internalType": "bytes",
              "name": "signature",
              "type": "bytes"
            }
          ],
          "internalType": "struct UserOperation",
          "name": "userOp",
          "type": "tuple"
        }
      ],
      "name": "getHash",
      "outputs": [
        {
          "internalType": "bytes32",
          "name": "",
          "type": "bytes32"
        }
      ],
      "stateMutability": "pure",
      "type": "function"
    },
    {
      "inputs": [],
      "name": "owner",
      "outputs": [
        {
          "internalType": "address",
          "name": "",
          "type": "address"
        }
      ],
      "stateMutability": "view",
      "type": "function"
    },
    {
      "inputs": [
        {
          "internalType": "enum IPaymaster.PostOpMode",
          "name": "mode",
          "type": "uint8"
        },
        {
          "internalType": "bytes",
          "name": "context",
          "type": "bytes"
        },
        {
          "internalType": "uint256",
          "name": "actualGasCost",
          "type": "uint256"
        }
      ],
      "name": "postOp",
      "outputs": [],
      "stateMutability": "nonpayable",
      "type": "function"
    },
    {
      "inputs": [
        {
          "internalType": "address",
          "name": "_account",
          "type": "address"
        }
      ],
      "name": "remove",
      "outputs": [],
      "stateMutability": "nonpayable",
      "type": "function"
    },
    {
      "inputs": [
        {
          "internalType": "address[]",
          "name": "_accounts",
          "type": "address[]"
        }
      ],
      "name": "removeBatch",
      "outputs": [],
      "stateMutability": "nonpayable",
      "type": "function"
    },
    {
      "inputs": [],
      "name": "renounceOwnership",
      "outputs": [],
      "stateMutability": "nonpayable",
      "type": "function"
    },
    {
      "inputs": [
        {
          "internalType": "contract IEntryPoint",
          "name": "_entryPoint",
          "type": "address"
        }
      ],
      "name": "setEntryPoint",
      "outputs": [],
      "stateMutability": "nonpayable",
      "type": "function"
    },
    {
      "inputs": [
        {
          "internalType": "address",
          "name": "",
          "type": "address"
        }
      ],
      "name": "sponsorFunds",
      "outputs": [
        {
          "internalType": "uint256",
          "name": "",
          "type": "uint256"
        }
      ],
      "stateMutability": "view",
      "type": "function"
    },
    {
      "inputs": [
        {
          "internalType": "address",
          "name": "newOwner",
          "type": "address"
        }
      ],
      "name": "transferOwnership",
      "outputs": [],
      "stateMutability": "nonpayable",
      "type": "function"
    },
    {
      "inputs": [],
      "name": "unlockStake",
      "outputs": [],
      "stateMutability": "nonpayable",
      "type": "function"
    },
    {
      "inputs": [
        {
          "components": [
            {
              "internalType": "address",
              "name": "sender",
              "type": "address"
            },
            {
              "internalType": "uint256",
              "name": "nonce",
              "type": "uint256"
            },
            {
              "internalType": "bytes",
              "name": "initCode",
              "type": "bytes"
            },
            {
              "internalType": "bytes",
              "name": "callData",
              "type": "bytes"
            },
            {
              "internalType": "uint256",
              "name": "callGasLimit",
              "type": "uint256"
            },
            {
              "internalType": "uint256",
              "name": "verificationGasLimit",
              "type": "uint256"
            },
            {
              "internalType": "uint256",
              "name": "preVerificationGas",
              "type": "uint256"
            },
            {
              "internalType": "uint256",
              "name": "maxFeePerGas",
              "type": "uint256"
            },
            {
              "internalType": "uint256",
              "name": "maxPriorityFeePerGas",
              "type": "uint256"
            },
            {
              "internalType": "bytes",
              "name": "paymasterAndData",
              "type": "bytes"
            },
            {
              "internalType": "bytes",
              "name": "signature",
              "type": "bytes"
            }
          ],
          "internalType": "struct UserOperation",
          "name": "userOp",
          "type": "tuple"
        },
        {
          "internalType": "bytes32",
          "name": "",
          "type": "bytes32"
        },
        {
          "internalType": "uint256",
          "name": "requiredPreFund",
          "type": "uint256"
        }
      ],
      "name": "validatePaymasterUserOp",
      "outputs": [
        {
          "internalType": "bytes",
          "name": "context",
          "type": "bytes"
        },
        {
          "internalType": "uint256",
          "name": "sigTimeRange",
          "type": "uint256"
        }
      ],
      "stateMutability": "view",
      "type": "function"
    },
    {
      "inputs": [
        {
          "internalType": "address",
          "name": "",
          "type": "address"
        },
        {
          "internalType": "address",
          "name": "",
          "type": "address"
        }
      ],
      "name": "whitelist",
      "outputs": [
        {
          "internalType": "bool",
          "name": "",
          "type": "bool"
        }
      ],
      "stateMutability": "view",
      "type": "function"
    },
    {
      "inputs": [
        {
          "internalType": "address payable",
          "name": "withdrawAddress",
          "type": "address"
        }
      ],
      "name": "withdrawStake",
      "outputs": [],
      "stateMutability": "nonpayable",
      "type": "function"
    },
    {
      "inputs": [
        {
          "internalType": "address payable",
          "name": "withdrawAddress",
          "type": "address"
        },
        {
          "internalType": "uint256",
          "name": "amount",
          "type": "uint256"
        }
      ],
      "name": "withdrawTo",
      "outputs": [],
      "stateMutability": "nonpayable",
      "type": "function"
    }
  ],
  "bytecode": "0x60806040523480156200001157600080fd5b5060405162003bfa38038062003bfa8339818101604052810190620000379190620003af565b80620000586200004c620000e160201b60201c565b620000e960201b60201c565b62000074674eccc7e3b137752860c01b620001ad60201b60201c565b620000906761d2b9b0f67ad7c960c01b620001ad60201b60201c565b620000ac67d9ad280a158e404360c01b620001ad60201b60201c565b620000bd81620001b060201b60201c565b50620000da6728d5c14b6fd48e0b60c01b6200027460201b60201c565b5062000464565b600033905090565b60008060009054906101000a900473ffffffffffffffffffffffffffffffffffffffff169050816000806101000a81548173ffffffffffffffffffffffffffffffffffffffff021916908373ffffffffffffffffffffffffffffffffffffffff1602179055508173ffffffffffffffffffffffffffffffffffffffff168173ffffffffffffffffffffffffffffffffffffffff167f8be0079c531659141344cd1fd0a4f28419497f9722a3daafe3b4186f6b6457e060405160405180910390a35050565b50565b620001cc6725e7584f7e25728160c01b620001ad60201b60201c565b620001dc6200027760201b60201c565b620001f8674d431bb5bd2d8c0660c01b620001ad60201b60201c565b62000214671f8727ca4f9ea6f060c01b620001ad60201b60201c565b62000230679519937192be203060c01b620001ad60201b60201c565b80600160006101000a81548173ffffffffffffffffffffffffffffffffffffffff021916908373ffffffffffffffffffffffffffffffffffffffff16021790555050565b50565b62000287620000e160201b60201c565b73ffffffffffffffffffffffffffffffffffffffff16620002ad6200030860201b60201c565b73ffffffffffffffffffffffffffffffffffffffff161462000306576040517f08c379a0000000000000000000000000000000000000000000000000000000008152600401620002fd9062000442565b60405180910390fd5b565b60008060009054906101000a900473ffffffffffffffffffffffffffffffffffffffff16905090565b600080fd5b600073ffffffffffffffffffffffffffffffffffffffff82169050919050565b6000620003638262000336565b9050919050565b6000620003778262000356565b9050919050565b62000389816200036a565b81146200039557600080fd5b50565b600081519050620003a9816200037e565b92915050565b600060208284031215620003c857620003c762000331565b5b6000620003d88482850162000398565b91505092915050565b600082825260208201905092915050565b7f4f776e61626c653a2063616c6c6572206973206e6f7420746865206f776e6572600082015250565b60006200042a602083620003e1565b91506200043782620003f2565b602082019050919050565b600060208201905081810360008301526200045d816200041b565b9050919050565b61378680620004746000396000f3fe6080604052600436106101405760003560e01c8063b092145e116100b6578063c399ec881161006f578063c399ec8814610421578063d0e30db01461044c578063d672bd8414610456578063e2c41dbc14610493578063f2fde38b1461049d578063f465c77e146104c657610140565b8063b092145e146102ff578063b0d691fe1461033c578063b3154db014610367578063bb9fe6bf146103a4578063c23a5cea146103bb578063c266f292146103e457610140565b80633f514c25116101085780633f514c2514610205578063584465f2146102425780636b845bfe1461026b578063715018a6146102945780638da5cb5b146102ab578063a9a23409146102d657610140565b80630396cb60146101455780630a3b0a4f14610161578063205c28781461018a57806324efa264146101b357806329092d0e146101dc575b600080fd5b61015f600480360381019061015a91906124a6565b610504565b005b34801561016d57600080fd5b5061018860048036038101906101839190612531565b610601565b005b34801561019657600080fd5b506101b160048036038101906101ac91906125d2565b610649565b005b3480156101bf57600080fd5b506101da60048036038101906101d59190612677565b610748565b005b3480156101e857600080fd5b5061020360048036038101906101fe9190612531565b610815565b005b34801561021157600080fd5b5061022c60048036038101906102279190612531565b61085d565b60405161023991906126d3565b60405180910390f35b34801561024e57600080fd5b506102696004803603810190610264919061272c565b610875565b005b34801561027757600080fd5b50610292600480360381019061028d9190612677565b610911565b005b3480156102a057600080fd5b506102a96109de565b005b3480156102b757600080fd5b506102c06109f2565b6040516102cd9190612768565b60405180910390f35b3480156102e257600080fd5b506102fd60048036038101906102f891906127fe565b610a1b565b005b34801561030b57600080fd5b5061032660048036038101906103219190612872565b610a99565b60405161033391906128cd565b60405180910390f35b34801561034857600080fd5b50610351610ac8565b60405161035e9190612947565b60405180910390f35b34801561037357600080fd5b5061038e60048036038101906103899190612872565b610aee565b60405161039b91906128cd565b60405180910390f35b3480156103b057600080fd5b506103b9610b3e565b005b3480156103c757600080fd5b506103e260048036038101906103dd9190612962565b610c2e565b005b3480156103f057600080fd5b5061040b600480360381019061040691906129b4565b610d2a565b6040516104189190612a16565b60405180910390f35b34801561042d57600080fd5b50610436610e11565b60405161044391906126d3565b60405180910390f35b610454610ef0565b005b34801561046257600080fd5b5061047d60048036038101906104789190612531565b610fbc565b60405161048a91906126d3565b60405180910390f35b61049b611041565b005b3480156104a957600080fd5b506104c460048036038101906104bf9190612531565b611221565b005b3480156104d257600080fd5b506104ed60048036038101906104e89190612a5d565b6112a5565b6040516104fb929190612b65565b60405180910390f35b61051867ba155f5efe25da4f60c01b6116ba565b6105206116bd565b6105346736fb2667161c914060c01b6116ba565b6105486741f0617f9794d16860c01b6116ba565b61055c67790e549db14df0c260c01b6116ba565b61057067ce0737df6b9e42bb60c01b6116ba565b600160009054906101000a900473ffffffffffffffffffffffffffffffffffffffff1673ffffffffffffffffffffffffffffffffffffffff16630396cb6034836040518363ffffffff1660e01b81526004016105cc9190612ba4565b6000604051808303818588803b1580156105e557600080fd5b505af11580156105f9573d6000803e3d6000fd5b505050505050565b61061567d57585be8e56847760c01b61173b565b61062967acbca5a5f6964c6f60c01b61173b565b61063d67d05bd605adb9437560c01b61173b565b6106468161173e565b50565b61065d67b0a8c68e3f06c7ba60c01b6116ba565b6106656116bd565b610679678a1f9def4c20c6ff60c01b6116ba565b61068d674342d23de7a3ed5a60c01b6116ba565b6106a167cc9569cc5fe68f9d60c01b6116ba565b6106b567b6f029ee77278ef160c01b6116ba565b600160009054906101000a900473ffffffffffffffffffffffffffffffffffffffff1673ffffffffffffffffffffffffffffffffffffffff1663205c287883836040518363ffffffff1660e01b8152600401610712929190612bce565b600060405180830381600087803b15801561072c57600080fd5b505af1158015610740573d6000803e3d6000fd5b505050505050565b61075c67d7507995e3c7463f60c01b61173b565b61077067e533669f807a6eaf60c01b61173b565b610784671902aa892f3211fe60c01b61173b565b61078e82826119da565b6107a26779f65ba61c00541160c01b61173b565b6107b6672d4a6b9b541647b760c01b61173b565b81816040516107c6929190612cb4565b60405180910390203373ffffffffffffffffffffffffffffffffffffffff167f6eabb183ad4385932735ae89018089a008c58e814451b618bc0dd0e7922f6d1360405160405180910390a35050565b6108296734fedf354102226760c01b61173b565b61083d67652b5a2e4bbe170960c01b61173b565b6108516735ad2ea433cbbb9860c01b61173b565b61085a81611a92565b50565b60036020528060005260406000206000915090505481565b6108896725e7584f7e25728160c01b6116ba565b6108916116bd565b6108a5674d431bb5bd2d8c0660c01b6116ba565b6108b9671f8727ca4f9ea6f060c01b6116ba565b6108cd679519937192be203060c01b6116ba565b80600160006101000a81548173ffffffffffffffffffffffffffffffffffffffff021916908373ffffffffffffffffffffffffffffffffffffffff16021790555050565b610925678bb69f7437b29fe860c01b61173b565b61093967ff4e847d06a204e160c01b61173b565b61094d67885e4b5948deffcc60c01b61173b565b6109578282611d2d565b61096b67d3c41d6ac1d01dce60c01b61173b565b61097f67b658ee9ac8cbc25560c01b61173b565b818160405161098f929190612cb4565b60405180910390203373ffffffffffffffffffffffffffffffffffffffff167f75dcdde27b71b9c529ae8b02072e1eeda244662d2d9c2effea5a1afb8fc913f360405160405180910390a35050565b6109e66116bd565b6109f06000611de5565b565b60008060009054906101000a900473ffffffffffffffffffffffffffffffffffffffff16905090565b610a2f67850f91523560c17460c01b6116ba565b610a4367cfcc64f9dd3bc74260c01b6116ba565b610a576720fb2285cc651da660c01b6116ba565b610a5f611ea9565b610a7367df35162198eda5c560c01b6116ba565b610a8767124d5c09ea14919f60c01b6116ba565b610a9384848484611f69565b50505050565b60026020528160005260406000206020528060005260406000206000915091509054906101000a900460ff1681565b600160009054906101000a900473ffffffffffffffffffffffffffffffffffffffff1681565b6000610b046765fe99429942163f60c01b61173b565b610b1867533fd0e9a61ac95460c01b61173b565b610b2c67630e274b54306f1660c01b61173b565b610b368383611ff4565b905092915050565b610b5267095d65a7a668706c60c01b6116ba565b610b5a6116bd565b610b6e674ef176416d9783d860c01b6116ba565b610b8267bfe322990a47bc0760c01b6116ba565b610b9667874d39101d99253960c01b6116ba565b610baa67b423ba4701a0393460c01b6116ba565b600160009054906101000a900473ffffffffffffffffffffffffffffffffffffffff1673ffffffffffffffffffffffffffffffffffffffff1663bb9fe6bf6040518163ffffffff1660e01b8152600401600060405180830381600087803b158015610c1457600080fd5b505af1158015610c28573d6000803e3d6000fd5b50505050565b610c426752f5d809a1298eaf60c01b6116ba565b610c4a6116bd565b610c5e67ef5820faf1447c6560c01b6116ba565b610c7267f97794d1bddfa2e060c01b6116ba565b610c86674312e8c459c73fef60c01b6116ba565b610c9a673464294413aed7d760c01b6116ba565b600160009054906101000a900473ffffffffffffffffffffffffffffffffffffffff1673ffffffffffffffffffffffffffffffffffffffff1663c23a5cea826040518263ffffffff1660e01b8152600401610cf59190612ccd565b600060405180830381600087803b158015610d0f57600080fd5b505af1158015610d23573d6000803e3d6000fd5b5050505050565b6000610d4067254a427f22cd919c60c01b6120c4565b610d5467b4ae29075a4b90cc60c01b6120c4565b610d6867fcbe58dd4e298e0b60c01b6120c4565b610d71826120c7565b8260200135838060400190610d869190612cf7565b604051610d94929190612d99565b6040518091039020848060600190610dac9190612cf7565b604051610dba929190612d99565b604051809103902085608001358660a001358760c001358860e00135896101000135604051602001610df499989796959493929190612db2565b604051602081830303815290604052805190602001209050919050565b6000610e2767f8256bc3292ec2f860c01b6116ba565b610e3b674659961ee68435b060c01b6116ba565b610e4f6725709d707ada999460c01b6116ba565b600160009054906101000a900473ffffffffffffffffffffffffffffffffffffffff1673ffffffffffffffffffffffffffffffffffffffff166370a08231306040518263ffffffff1660e01b8152600401610eaa9190612768565b602060405180830381865afa158015610ec7573d6000803e3d6000fd5b505050506040513d601f19601f82011682018060405250810190610eeb9190612e54565b905090565b610f0467fa008f0a2a61337260c01b6116ba565b610f18670e56d1bb5ea9d80c60c01b6116ba565b610f2c674e2d9df39913ac2060c01b6116ba565b600160009054906101000a900473ffffffffffffffffffffffffffffffffffffffff1673ffffffffffffffffffffffffffffffffffffffff1663b760faf934306040518363ffffffff1660e01b8152600401610f889190612768565b6000604051808303818588803b158015610fa157600080fd5b505af1158015610fb5573d6000803e3d6000fd5b5050505050565b6000610fd267a26673f1ae4b7e8260c01b6120c4565b610fe667d1e2aa0298f32ceb60c01b6120c4565b610ffa67bec2f5705156567a60c01b6120c4565b600360008373ffffffffffffffffffffffffffffffffffffffff1673ffffffffffffffffffffffffffffffffffffffff168152602001908152602001600020549050919050565b61105567d0514db07f695b9060c01b6120c4565b611069674a18bc41e6e4b75160c01b6120c4565b61107d671bfd3a05da0df1a660c01b6120c4565b611091677077217072dcc83260c01b6120c4565b343373ffffffffffffffffffffffffffffffffffffffff163110156110eb576040517f08c379a00000000000000000000000000000000000000000000000000000000081526004016110e290612f04565b60405180910390fd5b6110ff673688886dc6d856dc60c01b6120c4565b61111367bc44e5362afc2ad860c01b6120c4565b61112767a65915ad672d197360c01b6120c4565b600160009054906101000a900473ffffffffffffffffffffffffffffffffffffffff1673ffffffffffffffffffffffffffffffffffffffff1663b760faf934306040518363ffffffff1660e01b81526004016111839190612768565b6000604051808303818588803b15801561119c57600080fd5b505af11580156111b0573d6000803e3d6000fd5b50505050506111c967aea2d2e8cbaac32760c01b6120c4565b34600360003373ffffffffffffffffffffffffffffffffffffffff1673ffffffffffffffffffffffffffffffffffffffff16815260200190815260200160002060008282546112189190612f53565b92505081905550565b6112296116bd565b600073ffffffffffffffffffffffffffffffffffffffff168173ffffffffffffffffffffffffffffffffffffffff161415611299576040517f08c379a00000000000000000000000000000000000000000000000000000000081526004016112909061301b565b60405180910390fd5b6112a281611de5565b50565b606060006112bd67c90b09282b69ab8860c01b6120c4565b6112d167e7b3c37424b3c6bb60c01b6120c4565b6112e5670b9e8409d1901e3460c01b6120c4565b6112f967a491843c7b9d318060c01b6120c4565b600061130486610d2a565b905061131a67797f3e54c3a2741e60c01b6120c4565b61132e67bab425fb87da1f5560c01b6120c4565b366000878061012001906113429190612cf7565b9150915061135a6733d34afd4d31eed160c01b6120c4565b61136e6722d9b1597f0bfb1a60c01b6120c4565b6000601483839050611380919061303b565b9050611396672619f769b8206ed060c01b6120c4565b6113aa67591370f4fa81f33360c01b6120c4565b6113be6729269a8eb46f79ff60c01b6120c4565b6040811480156113de57506113dd6725f8d15e31600cbe60c01b612150565b5b806114055750604181148015611404575061140367aeddda1590a792ac60c01b612150565b5b5b611444576040517f08c379a000000000000000000000000000000000000000000000000000000000815260040161143b906130e1565b60405180910390fd5b611458673a450f646859175e60c01b6120c4565b61146c67f7e0c84a8eea9d3860c01b6120c4565b611480670d33581d6eeb2da860c01b6120c4565b600061148b8a6120c7565b90506114a16720a3c384d6057efc60c01b6120c4565b6114b567f7298e1ac179c4a860c01b6120c4565b6000611527858560149080926114cd9392919061310b565b8080601f016020809104026020016040519081016040528093929190818152602001838380828437600081840152601f19601f820116905080830192505050505050506115198861215b565b61218b90919063ffffffff16565b905061153d674e0716a18dcbf2fb60c01b6120c4565b6115516703ba3820334b19a260c01b6120c4565b61155b8183611ff4565b6115bd57611573679f75d4a9379ec77860c01b6120c4565b61158767a2ef391048a1e0e860c01b6120c4565b61159b670d6d181296bad6ce60c01b6120c4565b60016040518060200160405280600081525090975097505050505050506116b2565b6115d16789bba4b7928c86f660c01b6120c4565b6115e5673618dc302c4748c560c01b6120c4565b6115f967c33684c6262131eb60c01b6120c4565b61160d6730609f6322e9da5d60c01b6120c4565b8861161782610fbc565b1015611658576040517f08c379a000000000000000000000000000000000000000000000000000000000815260040161164f906131b8565b60405180910390fd5b61166c67c64db12323c05e0260c01b6120c4565b6116806789c2febdc4d9f79660c01b6120c4565b6116946732012e7017ca584960c01b6120c4565b60006040518060200160405280600081525090975097505050505050505b935093915050565b50565b6116c56121b2565b73ffffffffffffffffffffffffffffffffffffffff166116e36109f2565b73ffffffffffffffffffffffffffffffffffffffff1614611739576040517f08c379a000000000000000000000000000000000000000000000000000000000815260040161173090613224565b60405180910390fd5b565b50565b61175267ec73335e8523eb5060c01b61173b565b61176667e0bdfa685677f99e60c01b61173b565b61177a67e0e21cfd0d1ceff560c01b61173b565b61178e679acaf88afcec3ad160c01b61173b565b600073ffffffffffffffffffffffffffffffffffffffff168173ffffffffffffffffffffffffffffffffffffffff1614156117fe576040517f08c379a00000000000000000000000000000000000000000000000000000000081526004016117f590613290565b60405180910390fd5b61181267d8bf21566e287fbd60c01b61173b565b61182667e8567745fba6491160c01b61173b565b61183a6757ccd5ef4d3a9dec60c01b61173b565b61184e671da80704dbf59e7860c01b61173b565b6118583382611ff4565b15611898576040517f08c379a000000000000000000000000000000000000000000000000000000000815260040161188f90613322565b60405180910390fd5b6118ac67e7b34b4de3a4041d60c01b61173b565b6118c067975f080dece8246460c01b61173b565b6001600260003373ffffffffffffffffffffffffffffffffffffffff1673ffffffffffffffffffffffffffffffffffffffff16815260200190815260200160002060008373ffffffffffffffffffffffffffffffffffffffff1673ffffffffffffffffffffffffffffffffffffffff16815260200190815260200160002060006101000a81548160ff02191690831515021790555061196967b5abd754b03b43f660c01b61173b565b61197d67181d5867ee95b19260c01b61173b565b8073ffffffffffffffffffffffffffffffffffffffff163373ffffffffffffffffffffffffffffffffffffffff167f0c4b48e75a1f7ab0a9a2f786b5d6c1f7789020403bff177fb54d46edb89ccc0060405160405180910390a350565b6119ee67043c0706fc376bfd60c01b61173b565b611a026756c68c2f54e1f0b760c01b61173b565b611a16672d88592da3af2c5760c01b61173b565b60005b82829050811015611a8d57611a38677c67e5dc4e9db62e60c01b61173b565b611a4c6724cc1bc8c9b1480b60c01b61173b565b611a7c838383818110611a6257611a61613342565b5b9050602002016020810190611a779190612531565b61173e565b80611a8690613371565b9050611a19565b505050565b611aa6672c075657086e377e60c01b61173b565b611aba6729a2dac70a1d73d360c01b61173b565b611ace6752ce261855c7f82460c01b61173b565b611ae267b361f078673d867a60c01b61173b565b600073ffffffffffffffffffffffffffffffffffffffff168173ffffffffffffffffffffffffffffffffffffffff161415611b52576040517f08c379a0000000000000000000000000000000000000000000000000000000008152600401611b4990613290565b60405180910390fd5b611b6667bdad28e208ef01cb60c01b61173b565b611b7a67c2ed7c5f130df43460c01b61173b565b611b8e6720fadd76752f2f4060c01b61173b565b611ba267380690fb69c349ae60c01b61173b565b611bac3382611ff4565b611beb576040517f08c379a0000000000000000000000000000000000000000000000000000000008152600401611be29061342c565b60405180910390fd5b611bff67a4fb65195877f39560c01b61173b565b611c1367d0128a6605a110a560c01b61173b565b6000600260003373ffffffffffffffffffffffffffffffffffffffff1673ffffffffffffffffffffffffffffffffffffffff16815260200190815260200160002060008373ffffffffffffffffffffffffffffffffffffffff1673ffffffffffffffffffffffffffffffffffffffff16815260200190815260200160002060006101000a81548160ff021916908315150217905550611cbc6718610b49def5ec0260c01b61173b565b611cd06763a68dcf58a593aa60c01b61173b565b8073ffffffffffffffffffffffffffffffffffffffff163373ffffffffffffffffffffffffffffffffffffffff167fd288ab5da2e1f37cf384a1565a3f905ad289b092fbdd31950dbbfef148c04f8860405160405180910390a350565b611d4167480832a0e4693adc60c01b61173b565b611d5567ad8b049cc3d4afff60c01b61173b565b611d6967d3355eb94768d29560c01b61173b565b60005b82829050811015611de057611d8b67b562513b13f9705d60c01b61173b565b611d9f67be9c6b163a645c6160c01b61173b565b611dcf838383818110611db557611db4613342565b5b9050602002016020810190611dca9190612531565b611a92565b80611dd990613371565b9050611d6c565b505050565b60008060009054906101000a900473ffffffffffffffffffffffffffffffffffffffff169050816000806101000a81548173ffffffffffffffffffffffffffffffffffffffff021916908373ffffffffffffffffffffffffffffffffffffffff1602179055508173ffffffffffffffffffffffffffffffffffffffff168173ffffffffffffffffffffffffffffffffffffffff167f8be0079c531659141344cd1fd0a4f28419497f9722a3daafe3b4186f6b6457e060405160405180910390a35050565b611ebd679bc326c49484188460c01b6116ba565b611ed16724b5ec39eafd38f560c01b6116ba565b611ee5673113ee9c61faced260c01b6116ba565b611ef9678b7ae48ea5ddd2cb60c01b6116ba565b600160009054906101000a900473ffffffffffffffffffffffffffffffffffffffff1673ffffffffffffffffffffffffffffffffffffffff163373ffffffffffffffffffffffffffffffffffffffff1614611f5357600080fd5b611f6767e77cb1e4072ac22860c01b6116ba565b565b611f7d671367f038146a276b60c01b6116ba565b611f9167117ee8376efb738560c01b6116ba565b611fa56797f87360883c20c560c01b6116ba565b611fb967314d1d68847cc6ee60c01b6116ba565b6040517f08c379a0000000000000000000000000000000000000000000000000000000008152600401611feb90613498565b60405180910390fd5b600061200a6739ada155cf06417b60c01b61173b565b61201e672598d9a3e2dbf0a160c01b61173b565b61203267ebb9184c946445bc60c01b61173b565b600260008473ffffffffffffffffffffffffffffffffffffffff1673ffffffffffffffffffffffffffffffffffffffff16815260200190815260200160002060008373ffffffffffffffffffffffffffffffffffffffff1673ffffffffffffffffffffffffffffffffffffffff16815260200190815260200160002060009054906101000a900460ff16905092915050565b50565b60006120dd674d112b9b055fdc4360c01b6121ba565b6120f1671bc241ed701f8cda60c01b6121ba565b612105675d64e1cde57cea0a60c01b6121ba565b600061211b67105120705ebd759060c01b6121ba565b82359050612133677bfb9fddbbb3e35360c01b6121ba565b61214767063cfd2aab94839860c01b6121ba565b80915050919050565b600060019050919050565b60008160405160200161216e9190613530565b604051602081830303815290604052805190602001209050919050565b600080600061219a85856121bd565b915091506121a78161220f565b819250505092915050565b600033905090565b50565b6000806041835114156121ff5760008060006020860151925060408601519150606086015160001a90506121f38782858561237d565b94509450505050612208565b60006002915091505b9250929050565b6000600481111561222357612222613556565b5b81600481111561223657612235613556565b5b14156122415761237a565b6001600481111561225557612254613556565b5b81600481111561226857612267613556565b5b14156122a9576040517f08c379a00000000000000000000000000000000000000000000000000000000081526004016122a0906135d1565b60405180910390fd5b600260048111156122bd576122bc613556565b5b8160048111156122d0576122cf613556565b5b1415612311576040517f08c379a00000000000000000000000000000000000000000000000000000000081526004016123089061363d565b60405180910390fd5b6003600481111561232557612324613556565b5b81600481111561233857612337613556565b5b1415612379576040517f08c379a0000000000000000000000000000000000000000000000000000000008152600401612370906136cf565b60405180910390fd5b5b50565b6000807f7fffffffffffffffffffffffffffffff5d576e7357a4501ddfe92f46681b20a08360001c11156123b8576000600391509150612457565b6000600187878787604051600081526020016040526040516123dd949392919061370b565b6020604051602081039080840390855afa1580156123ff573d6000803e3d6000fd5b505050602060405103519050600073ffffffffffffffffffffffffffffffffffffffff168173ffffffffffffffffffffffffffffffffffffffff16141561244e57600060019250925050612457565b80600092509250505b94509492505050565b600080fd5b600080fd5b600063ffffffff82169050919050565b6124838161246a565b811461248e57600080fd5b50565b6000813590506124a08161247a565b92915050565b6000602082840312156124bc576124bb612460565b5b60006124ca84828501612491565b91505092915050565b600073ffffffffffffffffffffffffffffffffffffffff82169050919050565b60006124fe826124d3565b9050919050565b61250e816124f3565b811461251957600080fd5b50565b60008135905061252b81612505565b92915050565b60006020828403121561254757612546612460565b5b60006125558482850161251c565b91505092915050565b6000612569826124d3565b9050919050565b6125798161255e565b811461258457600080fd5b50565b60008135905061259681612570565b92915050565b6000819050919050565b6125af8161259c565b81146125ba57600080fd5b50565b6000813590506125cc816125a6565b92915050565b600080604083850312156125e9576125e8612460565b5b60006125f785828601612587565b9250506020612608858286016125bd565b9150509250929050565b600080fd5b600080fd5b600080fd5b60008083601f84011261263757612636612612565b5b8235905067ffffffffffffffff81111561265457612653612617565b5b6020830191508360208202830111156126705761266f61261c565b5b9250929050565b6000806020838503121561268e5761268d612460565b5b600083013567ffffffffffffffff8111156126ac576126ab612465565b5b6126b885828601612621565b92509250509250929050565b6126cd8161259c565b82525050565b60006020820190506126e860008301846126c4565b92915050565b60006126f9826124f3565b9050919050565b612709816126ee565b811461271457600080fd5b50565b60008135905061272681612700565b92915050565b60006020828403121561274257612741612460565b5b600061275084828501612717565b91505092915050565b612762816124f3565b82525050565b600060208201905061277d6000830184612759565b92915050565b6003811061279057600080fd5b50565b6000813590506127a281612783565b92915050565b60008083601f8401126127be576127bd612612565b5b8235905067ffffffffffffffff8111156127db576127da612617565b5b6020830191508360018202830111156127f7576127f661261c565b5b9250929050565b6000806000806060858703121561281857612817612460565b5b600061282687828801612793565b945050602085013567ffffffffffffffff81111561284757612846612465565b5b612853878288016127a8565b93509350506040612866878288016125bd565b91505092959194509250565b6000806040838503121561288957612888612460565b5b60006128978582860161251c565b92505060206128a88582860161251c565b9150509250929050565b60008115159050919050565b6128c7816128b2565b82525050565b60006020820190506128e260008301846128be565b92915050565b6000819050919050565b600061290d612908612903846124d3565b6128e8565b6124d3565b9050919050565b600061291f826128f2565b9050919050565b600061293182612914565b9050919050565b61294181612926565b82525050565b600060208201905061295c6000830184612938565b92915050565b60006020828403121561297857612977612460565b5b600061298684828501612587565b91505092915050565b600080fd5b600061016082840312156129ab576129aa61298f565b5b81905092915050565b6000602082840312156129ca576129c9612460565b5b600082013567ffffffffffffffff8111156129e8576129e7612465565b5b6129f484828501612994565b91505092915050565b6000819050919050565b612a10816129fd565b82525050565b6000602082019050612a2b6000830184612a07565b92915050565b612a3a816129fd565b8114612a4557600080fd5b50565b600081359050612a5781612a31565b92915050565b600080600060608486031215612a7657612a75612460565b5b600084013567ffffffffffffffff811115612a9457612a93612465565b5b612aa086828701612994565b9350506020612ab186828701612a48565b9250506040612ac2868287016125bd565b9150509250925092565b600081519050919050565b600082825260208201905092915050565b60005b83811015612b06578082015181840152602081019050612aeb565b83811115612b15576000848401525b50505050565b6000601f19601f8301169050919050565b6000612b3782612acc565b612b418185612ad7565b9350612b51818560208601612ae8565b612b5a81612b1b565b840191505092915050565b60006040820190508181036000830152612b7f8185612b2c565b9050612b8e60208301846126c4565b9392505050565b612b9e8161246a565b82525050565b6000602082019050612bb96000830184612b95565b92915050565b612bc88161255e565b82525050565b6000604082019050612be36000830185612bbf565b612bf060208301846126c4565b9392505050565b600081905092915050565b6000819050919050565b612c15816124f3565b82525050565b6000612c278383612c0c565b60208301905092915050565b6000612c42602084018461251c565b905092915050565b6000602082019050919050565b6000612c638385612bf7565b9350612c6e82612c02565b8060005b85811015612ca757612c848284612c33565b612c8e8882612c1b565b9750612c9983612c4a565b925050600181019050612c72565b5085925050509392505050565b6000612cc1828486612c57565b91508190509392505050565b6000602082019050612ce26000830184612bbf565b92915050565b600080fd5b600080fd5b600080fd5b60008083356001602003843603038112612d1457612d13612ce8565b5b80840192508235915067ffffffffffffffff821115612d3657612d35612ced565b5b602083019250600182023603831315612d5257612d51612cf2565b5b509250929050565b600081905092915050565b82818337600083830152505050565b6000612d808385612d5a565b9350612d8d838584612d65565b82840190509392505050565b6000612da6828486612d74565b91508190509392505050565b600061012082019050612dc8600083018c612759565b612dd5602083018b6126c4565b612de2604083018a612a07565b612def6060830189612a07565b612dfc60808301886126c4565b612e0960a08301876126c4565b612e1660c08301866126c4565b612e2360e08301856126c4565b612e316101008301846126c4565b9a9950505050505050505050565b600081519050612e4e816125a6565b92915050565b600060208284031215612e6a57612e69612460565b5b6000612e7884828501612e3f565b91505092915050565b600082825260208201905092915050565b7f457468657273706f745061796d61737465723a3a204e6f7420656e6f7567682060008201527f62616c616e636500000000000000000000000000000000000000000000000000602082015250565b6000612eee602783612e81565b9150612ef982612e92565b604082019050919050565b60006020820190508181036000830152612f1d81612ee1565b9050919050565b7f4e487b7100000000000000000000000000000000000000000000000000000000600052601160045260246000fd5b6000612f5e8261259c565b9150612f698361259c565b9250827fffffffffffffffffffffffffffffffffffffffffffffffffffffffffffffffff03821115612f9e57612f9d612f24565b5b828201905092915050565b7f4f776e61626c653a206e6577206f776e657220697320746865207a65726f206160008201527f6464726573730000000000000000000000000000000000000000000000000000602082015250565b6000613005602683612e81565b915061301082612fa9565b604082019050919050565b6000602082019050818103600083015261303481612ff8565b9050919050565b60006130468261259c565b91506130518361259c565b92508282101561306457613063612f24565b5b828203905092915050565b7f566572696679696e675061796d61737465723a20696e76616c6964207369676e60008201527f6174757265206c656e67746820696e207061796d6173746572416e6444617461602082015250565b60006130cb604083612e81565b91506130d68261306f565b604082019050919050565b600060208201905081810360008301526130fa816130be565b9050919050565b600080fd5b600080fd5b6000808585111561311f5761311e613101565b5b838611156131305761312f613106565b5b6001850283019150848603905094509492505050565b7f457468657273706f745061796d61737465723a3a2053706f6e736f722070617960008201527f6d61737465722066756e647320746f6f206c6f77000000000000000000000000602082015250565b60006131a2603483612e81565b91506131ad82613146565b604082019050919050565b600060208201905081810360008301526131d181613195565b9050919050565b7f4f776e61626c653a2063616c6c6572206973206e6f7420746865206f776e6572600082015250565b600061320e602083612e81565b9150613219826131d8565b602082019050919050565b6000602082019050818103600083015261323d81613201565b9050919050565b7f57686974656c6973743a3a205a65726f20616464726573730000000000000000600082015250565b600061327a601883612e81565b915061328582613244565b602082019050919050565b600060208201905081810360008301526132a98161326d565b9050919050565b7f57686974656c6973743a3a204163636f756e7420697320616c7265616479207760008201527f686974656c697374656400000000000000000000000000000000000000000000602082015250565b600061330c602a83612e81565b9150613317826132b0565b604082019050919050565b6000602082019050818103600083015261333b816132ff565b9050919050565b7f4e487b7100000000000000000000000000000000000000000000000000000000600052603260045260246000fd5b600061337c8261259c565b91507fffffffffffffffffffffffffffffffffffffffffffffffffffffffffffffffff8214156133af576133ae612f24565b5b600182019050919050565b7f57686974656c6973743a3a204163636f756e74206973206e6f7420776869746560008201527f6c69737465640000000000000000000000000000000000000000000000000000602082015250565b6000613416602683612e81565b9150613421826133ba565b604082019050919050565b6000602082019050818103600083015261344581613409565b9050919050565b7f6d757374206f7665727269646500000000000000000000000000000000000000600082015250565b6000613482600d83612e81565b915061348d8261344c565b602082019050919050565b600060208201905081810360008301526134b181613475565b9050919050565b600081905092915050565b7f19457468657265756d205369676e6564204d6573736167653a0a333200000000600082015250565b60006134f9601c836134b8565b9150613504826134c3565b601c82019050919050565b6000819050919050565b61352a613525826129fd565b61350f565b82525050565b600061353b826134ec565b91506135478284613519565b60208201915081905092915050565b7f4e487b7100000000000000000000000000000000000000000000000000000000600052602160045260246000fd5b7f45434453413a20696e76616c6964207369676e61747572650000000000000000600082015250565b60006135bb601883612e81565b91506135c682613585565b602082019050919050565b600060208201905081810360008301526135ea816135ae565b9050919050565b7f45434453413a20696e76616c6964207369676e6174757265206c656e67746800600082015250565b6000613627601f83612e81565b9150613632826135f1565b602082019050919050565b600060208201905081810360008301526136568161361a565b9050919050565b7f45434453413a20696e76616c6964207369676e6174757265202773272076616c60008201527f7565000000000000000000000000000000000000000000000000000000000000602082015250565b60006136b9602283612e81565b91506136c48261365d565b604082019050919050565b600060208201905081810360008301526136e8816136ac565b9050919050565b600060ff82169050919050565b613705816136ef565b82525050565b60006080820190506137206000830187612a07565b61372d60208301866136fc565b61373a6040830185612a07565b6137476060830184612a07565b9594505050505056fea2646970667358221220212ea9db4913b94c999ae96bbca422f123c916f362fe3049a2b27b256ae050e464736f6c634300080c0033",
  "linkReferences": {},
  "deployedLinkReferences": {}
}