{
  "_format": "hh-sol-artifact-1",
  "contractName": "EtherspotPaymaster",
  "sourceName": "src/TEST_EtherspotPaymaster.sol",
  "abi": [
    {
      "inputs": [
        {
          "internalType": "contract IEntryPoint",
          "name": "_entryPoint",
          "type": "address"
        }
      ],
      "stateMutability": "nonpayable",
      "type": "constructor"
    },
    {
      "inputs": [],
      "name": "EtherspotPaymaster_BalanceLessThanDeposit",
      "type": "error"
    },
    {
      "inputs": [],
      "name": "EtherspotPaymaster_BeneficiaryCannotBeZeroAddress",
      "type": "error"
    },
    {
      "inputs": [],
      "name": "EtherspotPaymaster_InvalidBeneficiary",
      "type": "error"
    },
    {
      "inputs": [],
      "name": "EtherspotPaymaster_WithdrawGreaterThanBalance",
      "type": "error"
    },
    {
      "anonymous": false,
      "inputs": [
        {
          "indexed": false,
          "internalType": "address",
          "name": "paymaster",
          "type": "address"
        },
        {
          "indexed": false,
          "internalType": "address",
          "name": "account",
          "type": "address"
        }
      ],
      "name": "AddedToWhitelist",
      "type": "event"
    },
    {
      "anonymous": false,
      "inputs": [
        {
          "indexed": false,
          "internalType": "address",
          "name": "paymaster",
          "type": "address"
        },
        {
          "indexed": false,
          "internalType": "address",
          "name": "beneficiary",
          "type": "address"
        },
        {
          "indexed": false,
          "internalType": "address",
          "name": "token",
          "type": "address"
        },
        {
          "indexed": false,
          "internalType": "uint256",
          "name": "amount",
          "type": "uint256"
        }
      ],
      "name": "AllowanceDeposited",
      "type": "event"
    },
    {
      "anonymous": false,
      "inputs": [
        {
          "indexed": false,
          "internalType": "address",
          "name": "paymaster",
          "type": "address"
        },
        {
          "indexed": false,
          "internalType": "address",
          "name": "beneficiary",
          "type": "address"
        },
        {
          "indexed": false,
          "internalType": "address",
          "name": "token",
          "type": "address"
        },
        {
          "indexed": false,
          "internalType": "uint256",
          "name": "amount",
          "type": "uint256"
        }
      ],
      "name": "AllowanceWithdrawn",
      "type": "event"
    },
    {
      "anonymous": false,
      "inputs": [
        {
          "indexed": true,
          "internalType": "address",
          "name": "previousOwner",
          "type": "address"
        },
        {
          "indexed": true,
          "internalType": "address",
          "name": "newOwner",
          "type": "address"
        }
      ],
      "name": "OwnershipTransferred",
      "type": "event"
    },
    {
      "anonymous": false,
      "inputs": [
        {
          "indexed": false,
          "internalType": "address",
          "name": "paymaster",
          "type": "address"
        },
        {
          "indexed": false,
          "internalType": "address",
          "name": "account",
          "type": "address"
        }
      ],
      "name": "RemovedFromWhitelist",
      "type": "event"
    },
    {
      "inputs": [
        {
          "internalType": "uint32",
          "name": "unstakeDelaySec",
          "type": "uint32"
        }
      ],
      "name": "addStake",
      "outputs": [],
      "stateMutability": "payable",
      "type": "function"
    },
    {
      "inputs": [
        {
          "internalType": "address",
          "name": "_account",
          "type": "address"
        }
      ],
      "name": "addToWhitelist",
      "outputs": [],
      "stateMutability": "nonpayable",
      "type": "function"
    },
    {
      "inputs": [],
      "name": "deposit",
      "outputs": [],
      "stateMutability": "payable",
      "type": "function"
    },
    {
      "inputs": [],
      "name": "entryPoint",
      "outputs": [
        {
          "internalType": "contract IEntryPoint",
          "name": "",
          "type": "address"
        }
      ],
      "stateMutability": "view",
      "type": "function"
    },
    {
      "inputs": [],
      "name": "getDeposit",
      "outputs": [
        {
          "internalType": "uint256",
          "name": "",
          "type": "uint256"
        }
      ],
      "stateMutability": "view",
      "type": "function"
    },
    {
      "inputs": [
        {
          "components": [
            {
              "internalType": "address",
              "name": "sender",
              "type": "address"
            },
            {
              "internalType": "uint256",
              "name": "nonce",
              "type": "uint256"
            },
            {
              "internalType": "bytes",
              "name": "initCode",
              "type": "bytes"
            },
            {
              "internalType": "bytes",
              "name": "callData",
              "type": "bytes"
            },
            {
              "internalType": "uint256",
              "name": "callGasLimit",
              "type": "uint256"
            },
            {
              "internalType": "uint256",
              "name": "verificationGasLimit",
              "type": "uint256"
            },
            {
              "internalType": "uint256",
              "name": "preVerificationGas",
              "type": "uint256"
            },
            {
              "internalType": "uint256",
              "name": "maxFeePerGas",
              "type": "uint256"
            },
            {
              "internalType": "uint256",
              "name": "maxPriorityFeePerGas",
              "type": "uint256"
            },
            {
              "internalType": "bytes",
              "name": "paymasterAndData",
              "type": "bytes"
            },
            {
              "internalType": "bytes",
              "name": "signature",
              "type": "bytes"
            }
          ],
          "internalType": "struct UserOperation",
          "name": "userOp",
          "type": "tuple"
        }
      ],
      "name": "getHash",
      "outputs": [
        {
          "internalType": "bytes32",
          "name": "",
          "type": "bytes32"
        }
      ],
      "stateMutability": "pure",
      "type": "function"
    },
    {
      "inputs": [],
      "name": "owner",
      "outputs": [
        {
          "internalType": "address",
          "name": "",
          "type": "address"
        }
      ],
      "stateMutability": "view",
      "type": "function"
    },
    {
      "inputs": [
        {
          "internalType": "enum IPaymaster.PostOpMode",
          "name": "mode",
          "type": "uint8"
        },
        {
          "internalType": "bytes",
          "name": "context",
          "type": "bytes"
        },
        {
          "internalType": "uint256",
          "name": "actualGasCost",
          "type": "uint256"
        }
      ],
      "name": "postOp",
      "outputs": [],
      "stateMutability": "nonpayable",
      "type": "function"
    },
    {
      "inputs": [
        {
          "internalType": "address",
          "name": "_account",
          "type": "address"
        }
      ],
      "name": "removeFromWhitelist",
      "outputs": [],
      "stateMutability": "nonpayable",
      "type": "function"
    },
    {
      "inputs": [],
      "name": "renounceOwnership",
      "outputs": [],
      "stateMutability": "nonpayable",
      "type": "function"
    },
    {
      "inputs": [
        {
          "internalType": "contract IEntryPoint",
          "name": "_entryPoint",
          "type": "address"
        }
      ],
      "name": "setEntryPoint",
      "outputs": [],
      "stateMutability": "nonpayable",
      "type": "function"
    },
    {
      "inputs": [
        {
          "internalType": "address",
          "name": "newOwner",
          "type": "address"
        }
      ],
      "name": "transferOwnership",
      "outputs": [],
      "stateMutability": "nonpayable",
      "type": "function"
    },
    {
      "inputs": [],
      "name": "unlockStake",
      "outputs": [],
      "stateMutability": "nonpayable",
      "type": "function"
    },
    {
      "inputs": [
        {
          "components": [
            {
              "internalType": "address",
              "name": "sender",
              "type": "address"
            },
            {
              "internalType": "uint256",
              "name": "nonce",
              "type": "uint256"
            },
            {
              "internalType": "bytes",
              "name": "initCode",
              "type": "bytes"
            },
            {
              "internalType": "bytes",
              "name": "callData",
              "type": "bytes"
            },
            {
              "internalType": "uint256",
              "name": "callGasLimit",
              "type": "uint256"
            },
            {
              "internalType": "uint256",
              "name": "verificationGasLimit",
              "type": "uint256"
            },
            {
              "internalType": "uint256",
              "name": "preVerificationGas",
              "type": "uint256"
            },
            {
              "internalType": "uint256",
              "name": "maxFeePerGas",
              "type": "uint256"
            },
            {
              "internalType": "uint256",
              "name": "maxPriorityFeePerGas",
              "type": "uint256"
            },
            {
              "internalType": "bytes",
              "name": "paymasterAndData",
              "type": "bytes"
            },
            {
              "internalType": "bytes",
              "name": "signature",
              "type": "bytes"
            }
          ],
          "internalType": "struct UserOperation",
          "name": "userOp",
          "type": "tuple"
        },
        {
          "internalType": "bytes32",
          "name": "",
          "type": "bytes32"
        },
        {
          "internalType": "uint256",
          "name": "requiredPreFund",
          "type": "uint256"
        }
      ],
      "name": "validatePaymasterUserOp",
      "outputs": [
        {
          "internalType": "bytes",
          "name": "context",
          "type": "bytes"
        },
        {
          "internalType": "uint256",
          "name": "sigTimeRange",
          "type": "uint256"
        }
      ],
      "stateMutability": "view",
      "type": "function"
    },
    {
      "inputs": [
        {
          "internalType": "address",
          "name": "",
          "type": "address"
        },
        {
          "internalType": "address",
          "name": "",
          "type": "address"
        }
      ],
      "name": "whitelist",
      "outputs": [
        {
          "internalType": "bool",
          "name": "",
          "type": "bool"
        }
      ],
      "stateMutability": "view",
      "type": "function"
    },
    {
      "inputs": [
        {
          "internalType": "address payable",
          "name": "withdrawAddress",
          "type": "address"
        }
      ],
      "name": "withdrawStake",
      "outputs": [],
      "stateMutability": "nonpayable",
      "type": "function"
    },
    {
      "inputs": [
        {
          "internalType": "address payable",
          "name": "withdrawAddress",
          "type": "address"
        },
        {
          "internalType": "uint256",
          "name": "amount",
          "type": "uint256"
        }
      ],
      "name": "withdrawTo",
      "outputs": [],
      "stateMutability": "nonpayable",
      "type": "function"
    }
  ],
  "bytecode": "0x60806040523480156200001157600080fd5b50604051620027da380380620027da8339818101604052810190620000379190620002c9565b80620000586200004c6200007160201b60201c565b6200007960201b60201c565b62000069816200013d60201b60201c565b50506200037e565b600033905090565b60008060009054906101000a900473ffffffffffffffffffffffffffffffffffffffff169050816000806101000a81548173ffffffffffffffffffffffffffffffffffffffff021916908373ffffffffffffffffffffffffffffffffffffffff1602179055508173ffffffffffffffffffffffffffffffffffffffff168173ffffffffffffffffffffffffffffffffffffffff167f8be0079c531659141344cd1fd0a4f28419497f9722a3daafe3b4186f6b6457e060405160405180910390a35050565b6200014d6200019160201b60201c565b80600160006101000a81548173ffffffffffffffffffffffffffffffffffffffff021916908373ffffffffffffffffffffffffffffffffffffffff16021790555050565b620001a16200007160201b60201c565b73ffffffffffffffffffffffffffffffffffffffff16620001c76200022260201b60201c565b73ffffffffffffffffffffffffffffffffffffffff161462000220576040517f08c379a000000000000000000000000000000000000000000000000000000000815260040162000217906200035c565b60405180910390fd5b565b60008060009054906101000a900473ffffffffffffffffffffffffffffffffffffffff16905090565b600080fd5b600073ffffffffffffffffffffffffffffffffffffffff82169050919050565b60006200027d8262000250565b9050919050565b6000620002918262000270565b9050919050565b620002a38162000284565b8114620002af57600080fd5b50565b600081519050620002c38162000298565b92915050565b600060208284031215620002e257620002e16200024b565b5b6000620002f284828501620002b2565b91505092915050565b600082825260208201905092915050565b7f4f776e61626c653a2063616c6c6572206973206e6f7420746865206f776e6572600082015250565b600062000344602083620002fb565b915062000351826200030c565b602082019050919050565b60006020820190508181036000830152620003778162000335565b9050919050565b61244c806200038e6000396000f3fe6080604052600436106100fe5760003560e01c8063b0d691fe11610095578063c399ec8811610064578063c399ec88146102ea578063d0e30db014610315578063e43252d71461031f578063f2fde38b14610348578063f465c77e14610371576100fe565b8063b0d691fe14610242578063bb9fe6bf1461026d578063c23a5cea14610284578063c266f292146102ad576100fe565b80638ab1d681116100d15780638ab1d681146101885780638da5cb5b146101b1578063a9a23409146101dc578063b092145e14610205576100fe565b80630396cb6014610103578063205c28781461011f578063584465f214610148578063715018a614610171575b600080fd5b61011d60048036038101906101189190611488565b6103af565b005b34801561012b57600080fd5b5061014660048036038101906101419190611549565b610448565b005b34801561015457600080fd5b5061016f600480360381019061016a91906115d9565b6104e3565b005b34801561017d57600080fd5b5061018661052f565b005b34801561019457600080fd5b506101af60048036038101906101aa9190611632565b610543565b005b3480156101bd57600080fd5b506101c661074d565b6040516101d3919061166e565b60405180910390f35b3480156101e857600080fd5b5061020360048036038101906101fe9190611713565b610776565b005b34801561021157600080fd5b5061022c60048036038101906102279190611787565b610790565b60405161023991906117e2565b60405180910390f35b34801561024e57600080fd5b506102576107bf565b604051610264919061185c565b60405180910390f35b34801561027957600080fd5b506102826107e5565b005b34801561029057600080fd5b506102ab60048036038101906102a69190611877565b610871565b005b3480156102b957600080fd5b506102d460048036038101906102cf91906118c9565b610909565b6040516102e1919061192b565b60405180910390f35b3480156102f657600080fd5b506102ff6109b4565b60405161030c9190611955565b60405180910390f35b61031d610a57565b005b34801561032b57600080fd5b5061034660048036038101906103419190611632565b610ae7565b005b34801561035457600080fd5b5061036f600480360381019061036a9190611632565b610cf2565b005b34801561037d57600080fd5b506103986004803603810190610393919061199c565b610d76565b6040516103a6929190611aa4565b60405180910390f35b6103b7610f57565b600160009054906101000a900473ffffffffffffffffffffffffffffffffffffffff1673ffffffffffffffffffffffffffffffffffffffff16630396cb6034836040518363ffffffff1660e01b81526004016104139190611ae3565b6000604051808303818588803b15801561042c57600080fd5b505af1158015610440573d6000803e3d6000fd5b505050505050565b610450610f57565b600160009054906101000a900473ffffffffffffffffffffffffffffffffffffffff1673ffffffffffffffffffffffffffffffffffffffff1663205c287883836040518363ffffffff1660e01b81526004016104ad929190611b0d565b600060405180830381600087803b1580156104c757600080fd5b505af11580156104db573d6000803e3d6000fd5b505050505050565b6104eb610f57565b80600160006101000a81548173ffffffffffffffffffffffffffffffffffffffff021916908373ffffffffffffffffffffffffffffffffffffffff16021790555050565b610537610f57565b6105416000610fd5565b565b600073ffffffffffffffffffffffffffffffffffffffff168173ffffffffffffffffffffffffffffffffffffffff1614156105b3576040517f08c379a00000000000000000000000000000000000000000000000000000000081526004016105aa90611bb9565b60405180910390fd5b600260003373ffffffffffffffffffffffffffffffffffffffff1673ffffffffffffffffffffffffffffffffffffffff16815260200190815260200160002060008273ffffffffffffffffffffffffffffffffffffffff1673ffffffffffffffffffffffffffffffffffffffff16815260200190815260200160002060009054906101000a900460ff1661067c576040517f08c379a000000000000000000000000000000000000000000000000000000000815260040161067390611c4b565b60405180910390fd5b6000600260003373ffffffffffffffffffffffffffffffffffffffff1673ffffffffffffffffffffffffffffffffffffffff16815260200190815260200160002060008373ffffffffffffffffffffffffffffffffffffffff1673ffffffffffffffffffffffffffffffffffffffff16815260200190815260200160002060006101000a81548160ff0219169083151502179055507fd288ab5da2e1f37cf384a1565a3f905ad289b092fbdd31950dbbfef148c04f883382604051610742929190611c6b565b60405180910390a150565b60008060009054906101000a900473ffffffffffffffffffffffffffffffffffffffff16905090565b61077e611099565b61078a848484846110f5565b50505050565b60026020528160005260406000206020528060005260406000206000915091509054906101000a900460ff1681565b600160009054906101000a900473ffffffffffffffffffffffffffffffffffffffff1681565b6107ed610f57565b600160009054906101000a900473ffffffffffffffffffffffffffffffffffffffff1673ffffffffffffffffffffffffffffffffffffffff1663bb9fe6bf6040518163ffffffff1660e01b8152600401600060405180830381600087803b15801561085757600080fd5b505af115801561086b573d6000803e3d6000fd5b50505050565b610879610f57565b600160009054906101000a900473ffffffffffffffffffffffffffffffffffffffff1673ffffffffffffffffffffffffffffffffffffffff1663c23a5cea826040518263ffffffff1660e01b81526004016108d49190611c94565b600060405180830381600087803b1580156108ee57600080fd5b505af1158015610902573d6000803e3d6000fd5b5050505050565b600061091482611130565b82602001358380604001906109299190611cbe565b604051610937929190611d60565b604051809103902084806060019061094f9190611cbe565b60405161095d929190611d60565b604051809103902085608001358660a001358760c001358860e0013589610100013560405160200161099799989796959493929190611d79565b604051602081830303815290604052805190602001209050919050565b6000600160009054906101000a900473ffffffffffffffffffffffffffffffffffffffff1673ffffffffffffffffffffffffffffffffffffffff166370a08231306040518263ffffffff1660e01b8152600401610a11919061166e565b602060405180830381865afa158015610a2e573d6000803e3d6000fd5b505050506040513d601f19601f82011682018060405250810190610a529190611e1b565b905090565b600160009054906101000a900473ffffffffffffffffffffffffffffffffffffffff1673ffffffffffffffffffffffffffffffffffffffff1663b760faf934306040518363ffffffff1660e01b8152600401610ab3919061166e565b6000604051808303818588803b158015610acc57600080fd5b505af1158015610ae0573d6000803e3d6000fd5b5050505050565b600073ffffffffffffffffffffffffffffffffffffffff168173ffffffffffffffffffffffffffffffffffffffff161415610b57576040517f08c379a0000000000000000000000000000000000000000000000000000000008152600401610b4e90611bb9565b60405180910390fd5b600260003373ffffffffffffffffffffffffffffffffffffffff1673ffffffffffffffffffffffffffffffffffffffff16815260200190815260200160002060008273ffffffffffffffffffffffffffffffffffffffff1673ffffffffffffffffffffffffffffffffffffffff16815260200190815260200160002060009054906101000a900460ff1615610c21576040517f08c379a0000000000000000000000000000000000000000000000000000000008152600401610c1890611eba565b60405180910390fd5b6001600260003373ffffffffffffffffffffffffffffffffffffffff1673ffffffffffffffffffffffffffffffffffffffff16815260200190815260200160002060008373ffffffffffffffffffffffffffffffffffffffff1673ffffffffffffffffffffffffffffffffffffffff16815260200190815260200160002060006101000a81548160ff0219169083151502179055507f0c4b48e75a1f7ab0a9a2f786b5d6c1f7789020403bff177fb54d46edb89ccc003382604051610ce7929190611c6b565b60405180910390a150565b610cfa610f57565b600073ffffffffffffffffffffffffffffffffffffffff168173ffffffffffffffffffffffffffffffffffffffff161415610d6a576040517f08c379a0000000000000000000000000000000000000000000000000000000008152600401610d6190611f4c565b60405180910390fd5b610d7381610fd5565b50565b6060600080610d8486610909565b905036600087806101200190610d9a9190611cbe565b915091506000601483839050610db09190611f9b565b90506040811480610dc15750604181145b610e00576040517f08c379a0000000000000000000000000000000000000000000000000000000008152600401610df790612041565b60405180910390fd5b6000610e0b8a611130565b90506000610e7f85856014908092610e259392919061206b565b8080601f016020809104026020016040519081016040528093929190818152602001838380828437600081840152601f19601f82011690508083019250505050505050610e7188611140565b61117090919063ffffffff16565b9050600260008273ffffffffffffffffffffffffffffffffffffffff1673ffffffffffffffffffffffffffffffffffffffff16815260200190815260200160002060008373ffffffffffffffffffffffffffffffffffffffff1673ffffffffffffffffffffffffffffffffffffffff16815260200190815260200160002060009054906101000a900460ff16610f31576001604051806020016040528060008152509097509750505050505050610f4f565b60006040518060200160405280600081525090975097505050505050505b935093915050565b610f5f611197565b73ffffffffffffffffffffffffffffffffffffffff16610f7d61074d565b73ffffffffffffffffffffffffffffffffffffffff1614610fd3576040517f08c379a0000000000000000000000000000000000000000000000000000000008152600401610fca906120f2565b60405180910390fd5b565b60008060009054906101000a900473ffffffffffffffffffffffffffffffffffffffff169050816000806101000a81548173ffffffffffffffffffffffffffffffffffffffff021916908373ffffffffffffffffffffffffffffffffffffffff1602179055508173ffffffffffffffffffffffffffffffffffffffff168173ffffffffffffffffffffffffffffffffffffffff167f8be0079c531659141344cd1fd0a4f28419497f9722a3daafe3b4186f6b6457e060405160405180910390a35050565b600160009054906101000a900473ffffffffffffffffffffffffffffffffffffffff1673ffffffffffffffffffffffffffffffffffffffff163373ffffffffffffffffffffffffffffffffffffffff16146110f357600080fd5b565b6040517f08c379a00000000000000000000000000000000000000000000000000000000081526004016111279061215e565b60405180910390fd5b6000808235905080915050919050565b60008160405160200161115391906121f6565b604051602081830303815290604052805190602001209050919050565b600080600061117f858561119f565b9150915061118c816111f1565b819250505092915050565b600033905090565b6000806041835114156111e15760008060006020860151925060408601519150606086015160001a90506111d58782858561135f565b945094505050506111ea565b60006002915091505b9250929050565b600060048111156112055761120461221c565b5b8160048111156112185761121761221c565b5b14156112235761135c565b600160048111156112375761123661221c565b5b81600481111561124a5761124961221c565b5b141561128b576040517f08c379a000000000000000000000000000000000000000000000000000000000815260040161128290612297565b60405180910390fd5b6002600481111561129f5761129e61221c565b5b8160048111156112b2576112b161221c565b5b14156112f3576040517f08c379a00000000000000000000000000000000000000000000000000000000081526004016112ea90612303565b60405180910390fd5b600360048111156113075761130661221c565b5b81600481111561131a5761131961221c565b5b141561135b576040517f08c379a000000000000000000000000000000000000000000000000000000000815260040161135290612395565b60405180910390fd5b5b50565b6000807f7fffffffffffffffffffffffffffffff5d576e7357a4501ddfe92f46681b20a08360001c111561139a576000600391509150611439565b6000600187878787604051600081526020016040526040516113bf94939291906123d1565b6020604051602081039080840390855afa1580156113e1573d6000803e3d6000fd5b505050602060405103519050600073ffffffffffffffffffffffffffffffffffffffff168173ffffffffffffffffffffffffffffffffffffffff16141561143057600060019250925050611439565b80600092509250505b94509492505050565b600080fd5b600080fd5b600063ffffffff82169050919050565b6114658161144c565b811461147057600080fd5b50565b6000813590506114828161145c565b92915050565b60006020828403121561149e5761149d611442565b5b60006114ac84828501611473565b91505092915050565b600073ffffffffffffffffffffffffffffffffffffffff82169050919050565b60006114e0826114b5565b9050919050565b6114f0816114d5565b81146114fb57600080fd5b50565b60008135905061150d816114e7565b92915050565b6000819050919050565b61152681611513565b811461153157600080fd5b50565b6000813590506115438161151d565b92915050565b600080604083850312156115605761155f611442565b5b600061156e858286016114fe565b925050602061157f85828601611534565b9150509250929050565b6000611594826114b5565b9050919050565b60006115a682611589565b9050919050565b6115b68161159b565b81146115c157600080fd5b50565b6000813590506115d3816115ad565b92915050565b6000602082840312156115ef576115ee611442565b5b60006115fd848285016115c4565b91505092915050565b61160f81611589565b811461161a57600080fd5b50565b60008135905061162c81611606565b92915050565b60006020828403121561164857611647611442565b5b60006116568482850161161d565b91505092915050565b61166881611589565b82525050565b6000602082019050611683600083018461165f565b92915050565b6003811061169657600080fd5b50565b6000813590506116a881611689565b92915050565b600080fd5b600080fd5b600080fd5b60008083601f8401126116d3576116d26116ae565b5b8235905067ffffffffffffffff8111156116f0576116ef6116b3565b5b60208301915083600182028301111561170c5761170b6116b8565b5b9250929050565b6000806000806060858703121561172d5761172c611442565b5b600061173b87828801611699565b945050602085013567ffffffffffffffff81111561175c5761175b611447565b5b611768878288016116bd565b9350935050604061177b87828801611534565b91505092959194509250565b6000806040838503121561179e5761179d611442565b5b60006117ac8582860161161d565b92505060206117bd8582860161161d565b9150509250929050565b60008115159050919050565b6117dc816117c7565b82525050565b60006020820190506117f760008301846117d3565b92915050565b6000819050919050565b600061182261181d611818846114b5565b6117fd565b6114b5565b9050919050565b600061183482611807565b9050919050565b600061184682611829565b9050919050565b6118568161183b565b82525050565b6000602082019050611871600083018461184d565b92915050565b60006020828403121561188d5761188c611442565b5b600061189b848285016114fe565b91505092915050565b600080fd5b600061016082840312156118c0576118bf6118a4565b5b81905092915050565b6000602082840312156118df576118de611442565b5b600082013567ffffffffffffffff8111156118fd576118fc611447565b5b611909848285016118a9565b91505092915050565b6000819050919050565b61192581611912565b82525050565b6000602082019050611940600083018461191c565b92915050565b61194f81611513565b82525050565b600060208201905061196a6000830184611946565b92915050565b61197981611912565b811461198457600080fd5b50565b60008135905061199681611970565b92915050565b6000806000606084860312156119b5576119b4611442565b5b600084013567ffffffffffffffff8111156119d3576119d2611447565b5b6119df868287016118a9565b93505060206119f086828701611987565b9250506040611a0186828701611534565b9150509250925092565b600081519050919050565b600082825260208201905092915050565b60005b83811015611a45578082015181840152602081019050611a2a565b83811115611a54576000848401525b50505050565b6000601f19601f8301169050919050565b6000611a7682611a0b565b611a808185611a16565b9350611a90818560208601611a27565b611a9981611a5a565b840191505092915050565b60006040820190508181036000830152611abe8185611a6b565b9050611acd6020830184611946565b9392505050565b611add8161144c565b82525050565b6000602082019050611af86000830184611ad4565b92915050565b611b07816114d5565b82525050565b6000604082019050611b226000830185611afe565b611b2f6020830184611946565b9392505050565b600082825260208201905092915050565b7f457468657273706f745061796d61737465723a3a204163636f756e742063616e60008201527f6e6f742062652061646472657373283029000000000000000000000000000000602082015250565b6000611ba3603183611b36565b9150611bae82611b47565b604082019050919050565b60006020820190508181036000830152611bd281611b96565b9050919050565b7f457468657273706f745061796d61737465723a3a204163636f756e742069732060008201527f6e6f742077686974656c69737465640000000000000000000000000000000000602082015250565b6000611c35602f83611b36565b9150611c4082611bd9565b604082019050919050565b60006020820190508181036000830152611c6481611c28565b9050919050565b6000604082019050611c80600083018561165f565b611c8d602083018461165f565b9392505050565b6000602082019050611ca96000830184611afe565b92915050565b600080fd5b600080fd5b600080fd5b60008083356001602003843603038112611cdb57611cda611caf565b5b80840192508235915067ffffffffffffffff821115611cfd57611cfc611cb4565b5b602083019250600182023603831315611d1957611d18611cb9565b5b509250929050565b600081905092915050565b82818337600083830152505050565b6000611d478385611d21565b9350611d54838584611d2c565b82840190509392505050565b6000611d6d828486611d3b565b91508190509392505050565b600061012082019050611d8f600083018c61165f565b611d9c602083018b611946565b611da9604083018a61191c565b611db6606083018961191c565b611dc36080830188611946565b611dd060a0830187611946565b611ddd60c0830186611946565b611dea60e0830185611946565b611df8610100830184611946565b9a9950505050505050505050565b600081519050611e158161151d565b92915050565b600060208284031215611e3157611e30611442565b5b6000611e3f84828501611e06565b91505092915050565b7f457468657273706f745061796d61737465723a3a204163636f756e742069732060008201527f616c72656164792077686974656c697374656400000000000000000000000000602082015250565b6000611ea4603383611b36565b9150611eaf82611e48565b604082019050919050565b60006020820190508181036000830152611ed381611e97565b9050919050565b7f4f776e61626c653a206e6577206f776e657220697320746865207a65726f206160008201527f6464726573730000000000000000000000000000000000000000000000000000602082015250565b6000611f36602683611b36565b9150611f4182611eda565b604082019050919050565b60006020820190508181036000830152611f6581611f29565b9050919050565b7f4e487b7100000000000000000000000000000000000000000000000000000000600052601160045260246000fd5b6000611fa682611513565b9150611fb183611513565b925082821015611fc457611fc3611f6c565b5b828203905092915050565b7f566572696679696e675061796d61737465723a20696e76616c6964207369676e60008201527f6174757265206c656e67746820696e207061796d6173746572416e6444617461602082015250565b600061202b604083611b36565b915061203682611fcf565b604082019050919050565b6000602082019050818103600083015261205a8161201e565b9050919050565b600080fd5b600080fd5b6000808585111561207f5761207e612061565b5b838611156120905761208f612066565b5b6001850283019150848603905094509492505050565b7f4f776e61626c653a2063616c6c6572206973206e6f7420746865206f776e6572600082015250565b60006120dc602083611b36565b91506120e7826120a6565b602082019050919050565b6000602082019050818103600083015261210b816120cf565b9050919050565b7f6d757374206f7665727269646500000000000000000000000000000000000000600082015250565b6000612148600d83611b36565b915061215382612112565b602082019050919050565b600060208201905081810360008301526121778161213b565b9050919050565b600081905092915050565b7f19457468657265756d205369676e6564204d6573736167653a0a333200000000600082015250565b60006121bf601c8361217e565b91506121ca82612189565b601c82019050919050565b6000819050919050565b6121f06121eb82611912565b6121d5565b82525050565b6000612201826121b2565b915061220d82846121df565b60208201915081905092915050565b7f4e487b7100000000000000000000000000000000000000000000000000000000600052602160045260246000fd5b7f45434453413a20696e76616c6964207369676e61747572650000000000000000600082015250565b6000612281601883611b36565b915061228c8261224b565b602082019050919050565b600060208201905081810360008301526122b081612274565b9050919050565b7f45434453413a20696e76616c6964207369676e6174757265206c656e67746800600082015250565b60006122ed601f83611b36565b91506122f8826122b7565b602082019050919050565b6000602082019050818103600083015261231c816122e0565b9050919050565b7f45434453413a20696e76616c6964207369676e6174757265202773272076616c60008201527f7565000000000000000000000000000000000000000000000000000000000000602082015250565b600061237f602283611b36565b915061238a82612323565b604082019050919050565b600060208201905081810360008301526123ae81612372565b9050919050565b600060ff82169050919050565b6123cb816123b5565b82525050565b60006080820190506123e6600083018761191c565b6123f360208301866123c2565b612400604083018561191c565b61240d606083018461191c565b9594505050505056fea264697066735822122070b604250b0306d919a7b634109e7108d05052150cfe5add51258f4a9b9bd64e64736f6c634300080c0033",
  "linkReferences": {},
  "deployedLinkReferences": {}
}