{
  "_format": "hh-sol-artifact-1",
  "contractName": "TestExpiryAccount",
  "sourceName": "src/test/TestExpiryAccount.sol",
  "abi": [
    {
      "inputs": [
        {
          "internalType": "contract IEntryPoint",
          "name": "anEntryPoint",
          "type": "address"
        }
      ],
      "stateMutability": "nonpayable",
      "type": "constructor"
    },
    {
      "anonymous": false,
      "inputs": [
        {
          "indexed": false,
          "internalType": "address",
          "name": "previousAdmin",
          "type": "address"
        },
        {
          "indexed": false,
          "internalType": "address",
          "name": "newAdmin",
          "type": "address"
        }
      ],
      "name": "AdminChanged",
      "type": "event"
    },
    {
      "anonymous": false,
      "inputs": [
        {
          "indexed": true,
          "internalType": "address",
          "name": "beacon",
          "type": "address"
        }
      ],
      "name": "BeaconUpgraded",
      "type": "event"
    },
    {
      "anonymous": false,
      "inputs": [
        {
          "indexed": true,
          "internalType": "contract IEntryPoint",
          "name": "entryPoint",
          "type": "address"
        },
        {
          "indexed": true,
          "internalType": "address",
          "name": "owner",
          "type": "address"
        }
      ],
      "name": "EtherspotInitialized",
      "type": "event"
    },
    {
      "anonymous": false,
      "inputs": [
        {
          "indexed": false,
          "internalType": "uint8",
          "name": "version",
          "type": "uint8"
        }
      ],
      "name": "Initialized",
      "type": "event"
    },
    {
      "anonymous": false,
      "inputs": [
        {
          "indexed": true,
          "internalType": "address",
          "name": "implementation",
          "type": "address"
        }
      ],
      "name": "Upgraded",
      "type": "event"
    },
    {
      "inputs": [],
      "name": "addDeposit",
      "outputs": [],
      "stateMutability": "payable",
      "type": "function"
    },
    {
      "inputs": [
        {
          "internalType": "address",
          "name": "owner",
          "type": "address"
        },
        {
          "internalType": "uint64",
          "name": "_after",
          "type": "uint64"
        },
        {
          "internalType": "uint64",
          "name": "_until",
          "type": "uint64"
        }
      ],
      "name": "addTemporaryOwner",
      "outputs": [],
      "stateMutability": "nonpayable",
      "type": "function"
    },
    {
      "inputs": [],
      "name": "entryPoint",
      "outputs": [
        {
          "internalType": "contract IEntryPoint",
          "name": "",
          "type": "address"
        }
      ],
      "stateMutability": "view",
      "type": "function"
    },
    {
      "inputs": [
        {
          "internalType": "address",
          "name": "dest",
          "type": "address"
        },
        {
          "internalType": "uint256",
          "name": "value",
          "type": "uint256"
        },
        {
          "internalType": "bytes",
          "name": "func",
          "type": "bytes"
        }
      ],
      "name": "execute",
      "outputs": [],
      "stateMutability": "nonpayable",
      "type": "function"
    },
    {
      "inputs": [
        {
          "internalType": "address[]",
          "name": "dest",
          "type": "address[]"
        },
        {
          "internalType": "bytes[]",
          "name": "func",
          "type": "bytes[]"
        }
      ],
      "name": "executeBatch",
      "outputs": [],
      "stateMutability": "nonpayable",
      "type": "function"
    },
    {
      "inputs": [],
      "name": "getDeposit",
      "outputs": [
        {
          "internalType": "uint256",
          "name": "",
          "type": "uint256"
        }
      ],
      "stateMutability": "view",
      "type": "function"
    },
    {
      "inputs": [
        {
          "internalType": "address",
          "name": "anOwner",
          "type": "address"
        }
      ],
      "name": "initialize",
      "outputs": [],
      "stateMutability": "nonpayable",
      "type": "function"
    },
    {
      "inputs": [],
      "name": "nonce",
      "outputs": [
        {
          "internalType": "uint256",
          "name": "",
          "type": "uint256"
        }
      ],
      "stateMutability": "view",
      "type": "function"
    },
    {
      "inputs": [],
      "name": "owner",
      "outputs": [
        {
          "internalType": "address",
          "name": "",
          "type": "address"
        }
      ],
      "stateMutability": "view",
      "type": "function"
    },
    {
      "inputs": [
        {
          "internalType": "address",
          "name": "",
          "type": "address"
        }
      ],
      "name": "ownerAfter",
      "outputs": [
        {
          "internalType": "uint64",
          "name": "",
          "type": "uint64"
        }
      ],
      "stateMutability": "view",
      "type": "function"
    },
    {
      "inputs": [
        {
          "internalType": "address",
          "name": "",
          "type": "address"
        }
      ],
      "name": "ownerUntil",
      "outputs": [
        {
          "internalType": "uint64",
          "name": "",
          "type": "uint64"
        }
      ],
      "stateMutability": "view",
      "type": "function"
    },
    {
      "inputs": [],
      "name": "proxiableUUID",
      "outputs": [
        {
          "internalType": "bytes32",
          "name": "",
          "type": "bytes32"
        }
      ],
      "stateMutability": "view",
      "type": "function"
    },
    {
      "inputs": [
        {
          "internalType": "address",
          "name": "newImplementation",
          "type": "address"
        }
      ],
      "name": "upgradeTo",
      "outputs": [],
      "stateMutability": "nonpayable",
      "type": "function"
    },
    {
      "inputs": [
        {
          "internalType": "address",
          "name": "newImplementation",
          "type": "address"
        },
        {
          "internalType": "bytes",
          "name": "data",
          "type": "bytes"
        }
      ],
      "name": "upgradeToAndCall",
      "outputs": [],
      "stateMutability": "payable",
      "type": "function"
    },
    {
      "inputs": [
        {
          "components": [
            {
              "internalType": "address",
              "name": "sender",
              "type": "address"
            },
            {
              "internalType": "uint256",
              "name": "nonce",
              "type": "uint256"
            },
            {
              "internalType": "bytes",
              "name": "initCode",
              "type": "bytes"
            },
            {
              "internalType": "bytes",
              "name": "callData",
              "type": "bytes"
            },
            {
              "internalType": "uint256",
              "name": "callGasLimit",
              "type": "uint256"
            },
            {
              "internalType": "uint256",
              "name": "verificationGasLimit",
              "type": "uint256"
            },
            {
              "internalType": "uint256",
              "name": "preVerificationGas",
              "type": "uint256"
            },
            {
              "internalType": "uint256",
              "name": "maxFeePerGas",
              "type": "uint256"
            },
            {
              "internalType": "uint256",
              "name": "maxPriorityFeePerGas",
              "type": "uint256"
            },
            {
              "internalType": "bytes",
              "name": "paymasterAndData",
              "type": "bytes"
            },
            {
              "internalType": "bytes",
              "name": "signature",
              "type": "bytes"
            }
          ],
          "internalType": "struct UserOperation",
          "name": "userOp",
          "type": "tuple"
        },
        {
          "internalType": "bytes32",
          "name": "userOpHash",
          "type": "bytes32"
        },
        {
          "internalType": "address",
          "name": "aggregator",
          "type": "address"
        },
        {
          "internalType": "uint256",
          "name": "missingAccountFunds",
          "type": "uint256"
        }
      ],
      "name": "validateUserOp",
      "outputs": [
        {
          "internalType": "uint256",
          "name": "deadline",
          "type": "uint256"
        }
      ],
      "stateMutability": "nonpayable",
      "type": "function"
    },
    {
      "inputs": [
        {
          "internalType": "address payable",
          "name": "withdrawAddress",
          "type": "address"
        },
        {
          "internalType": "uint256",
          "name": "amount",
          "type": "uint256"
        }
      ],
      "name": "withdrawDepositTo",
      "outputs": [],
      "stateMutability": "nonpayable",
      "type": "function"
    },
    {
      "stateMutability": "payable",
      "type": "receive"
    }
  ],
  "bytecode": "0x60c06040523073ffffffffffffffffffffffffffffffffffffffff1660809073ffffffffffffffffffffffffffffffffffffffff168152503480156200004457600080fd5b50604051620032f3380380620032f383398181016040528101906200006a919062000125565b808073ffffffffffffffffffffffffffffffffffffffff1660a08173ffffffffffffffffffffffffffffffffffffffff1681525050505062000157565b600080fd5b600073ffffffffffffffffffffffffffffffffffffffff82169050919050565b6000620000d982620000ac565b9050919050565b6000620000ed82620000cc565b9050919050565b620000ff81620000e0565b81146200010b57600080fd5b50565b6000815190506200011f81620000f4565b92915050565b6000602082840312156200013e576200013d620000a7565b5b60006200014e848285016200010e565b91505092915050565b60805160a051613153620001a060003960008181610a31015261156e01526000818161050d0152818161059c015281816107e401528181610873015261092301526131536000f3fe6080604052600436106100f75760003560e01c806352d1902d1161008a578063b61d27f611610059578063b61d27f614610307578063b740f88e14610330578063c399ec8814610359578063c4d66de814610384576100fe565b806352d1902d1461025b5780638da5cb5b14610286578063affed0e0146102b1578063b0d691fe146102dc576100fe565b80633fb5a7a1116100c65780633fb5a7a1146101cf5780634a58db191461020c5780634d44560d146102165780634f1ef2861461023f576100fe565b80630825d1fc1461010357806318dfb3c7146101405780633659cfe6146101695780633e47695114610192576100fe565b366100fe57005b600080fd5b34801561010f57600080fd5b5061012a60048036038101906101259190611cb9565b6103ad565b6040516101379190611d4b565b60405180910390f35b34801561014c57600080fd5b5061016760048036038101906101629190611e21565b6103f9565b005b34801561017557600080fd5b50610190600480360381019061018b9190611ea2565b61050b565b005b34801561019e57600080fd5b506101b960048036038101906101b49190611ea2565b610694565b6040516101c69190611ef2565b60405180910390f35b3480156101db57600080fd5b506101f660048036038101906101f19190611ea2565b6106bb565b6040516102039190611ef2565b60405180910390f35b6102146106e2565b005b34801561022257600080fd5b5061023d60048036038101906102389190611f4b565b610762565b005b610259600480360381019061025491906120cc565b6107e2565b005b34801561026757600080fd5b5061027061091f565b60405161027d9190612137565b60405180910390f35b34801561029257600080fd5b5061029b6109d8565b6040516102a89190612161565b60405180910390f35b3480156102bd57600080fd5b506102c66109fe565b6040516102d39190611d4b565b60405180910390f35b3480156102e857600080fd5b506102f1610a2d565b6040516102fe91906121db565b60405180910390f35b34801561031357600080fd5b5061032e6004803603810190610329919061224c565b610a55565b005b34801561033c57600080fd5b50610357600480360381019061035291906122ec565b610ab2565b005b34801561036557600080fd5b5061036e610be1565b60405161037b9190611d4b565b60405180910390f35b34801561039057600080fd5b506103ab60048036038101906103a69190611ea2565b610c69565b005b60006103b7610dbd565b6103c2858585610e34565b905060008580604001906103d6919061234e565b905014156103e8576103e785610f9a565b5b6103f182611048565b949350505050565b6104016110e4565b818190508484905014610449576040517f08c379a000000000000000000000000000000000000000000000000000000000815260040161044090612434565b60405180910390fd5b60005b84849050811015610504576104f185858381811061046d5761046c612454565b5b90506020020160208101906104829190611ea2565b600085858581811061049757610496612454565b5b90506020028101906104a9919061234e565b8080601f016020809104026020016040519081016040528093929190818152602001838380828437600081840152601f19601f820116905080830192505050505050506111b3565b80806104fc906124b2565b91505061044c565b5050505050565b7f000000000000000000000000000000000000000000000000000000000000000073ffffffffffffffffffffffffffffffffffffffff163073ffffffffffffffffffffffffffffffffffffffff16141561059a576040517f08c379a00000000000000000000000000000000000000000000000000000000081526004016105919061256d565b60405180910390fd5b7f000000000000000000000000000000000000000000000000000000000000000073ffffffffffffffffffffffffffffffffffffffff166105d9611237565b73ffffffffffffffffffffffffffffffffffffffff161461062f576040517f08c379a0000000000000000000000000000000000000000000000000000000008152600401610626906125ff565b60405180910390fd5b6106388161128e565b61069181600067ffffffffffffffff81111561065757610656611fa1565b5b6040519080825280601f01601f1916602001820160405280156106895781602001600182028036833780820191505090505b506000611299565b50565b60036020528060005260406000206000915054906101000a900467ffffffffffffffff1681565b60026020528060005260406000206000915054906101000a900467ffffffffffffffff1681565b60006106ec610a2d565b73ffffffffffffffffffffffffffffffffffffffff163460405161070f90612650565b60006040518083038185875af1925050503d806000811461074c576040519150601f19603f3d011682016040523d82523d6000602084013e610751565b606091505b505090508061075f57600080fd5b50565b61076a611407565b610772610a2d565b73ffffffffffffffffffffffffffffffffffffffff1663205c287883836040518363ffffffff1660e01b81526004016107ac929190612674565b600060405180830381600087803b1580156107c657600080fd5b505af11580156107da573d6000803e3d6000fd5b505050505050565b7f000000000000000000000000000000000000000000000000000000000000000073ffffffffffffffffffffffffffffffffffffffff163073ffffffffffffffffffffffffffffffffffffffff161415610871576040517f08c379a00000000000000000000000000000000000000000000000000000000081526004016108689061256d565b60405180910390fd5b7f000000000000000000000000000000000000000000000000000000000000000073ffffffffffffffffffffffffffffffffffffffff166108b0611237565b73ffffffffffffffffffffffffffffffffffffffff1614610906576040517f08c379a00000000000000000000000000000000000000000000000000000000081526004016108fd906125ff565b60405180910390fd5b61090f8261128e565b61091b82826001611299565b5050565b60007f000000000000000000000000000000000000000000000000000000000000000073ffffffffffffffffffffffffffffffffffffffff163073ffffffffffffffffffffffffffffffffffffffff16146109af576040517f08c379a00000000000000000000000000000000000000000000000000000000081526004016109a69061270f565b60405180910390fd5b7f360894a13ba1a3210667c828492db98dca3e2076cc3735a920a3ca505d382bbc60001b905090565b600160009054906101000a900473ffffffffffffffffffffffffffffffffffffffff1681565b60008060029054906101000a90046bffffffffffffffffffffffff166bffffffffffffffffffffffff16905090565b60007f0000000000000000000000000000000000000000000000000000000000000000905090565b610a5d6110e4565b610aac848484848080601f016020809104026020016040519081016040528093929190818152602001838380828437600081840152601f19601f820116905080830192505050505050506111b3565b50505050565b610aba611407565b8167ffffffffffffffff168167ffffffffffffffff1611610b10576040517f08c379a0000000000000000000000000000000000000000000000000000000008152600401610b079061277b565b60405180910390fd5b81600260008573ffffffffffffffffffffffffffffffffffffffff1673ffffffffffffffffffffffffffffffffffffffff16815260200190815260200160002060006101000a81548167ffffffffffffffff021916908367ffffffffffffffff16021790555080600360008573ffffffffffffffffffffffffffffffffffffffff1673ffffffffffffffffffffffffffffffffffffffff16815260200190815260200160002060006101000a81548167ffffffffffffffff021916908367ffffffffffffffff160217905550505050565b6000610beb610a2d565b73ffffffffffffffffffffffffffffffffffffffff166370a08231306040518263ffffffff1660e01b8152600401610c239190612161565b602060405180830381865afa158015610c40573d6000803e3d6000fd5b505050506040513d601f19601f82011682018060405250810190610c6491906127b0565b905090565b60008060019054906101000a900460ff16159050808015610c9a5750600160008054906101000a900460ff1660ff16105b80610cc75750610ca9306114cf565b158015610cc65750600160008054906101000a900460ff1660ff16145b5b610d06576040517f08c379a0000000000000000000000000000000000000000000000000000000008152600401610cfd9061284f565b60405180910390fd5b60016000806101000a81548160ff021916908360ff1602179055508015610d43576001600060016101000a81548160ff0219169083151502179055505b610d4c826114f2565b610d6082600067ffffffffffffffff610ab2565b8015610db95760008060016101000a81548160ff0219169083151502179055507f7f26b83ff96e1f2b6a682f133852f6798a09c465da95921460cefb38474024986001604051610db091906128b7565b60405180910390a15b5050565b610dc5610a2d565b73ffffffffffffffffffffffffffffffffffffffff163373ffffffffffffffffffffffffffffffffffffffff1614610e32576040517f08c379a0000000000000000000000000000000000000000000000000000000008152600401610e2990612944565b60405180910390fd5b565b600080610e40846115d2565b90506000610eaa86806101400190610e58919061234e565b8080601f016020809104026020016040519081016040528093929190818152602001838380828437600081840152601f19601f820116905080830192505050505050508361160290919063ffffffff16565b90506000600360008373ffffffffffffffffffffffffffffffffffffffff1673ffffffffffffffffffffffffffffffffffffffff16815260200190815260200160002060009054906101000a900467ffffffffffffffff1690506000600260008473ffffffffffffffffffffffffffffffffffffffff1673ffffffffffffffffffffffffffffffffffffffff16815260200190815260200160002060009054906101000a900467ffffffffffffffff1690506000808367ffffffffffffffff16149050610f8c818467ffffffffffffffff168467ffffffffffffffff16611629565b955050505050509392505050565b80602001356000600281819054906101000a90046bffffffffffffffffffffffff1680929190610fc99061297c565b91906101000a8154816bffffffffffffffffffffffff02191690836bffffffffffffffffffffffff1602179055506bffffffffffffffffffffffff1614611045576040517f08c379a000000000000000000000000000000000000000000000000000000000815260040161103c906129fd565b60405180910390fd5b50565b600081146110e15760003373ffffffffffffffffffffffffffffffffffffffff16827fffffffffffffffffffffffffffffffffffffffffffffffffffffffffffffffff9060405161109890612650565b600060405180830381858888f193505050503d80600081146110d6576040519150601f19603f3d011682016040523d82523d6000602084013e6110db565b606091505b50509050505b50565b6110ec610a2d565b73ffffffffffffffffffffffffffffffffffffffff163373ffffffffffffffffffffffffffffffffffffffff1614806111725750600160009054906101000a900473ffffffffffffffffffffffffffffffffffffffff1673ffffffffffffffffffffffffffffffffffffffff163373ffffffffffffffffffffffffffffffffffffffff16145b6111b1576040517f08c379a00000000000000000000000000000000000000000000000000000000081526004016111a890612a8f565b60405180910390fd5b565b6000808473ffffffffffffffffffffffffffffffffffffffff1684846040516111dc9190612b1e565b60006040518083038185875af1925050503d8060008114611219576040519150601f19603f3d011682016040523d82523d6000602084013e61121e565b606091505b50915091508161123057805160208201fd5b5050505050565b60006112657f360894a13ba1a3210667c828492db98dca3e2076cc3735a920a3ca505d382bbc60001b611652565b60000160009054906101000a900473ffffffffffffffffffffffffffffffffffffffff16905090565b611296611407565b50565b6112c57f4910fdfa16fed3260ed0e7147f7cc6da11a60208b5b9406d12a635614ffd914360001b61165c565b60000160009054906101000a900460ff16156112e9576112e483611666565b611402565b8273ffffffffffffffffffffffffffffffffffffffff166352d1902d6040518163ffffffff1660e01b8152600401602060405180830381865afa92505050801561135157506040513d601f19601f8201168201806040525081019061134e9190612b4a565b60015b611390576040517f08c379a000000000000000000000000000000000000000000000000000000000815260040161138790612be9565b60405180910390fd5b7f360894a13ba1a3210667c828492db98dca3e2076cc3735a920a3ca505d382bbc60001b81146113f5576040517f08c379a00000000000000000000000000000000000000000000000000000000081526004016113ec90612c7b565b60405180910390fd5b5061140183838361171f565b5b505050565b600160009054906101000a900473ffffffffffffffffffffffffffffffffffffffff1673ffffffffffffffffffffffffffffffffffffffff163373ffffffffffffffffffffffffffffffffffffffff16148061148e57503073ffffffffffffffffffffffffffffffffffffffff163373ffffffffffffffffffffffffffffffffffffffff16145b6114cd576040517f08c379a00000000000000000000000000000000000000000000000000000000081526004016114c490612ce7565b60405180910390fd5b565b6000808273ffffffffffffffffffffffffffffffffffffffff163b119050919050565b80600160006101000a81548173ffffffffffffffffffffffffffffffffffffffff021916908373ffffffffffffffffffffffffffffffffffffffff160217905550600160009054906101000a900473ffffffffffffffffffffffffffffffffffffffff1673ffffffffffffffffffffffffffffffffffffffff167f000000000000000000000000000000000000000000000000000000000000000073ffffffffffffffffffffffffffffffffffffffff167fc053dd35e22ddb3ae5f46f48289137bbba99fdd1068c0f7d3069bb62dab393fd60405160405180910390a350565b6000816040516020016115e59190612d7f565b604051602081830303815290604052805190602001209050919050565b6000806000611611858561174b565b9150915061161e8161179d565b819250505092915050565b6000604882901b600884901b85611641576000611644565b60015b60ff16171790509392505050565b6000819050919050565b6000819050919050565b61166f816114cf565b6116ae576040517f08c379a00000000000000000000000000000000000000000000000000000000081526004016116a590612e17565b60405180910390fd5b806116db7f360894a13ba1a3210667c828492db98dca3e2076cc3735a920a3ca505d382bbc60001b611652565b60000160006101000a81548173ffffffffffffffffffffffffffffffffffffffff021916908373ffffffffffffffffffffffffffffffffffffffff16021790555050565b6117288361190b565b6000825111806117355750805b1561174657611744838361195a565b505b505050565b60008060418351141561178d5760008060006020860151925060408601519150606086015160001a905061178187828585611987565b94509450505050611796565b60006002915091505b9250929050565b600060048111156117b1576117b0612e37565b5b8160048111156117c4576117c3612e37565b5b14156117cf57611908565b600160048111156117e3576117e2612e37565b5b8160048111156117f6576117f5612e37565b5b1415611837576040517f08c379a000000000000000000000000000000000000000000000000000000000815260040161182e90612eb2565b60405180910390fd5b6002600481111561184b5761184a612e37565b5b81600481111561185e5761185d612e37565b5b141561189f576040517f08c379a000000000000000000000000000000000000000000000000000000000815260040161189690612f1e565b60405180910390fd5b600360048111156118b3576118b2612e37565b5b8160048111156118c6576118c5612e37565b5b1415611907576040517f08c379a00000000000000000000000000000000000000000000000000000000081526004016118fe90612fb0565b60405180910390fd5b5b50565b61191481611666565b8073ffffffffffffffffffffffffffffffffffffffff167fbc7cd75a20ee27fd9adebab32041f755214dbc6bffa90cc0225b39da2e5c2d3b60405160405180910390a250565b606061197f83836040518060600160405280602781526020016130f760279139611a6a565b905092915050565b6000807f7fffffffffffffffffffffffffffffff5d576e7357a4501ddfe92f46681b20a08360001c11156119c2576000600391509150611a61565b6000600187878787604051600081526020016040526040516119e79493929190612fdf565b6020604051602081039080840390855afa158015611a09573d6000803e3d6000fd5b505050602060405103519050600073ffffffffffffffffffffffffffffffffffffffff168173ffffffffffffffffffffffffffffffffffffffff161415611a5857600060019250925050611a61565b80600092509250505b94509492505050565b60606000808573ffffffffffffffffffffffffffffffffffffffff1685604051611a949190612b1e565b600060405180830381855af49150503d8060008114611acf576040519150601f19603f3d011682016040523d82523d6000602084013e611ad4565b606091505b5091509150611ae586838387611af0565b925050509392505050565b60608315611b5357600083511415611b4b57611b0b856114cf565b611b4a576040517f08c379a0000000000000000000000000000000000000000000000000000000008152600401611b4190613070565b60405180910390fd5b5b829050611b5e565b611b5d8383611b66565b5b949350505050565b600082511115611b795781518083602001fd5b806040517f08c379a0000000000000000000000000000000000000000000000000000000008152600401611bad91906130d4565b60405180910390fd5b6000604051905090565b600080fd5b600080fd5b600080fd5b60006101608284031215611be657611be5611bca565b5b81905092915050565b6000819050919050565b611c0281611bef565b8114611c0d57600080fd5b50565b600081359050611c1f81611bf9565b92915050565b600073ffffffffffffffffffffffffffffffffffffffff82169050919050565b6000611c5082611c25565b9050919050565b611c6081611c45565b8114611c6b57600080fd5b50565b600081359050611c7d81611c57565b92915050565b6000819050919050565b611c9681611c83565b8114611ca157600080fd5b50565b600081359050611cb381611c8d565b92915050565b60008060008060808587031215611cd357611cd2611bc0565b5b600085013567ffffffffffffffff811115611cf157611cf0611bc5565b5b611cfd87828801611bcf565b9450506020611d0e87828801611c10565b9350506040611d1f87828801611c6e565b9250506060611d3087828801611ca4565b91505092959194509250565b611d4581611c83565b82525050565b6000602082019050611d606000830184611d3c565b92915050565b600080fd5b600080fd5b600080fd5b60008083601f840112611d8b57611d8a611d66565b5b8235905067ffffffffffffffff811115611da857611da7611d6b565b5b602083019150836020820283011115611dc457611dc3611d70565b5b9250929050565b60008083601f840112611de157611de0611d66565b5b8235905067ffffffffffffffff811115611dfe57611dfd611d6b565b5b602083019150836020820283011115611e1a57611e19611d70565b5b9250929050565b60008060008060408587031215611e3b57611e3a611bc0565b5b600085013567ffffffffffffffff811115611e5957611e58611bc5565b5b611e6587828801611d75565b9450945050602085013567ffffffffffffffff811115611e8857611e87611bc5565b5b611e9487828801611dcb565b925092505092959194509250565b600060208284031215611eb857611eb7611bc0565b5b6000611ec684828501611c6e565b91505092915050565b600067ffffffffffffffff82169050919050565b611eec81611ecf565b82525050565b6000602082019050611f076000830184611ee3565b92915050565b6000611f1882611c25565b9050919050565b611f2881611f0d565b8114611f3357600080fd5b50565b600081359050611f4581611f1f565b92915050565b60008060408385031215611f6257611f61611bc0565b5b6000611f7085828601611f36565b9250506020611f8185828601611ca4565b9150509250929050565b600080fd5b6000601f19601f8301169050919050565b7f4e487b7100000000000000000000000000000000000000000000000000000000600052604160045260246000fd5b611fd982611f90565b810181811067ffffffffffffffff82111715611ff857611ff7611fa1565b5b80604052505050565b600061200b611bb6565b90506120178282611fd0565b919050565b600067ffffffffffffffff82111561203757612036611fa1565b5b61204082611f90565b9050602081019050919050565b82818337600083830152505050565b600061206f61206a8461201c565b612001565b90508281526020810184848401111561208b5761208a611f8b565b5b61209684828561204d565b509392505050565b600082601f8301126120b3576120b2611d66565b5b81356120c384826020860161205c565b91505092915050565b600080604083850312156120e3576120e2611bc0565b5b60006120f185828601611c6e565b925050602083013567ffffffffffffffff81111561211257612111611bc5565b5b61211e8582860161209e565b9150509250929050565b61213181611bef565b82525050565b600060208201905061214c6000830184612128565b92915050565b61215b81611c45565b82525050565b60006020820190506121766000830184612152565b92915050565b6000819050919050565b60006121a161219c61219784611c25565b61217c565b611c25565b9050919050565b60006121b382612186565b9050919050565b60006121c5826121a8565b9050919050565b6121d5816121ba565b82525050565b60006020820190506121f060008301846121cc565b92915050565b60008083601f84011261220c5761220b611d66565b5b8235905067ffffffffffffffff81111561222957612228611d6b565b5b60208301915083600182028301111561224557612244611d70565b5b9250929050565b6000806000806060858703121561226657612265611bc0565b5b600061227487828801611c6e565b945050602061228587828801611ca4565b935050604085013567ffffffffffffffff8111156122a6576122a5611bc5565b5b6122b2878288016121f6565b925092505092959194509250565b6122c981611ecf565b81146122d457600080fd5b50565b6000813590506122e6816122c0565b92915050565b60008060006060848603121561230557612304611bc0565b5b600061231386828701611c6e565b9350506020612324868287016122d7565b9250506040612335868287016122d7565b9150509250925092565b600080fd5b600080fd5b600080fd5b6000808335600160200384360303811261236b5761236a61233f565b5b80840192508235915067ffffffffffffffff82111561238d5761238c612344565b5b6020830192506001820236038313156123a9576123a8612349565b5b509250929050565b600082825260208201905092915050565b7f457468657273706f744163636f756e743a3a206578656375746542617463682060008201527f2d2077726f6e67206172726179206c656e677468730000000000000000000000602082015250565b600061241e6035836123b1565b9150612429826123c2565b604082019050919050565b6000602082019050818103600083015261244d81612411565b9050919050565b7f4e487b7100000000000000000000000000000000000000000000000000000000600052603260045260246000fd5b7f4e487b7100000000000000000000000000000000000000000000000000000000600052601160045260246000fd5b60006124bd82611c83565b91507fffffffffffffffffffffffffffffffffffffffffffffffffffffffffffffffff8214156124f0576124ef612483565b5b600182019050919050565b7f46756e6374696f6e206d7573742062652063616c6c6564207468726f7567682060008201527f64656c656761746563616c6c0000000000000000000000000000000000000000602082015250565b6000612557602c836123b1565b9150612562826124fb565b604082019050919050565b600060208201905081810360008301526125868161254a565b9050919050565b7f46756e6374696f6e206d7573742062652063616c6c6564207468726f7567682060008201527f6163746976652070726f78790000000000000000000000000000000000000000602082015250565b60006125e9602c836123b1565b91506125f48261258d565b604082019050919050565b60006020820190508181036000830152612618816125dc565b9050919050565b600081905092915050565b50565b600061263a60008361261f565b91506126458261262a565b600082019050919050565b600061265b8261262d565b9150819050919050565b61266e81611f0d565b82525050565b60006040820190506126896000830185612665565b6126966020830184611d3c565b9392505050565b7f555550535570677261646561626c653a206d757374206e6f742062652063616c60008201527f6c6564207468726f7567682064656c656761746563616c6c0000000000000000602082015250565b60006126f96038836123b1565b91506127048261269d565b604082019050919050565b60006020820190508181036000830152612728816126ec565b9050919050565b7f77726f6e6720756e74696c2f6166746572000000000000000000000000000000600082015250565b60006127656011836123b1565b91506127708261272f565b602082019050919050565b6000602082019050818103600083015261279481612758565b9050919050565b6000815190506127aa81611c8d565b92915050565b6000602082840312156127c6576127c5611bc0565b5b60006127d48482850161279b565b91505092915050565b7f496e697469616c697a61626c653a20636f6e747261637420697320616c72656160008201527f647920696e697469616c697a6564000000000000000000000000000000000000602082015250565b6000612839602e836123b1565b9150612844826127dd565b604082019050919050565b600060208201905081810360008301526128688161282c565b9050919050565b6000819050919050565b600060ff82169050919050565b60006128a161289c6128978461286f565b61217c565b612879565b9050919050565b6128b181612886565b82525050565b60006020820190506128cc60008301846128a8565b92915050565b7f457468657273706f744163636f756e743a204e6f742066726f6d20456e74727960008201527f506f696e74000000000000000000000000000000000000000000000000000000602082015250565b600061292e6025836123b1565b9150612939826128d2565b604082019050919050565b6000602082019050818103600083015261295d81612921565b9050919050565b60006bffffffffffffffffffffffff82169050919050565b600061298782612964565b91506bffffffffffffffffffffffff8214156129a6576129a5612483565b5b600182019050919050565b7f457468657273706f744163636f756e743a3a20496e76616c6964206e6f6e6365600082015250565b60006129e76020836123b1565b91506129f2826129b1565b602082019050919050565b60006020820190508181036000830152612a16816129da565b9050919050565b7f457468657273706f744163636f756e743a3a204e6f74204f776e6572206f722060008201527f456e747279506f696e7400000000000000000000000000000000000000000000602082015250565b6000612a79602a836123b1565b9150612a8482612a1d565b604082019050919050565b60006020820190508181036000830152612aa881612a6c565b9050919050565b600081519050919050565b60005b83811015612ad8578082015181840152602081019050612abd565b83811115612ae7576000848401525b50505050565b6000612af882612aaf565b612b02818561261f565b9350612b12818560208601612aba565b80840191505092915050565b6000612b2a8284612aed565b915081905092915050565b600081519050612b4481611bf9565b92915050565b600060208284031215612b6057612b5f611bc0565b5b6000612b6e84828501612b35565b91505092915050565b7f45524331393637557067726164653a206e657720696d706c656d656e7461746960008201527f6f6e206973206e6f742055555053000000000000000000000000000000000000602082015250565b6000612bd3602e836123b1565b9150612bde82612b77565b604082019050919050565b60006020820190508181036000830152612c0281612bc6565b9050919050565b7f45524331393637557067726164653a20756e737570706f727465642070726f7860008201527f6961626c65555549440000000000000000000000000000000000000000000000602082015250565b6000612c656029836123b1565b9150612c7082612c09565b604082019050919050565b60006020820190508181036000830152612c9481612c58565b9050919050565b7f457468657273706f744163636f756e743a3a204f6e6c79206f776e6572000000600082015250565b6000612cd1601d836123b1565b9150612cdc82612c9b565b602082019050919050565b60006020820190508181036000830152612d0081612cc4565b9050919050565b600081905092915050565b7f19457468657265756d205369676e6564204d6573736167653a0a333200000000600082015250565b6000612d48601c83612d07565b9150612d5382612d12565b601c82019050919050565b6000819050919050565b612d79612d7482611bef565b612d5e565b82525050565b6000612d8a82612d3b565b9150612d968284612d68565b60208201915081905092915050565b7f455243313936373a206e657720696d706c656d656e746174696f6e206973206e60008201527f6f74206120636f6e747261637400000000000000000000000000000000000000602082015250565b6000612e01602d836123b1565b9150612e0c82612da5565b604082019050919050565b60006020820190508181036000830152612e3081612df4565b9050919050565b7f4e487b7100000000000000000000000000000000000000000000000000000000600052602160045260246000fd5b7f45434453413a20696e76616c6964207369676e61747572650000000000000000600082015250565b6000612e9c6018836123b1565b9150612ea782612e66565b602082019050919050565b60006020820190508181036000830152612ecb81612e8f565b9050919050565b7f45434453413a20696e76616c6964207369676e6174757265206c656e67746800600082015250565b6000612f08601f836123b1565b9150612f1382612ed2565b602082019050919050565b60006020820190508181036000830152612f3781612efb565b9050919050565b7f45434453413a20696e76616c6964207369676e6174757265202773272076616c60008201527f7565000000000000000000000000000000000000000000000000000000000000602082015250565b6000612f9a6022836123b1565b9150612fa582612f3e565b604082019050919050565b60006020820190508181036000830152612fc981612f8d565b9050919050565b612fd981612879565b82525050565b6000608082019050612ff46000830187612128565b6130016020830186612fd0565b61300e6040830185612128565b61301b6060830184612128565b95945050505050565b7f416464726573733a2063616c6c20746f206e6f6e2d636f6e7472616374000000600082015250565b600061305a601d836123b1565b915061306582613024565b602082019050919050565b600060208201905081810360008301526130898161304d565b9050919050565b600081519050919050565b60006130a682613090565b6130b081856123b1565b93506130c0818560208601612aba565b6130c981611f90565b840191505092915050565b600060208201905081810360008301526130ee818461309b565b90509291505056fe416464726573733a206c6f772d6c6576656c2064656c65676174652063616c6c206661696c6564a26469706673582212204bbd5872218ea66acbd5147597aaa58c1a8a8de4f029d601d20b026054431f4664736f6c634300080c0033",
  "linkReferences": {},
  "deployedLinkReferences": {}
}