{
  "_format": "hh-sol-artifact-1",
  "contractName": "DepositPaymaster",
  "sourceName": "src/DepositPaymaster.sol",
  "abi": [
    {
      "inputs": [
        {
          "internalType": "contract IEntryPoint",
          "name": "_entryPoint",
          "type": "address"
        }
      ],
      "stateMutability": "nonpayable",
      "type": "constructor"
    },
    {
      "anonymous": false,
      "inputs": [
        {
          "indexed": true,
          "internalType": "address",
          "name": "previousOwner",
          "type": "address"
        },
        {
          "indexed": true,
          "internalType": "address",
          "name": "newOwner",
          "type": "address"
        }
      ],
      "name": "OwnershipTransferred",
      "type": "event"
    },
    {
      "inputs": [],
      "name": "COST_OF_POST",
      "outputs": [
        {
          "internalType": "uint256",
          "name": "",
          "type": "uint256"
        }
      ],
      "stateMutability": "view",
      "type": "function"
    },
    {
      "inputs": [
        {
          "internalType": "contract IERC20",
          "name": "token",
          "type": "address"
        },
        {
          "internalType": "address",
          "name": "account",
          "type": "address"
        },
        {
          "internalType": "uint256",
          "name": "amount",
          "type": "uint256"
        }
      ],
      "name": "addDepositFor",
      "outputs": [],
      "stateMutability": "nonpayable",
      "type": "function"
    },
    {
      "inputs": [
        {
          "internalType": "uint32",
          "name": "unstakeDelaySec",
          "type": "uint32"
        }
      ],
      "name": "addStake",
      "outputs": [],
      "stateMutability": "payable",
      "type": "function"
    },
    {
      "inputs": [
        {
          "internalType": "contract IERC20",
          "name": "token",
          "type": "address"
        },
        {
          "internalType": "contract IOracle",
          "name": "tokenPriceOracle",
          "type": "address"
        }
      ],
      "name": "addToken",
      "outputs": [],
      "stateMutability": "nonpayable",
      "type": "function"
    },
    {
      "inputs": [
        {
          "internalType": "contract IERC20",
          "name": "",
          "type": "address"
        },
        {
          "internalType": "address",
          "name": "",
          "type": "address"
        }
      ],
      "name": "balances",
      "outputs": [
        {
          "internalType": "uint256",
          "name": "",
          "type": "uint256"
        }
      ],
      "stateMutability": "view",
      "type": "function"
    },
    {
      "inputs": [],
      "name": "deposit",
      "outputs": [],
      "stateMutability": "payable",
      "type": "function"
    },
    {
      "inputs": [
        {
          "internalType": "contract IERC20",
          "name": "token",
          "type": "address"
        },
        {
          "internalType": "address",
          "name": "account",
          "type": "address"
        }
      ],
      "name": "depositInfo",
      "outputs": [
        {
          "internalType": "uint256",
          "name": "amount",
          "type": "uint256"
        },
        {
          "internalType": "uint256",
          "name": "_unlockBlock",
          "type": "uint256"
        }
      ],
      "stateMutability": "view",
      "type": "function"
    },
    {
      "inputs": [],
      "name": "entryPoint",
      "outputs": [
        {
          "internalType": "contract IEntryPoint",
          "name": "",
          "type": "address"
        }
      ],
      "stateMutability": "view",
      "type": "function"
    },
    {
      "inputs": [],
      "name": "getDeposit",
      "outputs": [
        {
          "internalType": "uint256",
          "name": "",
          "type": "uint256"
        }
      ],
      "stateMutability": "view",
      "type": "function"
    },
    {
      "inputs": [],
      "name": "lockTokenDeposit",
      "outputs": [],
      "stateMutability": "nonpayable",
      "type": "function"
    },
    {
      "inputs": [
        {
          "internalType": "contract IERC20",
          "name": "",
          "type": "address"
        }
      ],
      "name": "oracles",
      "outputs": [
        {
          "internalType": "contract IOracle",
          "name": "",
          "type": "address"
        }
      ],
      "stateMutability": "view",
      "type": "function"
    },
    {
      "inputs": [],
      "name": "owner",
      "outputs": [
        {
          "internalType": "address",
          "name": "",
          "type": "address"
        }
      ],
      "stateMutability": "view",
      "type": "function"
    },
    {
      "inputs": [
        {
          "internalType": "enum IPaymaster.PostOpMode",
          "name": "mode",
          "type": "uint8"
        },
        {
          "internalType": "bytes",
          "name": "context",
          "type": "bytes"
        },
        {
          "internalType": "uint256",
          "name": "actualGasCost",
          "type": "uint256"
        }
      ],
      "name": "postOp",
      "outputs": [],
      "stateMutability": "nonpayable",
      "type": "function"
    },
    {
      "inputs": [],
      "name": "renounceOwnership",
      "outputs": [],
      "stateMutability": "nonpayable",
      "type": "function"
    },
    {
      "inputs": [
        {
          "internalType": "contract IEntryPoint",
          "name": "_entryPoint",
          "type": "address"
        }
      ],
      "name": "setEntryPoint",
      "outputs": [],
      "stateMutability": "nonpayable",
      "type": "function"
    },
    {
      "inputs": [
        {
          "internalType": "address",
          "name": "newOwner",
          "type": "address"
        }
      ],
      "name": "transferOwnership",
      "outputs": [],
      "stateMutability": "nonpayable",
      "type": "function"
    },
    {
      "inputs": [
        {
          "internalType": "address",
          "name": "",
          "type": "address"
        }
      ],
      "name": "unlockBlock",
      "outputs": [
        {
          "internalType": "uint256",
          "name": "",
          "type": "uint256"
        }
      ],
      "stateMutability": "view",
      "type": "function"
    },
    {
      "inputs": [],
      "name": "unlockStake",
      "outputs": [],
      "stateMutability": "nonpayable",
      "type": "function"
    },
    {
      "inputs": [],
      "name": "unlockTokenDeposit",
      "outputs": [],
      "stateMutability": "nonpayable",
      "type": "function"
    },
    {
      "inputs": [
        {
          "components": [
            {
              "internalType": "address",
              "name": "sender",
              "type": "address"
            },
            {
              "internalType": "uint256",
              "name": "nonce",
              "type": "uint256"
            },
            {
              "internalType": "bytes",
              "name": "initCode",
              "type": "bytes"
            },
            {
              "internalType": "bytes",
              "name": "callData",
              "type": "bytes"
            },
            {
              "internalType": "uint256",
              "name": "callGasLimit",
              "type": "uint256"
            },
            {
              "internalType": "uint256",
              "name": "verificationGasLimit",
              "type": "uint256"
            },
            {
              "internalType": "uint256",
              "name": "preVerificationGas",
              "type": "uint256"
            },
            {
              "internalType": "uint256",
              "name": "maxFeePerGas",
              "type": "uint256"
            },
            {
              "internalType": "uint256",
              "name": "maxPriorityFeePerGas",
              "type": "uint256"
            },
            {
              "internalType": "bytes",
              "name": "paymasterAndData",
              "type": "bytes"
            },
            {
              "internalType": "bytes",
              "name": "signature",
              "type": "bytes"
            }
          ],
          "internalType": "struct UserOperation",
          "name": "userOp",
          "type": "tuple"
        },
        {
          "internalType": "bytes32",
          "name": "userOpHash",
          "type": "bytes32"
        },
        {
          "internalType": "uint256",
          "name": "maxCost",
          "type": "uint256"
        }
      ],
      "name": "validatePaymasterUserOp",
      "outputs": [
        {
          "internalType": "bytes",
          "name": "context",
          "type": "bytes"
        },
        {
          "internalType": "uint256",
          "name": "deadline",
          "type": "uint256"
        }
      ],
      "stateMutability": "view",
      "type": "function"
    },
    {
      "inputs": [
        {
          "internalType": "address payable",
          "name": "withdrawAddress",
          "type": "address"
        }
      ],
      "name": "withdrawStake",
      "outputs": [],
      "stateMutability": "nonpayable",
      "type": "function"
    },
    {
      "inputs": [
        {
          "internalType": "address payable",
          "name": "withdrawAddress",
          "type": "address"
        },
        {
          "internalType": "uint256",
          "name": "amount",
          "type": "uint256"
        }
      ],
      "name": "withdrawTo",
      "outputs": [],
      "stateMutability": "nonpayable",
      "type": "function"
    },
    {
      "inputs": [
        {
          "internalType": "contract IERC20",
          "name": "token",
          "type": "address"
        },
        {
          "internalType": "address",
          "name": "target",
          "type": "address"
        },
        {
          "internalType": "uint256",
          "name": "amount",
          "type": "uint256"
        }
      ],
      "name": "withdrawTokensTo",
      "outputs": [],
      "stateMutability": "nonpayable",
      "type": "function"
    }
  ],
  "bytecode": "0x60806040523480156200001157600080fd5b50604051620033c0380380620033c083398181016040528101906200003791906200031f565b80620000586200004c6200008160201b60201c565b6200008960201b60201c565b62000069816200014d60201b60201c565b506200007a620001a160201b60201c565b50620003d4565b600033905090565b60008060009054906101000a900473ffffffffffffffffffffffffffffffffffffffff169050816000806101000a81548173ffffffffffffffffffffffffffffffffffffffff021916908373ffffffffffffffffffffffffffffffffffffffff1602179055508173ffffffffffffffffffffffffffffffffffffffff168173ffffffffffffffffffffffffffffffffffffffff167f8be0079c531659141344cd1fd0a4f28419497f9722a3daafe3b4186f6b6457e060405160405180910390a35050565b6200015d620001e760201b60201c565b80600160006101000a81548173ffffffffffffffffffffffffffffffffffffffff021916908373ffffffffffffffffffffffffffffffffffffffff16021790555050565b43600460003373ffffffffffffffffffffffffffffffffffffffff1673ffffffffffffffffffffffffffffffffffffffff16815260200190815260200160002081905550565b620001f76200008160201b60201c565b73ffffffffffffffffffffffffffffffffffffffff166200021d6200027860201b60201c565b73ffffffffffffffffffffffffffffffffffffffff161462000276576040517f08c379a00000000000000000000000000000000000000000000000000000000081526004016200026d90620003b2565b60405180910390fd5b565b60008060009054906101000a900473ffffffffffffffffffffffffffffffffffffffff16905090565b600080fd5b600073ffffffffffffffffffffffffffffffffffffffff82169050919050565b6000620002d382620002a6565b9050919050565b6000620002e782620002c6565b9050919050565b620002f981620002da565b81146200030557600080fd5b50565b6000815190506200031981620002ee565b92915050565b600060208284031215620003385762000337620002a1565b5b6000620003488482850162000308565b91505092915050565b600082825260208201905092915050565b7f4f776e61626c653a2063616c6c6572206973206e6f7420746865206f776e6572600082015250565b60006200039a60208362000351565b9150620003a78262000362565b602082019050919050565b60006020820190508181036000830152620003cd816200038b565b9050919050565b612fdc80620003e46000396000f3fe6080604052600436106101405760003560e01c8063a9a23409116100b6578063c399ec881161006f578063c399ec8814610412578063cc9c837c1461043d578063cd8f80c214610466578063d0e30db01461047d578063f2fde38b14610487578063f465c77e146104b057610140565b8063a9a2340914610304578063addd50991461032d578063b0d691fe1461036a578063bb9fe6bf14610395578063c23a5cea146103ac578063c23f001f146103d557610140565b80635476bd72116101085780635476bd721461022e578063584465f214610257578063715018a614610280578063796d4371146102975780638da5cb5b146102c25780639ed0fb68146102ed57610140565b80630396cb6014610145578063205c287814610161578063382edd9e1461018a578063493b0170146101b35780634a6f84cf146101f1575b600080fd5b61015f600480360381019061015a9190611bc3565b6104ee565b005b34801561016d57600080fd5b5061018860048036038101906101839190611c84565b610587565b005b34801561019657600080fd5b506101b160048036038101906101ac9190611d40565b610622565b005b3480156101bf57600080fd5b506101da60048036038101906101d59190611d93565b6107f3565b6040516101e8929190611de2565b60405180910390f35b3480156101fd57600080fd5b5061021860048036038101906102139190611e0b565b6108be565b6040516102259190611e38565b60405180910390f35b34801561023a57600080fd5b5061025560048036038101906102509190611e91565b6108d6565b005b34801561026357600080fd5b5061027e60048036038101906102799190611f0f565b6109f8565b005b34801561028c57600080fd5b50610295610a44565b005b3480156102a357600080fd5b506102ac610a58565b6040516102b99190611e38565b60405180910390f35b3480156102ce57600080fd5b506102d7610a5e565b6040516102e49190611f4b565b60405180910390f35b3480156102f957600080fd5b50610302610a87565b005b34801561031057600080fd5b5061032b60048036038101906103269190611ff0565b610acd565b005b34801561033957600080fd5b50610354600480360381019061034f9190612064565b610ae7565b60405161036191906120f0565b60405180910390f35b34801561037657600080fd5b5061037f610b1a565b60405161038c919061212c565b60405180910390f35b3480156103a157600080fd5b506103aa610b40565b005b3480156103b857600080fd5b506103d360048036038101906103ce9190612147565b610bcc565b005b3480156103e157600080fd5b506103fc60048036038101906103f79190611d93565b610c64565b6040516104099190611e38565b60405180910390f35b34801561041e57600080fd5b50610427610c89565b6040516104349190611e38565b60405180910390f35b34801561044957600080fd5b50610464600480360381019061045f9190611d40565b610d2c565b005b34801561047257600080fd5b5061047b610ebc565b005b610485610f03565b005b34801561049357600080fd5b506104ae60048036038101906104a99190611e0b565b610f93565b005b3480156104bc57600080fd5b506104d760048036038101906104d291906121cf565b611017565b6040516104e59291906122d7565b60405180910390f35b6104f661128b565b600160009054906101000a900473ffffffffffffffffffffffffffffffffffffffff1673ffffffffffffffffffffffffffffffffffffffff16630396cb6034836040518363ffffffff1660e01b81526004016105529190612316565b6000604051808303818588803b15801561056b57600080fd5b505af115801561057f573d6000803e3d6000fd5b505050505050565b61058f61128b565b600160009054906101000a900473ffffffffffffffffffffffffffffffffffffffff1673ffffffffffffffffffffffffffffffffffffffff1663205c287883836040518363ffffffff1660e01b81526004016105ec929190612340565b600060405180830381600087803b15801561060657600080fd5b505af115801561061a573d6000803e3d6000fd5b505050505050565b61064f3330838673ffffffffffffffffffffffffffffffffffffffff16611309909392919063ffffffff16565b600073ffffffffffffffffffffffffffffffffffffffff16600260008573ffffffffffffffffffffffffffffffffffffffff1673ffffffffffffffffffffffffffffffffffffffff16815260200190815260200160002060009054906101000a900473ffffffffffffffffffffffffffffffffffffffff1673ffffffffffffffffffffffffffffffffffffffff16141561071e576040517f08c379a0000000000000000000000000000000000000000000000000000000008152600401610715906123c6565b60405180910390fd5b80600360008573ffffffffffffffffffffffffffffffffffffffff1673ffffffffffffffffffffffffffffffffffffffff16815260200190815260200160002060008473ffffffffffffffffffffffffffffffffffffffff1673ffffffffffffffffffffffffffffffffffffffff16815260200190815260200160002060008282546107aa9190612415565b925050819055508173ffffffffffffffffffffffffffffffffffffffff163373ffffffffffffffffffffffffffffffffffffffff1614156107ee576107ed610ebc565b5b505050565b600080600360008573ffffffffffffffffffffffffffffffffffffffff1673ffffffffffffffffffffffffffffffffffffffff16815260200190815260200160002060008473ffffffffffffffffffffffffffffffffffffffff1673ffffffffffffffffffffffffffffffffffffffff168152602001908152602001600020549150600460008473ffffffffffffffffffffffffffffffffffffffff1673ffffffffffffffffffffffffffffffffffffffff1681526020019081526020016000205490509250929050565b60046020528060005260406000206000915090505481565b6108de61128b565b600073ffffffffffffffffffffffffffffffffffffffff16600260008473ffffffffffffffffffffffffffffffffffffffff1673ffffffffffffffffffffffffffffffffffffffff16815260200190815260200160002060009054906101000a900473ffffffffffffffffffffffffffffffffffffffff1673ffffffffffffffffffffffffffffffffffffffff161461097657600080fd5b80600260008473ffffffffffffffffffffffffffffffffffffffff1673ffffffffffffffffffffffffffffffffffffffff16815260200190815260200160002060006101000a81548173ffffffffffffffffffffffffffffffffffffffff021916908373ffffffffffffffffffffffffffffffffffffffff1602179055505050565b610a0061128b565b80600160006101000a81548173ffffffffffffffffffffffffffffffffffffffff021916908373ffffffffffffffffffffffffffffffffffffffff16021790555050565b610a4c61128b565b610a566000611392565b565b6188b881565b60008060009054906101000a900473ffffffffffffffffffffffffffffffffffffffff16905090565b43600460003373ffffffffffffffffffffffffffffffffffffffff1673ffffffffffffffffffffffffffffffffffffffff16815260200190815260200160002081905550565b610ad5611456565b610ae1848484846114b2565b50505050565b60026020528060005260406000206000915054906101000a900473ffffffffffffffffffffffffffffffffffffffff1681565b600160009054906101000a900473ffffffffffffffffffffffffffffffffffffffff1681565b610b4861128b565b600160009054906101000a900473ffffffffffffffffffffffffffffffffffffffff1673ffffffffffffffffffffffffffffffffffffffff1663bb9fe6bf6040518163ffffffff1660e01b8152600401600060405180830381600087803b158015610bb257600080fd5b505af1158015610bc6573d6000803e3d6000fd5b50505050565b610bd461128b565b600160009054906101000a900473ffffffffffffffffffffffffffffffffffffffff1673ffffffffffffffffffffffffffffffffffffffff1663c23a5cea826040518263ffffffff1660e01b8152600401610c2f919061246b565b600060405180830381600087803b158015610c4957600080fd5b505af1158015610c5d573d6000803e3d6000fd5b5050505050565b6003602052816000526040600020602052806000526040600020600091509150505481565b6000600160009054906101000a900473ffffffffffffffffffffffffffffffffffffffff1673ffffffffffffffffffffffffffffffffffffffff166370a08231306040518263ffffffff1660e01b8152600401610ce69190611f4b565b602060405180830381865afa158015610d03573d6000803e3d6000fd5b505050506040513d601f19601f82011682018060405250810190610d27919061249b565b905090565b6000600460003373ffffffffffffffffffffffffffffffffffffffff1673ffffffffffffffffffffffffffffffffffffffff1681526020019081526020016000205414158015610dba5750600460003373ffffffffffffffffffffffffffffffffffffffff1673ffffffffffffffffffffffffffffffffffffffff1681526020019081526020016000205443115b610df9576040517f08c379a0000000000000000000000000000000000000000000000000000000008152600401610df09061253a565b60405180910390fd5b80600360008573ffffffffffffffffffffffffffffffffffffffff1673ffffffffffffffffffffffffffffffffffffffff16815260200190815260200160002060003373ffffffffffffffffffffffffffffffffffffffff1673ffffffffffffffffffffffffffffffffffffffff1681526020019081526020016000206000828254610e85919061255a565b92505081905550610eb782828573ffffffffffffffffffffffffffffffffffffffff1661169d9092919063ffffffff16565b505050565b6000600460003373ffffffffffffffffffffffffffffffffffffffff1673ffffffffffffffffffffffffffffffffffffffff16815260200190815260200160002081905550565b600160009054906101000a900473ffffffffffffffffffffffffffffffffffffffff1673ffffffffffffffffffffffffffffffffffffffff1663b760faf934306040518363ffffffff1660e01b8152600401610f5f9190611f4b565b6000604051808303818588803b158015610f7857600080fd5b505af1158015610f8c573d6000803e3d6000fd5b5050505050565b610f9b61128b565b600073ffffffffffffffffffffffffffffffffffffffff168173ffffffffffffffffffffffffffffffffffffffff16141561100b576040517f08c379a000000000000000000000000000000000000000000000000000000000815260040161100290612600565b60405180910390fd5b61101481611392565b50565b606060006188b88560a0013511611063576040517f08c379a000000000000000000000000000000000000000000000000000000000815260040161105a90612692565b60405180910390fd5b3660008680610120019061107791906126c1565b91509150602882829050146110c1576040517f08c379a00000000000000000000000000000000000000000000000000000000081526004016110b890612796565b60405180910390fd5b6000828260149080926110d6939291906127c0565b906110e1919061283f565b60601c905060006110f189611723565b905060006110ff8389611733565b9050600061110c8b61188b565b90506000600460008573ffffffffffffffffffffffffffffffffffffffff1673ffffffffffffffffffffffffffffffffffffffff1681526020019081526020016000205414611190576040517f08c379a000000000000000000000000000000000000000000000000000000000815260040161118790612910565b60405180910390fd5b81600360008673ffffffffffffffffffffffffffffffffffffffff1673ffffffffffffffffffffffffffffffffffffffff16815260200190815260200160002060008573ffffffffffffffffffffffffffffffffffffffff1673ffffffffffffffffffffffffffffffffffffffff16815260200190815260200160002054101561124f576040517f08c379a0000000000000000000000000000000000000000000000000000000008152600401611246906129a2565b60405180910390fd5b828482848c6040516020016112689594939291906129e3565b604051602081830303815290604052600097509750505050505050935093915050565b6112936118c7565b73ffffffffffffffffffffffffffffffffffffffff166112b1610a5e565b73ffffffffffffffffffffffffffffffffffffffff1614611307576040517f08c379a00000000000000000000000000000000000000000000000000000000081526004016112fe90612a82565b60405180910390fd5b565b61138c846323b872dd60e01b85858560405160240161132a93929190612aa2565b604051602081830303815290604052907bffffffffffffffffffffffffffffffffffffffffffffffffffffffff19166020820180517bffffffffffffffffffffffffffffffffffffffffffffffffffffffff83818316178352505050506118cf565b50505050565b60008060009054906101000a900473ffffffffffffffffffffffffffffffffffffffff169050816000806101000a81548173ffffffffffffffffffffffffffffffffffffffff021916908373ffffffffffffffffffffffffffffffffffffffff1602179055508173ffffffffffffffffffffffffffffffffffffffff168173ffffffffffffffffffffffffffffffffffffffff167f8be0079c531659141344cd1fd0a4f28419497f9722a3daafe3b4186f6b6457e060405160405180910390a35050565b600160009054906101000a900473ffffffffffffffffffffffffffffffffffffffff1673ffffffffffffffffffffffffffffffffffffffff163373ffffffffffffffffffffffffffffffffffffffff16146114b057600080fd5b565b600080600080600087878101906114c99190612ad9565b9450945094509450945060008183856188b86114e59190612b54565b896114f09190612415565b6114fa9190612b54565b6115049190612bdd565b905060028081111561151957611518612c0e565b5b8a600281111561152c5761152b612c0e565b5b146115635761155e8630838873ffffffffffffffffffffffffffffffffffffffff16611309909392919063ffffffff16565b6115f7565b80600360008773ffffffffffffffffffffffffffffffffffffffff1673ffffffffffffffffffffffffffffffffffffffff16815260200190815260200160002060008873ffffffffffffffffffffffffffffffffffffffff1673ffffffffffffffffffffffffffffffffffffffff16815260200190815260200160002060008282546115ef919061255a565b925050819055505b80600360008773ffffffffffffffffffffffffffffffffffffffff1673ffffffffffffffffffffffffffffffffffffffff1681526020019081526020016000206000611641610a5e565b73ffffffffffffffffffffffffffffffffffffffff1673ffffffffffffffffffffffffffffffffffffffff168152602001908152602001600020600082825461168a9190612415565b9250508190555050505050505050505050565b61171e8363a9059cbb60e01b84846040516024016116bc929190612c3d565b604051602081830303815290604052907bffffffffffffffffffffffffffffffffffffffffffffffffffffffff19166020820180517bffffffffffffffffffffffffffffffffffffffffffffffffffffffff83818316178352505050506118cf565b505050565b6000808235905080915050919050565b600080600260008573ffffffffffffffffffffffffffffffffffffffff1673ffffffffffffffffffffffffffffffffffffffff16815260200190815260200160002060009054906101000a900473ffffffffffffffffffffffffffffffffffffffff169050600073ffffffffffffffffffffffffffffffffffffffff168173ffffffffffffffffffffffffffffffffffffffff161415611808576040517f08c379a00000000000000000000000000000000000000000000000000000000081526004016117ff90612cd8565b60405180910390fd5b8073ffffffffffffffffffffffffffffffffffffffff1663d1eca9cf846040518263ffffffff1660e01b81526004016118419190611e38565b602060405180830381865afa15801561185e573d6000803e3d6000fd5b505050506040513d601f19601f82011682018060405250810190611882919061249b565b91505092915050565b6000808260e00135905060008361010001359050808214156118b15781925050506118c2565b6118bd82488301611996565b925050505b919050565b600033905090565b6000611931826040518060400160405280602081526020017f5361666545524332303a206c6f772d6c6576656c2063616c6c206661696c65648152508573ffffffffffffffffffffffffffffffffffffffff166119af9092919063ffffffff16565b905060008151111561199157808060200190518101906119519190612d30565b611990576040517f08c379a000000000000000000000000000000000000000000000000000000000815260040161198790612dcf565b60405180910390fd5b5b505050565b60008183106119a557816119a7565b825b905092915050565b60606119be84846000856119c7565b90509392505050565b606082471015611a0c576040517f08c379a0000000000000000000000000000000000000000000000000000000008152600401611a0390612e61565b60405180910390fd5b6000808673ffffffffffffffffffffffffffffffffffffffff168587604051611a359190612ebd565b60006040518083038185875af1925050503d8060008114611a72576040519150601f19603f3d011682016040523d82523d6000602084013e611a77565b606091505b5091509150611a8887838387611a94565b92505050949350505050565b60608315611af757600083511415611aef57611aaf85611b0a565b611aee576040517f08c379a0000000000000000000000000000000000000000000000000000000008152600401611ae590612f20565b60405180910390fd5b5b829050611b02565b611b018383611b2d565b5b949350505050565b6000808273ffffffffffffffffffffffffffffffffffffffff163b119050919050565b600082511115611b405781518083602001fd5b806040517f08c379a0000000000000000000000000000000000000000000000000000000008152600401611b749190612f84565b60405180910390fd5b600080fd5b600080fd5b600063ffffffff82169050919050565b611ba081611b87565b8114611bab57600080fd5b50565b600081359050611bbd81611b97565b92915050565b600060208284031215611bd957611bd8611b7d565b5b6000611be784828501611bae565b91505092915050565b600073ffffffffffffffffffffffffffffffffffffffff82169050919050565b6000611c1b82611bf0565b9050919050565b611c2b81611c10565b8114611c3657600080fd5b50565b600081359050611c4881611c22565b92915050565b6000819050919050565b611c6181611c4e565b8114611c6c57600080fd5b50565b600081359050611c7e81611c58565b92915050565b60008060408385031215611c9b57611c9a611b7d565b5b6000611ca985828601611c39565b9250506020611cba85828601611c6f565b9150509250929050565b6000611ccf82611bf0565b9050919050565b6000611ce182611cc4565b9050919050565b611cf181611cd6565b8114611cfc57600080fd5b50565b600081359050611d0e81611ce8565b92915050565b611d1d81611cc4565b8114611d2857600080fd5b50565b600081359050611d3a81611d14565b92915050565b600080600060608486031215611d5957611d58611b7d565b5b6000611d6786828701611cff565b9350506020611d7886828701611d2b565b9250506040611d8986828701611c6f565b9150509250925092565b60008060408385031215611daa57611da9611b7d565b5b6000611db885828601611cff565b9250506020611dc985828601611d2b565b9150509250929050565b611ddc81611c4e565b82525050565b6000604082019050611df76000830185611dd3565b611e046020830184611dd3565b9392505050565b600060208284031215611e2157611e20611b7d565b5b6000611e2f84828501611d2b565b91505092915050565b6000602082019050611e4d6000830184611dd3565b92915050565b6000611e5e82611cc4565b9050919050565b611e6e81611e53565b8114611e7957600080fd5b50565b600081359050611e8b81611e65565b92915050565b60008060408385031215611ea857611ea7611b7d565b5b6000611eb685828601611cff565b9250506020611ec785828601611e7c565b9150509250929050565b6000611edc82611cc4565b9050919050565b611eec81611ed1565b8114611ef757600080fd5b50565b600081359050611f0981611ee3565b92915050565b600060208284031215611f2557611f24611b7d565b5b6000611f3384828501611efa565b91505092915050565b611f4581611cc4565b82525050565b6000602082019050611f606000830184611f3c565b92915050565b60038110611f7357600080fd5b50565b600081359050611f8581611f66565b92915050565b600080fd5b600080fd5b600080fd5b60008083601f840112611fb057611faf611f8b565b5b8235905067ffffffffffffffff811115611fcd57611fcc611f90565b5b602083019150836001820283011115611fe957611fe8611f95565b5b9250929050565b6000806000806060858703121561200a57612009611b7d565b5b600061201887828801611f76565b945050602085013567ffffffffffffffff81111561203957612038611b82565b5b61204587828801611f9a565b9350935050604061205887828801611c6f565b91505092959194509250565b60006020828403121561207a57612079611b7d565b5b600061208884828501611cff565b91505092915050565b6000819050919050565b60006120b66120b16120ac84611bf0565b612091565b611bf0565b9050919050565b60006120c88261209b565b9050919050565b60006120da826120bd565b9050919050565b6120ea816120cf565b82525050565b600060208201905061210560008301846120e1565b92915050565b6000612116826120bd565b9050919050565b6121268161210b565b82525050565b6000602082019050612141600083018461211d565b92915050565b60006020828403121561215d5761215c611b7d565b5b600061216b84828501611c39565b91505092915050565b600080fd5b600061016082840312156121905761218f612174565b5b81905092915050565b6000819050919050565b6121ac81612199565b81146121b757600080fd5b50565b6000813590506121c9816121a3565b92915050565b6000806000606084860312156121e8576121e7611b7d565b5b600084013567ffffffffffffffff81111561220657612205611b82565b5b61221286828701612179565b9350506020612223868287016121ba565b925050604061223486828701611c6f565b9150509250925092565b600081519050919050565b600082825260208201905092915050565b60005b8381101561227857808201518184015260208101905061225d565b83811115612287576000848401525b50505050565b6000601f19601f8301169050919050565b60006122a98261223e565b6122b38185612249565b93506122c381856020860161225a565b6122cc8161228d565b840191505092915050565b600060408201905081810360008301526122f1818561229e565b90506123006020830184611dd3565b9392505050565b61231081611b87565b82525050565b600060208201905061232b6000830184612307565b92915050565b61233a81611c10565b82525050565b60006040820190506123556000830185612331565b6123626020830184611dd3565b9392505050565b600082825260208201905092915050565b7f756e737570706f7274656420746f6b656e000000000000000000000000000000600082015250565b60006123b0601183612369565b91506123bb8261237a565b602082019050919050565b600060208201905081810360008301526123df816123a3565b9050919050565b7f4e487b7100000000000000000000000000000000000000000000000000000000600052601160045260246000fd5b600061242082611c4e565b915061242b83611c4e565b9250827fffffffffffffffffffffffffffffffffffffffffffffffffffffffffffffffff038211156124605761245f6123e6565b5b828201905092915050565b60006020820190506124806000830184612331565b92915050565b60008151905061249581611c58565b92915050565b6000602082840312156124b1576124b0611b7d565b5b60006124bf84828501612486565b91505092915050565b7f4465706f7369745061796d61737465723a206d75737420756e6c6f636b546f6b60008201527f656e4465706f7369740000000000000000000000000000000000000000000000602082015250565b6000612524602983612369565b915061252f826124c8565b604082019050919050565b6000602082019050818103600083015261255381612517565b9050919050565b600061256582611c4e565b915061257083611c4e565b925082821015612583576125826123e6565b5b828203905092915050565b7f4f776e61626c653a206e6577206f776e657220697320746865207a65726f206160008201527f6464726573730000000000000000000000000000000000000000000000000000602082015250565b60006125ea602683612369565b91506125f58261258e565b604082019050919050565b60006020820190508181036000830152612619816125dd565b9050919050565b7f4465706f7369745061796d61737465723a2067617320746f6f206c6f7720666f60008201527f7220706f73744f70000000000000000000000000000000000000000000000000602082015250565b600061267c602883612369565b915061268782612620565b604082019050919050565b600060208201905081810360008301526126ab8161266f565b9050919050565b600080fd5b600080fd5b600080fd5b600080833560016020038436030381126126de576126dd6126b2565b5b80840192508235915067ffffffffffffffff821115612700576126ff6126b7565b5b60208301925060018202360383131561271c5761271b6126bc565b5b509250929050565b7f4465706f7369745061796d61737465723a207061796d6173746572416e64446160008201527f7461206d757374207370656369667920746f6b656e0000000000000000000000602082015250565b6000612780603583612369565b915061278b82612724565b604082019050919050565b600060208201905081810360008301526127af81612773565b9050919050565b600080fd5b600080fd5b600080858511156127d4576127d36127b6565b5b838611156127e5576127e46127bb565b5b6001850283019150848603905094509492505050565b600082905092915050565b60007fffffffffffffffffffffffffffffffffffffffff00000000000000000000000082169050919050565b600082821b905092915050565b600061284b83836127fb565b826128568135612806565b92506014821015612896576128917fffffffffffffffffffffffffffffffffffffffff00000000000000000000000083601403600802612832565b831692505b505092915050565b7f4465706f7369745061796d61737465723a206465706f736974206e6f74206c6f60008201527f636b656400000000000000000000000000000000000000000000000000000000602082015250565b60006128fa602483612369565b91506129058261289e565b604082019050919050565b60006020820190508181036000830152612929816128ed565b9050919050565b7f4465706f7369745061796d61737465723a206465706f73697420746f6f206c6f60008201527f7700000000000000000000000000000000000000000000000000000000000000602082015250565b600061298c602183612369565b915061299782612930565b604082019050919050565b600060208201905081810360008301526129bb8161297f565b9050919050565b60006129cd826120bd565b9050919050565b6129dd816129c2565b82525050565b600060a0820190506129f86000830188611f3c565b612a0560208301876129d4565b612a126040830186611dd3565b612a1f6060830185611dd3565b612a2c6080830184611dd3565b9695505050505050565b7f4f776e61626c653a2063616c6c6572206973206e6f7420746865206f776e6572600082015250565b6000612a6c602083612369565b9150612a7782612a36565b602082019050919050565b60006020820190508181036000830152612a9b81612a5f565b9050919050565b6000606082019050612ab76000830186611f3c565b612ac46020830185611f3c565b612ad16040830184611dd3565b949350505050565b600080600080600060a08688031215612af557612af4611b7d565b5b6000612b0388828901611c39565b9550506020612b1488828901611cff565b9450506040612b2588828901611c6f565b9350506060612b3688828901611c6f565b9250506080612b4788828901611c6f565b9150509295509295909350565b6000612b5f82611c4e565b9150612b6a83611c4e565b9250817fffffffffffffffffffffffffffffffffffffffffffffffffffffffffffffffff0483118215151615612ba357612ba26123e6565b5b828202905092915050565b7f4e487b7100000000000000000000000000000000000000000000000000000000600052601260045260246000fd5b6000612be882611c4e565b9150612bf383611c4e565b925082612c0357612c02612bae565b5b828204905092915050565b7f4e487b7100000000000000000000000000000000000000000000000000000000600052602160045260246000fd5b6000604082019050612c526000830185611f3c565b612c5f6020830184611dd3565b9392505050565b7f4465706f7369745061796d61737465723a20756e737570706f7274656420746f60008201527f6b656e0000000000000000000000000000000000000000000000000000000000602082015250565b6000612cc2602383612369565b9150612ccd82612c66565b604082019050919050565b60006020820190508181036000830152612cf181612cb5565b9050919050565b60008115159050919050565b612d0d81612cf8565b8114612d1857600080fd5b50565b600081519050612d2a81612d04565b92915050565b600060208284031215612d4657612d45611b7d565b5b6000612d5484828501612d1b565b91505092915050565b7f5361666545524332303a204552433230206f7065726174696f6e20646964206e60008201527f6f74207375636365656400000000000000000000000000000000000000000000602082015250565b6000612db9602a83612369565b9150612dc482612d5d565b604082019050919050565b60006020820190508181036000830152612de881612dac565b9050919050565b7f416464726573733a20696e73756666696369656e742062616c616e636520666f60008201527f722063616c6c0000000000000000000000000000000000000000000000000000602082015250565b6000612e4b602683612369565b9150612e5682612def565b604082019050919050565b60006020820190508181036000830152612e7a81612e3e565b9050919050565b600081905092915050565b6000612e978261223e565b612ea18185612e81565b9350612eb181856020860161225a565b80840191505092915050565b6000612ec98284612e8c565b915081905092915050565b7f416464726573733a2063616c6c20746f206e6f6e2d636f6e7472616374000000600082015250565b6000612f0a601d83612369565b9150612f1582612ed4565b602082019050919050565b60006020820190508181036000830152612f3981612efd565b9050919050565b600081519050919050565b6000612f5682612f40565b612f608185612369565b9350612f7081856020860161225a565b612f798161228d565b840191505092915050565b60006020820190508181036000830152612f9e8184612f4b565b90509291505056fea2646970667358221220f4ec9b19efa34eaa972afeef3dea7cc4f2aeaaed6ae03add294e67a7cb27cd5364736f6c634300080c0033",
  "linkReferences": {},
  "deployedLinkReferences": {}
}