{
  "_format": "hh-sol-artifact-1",
  "contractName": "DepositPaymaster",
  "sourceName": "src/DepositPaymaster.sol",
  "abi": [
    {
      "inputs": [
        {
          "internalType": "contract IEntryPoint",
          "name": "_entryPoint",
          "type": "address"
        }
      ],
      "stateMutability": "nonpayable",
      "type": "constructor"
    },
    {
      "anonymous": false,
      "inputs": [
        {
          "indexed": true,
          "internalType": "address",
          "name": "previousOwner",
          "type": "address"
        },
        {
          "indexed": true,
          "internalType": "address",
          "name": "newOwner",
          "type": "address"
        }
      ],
      "name": "OwnershipTransferred",
      "type": "event"
    },
    {
      "inputs": [],
      "name": "COST_OF_POST",
      "outputs": [
        {
          "internalType": "uint256",
          "name": "",
          "type": "uint256"
        }
      ],
      "stateMutability": "view",
      "type": "function"
    },
    {
      "inputs": [
        {
          "internalType": "contract IERC20",
          "name": "token",
          "type": "address"
        },
        {
          "internalType": "address",
          "name": "account",
          "type": "address"
        },
        {
          "internalType": "uint256",
          "name": "amount",
          "type": "uint256"
        }
      ],
      "name": "addDepositFor",
      "outputs": [],
      "stateMutability": "nonpayable",
      "type": "function"
    },
    {
      "inputs": [
        {
          "internalType": "uint32",
          "name": "unstakeDelaySec",
          "type": "uint32"
        }
      ],
      "name": "addStake",
      "outputs": [],
      "stateMutability": "payable",
      "type": "function"
    },
    {
      "inputs": [
        {
          "internalType": "contract IERC20",
          "name": "token",
          "type": "address"
        },
        {
          "internalType": "contract IOracle",
          "name": "tokenPriceOracle",
          "type": "address"
        }
      ],
      "name": "addToken",
      "outputs": [],
      "stateMutability": "nonpayable",
      "type": "function"
    },
    {
      "inputs": [
        {
          "internalType": "contract IERC20",
          "name": "",
          "type": "address"
        },
        {
          "internalType": "address",
          "name": "",
          "type": "address"
        }
      ],
      "name": "balances",
      "outputs": [
        {
          "internalType": "uint256",
          "name": "",
          "type": "uint256"
        }
      ],
      "stateMutability": "view",
      "type": "function"
    },
    {
      "inputs": [],
      "name": "deposit",
      "outputs": [],
      "stateMutability": "payable",
      "type": "function"
    },
    {
      "inputs": [
        {
          "internalType": "contract IERC20",
          "name": "token",
          "type": "address"
        },
        {
          "internalType": "address",
          "name": "account",
          "type": "address"
        }
      ],
      "name": "depositInfo",
      "outputs": [
        {
          "internalType": "uint256",
          "name": "amount",
          "type": "uint256"
        },
        {
          "internalType": "uint256",
          "name": "_unlockBlock",
          "type": "uint256"
        }
      ],
      "stateMutability": "view",
      "type": "function"
    },
    {
      "inputs": [],
      "name": "entryPoint",
      "outputs": [
        {
          "internalType": "contract IEntryPoint",
          "name": "",
          "type": "address"
        }
      ],
      "stateMutability": "view",
      "type": "function"
    },
    {
      "inputs": [],
      "name": "getDeposit",
      "outputs": [
        {
          "internalType": "uint256",
          "name": "",
          "type": "uint256"
        }
      ],
      "stateMutability": "view",
      "type": "function"
    },
    {
      "inputs": [],
      "name": "lockTokenDeposit",
      "outputs": [],
      "stateMutability": "nonpayable",
      "type": "function"
    },
    {
      "inputs": [
        {
          "internalType": "contract IERC20",
          "name": "",
          "type": "address"
        }
      ],
      "name": "oracles",
      "outputs": [
        {
          "internalType": "contract IOracle",
          "name": "",
          "type": "address"
        }
      ],
      "stateMutability": "view",
      "type": "function"
    },
    {
      "inputs": [],
      "name": "owner",
      "outputs": [
        {
          "internalType": "address",
          "name": "",
          "type": "address"
        }
      ],
      "stateMutability": "view",
      "type": "function"
    },
    {
      "inputs": [
        {
          "internalType": "enum IPaymaster.PostOpMode",
          "name": "mode",
          "type": "uint8"
        },
        {
          "internalType": "bytes",
          "name": "context",
          "type": "bytes"
        },
        {
          "internalType": "uint256",
          "name": "actualGasCost",
          "type": "uint256"
        }
      ],
      "name": "postOp",
      "outputs": [],
      "stateMutability": "nonpayable",
      "type": "function"
    },
    {
      "inputs": [],
      "name": "renounceOwnership",
      "outputs": [],
      "stateMutability": "nonpayable",
      "type": "function"
    },
    {
      "inputs": [
        {
          "internalType": "contract IEntryPoint",
          "name": "_entryPoint",
          "type": "address"
        }
      ],
      "name": "setEntryPoint",
      "outputs": [],
      "stateMutability": "nonpayable",
      "type": "function"
    },
    {
      "inputs": [
        {
          "internalType": "address",
          "name": "newOwner",
          "type": "address"
        }
      ],
      "name": "transferOwnership",
      "outputs": [],
      "stateMutability": "nonpayable",
      "type": "function"
    },
    {
      "inputs": [
        {
          "internalType": "address",
          "name": "",
          "type": "address"
        }
      ],
      "name": "unlockBlock",
      "outputs": [
        {
          "internalType": "uint256",
          "name": "",
          "type": "uint256"
        }
      ],
      "stateMutability": "view",
      "type": "function"
    },
    {
      "inputs": [],
      "name": "unlockStake",
      "outputs": [],
      "stateMutability": "nonpayable",
      "type": "function"
    },
    {
      "inputs": [],
      "name": "unlockTokenDeposit",
      "outputs": [],
      "stateMutability": "nonpayable",
      "type": "function"
    },
    {
      "inputs": [
        {
          "components": [
            {
              "internalType": "address",
              "name": "sender",
              "type": "address"
            },
            {
              "internalType": "uint256",
              "name": "nonce",
              "type": "uint256"
            },
            {
              "internalType": "bytes",
              "name": "initCode",
              "type": "bytes"
            },
            {
              "internalType": "bytes",
              "name": "callData",
              "type": "bytes"
            },
            {
              "internalType": "uint256",
              "name": "callGasLimit",
              "type": "uint256"
            },
            {
              "internalType": "uint256",
              "name": "verificationGasLimit",
              "type": "uint256"
            },
            {
              "internalType": "uint256",
              "name": "preVerificationGas",
              "type": "uint256"
            },
            {
              "internalType": "uint256",
              "name": "maxFeePerGas",
              "type": "uint256"
            },
            {
              "internalType": "uint256",
              "name": "maxPriorityFeePerGas",
              "type": "uint256"
            },
            {
              "internalType": "bytes",
              "name": "paymasterAndData",
              "type": "bytes"
            },
            {
              "internalType": "bytes",
              "name": "signature",
              "type": "bytes"
            }
          ],
          "internalType": "struct UserOperation",
          "name": "userOp",
          "type": "tuple"
        },
        {
          "internalType": "bytes32",
          "name": "userOpHash",
          "type": "bytes32"
        },
        {
          "internalType": "uint256",
          "name": "maxCost",
          "type": "uint256"
        }
      ],
      "name": "validatePaymasterUserOp",
      "outputs": [
        {
          "internalType": "bytes",
          "name": "context",
          "type": "bytes"
        },
        {
          "internalType": "uint256",
          "name": "deadline",
          "type": "uint256"
        }
      ],
      "stateMutability": "view",
      "type": "function"
    },
    {
      "inputs": [
        {
          "internalType": "address payable",
          "name": "withdrawAddress",
          "type": "address"
        }
      ],
      "name": "withdrawStake",
      "outputs": [],
      "stateMutability": "nonpayable",
      "type": "function"
    },
    {
      "inputs": [
        {
          "internalType": "address payable",
          "name": "withdrawAddress",
          "type": "address"
        },
        {
          "internalType": "uint256",
          "name": "amount",
          "type": "uint256"
        }
      ],
      "name": "withdrawTo",
      "outputs": [],
      "stateMutability": "nonpayable",
      "type": "function"
    },
    {
      "inputs": [
        {
          "internalType": "contract IERC20",
          "name": "token",
          "type": "address"
        },
        {
          "internalType": "address",
          "name": "target",
          "type": "address"
        },
        {
          "internalType": "uint256",
          "name": "amount",
          "type": "uint256"
        }
      ],
      "name": "withdrawTokensTo",
      "outputs": [],
      "stateMutability": "nonpayable",
      "type": "function"
    }
  ],
  "bytecode": "0x60806040523480156200001157600080fd5b506040516200415038038062004150833981810160405281019062000037919062000475565b80620000586200004c6200012960201b60201c565b6200013160201b60201c565b6200007467d9ad280a158e404360c01b620001f560201b60201c565b62000090678455c7400e3a5f4760c01b620001f560201b60201c565b620000ac6775e4cf881b68e50e60c01b620001f560201b60201c565b620000bd81620001f860201b60201c565b50620000da678cea0cc5699edcd060c01b620002bc60201b60201c565b620000f6672e3bc1de010f966b60c01b620002bc60201b60201c565b62000112678019283f7808b2f960c01b620002bc60201b60201c565b62000122620002bf60201b60201c565b506200052a565b600033905090565b60008060009054906101000a900473ffffffffffffffffffffffffffffffffffffffff169050816000806101000a81548173ffffffffffffffffffffffffffffffffffffffff021916908373ffffffffffffffffffffffffffffffffffffffff1602179055508173ffffffffffffffffffffffffffffffffffffffff168173ffffffffffffffffffffffffffffffffffffffff167f8be0079c531659141344cd1fd0a4f28419497f9722a3daafe3b4186f6b6457e060405160405180910390a35050565b50565b6200021467c1d662b86c9c3f2c60c01b620001f560201b60201c565b620002246200033d60201b60201c565b6200024067d735540c3a6ff2d460c01b620001f560201b60201c565b6200025c67850f91523560c17460c01b620001f560201b60201c565b6200027867cfcc64f9dd3bc74260c01b620001f560201b60201c565b80600160006101000a81548173ffffffffffffffffffffffffffffffffffffffff021916908373ffffffffffffffffffffffffffffffffffffffff16021790555050565b50565b620002db6782ead2e1ac08b64a60c01b620002bc60201b60201c565b620002f767b11ce5be752578fd60c01b620002bc60201b60201c565b43600460003373ffffffffffffffffffffffffffffffffffffffff1673ffffffffffffffffffffffffffffffffffffffff16815260200190815260200160002081905550565b6200034d6200012960201b60201c565b73ffffffffffffffffffffffffffffffffffffffff1662000373620003ce60201b60201c565b73ffffffffffffffffffffffffffffffffffffffff1614620003cc576040517f08c379a0000000000000000000000000000000000000000000000000000000008152600401620003c39062000508565b60405180910390fd5b565b60008060009054906101000a900473ffffffffffffffffffffffffffffffffffffffff16905090565b600080fd5b600073ffffffffffffffffffffffffffffffffffffffff82169050919050565b60006200042982620003fc565b9050919050565b60006200043d826200041c565b9050919050565b6200044f8162000430565b81146200045b57600080fd5b50565b6000815190506200046f8162000444565b92915050565b6000602082840312156200048e576200048d620003f7565b5b60006200049e848285016200045e565b91505092915050565b600082825260208201905092915050565b7f4f776e61626c653a2063616c6c6572206973206e6f7420746865206f776e6572600082015250565b6000620004f0602083620004a7565b9150620004fd82620004b8565b602082019050919050565b600060208201905081810360008301526200052381620004e1565b9050919050565b613c16806200053a6000396000f3fe6080604052600436106101405760003560e01c8063a9a23409116100b6578063c399ec881161006f578063c399ec8814610412578063cc9c837c1461043d578063cd8f80c214610466578063d0e30db01461047d578063f2fde38b14610487578063f465c77e146104b057610140565b8063a9a2340914610304578063addd50991461032d578063b0d691fe1461036a578063bb9fe6bf14610395578063c23a5cea146103ac578063c23f001f146103d557610140565b80635476bd72116101085780635476bd721461022e578063584465f214610257578063715018a614610280578063796d4371146102975780638da5cb5b146102c25780639ed0fb68146102ed57610140565b80630396cb6014610145578063205c287814610161578063382edd9e1461018a578063493b0170146101b35780634a6f84cf146101f1575b600080fd5b61015f600480360381019061015a91906127fd565b6104ee565b005b34801561016d57600080fd5b50610188600480360381019061018391906128be565b6105eb565b005b34801561019657600080fd5b506101b160048036038101906101ac919061297a565b6106ea565b005b3480156101bf57600080fd5b506101da60048036038101906101d591906129cd565b6109d8565b6040516101e8929190612a1c565b60405180910390f35b3480156101fd57600080fd5b5061021860048036038101906102139190612a45565b610adf565b6040516102259190612a72565b60405180910390f35b34801561023a57600080fd5b5061025560048036038101906102509190612acb565b610af7565b005b34801561026357600080fd5b5061027e60048036038101906102799190612b49565b610cb9565b005b34801561028c57600080fd5b50610295610d55565b005b3480156102a357600080fd5b506102ac610d69565b6040516102b99190612a72565b60405180910390f35b3480156102ce57600080fd5b506102d7610d6f565b6040516102e49190612b85565b60405180910390f35b3480156102f957600080fd5b50610302610d98565b005b34801561031057600080fd5b5061032b60048036038101906103269190612c2a565b610e06565b005b34801561033957600080fd5b50610354600480360381019061034f9190612c9e565b610e84565b6040516103619190612d2a565b60405180910390f35b34801561037657600080fd5b5061037f610eb7565b60405161038c9190612d66565b60405180910390f35b3480156103a157600080fd5b506103aa610edd565b005b3480156103b857600080fd5b506103d360048036038101906103ce9190612d81565b610fcd565b005b3480156103e157600080fd5b506103fc60048036038101906103f791906129cd565b6110c9565b6040516104099190612a72565b60405180910390f35b34801561041e57600080fd5b506104276110ee565b6040516104349190612a72565b60405180910390f35b34801561044957600080fd5b50610464600480360381019061045f919061297a565b6111cd565b005b34801561047257600080fd5b5061047b6113fd565b005b61048561146c565b005b34801561049357600080fd5b506104ae60048036038101906104a99190612a45565b611538565b005b3480156104bc57600080fd5b506104d760048036038101906104d29190612e09565b6115bc565b6040516104e5929190612f11565b60405180910390f35b610502671bfe4ab6255425db60c01b611a88565b61050a611a8b565b61051e677c2ab3e920f66fc460c01b611a88565b6105326741f0617f9794d16860c01b611a88565b61054667790e549db14df0c260c01b611a88565b61055a67ce0737df6b9e42bb60c01b611a88565b600160009054906101000a900473ffffffffffffffffffffffffffffffffffffffff1673ffffffffffffffffffffffffffffffffffffffff16630396cb6034836040518363ffffffff1660e01b81526004016105b69190612f50565b6000604051808303818588803b1580156105cf57600080fd5b505af11580156105e3573d6000803e3d6000fd5b505050505050565b6105ff67248e1217f06c3ec760c01b611a88565b610607611a8b565b61061b67bd46dac5acb652c960c01b611a88565b61062f674342d23de7a3ed5a60c01b611a88565b61064367cc9569cc5fe68f9d60c01b611a88565b61065767b6f029ee77278ef160c01b611a88565b600160009054906101000a900473ffffffffffffffffffffffffffffffffffffffff1673ffffffffffffffffffffffffffffffffffffffff1663205c287883836040518363ffffffff1660e01b81526004016106b4929190612f7a565b600060405180830381600087803b1580156106ce57600080fd5b505af11580156106e2573d6000803e3d6000fd5b505050505050565b6106fe67d5fb40efede9a8e560c01b611b09565b61071267220ce3bc64c4b40860c01b611b09565b61072667ea011a0ecac8acc260c01b611b09565b6107533330838673ffffffffffffffffffffffffffffffffffffffff16611b0c909392919063ffffffff16565b61076767bce40a4ff19695e860c01b611b09565b61077b672a5d47ce2530896a60c01b611b09565b61078f67dd7c3c1793f8ef2b60c01b611b09565b600073ffffffffffffffffffffffffffffffffffffffff16600260008573ffffffffffffffffffffffffffffffffffffffff1673ffffffffffffffffffffffffffffffffffffffff16815260200190815260200160002060009054906101000a900473ffffffffffffffffffffffffffffffffffffffff1673ffffffffffffffffffffffffffffffffffffffff16141561085e576040517f08c379a000000000000000000000000000000000000000000000000000000000815260040161085590613000565b60405180910390fd5b6108726704f503d8d61f51cd60c01b611b09565b61088667246556e09610d12a60c01b611b09565b80600360008573ffffffffffffffffffffffffffffffffffffffff1673ffffffffffffffffffffffffffffffffffffffff16815260200190815260200160002060008473ffffffffffffffffffffffffffffffffffffffff1673ffffffffffffffffffffffffffffffffffffffff1681526020019081526020016000206000828254610912919061304f565b9250508190555061092d671f78327268709acf60c01b611b09565b61094167fba903e97209036360c01b611b09565b8173ffffffffffffffffffffffffffffffffffffffff163373ffffffffffffffffffffffffffffffffffffffff1614156109be57610989674c6fb1356b4bf86060c01b611b09565b61099d67d434e32af20b3cbc60c01b611b09565b6109b167b7b3198d20c382be60c01b611b09565b6109b96113fd565b6109d3565b6109d267b8f4955d8c4f63bd60c01b611b09565b5b505050565b6000806109ef67782ded1df3fee39760c01b611b09565b610a0367be757884ce61ad0760c01b611b09565b600360008573ffffffffffffffffffffffffffffffffffffffff1673ffffffffffffffffffffffffffffffffffffffff16815260200190815260200160002060008473ffffffffffffffffffffffffffffffffffffffff1673ffffffffffffffffffffffffffffffffffffffff168152602001908152602001600020549150610a9667dd73645e5c49bd8860c01b611b09565b600460008473ffffffffffffffffffffffffffffffffffffffff1673ffffffffffffffffffffffffffffffffffffffff1681526020019081526020016000205490509250929050565b60046020528060005260406000206000915090505481565b610b0b67eb6a009c5a4a5e6a60c01b611b09565b610b13611a8b565b610b2767a6a2544dd01cb61b60c01b611b09565b610b3b67623433f73326566660c01b611b09565b610b4f674ea5e9b9a55f03f960c01b611b09565b610b6367eb359b2df6cd95cf60c01b611b09565b610b7767ef12745fcf7ea7d460c01b611b09565b600073ffffffffffffffffffffffffffffffffffffffff16600260008473ffffffffffffffffffffffffffffffffffffffff1673ffffffffffffffffffffffffffffffffffffffff16815260200190815260200160002060009054906101000a900473ffffffffffffffffffffffffffffffffffffffff1673ffffffffffffffffffffffffffffffffffffffff1614610c0f57600080fd5b610c2367edbfb7c6bb99fec260c01b611b09565b610c37676060906aa844d54c60c01b611b09565b80600260008473ffffffffffffffffffffffffffffffffffffffff1673ffffffffffffffffffffffffffffffffffffffff16815260200190815260200160002060006101000a81548173ffffffffffffffffffffffffffffffffffffffff021916908373ffffffffffffffffffffffffffffffffffffffff1602179055505050565b610ccd67c1d662b86c9c3f2c60c01b611a88565b610cd5611a8b565b610ce967d735540c3a6ff2d460c01b611a88565b610cfd67850f91523560c17460c01b611a88565b610d1167cfcc64f9dd3bc74260c01b611a88565b80600160006101000a81548173ffffffffffffffffffffffffffffffffffffffff021916908373ffffffffffffffffffffffffffffffffffffffff16021790555050565b610d5d611a8b565b610d676000611b95565b565b6188b881565b60008060009054906101000a900473ffffffffffffffffffffffffffffffffffffffff16905090565b610dac6782ead2e1ac08b64a60c01b611b09565b610dc067b11ce5be752578fd60c01b611b09565b43600460003373ffffffffffffffffffffffffffffffffffffffff1673ffffffffffffffffffffffffffffffffffffffff16815260200190815260200160002081905550565b610e1a6720fb2285cc651da660c01b611a88565b610e2e67df35162198eda5c560c01b611a88565b610e4267124d5c09ea14919f60c01b611a88565b610e4a611c59565b610e5e671367f038146a276b60c01b611a88565b610e7267117ee8376efb738560c01b611a88565b610e7e84848484611d19565b50505050565b60026020528060005260406000206000915054906101000a900473ffffffffffffffffffffffffffffffffffffffff1681565b600160009054906101000a900473ffffffffffffffffffffffffffffffffffffffff1681565b610ef167b4546b7724f6165660c01b611a88565b610ef9611a8b565b610f0d67d9795aa80b30318760c01b611a88565b610f2167bfe322990a47bc0760c01b611a88565b610f3567874d39101d99253960c01b611a88565b610f4967b423ba4701a0393460c01b611a88565b600160009054906101000a900473ffffffffffffffffffffffffffffffffffffffff1673ffffffffffffffffffffffffffffffffffffffff1663bb9fe6bf6040518163ffffffff1660e01b8152600401600060405180830381600087803b158015610fb357600080fd5b505af1158015610fc7573d6000803e3d6000fd5b50505050565b610fe167fabaeff5902c6f7c60c01b611a88565b610fe9611a8b565b610ffd672d0a0409d65c3d8e60c01b611a88565b61101167f97794d1bddfa2e060c01b611a88565b611025674312e8c459c73fef60c01b611a88565b611039673464294413aed7d760c01b611a88565b600160009054906101000a900473ffffffffffffffffffffffffffffffffffffffff1673ffffffffffffffffffffffffffffffffffffffff1663c23a5cea826040518263ffffffff1660e01b815260040161109491906130a5565b600060405180830381600087803b1580156110ae57600080fd5b505af11580156110c2573d6000803e3d6000fd5b5050505050565b6003602052816000526040600020602052806000526040600020600091509150505481565b600061110467f8256bc3292ec2f860c01b611a88565b611118674659961ee68435b060c01b611a88565b61112c6725709d707ada999460c01b611a88565b600160009054906101000a900473ffffffffffffffffffffffffffffffffffffffff1673ffffffffffffffffffffffffffffffffffffffff166370a08231306040518263ffffffff1660e01b81526004016111879190612b85565b602060405180830381865afa1580156111a4573d6000803e3d6000fd5b505050506040513d601f19601f820116820180604052508101906111c891906130d5565b905090565b6111e1671e5e1402b4dbee3960c01b611b09565b6111f5678c4eaa98218fc01e60c01b611b09565b61120967102dc4e60376d97560c01b611b09565b61121d6784cfe0647169951a60c01b611b09565b6000600460003373ffffffffffffffffffffffffffffffffffffffff1673ffffffffffffffffffffffffffffffffffffffff16815260200190815260200160002054141580156112ab5750600460003373ffffffffffffffffffffffffffffffffffffffff1673ffffffffffffffffffffffffffffffffffffffff1681526020019081526020016000205443115b6112ea576040517f08c379a00000000000000000000000000000000000000000000000000000000081526004016112e190613174565b60405180910390fd5b6112fe67656673ca81c2353560c01b611b09565b6113126743f6503934c9580260c01b611b09565b80600360008573ffffffffffffffffffffffffffffffffffffffff1673ffffffffffffffffffffffffffffffffffffffff16815260200190815260200160002060003373ffffffffffffffffffffffffffffffffffffffff1673ffffffffffffffffffffffffffffffffffffffff168152602001908152602001600020600082825461139e9190613194565b925050819055506113b967a90adf0acc9022d160c01b611b09565b6113cd67a94d8fe66f91664f60c01b611b09565b6113f882828573ffffffffffffffffffffffffffffffffffffffff166120089092919063ffffffff16565b505050565b61141167c8c1bcd3399a6df260c01b611b09565b61142567980c0bdebae6276460c01b611b09565b6000600460003373ffffffffffffffffffffffffffffffffffffffff1673ffffffffffffffffffffffffffffffffffffffff16815260200190815260200160002081905550565b61148067fa008f0a2a61337260c01b611a88565b611494670e56d1bb5ea9d80c60c01b611a88565b6114a8674e2d9df39913ac2060c01b611a88565b600160009054906101000a900473ffffffffffffffffffffffffffffffffffffffff1673ffffffffffffffffffffffffffffffffffffffff1663b760faf934306040518363ffffffff1660e01b81526004016115049190612b85565b6000604051808303818588803b15801561151d57600080fd5b505af1158015611531573d6000803e3d6000fd5b5050505050565b611540611a8b565b600073ffffffffffffffffffffffffffffffffffffffff168173ffffffffffffffffffffffffffffffffffffffff1614156115b0576040517f08c379a00000000000000000000000000000000000000000000000000000000081526004016115a79061323a565b60405180910390fd5b6115b981611b95565b50565b606060006115d467f95f9a7a2fb4dd4e60c01b611b09565b6115e867dd7b6a24299f6d1f60c01b611b09565b6115fc6785146eeaa2f4904b60c01b611b09565b61161067d7ee05eee19497b760c01b611b09565b61162467b646ec4490b6c52260c01b611b09565b6188b88560a001351161166c576040517f08c379a0000000000000000000000000000000000000000000000000000000008152600401611663906132cc565b60405180910390fd5b611680679b479ca33b71f95960c01b611b09565b61169467b82bf5fe82e82cb560c01b611b09565b6116a8674065b7bedf05ce9460c01b611b09565b366000868061012001906116bc91906132fb565b915091506116d46733ad3027bcef0a6e60c01b611b09565b6116e867d2e2008ae791b44160c01b611b09565b6116fc67d144511e8329ea9460c01b611b09565b60288282905014611742576040517f08c379a0000000000000000000000000000000000000000000000000000000008152600401611739906133d0565b60405180910390fd5b611756672d706bab84d7711260c01b611b09565b61176a67a73a2adbe63fe6fb60c01b611b09565b61177e67f33f9c389530fbe360c01b611b09565b600082826014908092611793939291906133fa565b9061179e9190613479565b60601c90506117b76794d7ecf93d69553d60c01b611b09565b6117cb67243377d4b79a52ab60c01b611b09565b60006117d68961208e565b90506117ec6716b4bf3e5df597fc60c01b611b09565b61180067337039c8779159e060c01b611b09565b600061180c8389612117565b905061182267b822ca4eaf2c30d660c01b611b09565b61183667c49ec6ee7144e02060c01b611b09565b60006118418b612324565b905061185767186d55a2e2a34af460c01b611b09565b61186b673cb93ceb51bc8a9760c01b611b09565b61187f67a35a5640cc099b2e60c01b611b09565b6000600460008573ffffffffffffffffffffffffffffffffffffffff1673ffffffffffffffffffffffffffffffffffffffff1681526020019081526020016000205414611901576040517f08c379a00000000000000000000000000000000000000000000000000000000081526004016118f89061354a565b60405180910390fd5b61191567ebbd8e750fe54ca960c01b611b09565b611929670c2803c7cec4c5f060c01b611b09565b61193d671dda2d785c80e66160c01b611b09565b611951676ab967715156c6e060c01b611b09565b81600360008673ffffffffffffffffffffffffffffffffffffffff1673ffffffffffffffffffffffffffffffffffffffff16815260200190815260200160002060008573ffffffffffffffffffffffffffffffffffffffff1673ffffffffffffffffffffffffffffffffffffffff168152602001908152602001600020541015611a10576040517f08c379a0000000000000000000000000000000000000000000000000000000008152600401611a07906135dc565b60405180910390fd5b611a2467c0fff5bd14cd64fc60c01b611b09565b611a3867430dabbd5a960b8060c01b611b09565b611a4c67588435d749dc003060c01b611b09565b828482848c604051602001611a6595949392919061361d565b604051602081830303815290604052600097509750505050505050935093915050565b50565b611a93612479565b73ffffffffffffffffffffffffffffffffffffffff16611ab1610d6f565b73ffffffffffffffffffffffffffffffffffffffff1614611b07576040517f08c379a0000000000000000000000000000000000000000000000000000000008152600401611afe906136bc565b60405180910390fd5b565b50565b611b8f846323b872dd60e01b858585604051602401611b2d939291906136dc565b604051602081830303815290604052907bffffffffffffffffffffffffffffffffffffffffffffffffffffffff19166020820180517bffffffffffffffffffffffffffffffffffffffffffffffffffffffff8381831617835250505050612481565b50505050565b60008060009054906101000a900473ffffffffffffffffffffffffffffffffffffffff169050816000806101000a81548173ffffffffffffffffffffffffffffffffffffffff021916908373ffffffffffffffffffffffffffffffffffffffff1602179055508173ffffffffffffffffffffffffffffffffffffffff168173ffffffffffffffffffffffffffffffffffffffff167f8be0079c531659141344cd1fd0a4f28419497f9722a3daafe3b4186f6b6457e060405160405180910390a35050565b611c6d679bc326c49484188460c01b611a88565b611c816724b5ec39eafd38f560c01b611a88565b611c95673113ee9c61faced260c01b611a88565b611ca9678b7ae48ea5ddd2cb60c01b611a88565b600160009054906101000a900473ffffffffffffffffffffffffffffffffffffffff1673ffffffffffffffffffffffffffffffffffffffff163373ffffffffffffffffffffffffffffffffffffffff1614611d0357600080fd5b611d1767e77cb1e4072ac22860c01b611a88565b565b611d2d67cd9d7a2be55df0b560c01b611b09565b611d416778a44087a8a7847160c01b611b09565b611d5567a435588b64c7ec3760c01b611b09565b60008060008060008787810190611d6c9190613713565b94509450945094509450611d8a678e18f985c263dc1560c01b611b09565b611d9e67f788acd5baccccbc60c01b611b09565b60008183856188b8611db0919061378e565b89611dbb919061304f565b611dc5919061378e565b611dcf9190613817565b9050611de5674205012802e0137860c01b611b09565b611df9678f27ed7803bf8d0f60c01b611b09565b600280811115611e0c57611e0b613848565b5b8a6002811115611e1f57611e1e613848565b5b14611e9257611e3867152fb8fe481e9cd560c01b611b09565b611e4c678a16656fc8fe6b7b60c01b611b09565b611e606792ede0f045b5170c60c01b611b09565b611e8d8630838873ffffffffffffffffffffffffffffffffffffffff16611b0c909392919063ffffffff16565b611f4e565b611ea667ee2dafa2c33226fc60c01b611b09565b611eba67be33083866eb223560c01b611b09565b80600360008773ffffffffffffffffffffffffffffffffffffffff1673ffffffffffffffffffffffffffffffffffffffff16815260200190815260200160002060008873ffffffffffffffffffffffffffffffffffffffff1673ffffffffffffffffffffffffffffffffffffffff1681526020019081526020016000206000828254611f469190613194565b925050819055505b611f6267c7485831c6bb41b260c01b611b09565b80600360008773ffffffffffffffffffffffffffffffffffffffff1673ffffffffffffffffffffffffffffffffffffffff1681526020019081526020016000206000611fac610d6f565b73ffffffffffffffffffffffffffffffffffffffff1673ffffffffffffffffffffffffffffffffffffffff1681526020019081526020016000206000828254611ff5919061304f565b9250508190555050505050505050505050565b6120898363a9059cbb60e01b8484604051602401612027929190613877565b604051602081830303815290604052907bffffffffffffffffffffffffffffffffffffffffffffffffffffffff19166020820180517bffffffffffffffffffffffffffffffffffffffffffffffffffffffff8381831617835250505050612481565b505050565b60006120a467dbf9b12ee714ceca60c01b612548565b6120b86744f6f9dab51ee7b360c01b612548565b6120cc67d23af00690725a7460c01b612548565b60006120e2675d16aa0ffc9fd9eb60c01b612548565b823590506120fa677d00aa2e04448d3160c01b612548565b61210e67acf533125296169960c01b612548565b80915050919050565b600061212d674baec79917e743e360c01b611b09565b61214167ba24bd4dda6ad55b60c01b611b09565b612155675c1d976e225de53360c01b611b09565b6000600260008573ffffffffffffffffffffffffffffffffffffffff1673ffffffffffffffffffffffffffffffffffffffff16815260200190815260200160002060009054906101000a900473ffffffffffffffffffffffffffffffffffffffff1690506121cd67f39043f53d51b8e960c01b611b09565b6121e167e086dccaf0a747a660c01b611b09565b6121f567f97b0a621d477d9760c01b611b09565b600073ffffffffffffffffffffffffffffffffffffffff168173ffffffffffffffffffffffffffffffffffffffff161415612265576040517f08c379a000000000000000000000000000000000000000000000000000000000815260040161225c90613912565b60405180910390fd5b6122796758367bc4e643202a60c01b611b09565b61228d672cc985258166ed9360c01b611b09565b6122a16779929a7042fe507760c01b611b09565b8073ffffffffffffffffffffffffffffffffffffffff1663d1eca9cf846040518263ffffffff1660e01b81526004016122da9190612a72565b602060405180830381865afa1580156122f7573d6000803e3d6000fd5b505050506040513d601f19601f8201168201806040525081019061231b91906130d5565b91505092915050565b600061233a67536da5316bc374f460c01b612548565b61234e67ef5784cbda259c9160c01b612548565b61236267b289c9371d0b55e160c01b612548565b612376675d31d4203cbbce8160c01b612548565b60008260e00135905061239367dfa1ef7bfd3568a460c01b612548565b6123a767ef2c0471e6913c1260c01b612548565b600083610100013590506123c56765c6d7bbcd8f4edd60c01b612548565b6123d9676639141b5fdd14de60c01b612548565b80821415612427576123f567d7ce2d5ada54360e60c01b612548565b6124096733bc1e378391280960c01b612548565b61241d676b0a8bc1ffdf498760c01b612548565b8192505050612474565b61243b67a028e40b2f181cd560c01b612548565b61244f677504dbf18dfd97f960c01b612548565b612463678dd2c4bb248ee48760c01b612548565b61246f8248830161254b565b925050505b919050565b600033905090565b60006124e3826040518060400160405280602081526020017f5361666545524332303a206c6f772d6c6576656c2063616c6c206661696c65648152508573ffffffffffffffffffffffffffffffffffffffff166125d79092919063ffffffff16565b90506000815111156125435780806020019051810190612503919061396a565b612542576040517f08c379a000000000000000000000000000000000000000000000000000000000815260040161253990613a09565b60405180910390fd5b5b505050565b50565b600061256167e9714077b06b2a0960c01b612548565b612575670302f454ca0ffe3760c01b612548565b61258967239453c72245febf60c01b612548565b81831080156125a857506125a7676e40180dc84c978960c01b6125ef565b5b806125c357506125c267399a5a7539a048ac60c01b6125fa565b5b6125cd57816125cf565b825b905092915050565b60606125e68484600085612601565b90509392505050565b600060019050919050565b6000919050565b606082471015612646576040517f08c379a000000000000000000000000000000000000000000000000000000000815260040161263d90613a9b565b60405180910390fd5b6000808673ffffffffffffffffffffffffffffffffffffffff16858760405161266f9190613af7565b60006040518083038185875af1925050503d80600081146126ac576040519150601f19603f3d011682016040523d82523d6000602084013e6126b1565b606091505b50915091506126c2878383876126ce565b92505050949350505050565b6060831561273157600083511415612729576126e985612744565b612728576040517f08c379a000000000000000000000000000000000000000000000000000000000815260040161271f90613b5a565b60405180910390fd5b5b82905061273c565b61273b8383612767565b5b949350505050565b6000808273ffffffffffffffffffffffffffffffffffffffff163b119050919050565b60008251111561277a5781518083602001fd5b806040517f08c379a00000000000000000000000000000000000000000000000000000000081526004016127ae9190613bbe565b60405180910390fd5b600080fd5b600080fd5b600063ffffffff82169050919050565b6127da816127c1565b81146127e557600080fd5b50565b6000813590506127f7816127d1565b92915050565b600060208284031215612813576128126127b7565b5b6000612821848285016127e8565b91505092915050565b600073ffffffffffffffffffffffffffffffffffffffff82169050919050565b60006128558261282a565b9050919050565b6128658161284a565b811461287057600080fd5b50565b6000813590506128828161285c565b92915050565b6000819050919050565b61289b81612888565b81146128a657600080fd5b50565b6000813590506128b881612892565b92915050565b600080604083850312156128d5576128d46127b7565b5b60006128e385828601612873565b92505060206128f4858286016128a9565b9150509250929050565b60006129098261282a565b9050919050565b600061291b826128fe565b9050919050565b61292b81612910565b811461293657600080fd5b50565b60008135905061294881612922565b92915050565b612957816128fe565b811461296257600080fd5b50565b6000813590506129748161294e565b92915050565b600080600060608486031215612993576129926127b7565b5b60006129a186828701612939565b93505060206129b286828701612965565b92505060406129c3868287016128a9565b9150509250925092565b600080604083850312156129e4576129e36127b7565b5b60006129f285828601612939565b9250506020612a0385828601612965565b9150509250929050565b612a1681612888565b82525050565b6000604082019050612a316000830185612a0d565b612a3e6020830184612a0d565b9392505050565b600060208284031215612a5b57612a5a6127b7565b5b6000612a6984828501612965565b91505092915050565b6000602082019050612a876000830184612a0d565b92915050565b6000612a98826128fe565b9050919050565b612aa881612a8d565b8114612ab357600080fd5b50565b600081359050612ac581612a9f565b92915050565b60008060408385031215612ae257612ae16127b7565b5b6000612af085828601612939565b9250506020612b0185828601612ab6565b9150509250929050565b6000612b16826128fe565b9050919050565b612b2681612b0b565b8114612b3157600080fd5b50565b600081359050612b4381612b1d565b92915050565b600060208284031215612b5f57612b5e6127b7565b5b6000612b6d84828501612b34565b91505092915050565b612b7f816128fe565b82525050565b6000602082019050612b9a6000830184612b76565b92915050565b60038110612bad57600080fd5b50565b600081359050612bbf81612ba0565b92915050565b600080fd5b600080fd5b600080fd5b60008083601f840112612bea57612be9612bc5565b5b8235905067ffffffffffffffff811115612c0757612c06612bca565b5b602083019150836001820283011115612c2357612c22612bcf565b5b9250929050565b60008060008060608587031215612c4457612c436127b7565b5b6000612c5287828801612bb0565b945050602085013567ffffffffffffffff811115612c7357612c726127bc565b5b612c7f87828801612bd4565b93509350506040612c92878288016128a9565b91505092959194509250565b600060208284031215612cb457612cb36127b7565b5b6000612cc284828501612939565b91505092915050565b6000819050919050565b6000612cf0612ceb612ce68461282a565b612ccb565b61282a565b9050919050565b6000612d0282612cd5565b9050919050565b6000612d1482612cf7565b9050919050565b612d2481612d09565b82525050565b6000602082019050612d3f6000830184612d1b565b92915050565b6000612d5082612cf7565b9050919050565b612d6081612d45565b82525050565b6000602082019050612d7b6000830184612d57565b92915050565b600060208284031215612d9757612d966127b7565b5b6000612da584828501612873565b91505092915050565b600080fd5b60006101608284031215612dca57612dc9612dae565b5b81905092915050565b6000819050919050565b612de681612dd3565b8114612df157600080fd5b50565b600081359050612e0381612ddd565b92915050565b600080600060608486031215612e2257612e216127b7565b5b600084013567ffffffffffffffff811115612e4057612e3f6127bc565b5b612e4c86828701612db3565b9350506020612e5d86828701612df4565b9250506040612e6e868287016128a9565b9150509250925092565b600081519050919050565b600082825260208201905092915050565b60005b83811015612eb2578082015181840152602081019050612e97565b83811115612ec1576000848401525b50505050565b6000601f19601f8301169050919050565b6000612ee382612e78565b612eed8185612e83565b9350612efd818560208601612e94565b612f0681612ec7565b840191505092915050565b60006040820190508181036000830152612f2b8185612ed8565b9050612f3a6020830184612a0d565b9392505050565b612f4a816127c1565b82525050565b6000602082019050612f656000830184612f41565b92915050565b612f748161284a565b82525050565b6000604082019050612f8f6000830185612f6b565b612f9c6020830184612a0d565b9392505050565b600082825260208201905092915050565b7f756e737570706f7274656420746f6b656e000000000000000000000000000000600082015250565b6000612fea601183612fa3565b9150612ff582612fb4565b602082019050919050565b6000602082019050818103600083015261301981612fdd565b9050919050565b7f4e487b7100000000000000000000000000000000000000000000000000000000600052601160045260246000fd5b600061305a82612888565b915061306583612888565b9250827fffffffffffffffffffffffffffffffffffffffffffffffffffffffffffffffff0382111561309a57613099613020565b5b828201905092915050565b60006020820190506130ba6000830184612f6b565b92915050565b6000815190506130cf81612892565b92915050565b6000602082840312156130eb576130ea6127b7565b5b60006130f9848285016130c0565b91505092915050565b7f4465706f7369745061796d61737465723a206d75737420756e6c6f636b546f6b60008201527f656e4465706f7369740000000000000000000000000000000000000000000000602082015250565b600061315e602983612fa3565b915061316982613102565b604082019050919050565b6000602082019050818103600083015261318d81613151565b9050919050565b600061319f82612888565b91506131aa83612888565b9250828210156131bd576131bc613020565b5b828203905092915050565b7f4f776e61626c653a206e6577206f776e657220697320746865207a65726f206160008201527f6464726573730000000000000000000000000000000000000000000000000000602082015250565b6000613224602683612fa3565b915061322f826131c8565b604082019050919050565b6000602082019050818103600083015261325381613217565b9050919050565b7f4465706f7369745061796d61737465723a2067617320746f6f206c6f7720666f60008201527f7220706f73744f70000000000000000000000000000000000000000000000000602082015250565b60006132b6602883612fa3565b91506132c18261325a565b604082019050919050565b600060208201905081810360008301526132e5816132a9565b9050919050565b600080fd5b600080fd5b600080fd5b60008083356001602003843603038112613318576133176132ec565b5b80840192508235915067ffffffffffffffff82111561333a576133396132f1565b5b602083019250600182023603831315613356576133556132f6565b5b509250929050565b7f4465706f7369745061796d61737465723a207061796d6173746572416e64446160008201527f7461206d757374207370656369667920746f6b656e0000000000000000000000602082015250565b60006133ba603583612fa3565b91506133c58261335e565b604082019050919050565b600060208201905081810360008301526133e9816133ad565b9050919050565b600080fd5b600080fd5b6000808585111561340e5761340d6133f0565b5b8386111561341f5761341e6133f5565b5b6001850283019150848603905094509492505050565b600082905092915050565b60007fffffffffffffffffffffffffffffffffffffffff00000000000000000000000082169050919050565b600082821b905092915050565b60006134858383613435565b826134908135613440565b925060148210156134d0576134cb7fffffffffffffffffffffffffffffffffffffffff0000000000000000000000008360140360080261346c565b831692505b505092915050565b7f4465706f7369745061796d61737465723a206465706f736974206e6f74206c6f60008201527f636b656400000000000000000000000000000000000000000000000000000000602082015250565b6000613534602483612fa3565b915061353f826134d8565b604082019050919050565b6000602082019050818103600083015261356381613527565b9050919050565b7f4465706f7369745061796d61737465723a206465706f73697420746f6f206c6f60008201527f7700000000000000000000000000000000000000000000000000000000000000602082015250565b60006135c6602183612fa3565b91506135d18261356a565b604082019050919050565b600060208201905081810360008301526135f5816135b9565b9050919050565b600061360782612cf7565b9050919050565b613617816135fc565b82525050565b600060a0820190506136326000830188612b76565b61363f602083018761360e565b61364c6040830186612a0d565b6136596060830185612a0d565b6136666080830184612a0d565b9695505050505050565b7f4f776e61626c653a2063616c6c6572206973206e6f7420746865206f776e6572600082015250565b60006136a6602083612fa3565b91506136b182613670565b602082019050919050565b600060208201905081810360008301526136d581613699565b9050919050565b60006060820190506136f16000830186612b76565b6136fe6020830185612b76565b61370b6040830184612a0d565b949350505050565b600080600080600060a0868803121561372f5761372e6127b7565b5b600061373d88828901612873565b955050602061374e88828901612939565b945050604061375f888289016128a9565b9350506060613770888289016128a9565b9250506080613781888289016128a9565b9150509295509295909350565b600061379982612888565b91506137a483612888565b9250817fffffffffffffffffffffffffffffffffffffffffffffffffffffffffffffffff04831182151516156137dd576137dc613020565b5b828202905092915050565b7f4e487b7100000000000000000000000000000000000000000000000000000000600052601260045260246000fd5b600061382282612888565b915061382d83612888565b92508261383d5761383c6137e8565b5b828204905092915050565b7f4e487b7100000000000000000000000000000000000000000000000000000000600052602160045260246000fd5b600060408201905061388c6000830185612b76565b6138996020830184612a0d565b9392505050565b7f4465706f7369745061796d61737465723a20756e737570706f7274656420746f60008201527f6b656e0000000000000000000000000000000000000000000000000000000000602082015250565b60006138fc602383612fa3565b9150613907826138a0565b604082019050919050565b6000602082019050818103600083015261392b816138ef565b9050919050565b60008115159050919050565b61394781613932565b811461395257600080fd5b50565b6000815190506139648161393e565b92915050565b6000602082840312156139805761397f6127b7565b5b600061398e84828501613955565b91505092915050565b7f5361666545524332303a204552433230206f7065726174696f6e20646964206e60008201527f6f74207375636365656400000000000000000000000000000000000000000000602082015250565b60006139f3602a83612fa3565b91506139fe82613997565b604082019050919050565b60006020820190508181036000830152613a22816139e6565b9050919050565b7f416464726573733a20696e73756666696369656e742062616c616e636520666f60008201527f722063616c6c0000000000000000000000000000000000000000000000000000602082015250565b6000613a85602683612fa3565b9150613a9082613a29565b604082019050919050565b60006020820190508181036000830152613ab481613a78565b9050919050565b600081905092915050565b6000613ad182612e78565b613adb8185613abb565b9350613aeb818560208601612e94565b80840191505092915050565b6000613b038284613ac6565b915081905092915050565b7f416464726573733a2063616c6c20746f206e6f6e2d636f6e7472616374000000600082015250565b6000613b44601d83612fa3565b9150613b4f82613b0e565b602082019050919050565b60006020820190508181036000830152613b7381613b37565b9050919050565b600081519050919050565b6000613b9082613b7a565b613b9a8185612fa3565b9350613baa818560208601612e94565b613bb381612ec7565b840191505092915050565b60006020820190508181036000830152613bd88184613b85565b90509291505056fea264697066735822122047f1abf28de684157cc5b65e66d8bf0019f567fde79c499bb7d58013d7848a2264736f6c634300080c0033",
  "linkReferences": {},
  "deployedLinkReferences": {}
}