{
  "address": "0xb56eC212C60C47fb7385f13b7247886FFa5E9D5C",
  "abi": [
    {
      "inputs": [
        {
          "internalType": "contract IEntryPoint",
          "name": "_entryPoint",
          "type": "address"
        }
      ],
      "stateMutability": "nonpayable",
      "type": "constructor"
    },
    {
      "anonymous": false,
      "inputs": [
        {
          "indexed": true,
          "internalType": "address",
          "name": "paymaster",
          "type": "address"
        },
        {
          "indexed": true,
          "internalType": "address[]",
          "name": "accounts",
          "type": "address[]"
        }
      ],
      "name": "AddedBatchToWhitelist",
      "type": "event"
    },
    {
      "anonymous": false,
      "inputs": [
        {
          "indexed": true,
          "internalType": "address",
          "name": "paymaster",
          "type": "address"
        },
        {
          "indexed": true,
          "internalType": "address",
          "name": "account",
          "type": "address"
        }
      ],
      "name": "AddedToWhitelist",
      "type": "event"
    },
    {
      "anonymous": false,
      "inputs": [
        {
          "indexed": true,
          "internalType": "address",
          "name": "previousOwner",
          "type": "address"
        },
        {
          "indexed": true,
          "internalType": "address",
          "name": "newOwner",
          "type": "address"
        }
      ],
      "name": "OwnershipTransferred",
      "type": "event"
    },
    {
      "anonymous": false,
      "inputs": [
        {
          "indexed": true,
          "internalType": "address",
          "name": "paymaster",
          "type": "address"
        },
        {
          "indexed": true,
          "internalType": "address[]",
          "name": "accounts",
          "type": "address[]"
        }
      ],
      "name": "RemovedBatchFromWhitelist",
      "type": "event"
    },
    {
      "anonymous": false,
      "inputs": [
        {
          "indexed": true,
          "internalType": "address",
          "name": "paymaster",
          "type": "address"
        },
        {
          "indexed": true,
          "internalType": "address",
          "name": "account",
          "type": "address"
        }
      ],
      "name": "RemovedFromWhitelist",
      "type": "event"
    },
    {
      "anonymous": false,
      "inputs": [
        {
          "indexed": false,
          "internalType": "address",
          "name": "paymaster",
          "type": "address"
        },
        {
          "indexed": false,
          "internalType": "address",
          "name": "sender",
          "type": "address"
        }
      ],
      "name": "SponsorSuccessful",
      "type": "event"
    },
    {
      "anonymous": false,
      "inputs": [
        {
          "indexed": false,
          "internalType": "address",
          "name": "paymaster",
          "type": "address"
        },
        {
          "indexed": false,
          "internalType": "address",
          "name": "sender",
          "type": "address"
        }
      ],
      "name": "SponsorUnsuccessful",
      "type": "event"
    },
    {
      "anonymous": false,
      "inputs": [
        {
          "indexed": false,
          "internalType": "address",
          "name": "owner",
          "type": "address"
        }
      ],
      "name": "WhitelistInitialized",
      "type": "event"
    },
    {
      "inputs": [
        {
          "internalType": "address",
          "name": "_account",
          "type": "address"
        }
      ],
      "name": "add",
      "outputs": [],
      "stateMutability": "nonpayable",
      "type": "function"
    },
    {
      "inputs": [
        {
          "internalType": "address[]",
          "name": "_accounts",
          "type": "address[]"
        }
      ],
      "name": "addBatch",
      "outputs": [],
      "stateMutability": "nonpayable",
      "type": "function"
    },
    {
      "inputs": [
        {
          "internalType": "uint32",
          "name": "unstakeDelaySec",
          "type": "uint32"
        }
      ],
      "name": "addStake",
      "outputs": [],
      "stateMutability": "payable",
      "type": "function"
    },
    {
      "inputs": [
        {
          "internalType": "address",
          "name": "_sponsor",
          "type": "address"
        },
        {
          "internalType": "address",
          "name": "_account",
          "type": "address"
        }
      ],
      "name": "check",
      "outputs": [
        {
          "internalType": "bool",
          "name": "",
          "type": "bool"
        }
      ],
      "stateMutability": "view",
      "type": "function"
    },
    {
      "inputs": [
        {
          "internalType": "address",
          "name": "_sponsor",
          "type": "address"
        }
      ],
      "name": "checkSponsorFunds",
      "outputs": [
        {
          "internalType": "uint256",
          "name": "",
          "type": "uint256"
        }
      ],
      "stateMutability": "view",
      "type": "function"
    },
    {
      "inputs": [],
      "name": "deposit",
      "outputs": [],
      "stateMutability": "payable",
      "type": "function"
    },
    {
      "inputs": [],
      "name": "depositFunds",
      "outputs": [],
      "stateMutability": "payable",
      "type": "function"
    },
    {
      "inputs": [],
      "name": "entryPoint",
      "outputs": [
        {
          "internalType": "contract IEntryPoint",
          "name": "",
          "type": "address"
        }
      ],
      "stateMutability": "view",
      "type": "function"
    },
    {
      "inputs": [],
      "name": "getDeposit",
      "outputs": [
        {
          "internalType": "uint256",
          "name": "",
          "type": "uint256"
        }
      ],
      "stateMutability": "view",
      "type": "function"
    },
    {
      "inputs": [
        {
          "components": [
            {
              "internalType": "address",
              "name": "sender",
              "type": "address"
            },
            {
              "internalType": "uint256",
              "name": "nonce",
              "type": "uint256"
            },
            {
              "internalType": "bytes",
              "name": "initCode",
              "type": "bytes"
            },
            {
              "internalType": "bytes",
              "name": "callData",
              "type": "bytes"
            },
            {
              "internalType": "uint256",
              "name": "callGasLimit",
              "type": "uint256"
            },
            {
              "internalType": "uint256",
              "name": "verificationGasLimit",
              "type": "uint256"
            },
            {
              "internalType": "uint256",
              "name": "preVerificationGas",
              "type": "uint256"
            },
            {
              "internalType": "uint256",
              "name": "maxFeePerGas",
              "type": "uint256"
            },
            {
              "internalType": "uint256",
              "name": "maxPriorityFeePerGas",
              "type": "uint256"
            },
            {
              "internalType": "bytes",
              "name": "paymasterAndData",
              "type": "bytes"
            },
            {
              "internalType": "bytes",
              "name": "signature",
              "type": "bytes"
            }
          ],
          "internalType": "struct UserOperation",
          "name": "userOp",
          "type": "tuple"
        },
        {
          "internalType": "uint48",
          "name": "validUntil",
          "type": "uint48"
        },
        {
          "internalType": "uint48",
          "name": "validAfter",
          "type": "uint48"
        }
      ],
      "name": "getHash",
      "outputs": [
        {
          "internalType": "bytes32",
          "name": "",
          "type": "bytes32"
        }
      ],
      "stateMutability": "view",
      "type": "function"
    },
    {
      "inputs": [],
      "name": "owner",
      "outputs": [
        {
          "internalType": "address",
          "name": "",
          "type": "address"
        }
      ],
      "stateMutability": "view",
      "type": "function"
    },
    {
      "inputs": [
        {
          "internalType": "bytes",
          "name": "paymasterAndData",
          "type": "bytes"
        }
      ],
      "name": "parsePaymasterAndData",
      "outputs": [
        {
          "internalType": "uint48",
          "name": "validUntil",
          "type": "uint48"
        },
        {
          "internalType": "uint48",
          "name": "validAfter",
          "type": "uint48"
        },
        {
          "internalType": "bytes",
          "name": "signature",
          "type": "bytes"
        }
      ],
      "stateMutability": "pure",
      "type": "function"
    },
    {
      "inputs": [
        {
          "internalType": "enum IPaymaster.PostOpMode",
          "name": "mode",
          "type": "uint8"
        },
        {
          "internalType": "bytes",
          "name": "context",
          "type": "bytes"
        },
        {
          "internalType": "uint256",
          "name": "actualGasCost",
          "type": "uint256"
        }
      ],
      "name": "postOp",
      "outputs": [],
      "stateMutability": "nonpayable",
      "type": "function"
    },
    {
      "inputs": [
        {
          "internalType": "address",
          "name": "_account",
          "type": "address"
        }
      ],
      "name": "remove",
      "outputs": [],
      "stateMutability": "nonpayable",
      "type": "function"
    },
    {
      "inputs": [
        {
          "internalType": "address[]",
          "name": "_accounts",
          "type": "address[]"
        }
      ],
      "name": "removeBatch",
      "outputs": [],
      "stateMutability": "nonpayable",
      "type": "function"
    },
    {
      "inputs": [],
      "name": "renounceOwnership",
      "outputs": [],
      "stateMutability": "nonpayable",
      "type": "function"
    },
    {
      "inputs": [
        {
          "internalType": "address",
          "name": "",
          "type": "address"
        }
      ],
      "name": "sponsorFunds",
      "outputs": [
        {
          "internalType": "uint256",
          "name": "",
          "type": "uint256"
        }
      ],
      "stateMutability": "view",
      "type": "function"
    },
    {
      "inputs": [
        {
          "internalType": "address",
          "name": "newOwner",
          "type": "address"
        }
      ],
      "name": "transferOwnership",
      "outputs": [],
      "stateMutability": "nonpayable",
      "type": "function"
    },
    {
      "inputs": [],
      "name": "unlockStake",
      "outputs": [],
      "stateMutability": "nonpayable",
      "type": "function"
    },
    {
      "inputs": [
        {
          "components": [
            {
              "internalType": "address",
              "name": "sender",
              "type": "address"
            },
            {
              "internalType": "uint256",
              "name": "nonce",
              "type": "uint256"
            },
            {
              "internalType": "bytes",
              "name": "initCode",
              "type": "bytes"
            },
            {
              "internalType": "bytes",
              "name": "callData",
              "type": "bytes"
            },
            {
              "internalType": "uint256",
              "name": "callGasLimit",
              "type": "uint256"
            },
            {
              "internalType": "uint256",
              "name": "verificationGasLimit",
              "type": "uint256"
            },
            {
              "internalType": "uint256",
              "name": "preVerificationGas",
              "type": "uint256"
            },
            {
              "internalType": "uint256",
              "name": "maxFeePerGas",
              "type": "uint256"
            },
            {
              "internalType": "uint256",
              "name": "maxPriorityFeePerGas",
              "type": "uint256"
            },
            {
              "internalType": "bytes",
              "name": "paymasterAndData",
              "type": "bytes"
            },
            {
              "internalType": "bytes",
              "name": "signature",
              "type": "bytes"
            }
          ],
          "internalType": "struct UserOperation",
          "name": "userOp",
          "type": "tuple"
        },
        {
          "internalType": "bytes32",
          "name": "userOpHash",
          "type": "bytes32"
        },
        {
          "internalType": "uint256",
          "name": "maxCost",
          "type": "uint256"
        }
      ],
      "name": "validatePaymasterUserOp",
      "outputs": [
        {
          "internalType": "bytes",
          "name": "context",
          "type": "bytes"
        },
        {
          "internalType": "uint256",
          "name": "validationData",
          "type": "uint256"
        }
      ],
      "stateMutability": "nonpayable",
      "type": "function"
    },
    {
      "inputs": [
        {
          "internalType": "address",
          "name": "",
          "type": "address"
        },
        {
          "internalType": "address",
          "name": "",
          "type": "address"
        }
      ],
      "name": "whitelist",
      "outputs": [
        {
          "internalType": "bool",
          "name": "",
          "type": "bool"
        }
      ],
      "stateMutability": "view",
      "type": "function"
    },
    {
      "inputs": [
        {
          "internalType": "address payable",
          "name": "_sponsor",
          "type": "address"
        },
        {
          "internalType": "uint256",
          "name": "_amount",
          "type": "uint256"
        }
      ],
      "name": "withdrawFunds",
      "outputs": [],
      "stateMutability": "nonpayable",
      "type": "function"
    },
    {
      "inputs": [
        {
          "internalType": "address payable",
          "name": "withdrawAddress",
          "type": "address"
        }
      ],
      "name": "withdrawStake",
      "outputs": [],
      "stateMutability": "nonpayable",
      "type": "function"
    }
  ],
  "transactionHash": "0x337881168a873ef84d48c84ef51da1dfb7a9da91ecbcaf6934548691088f7eb3",
  "args": [
    "0x5FF137D4b0FDCD49DcA30c7CF57E578a026d2789"
  ],
  "numDeployments": 1,
  "solcInputHash": "d17c264486fa30621b057527a1602784",
  "bytecode": "0x60a06040523480156200001157600080fd5b5060405162001e0838038062001e088339810160408190526200003491620000a8565b80620000403362000058565b6001600160a01b0316608052506001600255620000da565b600080546001600160a01b038381166001600160a01b0319831681178455604051919092169283917f8be0079c531659141344cd1fd0a4f28419497f9722a3daafe3b4186f6b6457e09190a35050565b600060208284031215620000bb57600080fd5b81516001600160a01b0381168114620000d357600080fd5b9392505050565b608051611cda6200012e6000396000818161032e0152818161049001528181610701015281816108a201528181610933015281816109aa01528181610a3701528181610aa10152610fab0152611cda6000f3fe6080604052600436106101405760003560e01c8063b092145e116100b6578063c399ec881161006f578063c399ec88146103c5578063d0e30db0146103da578063d672bd84146103e2578063e2c41dbc14610418578063f2fde38b14610420578063f465c77e1461044057600080fd5b8063b092145e146102d1578063b0d691fe1461031c578063b3154db014610350578063bb9fe6bf14610370578063c107532914610385578063c23a5cea146103a557600080fd5b80636b845bfe116101085780636b845bfe146101fa578063715018a61461021a5780638da5cb5b1461022f57806394d4ad601461026157806394e1fc1914610291578063a9a23409146102b157600080fd5b80630396cb60146101455780630a3b0a4f1461015a57806324efa2641461017a57806329092d0e1461019a5780633f514c25146101ba575b600080fd5b610158610153366004611719565b61046e565b005b34801561016657600080fd5b5061015861017536600461175b565b6104f9565b34801561018657600080fd5b50610158610195366004611778565b61053b565b3480156101a657600080fd5b506101586101b536600461175b565b61058b565b3480156101c657600080fd5b506101e76101d536600461175b565b60036020526000908152604090205481565b6040519081526020015b60405180910390f35b34801561020657600080fd5b50610158610215366004611778565b6105cd565b34801561022657600080fd5b5061015861061d565b34801561023b57600080fd5b506000546001600160a01b03165b6040516001600160a01b0390911681526020016101f1565b34801561026d57600080fd5b5061028161027c36600461182f565b610631565b6040516101f19493929190611871565b34801561029d57600080fd5b506101e76102ac3660046118f1565b61066e565b3480156102bd57600080fd5b506101586102cc36600461194f565b6106c8565b3480156102dd57600080fd5b5061030c6102ec3660046119af565b600160209081526000928352604080842090915290825290205460ff1681565b60405190151581526020016101f1565b34801561032857600080fd5b506102497f000000000000000000000000000000000000000000000000000000000000000081565b34801561035c57600080fd5b5061030c61036b3660046119af565b6106e2565b34801561037c57600080fd5b506101586106f7565b34801561039157600080fd5b506101586103a03660046119e8565b61076e565b3480156103b157600080fd5b506101586103c036600461175b565b61090c565b3480156103d157600080fd5b506101e7610992565b610158610a22565b3480156103ee57600080fd5b506101e76103fd36600461175b565b6001600160a01b031660009081526003602052604090205490565b610158610a84565b34801561042c57600080fd5b5061015861043b36600461175b565b610b1b565b34801561044c57600080fd5b5061046061045b366004611a14565b610b94565b6040516101f1929190611a62565b610476610bb8565b604051621cb65b60e51b815263ffffffff821660048201527f00000000000000000000000000000000000000000000000000000000000000006001600160a01b031690630396cb609034906024016000604051808303818588803b1580156104dd57600080fd5b505af11580156104f1573d6000803e3d6000fd5b505050505050565b61050281610c12565b6040516001600160a01b0382169033907f0c4b48e75a1f7ab0a9a2f786b5d6c1f7789020403bff177fb54d46edb89ccc0090600090a350565b6105458282610d00565b8181604051610555929190611ab7565b6040519081900381209033907f6eabb183ad4385932735ae89018089a008c58e814451b618bc0dd0e7922f6d1390600090a35050565b61059481610d4f565b6040516001600160a01b0382169033907fd288ab5da2e1f37cf384a1565a3f905ad289b092fbdd31950dbbfef148c04f8890600090a350565b6105d78282610e33565b81816040516105e7929190611ab7565b6040519081900381209033907f75dcdde27b71b9c529ae8b02072e1eeda244662d2d9c2effea5a1afb8fc913f390600090a35050565b610625610bb8565b61062f6000610e7d565b565b6000803681610644605460148789611af9565b8101906106519190611b23565b90945092506106638560548189611af9565b949793965094505050565b600061067984610ecd565b604080516020810192909252469082015230606082015265ffffffffffff8085166080830152831660a082015260c0016040516020818303038152906040528051906020012090509392505050565b6106d0610fa0565b6106dc84848484611010565b50505050565b60006106ee8383611101565b90505b92915050565b6106ff610bb8565b7f00000000000000000000000000000000000000000000000000000000000000006001600160a01b031663bb9fe6bf6040518163ffffffff1660e01b8152600401600060405180830381600087803b15801561075a57600080fd5b505af11580156106dc573d6000803e3d6000fd5b61077661112f565b336001600160a01b038316146107ec5760405162461bcd60e51b815260206004820152603060248201527f457468657273706f745061796d61737465723a3a2063616e206f6e6c7920776960448201526f746864726177206f776e2066756e647360801b60648201526084015b60405180910390fd5b8061080c836001600160a01b031660009081526003602052604090205490565b10156108725760405162461bcd60e51b815260206004820152602f60248201527f457468657273706f745061796d61737465723a3a206e6f7420656e6f7567682060448201526e6465706f73697465642066756e647360881b60648201526084016107e3565b61087c8282611186565b60405163040b850f60e31b81526001600160a01b038381166004830152602482018390527f0000000000000000000000000000000000000000000000000000000000000000169063205c287890604401600060405180830381600087803b1580156108e657600080fd5b505af11580156108fa573d6000803e3d6000fd5b505050506109086001600255565b5050565b610914610bb8565b60405163611d2e7560e11b81526001600160a01b0382811660048301527f0000000000000000000000000000000000000000000000000000000000000000169063c23a5cea90602401600060405180830381600087803b15801561097757600080fd5b505af115801561098b573d6000803e3d6000fd5b5050505050565b6040516370a0823160e01b81523060048201526000907f00000000000000000000000000000000000000000000000000000000000000006001600160a01b0316906370a0823190602401602060405180830381865afa1580156109f9573d6000803e3d6000fd5b505050506040513d601f19601f82011682018060405250810190610a1d9190611b56565b905090565b60405163b760faf960e01b81523060048201527f00000000000000000000000000000000000000000000000000000000000000006001600160a01b03169063b760faf99034906024016000604051808303818588803b15801561097757600080fd5b610a8c61112f565b60405163b760faf960e01b81523060048201527f00000000000000000000000000000000000000000000000000000000000000006001600160a01b03169063b760faf99034906024016000604051808303818588803b158015610aee57600080fd5b505af1158015610b02573d6000803e3d6000fd5b5050505050610b1133346111b7565b61062f6001600255565b610b23610bb8565b6001600160a01b038116610b885760405162461bcd60e51b815260206004820152602660248201527f4f776e61626c653a206e6577206f776e657220697320746865207a65726f206160448201526564647265737360d01b60648201526084016107e3565b610b9181610e7d565b50565b60606000610ba0610fa0565b610bab8585856111df565b915091505b935093915050565b6000546001600160a01b0316331461062f5760405162461bcd60e51b815260206004820181905260248201527f4f776e61626c653a2063616c6c6572206973206e6f7420746865206f776e657260448201526064016107e3565b6001600160a01b038116610c635760405162461bcd60e51b815260206004820152601860248201527757686974656c6973743a3a205a65726f206164647265737360401b60448201526064016107e3565b610c6d3382611101565b15610ccd5760405162461bcd60e51b815260206004820152602a60248201527f57686974656c6973743a3a204163636f756e7420697320616c726561647920776044820152691a1a5d195b1a5cdd195960b21b60648201526084016107e3565b3360009081526001602081815260408084206001600160a01b03959095168452939052919020805460ff19169091179055565b60005b81811015610d4a57610d3a838383818110610d2057610d20611b6f565b9050602002016020810190610d35919061175b565b610c12565b610d4381611b9b565b9050610d03565b505050565b6001600160a01b038116610da05760405162461bcd60e51b815260206004820152601860248201527757686974656c6973743a3a205a65726f206164647265737360401b60448201526064016107e3565b610daa3382611101565b610e055760405162461bcd60e51b815260206004820152602660248201527f57686974656c6973743a3a204163636f756e74206973206e6f742077686974656044820152651b1a5cdd195960d21b60648201526084016107e3565b3360009081526001602090815260408083206001600160a01b0394909416835292905220805460ff19169055565b60005b81811015610d4a57610e6d838383818110610e5357610e53611b6f565b9050602002016020810190610e68919061175b565b610d4f565b610e7681611b9b565b9050610e36565b600080546001600160a01b038381166001600160a01b0319831681178455604051919092169283917f8be0079c531659141344cd1fd0a4f28419497f9722a3daafe3b4186f6b6457e09190a35050565b600081356020830135610ee36040850185611bb4565b604051610ef1929190611bfb565b604051908190039020610f076060860186611bb4565b604051610f15929190611bfb565b604080519182900382206001600160a01b03909516602083015281019290925260608201526080808201929092529083013560a08083019190915283013560c08083019190915283013560e08083019190915283013561010080830191909152830135610120820152610140015b604051602081830303815290604052805190602001209050919050565b336001600160a01b037f0000000000000000000000000000000000000000000000000000000000000000161461062f5760405162461bcd60e51b815260206004820152601560248201527414d95b99195c881b9bdd08115b9d1c9e541bda5b9d605a1b60448201526064016107e3565b600080808061102186880188611c0b565b92965090945092509050600288600281111561103f5761103f611c51565b036110965761104e84836111b7565b604080516001600160a01b038087168252851660208201527f457172879544e40bf25ee17955cfc1beeae4b569e7631cd6b0ddcb7823eb4786910160405180910390a16110f7565b6110b3846110a48388611c67565b6110ae9085611c7a565b6111b7565b604080516001600160a01b038087168252851660208201527f2c5d05f0498c9d2ef9ad6bec38fa7d6693827331e772b11b0864225ad20507f4910160405180910390a15b5050505050505050565b6001600160a01b03918216600090815260016020908152604080832093909416825291909152205460ff1690565b60028054036111805760405162461bcd60e51b815260206004820152601f60248201527f5265656e7472616e637947756172643a207265656e7472616e742063616c6c0060448201526064016107e3565b60028055565b6001600160a01b038216600090815260036020526040812080548392906111ae908490611c7a565b90915550505050565b6001600160a01b038216600090815260036020526040812080548392906111ae908490611c67565b60606000808036816111f861027c6101208b018b611bb4565b9296509094509250905060408114806112115750604181145b61128d5760405162461bcd60e51b815260206004820152604160248201527f457468657273706f745061796d61737465723a3a20696e76616c69642073696760448201527f6e6174757265206c656e67746820696e207061796d6173746572416e644461746064820152606160f81b608482015260a4016107e3565b60006112a261129d8b878761066e565b61142f565b905060008a35905060006112ec8386868080601f01602080910402602001604051908101604052809392919081815260200183838082843760009201919091525061146a92505050565b90506112f88183611101565b611329576113086001888861148e565b60405180602001604052806000815250909850985050505050505050610bb0565b89611349826001600160a01b031660009081526003602052604090205490565b10156113b45760405162461bcd60e51b815260206004820152603460248201527f457468657273706f745061796d61737465723a3a2053706f6e736f72207061796044820152736d61737465722066756e647320746f6f206c6f7760601b60648201526084016107e3565b60006113c6619c4060e08f0135611c8d565b90506113d2828c611186565b604080516001600160a01b038085166020830152851691810191909152606081018c90526080810182905260a00160405160208183030381529060405261141b60008a8a61148e565b995099505050505050505050935093915050565b6040517f19457468657265756d205369676e6564204d6573736167653a0a3332000000006020820152603c8101829052600090605c01610f83565b600080600061147985856114c6565b915091506114868161150b565b509392505050565b600060d08265ffffffffffff16901b60a08465ffffffffffff16901b856114b65760006114b9565b60015b60ff161717949350505050565b60008082516041036114fc5760208301516040840151606085015160001a6114f087828585611655565b94509450505050611504565b506000905060025b9250929050565b600081600481111561151f5761151f611c51565b036115275750565b600181600481111561153b5761153b611c51565b036115885760405162461bcd60e51b815260206004820152601860248201527f45434453413a20696e76616c6964207369676e6174757265000000000000000060448201526064016107e3565b600281600481111561159c5761159c611c51565b036115e95760405162461bcd60e51b815260206004820152601f60248201527f45434453413a20696e76616c6964207369676e6174757265206c656e6774680060448201526064016107e3565b60038160048111156115fd576115fd611c51565b03610b915760405162461bcd60e51b815260206004820152602260248201527f45434453413a20696e76616c6964207369676e6174757265202773272076616c604482015261756560f01b60648201526084016107e3565b6000807f7fffffffffffffffffffffffffffffff5d576e7357a4501ddfe92f46681b20a083111561168c5750600090506003611710565b6040805160008082526020820180845289905260ff881692820192909252606081018690526080810185905260019060a0016020604051602081039080840390855afa1580156116e0573d6000803e3d6000fd5b5050604051601f1901519150506001600160a01b03811661170957600060019250925050611710565b9150600090505b94509492505050565b60006020828403121561172b57600080fd5b813563ffffffff8116811461173f57600080fd5b9392505050565b6001600160a01b0381168114610b9157600080fd5b60006020828403121561176d57600080fd5b813561173f81611746565b6000806020838503121561178b57600080fd5b823567ffffffffffffffff808211156117a357600080fd5b818501915085601f8301126117b757600080fd5b8135818111156117c657600080fd5b8660208260051b85010111156117db57600080fd5b60209290920196919550909350505050565b60008083601f8401126117ff57600080fd5b50813567ffffffffffffffff81111561181757600080fd5b60208301915083602082850101111561150457600080fd5b6000806020838503121561184257600080fd5b823567ffffffffffffffff81111561185957600080fd5b611865858286016117ed565b90969095509350505050565b600065ffffffffffff808716835280861660208401525060606040830152826060830152828460808401376000608084840101526080601f19601f850116830101905095945050505050565b600061016082840312156118d057600080fd5b50919050565b803565ffffffffffff811681146118ec57600080fd5b919050565b60008060006060848603121561190657600080fd5b833567ffffffffffffffff81111561191d57600080fd5b611929868287016118bd565b935050611938602085016118d6565b9150611946604085016118d6565b90509250925092565b6000806000806060858703121561196557600080fd5b84356003811061197457600080fd5b9350602085013567ffffffffffffffff81111561199057600080fd5b61199c878288016117ed565b9598909750949560400135949350505050565b600080604083850312156119c257600080fd5b82356119cd81611746565b915060208301356119dd81611746565b809150509250929050565b600080604083850312156119fb57600080fd5b8235611a0681611746565b946020939093013593505050565b600080600060608486031215611a2957600080fd5b833567ffffffffffffffff811115611a4057600080fd5b611a4c868287016118bd565b9660208601359650604090950135949350505050565b604081526000835180604084015260005b81811015611a905760208187018101516060868401015201611a73565b506000606082850101526060601f19601f8301168401019150508260208301529392505050565b60008184825b85811015611aee578135611ad081611746565b6001600160a01b031683526020928301929190910190600101611abd565b509095945050505050565b60008085851115611b0957600080fd5b83861115611b1657600080fd5b5050820193919092039150565b60008060408385031215611b3657600080fd5b611b3f836118d6565b9150611b4d602084016118d6565b90509250929050565b600060208284031215611b6857600080fd5b5051919050565b634e487b7160e01b600052603260045260246000fd5b634e487b7160e01b600052601160045260246000fd5b600060018201611bad57611bad611b85565b5060010190565b6000808335601e19843603018112611bcb57600080fd5b83018035915067ffffffffffffffff821115611be657600080fd5b60200191503681900382131561150457600080fd5b8183823760009101908152919050565b60008060008060808587031215611c2157600080fd5b8435611c2c81611746565b93506020850135611c3c81611746565b93969395505050506040820135916060013590565b634e487b7160e01b600052602160045260246000fd5b808201808211156106f1576106f1611b85565b818103818111156106f1576106f1611b85565b80820281158282048414176106f1576106f1611b8556fea2646970667358221220875f94c3938224a0264c012b6758ee26243e067e5571d1f19201c16c507d291464736f6c63430008110033",
  "devdoc": {
    "kind": "dev",
    "methods": {
      "addStake(uint32)": {
        "params": {
          "unstakeDelaySec": "- the unstake delay for this paymaster. Can only be increased."
        }
      },
      "owner()": {
        "details": "Returns the address of the current owner."
      },
      "postOp(uint8,bytes,uint256)": {
        "params": {
          "actualGasCost": "- actual gas used so far (without this postOp call).",
          "context": "- the context value returned by validatePaymasterUserOp",
          "mode": "enum with the following options:      opSucceeded - user operation succeeded.      opReverted  - user op reverted. still has to pay for gas.      postOpReverted - user op succeeded, but caused postOp (in mode=opSucceeded) to revert.                       Now this is the 2nd call, after user's op was deliberately reverted."
        }
      },
      "renounceOwnership()": {
        "details": "Leaves the contract without owner. It will not be possible to call `onlyOwner` functions anymore. Can only be called by the current owner. NOTE: Renouncing ownership will leave the contract without an owner, thereby removing any functionality that is only available to the owner."
      },
      "transferOwnership(address)": {
        "details": "Transfers ownership of the contract to a new account (`newOwner`). Can only be called by the current owner."
      },
      "validatePaymasterUserOp((address,uint256,bytes,bytes,uint256,uint256,uint256,uint256,uint256,bytes,bytes),bytes32,uint256)": {
        "params": {
          "maxCost": "the maximum cost of this transaction (based on maximum gas and gas price from userOp)",
          "userOp": "the user operation",
          "userOpHash": "hash of the user's request data."
        },
        "returns": {
          "context": "value to send to a postOp      zero length to signify postOp is not required.",
          "validationData": "signature and time-range of this operation, encoded the same as the return value of validateUserOperation      <20-byte> sigAuthorizer - 0 for valid signature, 1 to mark signature failure,         otherwise, an address of an \"authorizer\" contract.      <6-byte> validUntil - last timestamp this operation is valid. 0 for \"indefinite\"      <6-byte> validAfter - first timestamp this operation is valid      Note that the validation code cannot use block.timestamp (or block.number) directly."
        }
      },
      "withdrawStake(address)": {
        "params": {
          "withdrawAddress": "the address to send withdrawn value."
        }
      }
    },
    "version": 1
  },
  "userdoc": {
    "kind": "user",
    "methods": {
      "addStake(uint32)": {
        "notice": "add stake for this paymaster. This method can also carry eth value to add to the current stake."
      },
      "deposit()": {
        "notice": "add a deposit for this paymaster, used for paying for transaction fees"
      },
      "getDeposit()": {
        "notice": "return current paymaster's deposit on the entryPoint."
      },
      "getHash((address,uint256,bytes,bytes,uint256,uint256,uint256,uint256,uint256,bytes,bytes),uint48,uint48)": {
        "notice": "return the hash we're going to sign off-chain (and validate on-chain) this method is called by the off-chain service, to sign the request. it is called on-chain from the validatePaymasterUserOp, to validate the signature. note that this signature covers all fields of the UserOperation, except the \"paymasterAndData\", which will carry the signature itself."
      },
      "postOp(uint8,bytes,uint256)": {
        "notice": "post-operation handler. Must verify sender is the entryPoint"
      },
      "unlockStake()": {
        "notice": "unlock the stake, in order to withdraw it. The paymaster can't serve requests once unlocked, until it calls addStake again"
      },
      "validatePaymasterUserOp((address,uint256,bytes,bytes,uint256,uint256,uint256,uint256,uint256,bytes,bytes),bytes32,uint256)": {
        "notice": "payment validation: check if paymaster agrees to pay. Must verify sender is the entryPoint. Revert to reject this request. Note that bundlers will reject this method if it changes the state, unless the paymaster is trusted (whitelisted) The paymaster pre-pays using its deposit, and receive back a refund after the postOp method returns."
      },
      "withdrawStake(address)": {
        "notice": "withdraw the entire paymaster's stake. stake must be unlocked first (and then wait for the unstakeDelay to be over)"
      }
    },
    "notice": "A sample paymaster that uses external service to decide whether to pay for the UserOp. The paymaster trusts an external signer to sign the transaction. The calling user must pass the UserOp to that external signer first, which performs whatever off-chain verification before signing the UserOp. Note that this signature is NOT a replacement for wallet signature: - the paymaster signs to agree to PAY for GAS. - the wallet signs to prove identity and account ownership.",
    "version": 1
  },
  "storageLayout": {
    "storage": [
      {
        "astId": 7,
        "contract": "src/paymaster/EtherspotPaymaster.sol:EtherspotPaymaster",
        "label": "_owner",
        "offset": 0,
        "slot": "0",
        "type": "t_address"
      },
      {
        "astId": 14217,
        "contract": "src/paymaster/EtherspotPaymaster.sol:EtherspotPaymaster",
        "label": "whitelist",
        "offset": 0,
        "slot": "1",
        "type": "t_mapping(t_address,t_mapping(t_address,t_bool))"
      },
      {
        "astId": 753,
        "contract": "src/paymaster/EtherspotPaymaster.sol:EtherspotPaymaster",
        "label": "_status",
        "offset": 0,
        "slot": "2",
        "type": "t_uint256"
      },
      {
        "astId": 13790,
        "contract": "src/paymaster/EtherspotPaymaster.sol:EtherspotPaymaster",
        "label": "sponsorFunds",
        "offset": 0,
        "slot": "3",
        "type": "t_mapping(t_address,t_uint256)"
      }
    ],
    "types": {
      "t_address": {
        "encoding": "inplace",
        "label": "address",
        "numberOfBytes": "20"
      },
      "t_bool": {
        "encoding": "inplace",
        "label": "bool",
        "numberOfBytes": "1"
      },
      "t_mapping(t_address,t_bool)": {
        "encoding": "mapping",
        "key": "t_address",
        "label": "mapping(address => bool)",
        "numberOfBytes": "32",
        "value": "t_bool"
      },
      "t_mapping(t_address,t_mapping(t_address,t_bool))": {
        "encoding": "mapping",
        "key": "t_address",
        "label": "mapping(address => mapping(address => bool))",
        "numberOfBytes": "32",
        "value": "t_mapping(t_address,t_bool)"
      },
      "t_mapping(t_address,t_uint256)": {
        "encoding": "mapping",
        "key": "t_address",
        "label": "mapping(address => uint256)",
        "numberOfBytes": "32",
        "value": "t_uint256"
      },
      "t_uint256": {
        "encoding": "inplace",
        "label": "uint256",
        "numberOfBytes": "32"
      }
    }
  }
}