{
  "_format": "hh-sol-artifact-1",
  "contractName": "BLSOpen",
  "sourceName": "src/bls/lib/BLSOpen.sol",
  "abi": [
    {
      "inputs": [
        {
          "internalType": "bytes32",
          "name": "domain",
          "type": "bytes32"
        },
        {
          "internalType": "bytes",
          "name": "message",
          "type": "bytes"
        }
      ],
      "name": "hashToPoint",
      "outputs": [
        {
          "internalType": "uint256[2]",
          "name": "",
          "type": "uint256[2]"
        }
      ],
      "stateMutability": "view",
      "type": "function"
    },
    {
      "inputs": [
        {
          "internalType": "uint256[4]",
          "name": "blsKey",
          "type": "uint256[4]"
        }
      ],
      "name": "isZeroBLSKey",
      "outputs": [
        {
          "internalType": "bool",
          "name": "",
          "type": "bool"
        }
      ],
      "stateMutability": "pure",
      "type": "function"
    },
    {
      "inputs": [
        {
          "internalType": "uint256[2]",
          "name": "signature",
          "type": "uint256[2]"
        },
        {
          "internalType": "uint256[4][]",
          "name": "pubkeys",
          "type": "uint256[4][]"
        },
        {
          "internalType": "uint256[2][]",
          "name": "messages",
          "type": "uint256[2][]"
        }
      ],
      "name": "verifyMultiple",
      "outputs": [
        {
          "internalType": "bool",
          "name": "",
          "type": "bool"
        }
      ],
      "stateMutability": "view",
      "type": "function"
    },
    {
      "inputs": [
        {
          "internalType": "uint256[2]",
          "name": "signature",
          "type": "uint256[2]"
        },
        {
          "internalType": "uint256[4]",
          "name": "pubkey",
          "type": "uint256[4]"
        },
        {
          "internalType": "uint256[2]",
          "name": "message",
          "type": "uint256[2]"
        }
      ],
      "name": "verifySingle",
      "outputs": [
        {
          "internalType": "bool",
          "name": "",
          "type": "bool"
        }
      ],
      "stateMutability": "view",
      "type": "function"
    }
  ],
  "bytecode": "0x61429b610053600b82828239805160001a607314610046577f4e487b7100000000000000000000000000000000000000000000000000000000600052600060045260246000fd5b30600052607381538281f3fe73000000000000000000000000000000000000000030146080604052600436106100565760003560e01c8063914137631461005b578063a850a9091461008b578063c2ad5b98146100bb578063ebbdac91146100eb575b600080fd5b610075600480360381019061007091906139c4565b61011b565b6040516100829190613a6a565b60405180910390f35b6100a560048036038101906100a09190613b70565b6101a8565b6040516100b29190613c77565b60405180910390f35b6100d560048036038101906100d09190613c92565b6101fe565b6040516100e29190613a6a565b60405180910390f35b61010560048036038101906101009190613cbf565b6102f5565b6040516101129190613a6a565b60405180910390f35b6000610131671f69af38f8faad6d60c01b6104ee565b61014567bef84500732a2c6560c01b6104ee565b610159675572d3da7a7f816560c01b6104ee565b6000806101678686866104f1565b9150915061017f67ece8badb9bf308d160c01b6104ee565b61019367b761f325f3ecd68760c01b6104ee565b80801561019d5750815b925050509392505050565b6101b0613596565b6101c467722623d8404a907360c01b6104ee565b6101d8672787db28b27638e060c01b6104ee565b6101ec67bd5c8e3414cae1a760c01b6104ee565b6101f68383610da7565b905092915050565b600061021467278bad0927b30ae160c01b6104ee565b61022867d92181f8a432b81460c01b6104ee565b61023c6731e110a295c782b060c01b6104ee565b60006001905061025667cb0a36178a0799e560c01b6104ee565b61026a674ac5bcaf53ed3dad60c01b6104ee565b60005b81801561027a5750600481105b156102c35761029367714941462c9a862460c01b6104ee565b60008482600481106102a8576102a7613d13565b5b602002015114915080806102bb90613d71565b91505061026d565b506102d867db2b84ad60429c1260c01b6104ee565b6102ec6740f3d99f77b4a30860c01b6104ee565b80915050919050565b600061030b6770c3d2c04eb03ab660c01b6104ee565b61031f67c1c315ea5c3b3d7160c01b6104ee565b61033367b9762cbe57c4417660c01b6104ee565b6000600167ffffffffffffffff8111156103505761034f613626565b5b60405190808252806020026020018201604052801561038957816020015b6103766135b8565b81526020019060019003908161036e5790505b5090506103a06778a464f9ec65bfca60c01b6104ee565b6103b4676945303200ffbeeb60c01b6104ee565b6000600167ffffffffffffffff8111156103d1576103d0613626565b5b60405190808252806020026020018201604052801561040a57816020015b6103f7613596565b8152602001906001900390816103ef5790505b50905061042167c7e20b91e5b39c5e60c01b6104ee565b848260008151811061043657610435613d13565b5b60200260200101819052506104556797b2bbba11375e5760c01b6104ee565b838160008151811061046a57610469613d13565b5b6020026020010181905250610489679250ffdffe58d6a160c01b6104ee565b61049d6782d2e6fa614874a260c01b6104ee565b6000806104ab8885856104f1565b915091506104c3671279e7097053be3560c01b6104ee565b6104d767ad5a3a5bf0bda1eb60c01b6104ee565b8080156104e15750815b9450505050509392505050565b50565b60008061050867314132e7fc45ef1260c01b611110565b61051c678f54c9afe18b297d60c01b611110565b61053067defc3266c763a42c60c01b611110565b60008451905061054a67d61e247241ca3daa60c01b611110565b61055e67ca2457720fc30eae60c01b611110565b610572672599f03220c5c9cd60c01b611110565b600081116105b5576040517f08c379a00000000000000000000000000000000000000000000000000000000081526004016105ac90613e3d565b60405180910390fd5b6105c96795169da0e40a7df460c01b611110565b6105dd67e23616623b33ecce60c01b611110565b6105f1673b6abbdfe61cc27f60c01b611110565b61060567edd2f0bf4c484e6160c01b611110565b83518114610648576040517f08c379a000000000000000000000000000000000000000000000000000000000815260040161063f90613ecf565b60405180910390fd5b61065c67f12bf7427fca1b8760c01b611110565b61067067ef2f0267fac775bf60c01b611110565b610684671fc0df2eec9bfa3660c01b611110565b600060066001836106959190613eef565b61069f9190613f45565b90506106b5673790bb020368213260c01b611110565b6106c967c3dc9106cd4cd70460c01b611110565b60008167ffffffffffffffff8111156106e5576106e4613626565b5b6040519080825280602002602001820160405280156107135781602001602082028036833780820191505090505b50905061072a67046191c39a458b5860c01b611110565b8760006002811061073e5761073d613d13565b5b60200201518160008151811061075757610756613d13565b5b6020026020010181815250506107776762cc34a590ca12a660c01b611110565b8760016002811061078b5761078a613d13565b5b6020020151816001815181106107a4576107a3613d13565b5b6020026020010181815250506107c4672d68a6077c8060b260c01b611110565b7f198e9393920d483a7260bfb731fb5d25f1aa493335a9e71297e485b7aef312c2816002815181106107f9576107f8613d13565b5b60200260200101818152505061081967b71e03e4acd3f78f60c01b611110565b7f1800deef121f1e76426a00665e5c4479674322d4f75edadd46debd5cd992f6ed8160038151811061084e5761084d613d13565b5b60200260200101818152505061086e6711195d3bb5983fa360c01b611110565b7f275dc4a288d1afb3cbb1ac09187524c7db36395df7be3b99e673b13a075a65ec816004815181106108a3576108a2613d13565b5b6020026020010181815250506108c36797209a4e5b6e8a5d60c01b611110565b7f1d9befcd05a5323e6da4d435f3b617cdb3af83285c2df711ef39c01571827f9d816005815181106108f8576108f7613d13565b5b6020026020010181815250506109186731976714818f97cb60c01b611110565b61092c675f59d9925c69645c60c01b611110565b60005b83811015610c3d5761094b672d92278d447c1c8860c01b611110565b86818151811061095e5761095d613d13565b5b602002602001015160006002811061097957610978613d13565b5b6020020151826006808461098d9190613f45565b6109979190613eef565b815181106109a8576109a7613d13565b5b6020026020010181815250506109c8672da89e68b8da438960c01b611110565b8681815181106109db576109da613d13565b5b60200260200101516001600281106109f6576109f5613d13565b5b6020020151826007600684610a0b9190613f45565b610a159190613eef565b81518110610a2657610a25613d13565b5b602002602001018181525050610a4667f84e0463c0f3f07160c01b611110565b878181518110610a5957610a58613d13565b5b6020026020010151600160048110610a7457610a73613d13565b5b6020020151826008600684610a899190613f45565b610a939190613eef565b81518110610aa457610aa3613d13565b5b602002602001018181525050610ac467fc6e81bf2408135760c01b611110565b878181518110610ad757610ad6613d13565b5b6020026020010151600060048110610af257610af1613d13565b5b6020020151826009600684610b079190613f45565b610b119190613eef565b81518110610b2257610b21613d13565b5b602002602001018181525050610b42673464a492d42b135860c01b611110565b878181518110610b5557610b54613d13565b5b6020026020010151600360048110610b7057610b6f613d13565b5b602002015182600a600684610b859190613f45565b610b8f9190613eef565b81518110610ba057610b9f613d13565b5b602002602001018181525050610bc067046c3176ee337ab260c01b611110565b878181518110610bd357610bd2613d13565b5b6020026020010151600260048110610bee57610bed613d13565b5b602002015182600b600684610c039190613f45565b610c0d9190613eef565b81518110610c1e57610c1d613d13565b5b6020026020010181815250508080610c3590613d71565b91505061092f565b50610c5267c346de7173934e3f60c01b611110565b610c66677899d7e3b73f22b860c01b611110565b610c6e6135da565b610c826766d04e69a6ace69960c01b611110565b610c96670a72c6ff774847b060c01b611110565b60005a9050610caf6770ca3ec48f7483ab60c01b611110565b6020826020860260208601600885fa9550610cd46794459eb9823fbd7e60c01b611110565b610ce867df975e6b07c0957560c01b611110565b85610d3a57610d01672f4d197a0390af9e60c01b611110565b610d1567dc39ac0b2990af0560c01b611110565b610d29671cb26a01319d108b60c01b611110565b600080965096505050505050610d9f565b610d4e675d5fe3422b401f7660c01b611110565b610d626757713e942203e12a60c01b611110565b610d7667948b0ce086c063e160c01b611110565b600082600060018110610d8c57610d8b613d13565b5b6020020151141560019650965050505050505b935093915050565b610daf613596565b610dc367fbe098f65749e71060c01b611110565b610dd767e7771e59bc9e7bc260c01b611110565b610deb67a6557ab130d6e67360c01b611110565b6000610df78484611113565b9050610e0d670f33b4a5b98cf83960c01b611110565b610e21674e9a6fb67c1638d560c01b611110565b6000610e4482600060028110610e3a57610e39613d13565b5b60200201516113be565b9050610e5a6729e30b63df8dec9e60c01b611110565b610e6e6729c530dfbc3cff0160c01b611110565b6000610e9183600160028110610e8757610e86613d13565b5b60200201516113be565b9050610ea7675182b96334fdb49060c01b611110565b610ebb675b42cc9446a49f6c60c01b611110565b610ec36135b8565b610ed767fe62f6975e0727a660c01b611110565b82600060028110610eeb57610eea613d13565b5b602002015181600060048110610f0457610f03613d13565b5b602002018181525050610f2167e3b2464e012f5c7560c01b611110565b82600160028110610f3557610f34613d13565b5b602002015181600160048110610f4e57610f4d613d13565b5b602002018181525050610f6b67f45587315ef8dc7a60c01b611110565b81600060028110610f7f57610f7e613d13565b5b602002015181600260048110610f9857610f97613d13565b5b602002018181525050610fb567d0975f6060f3dacf60c01b611110565b81600160028110610fc957610fc8613d13565b5b602002015181600360048110610fe257610fe1613d13565b5b602002018181525050610fff671640fa240e3c08dd60c01b611110565b611013671e1773a8e108dbde60c01b611110565b6000611029674dbb8760c8dd646760c01b611110565b60408460808460066107d05a03fa9050806000811461104757611049565bfe5b5061105e67f32a8bcf9d52111e60c01b611110565b6110726736f6acd3ceb6287960c01b611110565b61108667f2a3744d0771bd2160c01b611110565b806110c6576040517f08c379a00000000000000000000000000000000000000000000000000000000081526004016110bd90613feb565b60405180910390fd5b6110da67b214d1368680b89160c01b611110565b6110ee6740ecea8416e99c9760c01b611110565b61110267308ce76beabb11d260c01b611110565b839550505050505092915050565b50565b61111b613596565b61112f67a4e74a3d6f61ce9560c01b611110565b61114367df5c0fc2e698621360c01b611110565b611157671f47fa4caf9025cd60c01b611110565b600061116384846120df565b905061117967eb4a74ac018de75360c01b611110565b61118d67317cfa538945a9ab60c01b611110565b60006111a36711ef49fce66446a560c01b611110565b6111b7675f8b9d2f296ebc5160c01b611110565b60006111cd67c7c388f81d15e8a160c01b611110565b6111e1674887fd0510a2ccd060c01b611110565b60006111f76751fdcb2e4036e46f60c01b611110565b61120b6726c816656c29e0b260c01b611110565b60006112216766cc5136f91f337860c01b611110565b6018850177ffffffffffffffffffffffffffffffffffffffffffffffff815116935060308601905077ffffffffffffffffffffffffffffffffffffffffffffffff81511694507f30644e72e131a029b85045b68181585d97816a916871ca8d3c208c16d87cfd47857f30644e72e131a029b85045b68181585d97816a916871ca8d3c208c16d87cfd477801000000000000000000000000000000000000000000000000870908925060488601905077ffffffffffffffffffffffffffffffffffffffffffffffff815116935060608601905077ffffffffffffffffffffffffffffffffffffffffffffffff81511694507f30644e72e131a029b85045b68181585d97816a916871ca8d3c208c16d87cfd47857f30644e72e131a029b85045b68181585d97816a916871ca8d3c208c16d87cfd477801000000000000000000000000000000000000000000000000870908915050611388679c73528c1ab2731960c01b611110565b61139c67410b91c41e9b16ce60c01b611110565b6040518060400160405280838152602001828152509550505050505092915050565b6113c6613596565b6113da673a61a3925b49e2da60c01b611110565b6113ee67e6e128b03b418fd260c01b611110565b611402670b4605cf7f3df0cb60c01b611110565b6114166749350bdd332ef95160c01b611110565b7f30644e72e131a029b85045b68181585d97816a916871ca8d3c208c16d87cfd478210611478576040517f08c379a000000000000000000000000000000000000000000000000000000000815260040161146f9061407d565b60405180910390fd5b61148c6718a989bcf62bb1ee60c01b611110565b6114a067f2f285f4452dc34c60c01b611110565b6114b467a47acc6e5124d87a60c01b611110565b60008290506114cd677d63445bef68d7c860c01b611110565b6114e16773e13f2f57f5a5e760c01b611110565b60006114ec826125cb565b9150506115036769cda089873f7f0b60c01b611110565b61151767afde38e8259452eb60c01b611110565b60007f30644e72e131a029b85045b68181585d97816a916871ca8d3c208c16d87cfd47806115485761154761409d565b5b8384099050611561677d5c14734a83421460c01b611110565b7f30644e72e131a029b85045b68181585d97816a916871ca8d3c208c16d87cfd47806115905761158f61409d565b5b6004820890506115aa67aa3c4a9001d9c18f60c01b611110565b6115be6727874b8f82f6a44660c01b611110565b60007f30644e72e131a029b85045b68181585d97816a916871ca8d3c208c16d87cfd47806115ef576115ee61409d565b5b77b3c4d79d41a91759a9e4c7e359b6b89eaec68e62effffffd85099050611620673f7e1e2dbdccdbc260c01b611110565b6116346776fd2a355ae3f6ec60c01b611110565b60007f30644e72e131a029b85045b68181585d97816a916871ca8d3c208c16d87cfd47806116655761166461409d565b5b838309905061167e67fc3e615c934a08f760c01b611110565b61168781612650565b905061169d6729e014c124b2c8df60c01b611110565b7f30644e72e131a029b85045b68181585d97816a916871ca8d3c208c16d87cfd47806116cc576116cb61409d565b5b82830991506116e567a656be04b999a55560c01b611110565b7f30644e72e131a029b85045b68181585d97816a916871ca8d3c208c16d87cfd47806117145761171361409d565b5b818309915061172d676b0fef2d5885182560c01b611110565b7f30644e72e131a029b85045b68181585d97816a916871ca8d3c208c16d87cfd478061175c5761175b61409d565b5b82860991506117756751bf0928626020c660c01b611110565b7f30644e72e131a029b85045b68181585d97816a916871ca8d3c208c16d87cfd47806117a4576117a361409d565b5b827f30644e72e131a029b85045b68181585d97816a916871ca8d3c208c16d87cfd476117d091906140cc565b7759e26bcea0d48bacd4f263f1acdb5c4f5763473177fffffe08945061180067b0b8a91ac916f47c60c01b611110565b7f30644e72e131a029b85045b68181585d97816a916871ca8d3c208c16d87cfd478061182f5761182e61409d565b5b8586099150611848674f57afce6421c80660c01b611110565b7f30644e72e131a029b85045b68181585d97816a916871ca8d3c208c16d87cfd47806118775761187661409d565b5b858309915061189067b51fe9d7544b341960c01b611110565b7f30644e72e131a029b85045b68181585d97816a916871ca8d3c208c16d87cfd47806118bf576118be61409d565b5b6003830891506118d967771a34a9ef6177d760c01b611110565b6118ed677ea295afd1a6674860c01b611110565b600061190367cc8c02195f5e7a0660c01b611110565b61190c836125cb565b8092508194505050611928674482531d9f9ae76660c01b611110565b61193c679fa7fe8cb4e7c85360c01b611110565b8015611a3d5761195667d170225d2e44810b60c01b611110565b61196a675eac2f9f75da4ee160c01b611110565b61197e6796ca54e76dd86aab60c01b611110565b846119de57611997679131c6930408fccb60c01b611110565b6119ab67db070c76bbe6d91060c01b611110565b827f30644e72e131a029b85045b68181585d97816a916871ca8d3c208c16d87cfd476119d791906140cc565b92506119f3565b6119f26744bc22a5630550b060c01b611110565b5b611a0767e1e14f056ee9296160c01b611110565b611a1b677a5f6331590b261b60c01b611110565b60405180604001604052808781526020018481525096505050505050506120da565b611a5167dc9b0f665829040f60c01b611110565b611a656753470afe576a15ef60c01b611110565b7f30644e72e131a029b85045b68181585d97816a916871ca8d3c208c16d87cfd4780611a9457611a9361409d565b5b600187087f30644e72e131a029b85045b68181585d97816a916871ca8d3c208c16d87cfd47611ac391906140cc565b9550611ad96742cbe5fcd1a7d45360c01b611110565b7f30644e72e131a029b85045b68181585d97816a916871ca8d3c208c16d87cfd4780611b0857611b0761409d565b5b8687099250611b2167d3d7bf4b39deb21a60c01b611110565b7f30644e72e131a029b85045b68181585d97816a916871ca8d3c208c16d87cfd4780611b5057611b4f61409d565b5b8684099250611b6967029c0aaa3402c1c860c01b611110565b7f30644e72e131a029b85045b68181585d97816a916871ca8d3c208c16d87cfd4780611b9857611b9761409d565b5b600384089250611bb2679a025aa916f94b5a60c01b611110565b611bbb836125cb565b8092508194505050611bd767cc075345cba6780d60c01b611110565b611beb67cc0a918738fe19c760c01b611110565b8015611cec57611c0567817672f3b2dd64de60c01b611110565b611c19675dad134a7f939d7d60c01b611110565b611c2d678f4881c75f9f161a60c01b611110565b84611c8d57611c46673ef5cce4a91944dc60c01b611110565b611c5a67330d9145b91b6a9060c01b611110565b827f30644e72e131a029b85045b68181585d97816a916871ca8d3c208c16d87cfd47611c8691906140cc565b9250611ca2565b611ca1672c158f0c60b8920160c01b611110565b5b611cb667eda55f3e6c01133f60c01b611110565b611cca67fa4153381859a18e60c01b611110565b60405180604001604052808781526020018481525096505050505050506120da565b611d0067a5d5a4d89315cbd760c01b611110565b611d146773e8f789c92c94e860c01b611110565b7f30644e72e131a029b85045b68181585d97816a916871ca8d3c208c16d87cfd4780611d4357611d4261409d565b5b8485099550611d5c67ae79187e59d6454f60c01b611110565b7f30644e72e131a029b85045b68181585d97816a916871ca8d3c208c16d87cfd4780611d8b57611d8a61409d565b5b8687099550611da46720b82513f858237260c01b611110565b7f30644e72e131a029b85045b68181585d97816a916871ca8d3c208c16d87cfd4780611dd357611dd261409d565b5b8287099550611dec6780b650225293dcb760c01b611110565b7f30644e72e131a029b85045b68181585d97816a916871ca8d3c208c16d87cfd4780611e1b57611e1a61409d565b5b8287099550611e346720ed101228072bce60c01b611110565b7f30644e72e131a029b85045b68181585d97816a916871ca8d3c208c16d87cfd4780611e6357611e6261409d565b5b600187089550611e7d67535b29a6b22f51d060c01b611110565b7f30644e72e131a029b85045b68181585d97816a916871ca8d3c208c16d87cfd4780611eac57611eab61409d565b5b8687099250611ec5674a4013f5d345c0ae60c01b611110565b7f30644e72e131a029b85045b68181585d97816a916871ca8d3c208c16d87cfd4780611ef457611ef361409d565b5b8684099250611f0d67cf5ed8b764332e6d60c01b611110565b7f30644e72e131a029b85045b68181585d97816a916871ca8d3c208c16d87cfd4780611f3c57611f3b61409d565b5b600384089250611f566790861ef2f8f5813a60c01b611110565b611f5f836125cb565b8092508194505050611f7b67830dfa0389b12ff860c01b611110565b611f8f677a946f94281abe4b60c01b611110565b611fa3678f2f4d02f0a4dca260c01b611110565b80611fe3576040517f08c379a0000000000000000000000000000000000000000000000000000000008152600401611fda90614172565b60405180910390fd5b611ff7676045865ab543516b60c01b611110565b61200b6749ca89a59972c2e760c01b611110565b61201f673df66ab531b7938660c01b611110565b8461207f5761203867387e3a18134c215d60c01b611110565b61204c67d404bd758f1fb61160c01b611110565b827f30644e72e131a029b85045b68181585d97816a916871ca8d3c208c16d87cfd4761207891906140cc565b9250612094565b6120936781cc555807c1452e60c01b611110565b5b6120a86799c632e1e68f7a9460c01b611110565b6120bc6749df9c7a93a1337960c01b611110565b60405180604001604052808781526020018481525096505050505050505b919050565b60606120f567d846d80268c0ca1a60c01b611110565b61210967ba3aa46ea60d386b60c01b611110565b61211d67dc0a1b89a813c7a060c01b611110565b6000825190506121376779624f9a69d3b60f60c01b611110565b61214b67691c6e49200454b260c01b611110565b60006004604083602061215e9190613eef565b6121689190613eef565b6121729190613eef565b67ffffffffffffffff81111561218b5761218a613626565b5b6040519080825280601f01601f1916602001820160405280156121bd5781602001600182028036833780820191505090505b5090506121d4674c53b0e5075a2a6c60c01b611110565b6121e867600d7da90f7e4ad360c01b611110565b6000606067ffffffffffffffff81111561220557612204613626565b5b6040519080825280601f01601f1916602001820160405280156122375781602001600182028036833780820191505090505b50905061224e6736156fdeec92241d60c01b611110565b6060820160005b84811015612273576020810187015181830152602081019050612255565b50838101905060008153600181019050606081536001810190506000815360018101905086815260208101905060208153506122b967142abe8d06e3405b60c01b611110565b6122cd67a5ff1a634864de6560c01b611110565b60006002836040516122df919061420c565b602060405180830381855afa1580156122fc573d6000803e3d6000fd5b5050506040513d601f19601f8201168201806040525081019061231f9190614238565b9050612335673f9ac8d3d9782a2d60c01b611110565b6123496789399df4fc76da5660c01b611110565b600061235f670596d22001e7410e60c01b611110565b6042945061237767a3fc2adcb2a409ad60c01b611110565b84845261238e676c08b4640b28d19860c01b611110565b81602085015260016040850153876041850152602060416020018501536123bf6757f3868c896f42fc60c01b611110565b6002846040516123cf919061420c565b602060405180830381855afa1580156123ec573d6000803e3d6000fd5b5050506040513d601f19601f8201168201806040525081019061240f9190614238565b905061242567e012c727aa3b110b60c01b611110565b80602084015261243f671595f9353793b8b560c01b611110565b808218806020860152600260408601538860418601526020604160200186015350612474675357deefe1e2ceae60c01b611110565b600284604051612484919061420c565b602060405180830381855afa1580156124a1573d6000803e3d6000fd5b5050506040513d601f19601f820116820180604052508101906124c49190614238565b90506124da670dd89928f497779260c01b611110565b8060408401526124f4678e6a0ae02f6d8e0a60c01b611110565b80821880602086015260036040860153886041860152602060416020018601535061252967fff1a7fe6d1f44df60c01b611110565b600284604051612539919061420c565b602060405180830381855afa158015612556573d6000803e3d6000fd5b5050506040513d601f19601f820116820180604052508101906125799190614238565b905061258f676bda9b4ee028b10a60c01b611110565b8060608401526125a96703ad0ca2940d3a4e60c01b611110565b6125bd67d96eb90e1c97723560c01b611110565b829550505050505092915050565b6000806125e267dd8fdd5d38c21a2360c01b611110565b6125f667f89795e4f8875b5460c01b611110565b6125ff8361269e565b91506126156702d38ff541d88cf060c01b611110565b827f30644e72e131a029b85045b68181585d97816a916871ca8d3c208c16d87cfd47806126455761264461409d565b5b838409149050915091565b600061266667959d063163e6a57760c01b611110565b61267a6740565f0053701e2660c01b611110565b61268e673a64d97080a3ece660c01b611110565b61269782612e0e565b9050919050565b60006126b46738597d6450b5afe260c01b613590565b6126c8676bc2e01478dbd21f60c01b613590565b7f30644e72e131a029b85045b68181585d97816a916871ca8d3c208c16d87cfd478083840991508083830981838209828283098385830984848309858484098684850997508684840987858409945087898a09985087898a09985087898a09985087898a09985087898a09985087878a09985087898a09985087898a09985087898a099850878a8a09985087898a09985087898a09985087898a09985087898a099850878a8a09985087898a09985087898a09985087898a09985087898a09985087898a09985087848a09985087898a09985087898a09985087898a09985087898a09985087898a09985087848a09985087898a09985087898a09985087898a099850878a8a09985087898a09985087898a09985087898a09985087898a09985087848a09985087898a09985087898a09985087898a09985087898a09985087898a099850878a8a09985087898a09985087898a09985087898a09985087898a09985087878a09985087898a09985087898a09985087898a09985087898a09985087898a09985087898a09985087898a09985087818a09985087898a09985087898a09985087898a09985087898a09985087898a09985087898a09985087898a09985087898a09985087898a09985087898a09985087868a09985087898a09985087898a09985087898a09985087898a09985087878a09985087898a09985087898a09985087898a09985087898a09985087848a09985087898a09985087898a09985087898a09985087898a09985087898a09985087898a09985087898a09985087868a09985087898a09985087898a09985087898a09985087898a09985087898a09985087898a099850878a8a09985087898a09985087898a09985087898a09985087898a09985087898a09985087898a09985087898a09985087828a09985087898a09985087898a09985087898a09985087898a09985087898a09985087818a09985087898a09985087898a09985087898a09985087868a09985087898a09985087898a09985087898a09985087898a09985087898a09985087898a09985087898a09985087898a09985087878a09985087898a09985087898a09985087898a09985087898a09985087898a09985087898a09985087898a09985087898a09985087898a09985087868a09985087898a09985087898a09985087898a09985087878a09985087898a09985087898a09985087898a09985087898a09985087898a09985087898a09985087898a09985087898a09985087828a09985087898a09985087898a09985087898a09985087898a09985087828a09985087898a09985087898a09985087898a09985087898a09985087898a09985087868a09985087898a09985087898a09985087898a09985087848a09985087898a09985087898a09985087898a09985087898a09985087898a09985087898a09985087898a09985087898a09985087898a09985087898a09985087828a09985087898a09985087898a09985087898a09985087898a09985087868a09985087898a09985087898a09985087898a09985087898a09985087898a09985087838a09985087898a09985087898a09985087898a09985087898a09985087898a09985087898a09985087898a09985087828a09985087898a09985087898a099850878a8a09985087898a09985087898a09985087898a09985087898a09985087898a09985087898a09985087898a09985087848a09985087898a09985087898a09985087898a09985087898a09985087898a09985087898a09985087848a09985087898a09985087898a09985087898a09985087898a09985087898a09985087868a09985087898a09985087898a099850878a8a09985087898a09985087898a09985087898a09985087898a09985087898a09985087898a09985087898a09985087818a09985087898a09985087898a09985087898a09985087898a09985087898a09985087898a09985087858a09985087898a09985087898a09985087898a09985087898a09985087898a099850878a8a09985087898a09985087898a09985087898a09985087898a09985087898a09985087898a099850878a8a09985087898a09985087898a09985087898a09985087898a09985087898a09985087878a09985087898a09985087898a09985087898a09985087898a09985087898a09985087898a09985087898a09985087898a09985087898a09985087828a09985087898a09985087898a09985087898a09985087878a09985087898a09985087898a09985087898a09985087878a09985087898a09985087898a09985087898a09985087898a09985087898a09985087898a09985087898a09985087898a09985087858a09985087898a09985087898a09985087898a09985087898a09985087838a09985087898a09985087898a09985087898a09985087898a09985087858a09985087898a09985087898a09985087898a09985087868a09985087898a09985087898a09985087898a09985087898a09985087898a09985087838a09985087898a0998505050505050505050919050565b6000612e2467718e4c9a2566b3e260c01b613593565b612e38674342f26717f9e9a860c01b613593565b7f30644e72e131a029b85045b68181585d97816a916871ca8d3c208c16d87cfd478083840991508083830981838209828283098385830984848309858484098684850997508684840987858409945087898a09985087898a09985087898a09985087898a09985087898a09985087878a09985087898a09985087898a09985087898a099850878a8a09985087898a09985087898a09985087898a09985087898a099850878a8a09985087898a09985087898a09985087898a09985087898a09985087898a09985087848a09985087898a09985087898a09985087898a09985087898a09985087898a09985087848a09985087898a09985087898a09985087898a099850878a8a09985087898a09985087898a09985087898a09985087898a09985087848a09985087898a09985087898a09985087898a09985087898a09985087898a099850878a8a09985087898a09985087898a09985087898a09985087898a09985087878a09985087898a09985087898a09985087898a09985087898a09985087898a09985087898a09985087898a09985087818a09985087898a09985087898a09985087898a09985087898a09985087898a09985087898a09985087898a09985087898a09985087898a09985087898a09985087868a09985087898a09985087898a09985087898a09985087898a09985087878a09985087898a09985087898a09985087898a09985087898a09985087848a09985087898a09985087898a09985087898a09985087898a09985087898a09985087898a09985087898a09985087868a09985087898a09985087898a09985087898a09985087898a09985087898a09985087898a099850878a8a09985087898a09985087898a09985087898a09985087898a09985087898a09985087898a09985087898a09985087828a09985087898a09985087898a09985087898a09985087898a09985087898a09985087818a09985087898a09985087898a09985087898a09985087868a09985087898a09985087898a09985087898a09985087898a09985087898a09985087898a09985087898a09985087898a09985087878a09985087898a09985087898a09985087898a09985087898a09985087898a09985087898a09985087898a09985087898a09985087898a09985087868a09985087898a09985087898a09985087898a09985087878a09985087898a09985087898a09985087898a09985087898a09985087898a09985087898a09985087898a09985087898a09985087828a09985087898a09985087898a09985087898a09985087898a09985087828a09985087898a09985087898a09985087898a09985087898a09985087898a09985087868a09985087898a09985087898a09985087898a09985087848a09985087898a09985087898a09985087898a09985087898a09985087898a09985087898a09985087898a09985087898a09985087898a09985087898a09985087828a09985087898a09985087898a09985087898a09985087898a09985087868a09985087898a09985087898a09985087898a09985087898a09985087898a09985087838a09985087898a09985087898a09985087898a09985087898a09985087898a09985087898a09985087898a09985087828a09985087898a09985087898a099850878a8a09985087898a09985087898a09985087898a09985087898a09985087898a09985087898a09985087898a09985087848a09985087898a09985087898a09985087898a09985087898a09985087898a09985087898a09985087848a09985087898a09985087898a09985087898a09985087898a09985087898a09985087868a09985087898a09985087898a099850878a8a09985087898a09985087898a09985087898a09985087898a09985087898a09985087898a09985087898a09985087818a09985087898a09985087898a09985087898a09985087898a09985087898a09985087898a09985087858a09985087898a09985087898a09985087898a09985087898a09985087898a099850878a8a09985087898a09985087898a09985087898a09985087898a09985087898a09985087898a099850878a8a09985087898a09985087898a09985087898a09985087898a09985087898a09985087878a09985087898a09985087898a09985087898a09985087898a09985087898a09985087898a09985087898a09985087898a09985087898a09985087828a09985087898a09985087898a09985087898a09985087878a09985087898a09985087898a09985087898a09985087878a09985087898a09985087898a09985087898a09985087898a09985087898a09985087898a09985087898a09985087898a09985087858a09985087898a09985087898a09985087898a09985087898a09985087838a09985087898a09985087898a09985087898a09985087898a09985087858a09985087898a09985087898a09985087898a09985087868a09985087898a09985087898a099850878a8a09985087898a09985087898a09985087898a09985087898a09985087898a09985087898a09985087868a0998505050505050505050919050565b50565b50565b6040518060400160405280600290602082028036833780820191505090505090565b6040518060800160405280600490602082028036833780820191505090505090565b6040518060200160405280600190602082028036833780820191505090505090565b6000604051905090565b600080fd5b600080fd5b600080fd5b6000601f19601f8301169050919050565b7f4e487b7100000000000000000000000000000000000000000000000000000000600052604160045260246000fd5b61365e82613615565b810181811067ffffffffffffffff8211171561367d5761367c613626565b5b80604052505050565b60006136906135fc565b905061369c8282613655565b919050565b600067ffffffffffffffff8211156136bc576136bb613626565b5b602082029050919050565b600080fd5b6000819050919050565b6136df816136cc565b81146136ea57600080fd5b50565b6000813590506136fc816136d6565b92915050565b6000613715613710846136a1565b613686565b9050806020840283018581111561372f5761372e6136c7565b5b835b81811015613758578061374488826136ed565b845260208401935050602081019050613731565b5050509392505050565b600082601f83011261377757613776613610565b5b6002613784848285613702565b91505092915050565b600067ffffffffffffffff8211156137a8576137a7613626565b5b602082029050602081019050919050565b600067ffffffffffffffff8211156137d4576137d3613626565b5b602082029050919050565b60006137f26137ed846137b9565b613686565b9050806020840283018581111561380c5761380b6136c7565b5b835b81811015613835578061382188826136ed565b84526020840193505060208101905061380e565b5050509392505050565b600082601f83011261385457613853613610565b5b60046138618482856137df565b91505092915050565b600061387d6138788461378d565b613686565b905080838252602082019050608084028301858111156138a05761389f6136c7565b5b835b818110156138c957806138b5888261383f565b8452602084019350506080810190506138a2565b5050509392505050565b600082601f8301126138e8576138e7613610565b5b81356138f884826020860161386a565b91505092915050565b600067ffffffffffffffff82111561391c5761391b613626565b5b602082029050602081019050919050565b600061394061393b84613901565b613686565b90508083825260208201905060408402830185811115613963576139626136c7565b5b835b8181101561398c57806139788882613762565b845260208401935050604081019050613965565b5050509392505050565b600082601f8301126139ab576139aa613610565b5b81356139bb84826020860161392d565b91505092915050565b6000806000608084860312156139dd576139dc613606565b5b60006139eb86828701613762565b935050604084013567ffffffffffffffff811115613a0c57613a0b61360b565b5b613a18868287016138d3565b925050606084013567ffffffffffffffff811115613a3957613a3861360b565b5b613a4586828701613996565b9150509250925092565b60008115159050919050565b613a6481613a4f565b82525050565b6000602082019050613a7f6000830184613a5b565b92915050565b6000819050919050565b613a9881613a85565b8114613aa357600080fd5b50565b600081359050613ab581613a8f565b92915050565b600080fd5b600067ffffffffffffffff821115613adb57613ada613626565b5b613ae482613615565b9050602081019050919050565b82818337600083830152505050565b6000613b13613b0e84613ac0565b613686565b905082815260208101848484011115613b2f57613b2e613abb565b5b613b3a848285613af1565b509392505050565b600082601f830112613b5757613b56613610565b5b8135613b67848260208601613b00565b91505092915050565b60008060408385031215613b8757613b86613606565b5b6000613b9585828601613aa6565b925050602083013567ffffffffffffffff811115613bb657613bb561360b565b5b613bc285828601613b42565b9150509250929050565b600060029050919050565b600081905092915050565b6000819050919050565b613bf5816136cc565b82525050565b6000613c078383613bec565b60208301905092915050565b6000602082019050919050565b613c2981613bcc565b613c338184613bd7565b9250613c3e82613be2565b8060005b83811015613c6f578151613c568782613bfb565b9650613c6183613c13565b925050600181019050613c42565b505050505050565b6000604082019050613c8c6000830184613c20565b92915050565b600060808284031215613ca857613ca7613606565b5b6000613cb68482850161383f565b91505092915050565b60008060006101008486031215613cd957613cd8613606565b5b6000613ce786828701613762565b9350506040613cf88682870161383f565b92505060c0613d0986828701613762565b9150509250925092565b7f4e487b7100000000000000000000000000000000000000000000000000000000600052603260045260246000fd5b7f4e487b7100000000000000000000000000000000000000000000000000000000600052601160045260246000fd5b6000613d7c826136cc565b91507fffffffffffffffffffffffffffffffffffffffffffffffffffffffffffffffff821415613daf57613dae613d42565b5b600182019050919050565b600082825260208201905092915050565b7f424c533a206e756d626572206f66207075626c6963206b6579206973207a657260008201527f6f00000000000000000000000000000000000000000000000000000000000000602082015250565b6000613e27602183613dba565b9150613e3282613dcb565b604082019050919050565b60006020820190508181036000830152613e5681613e1a565b9050919050565b7f424c533a206e756d626572206f66207075626c6963206b65797320616e64206d60008201527f65737361676573206d75737420626520657175616c0000000000000000000000602082015250565b6000613eb9603583613dba565b9150613ec482613e5d565b604082019050919050565b60006020820190508181036000830152613ee881613eac565b9050919050565b6000613efa826136cc565b9150613f05836136cc565b9250827fffffffffffffffffffffffffffffffffffffffffffffffffffffffffffffffff03821115613f3a57613f39613d42565b5b828201905092915050565b6000613f50826136cc565b9150613f5b836136cc565b9250817fffffffffffffffffffffffffffffffffffffffffffffffffffffffffffffffff0483118215151615613f9457613f93613d42565b5b828202905092915050565b7f424c533a20626e206164642063616c6c206661696c6564000000000000000000600082015250565b6000613fd5601783613dba565b9150613fe082613f9f565b602082019050919050565b6000602082019050818103600083015261400481613fc8565b9050919050565b7f6d6170546f506f696e7446543a20696e76616c6964206669656c6420656c656d60008201527f656e740000000000000000000000000000000000000000000000000000000000602082015250565b6000614067602383613dba565b91506140728261400b565b604082019050919050565b600060208201905081810360008301526140968161405a565b9050919050565b7f4e487b7100000000000000000000000000000000000000000000000000000000600052601260045260246000fd5b60006140d7826136cc565b91506140e2836136cc565b9250828210156140f5576140f4613d42565b5b828203905092915050565b7f424c533a20626164206674206d617070696e6720696d706c656d656e7461746960008201527f6f6e000000000000000000000000000000000000000000000000000000000000602082015250565b600061415c602283613dba565b915061416782614100565b604082019050919050565b6000602082019050818103600083015261418b8161414f565b9050919050565b600081519050919050565b600081905092915050565b60005b838110156141c65780820151818401526020810190506141ab565b838111156141d5576000848401525b50505050565b60006141e682614192565b6141f0818561419d565b93506142008185602086016141a8565b80840191505092915050565b600061421882846141db565b915081905092915050565b60008151905061423281613a8f565b92915050565b60006020828403121561424e5761424d613606565b5b600061425c84828501614223565b9150509291505056fea26469706673582212201235ac3378a6e4ebc32f0215aecb3ff4cc041b0d479901c26e48ddabf0b8f16764736f6c634300080c0033",
  "linkReferences": {},
  "deployedLinkReferences": {}
}