{
  "_format": "hh-sol-artifact-1",
  "contractName": "TestOracle",
  "sourceName": "src/test/TestOracle.sol",
  "abi": [
    {
      "inputs": [
        {
          "internalType": "uint256",
          "name": "ethOutput",
          "type": "uint256"
        }
      ],
      "name": "getTokenValueOfEth",
      "outputs": [
        {
          "internalType": "uint256",
          "name": "tokenInput",
          "type": "uint256"
        }
      ],
      "stateMutability": "pure",
      "type": "function"
    }
  ],
  "bytecode": "0x608060405234801561001057600080fd5b50610206806100206000396000f3fe608060405234801561001057600080fd5b506004361061002b5760003560e01c8063d1eca9cf14610030575b600080fd5b61004a600480360381019061004591906100f0565b610060565b604051610057919061012c565b60405180910390f35b600061007667107b7dfa8e35d3cb60c01b6100b2565b61008a6731385f7c8ae9525a60c01b6100b2565b61009e67f3d9ab7bea38e8e060c01b6100b2565b6002826100ab9190610176565b9050919050565b50565b600080fd5b6000819050919050565b6100cd816100ba565b81146100d857600080fd5b50565b6000813590506100ea816100c4565b92915050565b600060208284031215610106576101056100b5565b5b6000610114848285016100db565b91505092915050565b610126816100ba565b82525050565b6000602082019050610141600083018461011d565b92915050565b7f4e487b7100000000000000000000000000000000000000000000000000000000600052601160045260246000fd5b6000610181826100ba565b915061018c836100ba565b9250817fffffffffffffffffffffffffffffffffffffffffffffffffffffffffffffffff04831182151516156101c5576101c4610147565b5b82820290509291505056fea2646970667358221220399c0ab1a97cbca326ddefeb6a661205e64f9839574fad107a4c55e0fabae51364736f6c634300080c0033",
  "linkReferences": {},
  "deployedLinkReferences": {}
}