{
  "_format": "hh-sol-artifact-1",
  "contractName": "EtherspotAccountFactory",
  "sourceName": "src/samples/EtherspotAccountFactory.sol",
  "abi": [
    {
      "inputs": [
        {
          "internalType": "contract IEntryPoint",
          "name": "_entryPoint",
          "type": "address"
        }
      ],
      "stateMutability": "nonpayable",
      "type": "constructor"
    },
    {
      "inputs": [],
      "name": "accountImplementation",
      "outputs": [
        {
          "internalType": "contract EtherspotAccount",
          "name": "",
          "type": "address"
        }
      ],
      "stateMutability": "view",
      "type": "function"
    },
    {
      "inputs": [
        {
          "internalType": "address",
          "name": "owner",
          "type": "address"
        },
        {
          "internalType": "uint256",
          "name": "salt",
          "type": "uint256"
        }
      ],
      "name": "createAccount",
      "outputs": [
        {
          "internalType": "contract EtherspotAccount",
          "name": "ret",
          "type": "address"
        }
      ],
      "stateMutability": "nonpayable",
      "type": "function"
    },
    {
      "inputs": [
        {
          "internalType": "address",
          "name": "owner",
          "type": "address"
        },
        {
          "internalType": "uint256",
          "name": "salt",
          "type": "uint256"
        }
      ],
      "name": "getAddress",
      "outputs": [
        {
          "internalType": "address",
          "name": "",
          "type": "address"
        }
      ],
      "stateMutability": "view",
      "type": "function"
    }
  ],
  "bytecode": "0x60a060405234801561001057600080fd5b506040516200437d3803806200437d83398181016040528101906100349190610124565b80604051610041906100a1565b61004b91906101b0565b604051809103906000f080158015610067573d6000803e3d6000fd5b5073ffffffffffffffffffffffffffffffffffffffff1660808173ffffffffffffffffffffffffffffffffffffffff1681525050506101cb565b612eb380620014ca83390190565b600080fd5b600073ffffffffffffffffffffffffffffffffffffffff82169050919050565b60006100df826100b4565b9050919050565b60006100f1826100d4565b9050919050565b610101816100e6565b811461010c57600080fd5b50565b60008151905061011e816100f8565b92915050565b60006020828403121561013a576101396100af565b5b60006101488482850161010f565b91505092915050565b6000819050919050565b600061017661017161016c846100b4565b610151565b6100b4565b9050919050565b60006101888261015b565b9050919050565b600061019a8261017d565b9050919050565b6101aa8161018f565b82525050565b60006020820190506101c560008301846101a1565b92915050565b6080516112d6620001f46000396000818160db01528181610145015261023601526112d66000f3fe60806040523480156200001157600080fd5b5060043610620000465760003560e01c806311464fbe146200004b5780635fbfb9cf146200006d5780638cb84e1814620000a3575b600080fd5b62000055620000d9565b604051620000649190620003e1565b60405180910390f35b6200008b600480360381019062000085919062000483565b620000fd565b6040516200009a9190620003e1565b60405180910390f35b620000c16004803603810190620000bb919062000483565b62000204565b604051620000d09190620004db565b60405180910390f35b7f000000000000000000000000000000000000000000000000000000000000000081565b6000806200010c848462000204565b905060008173ffffffffffffffffffffffffffffffffffffffff163b905060008111156200013f578192505050620001fe565b8360001b7f000000000000000000000000000000000000000000000000000000000000000086604051602401620001779190620004db565b60405160208183030381529060405263c4d66de860e01b6020820180517bffffffffffffffffffffffffffffffffffffffffffffffffffffffff8381831617835250505050604051620001ca9062000348565b620001d79291906200059c565b8190604051809103906000f5905080158015620001f8573d6000803e3d6000fd5b50925050505b92915050565b6000620002fe8260001b60405180602001620002209062000348565b6020820181038252601f19601f820116604052507f000000000000000000000000000000000000000000000000000000000000000086604051602401620002689190620004db565b60405160208183030381529060405263c4d66de860e01b6020820180517bffffffffffffffffffffffffffffffffffffffffffffffffffffffff8381831617835250505050604051602001620002c09291906200059c565b604051602081830303815290604052604051602001620002e292919062000612565b6040516020818303038152906040528051906020012062000306565b905092915050565b6000620003158383306200031d565b905092915050565b6000604051836040820152846020820152828152600b810160ff815360558120925050509392505050565b610c66806200063b83390190565b600073ffffffffffffffffffffffffffffffffffffffff82169050919050565b6000819050919050565b6000620003a16200039b620003958462000356565b62000376565b62000356565b9050919050565b6000620003b58262000380565b9050919050565b6000620003c982620003a8565b9050919050565b620003db81620003bc565b82525050565b6000602082019050620003f86000830184620003d0565b92915050565b600080fd5b6000620004108262000356565b9050919050565b620004228162000403565b81146200042e57600080fd5b50565b600081359050620004428162000417565b92915050565b6000819050919050565b6200045d8162000448565b81146200046957600080fd5b50565b6000813590506200047d8162000452565b92915050565b600080604083850312156200049d576200049c620003fe565b5b6000620004ad8582860162000431565b9250506020620004c0858286016200046c565b9150509250929050565b620004d58162000403565b82525050565b6000602082019050620004f26000830184620004ca565b92915050565b600081519050919050565b600082825260208201905092915050565b60005b838110156200053457808201518184015260208101905062000517565b8381111562000544576000848401525b50505050565b6000601f19601f8301169050919050565b60006200056882620004f8565b62000574818562000503565b93506200058681856020860162000514565b62000591816200054a565b840191505092915050565b6000604082019050620005b36000830185620004ca565b8181036020830152620005c781846200055b565b90509392505050565b600081905092915050565b6000620005e882620004f8565b620005f48185620005d0565b93506200060681856020860162000514565b80840191505092915050565b6000620006208285620005db565b91506200062e8284620005db565b9150819050939250505056fe608060405260405162000c6638038062000c6683398181016040528101906200002991906200058b565b6200003d828260006200004560201b60201c565b5050620007e2565b62000056836200008860201b60201c565b600082511180620000645750805b156200008357620000818383620000df60201b620000371760201c565b505b505050565b62000099816200011560201b60201c565b8073ffffffffffffffffffffffffffffffffffffffff167fbc7cd75a20ee27fd9adebab32041f755214dbc6bffa90cc0225b39da2e5c2d3b60405160405180910390a250565b60606200010d838360405180606001604052806027815260200162000c3f60279139620001eb60201b60201c565b905092915050565b6200012b816200027d60201b620000641760201c565b6200016d576040517f08c379a0000000000000000000000000000000000000000000000000000000008152600401620001649062000678565b60405180910390fd5b80620001a77f360894a13ba1a3210667c828492db98dca3e2076cc3735a920a3ca505d382bbc60001b620002a060201b620000871760201c565b60000160006101000a81548173ffffffffffffffffffffffffffffffffffffffff021916908373ffffffffffffffffffffffffffffffffffffffff16021790555050565b60606000808573ffffffffffffffffffffffffffffffffffffffff1685604051620002179190620006e7565b600060405180830381855af49150503d806000811462000254576040519150601f19603f3d011682016040523d82523d6000602084013e62000259565b606091505b50915091506200027286838387620002aa60201b60201c565b925050509392505050565b6000808273ffffffffffffffffffffffffffffffffffffffff163b119050919050565b6000819050919050565b606083156200031b576000835114156200031257620002cf856200027d60201b60201c565b62000311576040517f08c379a0000000000000000000000000000000000000000000000000000000008152600401620003089062000750565b60405180910390fd5b5b8290506200032e565b6200032d83836200033660201b60201c565b5b949350505050565b6000825111156200034a5781518083602001fd5b806040517f08c379a0000000000000000000000000000000000000000000000000000000008152600401620003809190620007be565b60405180910390fd5b6000604051905090565b600080fd5b600080fd5b600073ffffffffffffffffffffffffffffffffffffffff82169050919050565b6000620003ca826200039d565b9050919050565b620003dc81620003bd565b8114620003e857600080fd5b50565b600081519050620003fc81620003d1565b92915050565b600080fd5b600080fd5b6000601f19601f8301169050919050565b7f4e487b7100000000000000000000000000000000000000000000000000000000600052604160045260246000fd5b62000457826200040c565b810181811067ffffffffffffffff821117156200047957620004786200041d565b5b80604052505050565b60006200048e62000389565b90506200049c82826200044c565b919050565b600067ffffffffffffffff821115620004bf57620004be6200041d565b5b620004ca826200040c565b9050602081019050919050565b60005b83811015620004f7578082015181840152602081019050620004da565b8381111562000507576000848401525b50505050565b6000620005246200051e84620004a1565b62000482565b90508281526020810184848401111562000543576200054262000407565b5b62000550848285620004d7565b509392505050565b600082601f83011262000570576200056f62000402565b5b8151620005828482602086016200050d565b91505092915050565b60008060408385031215620005a557620005a462000393565b5b6000620005b585828601620003eb565b925050602083015167ffffffffffffffff811115620005d957620005d862000398565b5b620005e78582860162000558565b9150509250929050565b600082825260208201905092915050565b7f455243313936373a206e657720696d706c656d656e746174696f6e206973206e60008201527f6f74206120636f6e747261637400000000000000000000000000000000000000602082015250565b600062000660602d83620005f1565b91506200066d8262000602565b604082019050919050565b60006020820190508181036000830152620006938162000651565b9050919050565b600081519050919050565b600081905092915050565b6000620006bd826200069a565b620006c98185620006a5565b9350620006db818560208601620004d7565b80840191505092915050565b6000620006f58284620006b0565b915081905092915050565b7f416464726573733a2063616c6c20746f206e6f6e2d636f6e7472616374000000600082015250565b600062000738601d83620005f1565b9150620007458262000700565b602082019050919050565b600060208201905081810360008301526200076b8162000729565b9050919050565b600081519050919050565b60006200078a8262000772565b620007968185620005f1565b9350620007a8818560208601620004d7565b620007b3816200040c565b840191505092915050565b60006020820190508181036000830152620007da81846200077d565b905092915050565b61044d80620007f26000396000f3fe6080604052366100135761001161001d565b005b61001b61001d565b005b610025610091565b610035610030610093565b6100a2565b565b606061005c83836040518060600160405280602781526020016103f1602791396100c8565b905092915050565b6000808273ffffffffffffffffffffffffffffffffffffffff163b119050919050565b6000819050919050565b565b600061009d61014e565b905090565b3660008037600080366000845af43d6000803e80600081146100c3573d6000f35b3d6000fd5b60606000808573ffffffffffffffffffffffffffffffffffffffff16856040516100f291906102e5565b600060405180830381855af49150503d806000811461012d576040519150601f19603f3d011682016040523d82523d6000602084013e610132565b606091505b5091509150610143868383876101a5565b925050509392505050565b600061017c7f360894a13ba1a3210667c828492db98dca3e2076cc3735a920a3ca505d382bbc60001b610087565b60000160009054906101000a900473ffffffffffffffffffffffffffffffffffffffff16905090565b6060831561020857600083511415610200576101c085610064565b6101ff576040517f08c379a00000000000000000000000000000000000000000000000000000000081526004016101f690610359565b60405180910390fd5b5b829050610213565b610212838361021b565b5b949350505050565b60008251111561022e5781518083602001fd5b806040517f08c379a000000000000000000000000000000000000000000000000000000000815260040161026291906103ce565b60405180910390fd5b600081519050919050565b600081905092915050565b60005b8381101561029f578082015181840152602081019050610284565b838111156102ae576000848401525b50505050565b60006102bf8261026b565b6102c98185610276565b93506102d9818560208601610281565b80840191505092915050565b60006102f182846102b4565b915081905092915050565b600082825260208201905092915050565b7f416464726573733a2063616c6c20746f206e6f6e2d636f6e7472616374000000600082015250565b6000610343601d836102fc565b915061034e8261030d565b602082019050919050565b6000602082019050818103600083015261037281610336565b9050919050565b600081519050919050565b6000601f19601f8301169050919050565b60006103a082610379565b6103aa81856102fc565b93506103ba818560208601610281565b6103c381610384565b840191505092915050565b600060208201905081810360008301526103e88184610395565b90509291505056fe416464726573733a206c6f772d6c6576656c2064656c65676174652063616c6c206661696c6564a26469706673582212201416d1f550c439d457875313f522c464cb669b961fe701811b8b7f33461af0ab64736f6c634300080c0033416464726573733a206c6f772d6c6576656c2064656c65676174652063616c6c206661696c6564a26469706673582212206f678cb1dac8772f9a7c1f44f881d575356b03fb756b3f31045170d39196a63d64736f6c634300080c003360c06040523073ffffffffffffffffffffffffffffffffffffffff1660809073ffffffffffffffffffffffffffffffffffffffff168152503480156200004457600080fd5b5060405162002eb338038062002eb383398181016040528101906200006a919062000123565b8073ffffffffffffffffffffffffffffffffffffffff1660a08173ffffffffffffffffffffffffffffffffffffffff16815250505062000155565b600080fd5b600073ffffffffffffffffffffffffffffffffffffffff82169050919050565b6000620000d782620000aa565b9050919050565b6000620000eb82620000ca565b9050919050565b620000fd81620000de565b81146200010957600080fd5b50565b6000815190506200011d81620000f2565b92915050565b6000602082840312156200013c576200013b620000a5565b5b60006200014c848285016200010c565b91505092915050565b60805160a051612d156200019e6000396000818161090f0152611282015260008181610439015281816104c8015281816106c20152818161075101526108010152612d156000f3fe6080604052600436106100c65760003560e01c806352d1902d1161007f578063b0d691fe11610059578063b0d691fe14610231578063b61d27f61461025c578063c399ec8814610285578063c4d66de8146102b0576100cd565b806352d1902d146101b05780638da5cb5b146101db578063affed0e014610206576100cd565b80630825d1fc146100d257806318dfb3c71461010f5780633659cfe6146101385780634a58db19146101615780634d44560d1461016b5780634f1ef28614610194576100cd565b366100cd57005b600080fd5b3480156100de57600080fd5b506100f960048036038101906100f491906119a4565b6102d9565b6040516101069190611a36565b60405180910390f35b34801561011b57600080fd5b5061013660048036038101906101319190611b0c565b610325565b005b34801561014457600080fd5b5061015f600480360381019061015a9190611b8d565b610437565b005b6101696105c0565b005b34801561017757600080fd5b50610192600480360381019061018d9190611bf8565b610640565b005b6101ae60048036038101906101a99190611d79565b6106c0565b005b3480156101bc57600080fd5b506101c56107fd565b6040516101d29190611de4565b60405180910390f35b3480156101e757600080fd5b506101f06108b6565b6040516101fd9190611e0e565b60405180910390f35b34801561021257600080fd5b5061021b6108dc565b6040516102289190611a36565b60405180910390f35b34801561023d57600080fd5b5061024661090b565b6040516102539190611e88565b60405180910390f35b34801561026857600080fd5b50610283600480360381019061027e9190611ef9565b610933565b005b34801561029157600080fd5b5061029a610990565b6040516102a79190611a36565b60405180910390f35b3480156102bc57600080fd5b506102d760048036038101906102d29190611b8d565b610a18565b005b60006102e3610b58565b6102ee858585610bcf565b905060008580604001906103029190611f7c565b905014156103145761031385610cae565b5b61031d82610d5c565b949350505050565b61032d610df8565b818190508484905014610375576040517f08c379a000000000000000000000000000000000000000000000000000000000815260040161036c90612062565b60405180910390fd5b60005b848490508110156104305761041d85858381811061039957610398612082565b5b90506020020160208101906103ae9190611b8d565b60008585858181106103c3576103c2612082565b5b90506020028101906103d59190611f7c565b8080601f016020809104026020016040519081016040528093929190818152602001838380828437600081840152601f19601f82011690508083019250505050505050610ec7565b8080610428906120e0565b915050610378565b5050505050565b7f000000000000000000000000000000000000000000000000000000000000000073ffffffffffffffffffffffffffffffffffffffff163073ffffffffffffffffffffffffffffffffffffffff1614156104c6576040517f08c379a00000000000000000000000000000000000000000000000000000000081526004016104bd9061219b565b60405180910390fd5b7f000000000000000000000000000000000000000000000000000000000000000073ffffffffffffffffffffffffffffffffffffffff16610505610f4b565b73ffffffffffffffffffffffffffffffffffffffff161461055b576040517f08c379a00000000000000000000000000000000000000000000000000000000081526004016105529061222d565b60405180910390fd5b61056481610fa2565b6105bd81600067ffffffffffffffff81111561058357610582611c4e565b5b6040519080825280601f01601f1916602001820160405280156105b55781602001600182028036833780820191505090505b506000610fad565b50565b60006105ca61090b565b73ffffffffffffffffffffffffffffffffffffffff16346040516105ed9061227e565b60006040518083038185875af1925050503d806000811461062a576040519150601f19603f3d011682016040523d82523d6000602084013e61062f565b606091505b505090508061063d57600080fd5b50565b61064861111b565b61065061090b565b73ffffffffffffffffffffffffffffffffffffffff1663205c287883836040518363ffffffff1660e01b815260040161068a9291906122a2565b600060405180830381600087803b1580156106a457600080fd5b505af11580156106b8573d6000803e3d6000fd5b505050505050565b7f000000000000000000000000000000000000000000000000000000000000000073ffffffffffffffffffffffffffffffffffffffff163073ffffffffffffffffffffffffffffffffffffffff16141561074f576040517f08c379a00000000000000000000000000000000000000000000000000000000081526004016107469061219b565b60405180910390fd5b7f000000000000000000000000000000000000000000000000000000000000000073ffffffffffffffffffffffffffffffffffffffff1661078e610f4b565b73ffffffffffffffffffffffffffffffffffffffff16146107e4576040517f08c379a00000000000000000000000000000000000000000000000000000000081526004016107db9061222d565b60405180910390fd5b6107ed82610fa2565b6107f982826001610fad565b5050565b60007f000000000000000000000000000000000000000000000000000000000000000073ffffffffffffffffffffffffffffffffffffffff163073ffffffffffffffffffffffffffffffffffffffff161461088d576040517f08c379a00000000000000000000000000000000000000000000000000000000081526004016108849061233d565b60405180910390fd5b7f360894a13ba1a3210667c828492db98dca3e2076cc3735a920a3ca505d382bbc60001b905090565b600160009054906101000a900473ffffffffffffffffffffffffffffffffffffffff1681565b60008060029054906101000a90046bffffffffffffffffffffffff166bffffffffffffffffffffffff16905090565b60007f0000000000000000000000000000000000000000000000000000000000000000905090565b61093b610df8565b61098a848484848080601f016020809104026020016040519081016040528093929190818152602001838380828437600081840152601f19601f82011690508083019250505050505050610ec7565b50505050565b600061099a61090b565b73ffffffffffffffffffffffffffffffffffffffff166370a08231306040518263ffffffff1660e01b81526004016109d29190611e0e565b602060405180830381865afa1580156109ef573d6000803e3d6000fd5b505050506040513d601f19601f82011682018060405250810190610a139190612372565b905090565b60008060019054906101000a900460ff16159050808015610a495750600160008054906101000a900460ff1660ff16105b80610a765750610a58306111e3565b158015610a755750600160008054906101000a900460ff1660ff16145b5b610ab5576040517f08c379a0000000000000000000000000000000000000000000000000000000008152600401610aac90612411565b60405180910390fd5b60016000806101000a81548160ff021916908360ff1602179055508015610af2576001600060016101000a81548160ff0219169083151502179055505b610afb82611206565b8015610b545760008060016101000a81548160ff0219169083151502179055507f7f26b83ff96e1f2b6a682f133852f6798a09c465da95921460cefb38474024986001604051610b4b9190612479565b60405180910390a15b5050565b610b6061090b565b73ffffffffffffffffffffffffffffffffffffffff163373ffffffffffffffffffffffffffffffffffffffff1614610bcd576040517f08c379a0000000000000000000000000000000000000000000000000000000008152600401610bc490612506565b60405180910390fd5b565b600080610bdb846112e6565b9050610c4385806101400190610bf19190611f7c565b8080601f016020809104026020016040519081016040528093929190818152602001838380828437600081840152601f19601f820116905080830192505050505050508261131690919063ffffffff16565b73ffffffffffffffffffffffffffffffffffffffff16600160009054906101000a900473ffffffffffffffffffffffffffffffffffffffff1673ffffffffffffffffffffffffffffffffffffffff1614610ca1576001915050610ca7565b60009150505b9392505050565b80602001356000600281819054906101000a90046bffffffffffffffffffffffff1680929190610cdd9061253e565b91906101000a8154816bffffffffffffffffffffffff02191690836bffffffffffffffffffffffff1602179055506bffffffffffffffffffffffff1614610d59576040517f08c379a0000000000000000000000000000000000000000000000000000000008152600401610d50906125bf565b60405180910390fd5b50565b60008114610df55760003373ffffffffffffffffffffffffffffffffffffffff16827fffffffffffffffffffffffffffffffffffffffffffffffffffffffffffffffff90604051610dac9061227e565b600060405180830381858888f193505050503d8060008114610dea576040519150601f19603f3d011682016040523d82523d6000602084013e610def565b606091505b50509050505b50565b610e0061090b565b73ffffffffffffffffffffffffffffffffffffffff163373ffffffffffffffffffffffffffffffffffffffff161480610e865750600160009054906101000a900473ffffffffffffffffffffffffffffffffffffffff1673ffffffffffffffffffffffffffffffffffffffff163373ffffffffffffffffffffffffffffffffffffffff16145b610ec5576040517f08c379a0000000000000000000000000000000000000000000000000000000008152600401610ebc90612651565b60405180910390fd5b565b6000808473ffffffffffffffffffffffffffffffffffffffff168484604051610ef091906126e0565b60006040518083038185875af1925050503d8060008114610f2d576040519150601f19603f3d011682016040523d82523d6000602084013e610f32565b606091505b509150915081610f4457805160208201fd5b5050505050565b6000610f797f360894a13ba1a3210667c828492db98dca3e2076cc3735a920a3ca505d382bbc60001b61133d565b60000160009054906101000a900473ffffffffffffffffffffffffffffffffffffffff16905090565b610faa61111b565b50565b610fd97f4910fdfa16fed3260ed0e7147f7cc6da11a60208b5b9406d12a635614ffd914360001b611347565b60000160009054906101000a900460ff1615610ffd57610ff883611351565b611116565b8273ffffffffffffffffffffffffffffffffffffffff166352d1902d6040518163ffffffff1660e01b8152600401602060405180830381865afa92505050801561106557506040513d601f19601f82011682018060405250810190611062919061270c565b60015b6110a4576040517f08c379a000000000000000000000000000000000000000000000000000000000815260040161109b906127ab565b60405180910390fd5b7f360894a13ba1a3210667c828492db98dca3e2076cc3735a920a3ca505d382bbc60001b8114611109576040517f08c379a00000000000000000000000000000000000000000000000000000000081526004016111009061283d565b60405180910390fd5b5061111583838361140a565b5b505050565b600160009054906101000a900473ffffffffffffffffffffffffffffffffffffffff1673ffffffffffffffffffffffffffffffffffffffff163373ffffffffffffffffffffffffffffffffffffffff1614806111a257503073ffffffffffffffffffffffffffffffffffffffff163373ffffffffffffffffffffffffffffffffffffffff16145b6111e1576040517f08c379a00000000000000000000000000000000000000000000000000000000081526004016111d8906128a9565b60405180910390fd5b565b6000808273ffffffffffffffffffffffffffffffffffffffff163b119050919050565b80600160006101000a81548173ffffffffffffffffffffffffffffffffffffffff021916908373ffffffffffffffffffffffffffffffffffffffff160217905550600160009054906101000a900473ffffffffffffffffffffffffffffffffffffffff1673ffffffffffffffffffffffffffffffffffffffff167f000000000000000000000000000000000000000000000000000000000000000073ffffffffffffffffffffffffffffffffffffffff167fc053dd35e22ddb3ae5f46f48289137bbba99fdd1068c0f7d3069bb62dab393fd60405160405180910390a350565b6000816040516020016112f99190612941565b604051602081830303815290604052805190602001209050919050565b60008060006113258585611436565b9150915061133281611488565b819250505092915050565b6000819050919050565b6000819050919050565b61135a816111e3565b611399576040517f08c379a0000000000000000000000000000000000000000000000000000000008152600401611390906129d9565b60405180910390fd5b806113c67f360894a13ba1a3210667c828492db98dca3e2076cc3735a920a3ca505d382bbc60001b61133d565b60000160006101000a81548173ffffffffffffffffffffffffffffffffffffffff021916908373ffffffffffffffffffffffffffffffffffffffff16021790555050565b611413836115f6565b6000825111806114205750805b156114315761142f8383611645565b505b505050565b6000806041835114156114785760008060006020860151925060408601519150606086015160001a905061146c87828585611672565b94509450505050611481565b60006002915091505b9250929050565b6000600481111561149c5761149b6129f9565b5b8160048111156114af576114ae6129f9565b5b14156114ba576115f3565b600160048111156114ce576114cd6129f9565b5b8160048111156114e1576114e06129f9565b5b1415611522576040517f08c379a000000000000000000000000000000000000000000000000000000000815260040161151990612a74565b60405180910390fd5b60026004811115611536576115356129f9565b5b816004811115611549576115486129f9565b5b141561158a576040517f08c379a000000000000000000000000000000000000000000000000000000000815260040161158190612ae0565b60405180910390fd5b6003600481111561159e5761159d6129f9565b5b8160048111156115b1576115b06129f9565b5b14156115f2576040517f08c379a00000000000000000000000000000000000000000000000000000000081526004016115e990612b72565b60405180910390fd5b5b50565b6115ff81611351565b8073ffffffffffffffffffffffffffffffffffffffff167fbc7cd75a20ee27fd9adebab32041f755214dbc6bffa90cc0225b39da2e5c2d3b60405160405180910390a250565b606061166a8383604051806060016040528060278152602001612cb960279139611755565b905092915050565b6000807f7fffffffffffffffffffffffffffffff5d576e7357a4501ddfe92f46681b20a08360001c11156116ad57600060039150915061174c565b6000600187878787604051600081526020016040526040516116d29493929190612ba1565b6020604051602081039080840390855afa1580156116f4573d6000803e3d6000fd5b505050602060405103519050600073ffffffffffffffffffffffffffffffffffffffff168173ffffffffffffffffffffffffffffffffffffffff1614156117435760006001925092505061174c565b80600092509250505b94509492505050565b60606000808573ffffffffffffffffffffffffffffffffffffffff168560405161177f91906126e0565b600060405180830381855af49150503d80600081146117ba576040519150601f19603f3d011682016040523d82523d6000602084013e6117bf565b606091505b50915091506117d0868383876117db565b925050509392505050565b6060831561183e57600083511415611836576117f6856111e3565b611835576040517f08c379a000000000000000000000000000000000000000000000000000000000815260040161182c90612c32565b60405180910390fd5b5b829050611849565b6118488383611851565b5b949350505050565b6000825111156118645781518083602001fd5b806040517f08c379a00000000000000000000000000000000000000000000000000000000081526004016118989190612c96565b60405180910390fd5b6000604051905090565b600080fd5b600080fd5b600080fd5b600061016082840312156118d1576118d06118b5565b5b81905092915050565b6000819050919050565b6118ed816118da565b81146118f857600080fd5b50565b60008135905061190a816118e4565b92915050565b600073ffffffffffffffffffffffffffffffffffffffff82169050919050565b600061193b82611910565b9050919050565b61194b81611930565b811461195657600080fd5b50565b60008135905061196881611942565b92915050565b6000819050919050565b6119818161196e565b811461198c57600080fd5b50565b60008135905061199e81611978565b92915050565b600080600080608085870312156119be576119bd6118ab565b5b600085013567ffffffffffffffff8111156119dc576119db6118b0565b5b6119e8878288016118ba565b94505060206119f9878288016118fb565b9350506040611a0a87828801611959565b9250506060611a1b8782880161198f565b91505092959194509250565b611a308161196e565b82525050565b6000602082019050611a4b6000830184611a27565b92915050565b600080fd5b600080fd5b600080fd5b60008083601f840112611a7657611a75611a51565b5b8235905067ffffffffffffffff811115611a9357611a92611a56565b5b602083019150836020820283011115611aaf57611aae611a5b565b5b9250929050565b60008083601f840112611acc57611acb611a51565b5b8235905067ffffffffffffffff811115611ae957611ae8611a56565b5b602083019150836020820283011115611b0557611b04611a5b565b5b9250929050565b60008060008060408587031215611b2657611b256118ab565b5b600085013567ffffffffffffffff811115611b4457611b436118b0565b5b611b5087828801611a60565b9450945050602085013567ffffffffffffffff811115611b7357611b726118b0565b5b611b7f87828801611ab6565b925092505092959194509250565b600060208284031215611ba357611ba26118ab565b5b6000611bb184828501611959565b91505092915050565b6000611bc582611910565b9050919050565b611bd581611bba565b8114611be057600080fd5b50565b600081359050611bf281611bcc565b92915050565b60008060408385031215611c0f57611c0e6118ab565b5b6000611c1d85828601611be3565b9250506020611c2e8582860161198f565b9150509250929050565b600080fd5b6000601f19601f8301169050919050565b7f4e487b7100000000000000000000000000000000000000000000000000000000600052604160045260246000fd5b611c8682611c3d565b810181811067ffffffffffffffff82111715611ca557611ca4611c4e565b5b80604052505050565b6000611cb86118a1565b9050611cc48282611c7d565b919050565b600067ffffffffffffffff821115611ce457611ce3611c4e565b5b611ced82611c3d565b9050602081019050919050565b82818337600083830152505050565b6000611d1c611d1784611cc9565b611cae565b905082815260208101848484011115611d3857611d37611c38565b5b611d43848285611cfa565b509392505050565b600082601f830112611d6057611d5f611a51565b5b8135611d70848260208601611d09565b91505092915050565b60008060408385031215611d9057611d8f6118ab565b5b6000611d9e85828601611959565b925050602083013567ffffffffffffffff811115611dbf57611dbe6118b0565b5b611dcb85828601611d4b565b9150509250929050565b611dde816118da565b82525050565b6000602082019050611df96000830184611dd5565b92915050565b611e0881611930565b82525050565b6000602082019050611e236000830184611dff565b92915050565b6000819050919050565b6000611e4e611e49611e4484611910565b611e29565b611910565b9050919050565b6000611e6082611e33565b9050919050565b6000611e7282611e55565b9050919050565b611e8281611e67565b82525050565b6000602082019050611e9d6000830184611e79565b92915050565b60008083601f840112611eb957611eb8611a51565b5b8235905067ffffffffffffffff811115611ed657611ed5611a56565b5b602083019150836001820283011115611ef257611ef1611a5b565b5b9250929050565b60008060008060608587031215611f1357611f126118ab565b5b6000611f2187828801611959565b9450506020611f328782880161198f565b935050604085013567ffffffffffffffff811115611f5357611f526118b0565b5b611f5f87828801611ea3565b925092505092959194509250565b600080fd5b600080fd5b600080fd5b60008083356001602003843603038112611f9957611f98611f6d565b5b80840192508235915067ffffffffffffffff821115611fbb57611fba611f72565b5b602083019250600182023603831315611fd757611fd6611f77565b5b509250929050565b600082825260208201905092915050565b7f457468657273706f744163636f756e743a3a206578656375746542617463682060008201527f2d2077726f6e67206172726179206c656e677468730000000000000000000000602082015250565b600061204c603583611fdf565b915061205782611ff0565b604082019050919050565b6000602082019050818103600083015261207b8161203f565b9050919050565b7f4e487b7100000000000000000000000000000000000000000000000000000000600052603260045260246000fd5b7f4e487b7100000000000000000000000000000000000000000000000000000000600052601160045260246000fd5b60006120eb8261196e565b91507fffffffffffffffffffffffffffffffffffffffffffffffffffffffffffffffff82141561211e5761211d6120b1565b5b600182019050919050565b7f46756e6374696f6e206d7573742062652063616c6c6564207468726f7567682060008201527f64656c656761746563616c6c0000000000000000000000000000000000000000602082015250565b6000612185602c83611fdf565b915061219082612129565b604082019050919050565b600060208201905081810360008301526121b481612178565b9050919050565b7f46756e6374696f6e206d7573742062652063616c6c6564207468726f7567682060008201527f6163746976652070726f78790000000000000000000000000000000000000000602082015250565b6000612217602c83611fdf565b9150612222826121bb565b604082019050919050565b600060208201905081810360008301526122468161220a565b9050919050565b600081905092915050565b50565b600061226860008361224d565b915061227382612258565b600082019050919050565b60006122898261225b565b9150819050919050565b61229c81611bba565b82525050565b60006040820190506122b76000830185612293565b6122c46020830184611a27565b9392505050565b7f555550535570677261646561626c653a206d757374206e6f742062652063616c60008201527f6c6564207468726f7567682064656c656761746563616c6c0000000000000000602082015250565b6000612327603883611fdf565b9150612332826122cb565b604082019050919050565b600060208201905081810360008301526123568161231a565b9050919050565b60008151905061236c81611978565b92915050565b600060208284031215612388576123876118ab565b5b60006123968482850161235d565b91505092915050565b7f496e697469616c697a61626c653a20636f6e747261637420697320616c72656160008201527f647920696e697469616c697a6564000000000000000000000000000000000000602082015250565b60006123fb602e83611fdf565b91506124068261239f565b604082019050919050565b6000602082019050818103600083015261242a816123ee565b9050919050565b6000819050919050565b600060ff82169050919050565b600061246361245e61245984612431565b611e29565b61243b565b9050919050565b61247381612448565b82525050565b600060208201905061248e600083018461246a565b92915050565b7f457468657273706f744163636f756e743a204e6f742066726f6d20456e74727960008201527f506f696e74000000000000000000000000000000000000000000000000000000602082015250565b60006124f0602583611fdf565b91506124fb82612494565b604082019050919050565b6000602082019050818103600083015261251f816124e3565b9050919050565b60006bffffffffffffffffffffffff82169050919050565b600061254982612526565b91506bffffffffffffffffffffffff821415612568576125676120b1565b5b600182019050919050565b7f457468657273706f744163636f756e743a3a20496e76616c6964206e6f6e6365600082015250565b60006125a9602083611fdf565b91506125b482612573565b602082019050919050565b600060208201905081810360008301526125d88161259c565b9050919050565b7f457468657273706f744163636f756e743a3a204e6f74204f776e6572206f722060008201527f456e747279506f696e7400000000000000000000000000000000000000000000602082015250565b600061263b602a83611fdf565b9150612646826125df565b604082019050919050565b6000602082019050818103600083015261266a8161262e565b9050919050565b600081519050919050565b60005b8381101561269a57808201518184015260208101905061267f565b838111156126a9576000848401525b50505050565b60006126ba82612671565b6126c4818561224d565b93506126d481856020860161267c565b80840191505092915050565b60006126ec82846126af565b915081905092915050565b600081519050612706816118e4565b92915050565b600060208284031215612722576127216118ab565b5b6000612730848285016126f7565b91505092915050565b7f45524331393637557067726164653a206e657720696d706c656d656e7461746960008201527f6f6e206973206e6f742055555053000000000000000000000000000000000000602082015250565b6000612795602e83611fdf565b91506127a082612739565b604082019050919050565b600060208201905081810360008301526127c481612788565b9050919050565b7f45524331393637557067726164653a20756e737570706f727465642070726f7860008201527f6961626c65555549440000000000000000000000000000000000000000000000602082015250565b6000612827602983611fdf565b9150612832826127cb565b604082019050919050565b600060208201905081810360008301526128568161281a565b9050919050565b7f457468657273706f744163636f756e743a3a204f6e6c79206f776e6572000000600082015250565b6000612893601d83611fdf565b915061289e8261285d565b602082019050919050565b600060208201905081810360008301526128c281612886565b9050919050565b600081905092915050565b7f19457468657265756d205369676e6564204d6573736167653a0a333200000000600082015250565b600061290a601c836128c9565b9150612915826128d4565b601c82019050919050565b6000819050919050565b61293b612936826118da565b612920565b82525050565b600061294c826128fd565b9150612958828461292a565b60208201915081905092915050565b7f455243313936373a206e657720696d706c656d656e746174696f6e206973206e60008201527f6f74206120636f6e747261637400000000000000000000000000000000000000602082015250565b60006129c3602d83611fdf565b91506129ce82612967565b604082019050919050565b600060208201905081810360008301526129f2816129b6565b9050919050565b7f4e487b7100000000000000000000000000000000000000000000000000000000600052602160045260246000fd5b7f45434453413a20696e76616c6964207369676e61747572650000000000000000600082015250565b6000612a5e601883611fdf565b9150612a6982612a28565b602082019050919050565b60006020820190508181036000830152612a8d81612a51565b9050919050565b7f45434453413a20696e76616c6964207369676e6174757265206c656e67746800600082015250565b6000612aca601f83611fdf565b9150612ad582612a94565b602082019050919050565b60006020820190508181036000830152612af981612abd565b9050919050565b7f45434453413a20696e76616c6964207369676e6174757265202773272076616c60008201527f7565000000000000000000000000000000000000000000000000000000000000602082015250565b6000612b5c602283611fdf565b9150612b6782612b00565b604082019050919050565b60006020820190508181036000830152612b8b81612b4f565b9050919050565b612b9b8161243b565b82525050565b6000608082019050612bb66000830187611dd5565b612bc36020830186612b92565b612bd06040830185611dd5565b612bdd6060830184611dd5565b95945050505050565b7f416464726573733a2063616c6c20746f206e6f6e2d636f6e7472616374000000600082015250565b6000612c1c601d83611fdf565b9150612c2782612be6565b602082019050919050565b60006020820190508181036000830152612c4b81612c0f565b9050919050565b600081519050919050565b6000612c6882612c52565b612c728185611fdf565b9350612c8281856020860161267c565b612c8b81611c3d565b840191505092915050565b60006020820190508181036000830152612cb08184612c5d565b90509291505056fe416464726573733a206c6f772d6c6576656c2064656c65676174652063616c6c206661696c6564a26469706673582212206688faa295e73c16afad01a0eab4c475a55b77fe81182fbecfb2f9c1280b30b064736f6c634300080c0033",
  "linkReferences": {},
  "deployedLinkReferences": {}
}