{
  "_format": "hh-sol-artifact-1",
  "contractName": "TestExpirePaymaster",
  "sourceName": "src/test/TestExpirePaymaster.sol",
  "abi": [
    {
      "inputs": [
        {
          "internalType": "contract IEntryPoint",
          "name": "_entryPoint",
          "type": "address"
        }
      ],
      "stateMutability": "nonpayable",
      "type": "constructor"
    },
    {
      "anonymous": false,
      "inputs": [
        {
          "indexed": true,
          "internalType": "address",
          "name": "previousOwner",
          "type": "address"
        },
        {
          "indexed": true,
          "internalType": "address",
          "name": "newOwner",
          "type": "address"
        }
      ],
      "name": "OwnershipTransferred",
      "type": "event"
    },
    {
      "inputs": [
        {
          "internalType": "uint32",
          "name": "unstakeDelaySec",
          "type": "uint32"
        }
      ],
      "name": "addStake",
      "outputs": [],
      "stateMutability": "payable",
      "type": "function"
    },
    {
      "inputs": [],
      "name": "deposit",
      "outputs": [],
      "stateMutability": "payable",
      "type": "function"
    },
    {
      "inputs": [],
      "name": "entryPoint",
      "outputs": [
        {
          "internalType": "contract IEntryPoint",
          "name": "",
          "type": "address"
        }
      ],
      "stateMutability": "view",
      "type": "function"
    },
    {
      "inputs": [],
      "name": "getDeposit",
      "outputs": [
        {
          "internalType": "uint256",
          "name": "",
          "type": "uint256"
        }
      ],
      "stateMutability": "view",
      "type": "function"
    },
    {
      "inputs": [],
      "name": "owner",
      "outputs": [
        {
          "internalType": "address",
          "name": "",
          "type": "address"
        }
      ],
      "stateMutability": "view",
      "type": "function"
    },
    {
      "inputs": [
        {
          "internalType": "enum IPaymaster.PostOpMode",
          "name": "mode",
          "type": "uint8"
        },
        {
          "internalType": "bytes",
          "name": "context",
          "type": "bytes"
        },
        {
          "internalType": "uint256",
          "name": "actualGasCost",
          "type": "uint256"
        }
      ],
      "name": "postOp",
      "outputs": [],
      "stateMutability": "nonpayable",
      "type": "function"
    },
    {
      "inputs": [],
      "name": "renounceOwnership",
      "outputs": [],
      "stateMutability": "nonpayable",
      "type": "function"
    },
    {
      "inputs": [
        {
          "internalType": "contract IEntryPoint",
          "name": "_entryPoint",
          "type": "address"
        }
      ],
      "name": "setEntryPoint",
      "outputs": [],
      "stateMutability": "nonpayable",
      "type": "function"
    },
    {
      "inputs": [
        {
          "internalType": "address",
          "name": "newOwner",
          "type": "address"
        }
      ],
      "name": "transferOwnership",
      "outputs": [],
      "stateMutability": "nonpayable",
      "type": "function"
    },
    {
      "inputs": [],
      "name": "unlockStake",
      "outputs": [],
      "stateMutability": "nonpayable",
      "type": "function"
    },
    {
      "inputs": [
        {
          "components": [
            {
              "internalType": "address",
              "name": "sender",
              "type": "address"
            },
            {
              "internalType": "uint256",
              "name": "nonce",
              "type": "uint256"
            },
            {
              "internalType": "bytes",
              "name": "initCode",
              "type": "bytes"
            },
            {
              "internalType": "bytes",
              "name": "callData",
              "type": "bytes"
            },
            {
              "internalType": "uint256",
              "name": "callGasLimit",
              "type": "uint256"
            },
            {
              "internalType": "uint256",
              "name": "verificationGasLimit",
              "type": "uint256"
            },
            {
              "internalType": "uint256",
              "name": "preVerificationGas",
              "type": "uint256"
            },
            {
              "internalType": "uint256",
              "name": "maxFeePerGas",
              "type": "uint256"
            },
            {
              "internalType": "uint256",
              "name": "maxPriorityFeePerGas",
              "type": "uint256"
            },
            {
              "internalType": "bytes",
              "name": "paymasterAndData",
              "type": "bytes"
            },
            {
              "internalType": "bytes",
              "name": "signature",
              "type": "bytes"
            }
          ],
          "internalType": "struct UserOperation",
          "name": "userOp",
          "type": "tuple"
        },
        {
          "internalType": "bytes32",
          "name": "userOpHash",
          "type": "bytes32"
        },
        {
          "internalType": "uint256",
          "name": "maxCost",
          "type": "uint256"
        }
      ],
      "name": "validatePaymasterUserOp",
      "outputs": [
        {
          "internalType": "bytes",
          "name": "context",
          "type": "bytes"
        },
        {
          "internalType": "uint256",
          "name": "sigTimeRange",
          "type": "uint256"
        }
      ],
      "stateMutability": "view",
      "type": "function"
    },
    {
      "inputs": [
        {
          "internalType": "address payable",
          "name": "withdrawAddress",
          "type": "address"
        }
      ],
      "name": "withdrawStake",
      "outputs": [],
      "stateMutability": "nonpayable",
      "type": "function"
    },
    {
      "inputs": [
        {
          "internalType": "address payable",
          "name": "withdrawAddress",
          "type": "address"
        },
        {
          "internalType": "uint256",
          "name": "amount",
          "type": "uint256"
        }
      ],
      "name": "withdrawTo",
      "outputs": [],
      "stateMutability": "nonpayable",
      "type": "function"
    }
  ],
  "bytecode": "0x60806040523480156200001157600080fd5b50604051620016de380380620016de8339818101604052810190620000379190620002c9565b80620000586200004c6200007160201b60201c565b6200007960201b60201c565b62000069816200013d60201b60201c565b50506200037e565b600033905090565b60008060009054906101000a900473ffffffffffffffffffffffffffffffffffffffff169050816000806101000a81548173ffffffffffffffffffffffffffffffffffffffff021916908373ffffffffffffffffffffffffffffffffffffffff1602179055508173ffffffffffffffffffffffffffffffffffffffff168173ffffffffffffffffffffffffffffffffffffffff167f8be0079c531659141344cd1fd0a4f28419497f9722a3daafe3b4186f6b6457e060405160405180910390a35050565b6200014d6200019160201b60201c565b80600160006101000a81548173ffffffffffffffffffffffffffffffffffffffff021916908373ffffffffffffffffffffffffffffffffffffffff16021790555050565b620001a16200007160201b60201c565b73ffffffffffffffffffffffffffffffffffffffff16620001c76200022260201b60201c565b73ffffffffffffffffffffffffffffffffffffffff161462000220576040517f08c379a000000000000000000000000000000000000000000000000000000000815260040162000217906200035c565b60405180910390fd5b565b60008060009054906101000a900473ffffffffffffffffffffffffffffffffffffffff16905090565b600080fd5b600073ffffffffffffffffffffffffffffffffffffffff82169050919050565b60006200027d8262000250565b9050919050565b6000620002918262000270565b9050919050565b620002a38162000284565b8114620002af57600080fd5b50565b600081519050620002c38162000298565b92915050565b600060208284031215620002e257620002e16200024b565b5b6000620002f284828501620002b2565b91505092915050565b600082825260208201905092915050565b7f4f776e61626c653a2063616c6c6572206973206e6f7420746865206f776e6572600082015250565b600062000344602083620002fb565b915062000351826200030c565b602082019050919050565b60006020820190508181036000830152620003778162000335565b9050919050565b611350806200038e6000396000f3fe6080604052600436106100c25760003560e01c8063b0d691fe1161007f578063c399ec8811610059578063c399ec881461020b578063d0e30db014610236578063f2fde38b14610240578063f465c77e14610269576100c2565b8063b0d691fe146101a0578063bb9fe6bf146101cb578063c23a5cea146101e2576100c2565b80630396cb60146100c7578063205c2878146100e3578063584465f21461010c578063715018a6146101355780638da5cb5b1461014c578063a9a2340914610177575b600080fd5b6100e160048036038101906100dc9190610a46565b6102a7565b005b3480156100ef57600080fd5b5061010a60048036038101906101059190610b07565b610340565b005b34801561011857600080fd5b50610133600480360381019061012e9190610b97565b6103db565b005b34801561014157600080fd5b5061014a610427565b005b34801561015857600080fd5b5061016161043b565b60405161016e9190610bd3565b60405180910390f35b34801561018357600080fd5b5061019e60048036038101906101999190610c78565b610464565b005b3480156101ac57600080fd5b506101b561047e565b6040516101c29190610d4b565b60405180910390f35b3480156101d757600080fd5b506101e06104a4565b005b3480156101ee57600080fd5b5061020960048036038101906102049190610d66565b610530565b005b34801561021757600080fd5b506102206105c8565b60405161022d9190610da2565b60405180910390f35b61023e61066b565b005b34801561024c57600080fd5b5061026760048036038101906102629190610de9565b6106fb565b005b34801561027557600080fd5b50610290600480360381019061028b9190610e71565b61077f565b60405161029e929190610f79565b60405180910390f35b6102af6107f6565b600160009054906101000a900473ffffffffffffffffffffffffffffffffffffffff1673ffffffffffffffffffffffffffffffffffffffff16630396cb6034836040518363ffffffff1660e01b815260040161030b9190610fb8565b6000604051808303818588803b15801561032457600080fd5b505af1158015610338573d6000803e3d6000fd5b505050505050565b6103486107f6565b600160009054906101000a900473ffffffffffffffffffffffffffffffffffffffff1673ffffffffffffffffffffffffffffffffffffffff1663205c287883836040518363ffffffff1660e01b81526004016103a5929190610fe2565b600060405180830381600087803b1580156103bf57600080fd5b505af11580156103d3573d6000803e3d6000fd5b505050505050565b6103e36107f6565b80600160006101000a81548173ffffffffffffffffffffffffffffffffffffffff021916908373ffffffffffffffffffffffffffffffffffffffff16021790555050565b61042f6107f6565b6104396000610874565b565b60008060009054906101000a900473ffffffffffffffffffffffffffffffffffffffff16905090565b61046c610938565b61047884848484610994565b50505050565b600160009054906101000a900473ffffffffffffffffffffffffffffffffffffffff1681565b6104ac6107f6565b600160009054906101000a900473ffffffffffffffffffffffffffffffffffffffff1673ffffffffffffffffffffffffffffffffffffffff1663bb9fe6bf6040518163ffffffff1660e01b8152600401600060405180830381600087803b15801561051657600080fd5b505af115801561052a573d6000803e3d6000fd5b50505050565b6105386107f6565b600160009054906101000a900473ffffffffffffffffffffffffffffffffffffffff1673ffffffffffffffffffffffffffffffffffffffff1663c23a5cea826040518263ffffffff1660e01b8152600401610593919061100b565b600060405180830381600087803b1580156105ad57600080fd5b505af11580156105c1573d6000803e3d6000fd5b5050505050565b6000600160009054906101000a900473ffffffffffffffffffffffffffffffffffffffff1673ffffffffffffffffffffffffffffffffffffffff166370a08231306040518263ffffffff1660e01b81526004016106259190610bd3565b602060405180830381865afa158015610642573d6000803e3d6000fd5b505050506040513d601f19601f82011682018060405250810190610666919061103b565b905090565b600160009054906101000a900473ffffffffffffffffffffffffffffffffffffffff1673ffffffffffffffffffffffffffffffffffffffff1663b760faf934306040518363ffffffff1660e01b81526004016106c79190610bd3565b6000604051808303818588803b1580156106e057600080fd5b505af11580156106f4573d6000803e3d6000fd5b5050505050565b6107036107f6565b600073ffffffffffffffffffffffffffffffffffffffff168173ffffffffffffffffffffffffffffffffffffffff161415610773576040517f08c379a000000000000000000000000000000000000000000000000000000000815260040161076a906110eb565b60405180910390fd5b61077c81610874565b50565b60606000808086806101200190610796919061111a565b60149080926107a793929190611187565b8101906107b49190611202565b915091506107d860008267ffffffffffffffff168467ffffffffffffffff166109cf565b92506040518060200160405280600081525093505050935093915050565b6107fe6109f8565b73ffffffffffffffffffffffffffffffffffffffff1661081c61043b565b73ffffffffffffffffffffffffffffffffffffffff1614610872576040517f08c379a00000000000000000000000000000000000000000000000000000000081526004016108699061128e565b60405180910390fd5b565b60008060009054906101000a900473ffffffffffffffffffffffffffffffffffffffff169050816000806101000a81548173ffffffffffffffffffffffffffffffffffffffff021916908373ffffffffffffffffffffffffffffffffffffffff1602179055508173ffffffffffffffffffffffffffffffffffffffff168173ffffffffffffffffffffffffffffffffffffffff167f8be0079c531659141344cd1fd0a4f28419497f9722a3daafe3b4186f6b6457e060405160405180910390a35050565b600160009054906101000a900473ffffffffffffffffffffffffffffffffffffffff1673ffffffffffffffffffffffffffffffffffffffff163373ffffffffffffffffffffffffffffffffffffffff161461099257600080fd5b565b6040517f08c379a00000000000000000000000000000000000000000000000000000000081526004016109c6906112fa565b60405180910390fd5b6000604882901b600884901b856109e75760006109ea565b60015b60ff16171790509392505050565b600033905090565b600080fd5b600080fd5b600063ffffffff82169050919050565b610a2381610a0a565b8114610a2e57600080fd5b50565b600081359050610a4081610a1a565b92915050565b600060208284031215610a5c57610a5b610a00565b5b6000610a6a84828501610a31565b91505092915050565b600073ffffffffffffffffffffffffffffffffffffffff82169050919050565b6000610a9e82610a73565b9050919050565b610aae81610a93565b8114610ab957600080fd5b50565b600081359050610acb81610aa5565b92915050565b6000819050919050565b610ae481610ad1565b8114610aef57600080fd5b50565b600081359050610b0181610adb565b92915050565b60008060408385031215610b1e57610b1d610a00565b5b6000610b2c85828601610abc565b9250506020610b3d85828601610af2565b9150509250929050565b6000610b5282610a73565b9050919050565b6000610b6482610b47565b9050919050565b610b7481610b59565b8114610b7f57600080fd5b50565b600081359050610b9181610b6b565b92915050565b600060208284031215610bad57610bac610a00565b5b6000610bbb84828501610b82565b91505092915050565b610bcd81610b47565b82525050565b6000602082019050610be86000830184610bc4565b92915050565b60038110610bfb57600080fd5b50565b600081359050610c0d81610bee565b92915050565b600080fd5b600080fd5b600080fd5b60008083601f840112610c3857610c37610c13565b5b8235905067ffffffffffffffff811115610c5557610c54610c18565b5b602083019150836001820283011115610c7157610c70610c1d565b5b9250929050565b60008060008060608587031215610c9257610c91610a00565b5b6000610ca087828801610bfe565b945050602085013567ffffffffffffffff811115610cc157610cc0610a05565b5b610ccd87828801610c22565b93509350506040610ce087828801610af2565b91505092959194509250565b6000819050919050565b6000610d11610d0c610d0784610a73565b610cec565b610a73565b9050919050565b6000610d2382610cf6565b9050919050565b6000610d3582610d18565b9050919050565b610d4581610d2a565b82525050565b6000602082019050610d606000830184610d3c565b92915050565b600060208284031215610d7c57610d7b610a00565b5b6000610d8a84828501610abc565b91505092915050565b610d9c81610ad1565b82525050565b6000602082019050610db76000830184610d93565b92915050565b610dc681610b47565b8114610dd157600080fd5b50565b600081359050610de381610dbd565b92915050565b600060208284031215610dff57610dfe610a00565b5b6000610e0d84828501610dd4565b91505092915050565b600080fd5b60006101608284031215610e3257610e31610e16565b5b81905092915050565b6000819050919050565b610e4e81610e3b565b8114610e5957600080fd5b50565b600081359050610e6b81610e45565b92915050565b600080600060608486031215610e8a57610e89610a00565b5b600084013567ffffffffffffffff811115610ea857610ea7610a05565b5b610eb486828701610e1b565b9350506020610ec586828701610e5c565b9250506040610ed686828701610af2565b9150509250925092565b600081519050919050565b600082825260208201905092915050565b60005b83811015610f1a578082015181840152602081019050610eff565b83811115610f29576000848401525b50505050565b6000601f19601f8301169050919050565b6000610f4b82610ee0565b610f558185610eeb565b9350610f65818560208601610efc565b610f6e81610f2f565b840191505092915050565b60006040820190508181036000830152610f938185610f40565b9050610fa26020830184610d93565b9392505050565b610fb281610a0a565b82525050565b6000602082019050610fcd6000830184610fa9565b92915050565b610fdc81610a93565b82525050565b6000604082019050610ff76000830185610fd3565b6110046020830184610d93565b9392505050565b60006020820190506110206000830184610fd3565b92915050565b60008151905061103581610adb565b92915050565b60006020828403121561105157611050610a00565b5b600061105f84828501611026565b91505092915050565b600082825260208201905092915050565b7f4f776e61626c653a206e6577206f776e657220697320746865207a65726f206160008201527f6464726573730000000000000000000000000000000000000000000000000000602082015250565b60006110d5602683611068565b91506110e082611079565b604082019050919050565b60006020820190508181036000830152611104816110c8565b9050919050565b600080fd5b600080fd5b600080fd5b600080833560016020038436030381126111375761113661110b565b5b80840192508235915067ffffffffffffffff82111561115957611158611110565b5b60208301925060018202360383131561117557611174611115565b5b509250929050565b600080fd5b600080fd5b6000808585111561119b5761119a61117d565b5b838611156111ac576111ab611182565b5b6001850283019150848603905094509492505050565b600067ffffffffffffffff82169050919050565b6111df816111c2565b81146111ea57600080fd5b50565b6000813590506111fc816111d6565b92915050565b6000806040838503121561121957611218610a00565b5b6000611227858286016111ed565b9250506020611238858286016111ed565b9150509250929050565b7f4f776e61626c653a2063616c6c6572206973206e6f7420746865206f776e6572600082015250565b6000611278602083611068565b915061128382611242565b602082019050919050565b600060208201905081810360008301526112a78161126b565b9050919050565b7f6d757374206f7665727269646500000000000000000000000000000000000000600082015250565b60006112e4600d83611068565b91506112ef826112ae565b602082019050919050565b60006020820190508181036000830152611313816112d7565b905091905056fea264697066735822122095bcafb772e852c91e3c48f7d2b6494e0325c05fa99d0573e9b3702d51eb57cf64736f6c634300080c0033",
  "linkReferences": {},
  "deployedLinkReferences": {}
}