{
  "_format": "hh-sol-artifact-1",
  "contractName": "TestCounter",
  "sourceName": "src/test/TestCounter.sol",
  "abi": [
    {
      "anonymous": false,
      "inputs": [
        {
          "indexed": false,
          "internalType": "address",
          "name": "sender",
          "type": "address"
        }
      ],
      "name": "CalledFrom",
      "type": "event"
    },
    {
      "inputs": [],
      "name": "count",
      "outputs": [],
      "stateMutability": "nonpayable",
      "type": "function"
    },
    {
      "inputs": [
        {
          "internalType": "address",
          "name": "",
          "type": "address"
        }
      ],
      "name": "counters",
      "outputs": [
        {
          "internalType": "uint256",
          "name": "",
          "type": "uint256"
        }
      ],
      "stateMutability": "view",
      "type": "function"
    },
    {
      "inputs": [
        {
          "internalType": "uint256",
          "name": "repeat",
          "type": "uint256"
        },
        {
          "internalType": "string",
          "name": "",
          "type": "string"
        }
      ],
      "name": "gasWaster",
      "outputs": [],
      "stateMutability": "nonpayable",
      "type": "function"
    },
    {
      "inputs": [],
      "name": "justemit",
      "outputs": [],
      "stateMutability": "nonpayable",
      "type": "function"
    },
    {
      "inputs": [],
      "name": "offset",
      "outputs": [
        {
          "internalType": "uint256",
          "name": "",
          "type": "uint256"
        }
      ],
      "stateMutability": "view",
      "type": "function"
    },
    {
      "inputs": [
        {
          "internalType": "uint256",
          "name": "",
          "type": "uint256"
        }
      ],
      "name": "xxx",
      "outputs": [
        {
          "internalType": "uint256",
          "name": "",
          "type": "uint256"
        }
      ],
      "stateMutability": "view",
      "type": "function"
    }
  ],
  "bytecode": "0x608060405234801561001057600080fd5b5061064c806100206000396000f3fe608060405234801561001057600080fd5b50600436106100625760003560e01c806306661abd14610067578063278ddd3c14610071578063a1b468901461007b578063a5e9585f14610097578063be65ab8c146100c7578063d5556544146100f7575b600080fd5b61006f610115565b005b6100796101cc565b005b610095600480360381019061009091906103dc565b610241565b005b6100b160048036038101906100ac919061043c565b6102fe565b6040516100be9190610478565b60405180910390f35b6100e160048036038101906100dc91906104f1565b610316565b6040516100ee9190610478565b60405180910390f35b6100ff61032e565b60405161010c9190610478565b60405180910390f35b610129675c4503e960c810a760c01b610334565b61013d670da04213519aab7560c01b610334565b60016000803373ffffffffffffffffffffffffffffffffffffffff1673ffffffffffffffffffffffffffffffffffffffff16815260200190815260200160002054610188919061054d565b6000803373ffffffffffffffffffffffffffffffffffffffff1673ffffffffffffffffffffffffffffffffffffffff16815260200190815260200160002081905550565b6101e067b795c3b8864b5fec60c01b610334565b6101f4671dc6600c3160a58360c01b610334565b61020867a2c3d076eeab446f60c01b610334565b7ffb3b4d6258432a9a3d78dd9bffbcb6cfb1bd94f58da35fd530d08da7d1d058323360405161023791906105b2565b60405180910390a1565b6102556703f706020ab2df4360c01b610334565b61026967abed1ee14962312e60c01b610334565b61027d6779d5d70aff94dd0960c01b610334565b6000600190505b8381116102f85761029f677b99ff7bfacc7f3160c01b610334565b600260008154809291906102b2906105cd565b91905055506102cb67d2014efdcae33d4d60c01b610334565b806001600060025481526020019081526020016000208190555080806102f0906105cd565b915050610284565b50505050565b60016020528060005260406000206000915090505481565b60006020528060005260406000206000915090505481565b60025481565b50565b600080fd5b600080fd5b6000819050919050565b61035481610341565b811461035f57600080fd5b50565b6000813590506103718161034b565b92915050565b600080fd5b600080fd5b600080fd5b60008083601f84011261039c5761039b610377565b5b8235905067ffffffffffffffff8111156103b9576103b861037c565b5b6020830191508360018202830111156103d5576103d4610381565b5b9250929050565b6000806000604084860312156103f5576103f4610337565b5b600061040386828701610362565b935050602084013567ffffffffffffffff8111156104245761042361033c565b5b61043086828701610386565b92509250509250925092565b60006020828403121561045257610451610337565b5b600061046084828501610362565b91505092915050565b61047281610341565b82525050565b600060208201905061048d6000830184610469565b92915050565b600073ffffffffffffffffffffffffffffffffffffffff82169050919050565b60006104be82610493565b9050919050565b6104ce816104b3565b81146104d957600080fd5b50565b6000813590506104eb816104c5565b92915050565b60006020828403121561050757610506610337565b5b6000610515848285016104dc565b91505092915050565b7f4e487b7100000000000000000000000000000000000000000000000000000000600052601160045260246000fd5b600061055882610341565b915061056383610341565b9250827fffffffffffffffffffffffffffffffffffffffffffffffffffffffffffffffff038211156105985761059761051e565b5b828201905092915050565b6105ac816104b3565b82525050565b60006020820190506105c760008301846105a3565b92915050565b60006105d882610341565b91507fffffffffffffffffffffffffffffffffffffffffffffffffffffffffffffffff82141561060b5761060a61051e565b5b60018201905091905056fea26469706673582212203f96a2678d161268c187693a39628f60e9db45ab1597ca65ccbd75ae912b76a664736f6c634300080c0033",
  "linkReferences": {},
  "deployedLinkReferences": {}
}