{
  "_format": "hh-sol-artifact-1",
  "contractName": "BLSSignatureAggregator",
  "sourceName": "src/bls/BLSSignatureAggregator.sol",
  "abi": [
    {
      "inputs": [],
      "name": "BLS_DOMAIN",
      "outputs": [
        {
          "internalType": "bytes32",
          "name": "",
          "type": "bytes32"
        }
      ],
      "stateMutability": "view",
      "type": "function"
    },
    {
      "inputs": [],
      "name": "N",
      "outputs": [
        {
          "internalType": "uint256",
          "name": "",
          "type": "uint256"
        }
      ],
      "stateMutability": "view",
      "type": "function"
    },
    {
      "inputs": [
        {
          "internalType": "contract IEntryPoint",
          "name": "entryPoint",
          "type": "address"
        },
        {
          "internalType": "uint32",
          "name": "delay",
          "type": "uint32"
        }
      ],
      "name": "addStake",
      "outputs": [],
      "stateMutability": "payable",
      "type": "function"
    },
    {
      "inputs": [
        {
          "components": [
            {
              "internalType": "address",
              "name": "sender",
              "type": "address"
            },
            {
              "internalType": "uint256",
              "name": "nonce",
              "type": "uint256"
            },
            {
              "internalType": "bytes",
              "name": "initCode",
              "type": "bytes"
            },
            {
              "internalType": "bytes",
              "name": "callData",
              "type": "bytes"
            },
            {
              "internalType": "uint256",
              "name": "callGasLimit",
              "type": "uint256"
            },
            {
              "internalType": "uint256",
              "name": "verificationGasLimit",
              "type": "uint256"
            },
            {
              "internalType": "uint256",
              "name": "preVerificationGas",
              "type": "uint256"
            },
            {
              "internalType": "uint256",
              "name": "maxFeePerGas",
              "type": "uint256"
            },
            {
              "internalType": "uint256",
              "name": "maxPriorityFeePerGas",
              "type": "uint256"
            },
            {
              "internalType": "bytes",
              "name": "paymasterAndData",
              "type": "bytes"
            },
            {
              "internalType": "bytes",
              "name": "signature",
              "type": "bytes"
            }
          ],
          "internalType": "struct UserOperation[]",
          "name": "userOps",
          "type": "tuple[]"
        }
      ],
      "name": "aggregateSignatures",
      "outputs": [
        {
          "internalType": "bytes",
          "name": "aggregatesSignature",
          "type": "bytes"
        }
      ],
      "stateMutability": "pure",
      "type": "function"
    },
    {
      "inputs": [
        {
          "internalType": "bytes",
          "name": "data",
          "type": "bytes"
        }
      ],
      "name": "getTrailingPublicKey",
      "outputs": [
        {
          "internalType": "uint256[4]",
          "name": "publicKey",
          "type": "uint256[4]"
        }
      ],
      "stateMutability": "pure",
      "type": "function"
    },
    {
      "inputs": [
        {
          "components": [
            {
              "internalType": "address",
              "name": "sender",
              "type": "address"
            },
            {
              "internalType": "uint256",
              "name": "nonce",
              "type": "uint256"
            },
            {
              "internalType": "bytes",
              "name": "initCode",
              "type": "bytes"
            },
            {
              "internalType": "bytes",
              "name": "callData",
              "type": "bytes"
            },
            {
              "internalType": "uint256",
              "name": "callGasLimit",
              "type": "uint256"
            },
            {
              "internalType": "uint256",
              "name": "verificationGasLimit",
              "type": "uint256"
            },
            {
              "internalType": "uint256",
              "name": "preVerificationGas",
              "type": "uint256"
            },
            {
              "internalType": "uint256",
              "name": "maxFeePerGas",
              "type": "uint256"
            },
            {
              "internalType": "uint256",
              "name": "maxPriorityFeePerGas",
              "type": "uint256"
            },
            {
              "internalType": "bytes",
              "name": "paymasterAndData",
              "type": "bytes"
            },
            {
              "internalType": "bytes",
              "name": "signature",
              "type": "bytes"
            }
          ],
          "internalType": "struct UserOperation",
          "name": "userOp",
          "type": "tuple"
        }
      ],
      "name": "getUserOpHash",
      "outputs": [
        {
          "internalType": "bytes32",
          "name": "",
          "type": "bytes32"
        }
      ],
      "stateMutability": "view",
      "type": "function"
    },
    {
      "inputs": [
        {
          "components": [
            {
              "internalType": "address",
              "name": "sender",
              "type": "address"
            },
            {
              "internalType": "uint256",
              "name": "nonce",
              "type": "uint256"
            },
            {
              "internalType": "bytes",
              "name": "initCode",
              "type": "bytes"
            },
            {
              "internalType": "bytes",
              "name": "callData",
              "type": "bytes"
            },
            {
              "internalType": "uint256",
              "name": "callGasLimit",
              "type": "uint256"
            },
            {
              "internalType": "uint256",
              "name": "verificationGasLimit",
              "type": "uint256"
            },
            {
              "internalType": "uint256",
              "name": "preVerificationGas",
              "type": "uint256"
            },
            {
              "internalType": "uint256",
              "name": "maxFeePerGas",
              "type": "uint256"
            },
            {
              "internalType": "uint256",
              "name": "maxPriorityFeePerGas",
              "type": "uint256"
            },
            {
              "internalType": "bytes",
              "name": "paymasterAndData",
              "type": "bytes"
            },
            {
              "internalType": "bytes",
              "name": "signature",
              "type": "bytes"
            }
          ],
          "internalType": "struct UserOperation",
          "name": "userOp",
          "type": "tuple"
        }
      ],
      "name": "getUserOpPublicKey",
      "outputs": [
        {
          "internalType": "uint256[4]",
          "name": "publicKey",
          "type": "uint256[4]"
        }
      ],
      "stateMutability": "view",
      "type": "function"
    },
    {
      "inputs": [
        {
          "components": [
            {
              "internalType": "address",
              "name": "sender",
              "type": "address"
            },
            {
              "internalType": "uint256",
              "name": "nonce",
              "type": "uint256"
            },
            {
              "internalType": "bytes",
              "name": "initCode",
              "type": "bytes"
            },
            {
              "internalType": "bytes",
              "name": "callData",
              "type": "bytes"
            },
            {
              "internalType": "uint256",
              "name": "callGasLimit",
              "type": "uint256"
            },
            {
              "internalType": "uint256",
              "name": "verificationGasLimit",
              "type": "uint256"
            },
            {
              "internalType": "uint256",
              "name": "preVerificationGas",
              "type": "uint256"
            },
            {
              "internalType": "uint256",
              "name": "maxFeePerGas",
              "type": "uint256"
            },
            {
              "internalType": "uint256",
              "name": "maxPriorityFeePerGas",
              "type": "uint256"
            },
            {
              "internalType": "bytes",
              "name": "paymasterAndData",
              "type": "bytes"
            },
            {
              "internalType": "bytes",
              "name": "signature",
              "type": "bytes"
            }
          ],
          "internalType": "struct UserOperation",
          "name": "userOp",
          "type": "tuple"
        }
      ],
      "name": "userOpToMessage",
      "outputs": [
        {
          "internalType": "uint256[2]",
          "name": "",
          "type": "uint256[2]"
        }
      ],
      "stateMutability": "view",
      "type": "function"
    },
    {
      "inputs": [
        {
          "components": [
            {
              "internalType": "address",
              "name": "sender",
              "type": "address"
            },
            {
              "internalType": "uint256",
              "name": "nonce",
              "type": "uint256"
            },
            {
              "internalType": "bytes",
              "name": "initCode",
              "type": "bytes"
            },
            {
              "internalType": "bytes",
              "name": "callData",
              "type": "bytes"
            },
            {
              "internalType": "uint256",
              "name": "callGasLimit",
              "type": "uint256"
            },
            {
              "internalType": "uint256",
              "name": "verificationGasLimit",
              "type": "uint256"
            },
            {
              "internalType": "uint256",
              "name": "preVerificationGas",
              "type": "uint256"
            },
            {
              "internalType": "uint256",
              "name": "maxFeePerGas",
              "type": "uint256"
            },
            {
              "internalType": "uint256",
              "name": "maxPriorityFeePerGas",
              "type": "uint256"
            },
            {
              "internalType": "bytes",
              "name": "paymasterAndData",
              "type": "bytes"
            },
            {
              "internalType": "bytes",
              "name": "signature",
              "type": "bytes"
            }
          ],
          "internalType": "struct UserOperation[]",
          "name": "userOps",
          "type": "tuple[]"
        },
        {
          "internalType": "bytes",
          "name": "signature",
          "type": "bytes"
        }
      ],
      "name": "validateSignatures",
      "outputs": [],
      "stateMutability": "view",
      "type": "function"
    },
    {
      "inputs": [
        {
          "components": [
            {
              "internalType": "address",
              "name": "sender",
              "type": "address"
            },
            {
              "internalType": "uint256",
              "name": "nonce",
              "type": "uint256"
            },
            {
              "internalType": "bytes",
              "name": "initCode",
              "type": "bytes"
            },
            {
              "internalType": "bytes",
              "name": "callData",
              "type": "bytes"
            },
            {
              "internalType": "uint256",
              "name": "callGasLimit",
              "type": "uint256"
            },
            {
              "internalType": "uint256",
              "name": "verificationGasLimit",
              "type": "uint256"
            },
            {
              "internalType": "uint256",
              "name": "preVerificationGas",
              "type": "uint256"
            },
            {
              "internalType": "uint256",
              "name": "maxFeePerGas",
              "type": "uint256"
            },
            {
              "internalType": "uint256",
              "name": "maxPriorityFeePerGas",
              "type": "uint256"
            },
            {
              "internalType": "bytes",
              "name": "paymasterAndData",
              "type": "bytes"
            },
            {
              "internalType": "bytes",
              "name": "signature",
              "type": "bytes"
            }
          ],
          "internalType": "struct UserOperation",
          "name": "userOp",
          "type": "tuple"
        }
      ],
      "name": "validateUserOpSignature",
      "outputs": [
        {
          "internalType": "bytes",
          "name": "sigForUserOp",
          "type": "bytes"
        }
      ],
      "stateMutability": "view",
      "type": "function"
    }
  ],
  "bytecode": "0x608060405234801561001057600080fd5b50613b40806100206000396000f3fe6080604052600436106100905760003560e01c806364c530cd1161005957806364c530cd14610193578063a6193531146101d0578063b7620eb41461020d578063c9e525df1461024a578063e3563a4f1461027557610090565b80629d925014610095578063275e2d79146100c057806340864431146100fd578063451711591461013a57806357f09b7214610156575b600080fd5b3480156100a157600080fd5b506100aa61029e565b6040516100b79190612468565b60405180910390f35b3480156100cc57600080fd5b506100e760048036038101906100e291906124fc565b6102c2565b6040516100f491906125e2565b60405180910390f35b34801561010957600080fd5b50610124600480360381019061011f919061294e565b61050f565b6040516101319190612a42565b60405180910390f35b610154600480360381019061014f9190612ad7565b61059a565b005b34801561016257600080fd5b5061017d6004803603810190610178919061294e565b610646565b60405161018a9190612b9b565b60405180910390f35b34801561019f57600080fd5b506101ba60048036038101906101b59190612bdb565b6107bb565b6040516101c791906125e2565b60405180910390f35b3480156101dc57600080fd5b506101f760048036038101906101f2919061294e565b610a89565b6040516102049190612468565b60405180910390f35b34801561021957600080fd5b50610234600480360381019061022f9190612c24565b610b0e565b6040516102419190612b9b565b60405180910390f35b34801561025657600080fd5b5061025f610c2e565b60405161026c9190612c7c565b60405180910390f35b34801561028157600080fd5b5061029c60048036038101906102979190612ced565b610c52565b005b7fd84c4373167c517e9ccd66803f86d8a4f49e7e1315a7a73b516affea7428f82b81565b60606102d867ee0b1744b65181f560c01b611171565b6102ec670aba98272047c0e460c01b611171565b6103006702ea8bb13f67f27060c01b611171565b60008383905067ffffffffffffffff81111561031f5761031e612609565b5b60405190808252806020026020018201604052801561035857816020015b6103456123f1565b81526020019060019003908161033d5790505b50905061036f67d5963d63ffc215b860c01b611171565b610383671c233aea718c5a1060c01b611171565b60005b815181101561045c576103a367e94f5e68f7b5b7a660c01b611171565b6103b767a6e0b529b77f8d2d60c01b611171565b6000808686848181106103cd576103cc612d6e565b5b90506020028101906103df9190612dac565b8061014001906103ef9190612dd5565b8101906103fc9190612e38565b91509150610414671eb9318c0a4a011760c01b611171565b60405180604001604052808381526020018281525084848151811061043c5761043b612d6e565b5b60200260200101819052505050808061045490612ea7565b915050610386565b5061047167c6bd697ceb01186560c01b611171565b610485677285a1b3133c3d0b60c01b611171565b60006104b1827f30644e72e131a029b85045b68181585d97816a916871ca8d3c208c16d87cfd47611174565b90506104c767f87d5a308dfab57660c01b611171565b6104db6725d40e08d8c0882860c01b611171565b806000015181602001516040516020016104f6929190612ef0565b6040516020818303038152906040529250505092915050565b61051761240b565b61052b6758c4c491690c2b2b60c01b611171565b61053f677a9dc3dff66858c760c01b611171565b61055367e9be4db39e12cfc660c01b611171565b600061055e8361137b565b905061057467ecaf1b6235506d6960c01b611171565b610588670cf8b6bf224a163a60c01b611171565b61059283826113ef565b915050919050565b6105ae67b54a67f0abe98d2060c01b611171565b6105c267dc4078cf16a9475960c01b611171565b6105d667026c0f7920523ff860c01b611171565b8173ffffffffffffffffffffffffffffffffffffffff16630396cb6034836040518363ffffffff1660e01b81526004016106109190612f28565b6000604051808303818588803b15801561062957600080fd5b505af115801561063d573d6000803e3d6000fd5b50505050505050565b61064e61242d565b610662673a401bc65167c4f860c01b611171565b61067667f34c69c9d7bb876b60c01b611171565b61068a672b7fb4d3f7d203f860c01b611171565b6000826040015190506106a76760a9bdd3265ebc3860c01b611171565b6106bb67aadce2254b5ff25660c01b611171565b6000815111156106fd576106d967761144827f1fb48d60c01b611171565b6106ed67a28b4281d81f6bff60c01b611171565b6106f681610b0e565b91506107b4565b610711671fcd93803d19423760c01b611171565b6107256768e51dabb5ae437660c01b611171565b610739670c436564876d7d8260c01b611171565b826000015173ffffffffffffffffffffffffffffffffffffffff1663e02afbae6040518163ffffffff1660e01b8152600401608060405180830381865afa158015610788573d6000803e3d6000fd5b505050506040513d601f19601f820116820180604052508101906107ac9190613009565b9150506107b6565b505b919050565b60606107d16713c8ddbfbdd23d9b60c01b611171565b6107e567e2cac853574368a260c01b611171565b6107f9672521d2ab73f334b560c01b611171565b60008280610140019061080c9190612dd5565b81019061081991906130e7565b905061082f679762f6d193c0c4f160c01b611171565b61084367936fdbbb9284def760c01b611171565b60006108578461085290613114565b610646565b905061086d67dcb22bfc51d4b5cb60c01b611171565b61088167c3dfa8b139f2ae1860c01b611171565b60006108958561089090613114565b61050f565b90506108ab67c3ff4e2d2a6685f360c01b611171565b6108bf67db61050b8b21698860c01b611171565b73__$0c0f74624a8b0002c7da6f0f1164c6310a$__63ebbdac918484846040518463ffffffff1660e01b81526004016108fa93929190613212565b602060405180830381865af4158015610917573d6000803e3d6000fd5b505050506040513d601f19601f8201168201806040525081019061093b9190613282565b50610950673bf9e72ed88ecad260c01b611171565b61096467ea985f366504d06760c01b611171565b610978672ec0bdfb6470eeac60c01b611171565b73__$0c0f74624a8b0002c7da6f0f1164c6310a$__63ebbdac918484846040518463ffffffff1660e01b81526004016109b393929190613212565b602060405180830381865af41580156109d0573d6000803e3d6000fd5b505050506040513d601f19601f820116820180604052508101906109f49190613282565b610a33576040517f08c379a0000000000000000000000000000000000000000000000000000000008152600401610a2a9061330c565b60405180910390fd5b610a47678cd397d425164ede60c01b611171565b610a5b67a2ecfdd668ded42360c01b611171565b610a6f67a5798b7a7cbc307c60c01b611171565b604051806020016040528060008152509350505050919050565b6000610a9f670b115ec21470768160c01b611171565b610ab3672d16724e67fe814160c01b611171565b610ac767ef6616b57f63e3be60c01b611171565b6000610ad28361137b565b9050610ae867a8e14d209c5c7be560c01b611171565b610afc67d1696f0fc4184c9860c01b611171565b610b06838261152a565b915050919050565b610b1661242d565b610b2a6725796ba8068be2be60c01b611171565b610b3e67991a92915347cab060c01b611171565b610b52677326c3e620a9eef460c01b611171565b600082519050610b6c67a5c007529a08615260c01b611171565b610b80676fa2ad5fe3b9601260c01b611171565b610b9467cef7008cedb300dc60c01b611171565b60808111610bd7576040517f08c379a0000000000000000000000000000000000000000000000000000000008152600401610bce90613378565b60405180910390fd5b610beb67394e5268dd2de4f160c01b611171565b610bff67fed5b111aa49171960c01b611171565b606081840103805183526020810151602084015260408101516040840152606081015160608401525050919050565b7f30644e72e131a029b85045b68181585d97816a916871ca8d3c208c16d87cfd4781565b610c6667b7ac0c3465b9643960c01b611171565b610c7a6754841727594fb79f60c01b611171565b610c8e67ef65529398a6a55560c01b611171565b610ca2671a7223e4fd1cf1bb60c01b611171565b60408282905014610ce8576040517f08c379a0000000000000000000000000000000000000000000000000000000008152600401610cdf906133e4565b60405180910390fd5b610cfc67c9ffaeaf42423bfe60c01b611171565b610d1067dc8c2b44e78fa15260c01b611171565b610d2467cf6344ab830a72b360c01b611171565b60008282810190610d3591906130e7565b9050610d4b679f33e6dbf2daa6f660c01b611171565b610d5f67454f581bd9324c6c60c01b611171565b6000858590509050610d7b671381597c00b67bd460c01b611171565b610d8f672c9d4e8b4b40694060c01b611171565b60008167ffffffffffffffff811115610dab57610daa612609565b5b604051908082528060200260200182016040528015610de457816020015b610dd161242d565b815260200190600190039081610dc95790505b509050610dfb67cf8bcca35afcd95960c01b611171565b610e0f672d72225c71cb629960c01b611171565b60008267ffffffffffffffff811115610e2b57610e2a612609565b5b604051908082528060200260200182016040528015610e6457816020015b610e5161240b565b815260200190600190039081610e495790505b509050610e7b6774678356c415006e60c01b611171565b610e8f672644e3b4bb4d8b0460c01b611171565b60005b8381101561105b57610eae6782af71ed4a45bc8d60c01b611171565b610ec26714bf9c9580470b3060c01b611171565b6000898983818110610ed757610ed6612d6e565b5b9050602002810190610ee99190612dac565b610ef290613114565b9050610f08677a7e36085bed97ca60c01b611171565b610f1c67e15d89e4d260236160c01b611171565b600081600001519050610f39674b3363727dd7dfd260c01b611171565b8073ffffffffffffffffffffffffffffffffffffffff1663e02afbae6175306040518263ffffffff1660e01b81526004016080604051808303818786fa158015610f87573d6000803e3d6000fd5b50505050506040513d601f19601f82011682018060405250810190610fac9190613009565b858481518110610fbf57610fbe612d6e565b5b6020026020010181905250610fde67e1bc30597806762a60c01b611171565b61102882868581518110610ff557610ff4612d6e565b5b602002602001015160405160200161100d9190612b9b565b604051602081830303815290604052805190602001206113ef565b84848151811061103b5761103a612d6e565b5b60200260200101819052505050808061105390612ea7565b915050610e92565b50611070672ba33ee08af9301160c01b611171565b61108467f54f158c86ee2f5a60c01b611171565b61109867f6ca03ca9dc07aab60c01b611171565b73__$0c0f74624a8b0002c7da6f0f1164c6310a$__63914137638584846040518463ffffffff1660e01b81526004016110d393929190613626565b602060405180830381865af41580156110f0573d6000803e3d6000fd5b505050506040513d601f19601f820116820180604052508101906111149190613282565b611153576040517f08c379a000000000000000000000000000000000000000000000000000000000815260040161114a906136b7565b60405180910390fd5b6111676741e6f55603adf2ab60c01b611171565b5050505050505050565b50565b61117c6123f1565b611190672ae16ab6bca8604060c01b6115a5565b6111a467f8d56b0ba7d6daa660c01b6115a5565b6111b867de3794dd54e2212c60c01b6115a5565b6000836000815181106111ce576111cd612d6e565b5b60200260200101516000015190506111f067569b4515373f223860c01b6115a5565b611204676925865fbba989c560c01b6115a5565b60008460008151811061121a57611219612d6e565b5b602002602001015160200151905061123c6702646c96d8b9419360c01b6115a5565b611250673d164c99be9bb49560c01b6115a5565b60006001905061126a671ba1c107896aa44860c01b6115a5565b61127e67284fe3dbaa96e57760c01b6115a5565b6000600190505b865181101561130d576112a26727069bfe7704593c60c01b6115a5565b6112ee8484848a85815181106112bb576112ba612d6e565b5b6020026020010151600001518b86815181106112da576112d9612d6e565b5b60200260200101516020015160018c6115a8565b809450819550829650505050808061130590612ea7565b915050611285565b5061132267ba77803ed5b2167260c01b6115a5565b61132e83838388611f58565b809350819450505061134a671acf36e0faa3a25660c01b6115a5565b828460000181815250506113686763955c7fc80a356f60c01b6115a5565b8184602001818152505050505092915050565b6000611391679bff80964f75e74d60c01b611171565b6113a56789c503cbe1bee81860c01b611171565b6113b967d3e89b51f37fd2ea60c01b611171565b6113c282610646565b6040516020016113d29190612b9b565b604051602081830303815290604052805190602001209050919050565b6113f761240b565b61140b678f89b2df1d267cb260c01b611171565b61141f677b8311e18295992560c01b611171565b61143367a995fc0ee9e9ca5460c01b611171565b600061143f848461152a565b9050611455673fb83e504798de3560c01b611171565b61146967b69d9ece029aee0b60c01b611171565b73__$0c0f74624a8b0002c7da6f0f1164c6310a$__63a850a9097fd84c4373167c517e9ccd66803f86d8a4f49e7e1315a7a73b516affea7428f82b836040516020016114b591906136f8565b6040516020818303038152906040526040518363ffffffff1660e01b81526004016114e192919061376c565b6040805180830381865af41580156114fd573d6000803e3d6000fd5b505050506040513d601f19601f820116820180604052508101906115219190613827565b91505092915050565b600061154067718746dff7f6e3e760c01b611171565b6115546713f0ac5ab5502d6e60c01b611171565b61156867b2b09718e9aa6f3760c01b611171565b611571836120ab565b8230466040516020016115879493929190613863565b60405160208183030381529060405280519060200120905092915050565b50565b60008060006115c16724d200fbe26e59a860c01b6115a5565b6115d567e9b78215aaaaa7ce60c01b6115a5565b6115e967843fc3e6e96b245560c01b6115a5565b60008a1480156115f95750600089145b156116345761161267b6e9cd578a287d7b60c01b6115a5565b61162667f9e79757f359151b60c01b6115a5565b868686925092509250611f4b565b611648674bb2f89f1ed3285d60c01b6115a5565b61165c6794b1e54fcae6880260c01b6115a5565b611670679f3895aad630eff360c01b6115a5565b6000871480156116805750600086145b156116bb5761169967ec135b1a4fb8b61060c01b6115a5565b6116ad676446fb49e6c4943d60c01b6115a5565b898989925092509250611f4b565b6116cf676a5b01ad700f32e360c01b6115a5565b6116e367b57346c4b2b9ee8560c01b6115a5565b6116f7679949ed7c47a333a660c01b6115a5565b6116ff61242d565b611713679cece79abb3cbaf460c01b6115a5565b8480611722576117216138a8565b5b898a098160006004811061173957611738612d6e565b5b602002018181525050611756674d133a5901c3c3af60c01b6115a5565b8480611765576117646138a8565b5b8160006004811061177957611778612d6e565b5b60200201518a098160016004811061179457611793612d6e565b5b6020020181815250506117b167b165b6c43cdb755a60c01b6115a5565b84806117c0576117bf6138a8565b5b868709816002600481106117d7576117d6612d6e565b5b6020020181815250506117f4676e354c2d7ec5c03b60c01b6115a5565b8480611803576118026138a8565b5b8160026004811061181757611816612d6e565b5b602002015187098160036004811061183257611831612d6e565b5b60200201818152505061184f679daf58c17899018160c01b6115a5565b60405180608001604052808680611869576118686138a8565b5b8360026004811061187d5761187c612d6e565b5b60200201518e0981526020018680611898576118976138a8565b5b836003600481106118ac576118ab612d6e565b5b60200201518d09815260200186806118c7576118c66138a8565b5b836000600481106118db576118da612d6e565b5b60200201518b09815260200186806118f6576118f56138a8565b5b8360016004811061190a57611909612d6e565b5b60200201518a09815250905061192a67ea673a44b055b47160c01b6115a5565b61193e6758e0d477ba355af060c01b6115a5565b611952678a21f93b5cf5c79f60c01b6115a5565b8060026004811061196657611965612d6e565b5b60200201518160006004811061197f5761197e612d6e565b5b6020020151141580156119a257506119a1678d61575e8bbca7fe60c01b612168565b5b806119f95750806003600481106119bc576119bb612d6e565b5b6020020151816001600481106119d5576119d4612d6e565b5b6020020151141580156119f857506119f767053ddaff8f71cad160c01b612168565b5b5b611a38576040517f08c379a0000000000000000000000000000000000000000000000000000000008152600401611a2f90613923565b60405180910390fd5b611a4c671b298eebc36b086860c01b6115a5565b611a6067b8a68a3b372e93f860c01b6115a5565b611a7467b149d6cc93c4dd9c60c01b6115a5565b611a7c61242d565b611a9067ea6f5fdbd0f270b960c01b6115a5565b8580611a9f57611a9e6138a8565b5b82600060048110611ab357611ab2612d6e565b5b602002015187611ac39190613943565b83600260048110611ad757611ad6612d6e565b5b60200201510881600060048110611af157611af0612d6e565b5b602002018181525050611b0e672369f152ff0aa17260c01b6115a5565b8580611b1d57611b1c6138a8565b5b82600160048110611b3157611b30612d6e565b5b602002015187611b419190613943565b83600360048110611b5557611b54612d6e565b5b60200201510881600160048110611b6f57611b6e612d6e565b5b602002018181525050611b8c67e8430d173120d15260c01b6115a5565b8580611b9b57611b9a6138a8565b5b81600060048110611baf57611bae612d6e565b5b602002015182600060048110611bc857611bc7612d6e565b5b60200201510981600260048110611be257611be1612d6e565b5b602002018181525050611bff67344ef266cad4555760c01b6115a5565b8580611c0e57611c0d6138a8565b5b81600060048110611c2257611c21612d6e565b5b602002015182600260048110611c3b57611c3a612d6e565b5b60200201510981600360048110611c5557611c54612d6e565b5b602002018181525050611c72676a7db13a0c03080b60c01b6115a5565b611c8667b66bbbbb98bc575560c01b6115a5565b60008680611c9757611c966138a8565b5b82600360048110611cab57611caa612d6e565b5b602002015188611cbb9190613943565b8880611cca57611cc96138a8565b5b84600160048110611cde57611cdd612d6e565b5b602002015185600160048110611cf757611cf6612d6e565b5b602002015109089050611d1467a871e107de2af59d60c01b6115a5565b8680611d2357611d226138a8565b5b8780611d3257611d316138a8565b5b8880611d4157611d406138a8565b5b84600260048110611d5557611d54612d6e565b5b602002015186600060048110611d6e57611d6d612d6e565b5b60200201510960020988611d829190613943565b82089050611d9a6792c1d7fca210197f60c01b6115a5565b611dae679bd7a8b1db79616260c01b6115a5565b60008780611dbf57611dbe6138a8565b5b8880611dce57611dcd6138a8565b5b838a611dda9190613943565b8a80611de957611de86138a8565b5b86600260048110611dfd57611dfc612d6e565b5b602002015188600060048110611e1657611e15612d6e565b5b6020020151090884600160048110611e3157611e30612d6e565b5b6020020151099050611e4d67dce78d93ca4e1c2060c01b6115a5565b8780611e5c57611e5b6138a8565b5b8880611e6b57611e6a6138a8565b5b84600360048110611e7f57611e7e612d6e565b5b602002015186600160048110611e9857611e97612d6e565b5b60200201510989611ea99190613943565b82089050611ec1675fd2f488e70cdf6d60c01b6115a5565b611ed5674c178aa95b2087c860c01b6115a5565b60008880611ee657611ee56138a8565b5b8980611ef557611ef46138a8565b5b8b8f0985600060048110611f0c57611f0b612d6e565b5b6020020151099050611f2867073bba9c6f13563160c01b6115a5565b611f3c675202dbea8f9e8e5e60c01b6115a5565b82828297509750975050505050505b9750975097945050505050565b600080611f6f67a4980fbd0d06fb5160c01b6115a5565b611f8367a72d8ec0bc1818e660c01b6115a5565b611f976775b117f6f334295c60c01b6115a5565b6000611fa38585612173565b9050611fb9679a7b912afe04fd0660c01b6115a5565b611fcd67e3e510544214475f60c01b6115a5565b60008480611fde57611fdd6138a8565b5b8283099050611ff767c35e95cc11109bde60c01b6115a5565b61200b67fdb8993a97b4e97960c01b6115a5565b6000858061201c5761201b6138a8565b5b828a099050612035670b721f9ede4dae6160c01b6115a5565b6120496791d87919ccd80d5560c01b6115a5565b6000868061205a576120596138a8565b5b8780612069576120686138a8565b5b8486098a09905061208467876301d5af46fb1460c01b6115a5565b612098671e24750518a60bf160c01b6115a5565b8181955095505050505094509492505050565b60006120c1675a6a2fc508ad7e4760c01b611171565b6120d5677f5a39cdf060abc060c01b611171565b6120e9676d57c2819f31b39d60c01b611171565b8160000151826020015183604001518051906020012084606001518051906020012085608001518660a001518760c001518860e001518961010001518a61012001518051906020012060405160200161214b9a99989796959493929190613977565b604051602081830303815290604052805190602001209050919050565b600060019050919050565b600061218967cafb83128bcd38e860c01b6115a5565b61219d678f32cd8745aba55a60c01b6115a5565b6121b1671ea5e3e039ed9cae60c01b6115a5565b6121c56769f0d312588303c860c01b6115a5565b600083141580156121d65750818314155b80156121e3575060008214155b612222576040517f08c379a000000000000000000000000000000000000000000000000000000000815260040161221990613a5f565b60405180910390fd5b61223667920d6c31d896076260c01b6115a5565b61224a67f1c770ff3c57228360c01b6115a5565b61225e67b2995d79f157bcfe60c01b6115a5565b60006122746798af35da450e9d7a60c01b6115a5565b61228867fb13670769f198e760c01b6115a5565b6000600190506122a26708b0c84d99761ffb60c01b6115a5565b6122b6678f2a675ad3ea0dba60c01b6115a5565b60008490506122cf6726ea87162b5e0ab060c01b6115a5565b6122e367267361b4d9185f6f60c01b6115a5565b60006122f9674e0ccbebffdba07c60c01b6115a5565b61230d67db871768e070881560c01b6115a5565b5b600087146123bc5761232a6747f597543d534d6160c01b6115a5565b86826123369190613a7f565b905061234c6754e2b655756eeee460c01b6115a5565b82868061235c5761235b6138a8565b5b878061236b5761236a6138a8565b5b858409886123799190613943565b8608809450819550505061239767d7469691e424226760c01b6115a5565b8687826123a49190613ab0565b836123af9190613943565b809850819350505061230e565b6123d0670d8b5ccb74f4f38960c01b6115a5565b6123e4677489117e0163967260c01b6115a5565b8394505050505092915050565b604051806040016040528060008152602001600081525090565b6040518060400160405280600290602082028036833780820191505090505090565b6040518060800160405280600490602082028036833780820191505090505090565b6000819050919050565b6124628161244f565b82525050565b600060208201905061247d6000830184612459565b92915050565b6000604051905090565b600080fd5b600080fd5b600080fd5b600080fd5b600080fd5b60008083601f8401126124bc576124bb612497565b5b8235905067ffffffffffffffff8111156124d9576124d861249c565b5b6020830191508360208202830111156124f5576124f46124a1565b5b9250929050565b600080602083850312156125135761251261248d565b5b600083013567ffffffffffffffff81111561253157612530612492565b5b61253d858286016124a6565b92509250509250929050565b600081519050919050565b600082825260208201905092915050565b60005b83811015612583578082015181840152602081019050612568565b83811115612592576000848401525b50505050565b6000601f19601f8301169050919050565b60006125b482612549565b6125be8185612554565b93506125ce818560208601612565565b6125d781612598565b840191505092915050565b600060208201905081810360008301526125fc81846125a9565b905092915050565b600080fd5b7f4e487b7100000000000000000000000000000000000000000000000000000000600052604160045260246000fd5b61264182612598565b810181811067ffffffffffffffff821117156126605761265f612609565b5b80604052505050565b6000612673612483565b905061267f8282612638565b919050565b600080fd5b600073ffffffffffffffffffffffffffffffffffffffff82169050919050565b60006126b482612689565b9050919050565b6126c4816126a9565b81146126cf57600080fd5b50565b6000813590506126e1816126bb565b92915050565b6000819050919050565b6126fa816126e7565b811461270557600080fd5b50565b600081359050612717816126f1565b92915050565b600080fd5b600067ffffffffffffffff82111561273d5761273c612609565b5b61274682612598565b9050602081019050919050565b82818337600083830152505050565b600061277561277084612722565b612669565b9050828152602081018484840111156127915761279061271d565b5b61279c848285612753565b509392505050565b600082601f8301126127b9576127b8612497565b5b81356127c9848260208601612762565b91505092915050565b600061016082840312156127e9576127e8612604565b5b6127f4610160612669565b90506000612804848285016126d2565b600083015250602061281884828501612708565b602083015250604082013567ffffffffffffffff81111561283c5761283b612684565b5b612848848285016127a4565b604083015250606082013567ffffffffffffffff81111561286c5761286b612684565b5b612878848285016127a4565b606083015250608061288c84828501612708565b60808301525060a06128a084828501612708565b60a08301525060c06128b484828501612708565b60c08301525060e06128c884828501612708565b60e0830152506101006128dd84828501612708565b6101008301525061012082013567ffffffffffffffff81111561290357612902612684565b5b61290f848285016127a4565b6101208301525061014082013567ffffffffffffffff81111561293557612934612684565b5b612941848285016127a4565b6101408301525092915050565b6000602082840312156129645761296361248d565b5b600082013567ffffffffffffffff81111561298257612981612492565b5b61298e848285016127d2565b91505092915050565b600060029050919050565b600081905092915050565b6000819050919050565b6129c0816126e7565b82525050565b60006129d283836129b7565b60208301905092915050565b6000602082019050919050565b6129f481612997565b6129fe81846129a2565b9250612a09826129ad565b8060005b83811015612a3a578151612a2187826129c6565b9650612a2c836129de565b925050600181019050612a0d565b505050505050565b6000604082019050612a5760008301846129eb565b92915050565b6000612a68826126a9565b9050919050565b612a7881612a5d565b8114612a8357600080fd5b50565b600081359050612a9581612a6f565b92915050565b600063ffffffff82169050919050565b612ab481612a9b565b8114612abf57600080fd5b50565b600081359050612ad181612aab565b92915050565b60008060408385031215612aee57612aed61248d565b5b6000612afc85828601612a86565b9250506020612b0d85828601612ac2565b9150509250929050565b600060049050919050565b600081905092915050565b6000819050919050565b6000602082019050919050565b612b4d81612b17565b612b578184612b22565b9250612b6282612b2d565b8060005b83811015612b93578151612b7a87826129c6565b9650612b8583612b37565b925050600181019050612b66565b505050505050565b6000608082019050612bb06000830184612b44565b92915050565b600080fd5b60006101608284031215612bd257612bd1612bb6565b5b81905092915050565b600060208284031215612bf157612bf061248d565b5b600082013567ffffffffffffffff811115612c0f57612c0e612492565b5b612c1b84828501612bbb565b91505092915050565b600060208284031215612c3a57612c3961248d565b5b600082013567ffffffffffffffff811115612c5857612c57612492565b5b612c64848285016127a4565b91505092915050565b612c76816126e7565b82525050565b6000602082019050612c916000830184612c6d565b92915050565b60008083601f840112612cad57612cac612497565b5b8235905067ffffffffffffffff811115612cca57612cc961249c565b5b602083019150836001820283011115612ce657612ce56124a1565b5b9250929050565b60008060008060408587031215612d0757612d0661248d565b5b600085013567ffffffffffffffff811115612d2557612d24612492565b5b612d31878288016124a6565b9450945050602085013567ffffffffffffffff811115612d5457612d53612492565b5b612d6087828801612c97565b925092505092959194509250565b7f4e487b7100000000000000000000000000000000000000000000000000000000600052603260045260246000fd5b600080fd5b600080fd5b600080fd5b60008235600161016003833603038112612dc957612dc8612d9d565b5b80830191505092915050565b60008083356001602003843603038112612df257612df1612d9d565b5b80840192508235915067ffffffffffffffff821115612e1457612e13612da2565b5b602083019250600182023603831315612e3057612e2f612da7565b5b509250929050565b60008060408385031215612e4f57612e4e61248d565b5b6000612e5d85828601612708565b9250506020612e6e85828601612708565b9150509250929050565b7f4e487b7100000000000000000000000000000000000000000000000000000000600052601160045260246000fd5b6000612eb2826126e7565b91507fffffffffffffffffffffffffffffffffffffffffffffffffffffffffffffffff821415612ee557612ee4612e78565b5b600182019050919050565b6000604082019050612f056000830185612c6d565b612f126020830184612c6d565b9392505050565b612f2281612a9b565b82525050565b6000602082019050612f3d6000830184612f19565b92915050565b600067ffffffffffffffff821115612f5e57612f5d612609565b5b602082029050919050565b600081519050612f78816126f1565b92915050565b6000612f91612f8c84612f43565b612669565b90508060208402830185811115612fab57612faa6124a1565b5b835b81811015612fd45780612fc08882612f69565b845260208401935050602081019050612fad565b5050509392505050565b600082601f830112612ff357612ff2612497565b5b6004613000848285612f7e565b91505092915050565b60006080828403121561301f5761301e61248d565b5b600061302d84828501612fde565b91505092915050565b600067ffffffffffffffff82111561305157613050612609565b5b602082029050919050565b600061306f61306a84613036565b612669565b90508060208402830185811115613089576130886124a1565b5b835b818110156130b2578061309e8882612708565b84526020840193505060208101905061308b565b5050509392505050565b600082601f8301126130d1576130d0612497565b5b60026130de84828561305c565b91505092915050565b6000604082840312156130fd576130fc61248d565b5b600061310b848285016130bc565b91505092915050565b600061312036836127d2565b9050919050565b600081905092915050565b61313b816126e7565b82525050565b600061314d8383613132565b60208301905092915050565b61316281612997565b61316c8184613127565b9250613177826129ad565b8060005b838110156131a857815161318f8782613141565b965061319a836129de565b92505060018101905061317b565b505050505050565b600081905092915050565b6131c481612b17565b6131ce81846131b0565b92506131d982612b2d565b8060005b8381101561320a5781516131f18782613141565b96506131fc83612b37565b9250506001810190506131dd565b505050505050565b6000610100820190506132286000830186613159565b61323560408301856131bb565b61324260c0830184613159565b949350505050565b60008115159050919050565b61325f8161324a565b811461326a57600080fd5b50565b60008151905061327c81613256565b92915050565b6000602082840312156132985761329761248d565b5b60006132a68482850161326d565b91505092915050565b600082825260208201905092915050565b7f424c533a2077726f6e6720736967000000000000000000000000000000000000600082015250565b60006132f6600e836132af565b9150613301826132c0565b602082019050919050565b60006020820190508181036000830152613325816132e9565b9050919050565b7f6461746120746f2073686f727420666f72207369670000000000000000000000600082015250565b60006133626015836132af565b915061336d8261332c565b602082019050919050565b6000602082019050818103600083015261339181613355565b9050919050565b7f424c533a20696e76616c6964207369676e617475726500000000000000000000600082015250565b60006133ce6016836132af565b91506133d982613398565b602082019050919050565b600060208201905081810360008301526133fd816133c1565b9050919050565b600081519050919050565b600082825260208201905092915050565b6000819050602082019050919050565b600081905092915050565b61344481612b17565b61344e8184613430565b925061345982612b2d565b8060005b8381101561348a5781516134718782613141565b965061347c83612b37565b92505060018101905061345d565b505050505050565b600061349e838361343b565b60808301905092915050565b6000602082019050919050565b60006134c282613404565b6134cc818561340f565b93506134d783613420565b8060005b838110156135085781516134ef8882613492565b97506134fa836134aa565b9250506001810190506134db565b5085935050505092915050565b600081519050919050565b600082825260208201905092915050565b6000819050602082019050919050565b600081905092915050565b61355581612997565b61355f8184613541565b925061356a826129ad565b8060005b8381101561359b5781516135828782613141565b965061358d836129de565b92505060018101905061356e565b505050505050565b60006135af838361354c565b60408301905092915050565b6000602082019050919050565b60006135d382613515565b6135dd8185613520565b93506135e883613531565b8060005b8381101561361957815161360088826135a3565b975061360b836135bb565b9250506001810190506135ec565b5085935050505092915050565b600060808201905061363b6000830186613159565b818103604083015261364d81856134b7565b9050818103606083015261366181846135c8565b9050949350505050565b7f424c533a2076616c69646174655369676e617475726573206661696c65640000600082015250565b60006136a1601e836132af565b91506136ac8261366b565b602082019050919050565b600060208201905081810360008301526136d081613694565b9050919050565b6000819050919050565b6136f26136ed8261244f565b6136d7565b82525050565b600061370482846136e1565b60208201915081905092915050565b61371c8161244f565b82525050565b600082825260208201905092915050565b600061373e82612549565b6137488185613722565b9350613758818560208601612565565b61376181612598565b840191505092915050565b60006040820190506137816000830185613713565b81810360208301526137938184613733565b90509392505050565b60006137af6137aa84613036565b612669565b905080602084028301858111156137c9576137c86124a1565b5b835b818110156137f257806137de8882612f69565b8452602084019350506020810190506137cb565b5050509392505050565b600082601f83011261381157613810612497565b5b600261381e84828561379c565b91505092915050565b60006040828403121561383d5761383c61248d565b5b600061384b848285016137fc565b91505092915050565b61385d816126a9565b82525050565b60006080820190506138786000830187612459565b6138856020830186612459565b6138926040830185613854565b61389f6060830184612c6d565b95945050505050565b7f4e487b7100000000000000000000000000000000000000000000000000000000600052601260045260246000fd5b7f557365206a6163446f75626c652066756e6374696f6e20696e73746561640000600082015250565b600061390d601e836132af565b9150613918826138d7565b602082019050919050565b6000602082019050818103600083015261393c81613900565b9050919050565b600061394e826126e7565b9150613959836126e7565b92508282101561396c5761396b612e78565b5b828203905092915050565b60006101408201905061398d600083018d613854565b61399a602083018c612c6d565b6139a7604083018b612459565b6139b4606083018a612459565b6139c16080830189612c6d565b6139ce60a0830188612c6d565b6139db60c0830187612c6d565b6139e860e0830186612c6d565b6139f6610100830185612c6d565b613a04610120830184612459565b9b9a5050505050505050505050565b7f496e76616c6964206e756d626572000000000000000000000000000000000000600082015250565b6000613a49600e836132af565b9150613a5482613a13565b602082019050919050565b60006020820190508181036000830152613a7881613a3c565b9050919050565b6000613a8a826126e7565b9150613a95836126e7565b925082613aa557613aa46138a8565b5b828204905092915050565b6000613abb826126e7565b9150613ac6836126e7565b9250817fffffffffffffffffffffffffffffffffffffffffffffffffffffffffffffffff0483118215151615613aff57613afe612e78565b5b82820290509291505056fea264697066735822122009bb47b812f76722643fa4962b4b05847e5bdd8538e1c6d017f06a8b860fbf5464736f6c634300080c0033",
  "linkReferences": {
    "src/bls/lib/BLSOpen.sol": {
      "BLSOpen": [
        {
          "length": 20,
          "start": 2273
        },
        {
          "length": 20,
          "start": 2458
        },
        {
          "length": 20,
          "start": 4282
        },
        {
          "length": 20,
          "start": 5259
        }
      ]
    }
  },
  "deployedLinkReferences": {
    "src/bls/lib/BLSOpen.sol": {
      "BLSOpen": [
        {
          "length": 20,
          "start": 2241
        },
        {
          "length": 20,
          "start": 2426
        },
        {
          "length": 20,
          "start": 4250
        },
        {
          "length": 20,
          "start": 5227
        }
      ]
    }
  }
}