{
  "address": "0x8C842380d657fb3826C46D3666e977C7A227cFA6",
  "abi": [
    {
      "inputs": [],
      "stateMutability": "nonpayable",
      "type": "constructor"
    },
    {
      "inputs": [],
      "name": "accountImplementation",
      "outputs": [
        {
          "internalType": "contract EtherspotWallet",
          "name": "",
          "type": "address"
        }
      ],
      "stateMutability": "view",
      "type": "function"
    },
    {
      "inputs": [
        {
          "internalType": "contract IEntryPoint",
          "name": "_entryPoint",
          "type": "address"
        },
        {
          "internalType": "address",
          "name": "owner",
          "type": "address"
        },
        {
          "internalType": "uint256",
          "name": "salt",
          "type": "uint256"
        }
      ],
      "name": "createAccount",
      "outputs": [
        {
          "internalType": "contract EtherspotWallet",
          "name": "ret",
          "type": "address"
        }
      ],
      "stateMutability": "nonpayable",
      "type": "function"
    },
    {
      "inputs": [
        {
          "internalType": "contract IEntryPoint",
          "name": "_entryPoint",
          "type": "address"
        },
        {
          "internalType": "address",
          "name": "owner",
          "type": "address"
        },
        {
          "internalType": "uint256",
          "name": "salt",
          "type": "uint256"
        }
      ],
      "name": "getAddress",
      "outputs": [
        {
          "internalType": "address",
          "name": "",
          "type": "address"
        }
      ],
      "stateMutability": "view",
      "type": "function"
    }
  ],
  "transactionHash": "0x57f5818836e6739add364fc66f87f5c8b013192defa923492ef7b6a1c30f81ad",
  "args": [],
  "numDeployments": 4,
  "solcInputHash": "31dfd584fe19533bfaa26f4d41f6711c",
  "bytecode": "0x60a060405234801561001057600080fd5b5060405161001d90610072565b604051809103906000f080158015610039573d6000803e3d6000fd5b5073ffffffffffffffffffffffffffffffffffffffff1660808173ffffffffffffffffffffffffffffffffffffffff168152505061007f565b61503b8061142683390190565b60805161137e6100a86000396000818161010b015281816101e0015261024b015261137e6000f3fe60806040523480156200001157600080fd5b5060043610620000465760003560e01c806308a6354e146200004b57806311464fbe14620000815780631230aea214620000a3575b600080fd5b62000069600480360381019062000063919062000447565b620000d9565b604051620000789190620004b4565b60405180910390f35b6200008b620001de565b6040516200009a91906200053c565b60405180910390f35b620000c16004803603810190620000bb919062000447565b62000202565b604051620000d091906200053c565b60405180910390f35b6000620001d58260001b60405180602001620000f5906200034f565b6020820181038252601f19601f820116604052507f000000000000000000000000000000000000000000000000000000000000000087876040516024016200013f92919062000592565b60405160208183030381529060405263485cc95560e01b6020820180517bffffffffffffffffffffffffffffffffffffffffffffffffffffffff83818316178352505050506040516020016200019792919062000659565b604051602081830303815290604052604051602001620001b9929190620006cf565b604051602081830303815290604052805190602001206200030d565b90509392505050565b7f000000000000000000000000000000000000000000000000000000000000000081565b60008062000212858585620000d9565b905060008173ffffffffffffffffffffffffffffffffffffffff163b905060008111156200024557819250505062000306565b8360001b7f000000000000000000000000000000000000000000000000000000000000000087876040516024016200027f92919062000592565b60405160208183030381529060405263485cc95560e01b6020820180517bffffffffffffffffffffffffffffffffffffffffffffffffffffffff8381831617835250505050604051620002d2906200034f565b620002df92919062000659565b8190604051809103906000f590508015801562000300573d6000803e3d6000fd5b50925050505b9392505050565b60006200031c83833062000324565b905092915050565b6000604051836040820152846020820152828152600b810160ff815360558120925050509392505050565b610c5180620006f883390190565b600080fd5b600073ffffffffffffffffffffffffffffffffffffffff82169050919050565b60006200038f8262000362565b9050919050565b6000620003a38262000382565b9050919050565b620003b58162000396565b8114620003c157600080fd5b50565b600081359050620003d581620003aa565b92915050565b620003e68162000382565b8114620003f257600080fd5b50565b6000813590506200040681620003db565b92915050565b6000819050919050565b62000421816200040c565b81146200042d57600080fd5b50565b600081359050620004418162000416565b92915050565b6000806000606084860312156200046357620004626200035d565b5b60006200047386828701620003c4565b93505060206200048686828701620003f5565b9250506040620004998682870162000430565b9150509250925092565b620004ae8162000382565b82525050565b6000602082019050620004cb6000830184620004a3565b92915050565b6000819050919050565b6000620004fc620004f6620004f08462000362565b620004d1565b62000362565b9050919050565b60006200051082620004db565b9050919050565b6000620005248262000503565b9050919050565b620005368162000517565b82525050565b60006020820190506200055360008301846200052b565b92915050565b60006200056682620004db565b9050919050565b60006200057a8262000559565b9050919050565b6200058c816200056d565b82525050565b6000604082019050620005a9600083018562000581565b620005b86020830184620004a3565b9392505050565b600081519050919050565b600082825260208201905092915050565b60005b83811015620005fb578082015181840152602081019050620005de565b60008484015250505050565b6000601f19601f8301169050919050565b60006200062582620005bf565b620006318185620005ca565b935062000643818560208601620005db565b6200064e8162000607565b840191505092915050565b6000604082019050620006706000830185620004a3565b818103602083015262000684818462000618565b90509392505050565b600081905092915050565b6000620006a582620005bf565b620006b181856200068d565b9350620006c3818560208601620005db565b80840191505092915050565b6000620006dd828562000698565b9150620006eb828462000698565b9150819050939250505056fe608060405260405162000c5138038062000c51833981810160405281019062000029919062000580565b6200003d828260006200004560201b60201c565b5050620007d7565b62000056836200008860201b60201c565b600082511180620000645750805b156200008357620000818383620000df60201b620000371760201c565b505b505050565b62000099816200011560201b60201c565b8073ffffffffffffffffffffffffffffffffffffffff167fbc7cd75a20ee27fd9adebab32041f755214dbc6bffa90cc0225b39da2e5c2d3b60405160405180910390a250565b60606200010d838360405180606001604052806027815260200162000c2a60279139620001eb60201b60201c565b905092915050565b6200012b816200027d60201b620000641760201c565b6200016d576040517f08c379a000000000000000000000000000000000000000000000000000000000815260040162000164906200066d565b60405180910390fd5b80620001a77f360894a13ba1a3210667c828492db98dca3e2076cc3735a920a3ca505d382bbc60001b620002a060201b620000871760201c565b60000160006101000a81548173ffffffffffffffffffffffffffffffffffffffff021916908373ffffffffffffffffffffffffffffffffffffffff16021790555050565b60606000808573ffffffffffffffffffffffffffffffffffffffff1685604051620002179190620006dc565b600060405180830381855af49150503d806000811462000254576040519150601f19603f3d011682016040523d82523d6000602084013e62000259565b606091505b50915091506200027286838387620002aa60201b60201c565b925050509392505050565b6000808273ffffffffffffffffffffffffffffffffffffffff163b119050919050565b6000819050919050565b606083156200031a5760008351036200031157620002ce856200027d60201b60201c565b62000310576040517f08c379a0000000000000000000000000000000000000000000000000000000008152600401620003079062000745565b60405180910390fd5b5b8290506200032d565b6200032c83836200033560201b60201c565b5b949350505050565b600082511115620003495781518083602001fd5b806040517f08c379a00000000000000000000000000000000000000000000000000000000081526004016200037f9190620007b3565b60405180910390fd5b6000604051905090565b600080fd5b600080fd5b600073ffffffffffffffffffffffffffffffffffffffff82169050919050565b6000620003c9826200039c565b9050919050565b620003db81620003bc565b8114620003e757600080fd5b50565b600081519050620003fb81620003d0565b92915050565b600080fd5b600080fd5b6000601f19601f8301169050919050565b7f4e487b7100000000000000000000000000000000000000000000000000000000600052604160045260246000fd5b62000456826200040b565b810181811067ffffffffffffffff821117156200047857620004776200041c565b5b80604052505050565b60006200048d62000388565b90506200049b82826200044b565b919050565b600067ffffffffffffffff821115620004be57620004bd6200041c565b5b620004c9826200040b565b9050602081019050919050565b60005b83811015620004f6578082015181840152602081019050620004d9565b60008484015250505050565b6000620005196200051384620004a0565b62000481565b90508281526020810184848401111562000538576200053762000406565b5b62000545848285620004d6565b509392505050565b600082601f83011262000565576200056462000401565b5b81516200057784826020860162000502565b91505092915050565b600080604083850312156200059a576200059962000392565b5b6000620005aa85828601620003ea565b925050602083015167ffffffffffffffff811115620005ce57620005cd62000397565b5b620005dc858286016200054d565b9150509250929050565b600082825260208201905092915050565b7f455243313936373a206e657720696d706c656d656e746174696f6e206973206e60008201527f6f74206120636f6e747261637400000000000000000000000000000000000000602082015250565b600062000655602d83620005e6565b91506200066282620005f7565b604082019050919050565b60006020820190508181036000830152620006888162000646565b9050919050565b600081519050919050565b600081905092915050565b6000620006b2826200068f565b620006be81856200069a565b9350620006d0818560208601620004d6565b80840191505092915050565b6000620006ea8284620006a5565b915081905092915050565b7f416464726573733a2063616c6c20746f206e6f6e2d636f6e7472616374000000600082015250565b60006200072d601d83620005e6565b91506200073a82620006f5565b602082019050919050565b6000602082019050818103600083015262000760816200071e565b9050919050565b600081519050919050565b60006200077f8262000767565b6200078b8185620005e6565b93506200079d818560208601620004d6565b620007a8816200040b565b840191505092915050565b60006020820190508181036000830152620007cf818462000772565b905092915050565b61044380620007e76000396000f3fe6080604052366100135761001161001d565b005b61001b61001d565b005b610025610091565b610035610030610093565b6100a2565b565b606061005c83836040518060600160405280602781526020016103e7602791396100c8565b905092915050565b6000808273ffffffffffffffffffffffffffffffffffffffff163b119050919050565b6000819050919050565b565b600061009d61014e565b905090565b3660008037600080366000845af43d6000803e80600081146100c3573d6000f35b3d6000fd5b60606000808573ffffffffffffffffffffffffffffffffffffffff16856040516100f291906102db565b600060405180830381855af49150503d806000811461012d576040519150601f19603f3d011682016040523d82523d6000602084013e610132565b606091505b5091509150610143868383876101a5565b925050509392505050565b600061017c7f360894a13ba1a3210667c828492db98dca3e2076cc3735a920a3ca505d382bbc60001b610087565b60000160009054906101000a900473ffffffffffffffffffffffffffffffffffffffff16905090565b606083156102075760008351036101ff576101bf85610064565b6101fe576040517f08c379a00000000000000000000000000000000000000000000000000000000081526004016101f59061034f565b60405180910390fd5b5b829050610212565b610211838361021a565b5b949350505050565b60008251111561022d5781518083602001fd5b806040517f08c379a000000000000000000000000000000000000000000000000000000000815260040161026191906103c4565b60405180910390fd5b600081519050919050565b600081905092915050565b60005b8381101561029e578082015181840152602081019050610283565b60008484015250505050565b60006102b58261026a565b6102bf8185610275565b93506102cf818560208601610280565b80840191505092915050565b60006102e782846102aa565b915081905092915050565b600082825260208201905092915050565b7f416464726573733a2063616c6c20746f206e6f6e2d636f6e7472616374000000600082015250565b6000610339601d836102f2565b915061034482610303565b602082019050919050565b600060208201905081810360008301526103688161032c565b9050919050565b600081519050919050565b6000601f19601f8301169050919050565b60006103968261036f565b6103a081856102f2565b93506103b0818560208601610280565b6103b98161037a565b840191505092915050565b600060208201905081810360008301526103de818461038b565b90509291505056fe416464726573733a206c6f772d6c6576656c2064656c65676174652063616c6c206661696c6564a2646970667358221220f29db87848f0c0d734f6d66ce0511bbd3becfe7a3794cd680d0abd7c3ac6d10f64736f6c63430008110033416464726573733a206c6f772d6c6576656c2064656c65676174652063616c6c206661696c6564a26469706673582212208fb9ea34e1289aebfe07deb3cf68c194c4add1ad6f9c738729972fa843efe8ec64736f6c6343000811003360a06040523073ffffffffffffffffffffffffffffffffffffffff1660809073ffffffffffffffffffffffffffffffffffffffff168152503480156200004457600080fd5b50620000556200005b60201b60201c565b62000206565b600060019054906101000a900460ff1615620000ae576040517f08c379a0000000000000000000000000000000000000000000000000000000008152600401620000a590620001a9565b60405180910390fd5b60ff801660008054906101000a900460ff1660ff161015620001205760ff6000806101000a81548160ff021916908360ff1602179055507f7f26b83ff96e1f2b6a682f133852f6798a09c465da95921460cefb384740249860ff604051620001179190620001e9565b60405180910390a15b565b600082825260208201905092915050565b7f496e697469616c697a61626c653a20636f6e747261637420697320696e69746960008201527f616c697a696e6700000000000000000000000000000000000000000000000000602082015250565b60006200019160278362000122565b91506200019e8262000133565b604082019050919050565b60006020820190508181036000830152620001c48162000182565b9050919050565b600060ff82169050919050565b620001e381620001cb565b82525050565b6000602082019050620002006000830184620001d8565b92915050565b608051614dfd6200023e600039600081816110000152818161108e015281816114080152818161149601526115460152614dfd6000f3fe60806040526004361061019f5760003560e01c80634d44560d116100ec578063a526d83b1161008a578063b61d27f611610064578063b61d27f614610618578063bc197c8114610641578063c399ec881461067e578063f23a6e61146106a9576101ea565b8063a526d83b14610599578063affed0e0146105c2578063b0d691fe146105ed576101ea565b80637065cb48116100c65780637065cb48146104cd57806371404156146104f65780638f0684301461051f57806398ef1ed81461055c576101ea565b80634d44560d1461045d5780634f1ef2861461048657806352d1902d146104a2576101ea565b806318dfb3c7116101595780633659cfe6116101335780633659cfe6146103c45780633a871cdd146103ed578063485cc9551461042a5780634a58db1914610453576101ea565b806318dfb3c7146103355780631b71bb6e1461035e5780632f54bf6e14610387576101ea565b806223de29146101ef57806301ffc9a7146102185780630c68ba2114610255578063150b7a021461029257806316d43401146102cf578063173825d91461030c576101ea565b366101ea57343373ffffffffffffffffffffffffffffffffffffffff167f6bfe7d1a46050e376574ac8bf67e7ceefae9d5c3ea3f3d8f42d08fb5e10736ec60405160405180910390a3005b600080fd5b3480156101fb57600080fd5b5061021660048036038101906102119190612cd2565b6106e6565b005b34801561022457600080fd5b5061023f600480360381019061023a9190612df9565b6106f0565b60405161024c9190612e41565b60405180910390f35b34801561026157600080fd5b5061027c60048036038101906102779190612e5c565b61082a565b6040516102899190612e41565b60405180910390f35b34801561029e57600080fd5b506102b960048036038101906102b49190612e89565b610880565b6040516102c69190612f20565b60405180910390f35b3480156102db57600080fd5b506102f660048036038101906102f19190612f9d565b610895565b6040516103039190612e41565b60405180910390f35b34801561031857600080fd5b50610333600480360381019061032e9190612e5c565b610d6c565b005b34801561034157600080fd5b5061035c600480360381019061035791906130d1565b610d80565b005b34801561036a57600080fd5b5061038560048036038101906103809190612e5c565b610e92565b005b34801561039357600080fd5b506103ae60048036038101906103a99190612e5c565b610fa8565b6040516103bb9190612e41565b60405180910390f35b3480156103d057600080fd5b506103eb60048036038101906103e69190612e5c565b610ffe565b005b3480156103f957600080fd5b50610414600480360381019061040f9190613177565b611186565b60405161042191906131f5565b60405180910390f35b34801561043657600080fd5b50610451600480360381019061044c919061324e565b6111cf565b005b61045b611311565b005b34801561046957600080fd5b50610484600480360381019061047f91906132cc565b611386565b005b6104a0600480360381019061049b919061344d565b611406565b005b3480156104ae57600080fd5b506104b7611542565b6040516104c491906134b8565b60405180910390f35b3480156104d957600080fd5b506104f460048036038101906104ef9190612e5c565b6115fb565b005b34801561050257600080fd5b5061051d60048036038101906105189190612e5c565b61160f565b005b34801561052b57600080fd5b50610546600480360381019061054191906134d3565b611623565b6040516105539190612e41565b60405180910390f35b34801561056857600080fd5b50610583600480360381019061057e91906134d3565b6116b4565b6040516105909190612e41565b60405180910390f35b3480156105a557600080fd5b506105c060048036038101906105bb9190612e5c565b6117d9565b005b3480156105ce57600080fd5b506105d76117ed565b6040516105e491906131f5565b60405180910390f35b3480156105f957600080fd5b5061060261181d565b60405161060f91906135a6565b60405180910390f35b34801561062457600080fd5b5061063f600480360381019061063a91906135c1565b611847565b005b34801561064d57600080fd5b506106686004803603810190610663919061368b565b6118a4565b6040516106759190612f20565b60405180910390f35b34801561068a57600080fd5b506106936118bc565b6040516106a091906131f5565b60405180910390f35b3480156106b557600080fd5b506106d060048036038101906106cb9190613767565b611944565b6040516106dd9190612f20565b60405180910390f35b5050505050505050565b60007f150b7a02000000000000000000000000000000000000000000000000000000007bffffffffffffffffffffffffffffffffffffffffffffffffffffffff1916827bffffffffffffffffffffffffffffffffffffffffffffffffffffffff191614806107bb57507f4e2312e0000000000000000000000000000000000000000000000000000000007bffffffffffffffffffffffffffffffffffffffffffffffffffffffff1916827bffffffffffffffffffffffffffffffffffffffffffffffffffffffff1916145b8061082357507f01ffc9a7000000000000000000000000000000000000000000000000000000007bffffffffffffffffffffffffffffffffffffffffffffffffffffffff1916827bffffffffffffffffffffffffffffffffffffffffffffffffffffffff1916145b9050919050565b6000600260008373ffffffffffffffffffffffffffffffffffffffff1673ffffffffffffffffffffffffffffffffffffffff16815260200190815260200160002060009054906101000a900460ff169050919050565b600063150b7a0260e01b905095945050505050565b6000808673ffffffffffffffffffffffffffffffffffffffff163b9050606060007f649264926492649264926492649264926492649264926492649264926492649260001b878760208a8a90506108ec9190613830565b908a8a9050926108fe9392919061386e565b9061090991906138c1565b1490508015610a145760006060888860009060208c8c905061092b9190613830565b926109389392919061386e565b8101906109459190613920565b80965081935082945050505060008503610a0d576000808373ffffffffffffffffffffffffffffffffffffffff16836040516109819190613a1c565b6000604051808303816000865af19150503d80600081146109be576040519150601f19603f3d011682016040523d82523d6000602084013e6109c3565b606091505b509150915081610a0a57806040517f9d0d6e2d000000000000000000000000000000000000000000000000000000008152600401610a019190613a7d565b60405180910390fd5b50505b5050610a5c565b86868080601f016020809104026020016040519081016040528093929190818152602001838380828437600081840152601f19601f8201169050808301925050505050505091505b8080610a685750600083115b15610bd4578873ffffffffffffffffffffffffffffffffffffffff16631626ba7e89846040518363ffffffff1660e01b8152600401610aa8929190613a9f565b602060405180830381865afa925050508015610ae257506040513d601f19601f82011682018060405250810190610adf9190613ae4565b60015b610b55573d8060008114610b12576040519150601f19603f3d011682016040523d82523d6000602084013e610b17565b606091505b50806040517f6f2a9599000000000000000000000000000000000000000000000000000000008152600401610b4c9190613a7d565b60405180910390fd5b6000631626ba7e60e01b7bffffffffffffffffffffffffffffffffffffffffffffffffffffffff1916827bffffffffffffffffffffffffffffffffffffffffffffffffffffffff1916149050600085148015610bae5750825b8015610bb8575086155b15610bc757806000526001601ffd5b8095505050505050610d63565b60418787905014610c1a576040517f08c379a0000000000000000000000000000000000000000000000000000000008152600401610c1190613b94565b60405180910390fd5b60008787600090602092610c309392919061386e565b90610c3b91906138c1565b905060008888602090604092610c539392919061386e565b90610c5e91906138c1565b9050600089896040818110610c7657610c75613bb4565b5b9050013560f81c60f81b60f81c9050601b8160ff1614158015610c9d5750601c8160ff1614155b15610cdd576040517f08c379a0000000000000000000000000000000000000000000000000000000008152600401610cd490613c55565b60405180910390fd5b8b73ffffffffffffffffffffffffffffffffffffffff1660018c83868660405160008152602001604052604051610d179493929190613c91565b6020604051602081039080840390855afa158015610d39573d6000803e3d6000fd5b5050506020604051035173ffffffffffffffffffffffffffffffffffffffff161496505050505050505b95945050505050565b610d7461195a565b610d7d816119ea565b50565b610d88611b76565b818190508484905014610dd0576040517f08c379a0000000000000000000000000000000000000000000000000000000008152600401610dc790613d48565b60405180910390fd5b60005b84849050811015610e8b57610e78858583818110610df457610df3613bb4565b5b9050602002016020810190610e099190612e5c565b6000858585818110610e1e57610e1d613bb4565b5b9050602002810190610e309190613d77565b8080601f016020809104026020016040519081016040528093929190818152602001838380828437600081840152601f19601f82011690508083019250505050505050611c33565b8080610e8390613dda565b915050610dd3565b5050505050565b610e9a611cb7565b600073ffffffffffffffffffffffffffffffffffffffff168173ffffffffffffffffffffffffffffffffffffffff1603610f09576040517f08c379a0000000000000000000000000000000000000000000000000000000008152600401610f0090613e94565b60405180910390fd5b7f450909c1478d09248269d4ad4fa8cba61ca3f50faed58c7aedefa51c7f62b83a600360009054906101000a900473ffffffffffffffffffffffffffffffffffffffff1682604051610f5c929190613ec3565b60405180910390a180600360006101000a81548173ffffffffffffffffffffffffffffffffffffffff021916908373ffffffffffffffffffffffffffffffffffffffff16021790555050565b6000600160008373ffffffffffffffffffffffffffffffffffffffff1673ffffffffffffffffffffffffffffffffffffffff16815260200190815260200160002060009054906101000a900460ff169050919050565b7f000000000000000000000000000000000000000000000000000000000000000073ffffffffffffffffffffffffffffffffffffffff163073ffffffffffffffffffffffffffffffffffffffff160361108c576040517f08c379a000000000000000000000000000000000000000000000000000000000815260040161108390613f5e565b60405180910390fd5b7f000000000000000000000000000000000000000000000000000000000000000073ffffffffffffffffffffffffffffffffffffffff166110cb611d37565b73ffffffffffffffffffffffffffffffffffffffff1614611121576040517f08c379a000000000000000000000000000000000000000000000000000000000815260040161111890613ff0565b60405180910390fd5b61112a81611d8e565b61118381600067ffffffffffffffff81111561114957611148613322565b5b6040519080825280601f01601f19166020018201604052801561117b5781602001600182028036833780820191505090505b506000611d99565b50565b6000611190611f07565b61119a8484611f7e565b905060008480604001906111ae9190613d77565b9050036111bf576111be84612014565b5b6111c8826120c2565b9392505050565b60008060019054906101000a900460ff161590508080156112005750600160008054906101000a900460ff1660ff16105b8061122d575061120f3061215e565b15801561122c5750600160008054906101000a900460ff1660ff16145b5b61126c576040517f08c379a000000000000000000000000000000000000000000000000000000000815260040161126390614082565b60405180910390fd5b60016000806101000a81548160ff021916908360ff16021790555080156112a9576001600060016101000a81548160ff0219169083151502179055505b6112b38383612181565b801561130c5760008060016101000a81548160ff0219169083151502179055507f7f26b83ff96e1f2b6a682f133852f6798a09c465da95921460cefb3847402498600160405161130391906140dd565b60405180910390a15b505050565b61131961181d565b73ffffffffffffffffffffffffffffffffffffffff1663b760faf934306040518363ffffffff1660e01b815260040161135291906140f8565b6000604051808303818588803b15801561136b57600080fd5b505af115801561137f573d6000803e3d6000fd5b5050505050565b61138e611cb7565b61139661181d565b73ffffffffffffffffffffffffffffffffffffffff1663205c287883836040518363ffffffff1660e01b81526004016113d0929190614122565b600060405180830381600087803b1580156113ea57600080fd5b505af11580156113fe573d6000803e3d6000fd5b505050505050565b7f000000000000000000000000000000000000000000000000000000000000000073ffffffffffffffffffffffffffffffffffffffff163073ffffffffffffffffffffffffffffffffffffffff1603611494576040517f08c379a000000000000000000000000000000000000000000000000000000000815260040161148b90613f5e565b60405180910390fd5b7f000000000000000000000000000000000000000000000000000000000000000073ffffffffffffffffffffffffffffffffffffffff166114d3611d37565b73ffffffffffffffffffffffffffffffffffffffff1614611529576040517f08c379a000000000000000000000000000000000000000000000000000000000815260040161152090613ff0565b60405180910390fd5b61153282611d8e565b61153e82826001611d99565b5050565b60007f000000000000000000000000000000000000000000000000000000000000000073ffffffffffffffffffffffffffffffffffffffff163073ffffffffffffffffffffffffffffffffffffffff16146115d2576040517f08c379a00000000000000000000000000000000000000000000000000000000081526004016115c9906141bd565b60405180910390fd5b7f360894a13ba1a3210667c828492db98dca3e2076cc3735a920a3ca505d382bbc60001b905090565b61160361195a565b61160c8161224b565b50565b611617611cb7565b61162081612369565b50565b60003073ffffffffffffffffffffffffffffffffffffffff166316d434018686868660016040518663ffffffff1660e01b815260040161166795949392919061420a565b6020604051808303816000875af1158015611686573d6000803e3d6000fd5b505050506040513d601f19601f820116820180604052508101906116aa919061426d565b9050949350505050565b60003073ffffffffffffffffffffffffffffffffffffffff166316d434018686868660006040518663ffffffff1660e01b81526004016116f895949392919061420a565b6020604051808303816000875af192505050801561173457506040513d601f19601f82011682018060405250810190611731919061426d565b60015b6117cc573d8060008114611764576040519150601f19603f3d011682016040523d82523d6000602084013e611769565b606091505b50600081519050600181036117c857600160f81b8260008151811061179157611790613bb4565b5b602001015160f81c60f81b7effffffffffffffffffffffffffffffffffffffffffffffffffffffffffffff191614925050506117d1565b8082fd5b809150505b949350505050565b6117e1611cb7565b6117ea81612487565b50565b6000600560009054906101000a90046bffffffffffffffffffffffff166bffffffffffffffffffffffff16905090565b6000600360009054906101000a900473ffffffffffffffffffffffffffffffffffffffff16905090565b61184f611b76565b61189e848484848080601f016020809104026020016040519081016040528093929190818152602001838380828437600081840152601f19601f82011690508083019250505050505050611c33565b50505050565b600063bc197c8160e01b905098975050505050505050565b60006118c661181d565b73ffffffffffffffffffffffffffffffffffffffff166370a08231306040518263ffffffff1660e01b81526004016118fe91906140f8565b602060405180830381865afa15801561191b573d6000803e3d6000fd5b505050506040513d601f19601f8201168201806040525081019061193f91906142af565b905090565b600063f23a6e6160e01b90509695505050505050565b61196333610fa8565b8061199957503073ffffffffffffffffffffffffffffffffffffffff163373ffffffffffffffffffffffffffffffffffffffff16145b806119a957506119a83361082a565b5b6119e8576040517f08c379a00000000000000000000000000000000000000000000000000000000081526004016119df9061434e565b60405180910390fd5b565b8073ffffffffffffffffffffffffffffffffffffffff163373ffffffffffffffffffffffffffffffffffffffff1603611a58576040517f08c379a0000000000000000000000000000000000000000000000000000000008152600401611a4f906143ba565b60405180910390fd5b600160008273ffffffffffffffffffffffffffffffffffffffff1673ffffffffffffffffffffffffffffffffffffffff16815260200190815260200160002060009054906101000a900460ff16611ae4576040517f08c379a0000000000000000000000000000000000000000000000000000000008152600401611adb90614426565b60405180910390fd5b7f58619076adf5bb0943d100ef88d52d7c3fd691b19d3a9071b555b651fbf418da81604051611b1391906140f8565b60405180910390a16000600160008373ffffffffffffffffffffffffffffffffffffffff1673ffffffffffffffffffffffffffffffffffffffff16815260200190815260200160002060006101000a81548160ff02191690831515021790555050565b611b7e61181d565b73ffffffffffffffffffffffffffffffffffffffff163373ffffffffffffffffffffffffffffffffffffffff161480611bbc5750611bbb33610fa8565b5b80611bf257503073ffffffffffffffffffffffffffffffffffffffff163373ffffffffffffffffffffffffffffffffffffffff16145b611c31576040517f08c379a0000000000000000000000000000000000000000000000000000000008152600401611c28906144b8565b60405180910390fd5b565b6000808473ffffffffffffffffffffffffffffffffffffffff168484604051611c5c9190613a1c565b60006040518083038185875af1925050503d8060008114611c99576040519150601f19603f3d011682016040523d82523d6000602084013e611c9e565b606091505b509150915081611cb057805160208201fd5b5050505050565b611cc033610fa8565b80611cf657503073ffffffffffffffffffffffffffffffffffffffff163373ffffffffffffffffffffffffffffffffffffffff16145b611d35576040517f08c379a0000000000000000000000000000000000000000000000000000000008152600401611d2c90614524565b60405180910390fd5b565b6000611d657f360894a13ba1a3210667c828492db98dca3e2076cc3735a920a3ca505d382bbc60001b612615565b60000160009054906101000a900473ffffffffffffffffffffffffffffffffffffffff16905090565b611d96611cb7565b50565b611dc57f4910fdfa16fed3260ed0e7147f7cc6da11a60208b5b9406d12a635614ffd914360001b61261f565b60000160009054906101000a900460ff1615611de957611de483612629565b611f02565b8273ffffffffffffffffffffffffffffffffffffffff166352d1902d6040518163ffffffff1660e01b8152600401602060405180830381865afa925050508015611e5157506040513d601f19601f82011682018060405250810190611e4e9190614559565b60015b611e90576040517f08c379a0000000000000000000000000000000000000000000000000000000008152600401611e87906145f8565b60405180910390fd5b7f360894a13ba1a3210667c828492db98dca3e2076cc3735a920a3ca505d382bbc60001b8114611ef5576040517f08c379a0000000000000000000000000000000000000000000000000000000008152600401611eec9061468a565b60405180910390fd5b50611f018383836126e2565b5b505050565b611f0f61181d565b73ffffffffffffffffffffffffffffffffffffffff163373ffffffffffffffffffffffffffffffffffffffff1614611f7c576040517f08c379a0000000000000000000000000000000000000000000000000000000008152600401611f739061471c565b60405180910390fd5b565b600080611f8a8361270e565b9050611ffa611ff585806101400190611fa39190613d77565b8080601f016020809104026020016040519081016040528093929190818152602001838380828437600081840152601f19601f820116905080830192505050505050508361273e90919063ffffffff16565b610fa8565b61200857600191505061200e565b60009150505b92915050565b80602001356005600081819054906101000a90046bffffffffffffffffffffffff168092919061204390614754565b91906101000a8154816bffffffffffffffffffffffff02191690836bffffffffffffffffffffffff1602179055506bffffffffffffffffffffffff16146120bf576040517f08c379a00000000000000000000000000000000000000000000000000000000081526004016120b6906147d4565b60405180910390fd5b50565b6000811461215b5760003373ffffffffffffffffffffffffffffffffffffffff16827fffffffffffffffffffffffffffffffffffffffffffffffffffffffffffffffff906040516121129061481a565b600060405180830381858888f193505050503d8060008114612150576040519150601f19603f3d011682016040523d82523d6000602084013e612155565b606091505b50509050505b50565b6000808273ffffffffffffffffffffffffffffffffffffffff163b119050919050565b81600360006101000a81548173ffffffffffffffffffffffffffffffffffffffff021916908373ffffffffffffffffffffffffffffffffffffffff1602179055506121cb8161224b565b8073ffffffffffffffffffffffffffffffffffffffff16600360009054906101000a900473ffffffffffffffffffffffffffffffffffffffff1673ffffffffffffffffffffffffffffffffffffffff167f7de3ed105440056cd9149fc06ecd82c66b9c67841d6dcf50c16a08cc9a5ea2c460405160405180910390a35050565b600160008273ffffffffffffffffffffffffffffffffffffffff1673ffffffffffffffffffffffffffffffffffffffff16815260200190815260200160002060009054906101000a900460ff16156122d8576040517f08c379a00000000000000000000000000000000000000000000000000000000081526004016122cf9061487b565b60405180910390fd5b7f994a936646fe87ffe4f1e469d3d6aa417d6b855598397f323de5b449f765f0c38160405161230791906140f8565b60405180910390a160018060008373ffffffffffffffffffffffffffffffffffffffff1673ffffffffffffffffffffffffffffffffffffffff16815260200190815260200160002060006101000a81548160ff02191690831515021790555050565b600260008273ffffffffffffffffffffffffffffffffffffffff1673ffffffffffffffffffffffffffffffffffffffff16815260200190815260200160002060009054906101000a900460ff166123f5576040517f08c379a00000000000000000000000000000000000000000000000000000000081526004016123ec906148e7565b60405180910390fd5b7fb8107d0c6b40be480ce3172ee66ba6d64b71f6b1685a851340036e6e2e3e3c528160405161242491906140f8565b60405180910390a16000600260008373ffffffffffffffffffffffffffffffffffffffff1673ffffffffffffffffffffffffffffffffffffffff16815260200190815260200160002060006101000a81548160ff02191690831515021790555050565b600073ffffffffffffffffffffffffffffffffffffffff168173ffffffffffffffffffffffffffffffffffffffff16036124f6576040517f08c379a00000000000000000000000000000000000000000000000000000000081526004016124ed90614979565b60405180910390fd5b600260008273ffffffffffffffffffffffffffffffffffffffff1673ffffffffffffffffffffffffffffffffffffffff16815260200190815260200160002060009054906101000a900460ff1615612583576040517f08c379a000000000000000000000000000000000000000000000000000000000815260040161257a906149e5565b60405180910390fd5b7f038596bb31e2e7d3d9f184d4c98b310103f6d7f5830e5eec32bffe6f1728f969816040516125b291906140f8565b60405180910390a16001600260008373ffffffffffffffffffffffffffffffffffffffff1673ffffffffffffffffffffffffffffffffffffffff16815260200190815260200160002060006101000a81548160ff02191690831515021790555050565b6000819050919050565b6000819050919050565b6126328161215e565b612671576040517f08c379a000000000000000000000000000000000000000000000000000000000815260040161266890614a77565b60405180910390fd5b8061269e7f360894a13ba1a3210667c828492db98dca3e2076cc3735a920a3ca505d382bbc60001b612615565b60000160006101000a81548173ffffffffffffffffffffffffffffffffffffffff021916908373ffffffffffffffffffffffffffffffffffffffff16021790555050565b6126eb83612765565b6000825111806126f85750805b156127095761270783836127b4565b505b505050565b6000816040516020016127219190614b0f565b604051602081830303815290604052805190602001209050919050565b600080600061274d85856127e1565b9150915061275a81612832565b819250505092915050565b61276e81612629565b8073ffffffffffffffffffffffffffffffffffffffff167fbc7cd75a20ee27fd9adebab32041f755214dbc6bffa90cc0225b39da2e5c2d3b60405160405180910390a250565b60606127d98383604051806060016040528060278152602001614da160279139612998565b905092915050565b60008060418351036128225760008060006020860151925060408601519150606086015160001a905061281687828585612a1e565b9450945050505061282b565b60006002915091505b9250929050565b6000600481111561284657612845614b35565b5b81600481111561285957612858614b35565b5b0315612995576001600481111561287357612872614b35565b5b81600481111561288657612885614b35565b5b036128c6576040517f08c379a00000000000000000000000000000000000000000000000000000000081526004016128bd90614bb0565b60405180910390fd5b600260048111156128da576128d9614b35565b5b8160048111156128ed576128ec614b35565b5b0361292d576040517f08c379a000000000000000000000000000000000000000000000000000000000815260040161292490614c1c565b60405180910390fd5b6003600481111561294157612940614b35565b5b81600481111561295457612953614b35565b5b03612994576040517f08c379a000000000000000000000000000000000000000000000000000000000815260040161298b90614cae565b60405180910390fd5b5b50565b60606000808573ffffffffffffffffffffffffffffffffffffffff16856040516129c29190613a1c565b600060405180830381855af49150503d80600081146129fd576040519150601f19603f3d011682016040523d82523d6000602084013e612a02565b606091505b5091509150612a1386838387612b00565b925050509392505050565b6000807f7fffffffffffffffffffffffffffffff5d576e7357a4501ddfe92f46681b20a08360001c1115612a59576000600391509150612af7565b600060018787878760405160008152602001604052604051612a7e9493929190613c91565b6020604051602081039080840390855afa158015612aa0573d6000803e3d6000fd5b505050602060405103519050600073ffffffffffffffffffffffffffffffffffffffff168173ffffffffffffffffffffffffffffffffffffffff1603612aee57600060019250925050612af7565b80600092509250505b94509492505050565b60608315612b62576000835103612b5a57612b1a8561215e565b612b59576040517f08c379a0000000000000000000000000000000000000000000000000000000008152600401612b5090614d1a565b60405180910390fd5b5b829050612b6d565b612b6c8383612b75565b5b949350505050565b600082511115612b885781518083602001fd5b806040517f08c379a0000000000000000000000000000000000000000000000000000000008152600401612bbc9190614d7e565b60405180910390fd5b6000604051905090565b600080fd5b600080fd5b600073ffffffffffffffffffffffffffffffffffffffff82169050919050565b6000612c0482612bd9565b9050919050565b612c1481612bf9565b8114612c1f57600080fd5b50565b600081359050612c3181612c0b565b92915050565b6000819050919050565b612c4a81612c37565b8114612c5557600080fd5b50565b600081359050612c6781612c41565b92915050565b600080fd5b600080fd5b600080fd5b60008083601f840112612c9257612c91612c6d565b5b8235905067ffffffffffffffff811115612caf57612cae612c72565b5b602083019150836001820283011115612ccb57612cca612c77565b5b9250929050565b60008060008060008060008060c0898b031215612cf257612cf1612bcf565b5b6000612d008b828c01612c22565b9850506020612d118b828c01612c22565b9750506040612d228b828c01612c22565b9650506060612d338b828c01612c58565b955050608089013567ffffffffffffffff811115612d5457612d53612bd4565b5b612d608b828c01612c7c565b945094505060a089013567ffffffffffffffff811115612d8357612d82612bd4565b5b612d8f8b828c01612c7c565b92509250509295985092959890939650565b60007fffffffff0000000000000000000000000000000000000000000000000000000082169050919050565b612dd681612da1565b8114612de157600080fd5b50565b600081359050612df381612dcd565b92915050565b600060208284031215612e0f57612e0e612bcf565b5b6000612e1d84828501612de4565b91505092915050565b60008115159050919050565b612e3b81612e26565b82525050565b6000602082019050612e566000830184612e32565b92915050565b600060208284031215612e7257612e71612bcf565b5b6000612e8084828501612c22565b91505092915050565b600080600080600060808688031215612ea557612ea4612bcf565b5b6000612eb388828901612c22565b9550506020612ec488828901612c22565b9450506040612ed588828901612c58565b935050606086013567ffffffffffffffff811115612ef657612ef5612bd4565b5b612f0288828901612c7c565b92509250509295509295909350565b612f1a81612da1565b82525050565b6000602082019050612f356000830184612f11565b92915050565b6000819050919050565b612f4e81612f3b565b8114612f5957600080fd5b50565b600081359050612f6b81612f45565b92915050565b612f7a81612e26565b8114612f8557600080fd5b50565b600081359050612f9781612f71565b92915050565b600080600080600060808688031215612fb957612fb8612bcf565b5b6000612fc788828901612c22565b9550506020612fd888828901612f5c565b945050604086013567ffffffffffffffff811115612ff957612ff8612bd4565b5b61300588828901612c7c565b9350935050606061301888828901612f88565b9150509295509295909350565b60008083601f84011261303b5761303a612c6d565b5b8235905067ffffffffffffffff81111561305857613057612c72565b5b60208301915083602082028301111561307457613073612c77565b5b9250929050565b60008083601f84011261309157613090612c6d565b5b8235905067ffffffffffffffff8111156130ae576130ad612c72565b5b6020830191508360208202830111156130ca576130c9612c77565b5b9250929050565b600080600080604085870312156130eb576130ea612bcf565b5b600085013567ffffffffffffffff81111561310957613108612bd4565b5b61311587828801613025565b9450945050602085013567ffffffffffffffff81111561313857613137612bd4565b5b6131448782880161307b565b925092505092959194509250565b600080fd5b6000610160828403121561316e5761316d613152565b5b81905092915050565b6000806000606084860312156131905761318f612bcf565b5b600084013567ffffffffffffffff8111156131ae576131ad612bd4565b5b6131ba86828701613157565b93505060206131cb86828701612f5c565b92505060406131dc86828701612c58565b9150509250925092565b6131ef81612c37565b82525050565b600060208201905061320a60008301846131e6565b92915050565b600061321b82612bf9565b9050919050565b61322b81613210565b811461323657600080fd5b50565b60008135905061324881613222565b92915050565b6000806040838503121561326557613264612bcf565b5b600061327385828601613239565b925050602061328485828601612c22565b9150509250929050565b600061329982612bd9565b9050919050565b6132a98161328e565b81146132b457600080fd5b50565b6000813590506132c6816132a0565b92915050565b600080604083850312156132e3576132e2612bcf565b5b60006132f1858286016132b7565b925050602061330285828601612c58565b9150509250929050565b600080fd5b6000601f19601f8301169050919050565b7f4e487b7100000000000000000000000000000000000000000000000000000000600052604160045260246000fd5b61335a82613311565b810181811067ffffffffffffffff8211171561337957613378613322565b5b80604052505050565b600061338c612bc5565b90506133988282613351565b919050565b600067ffffffffffffffff8211156133b8576133b7613322565b5b6133c182613311565b9050602081019050919050565b82818337600083830152505050565b60006133f06133eb8461339d565b613382565b90508281526020810184848401111561340c5761340b61330c565b5b6134178482856133ce565b509392505050565b600082601f83011261343457613433612c6d565b5b81356134448482602086016133dd565b91505092915050565b6000806040838503121561346457613463612bcf565b5b600061347285828601612c22565b925050602083013567ffffffffffffffff81111561349357613492612bd4565b5b61349f8582860161341f565b9150509250929050565b6134b281612f3b565b82525050565b60006020820190506134cd60008301846134a9565b92915050565b600080600080606085870312156134ed576134ec612bcf565b5b60006134fb87828801612c22565b945050602061350c87828801612f5c565b935050604085013567ffffffffffffffff81111561352d5761352c612bd4565b5b61353987828801612c7c565b925092505092959194509250565b6000819050919050565b600061356c61356761356284612bd9565b613547565b612bd9565b9050919050565b600061357e82613551565b9050919050565b600061359082613573565b9050919050565b6135a081613585565b82525050565b60006020820190506135bb6000830184613597565b92915050565b600080600080606085870312156135db576135da612bcf565b5b60006135e987828801612c22565b94505060206135fa87828801612c58565b935050604085013567ffffffffffffffff81111561361b5761361a612bd4565b5b61362787828801612c7c565b925092505092959194509250565b60008083601f84011261364b5761364a612c6d565b5b8235905067ffffffffffffffff81111561366857613667612c72565b5b60208301915083602082028301111561368457613683612c77565b5b9250929050565b60008060008060008060008060a0898b0312156136ab576136aa612bcf565b5b60006136b98b828c01612c22565b98505060206136ca8b828c01612c22565b975050604089013567ffffffffffffffff8111156136eb576136ea612bd4565b5b6136f78b828c01613635565b9650965050606089013567ffffffffffffffff81111561371a57613719612bd4565b5b6137268b828c01613635565b9450945050608089013567ffffffffffffffff81111561374957613748612bd4565b5b6137558b828c01612c7c565b92509250509295985092959890939650565b60008060008060008060a0878903121561378457613783612bcf565b5b600061379289828a01612c22565b96505060206137a389828a01612c22565b95505060406137b489828a01612c58565b94505060606137c589828a01612c58565b935050608087013567ffffffffffffffff8111156137e6576137e5612bd4565b5b6137f289828a01612c7c565b92509250509295509295509295565b7f4e487b7100000000000000000000000000000000000000000000000000000000600052601160045260246000fd5b600061383b82612c37565b915061384683612c37565b925082820390508181111561385e5761385d613801565b5b92915050565b600080fd5b600080fd5b6000808585111561388257613881613864565b5b8386111561389357613892613869565b5b6001850283019150848603905094509492505050565b600082905092915050565b600082821b905092915050565b60006138cd83836138a9565b826138d88135612f3b565b92506020821015613918576139137fffffffffffffffffffffffffffffffffffffffffffffffffffffffffffffffff836020036008026138b4565b831692505b505092915050565b60008060006060848603121561393957613938612bcf565b5b6000613947868287016132b7565b935050602084013567ffffffffffffffff81111561396857613967612bd4565b5b6139748682870161341f565b925050604084013567ffffffffffffffff81111561399557613994612bd4565b5b6139a18682870161341f565b9150509250925092565b600081519050919050565b600081905092915050565b60005b838110156139df5780820151818401526020810190506139c4565b60008484015250505050565b60006139f6826139ab565b613a0081856139b6565b9350613a108185602086016139c1565b80840191505092915050565b6000613a2882846139eb565b915081905092915050565b600082825260208201905092915050565b6000613a4f826139ab565b613a598185613a33565b9350613a698185602086016139c1565b613a7281613311565b840191505092915050565b60006020820190508181036000830152613a978184613a44565b905092915050565b6000604082019050613ab460008301856134a9565b8181036020830152613ac68184613a44565b90509392505050565b600081519050613ade81612dcd565b92915050565b600060208284031215613afa57613af9612bcf565b5b6000613b0884828501613acf565b91505092915050565b600082825260208201905092915050565b7f5369676e617475726556616c696461746f72237265636f7665725369676e657260008201527f3a20696e76616c6964207369676e6174757265206c656e677468000000000000602082015250565b6000613b7e603a83613b11565b9150613b8982613b22565b604082019050919050565b60006020820190508181036000830152613bad81613b71565b9050919050565b7f4e487b7100000000000000000000000000000000000000000000000000000000600052603260045260246000fd5b7f5369676e617475726556616c696461746f723a20696e76616c6964207369676e60008201527f617475726520762076616c756500000000000000000000000000000000000000602082015250565b6000613c3f602d83613b11565b9150613c4a82613be3565b604082019050919050565b60006020820190508181036000830152613c6e81613c32565b9050919050565b600060ff82169050919050565b613c8b81613c75565b82525050565b6000608082019050613ca660008301876134a9565b613cb36020830186613c82565b613cc060408301856134a9565b613ccd60608301846134a9565b95945050505050565b7f457468657273706f7457616c6c65743a3a206578656375746542617463683a2060008201527f77726f6e67206172726179206c656e6774687300000000000000000000000000602082015250565b6000613d32603383613b11565b9150613d3d82613cd6565b604082019050919050565b60006020820190508181036000830152613d6181613d25565b9050919050565b600080fd5b600080fd5b600080fd5b60008083356001602003843603038112613d9457613d93613d68565b5b80840192508235915067ffffffffffffffff821115613db657613db5613d6d565b5b602083019250600182023603831315613dd257613dd1613d72565b5b509250929050565b6000613de582612c37565b91507fffffffffffffffffffffffffffffffffffffffffffffffffffffffffffffffff8203613e1757613e16613801565b5b600182019050919050565b7f457468657273706f7457616c6c65743a3a20456e747279506f696e742061646460008201527f726573732063616e6e6f74206265207a65726f00000000000000000000000000602082015250565b6000613e7e603383613b11565b9150613e8982613e22565b604082019050919050565b60006020820190508181036000830152613ead81613e71565b9050919050565b613ebd81612bf9565b82525050565b6000604082019050613ed86000830185613eb4565b613ee56020830184613eb4565b9392505050565b7f46756e6374696f6e206d7573742062652063616c6c6564207468726f7567682060008201527f64656c656761746563616c6c0000000000000000000000000000000000000000602082015250565b6000613f48602c83613b11565b9150613f5382613eec565b604082019050919050565b60006020820190508181036000830152613f7781613f3b565b9050919050565b7f46756e6374696f6e206d7573742062652063616c6c6564207468726f7567682060008201527f6163746976652070726f78790000000000000000000000000000000000000000602082015250565b6000613fda602c83613b11565b9150613fe582613f7e565b604082019050919050565b6000602082019050818103600083015261400981613fcd565b9050919050565b7f496e697469616c697a61626c653a20636f6e747261637420697320616c72656160008201527f647920696e697469616c697a6564000000000000000000000000000000000000602082015250565b600061406c602e83613b11565b915061407782614010565b604082019050919050565b6000602082019050818103600083015261409b8161405f565b9050919050565b6000819050919050565b60006140c76140c26140bd846140a2565b613547565b613c75565b9050919050565b6140d7816140ac565b82525050565b60006020820190506140f260008301846140ce565b92915050565b600060208201905061410d6000830184613eb4565b92915050565b61411c8161328e565b82525050565b60006040820190506141376000830185614113565b61414460208301846131e6565b9392505050565b7f555550535570677261646561626c653a206d757374206e6f742062652063616c60008201527f6c6564207468726f7567682064656c656761746563616c6c0000000000000000602082015250565b60006141a7603883613b11565b91506141b28261414b565b604082019050919050565b600060208201905081810360008301526141d68161419a565b9050919050565b60006141e98385613a33565b93506141f68385846133ce565b6141ff83613311565b840190509392505050565b600060808201905061421f6000830188613eb4565b61422c60208301876134a9565b818103604083015261423f8185876141dd565b905061424e6060830184612e32565b9695505050505050565b60008151905061426781612f71565b92915050565b60006020828403121561428357614282612bcf565b5b600061429184828501614258565b91505092915050565b6000815190506142a981612c41565b92915050565b6000602082840312156142c5576142c4612bcf565b5b60006142d38482850161429a565b91505092915050565b7f457468657273706f7457616c6c65743a3a206f6e6c79206f776e6572206f722060008201527f677561726469616e000000000000000000000000000000000000000000000000602082015250565b6000614338602883613b11565b9150614343826142dc565b604082019050919050565b600060208201905081810360008301526143678161432b565b9050919050565b7f4f776e65643a3a2063616e6e6f742072656d6f76652073656c66000000000000600082015250565b60006143a4601a83613b11565b91506143af8261436e565b602082019050919050565b600060208201905081810360008301526143d381614397565b9050919050565b7f4f776e65643a3a206f776e657220646f65736e27742065786973740000000000600082015250565b6000614410601b83613b11565b915061441b826143da565b602082019050919050565b6000602082019050818103600083015261443f81614403565b9050919050565b7f457468657273706f7457616c6c65743a206e6f74204f776e6572206f7220456e60008201527f747279506f696e74000000000000000000000000000000000000000000000000602082015250565b60006144a2602883613b11565b91506144ad82614446565b604082019050919050565b600060208201905081810360008301526144d181614495565b9050919050565b7f457468657273706f7457616c6c65743a3a206f6e6c79206f776e657200000000600082015250565b600061450e601c83613b11565b9150614519826144d8565b602082019050919050565b6000602082019050818103600083015261453d81614501565b9050919050565b60008151905061455381612f45565b92915050565b60006020828403121561456f5761456e612bcf565b5b600061457d84828501614544565b91505092915050565b7f45524331393637557067726164653a206e657720696d706c656d656e7461746960008201527f6f6e206973206e6f742055555053000000000000000000000000000000000000602082015250565b60006145e2602e83613b11565b91506145ed82614586565b604082019050919050565b60006020820190508181036000830152614611816145d5565b9050919050565b7f45524331393637557067726164653a20756e737570706f727465642070726f7860008201527f6961626c65555549440000000000000000000000000000000000000000000000602082015250565b6000614674602983613b11565b915061467f82614618565b604082019050919050565b600060208201905081810360008301526146a381614667565b9050919050565b7f457468657273706f7457616c6c65743a204e6f742066726f6d20456e7472795060008201527f6f696e7400000000000000000000000000000000000000000000000000000000602082015250565b6000614706602483613b11565b9150614711826146aa565b604082019050919050565b60006020820190508181036000830152614735816146f9565b9050919050565b60006bffffffffffffffffffffffff82169050919050565b600061475f8261473c565b91506bffffffffffffffffffffffff820361477d5761477c613801565b5b600182019050919050565b7f457468657273706f7457616c6c65743a3a20696e76616c6964206e6f6e636500600082015250565b60006147be601f83613b11565b91506147c982614788565b602082019050919050565b600060208201905081810360008301526147ed816147b1565b9050919050565b50565b60006148046000836139b6565b915061480f826147f4565b600082019050919050565b6000614825826147f7565b9150819050919050565b7f4f776e65643a3a20616c726561647920616e206f776e65720000000000000000600082015250565b6000614865601883613b11565b91506148708261482f565b602082019050919050565b6000602082019050818103600083015261489481614858565b9050919050565b7f477561726465643a3a20677561726469616e20646f65736e2774206578697374600082015250565b60006148d1602083613b11565b91506148dc8261489b565b602082019050919050565b60006020820190508181036000830152614900816148c4565b9050919050565b7f477561726465643a3a207a65726f20616464726573732063616e27742062652060008201527f677561726469616e000000000000000000000000000000000000000000000000602082015250565b6000614963602883613b11565b915061496e82614907565b604082019050919050565b6000602082019050818103600083015261499281614956565b9050919050565b7f477561726465643a3a20616c7265616479206120677561726469616e00000000600082015250565b60006149cf601c83613b11565b91506149da82614999565b602082019050919050565b600060208201905081810360008301526149fe816149c2565b9050919050565b7f455243313936373a206e657720696d706c656d656e746174696f6e206973206e60008201527f6f74206120636f6e747261637400000000000000000000000000000000000000602082015250565b6000614a61602d83613b11565b9150614a6c82614a05565b604082019050919050565b60006020820190508181036000830152614a9081614a54565b9050919050565b600081905092915050565b7f19457468657265756d205369676e6564204d6573736167653a0a333200000000600082015250565b6000614ad8601c83614a97565b9150614ae382614aa2565b601c82019050919050565b6000819050919050565b614b09614b0482612f3b565b614aee565b82525050565b6000614b1a82614acb565b9150614b268284614af8565b60208201915081905092915050565b7f4e487b7100000000000000000000000000000000000000000000000000000000600052602160045260246000fd5b7f45434453413a20696e76616c6964207369676e61747572650000000000000000600082015250565b6000614b9a601883613b11565b9150614ba582614b64565b602082019050919050565b60006020820190508181036000830152614bc981614b8d565b9050919050565b7f45434453413a20696e76616c6964207369676e6174757265206c656e67746800600082015250565b6000614c06601f83613b11565b9150614c1182614bd0565b602082019050919050565b60006020820190508181036000830152614c3581614bf9565b9050919050565b7f45434453413a20696e76616c6964207369676e6174757265202773272076616c60008201527f7565000000000000000000000000000000000000000000000000000000000000602082015250565b6000614c98602283613b11565b9150614ca382614c3c565b604082019050919050565b60006020820190508181036000830152614cc781614c8b565b9050919050565b7f416464726573733a2063616c6c20746f206e6f6e2d636f6e7472616374000000600082015250565b6000614d04601d83613b11565b9150614d0f82614cce565b602082019050919050565b60006020820190508181036000830152614d3381614cf7565b9050919050565b600081519050919050565b6000614d5082614d3a565b614d5a8185613b11565b9350614d6a8185602086016139c1565b614d7381613311565b840191505092915050565b60006020820190508181036000830152614d988184614d45565b90509291505056fe416464726573733a206c6f772d6c6576656c2064656c65676174652063616c6c206661696c6564a26469706673582212200b683365376aff48a9fe7bf912d390324d31b33e25fd10022d5f163698f661fd64736f6c63430008110033",
  "devdoc": {
    "kind": "dev",
    "methods": {},
    "version": 1
  },
  "userdoc": {
    "kind": "user",
    "methods": {
      "createAccount(address,address,uint256)": {
        "notice": "create an account, and return its address. returns the address even if the account is already deployed. Note that during UserOperation execution, this method is called only if the account is not deployed. This method returns an existing account address so that entryPoint.getSenderAddress() would work even after account creation"
      },
      "getAddress(address,address,uint256)": {
        "notice": "calculate the counterfactual address of this account as it would be returned by createAccount()"
      }
    },
    "notice": "A sample factory contract for EtherspotWallet A UserOperations \"initCode\" holds the address of the factory, and a method call (to createAccount, in this sample factory). The factory's createAccount returns the target account address even if it is already installed. This way, the entryPoint.getSenderAddress() can be called either before or after the account is created.",
    "version": 1
  },
  "storageLayout": {
    "storage": [],
    "types": null
  }
}