{
  "address": "0xE4184f76268e398BA968544978a7b9d510e79133",
  "abi": [
    {
      "inputs": [
        {
          "internalType": "contract IEntryPoint",
          "name": "_entryPoint",
          "type": "address"
        }
      ],
      "stateMutability": "nonpayable",
      "type": "constructor"
    },
    {
      "anonymous": false,
      "inputs": [
        {
          "indexed": true,
          "internalType": "address",
          "name": "paymaster",
          "type": "address"
        },
        {
          "indexed": true,
          "internalType": "address[]",
          "name": "accounts",
          "type": "address[]"
        }
      ],
      "name": "AddedBatchToWhitelist",
      "type": "event"
    },
    {
      "anonymous": false,
      "inputs": [
        {
          "indexed": true,
          "internalType": "address",
          "name": "paymaster",
          "type": "address"
        },
        {
          "indexed": true,
          "internalType": "address",
          "name": "account",
          "type": "address"
        }
      ],
      "name": "AddedToWhitelist",
      "type": "event"
    },
    {
      "anonymous": false,
      "inputs": [
        {
          "indexed": true,
          "internalType": "address",
          "name": "previousOwner",
          "type": "address"
        },
        {
          "indexed": true,
          "internalType": "address",
          "name": "newOwner",
          "type": "address"
        }
      ],
      "name": "OwnershipTransferred",
      "type": "event"
    },
    {
      "anonymous": false,
      "inputs": [
        {
          "indexed": true,
          "internalType": "address",
          "name": "paymaster",
          "type": "address"
        },
        {
          "indexed": true,
          "internalType": "address[]",
          "name": "accounts",
          "type": "address[]"
        }
      ],
      "name": "RemovedBatchFromWhitelist",
      "type": "event"
    },
    {
      "anonymous": false,
      "inputs": [
        {
          "indexed": true,
          "internalType": "address",
          "name": "paymaster",
          "type": "address"
        },
        {
          "indexed": true,
          "internalType": "address",
          "name": "account",
          "type": "address"
        }
      ],
      "name": "RemovedFromWhitelist",
      "type": "event"
    },
    {
      "anonymous": false,
      "inputs": [
        {
          "indexed": false,
          "internalType": "address",
          "name": "paymaster",
          "type": "address"
        },
        {
          "indexed": false,
          "internalType": "address",
          "name": "sender",
          "type": "address"
        }
      ],
      "name": "SponsorSuccessful",
      "type": "event"
    },
    {
      "anonymous": false,
      "inputs": [
        {
          "indexed": false,
          "internalType": "address",
          "name": "paymaster",
          "type": "address"
        },
        {
          "indexed": false,
          "internalType": "address",
          "name": "sender",
          "type": "address"
        }
      ],
      "name": "SponsorUnsuccessful",
      "type": "event"
    },
    {
      "anonymous": false,
      "inputs": [
        {
          "indexed": false,
          "internalType": "address",
          "name": "owner",
          "type": "address"
        }
      ],
      "name": "WhitelistInitialized",
      "type": "event"
    },
    {
      "inputs": [
        {
          "internalType": "address",
          "name": "_account",
          "type": "address"
        }
      ],
      "name": "add",
      "outputs": [],
      "stateMutability": "nonpayable",
      "type": "function"
    },
    {
      "inputs": [
        {
          "internalType": "address[]",
          "name": "_accounts",
          "type": "address[]"
        }
      ],
      "name": "addBatch",
      "outputs": [],
      "stateMutability": "nonpayable",
      "type": "function"
    },
    {
      "inputs": [
        {
          "internalType": "uint32",
          "name": "unstakeDelaySec",
          "type": "uint32"
        }
      ],
      "name": "addStake",
      "outputs": [],
      "stateMutability": "payable",
      "type": "function"
    },
    {
      "inputs": [
        {
          "internalType": "address",
          "name": "_sponsor",
          "type": "address"
        },
        {
          "internalType": "address",
          "name": "_account",
          "type": "address"
        }
      ],
      "name": "check",
      "outputs": [
        {
          "internalType": "bool",
          "name": "",
          "type": "bool"
        }
      ],
      "stateMutability": "view",
      "type": "function"
    },
    {
      "inputs": [
        {
          "internalType": "address",
          "name": "_sponsor",
          "type": "address"
        }
      ],
      "name": "checkSponsorFunds",
      "outputs": [
        {
          "internalType": "uint256",
          "name": "",
          "type": "uint256"
        }
      ],
      "stateMutability": "view",
      "type": "function"
    },
    {
      "inputs": [],
      "name": "deposit",
      "outputs": [],
      "stateMutability": "payable",
      "type": "function"
    },
    {
      "inputs": [],
      "name": "depositFunds",
      "outputs": [],
      "stateMutability": "payable",
      "type": "function"
    },
    {
      "inputs": [],
      "name": "entryPoint",
      "outputs": [
        {
          "internalType": "contract IEntryPoint",
          "name": "",
          "type": "address"
        }
      ],
      "stateMutability": "view",
      "type": "function"
    },
    {
      "inputs": [],
      "name": "getDeposit",
      "outputs": [
        {
          "internalType": "uint256",
          "name": "",
          "type": "uint256"
        }
      ],
      "stateMutability": "view",
      "type": "function"
    },
    {
      "inputs": [
        {
          "components": [
            {
              "internalType": "address",
              "name": "sender",
              "type": "address"
            },
            {
              "internalType": "uint256",
              "name": "nonce",
              "type": "uint256"
            },
            {
              "internalType": "bytes",
              "name": "initCode",
              "type": "bytes"
            },
            {
              "internalType": "bytes",
              "name": "callData",
              "type": "bytes"
            },
            {
              "internalType": "uint256",
              "name": "callGasLimit",
              "type": "uint256"
            },
            {
              "internalType": "uint256",
              "name": "verificationGasLimit",
              "type": "uint256"
            },
            {
              "internalType": "uint256",
              "name": "preVerificationGas",
              "type": "uint256"
            },
            {
              "internalType": "uint256",
              "name": "maxFeePerGas",
              "type": "uint256"
            },
            {
              "internalType": "uint256",
              "name": "maxPriorityFeePerGas",
              "type": "uint256"
            },
            {
              "internalType": "bytes",
              "name": "paymasterAndData",
              "type": "bytes"
            },
            {
              "internalType": "bytes",
              "name": "signature",
              "type": "bytes"
            }
          ],
          "internalType": "struct UserOperation",
          "name": "userOp",
          "type": "tuple"
        },
        {
          "internalType": "uint48",
          "name": "validUntil",
          "type": "uint48"
        },
        {
          "internalType": "uint48",
          "name": "validAfter",
          "type": "uint48"
        }
      ],
      "name": "getHash",
      "outputs": [
        {
          "internalType": "bytes32",
          "name": "",
          "type": "bytes32"
        }
      ],
      "stateMutability": "view",
      "type": "function"
    },
    {
      "inputs": [],
      "name": "owner",
      "outputs": [
        {
          "internalType": "address",
          "name": "",
          "type": "address"
        }
      ],
      "stateMutability": "view",
      "type": "function"
    },
    {
      "inputs": [
        {
          "internalType": "bytes",
          "name": "paymasterAndData",
          "type": "bytes"
        }
      ],
      "name": "parsePaymasterAndData",
      "outputs": [
        {
          "internalType": "uint48",
          "name": "validUntil",
          "type": "uint48"
        },
        {
          "internalType": "uint48",
          "name": "validAfter",
          "type": "uint48"
        },
        {
          "internalType": "bytes",
          "name": "signature",
          "type": "bytes"
        }
      ],
      "stateMutability": "pure",
      "type": "function"
    },
    {
      "inputs": [
        {
          "internalType": "enum IPaymaster.PostOpMode",
          "name": "mode",
          "type": "uint8"
        },
        {
          "internalType": "bytes",
          "name": "context",
          "type": "bytes"
        },
        {
          "internalType": "uint256",
          "name": "actualGasCost",
          "type": "uint256"
        }
      ],
      "name": "postOp",
      "outputs": [],
      "stateMutability": "nonpayable",
      "type": "function"
    },
    {
      "inputs": [
        {
          "internalType": "address",
          "name": "_account",
          "type": "address"
        }
      ],
      "name": "remove",
      "outputs": [],
      "stateMutability": "nonpayable",
      "type": "function"
    },
    {
      "inputs": [
        {
          "internalType": "address[]",
          "name": "_accounts",
          "type": "address[]"
        }
      ],
      "name": "removeBatch",
      "outputs": [],
      "stateMutability": "nonpayable",
      "type": "function"
    },
    {
      "inputs": [],
      "name": "renounceOwnership",
      "outputs": [],
      "stateMutability": "nonpayable",
      "type": "function"
    },
    {
      "inputs": [
        {
          "internalType": "address",
          "name": "",
          "type": "address"
        }
      ],
      "name": "senderNonce",
      "outputs": [
        {
          "internalType": "uint256",
          "name": "",
          "type": "uint256"
        }
      ],
      "stateMutability": "view",
      "type": "function"
    },
    {
      "inputs": [
        {
          "internalType": "address",
          "name": "",
          "type": "address"
        }
      ],
      "name": "sponsorFunds",
      "outputs": [
        {
          "internalType": "uint256",
          "name": "",
          "type": "uint256"
        }
      ],
      "stateMutability": "view",
      "type": "function"
    },
    {
      "inputs": [
        {
          "internalType": "address",
          "name": "newOwner",
          "type": "address"
        }
      ],
      "name": "transferOwnership",
      "outputs": [],
      "stateMutability": "nonpayable",
      "type": "function"
    },
    {
      "inputs": [],
      "name": "unlockStake",
      "outputs": [],
      "stateMutability": "nonpayable",
      "type": "function"
    },
    {
      "inputs": [
        {
          "components": [
            {
              "internalType": "address",
              "name": "sender",
              "type": "address"
            },
            {
              "internalType": "uint256",
              "name": "nonce",
              "type": "uint256"
            },
            {
              "internalType": "bytes",
              "name": "initCode",
              "type": "bytes"
            },
            {
              "internalType": "bytes",
              "name": "callData",
              "type": "bytes"
            },
            {
              "internalType": "uint256",
              "name": "callGasLimit",
              "type": "uint256"
            },
            {
              "internalType": "uint256",
              "name": "verificationGasLimit",
              "type": "uint256"
            },
            {
              "internalType": "uint256",
              "name": "preVerificationGas",
              "type": "uint256"
            },
            {
              "internalType": "uint256",
              "name": "maxFeePerGas",
              "type": "uint256"
            },
            {
              "internalType": "uint256",
              "name": "maxPriorityFeePerGas",
              "type": "uint256"
            },
            {
              "internalType": "bytes",
              "name": "paymasterAndData",
              "type": "bytes"
            },
            {
              "internalType": "bytes",
              "name": "signature",
              "type": "bytes"
            }
          ],
          "internalType": "struct UserOperation",
          "name": "userOp",
          "type": "tuple"
        },
        {
          "internalType": "bytes32",
          "name": "userOpHash",
          "type": "bytes32"
        },
        {
          "internalType": "uint256",
          "name": "maxCost",
          "type": "uint256"
        }
      ],
      "name": "validatePaymasterUserOp",
      "outputs": [
        {
          "internalType": "bytes",
          "name": "context",
          "type": "bytes"
        },
        {
          "internalType": "uint256",
          "name": "validationData",
          "type": "uint256"
        }
      ],
      "stateMutability": "nonpayable",
      "type": "function"
    },
    {
      "inputs": [
        {
          "internalType": "address",
          "name": "",
          "type": "address"
        },
        {
          "internalType": "address",
          "name": "",
          "type": "address"
        }
      ],
      "name": "whitelist",
      "outputs": [
        {
          "internalType": "bool",
          "name": "",
          "type": "bool"
        }
      ],
      "stateMutability": "view",
      "type": "function"
    },
    {
      "inputs": [
        {
          "internalType": "address payable",
          "name": "withdrawAddress",
          "type": "address"
        }
      ],
      "name": "withdrawStake",
      "outputs": [],
      "stateMutability": "nonpayable",
      "type": "function"
    },
    {
      "inputs": [
        {
          "internalType": "address payable",
          "name": "withdrawAddress",
          "type": "address"
        },
        {
          "internalType": "uint256",
          "name": "amount",
          "type": "uint256"
        }
      ],
      "name": "withdrawTo",
      "outputs": [],
      "stateMutability": "nonpayable",
      "type": "function"
    }
  ],
  "transactionHash": "0xcb1da177de58b4f3fe209dc73f90eb702f1d6f3c6212a1f90a5b963ecf1930c3",
  "args": [
    "0x5FF137D4b0FDCD49DcA30c7CF57E578a026d2789"
  ],
  "numDeployments": 3,
  "solcInputHash": "fbf85702a71b68a5dc2db16e254f39eb",
  "bytecode": "0x60a06040523480156200001157600080fd5b50604051620030a2380380620030a28339818101604052810190620000379190620001de565b80620000586200004c6200009460201b60201c565b6200009c60201b60201c565b8073ffffffffffffffffffffffffffffffffffffffff1660808173ffffffffffffffffffffffffffffffffffffffff1681525050505062000210565b600033905090565b60008060009054906101000a900473ffffffffffffffffffffffffffffffffffffffff169050816000806101000a81548173ffffffffffffffffffffffffffffffffffffffff021916908373ffffffffffffffffffffffffffffffffffffffff1602179055508173ffffffffffffffffffffffffffffffffffffffff168173ffffffffffffffffffffffffffffffffffffffff167f8be0079c531659141344cd1fd0a4f28419497f9722a3daafe3b4186f6b6457e060405160405180910390a35050565b600080fd5b600073ffffffffffffffffffffffffffffffffffffffff82169050919050565b6000620001928262000165565b9050919050565b6000620001a68262000185565b9050919050565b620001b88162000199565b8114620001c457600080fd5b50565b600081519050620001d881620001ad565b92915050565b600060208284031215620001f757620001f662000160565b5b60006200020784828501620001c7565b91505092915050565b608051612e3e620002646000396000818161056d0152818161066a015281816109c301528181610a0301528181610a8d01528181610b1d01528181610bbc01528181610c9301526112f90152612e3e6000f3fe60806040526004361061014b5760003560e01c8063a9a23409116100b6578063c399ec881161006f578063c399ec8814610480578063d0e30db0146104ab578063d672bd84146104b5578063e2c41dbc146104f2578063f2fde38b146104fc578063f465c77e146105255761014b565b8063a9a2340914610372578063b092145e1461039b578063b0d691fe146103d8578063b3154db014610403578063bb9fe6bf14610440578063c23a5cea146104575761014b565b80636b845bfe116101085780636b845bfe1461024d578063715018a6146102765780638da5cb5b1461028d57806394d4ad60146102b857806394e1fc19146102f85780639c90b443146103355761014b565b80630396cb60146101505780630a3b0a4f1461016c578063205c28781461019557806324efa264146101be57806329092d0e146101e75780633f514c2514610210575b600080fd5b61016a60048036038101906101659190611af9565b610563565b005b34801561017857600080fd5b50610193600480360381019061018e9190611b84565b6105fa565b005b3480156101a157600080fd5b506101bc60048036038101906101b79190611c25565b610660565b005b3480156101ca57600080fd5b506101e560048036038101906101e09190611cca565b6106f9565b005b3480156101f357600080fd5b5061020e60048036038101906102099190611b84565b610762565b005b34801561021c57600080fd5b5061023760048036038101906102329190611b84565b6107c8565b6040516102449190611d26565b60405180910390f35b34801561025957600080fd5b50610274600480360381019061026f9190611cca565b6107e0565b005b34801561028257600080fd5b5061028b610849565b005b34801561029957600080fd5b506102a261085d565b6040516102af9190611d50565b60405180910390f35b3480156102c457600080fd5b506102df60048036038101906102da9190611dc1565b610886565b6040516102ef9493929190611e8d565b60405180910390f35b34801561030457600080fd5b5061031f600480360381019061031a9190611f1e565b6108d5565b60405161032c9190611fa6565b60405180910390f35b34801561034157600080fd5b5061035c60048036038101906103579190611b84565b610960565b6040516103699190611d26565b60405180910390f35b34801561037e57600080fd5b5061039960048036038101906103949190611fe6565b610978565b005b3480156103a757600080fd5b506103c260048036038101906103bd919061205a565b610992565b6040516103cf91906120b5565b60405180910390f35b3480156103e457600080fd5b506103ed6109c1565b6040516103fa919061212f565b60405180910390f35b34801561040f57600080fd5b5061042a6004803603810190610425919061205a565b6109e5565b60405161043791906120b5565b60405180910390f35b34801561044c57600080fd5b506104556109f9565b005b34801561046357600080fd5b5061047e6004803603810190610479919061214a565b610a83565b005b34801561048c57600080fd5b50610495610b19565b6040516104a29190611d26565b60405180910390f35b6104b3610bba565b005b3480156104c157600080fd5b506104dc60048036038101906104d79190611b84565b610c48565b6040516104e99190611d26565b60405180910390f35b6104fa610c91565b005b34801561050857600080fd5b50610523600480360381019061051e9190611b84565b610d75565b005b34801561053157600080fd5b5061054c600480360381019061054791906121a3565b610df8565b60405161055a929190612280565b60405180910390f35b61056b610e1b565b7f000000000000000000000000000000000000000000000000000000000000000073ffffffffffffffffffffffffffffffffffffffff16630396cb6034836040518363ffffffff1660e01b81526004016105c591906122bf565b6000604051808303818588803b1580156105de57600080fd5b505af11580156105f2573d6000803e3d6000fd5b505050505050565b61060381610e99565b8073ffffffffffffffffffffffffffffffffffffffff163373ffffffffffffffffffffffffffffffffffffffff167f0c4b48e75a1f7ab0a9a2f786b5d6c1f7789020403bff177fb54d46edb89ccc0060405160405180910390a350565b610668610e1b565b7f000000000000000000000000000000000000000000000000000000000000000073ffffffffffffffffffffffffffffffffffffffff1663205c287883836040518363ffffffff1660e01b81526004016106c39291906122e9565b600060405180830381600087803b1580156106dd57600080fd5b505af11580156106f1573d6000803e3d6000fd5b505050505050565b6107038282610fe9565b81816040516107139291906123cf565b60405180910390203373ffffffffffffffffffffffffffffffffffffffff167f6eabb183ad4385932735ae89018089a008c58e814451b618bc0dd0e7922f6d1360405160405180910390a35050565b61076b8161103d565b8073ffffffffffffffffffffffffffffffffffffffff163373ffffffffffffffffffffffffffffffffffffffff167fd288ab5da2e1f37cf384a1565a3f905ad289b092fbdd31950dbbfef148c04f8860405160405180910390a350565b60026020528060005260406000206000915090505481565b6107ea828261118d565b81816040516107fa9291906123cf565b60405180910390203373ffffffffffffffffffffffffffffffffffffffff167f75dcdde27b71b9c529ae8b02072e1eeda244662d2d9c2effea5a1afb8fc913f360405160405180910390a35050565b610851610e1b565b61085b60006111e1565b565b60008060009054906101000a900473ffffffffffffffffffffffffffffffffffffffff16905090565b60008036600085856014906054926108a0939291906123f2565b8101906108ad919061242d565b8094508195505050858560549080926108c8939291906123f2565b9150915092959194509250565b60006108e0846112a5565b4630600360006108ef896112e7565b73ffffffffffffffffffffffffffffffffffffffff1673ffffffffffffffffffffffffffffffffffffffff1681526020019081526020016000205486866040516020016109419695949392919061246d565b6040516020818303038152906040528051906020012090509392505050565b60036020528060005260406000206000915090505481565b6109806112f7565b61098c84848484611387565b50505050565b60016020528160005260406000206020528060005260406000206000915091509054906101000a900460ff1681565b7f000000000000000000000000000000000000000000000000000000000000000081565b60006109f18383611483565b905092915050565b610a01610e1b565b7f000000000000000000000000000000000000000000000000000000000000000073ffffffffffffffffffffffffffffffffffffffff1663bb9fe6bf6040518163ffffffff1660e01b8152600401600060405180830381600087803b158015610a6957600080fd5b505af1158015610a7d573d6000803e3d6000fd5b50505050565b610a8b610e1b565b7f000000000000000000000000000000000000000000000000000000000000000073ffffffffffffffffffffffffffffffffffffffff1663c23a5cea826040518263ffffffff1660e01b8152600401610ae491906124d5565b600060405180830381600087803b158015610afe57600080fd5b505af1158015610b12573d6000803e3d6000fd5b5050505050565b60007f000000000000000000000000000000000000000000000000000000000000000073ffffffffffffffffffffffffffffffffffffffff166370a08231306040518263ffffffff1660e01b8152600401610b749190611d50565b602060405180830381865afa158015610b91573d6000803e3d6000fd5b505050506040513d601f19601f82011682018060405250810190610bb59190612505565b905090565b7f000000000000000000000000000000000000000000000000000000000000000073ffffffffffffffffffffffffffffffffffffffff1663b760faf934306040518363ffffffff1660e01b8152600401610c149190611d50565b6000604051808303818588803b158015610c2d57600080fd5b505af1158015610c41573d6000803e3d6000fd5b5050505050565b6000600260008373ffffffffffffffffffffffffffffffffffffffff1673ffffffffffffffffffffffffffffffffffffffff168152602001908152602001600020549050919050565b7f000000000000000000000000000000000000000000000000000000000000000073ffffffffffffffffffffffffffffffffffffffff1663b760faf934306040518363ffffffff1660e01b8152600401610ceb9190611d50565b6000604051808303818588803b158015610d0457600080fd5b505af1158015610d18573d6000803e3d6000fd5b505050505034600260003373ffffffffffffffffffffffffffffffffffffffff1673ffffffffffffffffffffffffffffffffffffffff1681526020019081526020016000206000828254610d6c9190612561565b92505081905550565b610d7d610e1b565b600073ffffffffffffffffffffffffffffffffffffffff168173ffffffffffffffffffffffffffffffffffffffff1603610dec576040517f08c379a0000000000000000000000000000000000000000000000000000000008152600401610de390612618565b60405180910390fd5b610df5816111e1565b50565b60606000610e046112f7565b610e0f858585611517565b91509150935093915050565b610e23611728565b73ffffffffffffffffffffffffffffffffffffffff16610e4161085d565b73ffffffffffffffffffffffffffffffffffffffff1614610e97576040517f08c379a0000000000000000000000000000000000000000000000000000000008152600401610e8e90612684565b60405180910390fd5b565b600073ffffffffffffffffffffffffffffffffffffffff168173ffffffffffffffffffffffffffffffffffffffff1603610f08576040517f08c379a0000000000000000000000000000000000000000000000000000000008152600401610eff906126f0565b60405180910390fd5b610f123382611483565b15610f52576040517f08c379a0000000000000000000000000000000000000000000000000000000008152600401610f4990612782565b60405180910390fd5b60018060003373ffffffffffffffffffffffffffffffffffffffff1673ffffffffffffffffffffffffffffffffffffffff16815260200190815260200160002060008373ffffffffffffffffffffffffffffffffffffffff1673ffffffffffffffffffffffffffffffffffffffff16815260200190815260200160002060006101000a81548160ff02191690831515021790555050565b60005b828290508110156110385761102783838381811061100d5761100c6127a2565b5b90506020020160208101906110229190611b84565b610e99565b80611031906127d1565b9050610fec565b505050565b600073ffffffffffffffffffffffffffffffffffffffff168173ffffffffffffffffffffffffffffffffffffffff16036110ac576040517f08c379a00000000000000000000000000000000000000000000000000000000081526004016110a3906126f0565b60405180910390fd5b6110b63382611483565b6110f5576040517f08c379a00000000000000000000000000000000000000000000000000000000081526004016110ec9061288b565b60405180910390fd5b6000600160003373ffffffffffffffffffffffffffffffffffffffff1673ffffffffffffffffffffffffffffffffffffffff16815260200190815260200160002060008373ffffffffffffffffffffffffffffffffffffffff1673ffffffffffffffffffffffffffffffffffffffff16815260200190815260200160002060006101000a81548160ff02191690831515021790555050565b60005b828290508110156111dc576111cb8383838181106111b1576111b06127a2565b5b90506020020160208101906111c69190611b84565b61103d565b806111d5906127d1565b9050611190565b505050565b60008060009054906101000a900473ffffffffffffffffffffffffffffffffffffffff169050816000806101000a81548173ffffffffffffffffffffffffffffffffffffffff021916908373ffffffffffffffffffffffffffffffffffffffff1602179055508173ffffffffffffffffffffffffffffffffffffffff168173ffffffffffffffffffffffffffffffffffffffff167f8be0079c531659141344cd1fd0a4f28419497f9722a3daafe3b4186f6b6457e060405160405180910390a35050565b6060366000838061012001906112bb91906128ba565b915091508360208184030360405194506020810185016040528085528082602087013750505050919050565b6000808235905080915050919050565b7f000000000000000000000000000000000000000000000000000000000000000073ffffffffffffffffffffffffffffffffffffffff163373ffffffffffffffffffffffffffffffffffffffff1614611385576040517f08c379a000000000000000000000000000000000000000000000000000000000815260040161137c90612969565b60405180910390fd5b565b60008084848101906113999190612989565b91509150600060028111156113b1576113b06129c9565b5b8660028111156113c4576113c36129c9565b5b14806113f45750600160028111156113df576113de6129c9565b5b8660028111156113f2576113f16129c9565b5b145b15611441576114038284611730565b7f2c5d05f0498c9d2ef9ad6bec38fa7d6693827331e772b11b0864225ad20507f482826040516114349291906129f8565b60405180910390a161147b565b7f457172879544e40bf25ee17955cfc1beeae4b569e7631cd6b0ddcb7823eb478682826040516114729291906129f8565b60405180910390a15b505050505050565b6000600160008473ffffffffffffffffffffffffffffffffffffffff1673ffffffffffffffffffffffffffffffffffffffff16815260200190815260200160002060008373ffffffffffffffffffffffffffffffffffffffff1673ffffffffffffffffffffffffffffffffffffffff16815260200190815260200160002060009054906101000a900460ff16905092915050565b6060600080803660006115398980610120019061153491906128ba565b610886565b935093509350935060408282905014806115565750604182829050145b611595576040517f08c379a000000000000000000000000000000000000000000000000000000000815260040161158c90612ab9565b60405180910390fd5b60006115aa6115a58b87876108d5565b61178a565b905060006115b78b6112e7565b9050600360008273ffffffffffffffffffffffffffffffffffffffff1673ffffffffffffffffffffffffffffffffffffffff1681526020019081526020016000206000815480929190611609906127d1565b9190505550600061165e8386868080601f016020809104026020016040519081016040528093929190818152602001838380828437600081840152601f19601f820116905080830192505050505050506117ba565b905061166a8183611483565b61169b5761167a600188886117e1565b60405180602001604052806000815250909850985050505050505050611720565b896116a582610c48565b10156116e6576040517f08c379a00000000000000000000000000000000000000000000000000000000081526004016116dd90612b4b565b60405180910390fd5b80826040516020016116f99291906129f8565b604051602081830303815290604052611714600089896117e1565b98509850505050505050505b935093915050565b600033905090565b80600260008473ffffffffffffffffffffffffffffffffffffffff1673ffffffffffffffffffffffffffffffffffffffff168152602001908152602001600020600082825461177f9190612b6b565b925050819055505050565b60008160405160200161179d9190612c17565b604051602081830303815290604052805190602001209050919050565b60008060006117c9858561181a565b915091506117d68161186b565b819250505092915050565b600060d08265ffffffffffff16901b60a08465ffffffffffff16901b8561180957600061180c565b60015b60ff16171790509392505050565b600080604183510361185b5760008060006020860151925060408601519150606086015160001a905061184f878285856119d1565b94509450505050611864565b60006002915091505b9250929050565b6000600481111561187f5761187e6129c9565b5b816004811115611892576118916129c9565b5b03156119ce57600160048111156118ac576118ab6129c9565b5b8160048111156118bf576118be6129c9565b5b036118ff576040517f08c379a00000000000000000000000000000000000000000000000000000000081526004016118f690612c89565b60405180910390fd5b60026004811115611913576119126129c9565b5b816004811115611926576119256129c9565b5b03611966576040517f08c379a000000000000000000000000000000000000000000000000000000000815260040161195d90612cf5565b60405180910390fd5b6003600481111561197a576119796129c9565b5b81600481111561198d5761198c6129c9565b5b036119cd576040517f08c379a00000000000000000000000000000000000000000000000000000000081526004016119c490612d87565b60405180910390fd5b5b50565b6000807f7fffffffffffffffffffffffffffffff5d576e7357a4501ddfe92f46681b20a08360001c1115611a0c576000600391509150611aaa565b600060018787878760405160008152602001604052604051611a319493929190612dc3565b6020604051602081039080840390855afa158015611a53573d6000803e3d6000fd5b505050602060405103519050600073ffffffffffffffffffffffffffffffffffffffff168173ffffffffffffffffffffffffffffffffffffffff1603611aa157600060019250925050611aaa565b80600092509250505b94509492505050565b600080fd5b600080fd5b600063ffffffff82169050919050565b611ad681611abd565b8114611ae157600080fd5b50565b600081359050611af381611acd565b92915050565b600060208284031215611b0f57611b0e611ab3565b5b6000611b1d84828501611ae4565b91505092915050565b600073ffffffffffffffffffffffffffffffffffffffff82169050919050565b6000611b5182611b26565b9050919050565b611b6181611b46565b8114611b6c57600080fd5b50565b600081359050611b7e81611b58565b92915050565b600060208284031215611b9a57611b99611ab3565b5b6000611ba884828501611b6f565b91505092915050565b6000611bbc82611b26565b9050919050565b611bcc81611bb1565b8114611bd757600080fd5b50565b600081359050611be981611bc3565b92915050565b6000819050919050565b611c0281611bef565b8114611c0d57600080fd5b50565b600081359050611c1f81611bf9565b92915050565b60008060408385031215611c3c57611c3b611ab3565b5b6000611c4a85828601611bda565b9250506020611c5b85828601611c10565b9150509250929050565b600080fd5b600080fd5b600080fd5b60008083601f840112611c8a57611c89611c65565b5b8235905067ffffffffffffffff811115611ca757611ca6611c6a565b5b602083019150836020820283011115611cc357611cc2611c6f565b5b9250929050565b60008060208385031215611ce157611ce0611ab3565b5b600083013567ffffffffffffffff811115611cff57611cfe611ab8565b5b611d0b85828601611c74565b92509250509250929050565b611d2081611bef565b82525050565b6000602082019050611d3b6000830184611d17565b92915050565b611d4a81611b46565b82525050565b6000602082019050611d656000830184611d41565b92915050565b60008083601f840112611d8157611d80611c65565b5b8235905067ffffffffffffffff811115611d9e57611d9d611c6a565b5b602083019150836001820283011115611dba57611db9611c6f565b5b9250929050565b60008060208385031215611dd857611dd7611ab3565b5b600083013567ffffffffffffffff811115611df657611df5611ab8565b5b611e0285828601611d6b565b92509250509250929050565b600065ffffffffffff82169050919050565b611e2981611e0e565b82525050565b600082825260208201905092915050565b82818337600083830152505050565b6000601f19601f8301169050919050565b6000611e6c8385611e2f565b9350611e79838584611e40565b611e8283611e4f565b840190509392505050565b6000606082019050611ea26000830187611e20565b611eaf6020830186611e20565b8181036040830152611ec2818486611e60565b905095945050505050565b600080fd5b60006101608284031215611ee957611ee8611ecd565b5b81905092915050565b611efb81611e0e565b8114611f0657600080fd5b50565b600081359050611f1881611ef2565b92915050565b600080600060608486031215611f3757611f36611ab3565b5b600084013567ffffffffffffffff811115611f5557611f54611ab8565b5b611f6186828701611ed2565b9350506020611f7286828701611f09565b9250506040611f8386828701611f09565b9150509250925092565b6000819050919050565b611fa081611f8d565b82525050565b6000602082019050611fbb6000830184611f97565b92915050565b60038110611fce57600080fd5b50565b600081359050611fe081611fc1565b92915050565b6000806000806060858703121561200057611fff611ab3565b5b600061200e87828801611fd1565b945050602085013567ffffffffffffffff81111561202f5761202e611ab8565b5b61203b87828801611d6b565b9350935050604061204e87828801611c10565b91505092959194509250565b6000806040838503121561207157612070611ab3565b5b600061207f85828601611b6f565b925050602061209085828601611b6f565b9150509250929050565b60008115159050919050565b6120af8161209a565b82525050565b60006020820190506120ca60008301846120a6565b92915050565b6000819050919050565b60006120f56120f06120eb84611b26565b6120d0565b611b26565b9050919050565b6000612107826120da565b9050919050565b6000612119826120fc565b9050919050565b6121298161210e565b82525050565b60006020820190506121446000830184612120565b92915050565b6000602082840312156121605761215f611ab3565b5b600061216e84828501611bda565b91505092915050565b61218081611f8d565b811461218b57600080fd5b50565b60008135905061219d81612177565b92915050565b6000806000606084860312156121bc576121bb611ab3565b5b600084013567ffffffffffffffff8111156121da576121d9611ab8565b5b6121e686828701611ed2565b93505060206121f78682870161218e565b925050604061220886828701611c10565b9150509250925092565b600081519050919050565b60005b8381101561223b578082015181840152602081019050612220565b60008484015250505050565b600061225282612212565b61225c8185611e2f565b935061226c81856020860161221d565b61227581611e4f565b840191505092915050565b6000604082019050818103600083015261229a8185612247565b90506122a96020830184611d17565b9392505050565b6122b981611abd565b82525050565b60006020820190506122d460008301846122b0565b92915050565b6122e381611bb1565b82525050565b60006040820190506122fe60008301856122da565b61230b6020830184611d17565b9392505050565b600081905092915050565b6000819050919050565b61233081611b46565b82525050565b60006123428383612327565b60208301905092915050565b600061235d6020840184611b6f565b905092915050565b6000602082019050919050565b600061237e8385612312565b93506123898261231d565b8060005b858110156123c25761239f828461234e565b6123a98882612336565b97506123b483612365565b92505060018101905061238d565b5085925050509392505050565b60006123dc828486612372565b91508190509392505050565b600080fd5b600080fd5b60008085851115612406576124056123e8565b5b83861115612417576124166123ed565b5b6001850283019150848603905094509492505050565b6000806040838503121561244457612443611ab3565b5b600061245285828601611f09565b925050602061246385828601611f09565b9150509250929050565b600060c08201905081810360008301526124878189612247565b90506124966020830188611d17565b6124a36040830187611d41565b6124b06060830186611d17565b6124bd6080830185611e20565b6124ca60a0830184611e20565b979650505050505050565b60006020820190506124ea60008301846122da565b92915050565b6000815190506124ff81611bf9565b92915050565b60006020828403121561251b5761251a611ab3565b5b6000612529848285016124f0565b91505092915050565b7f4e487b7100000000000000000000000000000000000000000000000000000000600052601160045260246000fd5b600061256c82611bef565b915061257783611bef565b925082820190508082111561258f5761258e612532565b5b92915050565b600082825260208201905092915050565b7f4f776e61626c653a206e6577206f776e657220697320746865207a65726f206160008201527f6464726573730000000000000000000000000000000000000000000000000000602082015250565b6000612602602683612595565b915061260d826125a6565b604082019050919050565b60006020820190508181036000830152612631816125f5565b9050919050565b7f4f776e61626c653a2063616c6c6572206973206e6f7420746865206f776e6572600082015250565b600061266e602083612595565b915061267982612638565b602082019050919050565b6000602082019050818103600083015261269d81612661565b9050919050565b7f57686974656c6973743a3a205a65726f20616464726573730000000000000000600082015250565b60006126da601883612595565b91506126e5826126a4565b602082019050919050565b60006020820190508181036000830152612709816126cd565b9050919050565b7f57686974656c6973743a3a204163636f756e7420697320616c7265616479207760008201527f686974656c697374656400000000000000000000000000000000000000000000602082015250565b600061276c602a83612595565b915061277782612710565b604082019050919050565b6000602082019050818103600083015261279b8161275f565b9050919050565b7f4e487b7100000000000000000000000000000000000000000000000000000000600052603260045260246000fd5b60006127dc82611bef565b91507fffffffffffffffffffffffffffffffffffffffffffffffffffffffffffffffff820361280e5761280d612532565b5b600182019050919050565b7f57686974656c6973743a3a204163636f756e74206973206e6f7420776869746560008201527f6c69737465640000000000000000000000000000000000000000000000000000602082015250565b6000612875602683612595565b915061288082612819565b604082019050919050565b600060208201905081810360008301526128a481612868565b9050919050565b600080fd5b600080fd5b600080fd5b600080833560016020038436030381126128d7576128d66128ab565b5b80840192508235915067ffffffffffffffff8211156128f9576128f86128b0565b5b602083019250600182023603831315612915576129146128b5565b5b509250929050565b7f53656e646572206e6f7420456e747279506f696e740000000000000000000000600082015250565b6000612953601583612595565b915061295e8261291d565b602082019050919050565b6000602082019050818103600083015261298281612946565b9050919050565b600080604083850312156129a05761299f611ab3565b5b60006129ae85828601611bda565b92505060206129bf85828601611bda565b9150509250929050565b7f4e487b7100000000000000000000000000000000000000000000000000000000600052602160045260246000fd5b6000604082019050612a0d6000830185611d41565b612a1a6020830184611d41565b9392505050565b7f457468657273706f745061796d61737465723a3a20696e76616c69642073696760008201527f6e6174757265206c656e67746820696e207061796d6173746572416e6444617460208201527f6100000000000000000000000000000000000000000000000000000000000000604082015250565b6000612aa3604183612595565b9150612aae82612a21565b606082019050919050565b60006020820190508181036000830152612ad281612a96565b9050919050565b7f457468657273706f745061796d61737465723a3a2053706f6e736f722070617960008201527f6d61737465722066756e647320746f6f206c6f77000000000000000000000000602082015250565b6000612b35603483612595565b9150612b4082612ad9565b604082019050919050565b60006020820190508181036000830152612b6481612b28565b9050919050565b6000612b7682611bef565b9150612b8183611bef565b9250828203905081811115612b9957612b98612532565b5b92915050565b600081905092915050565b7f19457468657265756d205369676e6564204d6573736167653a0a333200000000600082015250565b6000612be0601c83612b9f565b9150612beb82612baa565b601c82019050919050565b6000819050919050565b612c11612c0c82611f8d565b612bf6565b82525050565b6000612c2282612bd3565b9150612c2e8284612c00565b60208201915081905092915050565b7f45434453413a20696e76616c6964207369676e61747572650000000000000000600082015250565b6000612c73601883612595565b9150612c7e82612c3d565b602082019050919050565b60006020820190508181036000830152612ca281612c66565b9050919050565b7f45434453413a20696e76616c6964207369676e6174757265206c656e67746800600082015250565b6000612cdf601f83612595565b9150612cea82612ca9565b602082019050919050565b60006020820190508181036000830152612d0e81612cd2565b9050919050565b7f45434453413a20696e76616c6964207369676e6174757265202773272076616c60008201527f7565000000000000000000000000000000000000000000000000000000000000602082015250565b6000612d71602283612595565b9150612d7c82612d15565b604082019050919050565b60006020820190508181036000830152612da081612d64565b9050919050565b600060ff82169050919050565b612dbd81612da7565b82525050565b6000608082019050612dd86000830187611f97565b612de56020830186612db4565b612df26040830185611f97565b612dff6060830184611f97565b9594505050505056fea2646970667358221220056f9328023de49b0d5b31652a9b8adc3e724e666c388f5170f70c4ba8649ad064736f6c63430008110033",
  "devdoc": {
    "kind": "dev",
    "methods": {
      "addStake(uint32)": {
        "params": {
          "unstakeDelaySec": "- the unstake delay for this paymaster. Can only be increased."
        }
      },
      "owner()": {
        "details": "Returns the address of the current owner."
      },
      "postOp(uint8,bytes,uint256)": {
        "params": {
          "actualGasCost": "- actual gas used so far (without this postOp call).",
          "context": "- the context value returned by validatePaymasterUserOp",
          "mode": "enum with the following options:      opSucceeded - user operation succeeded.      opReverted  - user op reverted. still has to pay for gas.      postOpReverted - user op succeeded, but caused postOp (in mode=opSucceeded) to revert.                       Now this is the 2nd call, after user's op was deliberately reverted."
        }
      },
      "renounceOwnership()": {
        "details": "Leaves the contract without owner. It will not be possible to call `onlyOwner` functions anymore. Can only be called by the current owner. NOTE: Renouncing ownership will leave the contract without an owner, thereby removing any functionality that is only available to the owner."
      },
      "transferOwnership(address)": {
        "details": "Transfers ownership of the contract to a new account (`newOwner`). Can only be called by the current owner."
      },
      "validatePaymasterUserOp((address,uint256,bytes,bytes,uint256,uint256,uint256,uint256,uint256,bytes,bytes),bytes32,uint256)": {
        "params": {
          "maxCost": "the maximum cost of this transaction (based on maximum gas and gas price from userOp)",
          "userOp": "the user operation",
          "userOpHash": "hash of the user's request data."
        },
        "returns": {
          "context": "value to send to a postOp      zero length to signify postOp is not required.",
          "validationData": "signature and time-range of this operation, encoded the same as the return value of validateUserOperation      <20-byte> sigAuthorizer - 0 for valid signature, 1 to mark signature failure,         otherwise, an address of an \"authorizer\" contract.      <6-byte> validUntil - last timestamp this operation is valid. 0 for \"indefinite\"      <6-byte> validAfter - first timestamp this operation is valid      Note that the validation code cannot use block.timestamp (or block.number) directly."
        }
      },
      "withdrawStake(address)": {
        "params": {
          "withdrawAddress": "the address to send withdrawn value."
        }
      },
      "withdrawTo(address,uint256)": {
        "params": {
          "amount": "to withdraw",
          "withdrawAddress": "target to send to"
        }
      }
    },
    "version": 1
  },
  "userdoc": {
    "kind": "user",
    "methods": {
      "addStake(uint32)": {
        "notice": "add stake for this paymaster. This method can also carry eth value to add to the current stake."
      },
      "deposit()": {
        "notice": "add a deposit for this paymaster, used for paying for transaction fees"
      },
      "getDeposit()": {
        "notice": "return current paymaster's deposit on the entryPoint."
      },
      "getHash((address,uint256,bytes,bytes,uint256,uint256,uint256,uint256,uint256,bytes,bytes),uint48,uint48)": {
        "notice": "return the hash we're going to sign off-chain (and validate on-chain) this method is called by the off-chain service, to sign the request. it is called on-chain from the validatePaymasterUserOp, to validate the signature. note that this signature covers all fields of the UserOperation, except the \"paymasterAndData\", which will carry the signature itself."
      },
      "postOp(uint8,bytes,uint256)": {
        "notice": "post-operation handler. Must verify sender is the entryPoint"
      },
      "unlockStake()": {
        "notice": "unlock the stake, in order to withdraw it. The paymaster can't serve requests once unlocked, until it calls addStake again"
      },
      "validatePaymasterUserOp((address,uint256,bytes,bytes,uint256,uint256,uint256,uint256,uint256,bytes,bytes),bytes32,uint256)": {
        "notice": "payment validation: check if paymaster agrees to pay. Must verify sender is the entryPoint. Revert to reject this request. Note that bundlers will reject this method if it changes the state, unless the paymaster is trusted (whitelisted) The paymaster pre-pays using its deposit, and receive back a refund after the postOp method returns."
      },
      "withdrawStake(address)": {
        "notice": "withdraw the entire paymaster's stake. stake must be unlocked first (and then wait for the unstakeDelay to be over)"
      },
      "withdrawTo(address,uint256)": {
        "notice": "withdraw value from the deposit"
      }
    },
    "notice": "A sample paymaster that uses external service to decide whether to pay for the UserOp. The paymaster trusts an external signer to sign the transaction. The calling user must pass the UserOp to that external signer first, which performs whatever off-chain verification before signing the UserOp. Note that this signature is NOT a replacement for wallet signature: - the paymaster signs to agree to PAY for GAS. - the wallet signs to prove identity and account ownership.",
    "version": 1
  },
  "storageLayout": {
    "storage": [
      {
        "astId": 7,
        "contract": "src/paymaster/EtherspotPaymaster.sol:EtherspotPaymaster",
        "label": "_owner",
        "offset": 0,
        "slot": "0",
        "type": "t_address"
      },
      {
        "astId": 3322,
        "contract": "src/paymaster/EtherspotPaymaster.sol:EtherspotPaymaster",
        "label": "whitelist",
        "offset": 0,
        "slot": "1",
        "type": "t_mapping(t_address,t_mapping(t_address,t_bool))"
      },
      {
        "astId": 2983,
        "contract": "src/paymaster/EtherspotPaymaster.sol:EtherspotPaymaster",
        "label": "sponsorFunds",
        "offset": 0,
        "slot": "2",
        "type": "t_mapping(t_address,t_uint256)"
      },
      {
        "astId": 2987,
        "contract": "src/paymaster/EtherspotPaymaster.sol:EtherspotPaymaster",
        "label": "senderNonce",
        "offset": 0,
        "slot": "3",
        "type": "t_mapping(t_address,t_uint256)"
      }
    ],
    "types": {
      "t_address": {
        "encoding": "inplace",
        "label": "address",
        "numberOfBytes": "20"
      },
      "t_bool": {
        "encoding": "inplace",
        "label": "bool",
        "numberOfBytes": "1"
      },
      "t_mapping(t_address,t_bool)": {
        "encoding": "mapping",
        "key": "t_address",
        "label": "mapping(address => bool)",
        "numberOfBytes": "32",
        "value": "t_bool"
      },
      "t_mapping(t_address,t_mapping(t_address,t_bool))": {
        "encoding": "mapping",
        "key": "t_address",
        "label": "mapping(address => mapping(address => bool))",
        "numberOfBytes": "32",
        "value": "t_mapping(t_address,t_bool)"
      },
      "t_mapping(t_address,t_uint256)": {
        "encoding": "mapping",
        "key": "t_address",
        "label": "mapping(address => uint256)",
        "numberOfBytes": "32",
        "value": "t_uint256"
      },
      "t_uint256": {
        "encoding": "inplace",
        "label": "uint256",
        "numberOfBytes": "32"
      }
    }
  }
}