{
  "address": "0x493F84585222312aB2A3874888F3805bfF399B5f",
  "abi": [
    {
      "inputs": [
        {
          "internalType": "contract IEntryPoint",
          "name": "_entryPoint",
          "type": "address"
        }
      ],
      "stateMutability": "nonpayable",
      "type": "constructor"
    },
    {
      "anonymous": false,
      "inputs": [
        {
          "indexed": true,
          "internalType": "address",
          "name": "paymaster",
          "type": "address"
        },
        {
          "indexed": true,
          "internalType": "address[]",
          "name": "accounts",
          "type": "address[]"
        }
      ],
      "name": "AddedBatchToWhitelist",
      "type": "event"
    },
    {
      "anonymous": false,
      "inputs": [
        {
          "indexed": true,
          "internalType": "address",
          "name": "paymaster",
          "type": "address"
        },
        {
          "indexed": true,
          "internalType": "address",
          "name": "account",
          "type": "address"
        }
      ],
      "name": "AddedToWhitelist",
      "type": "event"
    },
    {
      "anonymous": false,
      "inputs": [
        {
          "indexed": true,
          "internalType": "address",
          "name": "previousOwner",
          "type": "address"
        },
        {
          "indexed": true,
          "internalType": "address",
          "name": "newOwner",
          "type": "address"
        }
      ],
      "name": "OwnershipTransferred",
      "type": "event"
    },
    {
      "anonymous": false,
      "inputs": [
        {
          "indexed": true,
          "internalType": "address",
          "name": "paymaster",
          "type": "address"
        },
        {
          "indexed": true,
          "internalType": "address[]",
          "name": "accounts",
          "type": "address[]"
        }
      ],
      "name": "RemovedBatchFromWhitelist",
      "type": "event"
    },
    {
      "anonymous": false,
      "inputs": [
        {
          "indexed": true,
          "internalType": "address",
          "name": "paymaster",
          "type": "address"
        },
        {
          "indexed": true,
          "internalType": "address",
          "name": "account",
          "type": "address"
        }
      ],
      "name": "RemovedFromWhitelist",
      "type": "event"
    },
    {
      "anonymous": false,
      "inputs": [
        {
          "indexed": false,
          "internalType": "address",
          "name": "paymaster",
          "type": "address"
        },
        {
          "indexed": false,
          "internalType": "address",
          "name": "sender",
          "type": "address"
        },
        {
          "indexed": false,
          "internalType": "bytes",
          "name": "userOpHash",
          "type": "bytes"
        }
      ],
      "name": "SponsorSuccessful",
      "type": "event"
    },
    {
      "anonymous": false,
      "inputs": [
        {
          "indexed": false,
          "internalType": "address",
          "name": "paymaster",
          "type": "address"
        },
        {
          "indexed": false,
          "internalType": "address",
          "name": "sender",
          "type": "address"
        },
        {
          "indexed": false,
          "internalType": "bytes",
          "name": "userOpHash",
          "type": "bytes"
        }
      ],
      "name": "SponsorUnsuccessful",
      "type": "event"
    },
    {
      "anonymous": false,
      "inputs": [
        {
          "indexed": false,
          "internalType": "address",
          "name": "owner",
          "type": "address"
        }
      ],
      "name": "WhitelistInitialized",
      "type": "event"
    },
    {
      "inputs": [
        {
          "internalType": "address",
          "name": "_account",
          "type": "address"
        }
      ],
      "name": "add",
      "outputs": [],
      "stateMutability": "nonpayable",
      "type": "function"
    },
    {
      "inputs": [
        {
          "internalType": "address[]",
          "name": "_accounts",
          "type": "address[]"
        }
      ],
      "name": "addBatch",
      "outputs": [],
      "stateMutability": "nonpayable",
      "type": "function"
    },
    {
      "inputs": [
        {
          "internalType": "uint32",
          "name": "unstakeDelaySec",
          "type": "uint32"
        }
      ],
      "name": "addStake",
      "outputs": [],
      "stateMutability": "payable",
      "type": "function"
    },
    {
      "inputs": [
        {
          "internalType": "address",
          "name": "_sponsor",
          "type": "address"
        },
        {
          "internalType": "address",
          "name": "_account",
          "type": "address"
        }
      ],
      "name": "check",
      "outputs": [
        {
          "internalType": "bool",
          "name": "",
          "type": "bool"
        }
      ],
      "stateMutability": "view",
      "type": "function"
    },
    {
      "inputs": [
        {
          "internalType": "address",
          "name": "_sponsor",
          "type": "address"
        }
      ],
      "name": "checkSponsorFunds",
      "outputs": [
        {
          "internalType": "uint256",
          "name": "",
          "type": "uint256"
        }
      ],
      "stateMutability": "view",
      "type": "function"
    },
    {
      "inputs": [],
      "name": "deposit",
      "outputs": [],
      "stateMutability": "payable",
      "type": "function"
    },
    {
      "inputs": [],
      "name": "depositFunds",
      "outputs": [],
      "stateMutability": "payable",
      "type": "function"
    },
    {
      "inputs": [],
      "name": "entryPoint",
      "outputs": [
        {
          "internalType": "contract IEntryPoint",
          "name": "",
          "type": "address"
        }
      ],
      "stateMutability": "view",
      "type": "function"
    },
    {
      "inputs": [],
      "name": "getDeposit",
      "outputs": [
        {
          "internalType": "uint256",
          "name": "",
          "type": "uint256"
        }
      ],
      "stateMutability": "view",
      "type": "function"
    },
    {
      "inputs": [
        {
          "components": [
            {
              "internalType": "address",
              "name": "sender",
              "type": "address"
            },
            {
              "internalType": "uint256",
              "name": "nonce",
              "type": "uint256"
            },
            {
              "internalType": "bytes",
              "name": "initCode",
              "type": "bytes"
            },
            {
              "internalType": "bytes",
              "name": "callData",
              "type": "bytes"
            },
            {
              "internalType": "uint256",
              "name": "callGasLimit",
              "type": "uint256"
            },
            {
              "internalType": "uint256",
              "name": "verificationGasLimit",
              "type": "uint256"
            },
            {
              "internalType": "uint256",
              "name": "preVerificationGas",
              "type": "uint256"
            },
            {
              "internalType": "uint256",
              "name": "maxFeePerGas",
              "type": "uint256"
            },
            {
              "internalType": "uint256",
              "name": "maxPriorityFeePerGas",
              "type": "uint256"
            },
            {
              "internalType": "bytes",
              "name": "paymasterAndData",
              "type": "bytes"
            },
            {
              "internalType": "bytes",
              "name": "signature",
              "type": "bytes"
            }
          ],
          "internalType": "struct UserOperation",
          "name": "userOp",
          "type": "tuple"
        },
        {
          "internalType": "uint48",
          "name": "validUntil",
          "type": "uint48"
        },
        {
          "internalType": "uint48",
          "name": "validAfter",
          "type": "uint48"
        }
      ],
      "name": "getHash",
      "outputs": [
        {
          "internalType": "bytes32",
          "name": "",
          "type": "bytes32"
        }
      ],
      "stateMutability": "view",
      "type": "function"
    },
    {
      "inputs": [],
      "name": "owner",
      "outputs": [
        {
          "internalType": "address",
          "name": "",
          "type": "address"
        }
      ],
      "stateMutability": "view",
      "type": "function"
    },
    {
      "inputs": [
        {
          "internalType": "bytes",
          "name": "paymasterAndData",
          "type": "bytes"
        }
      ],
      "name": "parsePaymasterAndData",
      "outputs": [
        {
          "internalType": "uint48",
          "name": "validUntil",
          "type": "uint48"
        },
        {
          "internalType": "uint48",
          "name": "validAfter",
          "type": "uint48"
        },
        {
          "internalType": "bytes",
          "name": "signature",
          "type": "bytes"
        }
      ],
      "stateMutability": "pure",
      "type": "function"
    },
    {
      "inputs": [
        {
          "internalType": "enum IPaymaster.PostOpMode",
          "name": "mode",
          "type": "uint8"
        },
        {
          "internalType": "bytes",
          "name": "context",
          "type": "bytes"
        },
        {
          "internalType": "uint256",
          "name": "actualGasCost",
          "type": "uint256"
        }
      ],
      "name": "postOp",
      "outputs": [],
      "stateMutability": "nonpayable",
      "type": "function"
    },
    {
      "inputs": [
        {
          "internalType": "address",
          "name": "_account",
          "type": "address"
        }
      ],
      "name": "remove",
      "outputs": [],
      "stateMutability": "nonpayable",
      "type": "function"
    },
    {
      "inputs": [
        {
          "internalType": "address[]",
          "name": "_accounts",
          "type": "address[]"
        }
      ],
      "name": "removeBatch",
      "outputs": [],
      "stateMutability": "nonpayable",
      "type": "function"
    },
    {
      "inputs": [],
      "name": "renounceOwnership",
      "outputs": [],
      "stateMutability": "nonpayable",
      "type": "function"
    },
    {
      "inputs": [
        {
          "internalType": "address",
          "name": "",
          "type": "address"
        }
      ],
      "name": "senderNonce",
      "outputs": [
        {
          "internalType": "uint256",
          "name": "",
          "type": "uint256"
        }
      ],
      "stateMutability": "view",
      "type": "function"
    },
    {
      "inputs": [
        {
          "internalType": "address",
          "name": "",
          "type": "address"
        }
      ],
      "name": "sponsorFunds",
      "outputs": [
        {
          "internalType": "uint256",
          "name": "",
          "type": "uint256"
        }
      ],
      "stateMutability": "view",
      "type": "function"
    },
    {
      "inputs": [
        {
          "internalType": "address",
          "name": "newOwner",
          "type": "address"
        }
      ],
      "name": "transferOwnership",
      "outputs": [],
      "stateMutability": "nonpayable",
      "type": "function"
    },
    {
      "inputs": [],
      "name": "unlockStake",
      "outputs": [],
      "stateMutability": "nonpayable",
      "type": "function"
    },
    {
      "inputs": [
        {
          "components": [
            {
              "internalType": "address",
              "name": "sender",
              "type": "address"
            },
            {
              "internalType": "uint256",
              "name": "nonce",
              "type": "uint256"
            },
            {
              "internalType": "bytes",
              "name": "initCode",
              "type": "bytes"
            },
            {
              "internalType": "bytes",
              "name": "callData",
              "type": "bytes"
            },
            {
              "internalType": "uint256",
              "name": "callGasLimit",
              "type": "uint256"
            },
            {
              "internalType": "uint256",
              "name": "verificationGasLimit",
              "type": "uint256"
            },
            {
              "internalType": "uint256",
              "name": "preVerificationGas",
              "type": "uint256"
            },
            {
              "internalType": "uint256",
              "name": "maxFeePerGas",
              "type": "uint256"
            },
            {
              "internalType": "uint256",
              "name": "maxPriorityFeePerGas",
              "type": "uint256"
            },
            {
              "internalType": "bytes",
              "name": "paymasterAndData",
              "type": "bytes"
            },
            {
              "internalType": "bytes",
              "name": "signature",
              "type": "bytes"
            }
          ],
          "internalType": "struct UserOperation",
          "name": "userOp",
          "type": "tuple"
        },
        {
          "internalType": "bytes32",
          "name": "userOpHash",
          "type": "bytes32"
        },
        {
          "internalType": "uint256",
          "name": "maxCost",
          "type": "uint256"
        }
      ],
      "name": "validatePaymasterUserOp",
      "outputs": [
        {
          "internalType": "bytes",
          "name": "context",
          "type": "bytes"
        },
        {
          "internalType": "uint256",
          "name": "validationData",
          "type": "uint256"
        }
      ],
      "stateMutability": "nonpayable",
      "type": "function"
    },
    {
      "inputs": [
        {
          "internalType": "address",
          "name": "",
          "type": "address"
        },
        {
          "internalType": "address",
          "name": "",
          "type": "address"
        }
      ],
      "name": "whitelist",
      "outputs": [
        {
          "internalType": "bool",
          "name": "",
          "type": "bool"
        }
      ],
      "stateMutability": "view",
      "type": "function"
    },
    {
      "inputs": [
        {
          "internalType": "address payable",
          "name": "withdrawAddress",
          "type": "address"
        }
      ],
      "name": "withdrawStake",
      "outputs": [],
      "stateMutability": "nonpayable",
      "type": "function"
    },
    {
      "inputs": [
        {
          "internalType": "address payable",
          "name": "withdrawAddress",
          "type": "address"
        },
        {
          "internalType": "uint256",
          "name": "amount",
          "type": "uint256"
        }
      ],
      "name": "withdrawTo",
      "outputs": [],
      "stateMutability": "nonpayable",
      "type": "function"
    }
  ],
  "transactionHash": "0x5a3db19117cafff239e6f21fa5e6fdf668d5d1a388d271e0b521bb86d5febe3c",
  "args": [
    "0x5FF137D4b0FDCD49DcA30c7CF57E578a026d2789"
  ],
  "numDeployments": 1,
  "solcInputHash": "5f87bf1b44e586e2b630edc0bd524dd1",
  "bytecode": "0x60a06040523480156200001157600080fd5b506040516200358f3803806200358f8339818101604052810190620000379190620001de565b80620000586200004c6200009460201b60201c565b6200009c60201b60201c565b8073ffffffffffffffffffffffffffffffffffffffff1660808173ffffffffffffffffffffffffffffffffffffffff1681525050505062000210565b600033905090565b60008060009054906101000a900473ffffffffffffffffffffffffffffffffffffffff169050816000806101000a81548173ffffffffffffffffffffffffffffffffffffffff021916908373ffffffffffffffffffffffffffffffffffffffff1602179055508173ffffffffffffffffffffffffffffffffffffffff168173ffffffffffffffffffffffffffffffffffffffff167f8be0079c531659141344cd1fd0a4f28419497f9722a3daafe3b4186f6b6457e060405160405180910390a35050565b600080fd5b600073ffffffffffffffffffffffffffffffffffffffff82169050919050565b6000620001928262000165565b9050919050565b6000620001a68262000185565b9050919050565b620001b88162000199565b8114620001c457600080fd5b50565b600081519050620001d881620001ad565b92915050565b600060208284031215620001f757620001f662000160565b5b60006200020784828501620001c7565b91505092915050565b60805161332b620002646000396000818161056d0152818161066a015281816109c301528181610a0301528181610a8d01528181610b1d01528181610bbc01528181610ced0152611353015261332b6000f3fe60806040526004361061014b5760003560e01c8063a9a23409116100b6578063c399ec881161006f578063c399ec8814610480578063d0e30db0146104ab578063d672bd84146104b5578063e2c41dbc146104f2578063f2fde38b146104fc578063f465c77e146105255761014b565b8063a9a2340914610372578063b092145e1461039b578063b0d691fe146103d8578063b3154db014610403578063bb9fe6bf14610440578063c23a5cea146104575761014b565b80636b845bfe116101085780636b845bfe1461024d578063715018a6146102765780638da5cb5b1461028d57806394d4ad60146102b857806394e1fc19146102f85780639c90b443146103355761014b565b80630396cb60146101505780630a3b0a4f1461016c578063205c28781461019557806324efa264146101be57806329092d0e146101e75780633f514c2514610210575b600080fd5b61016a60048036038101906101659190611b68565b610563565b005b34801561017857600080fd5b50610193600480360381019061018e9190611bf3565b6105fa565b005b3480156101a157600080fd5b506101bc60048036038101906101b79190611c94565b610660565b005b3480156101ca57600080fd5b506101e560048036038101906101e09190611d39565b6106f9565b005b3480156101f357600080fd5b5061020e60048036038101906102099190611bf3565b610762565b005b34801561021c57600080fd5b5061023760048036038101906102329190611bf3565b6107c8565b6040516102449190611d95565b60405180910390f35b34801561025957600080fd5b50610274600480360381019061026f9190611d39565b6107e0565b005b34801561028257600080fd5b5061028b610849565b005b34801561029957600080fd5b506102a261085d565b6040516102af9190611dbf565b60405180910390f35b3480156102c457600080fd5b506102df60048036038101906102da9190611e30565b610886565b6040516102ef9493929190611efc565b60405180910390f35b34801561030457600080fd5b5061031f600480360381019061031a9190611f8d565b6108d5565b60405161032c9190612015565b60405180910390f35b34801561034157600080fd5b5061035c60048036038101906103579190611bf3565b610960565b6040516103699190611d95565b60405180910390f35b34801561037e57600080fd5b5061039960048036038101906103949190612055565b610978565b005b3480156103a757600080fd5b506103c260048036038101906103bd91906120c9565b610992565b6040516103cf9190612124565b60405180910390f35b3480156103e457600080fd5b506103ed6109c1565b6040516103fa919061219e565b60405180910390f35b34801561040f57600080fd5b5061042a600480360381019061042591906120c9565b6109e5565b6040516104379190612124565b60405180910390f35b34801561044c57600080fd5b506104556109f9565b005b34801561046357600080fd5b5061047e600480360381019061047991906121b9565b610a83565b005b34801561048c57600080fd5b50610495610b19565b6040516104a29190611d95565b60405180910390f35b6104b3610bba565b005b3480156104c157600080fd5b506104dc60048036038101906104d79190611bf3565b610c48565b6040516104e99190611d95565b60405180910390f35b6104fa610c91565b005b34801561050857600080fd5b50610523600480360381019061051e9190611bf3565b610dcf565b005b34801561053157600080fd5b5061054c60048036038101906105479190612212565b610e52565b60405161055a9291906122ef565b60405180910390f35b61056b610e75565b7f000000000000000000000000000000000000000000000000000000000000000073ffffffffffffffffffffffffffffffffffffffff16630396cb6034836040518363ffffffff1660e01b81526004016105c5919061232e565b6000604051808303818588803b1580156105de57600080fd5b505af11580156105f2573d6000803e3d6000fd5b505050505050565b61060381610ef3565b8073ffffffffffffffffffffffffffffffffffffffff163373ffffffffffffffffffffffffffffffffffffffff167f0c4b48e75a1f7ab0a9a2f786b5d6c1f7789020403bff177fb54d46edb89ccc0060405160405180910390a350565b610668610e75565b7f000000000000000000000000000000000000000000000000000000000000000073ffffffffffffffffffffffffffffffffffffffff1663205c287883836040518363ffffffff1660e01b81526004016106c3929190612358565b600060405180830381600087803b1580156106dd57600080fd5b505af11580156106f1573d6000803e3d6000fd5b505050505050565b6107038282611043565b818160405161071392919061243e565b60405180910390203373ffffffffffffffffffffffffffffffffffffffff167f6eabb183ad4385932735ae89018089a008c58e814451b618bc0dd0e7922f6d1360405160405180910390a35050565b61076b81611097565b8073ffffffffffffffffffffffffffffffffffffffff163373ffffffffffffffffffffffffffffffffffffffff167fd288ab5da2e1f37cf384a1565a3f905ad289b092fbdd31950dbbfef148c04f8860405160405180910390a350565b60026020528060005260406000206000915090505481565b6107ea82826111e7565b81816040516107fa92919061243e565b60405180910390203373ffffffffffffffffffffffffffffffffffffffff167f75dcdde27b71b9c529ae8b02072e1eeda244662d2d9c2effea5a1afb8fc913f360405160405180910390a35050565b610851610e75565b61085b600061123b565b565b60008060009054906101000a900473ffffffffffffffffffffffffffffffffffffffff16905090565b60008036600085856014906054926108a093929190612461565b8101906108ad919061249c565b8094508195505050858560549080926108c893929190612461565b9150915092959194509250565b60006108e0846112ff565b4630600360006108ef89611341565b73ffffffffffffffffffffffffffffffffffffffff1673ffffffffffffffffffffffffffffffffffffffff168152602001908152602001600020548686604051602001610941969594939291906124dc565b6040516020818303038152906040528051906020012090509392505050565b60036020528060005260406000206000915090505481565b610980611351565b61098c848484846113e1565b50505050565b60016020528160005260406000206020528060005260406000206000915091509054906101000a900460ff1681565b7f000000000000000000000000000000000000000000000000000000000000000081565b60006109f183836114e6565b905092915050565b610a01610e75565b7f000000000000000000000000000000000000000000000000000000000000000073ffffffffffffffffffffffffffffffffffffffff1663bb9fe6bf6040518163ffffffff1660e01b8152600401600060405180830381600087803b158015610a6957600080fd5b505af1158015610a7d573d6000803e3d6000fd5b50505050565b610a8b610e75565b7f000000000000000000000000000000000000000000000000000000000000000073ffffffffffffffffffffffffffffffffffffffff1663c23a5cea826040518263ffffffff1660e01b8152600401610ae49190612544565b600060405180830381600087803b158015610afe57600080fd5b505af1158015610b12573d6000803e3d6000fd5b5050505050565b60007f000000000000000000000000000000000000000000000000000000000000000073ffffffffffffffffffffffffffffffffffffffff166370a08231306040518263ffffffff1660e01b8152600401610b749190611dbf565b602060405180830381865afa158015610b91573d6000803e3d6000fd5b505050506040513d601f19601f82011682018060405250810190610bb59190612574565b905090565b7f000000000000000000000000000000000000000000000000000000000000000073ffffffffffffffffffffffffffffffffffffffff1663b760faf934306040518363ffffffff1660e01b8152600401610c149190611dbf565b6000604051808303818588803b158015610c2d57600080fd5b505af1158015610c41573d6000803e3d6000fd5b5050505050565b6000600260008373ffffffffffffffffffffffffffffffffffffffff1673ffffffffffffffffffffffffffffffffffffffff168152602001908152602001600020549050919050565b343373ffffffffffffffffffffffffffffffffffffffff16311015610ceb576040517f08c379a0000000000000000000000000000000000000000000000000000000008152600401610ce290612624565b60405180910390fd5b7f000000000000000000000000000000000000000000000000000000000000000073ffffffffffffffffffffffffffffffffffffffff1663b760faf934306040518363ffffffff1660e01b8152600401610d459190611dbf565b6000604051808303818588803b158015610d5e57600080fd5b505af1158015610d72573d6000803e3d6000fd5b505050505034600260003373ffffffffffffffffffffffffffffffffffffffff1673ffffffffffffffffffffffffffffffffffffffff1681526020019081526020016000206000828254610dc69190612673565b92505081905550565b610dd7610e75565b600073ffffffffffffffffffffffffffffffffffffffff168173ffffffffffffffffffffffffffffffffffffffff1603610e46576040517f08c379a0000000000000000000000000000000000000000000000000000000008152600401610e3d90612719565b60405180910390fd5b610e4f8161123b565b50565b60606000610e5e611351565b610e6985858561157a565b91509150935093915050565b610e7d61178d565b73ffffffffffffffffffffffffffffffffffffffff16610e9b61085d565b73ffffffffffffffffffffffffffffffffffffffff1614610ef1576040517f08c379a0000000000000000000000000000000000000000000000000000000008152600401610ee890612785565b60405180910390fd5b565b600073ffffffffffffffffffffffffffffffffffffffff168173ffffffffffffffffffffffffffffffffffffffff1603610f62576040517f08c379a0000000000000000000000000000000000000000000000000000000008152600401610f59906127f1565b60405180910390fd5b610f6c33826114e6565b15610fac576040517f08c379a0000000000000000000000000000000000000000000000000000000008152600401610fa390612883565b60405180910390fd5b60018060003373ffffffffffffffffffffffffffffffffffffffff1673ffffffffffffffffffffffffffffffffffffffff16815260200190815260200160002060008373ffffffffffffffffffffffffffffffffffffffff1673ffffffffffffffffffffffffffffffffffffffff16815260200190815260200160002060006101000a81548160ff02191690831515021790555050565b60005b8282905081101561109257611081838383818110611067576110666128a3565b5b905060200201602081019061107c9190611bf3565b610ef3565b8061108b906128d2565b9050611046565b505050565b600073ffffffffffffffffffffffffffffffffffffffff168173ffffffffffffffffffffffffffffffffffffffff1603611106576040517f08c379a00000000000000000000000000000000000000000000000000000000081526004016110fd906127f1565b60405180910390fd5b61111033826114e6565b61114f576040517f08c379a00000000000000000000000000000000000000000000000000000000081526004016111469061298c565b60405180910390fd5b6000600160003373ffffffffffffffffffffffffffffffffffffffff1673ffffffffffffffffffffffffffffffffffffffff16815260200190815260200160002060008373ffffffffffffffffffffffffffffffffffffffff1673ffffffffffffffffffffffffffffffffffffffff16815260200190815260200160002060006101000a81548160ff02191690831515021790555050565b60005b828290508110156112365761122583838381811061120b5761120a6128a3565b5b90506020020160208101906112209190611bf3565b611097565b8061122f906128d2565b90506111ea565b505050565b60008060009054906101000a900473ffffffffffffffffffffffffffffffffffffffff169050816000806101000a81548173ffffffffffffffffffffffffffffffffffffffff021916908373ffffffffffffffffffffffffffffffffffffffff1602179055508173ffffffffffffffffffffffffffffffffffffffff168173ffffffffffffffffffffffffffffffffffffffff167f8be0079c531659141344cd1fd0a4f28419497f9722a3daafe3b4186f6b6457e060405160405180910390a35050565b60603660008380610120019061131591906129bb565b915091508360208184030360405194506020810185016040528085528082602087013750505050919050565b6000808235905080915050919050565b7f000000000000000000000000000000000000000000000000000000000000000073ffffffffffffffffffffffffffffffffffffffff163373ffffffffffffffffffffffffffffffffffffffff16146113df576040517f08c379a00000000000000000000000000000000000000000000000000000000081526004016113d690612a6a565b60405180910390fd5b565b600080600085858101906113f59190612bab565b9250925092506000600281111561140f5761140e612c1a565b5b87600281111561142257611421612c1a565b5b148061145257506001600281111561143d5761143c612c1a565b5b8760028111156114505761144f612c1a565b5b145b156114a1576114618385611795565b7f6037aec16210adc5ac3bd79d71a8b5e065e39248b6c2b7bf56205c017520a13583838360405161149493929190612c49565b60405180910390a16114dd565b7fc62b7ae5a6b2e4bcc39074f040d2a98076ba08224858f7b5e476ead9bf3130d58383836040516114d493929190612c49565b60405180910390a15b50505050505050565b6000600160008473ffffffffffffffffffffffffffffffffffffffff1673ffffffffffffffffffffffffffffffffffffffff16815260200190815260200160002060008373ffffffffffffffffffffffffffffffffffffffff1673ffffffffffffffffffffffffffffffffffffffff16815260200190815260200160002060009054906101000a900460ff16905092915050565b60606000808036600061159c8980610120019061159791906129bb565b610886565b935093509350935060408282905014806115b95750604182829050145b6115f8576040517f08c379a00000000000000000000000000000000000000000000000000000000081526004016115ef90612d1f565b60405180910390fd5b600061160d6116088b87876108d5565b6117ef565b9050600061161a8b611341565b9050600360008273ffffffffffffffffffffffffffffffffffffffff1673ffffffffffffffffffffffffffffffffffffffff168152602001908152602001600020600081548092919061166c906128d2565b919050555060006116c18386868080601f016020809104026020016040519081016040528093929190818152602001838380828437600081840152601f19601f8201169050808301925050505050505061181f565b90506116cd81836114e6565b6116fe576116dd60018888611846565b60405180602001604052806000815250909850985050505050505050611785565b8961170882610c48565b1015611749576040517f08c379a000000000000000000000000000000000000000000000000000000000815260040161174090612db1565b60405180910390fd5b80828d60405160200161175e9392919061301a565b60405160208183030381529060405261177960008989611846565b98509850505050505050505b935093915050565b600033905090565b80600260008473ffffffffffffffffffffffffffffffffffffffff1673ffffffffffffffffffffffffffffffffffffffff16815260200190815260200160002060008282546117e49190613058565b925050819055505050565b6000816040516020016118029190613104565b604051602081830303815290604052805190602001209050919050565b600080600061182e858561187f565b9150915061183b816118d0565b819250505092915050565b600060d08265ffffffffffff16901b60a08465ffffffffffff16901b8561186e576000611871565b60015b60ff16171790509392505050565b60008060418351036118c05760008060006020860151925060408601519150606086015160001a90506118b487828585611a36565b945094505050506118c9565b60006002915091505b9250929050565b600060048111156118e4576118e3612c1a565b5b8160048111156118f7576118f6612c1a565b5b0315611a33576001600481111561191157611910612c1a565b5b81600481111561192457611923612c1a565b5b03611964576040517f08c379a000000000000000000000000000000000000000000000000000000000815260040161195b90613176565b60405180910390fd5b6002600481111561197857611977612c1a565b5b81600481111561198b5761198a612c1a565b5b036119cb576040517f08c379a00000000000000000000000000000000000000000000000000000000081526004016119c2906131e2565b60405180910390fd5b600360048111156119df576119de612c1a565b5b8160048111156119f2576119f1612c1a565b5b03611a32576040517f08c379a0000000000000000000000000000000000000000000000000000000008152600401611a2990613274565b60405180910390fd5b5b50565b6000807f7fffffffffffffffffffffffffffffff5d576e7357a4501ddfe92f46681b20a08360001c1115611a71576000600391509150611b0f565b600060018787878760405160008152602001604052604051611a9694939291906132b0565b6020604051602081039080840390855afa158015611ab8573d6000803e3d6000fd5b505050602060405103519050600073ffffffffffffffffffffffffffffffffffffffff168173ffffffffffffffffffffffffffffffffffffffff1603611b0657600060019250925050611b0f565b80600092509250505b94509492505050565b6000604051905090565b600080fd5b600080fd5b600063ffffffff82169050919050565b611b4581611b2c565b8114611b5057600080fd5b50565b600081359050611b6281611b3c565b92915050565b600060208284031215611b7e57611b7d611b22565b5b6000611b8c84828501611b53565b91505092915050565b600073ffffffffffffffffffffffffffffffffffffffff82169050919050565b6000611bc082611b95565b9050919050565b611bd081611bb5565b8114611bdb57600080fd5b50565b600081359050611bed81611bc7565b92915050565b600060208284031215611c0957611c08611b22565b5b6000611c1784828501611bde565b91505092915050565b6000611c2b82611b95565b9050919050565b611c3b81611c20565b8114611c4657600080fd5b50565b600081359050611c5881611c32565b92915050565b6000819050919050565b611c7181611c5e565b8114611c7c57600080fd5b50565b600081359050611c8e81611c68565b92915050565b60008060408385031215611cab57611caa611b22565b5b6000611cb985828601611c49565b9250506020611cca85828601611c7f565b9150509250929050565b600080fd5b600080fd5b600080fd5b60008083601f840112611cf957611cf8611cd4565b5b8235905067ffffffffffffffff811115611d1657611d15611cd9565b5b602083019150836020820283011115611d3257611d31611cde565b5b9250929050565b60008060208385031215611d5057611d4f611b22565b5b600083013567ffffffffffffffff811115611d6e57611d6d611b27565b5b611d7a85828601611ce3565b92509250509250929050565b611d8f81611c5e565b82525050565b6000602082019050611daa6000830184611d86565b92915050565b611db981611bb5565b82525050565b6000602082019050611dd46000830184611db0565b92915050565b60008083601f840112611df057611def611cd4565b5b8235905067ffffffffffffffff811115611e0d57611e0c611cd9565b5b602083019150836001820283011115611e2957611e28611cde565b5b9250929050565b60008060208385031215611e4757611e46611b22565b5b600083013567ffffffffffffffff811115611e6557611e64611b27565b5b611e7185828601611dda565b92509250509250929050565b600065ffffffffffff82169050919050565b611e9881611e7d565b82525050565b600082825260208201905092915050565b82818337600083830152505050565b6000601f19601f8301169050919050565b6000611edb8385611e9e565b9350611ee8838584611eaf565b611ef183611ebe565b840190509392505050565b6000606082019050611f116000830187611e8f565b611f1e6020830186611e8f565b8181036040830152611f31818486611ecf565b905095945050505050565b600080fd5b60006101608284031215611f5857611f57611f3c565b5b81905092915050565b611f6a81611e7d565b8114611f7557600080fd5b50565b600081359050611f8781611f61565b92915050565b600080600060608486031215611fa657611fa5611b22565b5b600084013567ffffffffffffffff811115611fc457611fc3611b27565b5b611fd086828701611f41565b9350506020611fe186828701611f78565b9250506040611ff286828701611f78565b9150509250925092565b6000819050919050565b61200f81611ffc565b82525050565b600060208201905061202a6000830184612006565b92915050565b6003811061203d57600080fd5b50565b60008135905061204f81612030565b92915050565b6000806000806060858703121561206f5761206e611b22565b5b600061207d87828801612040565b945050602085013567ffffffffffffffff81111561209e5761209d611b27565b5b6120aa87828801611dda565b935093505060406120bd87828801611c7f565b91505092959194509250565b600080604083850312156120e0576120df611b22565b5b60006120ee85828601611bde565b92505060206120ff85828601611bde565b9150509250929050565b60008115159050919050565b61211e81612109565b82525050565b60006020820190506121396000830184612115565b92915050565b6000819050919050565b600061216461215f61215a84611b95565b61213f565b611b95565b9050919050565b600061217682612149565b9050919050565b60006121888261216b565b9050919050565b6121988161217d565b82525050565b60006020820190506121b3600083018461218f565b92915050565b6000602082840312156121cf576121ce611b22565b5b60006121dd84828501611c49565b91505092915050565b6121ef81611ffc565b81146121fa57600080fd5b50565b60008135905061220c816121e6565b92915050565b60008060006060848603121561222b5761222a611b22565b5b600084013567ffffffffffffffff81111561224957612248611b27565b5b61225586828701611f41565b9350506020612266868287016121fd565b925050604061227786828701611c7f565b9150509250925092565b600081519050919050565b60005b838110156122aa57808201518184015260208101905061228f565b60008484015250505050565b60006122c182612281565b6122cb8185611e9e565b93506122db81856020860161228c565b6122e481611ebe565b840191505092915050565b6000604082019050818103600083015261230981856122b6565b90506123186020830184611d86565b9392505050565b61232881611b2c565b82525050565b6000602082019050612343600083018461231f565b92915050565b61235281611c20565b82525050565b600060408201905061236d6000830185612349565b61237a6020830184611d86565b9392505050565b600081905092915050565b6000819050919050565b61239f81611bb5565b82525050565b60006123b18383612396565b60208301905092915050565b60006123cc6020840184611bde565b905092915050565b6000602082019050919050565b60006123ed8385612381565b93506123f88261238c565b8060005b858110156124315761240e82846123bd565b61241888826123a5565b9750612423836123d4565b9250506001810190506123fc565b5085925050509392505050565b600061244b8284866123e1565b91508190509392505050565b600080fd5b600080fd5b6000808585111561247557612474612457565b5b838611156124865761248561245c565b5b6001850283019150848603905094509492505050565b600080604083850312156124b3576124b2611b22565b5b60006124c185828601611f78565b92505060206124d285828601611f78565b9150509250929050565b600060c08201905081810360008301526124f681896122b6565b90506125056020830188611d86565b6125126040830187611db0565b61251f6060830186611d86565b61252c6080830185611e8f565b61253960a0830184611e8f565b979650505050505050565b60006020820190506125596000830184612349565b92915050565b60008151905061256e81611c68565b92915050565b60006020828403121561258a57612589611b22565b5b60006125988482850161255f565b91505092915050565b600082825260208201905092915050565b7f457468657273706f745061796d61737465723a3a204e6f7420656e6f7567682060008201527f62616c616e636500000000000000000000000000000000000000000000000000602082015250565b600061260e6027836125a1565b9150612619826125b2565b604082019050919050565b6000602082019050818103600083015261263d81612601565b9050919050565b7f4e487b7100000000000000000000000000000000000000000000000000000000600052601160045260246000fd5b600061267e82611c5e565b915061268983611c5e565b92508282019050808211156126a1576126a0612644565b5b92915050565b7f4f776e61626c653a206e6577206f776e657220697320746865207a65726f206160008201527f6464726573730000000000000000000000000000000000000000000000000000602082015250565b60006127036026836125a1565b915061270e826126a7565b604082019050919050565b60006020820190508181036000830152612732816126f6565b9050919050565b7f4f776e61626c653a2063616c6c6572206973206e6f7420746865206f776e6572600082015250565b600061276f6020836125a1565b915061277a82612739565b602082019050919050565b6000602082019050818103600083015261279e81612762565b9050919050565b7f57686974656c6973743a3a205a65726f20616464726573730000000000000000600082015250565b60006127db6018836125a1565b91506127e6826127a5565b602082019050919050565b6000602082019050818103600083015261280a816127ce565b9050919050565b7f57686974656c6973743a3a204163636f756e7420697320616c7265616479207760008201527f686974656c697374656400000000000000000000000000000000000000000000602082015250565b600061286d602a836125a1565b915061287882612811565b604082019050919050565b6000602082019050818103600083015261289c81612860565b9050919050565b7f4e487b7100000000000000000000000000000000000000000000000000000000600052603260045260246000fd5b60006128dd82611c5e565b91507fffffffffffffffffffffffffffffffffffffffffffffffffffffffffffffffff820361290f5761290e612644565b5b600182019050919050565b7f57686974656c6973743a3a204163636f756e74206973206e6f7420776869746560008201527f6c69737465640000000000000000000000000000000000000000000000000000602082015250565b60006129766026836125a1565b91506129818261291a565b604082019050919050565b600060208201905081810360008301526129a581612969565b9050919050565b600080fd5b600080fd5b600080fd5b600080833560016020038436030381126129d8576129d76129ac565b5b80840192508235915067ffffffffffffffff8211156129fa576129f96129b1565b5b602083019250600182023603831315612a1657612a156129b6565b5b509250929050565b7f53656e646572206e6f7420456e747279506f696e740000000000000000000000600082015250565b6000612a546015836125a1565b9150612a5f82612a1e565b602082019050919050565b60006020820190508181036000830152612a8381612a47565b9050919050565b600080fd5b7f4e487b7100000000000000000000000000000000000000000000000000000000600052604160045260246000fd5b612ac782611ebe565b810181811067ffffffffffffffff82111715612ae657612ae5612a8f565b5b80604052505050565b6000612af9611b18565b9050612b058282612abe565b919050565b600067ffffffffffffffff821115612b2557612b24612a8f565b5b612b2e82611ebe565b9050602081019050919050565b6000612b4e612b4984612b0a565b612aef565b905082815260208101848484011115612b6a57612b69612a8a565b5b612b75848285611eaf565b509392505050565b600082601f830112612b9257612b91611cd4565b5b8135612ba2848260208601612b3b565b91505092915050565b600080600060608486031215612bc457612bc3611b22565b5b6000612bd286828701611c49565b9350506020612be386828701611c49565b925050604084013567ffffffffffffffff811115612c0457612c03611b27565b5b612c1086828701612b7d565b9150509250925092565b7f4e487b7100000000000000000000000000000000000000000000000000000000600052602160045260246000fd5b6000606082019050612c5e6000830186611db0565b612c6b6020830185611db0565b8181036040830152612c7d81846122b6565b9050949350505050565b7f457468657273706f745061796d61737465723a3a20696e76616c69642073696760008201527f6e6174757265206c656e67746820696e207061796d6173746572416e6444617460208201527f6100000000000000000000000000000000000000000000000000000000000000604082015250565b6000612d096041836125a1565b9150612d1482612c87565b606082019050919050565b60006020820190508181036000830152612d3881612cfc565b9050919050565b7f457468657273706f745061796d61737465723a3a2053706f6e736f722070617960008201527f6d61737465722066756e647320746f6f206c6f77000000000000000000000000602082015250565b6000612d9b6034836125a1565b9150612da682612d3f565b604082019050919050565b60006020820190508181036000830152612dca81612d8e565b9050919050565b612dda81611bb5565b82525050565b6000612def6020840184611c7f565b905092915050565b612e0081611c5e565b82525050565b600080fd5b600080fd5b600080fd5b60008083356001602003843603038112612e3257612e31612e10565b5b83810192508235915060208301925067ffffffffffffffff821115612e5a57612e59612e06565b5b600182023603831315612e7057612e6f612e0b565b5b509250929050565b600082825260208201905092915050565b6000612e958385612e78565b9350612ea2838584611eaf565b612eab83611ebe565b840190509392505050565b60006101608301612eca60008401846123bd565b612ed76000860182612dd1565b50612ee56020840184612de0565b612ef26020860182612df7565b50612f006040840184612e15565b8583036040870152612f13838284612e89565b92505050612f246060840184612e15565b8583036060870152612f37838284612e89565b92505050612f486080840184612de0565b612f556080860182612df7565b50612f6360a0840184612de0565b612f7060a0860182612df7565b50612f7e60c0840184612de0565b612f8b60c0860182612df7565b50612f9960e0840184612de0565b612fa660e0860182612df7565b50612fb5610100840184612de0565b612fc3610100860182612df7565b50612fd2610120840184612e15565b858303610120870152612fe6838284612e89565b92505050612ff8610140840184612e15565b85830361014087015261300c838284612e89565b925050508091505092915050565b600060608201905061302f6000830186611db0565b61303c6020830185611db0565b818103604083015261304e8184612eb6565b9050949350505050565b600061306382611c5e565b915061306e83611c5e565b925082820390508181111561308657613085612644565b5b92915050565b600081905092915050565b7f19457468657265756d205369676e6564204d6573736167653a0a333200000000600082015250565b60006130cd601c8361308c565b91506130d882613097565b601c82019050919050565b6000819050919050565b6130fe6130f982611ffc565b6130e3565b82525050565b600061310f826130c0565b915061311b82846130ed565b60208201915081905092915050565b7f45434453413a20696e76616c6964207369676e61747572650000000000000000600082015250565b60006131606018836125a1565b915061316b8261312a565b602082019050919050565b6000602082019050818103600083015261318f81613153565b9050919050565b7f45434453413a20696e76616c6964207369676e6174757265206c656e67746800600082015250565b60006131cc601f836125a1565b91506131d782613196565b602082019050919050565b600060208201905081810360008301526131fb816131bf565b9050919050565b7f45434453413a20696e76616c6964207369676e6174757265202773272076616c60008201527f7565000000000000000000000000000000000000000000000000000000000000602082015250565b600061325e6022836125a1565b915061326982613202565b604082019050919050565b6000602082019050818103600083015261328d81613251565b9050919050565b600060ff82169050919050565b6132aa81613294565b82525050565b60006080820190506132c56000830187612006565b6132d260208301866132a1565b6132df6040830185612006565b6132ec6060830184612006565b9594505050505056fea2646970667358221220e99b8c371df3d5435e2ac6a2099c95ed69155861c8fa540f6bd5963222e8682564736f6c63430008110033",
  "devdoc": {
    "kind": "dev",
    "methods": {
      "addStake(uint32)": {
        "params": {
          "unstakeDelaySec": "- the unstake delay for this paymaster. Can only be increased."
        }
      },
      "owner()": {
        "details": "Returns the address of the current owner."
      },
      "postOp(uint8,bytes,uint256)": {
        "params": {
          "actualGasCost": "- actual gas used so far (without this postOp call).",
          "context": "- the context value returned by validatePaymasterUserOp",
          "mode": "enum with the following options:      opSucceeded - user operation succeeded.      opReverted  - user op reverted. still has to pay for gas.      postOpReverted - user op succeeded, but caused postOp (in mode=opSucceeded) to revert.                       Now this is the 2nd call, after user's op was deliberately reverted."
        }
      },
      "renounceOwnership()": {
        "details": "Leaves the contract without owner. It will not be possible to call `onlyOwner` functions anymore. Can only be called by the current owner. NOTE: Renouncing ownership will leave the contract without an owner, thereby removing any functionality that is only available to the owner."
      },
      "transferOwnership(address)": {
        "details": "Transfers ownership of the contract to a new account (`newOwner`). Can only be called by the current owner."
      },
      "validatePaymasterUserOp((address,uint256,bytes,bytes,uint256,uint256,uint256,uint256,uint256,bytes,bytes),bytes32,uint256)": {
        "params": {
          "maxCost": "the maximum cost of this transaction (based on maximum gas and gas price from userOp)",
          "userOp": "the user operation",
          "userOpHash": "hash of the user's request data."
        },
        "returns": {
          "context": "value to send to a postOp      zero length to signify postOp is not required.",
          "validationData": "signature and time-range of this operation, encoded the same as the return value of validateUserOperation      <20-byte> sigAuthorizer - 0 for valid signature, 1 to mark signature failure,         otherwise, an address of an \"authorizer\" contract.      <6-byte> validUntil - last timestamp this operation is valid. 0 for \"indefinite\"      <6-byte> validAfter - first timestamp this operation is valid      Note that the validation code cannot use block.timestamp (or block.number) directly."
        }
      },
      "withdrawStake(address)": {
        "params": {
          "withdrawAddress": "the address to send withdrawn value."
        }
      },
      "withdrawTo(address,uint256)": {
        "params": {
          "amount": "to withdraw",
          "withdrawAddress": "target to send to"
        }
      }
    },
    "version": 1
  },
  "userdoc": {
    "kind": "user",
    "methods": {
      "addStake(uint32)": {
        "notice": "add stake for this paymaster. This method can also carry eth value to add to the current stake."
      },
      "deposit()": {
        "notice": "add a deposit for this paymaster, used for paying for transaction fees"
      },
      "getDeposit()": {
        "notice": "return current paymaster's deposit on the entryPoint."
      },
      "getHash((address,uint256,bytes,bytes,uint256,uint256,uint256,uint256,uint256,bytes,bytes),uint48,uint48)": {
        "notice": "return the hash we're going to sign off-chain (and validate on-chain) this method is called by the off-chain service, to sign the request. it is called on-chain from the validatePaymasterUserOp, to validate the signature. note that this signature covers all fields of the UserOperation, except the \"paymasterAndData\", which will carry the signature itself."
      },
      "postOp(uint8,bytes,uint256)": {
        "notice": "post-operation handler. Must verify sender is the entryPoint"
      },
      "unlockStake()": {
        "notice": "unlock the stake, in order to withdraw it. The paymaster can't serve requests once unlocked, until it calls addStake again"
      },
      "validatePaymasterUserOp((address,uint256,bytes,bytes,uint256,uint256,uint256,uint256,uint256,bytes,bytes),bytes32,uint256)": {
        "notice": "payment validation: check if paymaster agrees to pay. Must verify sender is the entryPoint. Revert to reject this request. Note that bundlers will reject this method if it changes the state, unless the paymaster is trusted (whitelisted) The paymaster pre-pays using its deposit, and receive back a refund after the postOp method returns."
      },
      "withdrawStake(address)": {
        "notice": "withdraw the entire paymaster's stake. stake must be unlocked first (and then wait for the unstakeDelay to be over)"
      },
      "withdrawTo(address,uint256)": {
        "notice": "withdraw value from the deposit"
      }
    },
    "notice": "A sample paymaster that uses external service to decide whether to pay for the UserOp. The paymaster trusts an external signer to sign the transaction. The calling user must pass the UserOp to that external signer first, which performs whatever off-chain verification before signing the UserOp. Note that this signature is NOT a replacement for wallet signature: - the paymaster signs to agree to PAY for GAS. - the wallet signs to prove identity and account ownership.",
    "version": 1
  },
  "storageLayout": {
    "storage": [
      {
        "astId": 7,
        "contract": "src/paymaster/EtherspotPaymaster.sol:EtherspotPaymaster",
        "label": "_owner",
        "offset": 0,
        "slot": "0",
        "type": "t_address"
      },
      {
        "astId": 6693,
        "contract": "src/paymaster/EtherspotPaymaster.sol:EtherspotPaymaster",
        "label": "whitelist",
        "offset": 0,
        "slot": "1",
        "type": "t_mapping(t_address,t_mapping(t_address,t_bool))"
      },
      {
        "astId": 6333,
        "contract": "src/paymaster/EtherspotPaymaster.sol:EtherspotPaymaster",
        "label": "sponsorFunds",
        "offset": 0,
        "slot": "2",
        "type": "t_mapping(t_address,t_uint256)"
      },
      {
        "astId": 6337,
        "contract": "src/paymaster/EtherspotPaymaster.sol:EtherspotPaymaster",
        "label": "senderNonce",
        "offset": 0,
        "slot": "3",
        "type": "t_mapping(t_address,t_uint256)"
      }
    ],
    "types": {
      "t_address": {
        "encoding": "inplace",
        "label": "address",
        "numberOfBytes": "20"
      },
      "t_bool": {
        "encoding": "inplace",
        "label": "bool",
        "numberOfBytes": "1"
      },
      "t_mapping(t_address,t_bool)": {
        "encoding": "mapping",
        "key": "t_address",
        "label": "mapping(address => bool)",
        "numberOfBytes": "32",
        "value": "t_bool"
      },
      "t_mapping(t_address,t_mapping(t_address,t_bool))": {
        "encoding": "mapping",
        "key": "t_address",
        "label": "mapping(address => mapping(address => bool))",
        "numberOfBytes": "32",
        "value": "t_mapping(t_address,t_bool)"
      },
      "t_mapping(t_address,t_uint256)": {
        "encoding": "mapping",
        "key": "t_address",
        "label": "mapping(address => uint256)",
        "numberOfBytes": "32",
        "value": "t_uint256"
      },
      "t_uint256": {
        "encoding": "inplace",
        "label": "uint256",
        "numberOfBytes": "32"
      }
    }
  }
}