{
  "address": "0xBabd8268f9579b05E6042661081eF6015E1d34dE",
  "abi": [
    {
      "inputs": [],
      "stateMutability": "nonpayable",
      "type": "constructor"
    },
    {
      "anonymous": false,
      "inputs": [
        {
          "indexed": true,
          "internalType": "address",
          "name": "wallet",
          "type": "address"
        },
        {
          "indexed": true,
          "internalType": "address",
          "name": "owner",
          "type": "address"
        },
        {
          "indexed": false,
          "internalType": "uint256",
          "name": "index",
          "type": "uint256"
        }
      ],
      "name": "AccountCreation",
      "type": "event"
    },
    {
      "inputs": [],
      "name": "accountCreationCode",
      "outputs": [
        {
          "internalType": "bytes",
          "name": "",
          "type": "bytes"
        }
      ],
      "stateMutability": "pure",
      "type": "function"
    },
    {
      "inputs": [],
      "name": "accountImplementation",
      "outputs": [
        {
          "internalType": "address",
          "name": "",
          "type": "address"
        }
      ],
      "stateMutability": "view",
      "type": "function"
    },
    {
      "inputs": [
        {
          "internalType": "contract IEntryPoint",
          "name": "entryPoint",
          "type": "address"
        },
        {
          "internalType": "address",
          "name": "owner",
          "type": "address"
        },
        {
          "internalType": "uint256",
          "name": "index",
          "type": "uint256"
        }
      ],
      "name": "createAccount",
      "outputs": [
        {
          "internalType": "address",
          "name": "ret",
          "type": "address"
        }
      ],
      "stateMutability": "nonpayable",
      "type": "function"
    },
    {
      "inputs": [
        {
          "internalType": "contract IEntryPoint",
          "name": "entryPoint",
          "type": "address"
        },
        {
          "internalType": "address",
          "name": "owner",
          "type": "address"
        },
        {
          "internalType": "uint256",
          "name": "index",
          "type": "uint256"
        }
      ],
      "name": "getAddress",
      "outputs": [
        {
          "internalType": "address",
          "name": "proxy",
          "type": "address"
        }
      ],
      "stateMutability": "view",
      "type": "function"
    }
  ],
  "transactionHash": "0xfb2659bfa59255ab4701c653fd50d3c56a796d8c64b2ed243847dfb5ef2ef6cd",
  "args": [],
  "numDeployments": 3,
  "solcInputHash": "f5fcfd5b163a6338f30be40819fb4773",
  "bytecode": "0x60a060405234801561001057600080fd5b5060405161001d90610072565b604051809103906000f080158015610039573d6000803e3d6000fd5b5073ffffffffffffffffffffffffffffffffffffffff1660808173ffffffffffffffffffffffffffffffffffffffff168152505061007f565b61536080610d2e83390190565b608051610c866100a8600039600081816101780152818161022201526102b50152610c866000f3fe60806040523480156200001157600080fd5b5060043610620000525760003560e01c806308a6354e146200005757806311464fbe146200008d5780631230aea214620000af57806331c884df14620000e5575b600080fd5b6200007560048036038101906200006f9190620005ad565b62000107565b6040516200008491906200061a565b60405180910390f35b6200009762000220565b604051620000a691906200061a565b60405180910390f35b620000cd6004803603810190620000c79190620005ad565b62000244565b604051620000dc91906200061a565b60405180910390f35b620000ef62000424565b604051620000fe9190620006d1565b60405180910390f35b60008062000116858562000451565b905060008180519060200120846040516020016200013692919062000749565b6040516020818303038152906040528051906020012090506000604051806020016200016290620004b5565b6020820181038252601f19601f820116604052507f000000000000000000000000000000000000000000000000000000000000000073ffffffffffffffffffffffffffffffffffffffff16604051602001620001c0929190620007bb565b6040516020818303038152906040529050600060ff60f81b30848480519060200120604051602001620001f7949392919062000888565b6040516020818303038152906040528051906020012090508060001c9450505050509392505050565b7f000000000000000000000000000000000000000000000000000000000000000081565b60008062000253858562000451565b905060008180519060200120846040516020016200027392919062000749565b6040516020818303038152906040528051906020012090506000604051806020016200029f90620004b5565b6020820181038252601f19601f820116604052507f000000000000000000000000000000000000000000000000000000000000000073ffffffffffffffffffffffffffffffffffffffff16604051602001620002fd929190620007bb565b6040516020818303038152906040529050818151826020016000f59350600073ffffffffffffffffffffffffffffffffffffffff168473ffffffffffffffffffffffffffffffffffffffff16036200038c576040517f08c379a000000000000000000000000000000000000000000000000000000000815260040162000383906200093f565b60405180910390fd5b600083511115620003b35760008060008551602087016000895af103620003b257600080fd5b5b8573ffffffffffffffffffffffffffffffffffffffff168473ffffffffffffffffffffffffffffffffffffffff167f8967dcaa00d8fcb9bb2b5beff4aaf8c020063512cf08fbe11fec37a1e3a150f28760405162000412919062000972565b60405180910390a35050509392505050565b6060604051806020016200043890620004b5565b6020820181038252601f19601f82011660405250905090565b6060828260405160240162000468929190620009fa565b60405160208183030381529060405263485cc95560e01b6020820180517bffffffffffffffffffffffffffffffffffffffffffffffffffffffff8381831617835250505050905092915050565b6102298062000a2883390190565b600080fd5b600073ffffffffffffffffffffffffffffffffffffffff82169050919050565b6000620004f582620004c8565b9050919050565b60006200050982620004e8565b9050919050565b6200051b81620004fc565b81146200052757600080fd5b50565b6000813590506200053b8162000510565b92915050565b6200054c81620004e8565b81146200055857600080fd5b50565b6000813590506200056c8162000541565b92915050565b6000819050919050565b620005878162000572565b81146200059357600080fd5b50565b600081359050620005a7816200057c565b92915050565b600080600060608486031215620005c957620005c8620004c3565b5b6000620005d9868287016200052a565b9350506020620005ec868287016200055b565b9250506040620005ff8682870162000596565b9150509250925092565b6200061481620004e8565b82525050565b600060208201905062000631600083018462000609565b92915050565b600081519050919050565b600082825260208201905092915050565b60005b838110156200067357808201518184015260208101905062000656565b60008484015250505050565b6000601f19601f8301169050919050565b60006200069d8262000637565b620006a9818562000642565b9350620006bb81856020860162000653565b620006c6816200067f565b840191505092915050565b60006020820190508181036000830152620006ed818462000690565b905092915050565b6000819050919050565b6000819050919050565b6200071e6200071882620006f5565b620006ff565b82525050565b6000819050919050565b620007436200073d8262000572565b62000724565b82525050565b600062000757828562000709565b6020820191506200076982846200072e565b6020820191508190509392505050565b600081905092915050565b6000620007918262000637565b6200079d818562000779565b9350620007af81856020860162000653565b80840191505092915050565b6000620007c9828562000784565b9150620007d782846200072e565b6020820191508190509392505050565b60007fff0000000000000000000000000000000000000000000000000000000000000082169050919050565b6000819050919050565b620008326200082c82620007e7565b62000813565b82525050565b60008160601b9050919050565b6000620008528262000838565b9050919050565b6000620008668262000845565b9050919050565b620008826200087c82620004e8565b62000859565b82525050565b60006200089682876200081d565b600182019150620008a882866200086d565b601482019150620008ba828562000709565b602082019150620008cc828462000709565b60208201915081905095945050505050565b600082825260208201905092915050565b7f437265617465322063616c6c206661696c656400000000000000000000000000600082015250565b600062000927601383620008de565b91506200093482620008ef565b602082019050919050565b600060208201905081810360008301526200095a8162000918565b9050919050565b6200096c8162000572565b82525050565b600060208201905062000989600083018462000961565b92915050565b6000819050919050565b6000620009ba620009b4620009ae84620004c8565b6200098f565b620004c8565b9050919050565b6000620009ce8262000999565b9050919050565b6000620009e282620009c1565b9050919050565b620009f481620009d5565b82525050565b600060408201905062000a116000830185620009e9565b62000a20602083018462000609565b939250505056fe608060405234801561001057600080fd5b506040516102293803806102298339818101604052810190610032919061010d565b600073ffffffffffffffffffffffffffffffffffffffff168173ffffffffffffffffffffffffffffffffffffffff16036100a1576040517f08c379a000000000000000000000000000000000000000000000000000000000815260040161009890610197565b60405180910390fd5b803055506101b7565b600080fd5b600073ffffffffffffffffffffffffffffffffffffffff82169050919050565b60006100da826100af565b9050919050565b6100ea816100cf565b81146100f557600080fd5b50565b600081519050610107816100e1565b92915050565b600060208284031215610123576101226100aa565b5b6000610131848285016100f8565b91505092915050565b600082825260208201905092915050565b7f496e76616c696420616464726573732070726f76696465640000000000000000600082015250565b600061018160188361013a565b915061018c8261014b565b602082019050919050565b600060208201905081810360008301526101b081610174565b9050919050565b6064806101c56000396000f3fe60806040526000305490503660008037600080366000845af43d6000803e600081036029573d6000fd5b3d6000f3fea2646970667358221220fd5bc7b327c257148237aeb9d4d5db67690ab6fafe5b013e9764ea980f2756f664736f6c63430008110033a2646970667358221220c8118142dbf6ef1db32e4dee94a275bf8434f3a7b33bea83589b21b7e9ede68364736f6c6343000811003360a06040523073ffffffffffffffffffffffffffffffffffffffff1660809073ffffffffffffffffffffffffffffffffffffffff168152503480156200004457600080fd5b50620000556200005b60201b60201c565b62000206565b600060019054906101000a900460ff1615620000ae576040517f08c379a0000000000000000000000000000000000000000000000000000000008152600401620000a590620001a9565b60405180910390fd5b60ff801660008054906101000a900460ff1660ff161015620001205760ff6000806101000a81548160ff021916908360ff1602179055507f7f26b83ff96e1f2b6a682f133852f6798a09c465da95921460cefb384740249860ff604051620001179190620001e9565b60405180910390a15b565b600082825260208201905092915050565b7f496e697469616c697a61626c653a20636f6e747261637420697320696e69746960008201527f616c697a696e6700000000000000000000000000000000000000000000000000602082015250565b60006200019160278362000122565b91506200019e8262000133565b604082019050919050565b60006020820190508181036000830152620001c48162000182565b9050919050565b600060ff82169050919050565b620001e381620001cb565b82525050565b6000602082019050620002006000830184620001d8565b92915050565b6080516151226200023e600039600081816110c601528181611154015281816116f10152818161177f015261182f01526151226000f3fe6080604052600436106101ba5760003560e01c80634d44560d116100ec578063a526d83b1161008a578063bc197c8111610064578063bc197c811461066e578063c399ec88146106ab578063d087d288146106d6578063f23a6e611461070157610205565b8063a526d83b146105f1578063b0d691fe1461061a578063b61d27f61461064557610205565b80637065cb48116100c65780637065cb4814610525578063714041561461054e5780638f0684301461057757806398ef1ed8146105b457610205565b80634d44560d146104b55780634f1ef286146104de57806352d1902d146104fa57610205565b80631b71bb6e116101595780633a871cdd116101335780633a871cdd1461041c57806347e1da2a14610459578063485cc955146104825780634a58db19146104ab57610205565b80631b71bb6e1461038d5780632f54bf6e146103b65780633659cfe6146103f357610205565b8063150b7a0211610195578063150b7a02146102ad5780631626ba7e146102ea57806316d4340114610327578063173825d91461036457610205565b806223de291461020a57806301ffc9a7146102335780630c68ba211461027057610205565b3661020557343373ffffffffffffffffffffffffffffffffffffffff167f6bfe7d1a46050e376574ac8bf67e7ceefae9d5c3ea3f3d8f42d08fb5e10736ec60405160405180910390a3005b600080fd5b34801561021657600080fd5b50610231600480360381019061022c9190613074565b61073e565b005b34801561023f57600080fd5b5061025a6004803603810190610255919061319b565b610748565b60405161026791906131e3565b60405180910390f35b34801561027c57600080fd5b50610297600480360381019061029291906131fe565b610882565b6040516102a491906131e3565b60405180910390f35b3480156102b957600080fd5b506102d460048036038101906102cf919061322b565b6108d8565b6040516102e191906132c2565b60405180910390f35b3480156102f657600080fd5b50610311600480360381019061030c9190613313565b6108ed565b60405161031e91906132c2565b60405180910390f35b34801561033357600080fd5b5061034e6004803603810190610349919061339f565b610971565b60405161035b91906131e3565b60405180910390f35b34801561037057600080fd5b5061038b600480360381019061038691906131fe565b610e48565b005b34801561039957600080fd5b506103b460048036038101906103af91906131fe565b610ee2565b005b3480156103c257600080fd5b506103dd60048036038101906103d891906131fe565b61106e565b6040516103ea91906131e3565b60405180910390f35b3480156103ff57600080fd5b5061041a600480360381019061041591906131fe565b6110c4565b005b34801561042857600080fd5b50610443600480360381019061043e919061344c565b61124c565b60405161045091906134ca565b60405180910390f35b34801561046557600080fd5b50610480600480360381019061047b91906135e7565b61127f565b005b34801561048e57600080fd5b506104a960048036038101906104a491906136d9565b611442565b005b6104b3611584565b005b3480156104c157600080fd5b506104dc60048036038101906104d79190613757565b6115f9565b005b6104f860048036038101906104f391906138d8565b6116ef565b005b34801561050657600080fd5b5061050f61182b565b60405161051c9190613943565b60405180910390f35b34801561053157600080fd5b5061054c600480360381019061054791906131fe565b6118e4565b005b34801561055a57600080fd5b50610575600480360381019061057091906131fe565b61197e565b005b34801561058357600080fd5b5061059e6004803603810190610599919061395e565b611a08565b6040516105ab91906131e3565b60405180910390f35b3480156105c057600080fd5b506105db60048036038101906105d6919061395e565b611a99565b6040516105e891906131e3565b60405180910390f35b3480156105fd57600080fd5b50610618600480360381019061061391906131fe565b611bbe565b005b34801561062657600080fd5b5061062f611c48565b60405161063c9190613a31565b60405180910390f35b34801561065157600080fd5b5061066c60048036038101906106679190613a4c565b611c72565b005b34801561067a57600080fd5b5061069560048036038101906106909190613ac0565b611d4e565b6040516106a291906132c2565b60405180910390f35b3480156106b757600080fd5b506106c0611d66565b6040516106cd91906134ca565b60405180910390f35b3480156106e257600080fd5b506106eb611dee565b6040516106f891906134ca565b60405180910390f35b34801561070d57600080fd5b5061072860048036038101906107239190613b9c565b611e79565b60405161073591906132c2565b60405180910390f35b5050505050505050565b60007f150b7a02000000000000000000000000000000000000000000000000000000007bffffffffffffffffffffffffffffffffffffffffffffffffffffffff1916827bffffffffffffffffffffffffffffffffffffffffffffffffffffffff1916148061081357507f4e2312e0000000000000000000000000000000000000000000000000000000007bffffffffffffffffffffffffffffffffffffffffffffffffffffffff1916827bffffffffffffffffffffffffffffffffffffffffffffffffffffffff1916145b8061087b57507f01ffc9a7000000000000000000000000000000000000000000000000000000007bffffffffffffffffffffffffffffffffffffffffffffffffffffffff1916827bffffffffffffffffffffffffffffffffffffffffffffffffffffffff1916145b9050919050565b6000600260008373ffffffffffffffffffffffffffffffffffffffff1673ffffffffffffffffffffffffffffffffffffffff16815260200190815260200160002060009054906101000a900460ff169050919050565b600063150b7a0260e01b905095945050505050565b60008061093e8585858080601f016020809104026020016040519081016040528093929190818152602001838380828437600081840152601f19601f82011690508083019250505050505050611e8f565b90506109498161106e565b1561095e57631626ba7e60e01b91505061096a565b63ffffffff60e01b9150505b9392505050565b6000808673ffffffffffffffffffffffffffffffffffffffff163b9050606060007f649264926492649264926492649264926492649264926492649264926492649260001b878760208a8a90506109c89190613c65565b908a8a9050926109da93929190613ca3565b906109e59190613cf6565b1490508015610af05760006060888860009060208c8c9050610a079190613c65565b92610a1493929190613ca3565b810190610a219190613d55565b80965081935082945050505060008503610ae9576000808373ffffffffffffffffffffffffffffffffffffffff1683604051610a5d9190613e51565b6000604051808303816000865af19150503d8060008114610a9a576040519150601f19603f3d011682016040523d82523d6000602084013e610a9f565b606091505b509150915081610ae657806040517f9d0d6e2d000000000000000000000000000000000000000000000000000000008152600401610add9190613eb2565b60405180910390fd5b50505b5050610b38565b86868080601f016020809104026020016040519081016040528093929190818152602001838380828437600081840152601f19601f8201169050808301925050505050505091505b8080610b445750600083115b15610cb0578873ffffffffffffffffffffffffffffffffffffffff16631626ba7e89846040518363ffffffff1660e01b8152600401610b84929190613ed4565b602060405180830381865afa925050508015610bbe57506040513d601f19601f82011682018060405250810190610bbb9190613f19565b60015b610c31573d8060008114610bee576040519150601f19603f3d011682016040523d82523d6000602084013e610bf3565b606091505b50806040517f6f2a9599000000000000000000000000000000000000000000000000000000008152600401610c289190613eb2565b60405180910390fd5b6000631626ba7e60e01b7bffffffffffffffffffffffffffffffffffffffffffffffffffffffff1916827bffffffffffffffffffffffffffffffffffffffffffffffffffffffff1916149050600085148015610c8a5750825b8015610c94575086155b15610ca357806000526001601ffd5b8095505050505050610e3f565b60418787905014610cf6576040517f08c379a0000000000000000000000000000000000000000000000000000000008152600401610ced90613fc9565b60405180910390fd5b60008787600090602092610d0c93929190613ca3565b90610d179190613cf6565b905060008888602090604092610d2f93929190613ca3565b90610d3a9190613cf6565b9050600089896040818110610d5257610d51613fe9565b5b9050013560f81c60f81b60f81c9050601b8160ff1614158015610d795750601c8160ff1614155b15610db9576040517f08c379a0000000000000000000000000000000000000000000000000000000008152600401610db09061408a565b60405180910390fd5b8b73ffffffffffffffffffffffffffffffffffffffff1660018c83868660405160008152602001604052604051610df394939291906140c6565b6020604051602081039080840390855afa158015610e15573d6000803e3d6000fd5b5050506020604051035173ffffffffffffffffffffffffffffffffffffffff161496505050505050505b95945050505050565b610e513361106e565b80610e8757503073ffffffffffffffffffffffffffffffffffffffff163373ffffffffffffffffffffffffffffffffffffffff16145b80610e975750610e9633610882565b5b610ed6576040517f08c379a0000000000000000000000000000000000000000000000000000000008152600401610ecd90614157565b60405180910390fd5b610edf81611eb6565b50565b610eeb3361106e565b80610f2157503073ffffffffffffffffffffffffffffffffffffffff163373ffffffffffffffffffffffffffffffffffffffff16145b610f60576040517f08c379a0000000000000000000000000000000000000000000000000000000008152600401610f57906141c3565b60405180910390fd5b600073ffffffffffffffffffffffffffffffffffffffff168173ffffffffffffffffffffffffffffffffffffffff1603610fcf576040517f08c379a0000000000000000000000000000000000000000000000000000000008152600401610fc690614255565b60405180910390fd5b7f450909c1478d09248269d4ad4fa8cba61ca3f50faed58c7aedefa51c7f62b83a600360009054906101000a900473ffffffffffffffffffffffffffffffffffffffff1682604051611022929190614284565b60405180910390a180600360006101000a81548173ffffffffffffffffffffffffffffffffffffffff021916908373ffffffffffffffffffffffffffffffffffffffff16021790555050565b6000600160008373ffffffffffffffffffffffffffffffffffffffff1673ffffffffffffffffffffffffffffffffffffffff16815260200190815260200160002060009054906101000a900460ff169050919050565b7f000000000000000000000000000000000000000000000000000000000000000073ffffffffffffffffffffffffffffffffffffffff163073ffffffffffffffffffffffffffffffffffffffff1603611152576040517f08c379a00000000000000000000000000000000000000000000000000000000081526004016111499061431f565b60405180910390fd5b7f000000000000000000000000000000000000000000000000000000000000000073ffffffffffffffffffffffffffffffffffffffff16611191612042565b73ffffffffffffffffffffffffffffffffffffffff16146111e7576040517f08c379a00000000000000000000000000000000000000000000000000000000081526004016111de906143b1565b60405180910390fd5b6111f081612099565b61124981600067ffffffffffffffff81111561120f5761120e6137ad565b5b6040519080825280601f01601f1916602001820160405280156112415781602001600182028036833780820191505090505b50600061211a565b50565b6000611256612288565b61126084846122ff565b905061126f8460200135612395565b61127882612398565b9392505050565b611287611c48565b8073ffffffffffffffffffffffffffffffffffffffff163373ffffffffffffffffffffffffffffffffffffffff1614806112c657506112c53361106e565b5b611305576040517f08c379a00000000000000000000000000000000000000000000000000000000081526004016112fc9061441d565b60405180910390fd5b60008787905011801561131d57508484905087879050145b801561132e57508282905085859050145b61136d576040517f08c379a0000000000000000000000000000000000000000000000000000000008152600401611364906144af565b60405180910390fd5b60005b878790508110156114385761142d88888381811061139157611390613fe9565b5b90506020020160208101906113a691906131fe565b8787848181106113b9576113b8613fe9565b5b905060200201358686858181106113d3576113d2613fe9565b5b90506020028101906113e591906144de565b8080601f016020809104026020016040519081016040528093929190818152602001838380828437600081840152601f19601f82011690508083019250505050505050612434565b806001019050611370565b5050505050505050565b60008060019054906101000a900460ff161590508080156114735750600160008054906101000a900460ff1660ff16105b806114a05750611482306124b8565b15801561149f5750600160008054906101000a900460ff1660ff16145b5b6114df576040517f08c379a00000000000000000000000000000000000000000000000000000000081526004016114d6906145b3565b60405180910390fd5b60016000806101000a81548160ff021916908360ff160217905550801561151c576001600060016101000a81548160ff0219169083151502179055505b61152683836124db565b801561157f5760008060016101000a81548160ff0219169083151502179055507f7f26b83ff96e1f2b6a682f133852f6798a09c465da95921460cefb38474024986001604051611576919061460e565b60405180910390a15b505050565b61158c611c48565b73ffffffffffffffffffffffffffffffffffffffff1663b760faf934306040518363ffffffff1660e01b81526004016115c59190614629565b6000604051808303818588803b1580156115de57600080fd5b505af11580156115f2573d6000803e3d6000fd5b5050505050565b6116023361106e565b8061163857503073ffffffffffffffffffffffffffffffffffffffff163373ffffffffffffffffffffffffffffffffffffffff16145b611677576040517f08c379a000000000000000000000000000000000000000000000000000000000815260040161166e906141c3565b60405180910390fd5b61167f611c48565b73ffffffffffffffffffffffffffffffffffffffff1663205c287883836040518363ffffffff1660e01b81526004016116b9929190614653565b600060405180830381600087803b1580156116d357600080fd5b505af11580156116e7573d6000803e3d6000fd5b505050505050565b7f000000000000000000000000000000000000000000000000000000000000000073ffffffffffffffffffffffffffffffffffffffff163073ffffffffffffffffffffffffffffffffffffffff160361177d576040517f08c379a00000000000000000000000000000000000000000000000000000000081526004016117749061431f565b60405180910390fd5b7f000000000000000000000000000000000000000000000000000000000000000073ffffffffffffffffffffffffffffffffffffffff166117bc612042565b73ffffffffffffffffffffffffffffffffffffffff1614611812576040517f08c379a0000000000000000000000000000000000000000000000000000000008152600401611809906143b1565b60405180910390fd5b61181b82612099565b6118278282600161211a565b5050565b60007f000000000000000000000000000000000000000000000000000000000000000073ffffffffffffffffffffffffffffffffffffffff163073ffffffffffffffffffffffffffffffffffffffff16146118bb576040517f08c379a00000000000000000000000000000000000000000000000000000000081526004016118b2906146ee565b60405180910390fd5b7f360894a13ba1a3210667c828492db98dca3e2076cc3735a920a3ca505d382bbc60001b905090565b6118ed3361106e565b8061192357503073ffffffffffffffffffffffffffffffffffffffff163373ffffffffffffffffffffffffffffffffffffffff16145b80611933575061193233610882565b5b611972576040517f08c379a000000000000000000000000000000000000000000000000000000000815260040161196990614157565b60405180910390fd5b61197b816125a5565b50565b6119873361106e565b806119bd57503073ffffffffffffffffffffffffffffffffffffffff163373ffffffffffffffffffffffffffffffffffffffff16145b6119fc576040517f08c379a00000000000000000000000000000000000000000000000000000000081526004016119f3906141c3565b60405180910390fd5b611a0581612732565b50565b60003073ffffffffffffffffffffffffffffffffffffffff166316d434018686868660016040518663ffffffff1660e01b8152600401611a4c95949392919061473b565b6020604051808303816000875af1158015611a6b573d6000803e3d6000fd5b505050506040513d601f19601f82011682018060405250810190611a8f919061479e565b9050949350505050565b60003073ffffffffffffffffffffffffffffffffffffffff166316d434018686868660006040518663ffffffff1660e01b8152600401611add95949392919061473b565b6020604051808303816000875af1925050508015611b1957506040513d601f19601f82011682018060405250810190611b16919061479e565b60015b611bb1573d8060008114611b49576040519150601f19603f3d011682016040523d82523d6000602084013e611b4e565b606091505b5060008151905060018103611bad57600160f81b82600081518110611b7657611b75613fe9565b5b602001015160f81c60f81b7effffffffffffffffffffffffffffffffffffffffffffffffffffffffffffff19161492505050611bb6565b8082fd5b809150505b949350505050565b611bc73361106e565b80611bfd57503073ffffffffffffffffffffffffffffffffffffffff163373ffffffffffffffffffffffffffffffffffffffff16145b611c3c576040517f08c379a0000000000000000000000000000000000000000000000000000000008152600401611c33906141c3565b60405180910390fd5b611c4581612850565b50565b6000600360009054906101000a900473ffffffffffffffffffffffffffffffffffffffff16905090565b611c7a611c48565b8073ffffffffffffffffffffffffffffffffffffffff163373ffffffffffffffffffffffffffffffffffffffff161480611cb95750611cb83361106e565b5b611cf8576040517f08c379a0000000000000000000000000000000000000000000000000000000008152600401611cef9061441d565b60405180910390fd5b611d47858585858080601f016020809104026020016040519081016040528093929190818152602001838380828437600081840152601f19601f82011690508083019250505050505050612434565b5050505050565b600063bc197c8160e01b905098975050505050505050565b6000611d70611c48565b73ffffffffffffffffffffffffffffffffffffffff166370a08231306040518263ffffffff1660e01b8152600401611da89190614629565b602060405180830381865afa158015611dc5573d6000803e3d6000fd5b505050506040513d601f19601f82011682018060405250810190611de991906147e0565b905090565b6000611df8611c48565b73ffffffffffffffffffffffffffffffffffffffff166335567e1a3060006040518363ffffffff1660e01b8152600401611e3392919061486c565b602060405180830381865afa158015611e50573d6000803e3d6000fd5b505050506040513d601f19601f82011682018060405250810190611e7491906147e0565b905090565b600063f23a6e6160e01b90509695505050505050565b6000806000611e9e85856129de565b91509150611eab81612a2f565b819250505092915050565b8073ffffffffffffffffffffffffffffffffffffffff163373ffffffffffffffffffffffffffffffffffffffff1603611f24576040517f08c379a0000000000000000000000000000000000000000000000000000000008152600401611f1b906148e1565b60405180910390fd5b600160008273ffffffffffffffffffffffffffffffffffffffff1673ffffffffffffffffffffffffffffffffffffffff16815260200190815260200160002060009054906101000a900460ff16611fb0576040517f08c379a0000000000000000000000000000000000000000000000000000000008152600401611fa79061494d565b60405180910390fd5b7f58619076adf5bb0943d100ef88d52d7c3fd691b19d3a9071b555b651fbf418da81604051611fdf9190614629565b60405180910390a16000600160008373ffffffffffffffffffffffffffffffffffffffff1673ffffffffffffffffffffffffffffffffffffffff16815260200190815260200160002060006101000a81548160ff02191690831515021790555050565b60006120707f360894a13ba1a3210667c828492db98dca3e2076cc3735a920a3ca505d382bbc60001b612b95565b60000160009054906101000a900473ffffffffffffffffffffffffffffffffffffffff16905090565b6120a23361106e565b806120d857503073ffffffffffffffffffffffffffffffffffffffff163373ffffffffffffffffffffffffffffffffffffffff16145b612117576040517f08c379a000000000000000000000000000000000000000000000000000000000815260040161210e906141c3565b60405180910390fd5b50565b6121467f4910fdfa16fed3260ed0e7147f7cc6da11a60208b5b9406d12a635614ffd914360001b612b9f565b60000160009054906101000a900460ff161561216a5761216583612ba9565b612283565b8273ffffffffffffffffffffffffffffffffffffffff166352d1902d6040518163ffffffff1660e01b8152600401602060405180830381865afa9250505080156121d257506040513d601f19601f820116820180604052508101906121cf9190614982565b60015b612211576040517f08c379a000000000000000000000000000000000000000000000000000000000815260040161220890614a21565b60405180910390fd5b7f360894a13ba1a3210667c828492db98dca3e2076cc3735a920a3ca505d382bbc60001b8114612276576040517f08c379a000000000000000000000000000000000000000000000000000000000815260040161226d90614ab3565b60405180910390fd5b50612282838383612c62565b5b505050565b612290611c48565b73ffffffffffffffffffffffffffffffffffffffff163373ffffffffffffffffffffffffffffffffffffffff16146122fd576040517f08c379a00000000000000000000000000000000000000000000000000000000081526004016122f490614b1f565b60405180910390fd5b565b60008061230b83612c8e565b905061237b6123768580610140019061232491906144de565b8080601f016020809104026020016040519081016040528093929190818152602001838380828437600081840152601f19601f8201169050808301925050505050505083611e8f90919063ffffffff16565b61106e565b61238957600191505061238f565b60009150505b92915050565b50565b600081146124315760003373ffffffffffffffffffffffffffffffffffffffff16827fffffffffffffffffffffffffffffffffffffffffffffffffffffffffffffffff906040516123e890614b65565b600060405180830381858888f193505050503d8060008114612426576040519150601f19603f3d011682016040523d82523d6000602084013e61242b565b606091505b50509050505b50565b6000808473ffffffffffffffffffffffffffffffffffffffff16848460405161245d9190613e51565b60006040518083038185875af1925050503d806000811461249a576040519150601f19603f3d011682016040523d82523d6000602084013e61249f565b606091505b5091509150816124b157805160208201fd5b5050505050565b6000808273ffffffffffffffffffffffffffffffffffffffff163b119050919050565b81600360006101000a81548173ffffffffffffffffffffffffffffffffffffffff021916908373ffffffffffffffffffffffffffffffffffffffff160217905550612525816125a5565b8073ffffffffffffffffffffffffffffffffffffffff16600360009054906101000a900473ffffffffffffffffffffffffffffffffffffffff1673ffffffffffffffffffffffffffffffffffffffff167f7de3ed105440056cd9149fc06ecd82c66b9c67841d6dcf50c16a08cc9a5ea2c460405160405180910390a35050565b600073ffffffffffffffffffffffffffffffffffffffff168173ffffffffffffffffffffffffffffffffffffffff1603612614576040517f08c379a000000000000000000000000000000000000000000000000000000000815260040161260b90614bc6565b60405180910390fd5b600160008273ffffffffffffffffffffffffffffffffffffffff1673ffffffffffffffffffffffffffffffffffffffff16815260200190815260200160002060009054906101000a900460ff16156126a1576040517f08c379a000000000000000000000000000000000000000000000000000000000815260040161269890614c32565b60405180910390fd5b7f994a936646fe87ffe4f1e469d3d6aa417d6b855598397f323de5b449f765f0c3816040516126d09190614629565b60405180910390a160018060008373ffffffffffffffffffffffffffffffffffffffff1673ffffffffffffffffffffffffffffffffffffffff16815260200190815260200160002060006101000a81548160ff02191690831515021790555050565b600260008273ffffffffffffffffffffffffffffffffffffffff1673ffffffffffffffffffffffffffffffffffffffff16815260200190815260200160002060009054906101000a900460ff166127be576040517f08c379a00000000000000000000000000000000000000000000000000000000081526004016127b590614c9e565b60405180910390fd5b7fb8107d0c6b40be480ce3172ee66ba6d64b71f6b1685a851340036e6e2e3e3c52816040516127ed9190614629565b60405180910390a16000600260008373ffffffffffffffffffffffffffffffffffffffff1673ffffffffffffffffffffffffffffffffffffffff16815260200190815260200160002060006101000a81548160ff02191690831515021790555050565b600073ffffffffffffffffffffffffffffffffffffffff168173ffffffffffffffffffffffffffffffffffffffff16036128bf576040517f08c379a00000000000000000000000000000000000000000000000000000000081526004016128b690614bc6565b60405180910390fd5b600260008273ffffffffffffffffffffffffffffffffffffffff1673ffffffffffffffffffffffffffffffffffffffff16815260200190815260200160002060009054906101000a900460ff161561294c576040517f08c379a000000000000000000000000000000000000000000000000000000000815260040161294390614d0a565b60405180910390fd5b7f038596bb31e2e7d3d9f184d4c98b310103f6d7f5830e5eec32bffe6f1728f9698160405161297b9190614629565b60405180910390a16001600260008373ffffffffffffffffffffffffffffffffffffffff1673ffffffffffffffffffffffffffffffffffffffff16815260200190815260200160002060006101000a81548160ff02191690831515021790555050565b6000806041835103612a1f5760008060006020860151925060408601519150606086015160001a9050612a1387828585612cbe565b94509450505050612a28565b60006002915091505b9250929050565b60006004811115612a4357612a42614d2a565b5b816004811115612a5657612a55614d2a565b5b0315612b925760016004811115612a7057612a6f614d2a565b5b816004811115612a8357612a82614d2a565b5b03612ac3576040517f08c379a0000000000000000000000000000000000000000000000000000000008152600401612aba90614da5565b60405180910390fd5b60026004811115612ad757612ad6614d2a565b5b816004811115612aea57612ae9614d2a565b5b03612b2a576040517f08c379a0000000000000000000000000000000000000000000000000000000008152600401612b2190614e11565b60405180910390fd5b60036004811115612b3e57612b3d614d2a565b5b816004811115612b5157612b50614d2a565b5b03612b91576040517f08c379a0000000000000000000000000000000000000000000000000000000008152600401612b8890614ea3565b60405180910390fd5b5b50565b6000819050919050565b6000819050919050565b612bb2816124b8565b612bf1576040517f08c379a0000000000000000000000000000000000000000000000000000000008152600401612be890614f35565b60405180910390fd5b80612c1e7f360894a13ba1a3210667c828492db98dca3e2076cc3735a920a3ca505d382bbc60001b612b95565b60000160006101000a81548173ffffffffffffffffffffffffffffffffffffffff021916908373ffffffffffffffffffffffffffffffffffffffff16021790555050565b612c6b83612da0565b600082511180612c785750805b15612c8957612c878383612def565b505b505050565b600081604051602001612ca19190614fcd565b604051602081830303815290604052805190602001209050919050565b6000807f7fffffffffffffffffffffffffffffff5d576e7357a4501ddfe92f46681b20a08360001c1115612cf9576000600391509150612d97565b600060018787878760405160008152602001604052604051612d1e94939291906140c6565b6020604051602081039080840390855afa158015612d40573d6000803e3d6000fd5b505050602060405103519050600073ffffffffffffffffffffffffffffffffffffffff168173ffffffffffffffffffffffffffffffffffffffff1603612d8e57600060019250925050612d97565b80600092509250505b94509492505050565b612da981612ba9565b8073ffffffffffffffffffffffffffffffffffffffff167fbc7cd75a20ee27fd9adebab32041f755214dbc6bffa90cc0225b39da2e5c2d3b60405160405180910390a250565b6060612e1483836040518060600160405280602781526020016150c660279139612e1c565b905092915050565b60606000808573ffffffffffffffffffffffffffffffffffffffff1685604051612e469190613e51565b600060405180830381855af49150503d8060008114612e81576040519150601f19603f3d011682016040523d82523d6000602084013e612e86565b606091505b5091509150612e9786838387612ea2565b925050509392505050565b60608315612f04576000835103612efc57612ebc856124b8565b612efb576040517f08c379a0000000000000000000000000000000000000000000000000000000008152600401612ef29061503f565b60405180910390fd5b5b829050612f0f565b612f0e8383612f17565b5b949350505050565b600082511115612f2a5781518083602001fd5b806040517f08c379a0000000000000000000000000000000000000000000000000000000008152600401612f5e91906150a3565b60405180910390fd5b6000604051905090565b600080fd5b600080fd5b600073ffffffffffffffffffffffffffffffffffffffff82169050919050565b6000612fa682612f7b565b9050919050565b612fb681612f9b565b8114612fc157600080fd5b50565b600081359050612fd381612fad565b92915050565b6000819050919050565b612fec81612fd9565b8114612ff757600080fd5b50565b60008135905061300981612fe3565b92915050565b600080fd5b600080fd5b600080fd5b60008083601f8401126130345761303361300f565b5b8235905067ffffffffffffffff81111561305157613050613014565b5b60208301915083600182028301111561306d5761306c613019565b5b9250929050565b60008060008060008060008060c0898b03121561309457613093612f71565b5b60006130a28b828c01612fc4565b98505060206130b38b828c01612fc4565b97505060406130c48b828c01612fc4565b96505060606130d58b828c01612ffa565b955050608089013567ffffffffffffffff8111156130f6576130f5612f76565b5b6131028b828c0161301e565b945094505060a089013567ffffffffffffffff81111561312557613124612f76565b5b6131318b828c0161301e565b92509250509295985092959890939650565b60007fffffffff0000000000000000000000000000000000000000000000000000000082169050919050565b61317881613143565b811461318357600080fd5b50565b6000813590506131958161316f565b92915050565b6000602082840312156131b1576131b0612f71565b5b60006131bf84828501613186565b91505092915050565b60008115159050919050565b6131dd816131c8565b82525050565b60006020820190506131f860008301846131d4565b92915050565b60006020828403121561321457613213612f71565b5b600061322284828501612fc4565b91505092915050565b60008060008060006080868803121561324757613246612f71565b5b600061325588828901612fc4565b955050602061326688828901612fc4565b945050604061327788828901612ffa565b935050606086013567ffffffffffffffff81111561329857613297612f76565b5b6132a48882890161301e565b92509250509295509295909350565b6132bc81613143565b82525050565b60006020820190506132d760008301846132b3565b92915050565b6000819050919050565b6132f0816132dd565b81146132fb57600080fd5b50565b60008135905061330d816132e7565b92915050565b60008060006040848603121561332c5761332b612f71565b5b600061333a868287016132fe565b935050602084013567ffffffffffffffff81111561335b5761335a612f76565b5b6133678682870161301e565b92509250509250925092565b61337c816131c8565b811461338757600080fd5b50565b60008135905061339981613373565b92915050565b6000806000806000608086880312156133bb576133ba612f71565b5b60006133c988828901612fc4565b95505060206133da888289016132fe565b945050604086013567ffffffffffffffff8111156133fb576133fa612f76565b5b6134078882890161301e565b9350935050606061341a8882890161338a565b9150509295509295909350565b600080fd5b6000610160828403121561344357613442613427565b5b81905092915050565b60008060006060848603121561346557613464612f71565b5b600084013567ffffffffffffffff81111561348357613482612f76565b5b61348f8682870161342c565b93505060206134a0868287016132fe565b92505060406134b186828701612ffa565b9150509250925092565b6134c481612fd9565b82525050565b60006020820190506134df60008301846134bb565b92915050565b60008083601f8401126134fb576134fa61300f565b5b8235905067ffffffffffffffff81111561351857613517613014565b5b60208301915083602082028301111561353457613533613019565b5b9250929050565b60008083601f8401126135515761355061300f565b5b8235905067ffffffffffffffff81111561356e5761356d613014565b5b60208301915083602082028301111561358a57613589613019565b5b9250929050565b60008083601f8401126135a7576135a661300f565b5b8235905067ffffffffffffffff8111156135c4576135c3613014565b5b6020830191508360208202830111156135e0576135df613019565b5b9250929050565b6000806000806000806060878903121561360457613603612f71565b5b600087013567ffffffffffffffff81111561362257613621612f76565b5b61362e89828a016134e5565b9650965050602087013567ffffffffffffffff81111561365157613650612f76565b5b61365d89828a0161353b565b9450945050604087013567ffffffffffffffff8111156136805761367f612f76565b5b61368c89828a01613591565b92509250509295509295509295565b60006136a682612f9b565b9050919050565b6136b68161369b565b81146136c157600080fd5b50565b6000813590506136d3816136ad565b92915050565b600080604083850312156136f0576136ef612f71565b5b60006136fe858286016136c4565b925050602061370f85828601612fc4565b9150509250929050565b600061372482612f7b565b9050919050565b61373481613719565b811461373f57600080fd5b50565b6000813590506137518161372b565b92915050565b6000806040838503121561376e5761376d612f71565b5b600061377c85828601613742565b925050602061378d85828601612ffa565b9150509250929050565b600080fd5b6000601f19601f8301169050919050565b7f4e487b7100000000000000000000000000000000000000000000000000000000600052604160045260246000fd5b6137e58261379c565b810181811067ffffffffffffffff82111715613804576138036137ad565b5b80604052505050565b6000613817612f67565b905061382382826137dc565b919050565b600067ffffffffffffffff821115613843576138426137ad565b5b61384c8261379c565b9050602081019050919050565b82818337600083830152505050565b600061387b61387684613828565b61380d565b90508281526020810184848401111561389757613896613797565b5b6138a2848285613859565b509392505050565b600082601f8301126138bf576138be61300f565b5b81356138cf848260208601613868565b91505092915050565b600080604083850312156138ef576138ee612f71565b5b60006138fd85828601612fc4565b925050602083013567ffffffffffffffff81111561391e5761391d612f76565b5b61392a858286016138aa565b9150509250929050565b61393d816132dd565b82525050565b60006020820190506139586000830184613934565b92915050565b6000806000806060858703121561397857613977612f71565b5b600061398687828801612fc4565b9450506020613997878288016132fe565b935050604085013567ffffffffffffffff8111156139b8576139b7612f76565b5b6139c48782880161301e565b925092505092959194509250565b6000819050919050565b60006139f76139f26139ed84612f7b565b6139d2565b612f7b565b9050919050565b6000613a09826139dc565b9050919050565b6000613a1b826139fe565b9050919050565b613a2b81613a10565b82525050565b6000602082019050613a466000830184613a22565b92915050565b60008060008060608587031215613a6657613a65612f71565b5b6000613a7487828801612fc4565b9450506020613a8587828801612ffa565b935050604085013567ffffffffffffffff811115613aa657613aa5612f76565b5b613ab28782880161301e565b925092505092959194509250565b60008060008060008060008060a0898b031215613ae057613adf612f71565b5b6000613aee8b828c01612fc4565b9850506020613aff8b828c01612fc4565b975050604089013567ffffffffffffffff811115613b2057613b1f612f76565b5b613b2c8b828c0161353b565b9650965050606089013567ffffffffffffffff811115613b4f57613b4e612f76565b5b613b5b8b828c0161353b565b9450945050608089013567ffffffffffffffff811115613b7e57613b7d612f76565b5b613b8a8b828c0161301e565b92509250509295985092959890939650565b60008060008060008060a08789031215613bb957613bb8612f71565b5b6000613bc789828a01612fc4565b9650506020613bd889828a01612fc4565b9550506040613be989828a01612ffa565b9450506060613bfa89828a01612ffa565b935050608087013567ffffffffffffffff811115613c1b57613c1a612f76565b5b613c2789828a0161301e565b92509250509295509295509295565b7f4e487b7100000000000000000000000000000000000000000000000000000000600052601160045260246000fd5b6000613c7082612fd9565b9150613c7b83612fd9565b9250828203905081811115613c9357613c92613c36565b5b92915050565b600080fd5b600080fd5b60008085851115613cb757613cb6613c99565b5b83861115613cc857613cc7613c9e565b5b6001850283019150848603905094509492505050565b600082905092915050565b600082821b905092915050565b6000613d028383613cde565b82613d0d81356132dd565b92506020821015613d4d57613d487fffffffffffffffffffffffffffffffffffffffffffffffffffffffffffffffff83602003600802613ce9565b831692505b505092915050565b600080600060608486031215613d6e57613d6d612f71565b5b6000613d7c86828701613742565b935050602084013567ffffffffffffffff811115613d9d57613d9c612f76565b5b613da9868287016138aa565b925050604084013567ffffffffffffffff811115613dca57613dc9612f76565b5b613dd6868287016138aa565b9150509250925092565b600081519050919050565b600081905092915050565b60005b83811015613e14578082015181840152602081019050613df9565b60008484015250505050565b6000613e2b82613de0565b613e358185613deb565b9350613e45818560208601613df6565b80840191505092915050565b6000613e5d8284613e20565b915081905092915050565b600082825260208201905092915050565b6000613e8482613de0565b613e8e8185613e68565b9350613e9e818560208601613df6565b613ea78161379c565b840191505092915050565b60006020820190508181036000830152613ecc8184613e79565b905092915050565b6000604082019050613ee96000830185613934565b8181036020830152613efb8184613e79565b90509392505050565b600081519050613f138161316f565b92915050565b600060208284031215613f2f57613f2e612f71565b5b6000613f3d84828501613f04565b91505092915050565b600082825260208201905092915050565b7f5369676e617475726556616c696461746f72237265636f7665725369676e657260008201527f3a20696e76616c6964207369676e6174757265206c656e677468000000000000602082015250565b6000613fb3603a83613f46565b9150613fbe82613f57565b604082019050919050565b60006020820190508181036000830152613fe281613fa6565b9050919050565b7f4e487b7100000000000000000000000000000000000000000000000000000000600052603260045260246000fd5b7f5369676e617475726556616c696461746f723a20696e76616c6964207369676e60008201527f617475726520762076616c756500000000000000000000000000000000000000602082015250565b6000614074602d83613f46565b915061407f82614018565b604082019050919050565b600060208201905081810360008301526140a381614067565b9050919050565b600060ff82169050919050565b6140c0816140aa565b82525050565b60006080820190506140db6000830187613934565b6140e860208301866140b7565b6140f56040830185613934565b6141026060830184613934565b95945050505050565b7f41434c3a3a206f6e6c79206f776e6572206f7220677561726469616e00000000600082015250565b6000614141601c83613f46565b915061414c8261410b565b602082019050919050565b6000602082019050818103600083015261417081614134565b9050919050565b7f41434c3a3a206f6e6c79206f776e657200000000000000000000000000000000600082015250565b60006141ad601083613f46565b91506141b882614177565b602082019050919050565b600060208201905081810360008301526141dc816141a0565b9050919050565b7f457468657273706f7457616c6c65743a3a20456e747279506f696e742061646460008201527f726573732063616e6e6f74206265207a65726f00000000000000000000000000602082015250565b600061423f603383613f46565b915061424a826141e3565b604082019050919050565b6000602082019050818103600083015261426e81614232565b9050919050565b61427e81612f9b565b82525050565b60006040820190506142996000830185614275565b6142a66020830184614275565b9392505050565b7f46756e6374696f6e206d7573742062652063616c6c6564207468726f7567682060008201527f64656c656761746563616c6c0000000000000000000000000000000000000000602082015250565b6000614309602c83613f46565b9150614314826142ad565b604082019050919050565b60006020820190508181036000830152614338816142fc565b9050919050565b7f46756e6374696f6e206d7573742062652063616c6c6564207468726f7567682060008201527f6163746976652070726f78790000000000000000000000000000000000000000602082015250565b600061439b602c83613f46565b91506143a68261433f565b604082019050919050565b600060208201905081810360008301526143ca8161438e565b9050919050565b7f41434c3a3a206e6f74206f776e6572206f7220656e747279506f696e74000000600082015250565b6000614407601d83613f46565b9150614412826143d1565b602082019050919050565b60006020820190508181036000830152614436816143fa565b9050919050565b7f457468657273706f7457616c6c65743a3a206578656375746542617463683a2060008201527f77726f6e67206172726179206c656e6774687300000000000000000000000000602082015250565b6000614499603383613f46565b91506144a48261443d565b604082019050919050565b600060208201905081810360008301526144c88161448c565b9050919050565b600080fd5b600080fd5b600080fd5b600080833560016020038436030381126144fb576144fa6144cf565b5b80840192508235915067ffffffffffffffff82111561451d5761451c6144d4565b5b602083019250600182023603831315614539576145386144d9565b5b509250929050565b7f496e697469616c697a61626c653a20636f6e747261637420697320616c72656160008201527f647920696e697469616c697a6564000000000000000000000000000000000000602082015250565b600061459d602e83613f46565b91506145a882614541565b604082019050919050565b600060208201905081810360008301526145cc81614590565b9050919050565b6000819050919050565b60006145f86145f36145ee846145d3565b6139d2565b6140aa565b9050919050565b614608816145dd565b82525050565b600060208201905061462360008301846145ff565b92915050565b600060208201905061463e6000830184614275565b92915050565b61464d81613719565b82525050565b60006040820190506146686000830185614644565b61467560208301846134bb565b9392505050565b7f555550535570677261646561626c653a206d757374206e6f742062652063616c60008201527f6c6564207468726f7567682064656c656761746563616c6c0000000000000000602082015250565b60006146d8603883613f46565b91506146e38261467c565b604082019050919050565b60006020820190508181036000830152614707816146cb565b9050919050565b600061471a8385613e68565b9350614727838584613859565b6147308361379c565b840190509392505050565b60006080820190506147506000830188614275565b61475d6020830187613934565b818103604083015261477081858761470e565b905061477f60608301846131d4565b9695505050505050565b60008151905061479881613373565b92915050565b6000602082840312156147b4576147b3612f71565b5b60006147c284828501614789565b91505092915050565b6000815190506147da81612fe3565b92915050565b6000602082840312156147f6576147f5612f71565b5b6000614804848285016147cb565b91505092915050565b6000819050919050565b600077ffffffffffffffffffffffffffffffffffffffffffffffff82169050919050565b600061485661485161484c8461480d565b6139d2565b614817565b9050919050565b6148668161483b565b82525050565b60006040820190506148816000830185614275565b61488e602083018461485d565b9392505050565b7f41434c3a3a2072656d6f76696e672073656c6600000000000000000000000000600082015250565b60006148cb601383613f46565b91506148d682614895565b602082019050919050565b600060208201905081810360008301526148fa816148be565b9050919050565b7f41434c3a3a206e6f6e2d6578697374616e74206f776e65720000000000000000600082015250565b6000614937601883613f46565b915061494282614901565b602082019050919050565b600060208201905081810360008301526149668161492a565b9050919050565b60008151905061497c816132e7565b92915050565b60006020828403121561499857614997612f71565b5b60006149a68482850161496d565b91505092915050565b7f45524331393637557067726164653a206e657720696d706c656d656e7461746960008201527f6f6e206973206e6f742055555053000000000000000000000000000000000000602082015250565b6000614a0b602e83613f46565b9150614a16826149af565b604082019050919050565b60006020820190508181036000830152614a3a816149fe565b9050919050565b7f45524331393637557067726164653a20756e737570706f727465642070726f7860008201527f6961626c65555549440000000000000000000000000000000000000000000000602082015250565b6000614a9d602983613f46565b9150614aa882614a41565b604082019050919050565b60006020820190508181036000830152614acc81614a90565b9050919050565b7f6163636f756e743a206e6f742066726f6d20456e747279506f696e7400000000600082015250565b6000614b09601c83613f46565b9150614b1482614ad3565b602082019050919050565b60006020820190508181036000830152614b3881614afc565b9050919050565b50565b6000614b4f600083613deb565b9150614b5a82614b3f565b600082019050919050565b6000614b7082614b42565b9150819050919050565b7f41434c3a3a207a65726f20616464726573730000000000000000000000000000600082015250565b6000614bb0601283613f46565b9150614bbb82614b7a565b602082019050919050565b60006020820190508181036000830152614bdf81614ba3565b9050919050565b7f41434c3a3a20616c7265616479206f776e657200000000000000000000000000600082015250565b6000614c1c601383613f46565b9150614c2782614be6565b602082019050919050565b60006020820190508181036000830152614c4b81614c0f565b9050919050565b7f41434c3a3a206e6f6e2d6578697374616e7420677561726469616e0000000000600082015250565b6000614c88601b83613f46565b9150614c9382614c52565b602082019050919050565b60006020820190508181036000830152614cb781614c7b565b9050919050565b7f41434c3a3a20616c726561647920677561726469616e00000000000000000000600082015250565b6000614cf4601683613f46565b9150614cff82614cbe565b602082019050919050565b60006020820190508181036000830152614d2381614ce7565b9050919050565b7f4e487b7100000000000000000000000000000000000000000000000000000000600052602160045260246000fd5b7f45434453413a20696e76616c6964207369676e61747572650000000000000000600082015250565b6000614d8f601883613f46565b9150614d9a82614d59565b602082019050919050565b60006020820190508181036000830152614dbe81614d82565b9050919050565b7f45434453413a20696e76616c6964207369676e6174757265206c656e67746800600082015250565b6000614dfb601f83613f46565b9150614e0682614dc5565b602082019050919050565b60006020820190508181036000830152614e2a81614dee565b9050919050565b7f45434453413a20696e76616c6964207369676e6174757265202773272076616c60008201527f7565000000000000000000000000000000000000000000000000000000000000602082015250565b6000614e8d602283613f46565b9150614e9882614e31565b604082019050919050565b60006020820190508181036000830152614ebc81614e80565b9050919050565b7f455243313936373a206e657720696d706c656d656e746174696f6e206973206e60008201527f6f74206120636f6e747261637400000000000000000000000000000000000000602082015250565b6000614f1f602d83613f46565b9150614f2a82614ec3565b604082019050919050565b60006020820190508181036000830152614f4e81614f12565b9050919050565b600081905092915050565b7f19457468657265756d205369676e6564204d6573736167653a0a333200000000600082015250565b6000614f96601c83614f55565b9150614fa182614f60565b601c82019050919050565b6000819050919050565b614fc7614fc2826132dd565b614fac565b82525050565b6000614fd882614f89565b9150614fe48284614fb6565b60208201915081905092915050565b7f416464726573733a2063616c6c20746f206e6f6e2d636f6e7472616374000000600082015250565b6000615029601d83613f46565b915061503482614ff3565b602082019050919050565b600060208201905081810360008301526150588161501c565b9050919050565b600081519050919050565b60006150758261505f565b61507f8185613f46565b935061508f818560208601613df6565b6150988161379c565b840191505092915050565b600060208201905081810360008301526150bd818461506a565b90509291505056fe416464726573733a206c6f772d6c6576656c2064656c65676174652063616c6c206661696c6564a26469706673582212205bf3c36f8dbb60e2dcc45d5d4a23b6cae104f28501a9dbbf5144253ea98392e364736f6c63430008110033",
  "devdoc": {
    "kind": "dev",
    "methods": {
      "accountCreationCode()": {
        "details": "Allows to retrieve the creation code used for the Proxy deployment. With this it is easily possible to calculate predicted address."
      },
      "createAccount(address,address,uint256)": {
        "params": {
          "entryPoint": "address of the EntryPoint contract",
          "index": "extra salt that allows to deploy more account if needed for same owner",
          "owner": "owner of the account to be deployed"
        },
        "returns": {
          "ret": "the address of the deployed account"
        }
      },
      "getAddress(address,address,uint256)": {
        "params": {
          "entryPoint": "address of the EntryPoint contract",
          "index": "extra salt that allows to deploy more account if needed for same owner",
          "owner": "owner of the account to be deployed"
        }
      }
    },
    "title": "Proxy Factory - Allows to create a new proxy contract and execute a message call to the new proxy within one transaction.",
    "version": 1
  },
  "userdoc": {
    "kind": "user",
    "methods": {
      "createAccount(address,address,uint256)": {
        "notice": "Creates a new account"
      },
      "getAddress(address,address,uint256)": {
        "notice": "Deploys account using create2"
      }
    },
    "version": 1
  },
  "storageLayout": {
    "storage": [],
    "types": null
  }
}