{
  "address": "0x4ebd86AAF89151b5303DB072e0205C668e31E5E7",
  "abi": [
    {
      "inputs": [
        {
          "internalType": "address",
          "name": "smartAccount",
          "type": "address"
        }
      ],
      "name": "AlreadyInitialized",
      "type": "error"
    },
    {
      "inputs": [
        {
          "internalType": "uint256",
          "name": "validAfter",
          "type": "uint256"
        },
        {
          "internalType": "uint256",
          "name": "validUntil",
          "type": "uint256"
        }
      ],
      "name": "ERC20SKV_InvalidDuration",
      "type": "error"
    },
    {
      "inputs": [],
      "name": "ERC20SKV_InvalidFunctionSelector",
      "type": "error"
    },
    {
      "inputs": [],
      "name": "ERC20SKV_InvalidInterfaceId",
      "type": "error"
    },
    {
      "inputs": [],
      "name": "ERC20SKV_InvalidSessionKey",
      "type": "error"
    },
    {
      "inputs": [],
      "name": "ERC20SKV_InvalidSpendingLimit",
      "type": "error"
    },
    {
      "inputs": [],
      "name": "ERC20SKV_InvalidToken",
      "type": "error"
    },
    {
      "inputs": [],
      "name": "ERC20SKV_ModuleAlreadyInstalled",
      "type": "error"
    },
    {
      "inputs": [],
      "name": "ERC20SKV_ModuleNotInstalled",
      "type": "error"
    },
    {
      "inputs": [
        {
          "internalType": "address",
          "name": "sessionKey",
          "type": "address"
        }
      ],
      "name": "ERC20SKV_SessionKeyAlreadyExists",
      "type": "error"
    },
    {
      "inputs": [
        {
          "internalType": "address",
          "name": "session",
          "type": "address"
        }
      ],
      "name": "ERC20SKV_SessionKeyDoesNotExist",
      "type": "error"
    },
    {
      "inputs": [],
      "name": "ERC20SKV_SessionKeySpendLimitExceeded",
      "type": "error"
    },
    {
      "inputs": [
        {
          "internalType": "address",
          "name": "sessionKey",
          "type": "address"
        }
      ],
      "name": "ERC20SKV_SessionPaused",
      "type": "error"
    },
    {
      "inputs": [],
      "name": "ERC20SKV_UnsuportedToken",
      "type": "error"
    },
    {
      "inputs": [],
      "name": "ERC20SKV_UnsupportedInterface",
      "type": "error"
    },
    {
      "inputs": [
        {
          "internalType": "bytes4",
          "name": "selectorUsed",
          "type": "bytes4"
        }
      ],
      "name": "ERC20SKV_UnsupportedSelector",
      "type": "error"
    },
    {
      "inputs": [
        {
          "internalType": "address",
          "name": "target",
          "type": "address"
        }
      ],
      "name": "InvalidTargetAddress",
      "type": "error"
    },
    {
      "inputs": [],
      "name": "NotImplemented",
      "type": "error"
    },
    {
      "inputs": [
        {
          "internalType": "address",
          "name": "smartAccount",
          "type": "address"
        }
      ],
      "name": "NotInitialized",
      "type": "error"
    },
    {
      "anonymous": false,
      "inputs": [
        {
          "indexed": false,
          "internalType": "address",
          "name": "wallet",
          "type": "address"
        }
      ],
      "name": "ERC20SKV_ModuleInstalled",
      "type": "event"
    },
    {
      "anonymous": false,
      "inputs": [
        {
          "indexed": false,
          "internalType": "address",
          "name": "wallet",
          "type": "address"
        }
      ],
      "name": "ERC20SKV_ModuleUninstalled",
      "type": "event"
    },
    {
      "anonymous": false,
      "inputs": [
        {
          "indexed": false,
          "internalType": "address",
          "name": "sessionKey",
          "type": "address"
        },
        {
          "indexed": false,
          "internalType": "address",
          "name": "wallet",
          "type": "address"
        }
      ],
      "name": "ERC20SKV_SessionKeyDisabled",
      "type": "event"
    },
    {
      "anonymous": false,
      "inputs": [
        {
          "indexed": false,
          "internalType": "address",
          "name": "sessionKey",
          "type": "address"
        },
        {
          "indexed": false,
          "internalType": "address",
          "name": "wallet",
          "type": "address"
        }
      ],
      "name": "ERC20SKV_SessionKeyEnabled",
      "type": "event"
    },
    {
      "anonymous": false,
      "inputs": [
        {
          "indexed": false,
          "internalType": "address",
          "name": "sessionKey",
          "type": "address"
        },
        {
          "indexed": false,
          "internalType": "address",
          "name": "wallet",
          "type": "address"
        }
      ],
      "name": "ERC20SKV_SessionKeyPaused",
      "type": "event"
    },
    {
      "anonymous": false,
      "inputs": [
        {
          "indexed": false,
          "internalType": "address",
          "name": "sessionKey",
          "type": "address"
        },
        {
          "indexed": false,
          "internalType": "address",
          "name": "wallet",
          "type": "address"
        }
      ],
      "name": "ERC20SKV_SessionKeyUnpaused",
      "type": "event"
    },
    {
      "inputs": [
        {
          "internalType": "address",
          "name": "_sessionKey",
          "type": "address"
        }
      ],
      "name": "checkSessionKeyPaused",
      "outputs": [
        {
          "internalType": "bool",
          "name": "",
          "type": "bool"
        }
      ],
      "stateMutability": "view",
      "type": "function"
    },
    {
      "inputs": [
        {
          "internalType": "address",
          "name": "_session",
          "type": "address"
        }
      ],
      "name": "disableSessionKey",
      "outputs": [],
      "stateMutability": "nonpayable",
      "type": "function"
    },
    {
      "inputs": [
        {
          "internalType": "bytes",
          "name": "_sessionData",
          "type": "bytes"
        }
      ],
      "name": "enableSessionKey",
      "outputs": [],
      "stateMutability": "nonpayable",
      "type": "function"
    },
    {
      "inputs": [],
      "name": "getAssociatedSessionKeys",
      "outputs": [
        {
          "internalType": "address[]",
          "name": "",
          "type": "address[]"
        }
      ],
      "stateMutability": "view",
      "type": "function"
    },
    {
      "inputs": [
        {
          "internalType": "address",
          "name": "_sessionKey",
          "type": "address"
        }
      ],
      "name": "getSessionKeyData",
      "outputs": [
        {
          "components": [
            {
              "internalType": "address",
              "name": "token",
              "type": "address"
            },
            {
              "internalType": "bytes4",
              "name": "interfaceId",
              "type": "bytes4"
            },
            {
              "internalType": "bytes4",
              "name": "funcSelector",
              "type": "bytes4"
            },
            {
              "internalType": "uint256",
              "name": "spendingLimit",
              "type": "uint256"
            },
            {
              "internalType": "uint48",
              "name": "validAfter",
              "type": "uint48"
            },
            {
              "internalType": "uint48",
              "name": "validUntil",
              "type": "uint48"
            },
            {
              "internalType": "bool",
              "name": "paused",
              "type": "bool"
            }
          ],
          "internalType": "struct IERC20SessionKeyValidator.SessionData",
          "name": "",
          "type": "tuple"
        }
      ],
      "stateMutability": "view",
      "type": "function"
    },
    {
      "inputs": [
        {
          "internalType": "address",
          "name": "",
          "type": "address"
        }
      ],
      "name": "initialized",
      "outputs": [
        {
          "internalType": "bool",
          "name": "",
          "type": "bool"
        }
      ],
      "stateMutability": "view",
      "type": "function"
    },
    {
      "inputs": [
        {
          "internalType": "address",
          "name": "smartAccount",
          "type": "address"
        }
      ],
      "name": "isInitialized",
      "outputs": [
        {
          "internalType": "bool",
          "name": "",
          "type": "bool"
        }
      ],
      "stateMutability": "view",
      "type": "function"
    },
    {
      "inputs": [
        {
          "internalType": "uint256",
          "name": "moduleTypeId",
          "type": "uint256"
        }
      ],
      "name": "isModuleType",
      "outputs": [
        {
          "internalType": "bool",
          "name": "",
          "type": "bool"
        }
      ],
      "stateMutability": "pure",
      "type": "function"
    },
    {
      "inputs": [
        {
          "internalType": "address",
          "name": "sender",
          "type": "address"
        },
        {
          "internalType": "bytes32",
          "name": "hash",
          "type": "bytes32"
        },
        {
          "internalType": "bytes",
          "name": "data",
          "type": "bytes"
        }
      ],
      "name": "isValidSignatureWithSender",
      "outputs": [
        {
          "internalType": "bytes4",
          "name": "",
          "type": "bytes4"
        }
      ],
      "stateMutability": "view",
      "type": "function"
    },
    {
      "inputs": [
        {
          "internalType": "bytes",
          "name": "data",
          "type": "bytes"
        }
      ],
      "name": "onInstall",
      "outputs": [],
      "stateMutability": "nonpayable",
      "type": "function"
    },
    {
      "inputs": [
        {
          "internalType": "bytes",
          "name": "data",
          "type": "bytes"
        }
      ],
      "name": "onUninstall",
      "outputs": [],
      "stateMutability": "nonpayable",
      "type": "function"
    },
    {
      "inputs": [
        {
          "internalType": "address",
          "name": "_oldSessionKey",
          "type": "address"
        },
        {
          "internalType": "bytes",
          "name": "_newSessionData",
          "type": "bytes"
        }
      ],
      "name": "rotateSessionKey",
      "outputs": [],
      "stateMutability": "nonpayable",
      "type": "function"
    },
    {
      "inputs": [
        {
          "internalType": "address",
          "name": "sessionKey",
          "type": "address"
        },
        {
          "internalType": "address",
          "name": "wallet",
          "type": "address"
        }
      ],
      "name": "sessionData",
      "outputs": [
        {
          "internalType": "address",
          "name": "token",
          "type": "address"
        },
        {
          "internalType": "bytes4",
          "name": "interfaceId",
          "type": "bytes4"
        },
        {
          "internalType": "bytes4",
          "name": "funcSelector",
          "type": "bytes4"
        },
        {
          "internalType": "uint256",
          "name": "spendingLimit",
          "type": "uint256"
        },
        {
          "internalType": "uint48",
          "name": "validAfter",
          "type": "uint48"
        },
        {
          "internalType": "uint48",
          "name": "validUntil",
          "type": "uint48"
        },
        {
          "internalType": "bool",
          "name": "paused",
          "type": "bool"
        }
      ],
      "stateMutability": "view",
      "type": "function"
    },
    {
      "inputs": [
        {
          "internalType": "address",
          "name": "_sessionKey",
          "type": "address"
        }
      ],
      "name": "toggleSessionKeyPause",
      "outputs": [],
      "stateMutability": "nonpayable",
      "type": "function"
    },
    {
      "inputs": [
        {
          "internalType": "address",
          "name": "_sessionKey",
          "type": "address"
        },
        {
          "components": [
            {
              "internalType": "address",
              "name": "sender",
              "type": "address"
            },
            {
              "internalType": "uint256",
              "name": "nonce",
              "type": "uint256"
            },
            {
              "internalType": "bytes",
              "name": "initCode",
              "type": "bytes"
            },
            {
              "internalType": "bytes",
              "name": "callData",
              "type": "bytes"
            },
            {
              "internalType": "bytes32",
              "name": "accountGasLimits",
              "type": "bytes32"
            },
            {
              "internalType": "uint256",
              "name": "preVerificationGas",
              "type": "uint256"
            },
            {
              "internalType": "bytes32",
              "name": "gasFees",
              "type": "bytes32"
            },
            {
              "internalType": "bytes",
              "name": "paymasterAndData",
              "type": "bytes"
            },
            {
              "internalType": "bytes",
              "name": "signature",
              "type": "bytes"
            }
          ],
          "internalType": "struct PackedUserOperation",
          "name": "userOp",
          "type": "tuple"
        }
      ],
      "name": "validateSessionKeyParams",
      "outputs": [
        {
          "internalType": "bool",
          "name": "",
          "type": "bool"
        }
      ],
      "stateMutability": "nonpayable",
      "type": "function"
    },
    {
      "inputs": [
        {
          "components": [
            {
              "internalType": "address",
              "name": "sender",
              "type": "address"
            },
            {
              "internalType": "uint256",
              "name": "nonce",
              "type": "uint256"
            },
            {
              "internalType": "bytes",
              "name": "initCode",
              "type": "bytes"
            },
            {
              "internalType": "bytes",
              "name": "callData",
              "type": "bytes"
            },
            {
              "internalType": "bytes32",
              "name": "accountGasLimits",
              "type": "bytes32"
            },
            {
              "internalType": "uint256",
              "name": "preVerificationGas",
              "type": "uint256"
            },
            {
              "internalType": "bytes32",
              "name": "gasFees",
              "type": "bytes32"
            },
            {
              "internalType": "bytes",
              "name": "paymasterAndData",
              "type": "bytes"
            },
            {
              "internalType": "bytes",
              "name": "signature",
              "type": "bytes"
            }
          ],
          "internalType": "struct PackedUserOperation",
          "name": "userOp",
          "type": "tuple"
        },
        {
          "internalType": "bytes32",
          "name": "userOpHash",
          "type": "bytes32"
        }
      ],
      "name": "validateUserOp",
      "outputs": [
        {
          "internalType": "uint256",
          "name": "",
          "type": "uint256"
        }
      ],
      "stateMutability": "nonpayable",
      "type": "function"
    },
    {
      "inputs": [
        {
          "internalType": "address",
          "name": "wallet",
          "type": "address"
        },
        {
          "internalType": "uint256",
          "name": "",
          "type": "uint256"
        }
      ],
      "name": "walletSessionKeys",
      "outputs": [
        {
          "internalType": "address",
          "name": "assocSessionKeys",
          "type": "address"
        }
      ],
      "stateMutability": "view",
      "type": "function"
    }
  ],
  "transactionHash": "0xe538eecff81075228e25497029904e3d454ef2ae011d353232ae72e45ad7622d",
  "args": [],
  "numDeployments": 1,
  "solcInputHash": "6e4ce9519befb2c9f6b2b39bea9bf5fc",
  "bytecode": "0x608060405234801561001057600080fd5b50611c36806100206000396000f3fe608060405234801561001057600080fd5b506004361061010b5760003560e01c8063c037ee19116100a2578063d60b347f11610071578063d60b347f14610453578063d8d38e421461047f578063e08dd00814610492578063ecd05961146104a7578063f551e2ee146104bb57600080fd5b8063c037ee19146103e7578063c602e59c1461040a578063cbca47db1461041d578063cc8cbd281461044057600080fd5b80636d61fe70116100de5780636d61fe70146103755780638a91b0e3146103885780638aaa6a401461039b57806397003203146103c657600080fd5b8063110891c11461011057806320cbdcc61461027a578063495079a01461028f57806352721fdd146102a2575b600080fd5b6101fa61011e36600461178e565b6040805160e081018252600080825260208201819052918101829052606081018290526080810182905260a0810182905260c0810191909152506001600160a01b039081166000908152600260208181526040808420338552825292839020835160e08082018652825496871682526001600160e01b0319600160a01b8804821b811694830194909452600160c01b90960490951b9091169284019290925260018201546060840152015465ffffffffffff8082166080840152600160301b82041660a083015260ff600160601b90910416151560c082015290565b6040805182516001600160a01b031681526020808401516001600160e01b0319908116918301919091528383015116918101919091526060808301519082015260808083015165ffffffffffff9081169183019190915260a0808401519091169082015260c09182015115159181019190915260e0015b60405180910390f35b61028d61028836600461178e565b6104e7565b005b61028d61029d3660046117f2565b610667565b61031b6102b0366004611834565b600260208181526000938452604080852090915291835291208054600182015491909201546001600160a01b03831692600160a01b810460e090811b93600160c01b909204901b9165ffffffffffff80821691600160301b810490911690600160601b900460ff1687565b604080516001600160a01b039890981688526001600160e01b031996871660208901529490951693860193909352606085019190915265ffffffffffff90811660808501521660a0830152151560c082015260e001610271565b61028d6103833660046117f2565b610b20565b61028d6103963660046117f2565b610b9e565b6103ae6103a9366004611867565b610cce565b6040516001600160a01b039091168152602001610271565b6103d96103d43660046118aa565b610d06565b604051908152602001610271565b6103fa6103f53660046118ef565b610e5c565b6040519015158152602001610271565b61028d61041836600461193d565b6111c1565b6103fa61042b36600461178e565b60006020819052908152604090205460ff1681565b6103fa61044e36600461178e565b6111d9565b6103fa61046136600461178e565b6001600160a01b031660009081526020819052604090205460ff1690565b61028d61048d36600461178e565b61120b565b61049a611331565b6040516102719190611990565b6103fa6104b53660046119dd565b60011490565b6104ce6104c93660046119f6565b61139c565b6040516001600160e01b03199091168152602001610271565b6001600160a01b038082166000908152600260208181526040808420338552825292839020835160e08082018652825496871682526001600160e01b0319600160a01b8804821b811694830194909452600160c01b90960490951b9091169284019290925260018201546060840152015465ffffffffffff8082166080840152600160301b82041660a083015260ff600160601b9091041615801560c08301526105fa576001600160a01b03821660008181526002602081815260408084203380865290835293819020909201805460ff60601b1916905581519384528301919091527fdafe9b16860cb2a92db27f042fbea578512b3290e6025be770cafb9f82d253ae91015b60405180910390a15050565b6001600160a01b03821660008181526002602081815260408084203380865290835293819020909201805460ff60601b1916600160601b17905581519384528301919091527ff5eec43346204709e3490be81892a0abceba36de8afb2c87c9c8b62565cf0a7b91016105ee565b60006106766014828486611a50565b61067f91611a7a565b60601c9050806106a257604051636ed16c7960e01b815260040160405180910390fd5b6001600160a01b03811660009081526002602081815260408084203385529091529091200154600160301b900465ffffffffffff16158015906106f157506106f16106eb611331565b826113b7565b1561071f576040516353a146e760e11b81526001600160a01b03821660048201526024015b60405180910390fd5b600061072f602860148587611a50565b61073891611a7a565b60601c90508061075b57604051630c99762360e11b815260040160405180910390fd5b600061076b602c60288688611a50565b61077491611aaf565b90506001600160e01b0319811661079e57604051639c7bab4360e01b815260040160405180910390fd5b60006107ae6030602c8789611a50565b6107b791611aaf565b90506001600160e01b031981166107e15760405163b17e3ec360e01b815260040160405180910390fd5b60006107f160506030888a611a50565b6107fa91611add565b9050600081900361081e5760405163171c5d6160e01b815260040160405180910390fd5b600061082e60566050898b611a50565b61083791611afb565b60d01c9050600061084c605c60568a8c611a50565b61085591611afb565b60d01c905065ffffffffffff821681111580610877575065ffffffffffff8116155b80610888575065ffffffffffff8216155b156108b857604051630a6c748560e11b815265ffffffffffff808416600483015282166024820152604401610716565b6040518060e00160405280876001600160a01b03168152602001866001600160e01b0319168152602001856001600160e01b03191681526020018481526020018365ffffffffffff1681526020018265ffffffffffff1681526020016000151581525060026000896001600160a01b03166001600160a01b031681526020019081526020016000206000336001600160a01b03166001600160a01b0316815260200190815260200160002060008201518160000160006101000a8154816001600160a01b0302191690836001600160a01b0316021790555060208201518160000160146101000a81548163ffffffff021916908360e01c021790555060408201518160000160186101000a81548163ffffffff021916908360e01c02179055506060820151816001015560808201518160020160006101000a81548165ffffffffffff021916908365ffffffffffff16021790555060a08201518160020160066101000a81548165ffffffffffff021916908365ffffffffffff16021790555060c082015181600201600c6101000a81548160ff02191690831515021790555090505060016000336001600160a01b03166001600160a01b03168152602001908152602001600020879080600181540180825580915050600190039060005260206000200160009091909190916101000a8154816001600160a01b0302191690836001600160a01b031602179055507f3c8d6097a1246293dc66a3eeb0db267cb28a5b6c3367e2de5f331659222eb1ff8733604051610b0d9291906001600160a01b0392831681529116602082015260400190565b60405180910390a1505050505050505050565b3360009081526020819052604090205460ff161515600103610b5557604051639fb25a0560e01b815260040160405180910390fd5b3360008181526020818152604091829020805460ff1916600117905590519182527fa6d916f9c8039923d6c8929c933b9417bdeeceb2dfbb39525b8a2269094d5e3c91016105ee565b3360009081526020819052604081205460ff1615159003610bd2576040516317bd7c1760e31b815260040160405180910390fd5b6000610bdc611331565b805190915060005b81811015610c665760026000848381518110610c0257610c02611b29565b6020908102919091018101516001600160a01b031682528181019290925260409081016000908120338252909252812080546001600160e01b031916815560018082019290925560020180546cffffffffffffffffffffffffff1916905501610be4565b50336000908152600160205260408120610c7f916116d7565b3360008181526020818152604091829020805460ff1916905590519182527fd168e595dbfa90dd76eed9c2c9b6c3a9892ae9e79dd68661b0e26f30c582cd4d910160405180910390a150505050565b60016020528160005260406000208181548110610cea57600080fd5b6000918252602090912001546001600160a01b03169150829050565b600080610d38836020527b19457468657265756d205369676e6564204d6573736167653a0a3332600052603c60042090565b90506000610d8882610d4e610100880188611b3f565b8080601f0160208091040260200160405190810160405280939291908181526020018383808284376000920191909152506113cd92505050565b9050610d948186610e5c565b610da357600192505050610e56565b6001600160a01b0381811660009081526002602081815260408084203385528252808420815160e0808201845282549788168252600160a01b8804811b6001600160e01b031990811695830195909552600160c01b90970490961b9092169085015260018101546060850152015465ffffffffffff80821660808501819052600160301b830490911660a08501819052600160601b90920460ff16151560c0850152610e5092919061145e565b93505050505b92915050565b60003681610e6d6060850185611b3f565b915091506000806000806000610e838787611496565b945094509450945094506000600260008c6001600160a01b03166001600160a01b031681526020019081526020016000206000336001600160a01b03166001600160a01b031681526020019081526020016000206040518060e00160405290816000820160009054906101000a90046001600160a01b03166001600160a01b03166001600160a01b031681526020016000820160149054906101000a900460e01b6001600160e01b0319166001600160e01b03191681526020016000820160189054906101000a900460e01b6001600160e01b0319166001600160e01b0319168152602001600182015481526020016002820160009054906101000a900465ffffffffffff1665ffffffffffff1665ffffffffffff1681526020016002820160069054906101000a900465ffffffffffff1665ffffffffffff1665ffffffffffff16815260200160028201600c9054906101000a900460ff16151515158152505090508060a0015165ffffffffffff166000148061100c5750428160a0015165ffffffffffff16105b806110215750608081015165ffffffffffff16155b80611037575042816080015165ffffffffffff16115b1561105557604051636ed16c7960e01b815260040160405180910390fd5b80516001600160a01b038681169116146110825760405163218d2fb360e11b815260040160405180910390fd5b60208101516040516301ffc9a760e01b81526001600160e01b031990911660048201526001600160a01b038616906301ffc9a790602401602060405180830381865afa1580156110d6573d6000803e3d6000fd5b505050506040513d601f19601f820116820180604052508101906110fa9190611b86565b151560000361111c57604051630863587160e11b815260040160405180910390fd5b60408101516001600160e01b03198781169116146111595760405163a47eb18d60e01b81526001600160e01b031987166004820152602401610716565b806060015182111561117e57604051638d6d48cb60e01b815260040160405180910390fd5b6111878b6111d9565b156111b0576040516374d12a8360e01b81526001600160a01b038c166004820152602401610716565b5060019a9950505050505050505050565b6111ca8361120b565b6111d48282610667565b505050565b6001600160a01b031660009081526002602081815260408084203385529091529091200154600160601b900460ff1690565b6001600160a01b038116600090815260026020818152604080842033855290915282200154600160301b900465ffffffffffff169003611269576040516315aab36760e31b81526001600160a01b0382166004820152602401610716565b6001600160a01b0381166000908152600260208181526040808420338552909152822080546001600160e01b031916815560018101929092550180546cffffffffffffffffffffffffff191690556112c86112c2611331565b82611575565b33600090815260016020908152604090912082516112ec93919291909101906116f8565b50604080516001600160a01b03831681523360208201527f3552ecdbdb725cc8b621be8a316008bbcb5bc1e72e9a6b08da9b20bd7f78266d910160405180910390a150565b3360009081526001602090815260409182902080548351818402810184019094528084526060939283018282801561139257602002820191906000526020600020905b81546001600160a01b03168152600190910190602001808311611374575b5050505050905090565b600060405163d623472560e01b815260040160405180910390fd5b6000806113c4848461166e565b95945050505050565b604051600190836000526020830151604052604083510361140957604083015160ff81901c601b016020526001600160ff1b031660605261142f565b604183510361142a57606083015160001a602052604083015160605261142f565b600091505b6020600160806000855afa5191503d61145057638baa579f6000526004601cfd5b600060605260405292915050565b600060d08265ffffffffffff16901b60a08465ffffffffffff16901b85611486576000611489565b60015b60ff161717949350505050565b6000600483013581808086356001600160e01b0319811663095ea7b360e01b14806114d157506001600160e01b0319811663a9059cbb60e01b145b806114ec57506001600160e01b0319811663010a5c0b60e41b145b1561150e5794505050506004840135905060248401356000604486013561156b565b63dc478d2360e01b6001600160e01b03198216016115465794505050506004840135905060448401356024850135606486013561156b565b60405163a47eb18d60e01b81526001600160e01b031982166004820152602401610716565b9295509295909350565b60606000600184516115879190611bbe565b67ffffffffffffffff81111561159f5761159f611bd1565b6040519080825280602002602001820160405280156115c8578160200160208202803683370190505b5090506000805b855181101561166457846001600160a01b03168682815181106115f4576115f4611b29565b60200260200101516001600160a01b03161461165c5785818151811061161c5761161c611b29565b602002602001015183838151811061163657611636611b29565b6001600160a01b03909216602092830291909101909101528161165881611be7565b9250505b6001016115cf565b5090949350505050565b81516000908190815b818110156116c657846001600160a01b031686828151811061169b5761169b611b29565b60200260200101516001600160a01b0316036116be579250600191506116d09050565b600101611677565b5060008092509250505b9250929050565b50805460008255906000526020600020908101906116f5919061175d565b50565b82805482825590600052602060002090810192821561174d579160200282015b8281111561174d57825182546001600160a01b0319166001600160a01b03909116178255602090920191600190910190611718565b5061175992915061175d565b5090565b5b80821115611759576000815560010161175e565b80356001600160a01b038116811461178957600080fd5b919050565b6000602082840312156117a057600080fd5b6117a982611772565b9392505050565b60008083601f8401126117c257600080fd5b50813567ffffffffffffffff8111156117da57600080fd5b6020830191508360208285010111156116d057600080fd5b6000806020838503121561180557600080fd5b823567ffffffffffffffff81111561181c57600080fd5b611828858286016117b0565b90969095509350505050565b6000806040838503121561184757600080fd5b61185083611772565b915061185e60208401611772565b90509250929050565b6000806040838503121561187a57600080fd5b61188383611772565b946020939093013593505050565b600061012082840312156118a457600080fd5b50919050565b600080604083850312156118bd57600080fd5b823567ffffffffffffffff8111156118d457600080fd5b6118e085828601611891565b95602094909401359450505050565b6000806040838503121561190257600080fd5b61190b83611772565b9150602083013567ffffffffffffffff81111561192757600080fd5b61193385828601611891565b9150509250929050565b60008060006040848603121561195257600080fd5b61195b84611772565b9250602084013567ffffffffffffffff81111561197757600080fd5b611983868287016117b0565b9497909650939450505050565b6020808252825182820181905260009190848201906040850190845b818110156119d15783516001600160a01b0316835292840192918401916001016119ac565b50909695505050505050565b6000602082840312156119ef57600080fd5b5035919050565b60008060008060608587031215611a0c57600080fd5b611a1585611772565b935060208501359250604085013567ffffffffffffffff811115611a3857600080fd5b611a44878288016117b0565b95989497509550505050565b60008085851115611a6057600080fd5b83861115611a6d57600080fd5b5050820193919092039150565b6bffffffffffffffffffffffff198135818116916014851015611aa75780818660140360031b1b83161692505b505092915050565b6001600160e01b03198135818116916004851015611aa75760049490940360031b84901b1690921692915050565b80356020831015610e5657600019602084900360031b1b1692915050565b6001600160d01b03198135818116916006851015611aa75760069490940360031b84901b1690921692915050565b634e487b7160e01b600052603260045260246000fd5b6000808335601e19843603018112611b5657600080fd5b83018035915067ffffffffffffffff821115611b7157600080fd5b6020019150368190038213156116d057600080fd5b600060208284031215611b9857600080fd5b815180151581146117a957600080fd5b634e487b7160e01b600052601160045260246000fd5b81810381811115610e5657610e56611ba8565b634e487b7160e01b600052604160045260246000fd5b600060018201611bf957611bf9611ba8565b506001019056fea2646970667358221220fc42ce8038c2e6ed23a4fec6ba556bf4c2be896eaf600e696efc6eede2f0e57c64736f6c63430008170033",
  "devdoc": {
    "events": {
      "ERC20SKV_ModuleInstalled(address)": {
        "params": {
          "wallet": "The address of the wallet for which the module is installed."
        }
      },
      "ERC20SKV_ModuleUninstalled(address)": {
        "params": {
          "wallet": "The address of the wallet from which the module is uninstalled."
        }
      },
      "ERC20SKV_SessionKeyDisabled(address,address)": {
        "params": {
          "sessionKey": "The address of the session key.",
          "wallet": "The address of the wallet for which the session key is disabled."
        }
      },
      "ERC20SKV_SessionKeyEnabled(address,address)": {
        "params": {
          "sessionKey": "The address of the session key.",
          "wallet": "The address of the wallet for which the session key is enabled."
        }
      },
      "ERC20SKV_SessionKeyPaused(address,address)": {
        "params": {
          "sessionKey": "The address of the session key.",
          "wallet": "The address of the wallet for which the session key is paused."
        }
      },
      "ERC20SKV_SessionKeyUnpaused(address,address)": {
        "params": {
          "sessionKey": "The address of the session key.",
          "wallet": "The address of the wallet for which the session key is unpaused."
        }
      }
    },
    "kind": "dev",
    "methods": {
      "checkSessionKeyPaused(address)": {
        "params": {
          "_sessionKey": "The address of the session key to check."
        },
        "returns": {
          "_0": "True if the session key is paused, false otherwise."
        }
      },
      "disableSessionKey(address)": {
        "params": {
          "_session": "The address of the session key to disable."
        }
      },
      "enableSessionKey(bytes)": {
        "params": {
          "_sessionData": "The encoded session data containing the session key address, token address, interface ID, function selector, spending limit, valid after timestamp, and valid until timestamp."
        }
      },
      "getAssociatedSessionKeys()": {
        "returns": {
          "_0": "The array of associated session key addresses."
        }
      },
      "getSessionKeyData(address)": {
        "params": {
          "_sessionKey": "The address of the session key."
        },
        "returns": {
          "_0": "The session data struct."
        }
      },
      "isInitialized(address)": {
        "params": {
          "smartAccount": "The address of the smart account."
        },
        "returns": {
          "_0": "True if the smart account is initialized, false otherwise."
        }
      },
      "isModuleType(uint256)": {
        "params": {
          "moduleTypeId": "The module type ID to check."
        },
        "returns": {
          "_0": "True if the module type matches the validator module type, false otherwise."
        }
      },
      "isValidSignatureWithSender(address,bytes32,bytes)": {
        "params": {
          "data": "The data associated with the message.",
          "hash": "The hash of the message.",
          "sender": "The address of the sender."
        },
        "returns": {
          "_0": "A bytes4 value indicating the function is not implemented."
        }
      },
      "onInstall(bytes)": {
        "params": {
          "data": "The data to pass during installation."
        }
      },
      "onUninstall(bytes)": {
        "params": {
          "data": "The data to pass during uninstallation."
        }
      },
      "rotateSessionKey(address,bytes)": {
        "params": {
          "_newSessionData": "The encoded session data for the new session key.",
          "_oldSessionKey": "The address of the old session key to disable."
        }
      },
      "toggleSessionKeyPause(address)": {
        "params": {
          "_sessionKey": "The address of the session key to toggle the pause state for."
        }
      },
      "validateSessionKeyParams(address,(address,uint256,bytes,bytes,bytes32,uint256,bytes32,bytes,bytes))": {
        "params": {
          "_sessionKey": "The address of the session key.",
          "userOp": "The packed user operation containing the call data."
        },
        "returns": {
          "_0": "True if the session key parameters are valid for the user operation, false otherwise."
        }
      },
      "validateUserOp((address,uint256,bytes,bytes,bytes32,uint256,bytes32,bytes,bytes),bytes32)": {
        "params": {
          "userOp": "The packed user operation.",
          "userOpHash": "The hash of the user operation."
        },
        "returns": {
          "_0": "The validation data containing the expiration time and valid after timestamp of the session key."
        }
      }
    },
    "version": 1
  },
  "userdoc": {
    "events": {
      "ERC20SKV_ModuleInstalled(address)": {
        "notice": "Emitted when the ERC20 Session Key Validator module is installed for a wallet."
      },
      "ERC20SKV_ModuleUninstalled(address)": {
        "notice": "Emitted when the ERC20 Session Key Validator module is uninstalled from a wallet."
      },
      "ERC20SKV_SessionKeyDisabled(address,address)": {
        "notice": "Emitted when a session key is disabled for a wallet."
      },
      "ERC20SKV_SessionKeyEnabled(address,address)": {
        "notice": "Emitted when a new session key is enabled for a wallet."
      },
      "ERC20SKV_SessionKeyPaused(address,address)": {
        "notice": "Emitted when a session key is paused for a wallet."
      },
      "ERC20SKV_SessionKeyUnpaused(address,address)": {
        "notice": "Emitted when a session key is unpaused for a wallet."
      }
    },
    "kind": "user",
    "methods": {
      "checkSessionKeyPaused(address)": {
        "notice": "Checks if a session key is paused for the caller's wallet."
      },
      "disableSessionKey(address)": {
        "notice": "Disables a session key for the caller's wallet."
      },
      "enableSessionKey(bytes)": {
        "notice": "Enables a new session key for the caller's wallet."
      },
      "getAssociatedSessionKeys()": {
        "notice": "Returns the list of associated session keys for the caller's wallet."
      },
      "getSessionKeyData(address)": {
        "notice": "Returns the session data for a given session key and the caller's wallet."
      },
      "isInitialized(address)": {
        "notice": "Reverts with a \"NotImplemented\" error."
      },
      "isModuleType(uint256)": {
        "notice": "Checks if the module type matches the validator module type."
      },
      "isValidSignatureWithSender(address,bytes32,bytes)": {
        "notice": "Reverts with a \"NotImplemented\" error."
      },
      "onInstall(bytes)": {
        "notice": "Placeholder function for module installation."
      },
      "onUninstall(bytes)": {
        "notice": "Placeholder function for module uninstallation."
      },
      "rotateSessionKey(address,bytes)": {
        "notice": "Rotates a session key by disabling the old one and enabling a new one."
      },
      "toggleSessionKeyPause(address)": {
        "notice": "Toggles the pause state of a session key for the caller's wallet."
      },
      "validateSessionKeyParams(address,(address,uint256,bytes,bytes,bytes32,uint256,bytes32,bytes,bytes))": {
        "notice": "Validates the parameters of a session key for a given user operation."
      },
      "validateUserOp((address,uint256,bytes,bytes,bytes32,uint256,bytes32,bytes,bytes),bytes32)": {
        "notice": "Validates a user operation using a session key."
      }
    },
    "version": 1
  },
  "storageLayout": {
    "storage": [
      {
        "astId": 6090,
        "contract": "src/modular-etherspot-wallet/modules/validators/ERC20SessionKeyValidator.sol:ERC20SessionKeyValidator",
        "label": "initialized",
        "offset": 0,
        "slot": "0",
        "type": "t_mapping(t_address,t_bool)"
      },
      {
        "astId": 6095,
        "contract": "src/modular-etherspot-wallet/modules/validators/ERC20SessionKeyValidator.sol:ERC20SessionKeyValidator",
        "label": "walletSessionKeys",
        "offset": 0,
        "slot": "1",
        "type": "t_mapping(t_address,t_array(t_address)dyn_storage)"
      },
      {
        "astId": 6102,
        "contract": "src/modular-etherspot-wallet/modules/validators/ERC20SessionKeyValidator.sol:ERC20SessionKeyValidator",
        "label": "sessionData",
        "offset": 0,
        "slot": "2",
        "type": "t_mapping(t_address,t_mapping(t_address,t_struct(SessionData)5146_storage))"
      }
    ],
    "types": {
      "t_address": {
        "encoding": "inplace",
        "label": "address",
        "numberOfBytes": "20"
      },
      "t_array(t_address)dyn_storage": {
        "base": "t_address",
        "encoding": "dynamic_array",
        "label": "address[]",
        "numberOfBytes": "32"
      },
      "t_bool": {
        "encoding": "inplace",
        "label": "bool",
        "numberOfBytes": "1"
      },
      "t_bytes4": {
        "encoding": "inplace",
        "label": "bytes4",
        "numberOfBytes": "4"
      },
      "t_mapping(t_address,t_array(t_address)dyn_storage)": {
        "encoding": "mapping",
        "key": "t_address",
        "label": "mapping(address => address[])",
        "numberOfBytes": "32",
        "value": "t_array(t_address)dyn_storage"
      },
      "t_mapping(t_address,t_bool)": {
        "encoding": "mapping",
        "key": "t_address",
        "label": "mapping(address => bool)",
        "numberOfBytes": "32",
        "value": "t_bool"
      },
      "t_mapping(t_address,t_mapping(t_address,t_struct(SessionData)5146_storage))": {
        "encoding": "mapping",
        "key": "t_address",
        "label": "mapping(address => mapping(address => struct IERC20SessionKeyValidator.SessionData))",
        "numberOfBytes": "32",
        "value": "t_mapping(t_address,t_struct(SessionData)5146_storage)"
      },
      "t_mapping(t_address,t_struct(SessionData)5146_storage)": {
        "encoding": "mapping",
        "key": "t_address",
        "label": "mapping(address => struct IERC20SessionKeyValidator.SessionData)",
        "numberOfBytes": "32",
        "value": "t_struct(SessionData)5146_storage"
      },
      "t_struct(SessionData)5146_storage": {
        "encoding": "inplace",
        "label": "struct IERC20SessionKeyValidator.SessionData",
        "members": [
          {
            "astId": 5133,
            "contract": "src/modular-etherspot-wallet/modules/validators/ERC20SessionKeyValidator.sol:ERC20SessionKeyValidator",
            "label": "token",
            "offset": 0,
            "slot": "0",
            "type": "t_address"
          },
          {
            "astId": 5135,
            "contract": "src/modular-etherspot-wallet/modules/validators/ERC20SessionKeyValidator.sol:ERC20SessionKeyValidator",
            "label": "interfaceId",
            "offset": 20,
            "slot": "0",
            "type": "t_bytes4"
          },
          {
            "astId": 5137,
            "contract": "src/modular-etherspot-wallet/modules/validators/ERC20SessionKeyValidator.sol:ERC20SessionKeyValidator",
            "label": "funcSelector",
            "offset": 24,
            "slot": "0",
            "type": "t_bytes4"
          },
          {
            "astId": 5139,
            "contract": "src/modular-etherspot-wallet/modules/validators/ERC20SessionKeyValidator.sol:ERC20SessionKeyValidator",
            "label": "spendingLimit",
            "offset": 0,
            "slot": "1",
            "type": "t_uint256"
          },
          {
            "astId": 5141,
            "contract": "src/modular-etherspot-wallet/modules/validators/ERC20SessionKeyValidator.sol:ERC20SessionKeyValidator",
            "label": "validAfter",
            "offset": 0,
            "slot": "2",
            "type": "t_uint48"
          },
          {
            "astId": 5143,
            "contract": "src/modular-etherspot-wallet/modules/validators/ERC20SessionKeyValidator.sol:ERC20SessionKeyValidator",
            "label": "validUntil",
            "offset": 6,
            "slot": "2",
            "type": "t_uint48"
          },
          {
            "astId": 5145,
            "contract": "src/modular-etherspot-wallet/modules/validators/ERC20SessionKeyValidator.sol:ERC20SessionKeyValidator",
            "label": "paused",
            "offset": 12,
            "slot": "2",
            "type": "t_bool"
          }
        ],
        "numberOfBytes": "96"
      },
      "t_uint256": {
        "encoding": "inplace",
        "label": "uint256",
        "numberOfBytes": "32"
      },
      "t_uint48": {
        "encoding": "inplace",
        "label": "uint48",
        "numberOfBytes": "6"
      }
    }
  }
}