{
  "address": "0xbF3bB56D80bAA76d67d1FbDeA92377db5B586CF1",
  "abi": [
    {
      "inputs": [
        {
          "internalType": "contract IERC20Metadata",
          "name": "_token",
          "type": "address"
        },
        {
          "internalType": "address",
          "name": "_entryPoint",
          "type": "address"
        },
        {
          "internalType": "contract IOracle",
          "name": "_tokenOracle",
          "type": "address"
        },
        {
          "internalType": "contract IOracle",
          "name": "_nativeAssetOracle",
          "type": "address"
        },
        {
          "internalType": "uint32",
          "name": "_stalenessThreshold",
          "type": "uint32"
        },
        {
          "internalType": "address",
          "name": "_owner",
          "type": "address"
        },
        {
          "internalType": "uint32",
          "name": "_priceMarkupLimit",
          "type": "uint32"
        },
        {
          "internalType": "uint32",
          "name": "_priceMarkup",
          "type": "uint32"
        },
        {
          "internalType": "uint256",
          "name": "_refundPostOpCost",
          "type": "uint256"
        },
        {
          "internalType": "uint256",
          "name": "_refundPostOpCostWithGuarantor",
          "type": "uint256"
        }
      ],
      "stateMutability": "nonpayable",
      "type": "constructor"
    },
    {
      "inputs": [],
      "name": "OracleDecimalsInvalid",
      "type": "error"
    },
    {
      "inputs": [],
      "name": "OraclePriceNotPositive",
      "type": "error"
    },
    {
      "inputs": [],
      "name": "OraclePriceStale",
      "type": "error"
    },
    {
      "inputs": [
        {
          "internalType": "address",
          "name": "owner",
          "type": "address"
        }
      ],
      "name": "OwnableInvalidOwner",
      "type": "error"
    },
    {
      "inputs": [
        {
          "internalType": "address",
          "name": "account",
          "type": "address"
        }
      ],
      "name": "OwnableUnauthorizedAccount",
      "type": "error"
    },
    {
      "inputs": [],
      "name": "PaymasterDataLengthInvalid",
      "type": "error"
    },
    {
      "inputs": [],
      "name": "PaymasterDataModeInvalid",
      "type": "error"
    },
    {
      "inputs": [],
      "name": "PriceMarkupTooHigh",
      "type": "error"
    },
    {
      "inputs": [],
      "name": "PriceMarkupTooLow",
      "type": "error"
    },
    {
      "inputs": [],
      "name": "TokenAmountTooHigh",
      "type": "error"
    },
    {
      "inputs": [],
      "name": "TokenLimitZero",
      "type": "error"
    },
    {
      "anonymous": false,
      "inputs": [
        {
          "indexed": false,
          "internalType": "uint32",
          "name": "priceMarkup",
          "type": "uint32"
        }
      ],
      "name": "MarkupUpdated",
      "type": "event"
    },
    {
      "anonymous": false,
      "inputs": [
        {
          "indexed": true,
          "internalType": "address",
          "name": "previousOwner",
          "type": "address"
        },
        {
          "indexed": true,
          "internalType": "address",
          "name": "newOwner",
          "type": "address"
        }
      ],
      "name": "OwnershipTransferred",
      "type": "event"
    },
    {
      "anonymous": false,
      "inputs": [
        {
          "indexed": true,
          "internalType": "bytes32",
          "name": "userOpHash",
          "type": "bytes32"
        },
        {
          "indexed": true,
          "internalType": "address",
          "name": "user",
          "type": "address"
        },
        {
          "indexed": true,
          "internalType": "address",
          "name": "guarantor",
          "type": "address"
        },
        {
          "indexed": false,
          "internalType": "uint256",
          "name": "tokenAmountPaid",
          "type": "uint256"
        },
        {
          "indexed": false,
          "internalType": "uint256",
          "name": "tokenPrice",
          "type": "uint256"
        },
        {
          "indexed": false,
          "internalType": "bool",
          "name": "paidByGuarantor",
          "type": "bool"
        }
      ],
      "name": "UserOperationSponsored",
      "type": "event"
    },
    {
      "inputs": [],
      "name": "PRICE_DENOMINATOR",
      "outputs": [
        {
          "internalType": "uint256",
          "name": "",
          "type": "uint256"
        }
      ],
      "stateMutability": "view",
      "type": "function"
    },
    {
      "inputs": [
        {
          "internalType": "uint32",
          "name": "unstakeDelaySec",
          "type": "uint32"
        }
      ],
      "name": "addStake",
      "outputs": [],
      "stateMutability": "payable",
      "type": "function"
    },
    {
      "inputs": [],
      "name": "deposit",
      "outputs": [],
      "stateMutability": "payable",
      "type": "function"
    },
    {
      "inputs": [],
      "name": "entryPoint",
      "outputs": [
        {
          "internalType": "contract IEntryPoint",
          "name": "",
          "type": "address"
        }
      ],
      "stateMutability": "view",
      "type": "function"
    },
    {
      "inputs": [],
      "name": "getDeposit",
      "outputs": [
        {
          "internalType": "uint256",
          "name": "",
          "type": "uint256"
        }
      ],
      "stateMutability": "view",
      "type": "function"
    },
    {
      "inputs": [
        {
          "components": [
            {
              "internalType": "address",
              "name": "sender",
              "type": "address"
            },
            {
              "internalType": "uint256",
              "name": "nonce",
              "type": "uint256"
            },
            {
              "internalType": "bytes",
              "name": "initCode",
              "type": "bytes"
            },
            {
              "internalType": "bytes",
              "name": "callData",
              "type": "bytes"
            },
            {
              "internalType": "bytes32",
              "name": "accountGasLimits",
              "type": "bytes32"
            },
            {
              "internalType": "uint256",
              "name": "preVerificationGas",
              "type": "uint256"
            },
            {
              "internalType": "bytes32",
              "name": "gasFees",
              "type": "bytes32"
            },
            {
              "internalType": "bytes",
              "name": "paymasterAndData",
              "type": "bytes"
            },
            {
              "internalType": "bytes",
              "name": "signature",
              "type": "bytes"
            }
          ],
          "internalType": "struct PackedUserOperation",
          "name": "userOp",
          "type": "tuple"
        },
        {
          "internalType": "uint48",
          "name": "validUntil",
          "type": "uint48"
        },
        {
          "internalType": "uint48",
          "name": "validAfter",
          "type": "uint48"
        },
        {
          "internalType": "uint256",
          "name": "tokenLimit",
          "type": "uint256"
        }
      ],
      "name": "getHash",
      "outputs": [
        {
          "internalType": "bytes32",
          "name": "",
          "type": "bytes32"
        }
      ],
      "stateMutability": "view",
      "type": "function"
    },
    {
      "inputs": [],
      "name": "getPrice",
      "outputs": [
        {
          "internalType": "uint192",
          "name": "",
          "type": "uint192"
        }
      ],
      "stateMutability": "view",
      "type": "function"
    },
    {
      "inputs": [],
      "name": "nativeAssetOracle",
      "outputs": [
        {
          "internalType": "contract IOracle",
          "name": "",
          "type": "address"
        }
      ],
      "stateMutability": "view",
      "type": "function"
    },
    {
      "inputs": [],
      "name": "owner",
      "outputs": [
        {
          "internalType": "address",
          "name": "",
          "type": "address"
        }
      ],
      "stateMutability": "view",
      "type": "function"
    },
    {
      "inputs": [
        {
          "internalType": "enum IPaymaster.PostOpMode",
          "name": "mode",
          "type": "uint8"
        },
        {
          "internalType": "bytes",
          "name": "context",
          "type": "bytes"
        },
        {
          "internalType": "uint256",
          "name": "actualGasCost",
          "type": "uint256"
        },
        {
          "internalType": "uint256",
          "name": "actualUserOpFeePerGas",
          "type": "uint256"
        }
      ],
      "name": "postOp",
      "outputs": [],
      "stateMutability": "nonpayable",
      "type": "function"
    },
    {
      "inputs": [],
      "name": "priceMarkup",
      "outputs": [
        {
          "internalType": "uint32",
          "name": "",
          "type": "uint32"
        }
      ],
      "stateMutability": "view",
      "type": "function"
    },
    {
      "inputs": [],
      "name": "priceMarkupLimit",
      "outputs": [
        {
          "internalType": "uint32",
          "name": "",
          "type": "uint32"
        }
      ],
      "stateMutability": "view",
      "type": "function"
    },
    {
      "inputs": [],
      "name": "refundPostOpCost",
      "outputs": [
        {
          "internalType": "uint256",
          "name": "",
          "type": "uint256"
        }
      ],
      "stateMutability": "view",
      "type": "function"
    },
    {
      "inputs": [],
      "name": "refundPostOpCostWithGuarantor",
      "outputs": [
        {
          "internalType": "uint256",
          "name": "",
          "type": "uint256"
        }
      ],
      "stateMutability": "view",
      "type": "function"
    },
    {
      "inputs": [],
      "name": "renounceOwnership",
      "outputs": [],
      "stateMutability": "nonpayable",
      "type": "function"
    },
    {
      "inputs": [],
      "name": "stalenessThreshold",
      "outputs": [
        {
          "internalType": "uint32",
          "name": "",
          "type": "uint32"
        }
      ],
      "stateMutability": "view",
      "type": "function"
    },
    {
      "inputs": [],
      "name": "token",
      "outputs": [
        {
          "internalType": "contract IERC20",
          "name": "",
          "type": "address"
        }
      ],
      "stateMutability": "view",
      "type": "function"
    },
    {
      "inputs": [],
      "name": "tokenDecimals",
      "outputs": [
        {
          "internalType": "uint256",
          "name": "",
          "type": "uint256"
        }
      ],
      "stateMutability": "view",
      "type": "function"
    },
    {
      "inputs": [],
      "name": "tokenOracle",
      "outputs": [
        {
          "internalType": "contract IOracle",
          "name": "",
          "type": "address"
        }
      ],
      "stateMutability": "view",
      "type": "function"
    },
    {
      "inputs": [
        {
          "internalType": "address",
          "name": "newOwner",
          "type": "address"
        }
      ],
      "name": "transferOwnership",
      "outputs": [],
      "stateMutability": "nonpayable",
      "type": "function"
    },
    {
      "inputs": [],
      "name": "unlockStake",
      "outputs": [],
      "stateMutability": "nonpayable",
      "type": "function"
    },
    {
      "inputs": [
        {
          "internalType": "uint32",
          "name": "_priceMarkup",
          "type": "uint32"
        }
      ],
      "name": "updateMarkup",
      "outputs": [],
      "stateMutability": "nonpayable",
      "type": "function"
    },
    {
      "inputs": [
        {
          "components": [
            {
              "internalType": "address",
              "name": "sender",
              "type": "address"
            },
            {
              "internalType": "uint256",
              "name": "nonce",
              "type": "uint256"
            },
            {
              "internalType": "bytes",
              "name": "initCode",
              "type": "bytes"
            },
            {
              "internalType": "bytes",
              "name": "callData",
              "type": "bytes"
            },
            {
              "internalType": "bytes32",
              "name": "accountGasLimits",
              "type": "bytes32"
            },
            {
              "internalType": "uint256",
              "name": "preVerificationGas",
              "type": "uint256"
            },
            {
              "internalType": "bytes32",
              "name": "gasFees",
              "type": "bytes32"
            },
            {
              "internalType": "bytes",
              "name": "paymasterAndData",
              "type": "bytes"
            },
            {
              "internalType": "bytes",
              "name": "signature",
              "type": "bytes"
            }
          ],
          "internalType": "struct PackedUserOperation",
          "name": "userOp",
          "type": "tuple"
        },
        {
          "internalType": "bytes32",
          "name": "userOpHash",
          "type": "bytes32"
        },
        {
          "internalType": "uint256",
          "name": "maxCost",
          "type": "uint256"
        }
      ],
      "name": "validatePaymasterUserOp",
      "outputs": [
        {
          "internalType": "bytes",
          "name": "context",
          "type": "bytes"
        },
        {
          "internalType": "uint256",
          "name": "validationData",
          "type": "uint256"
        }
      ],
      "stateMutability": "nonpayable",
      "type": "function"
    },
    {
      "inputs": [
        {
          "internalType": "address payable",
          "name": "withdrawAddress",
          "type": "address"
        }
      ],
      "name": "withdrawStake",
      "outputs": [],
      "stateMutability": "nonpayable",
      "type": "function"
    },
    {
      "inputs": [
        {
          "internalType": "address payable",
          "name": "withdrawAddress",
          "type": "address"
        },
        {
          "internalType": "uint256",
          "name": "amount",
          "type": "uint256"
        }
      ],
      "name": "withdrawTo",
      "outputs": [],
      "stateMutability": "nonpayable",
      "type": "function"
    },
    {
      "inputs": [
        {
          "internalType": "address",
          "name": "to",
          "type": "address"
        },
        {
          "internalType": "uint256",
          "name": "amount",
          "type": "uint256"
        }
      ],
      "name": "withdrawToken",
      "outputs": [],
      "stateMutability": "nonpayable",
      "type": "function"
    }
  ],
  "transactionHash": "0xc5bd9de57c95b04ba5faa82b4b3e9159ce987bfcf06f3eb09717b4132b58e1fb",
  "args": [
    "0x453478E2E0c846c069e544405d5877086960BEf2",
    "0x0000000071727De22E5E9d8BAf0edAc6f37da032",
    "0x1310F6cB60D99fb2bB6AdEB4F5449156D2dcb8eD",
    "0x5881E0238Ace27e32110Bd6EabC53d5f7Ee78829",
    259200000,
    "0x09FD4F6088f2025427AB1e89257A44747081Ed59",
    10000000,
    1000000,
    30000,
    50000
  ],
  "numDeployments": 4,
  "solcInputHash": "3ec0cc918b844fce95962525e7088d46",
  "bytecode": "0x6101a06040523480156200001257600080fd5b5060405162002835380380620028358339810160408190526200003591620003b9565b898989898989898989898833806200006857604051631e4fbdf760e01b8152600060048201526024015b60405180910390fd5b6200007381620002c4565b506001600160a01b039081166080528a811660e0528881166101205287166101405263ffffffff808716610160528481166101805260008054918516600160a01b0263ffffffff60a01b1990921691909117905560a082905260c0819052620000dc8562000314565b896001600160a01b031663313ce5676040518163ffffffff1660e01b8152600401602060405180830381865afa1580156200011b573d6000803e3d6000fd5b505050506040513d601f19601f8201168201806040525081019062000141919062000483565b6200014e90600a620005c4565b61010052620f424063ffffffff841610156200017d5760405163693d9a8160e11b815260040160405180910390fd5b8363ffffffff168363ffffffff161115620001ab57604051633838f8af60e11b815260040160405180910390fd5b876001600160a01b031663313ce5676040518163ffffffff1660e01b8152600401602060405180830381865afa158015620001ea573d6000803e3d6000fd5b505050506040513d601f19601f8201168201806040525081019062000210919062000483565b60ff1660081415806200028b5750866001600160a01b031663313ce5676040518163ffffffff1660e01b8152600401602060405180830381865afa1580156200025d573d6000803e3d6000fd5b505050506040513d601f19601f8201168201806040525081019062000283919062000483565b60ff16600814155b15620002aa576040516336d370b760e11b815260040160405180910390fd5b5050505050505050505050505050505050505050620005d5565b600080546001600160a01b038381166001600160a01b0319831681178455604051919092169283917f8be0079c531659141344cd1fd0a4f28419497f9722a3daafe3b4186f6b6457e09190a35050565b6200031e62000358565b6001600160a01b0381166200034a57604051631e4fbdf760e01b8152600060048201526024016200005f565b6200035581620002c4565b50565b6000546001600160a01b03163314620003875760405163118cdaa760e01b81523360048201526024016200005f565b565b6001600160a01b03811681146200035557600080fd5b805163ffffffff81168114620003b457600080fd5b919050565b6000806000806000806000806000806101408b8d031215620003da57600080fd5b8a51620003e78162000389565b60208c0151909a50620003fa8162000389565b60408c01519099506200040d8162000389565b60608c0151909850620004208162000389565b96506200043060808c016200039f565b955060a08b0151620004428162000389565b94506200045260c08c016200039f565b93506200046260e08c016200039f565b92506101008b015191506101208b015190509295989b9194979a5092959850565b6000602082840312156200049657600080fd5b815160ff81168114620004a857600080fd5b9392505050565b634e487b7160e01b600052601160045260246000fd5b600181815b8085111562000506578160001904821115620004ea57620004ea620004af565b80851615620004f857918102915b93841c9390800290620004ca565b509250929050565b6000826200051f57506001620005be565b816200052e57506000620005be565b8160018114620005475760028114620005525762000572565b6001915050620005be565b60ff841115620005665762000566620004af565b50506001821b620005be565b5060208310610133831016604e8410600b841016171562000597575081810a620005be565b620005a38383620004c5565b8060001904821115620005ba57620005ba620004af565b0290505b92915050565b6000620004a860ff8416836200050e565b60805160a05160c05160e0516101005161012051610140516101605161018051612140620006f5600039600081816103be01526108270152600081816103f2015261171e015260008181610514015261090101526000818161029201526108d40152600081816101cd015261092f0152600081816105680152818161097301528181610e0201528181610f420152818161104b01528181611207015281816114190152818161144d015281816114d801526115f60152600081816104e001528181610da201526113a60152600081816104ac01528181610d1901526115a3015260008181610426015281816105ac01528181610643015281816109a701528181610a4101528181610ab101528181610b3e0152610c0601526121406000f3fe6080604052600436106101815760003560e01c80639e281a98116100d1578063c399ec881161008a578063eb4149d511610064578063eb4149d5146104ce578063efb1ad5d14610502578063f2fde38b14610536578063fc0c546a1461055657600080fd5b8063c399ec881461047d578063d0e30db014610492578063eb38b6d41461049a57600080fd5b80639e281a981461038c578063a1b13f10146103ac578063a84f6ebb146103e0578063b0d691fe14610414578063bb9fe6bf14610448578063c23a5cea1461045d57600080fd5b80636c5ec25c1161013e57806382a59e9e1161011857806382a59e9e146103015780638da5cb5b1461032157806397dce8d41461033f57806398d5fdca1461035f57600080fd5b80636c5ec25c14610280578063715018a6146102cc5780637c627b21146102e157600080fd5b80630396cb6014610186578063205c28781461019b5780633b97e856146101bb5780633e04619d1461020257806352b7512c1461023b5780636c1516e114610269575b600080fd5b610199610194366004611b5b565b61058a565b005b3480156101a757600080fd5b506101996101b6366004611b9d565b610615565b3480156101c757600080fd5b506101ef7f000000000000000000000000000000000000000000000000000000000000000081565b6040519081526020015b60405180910390f35b34801561020e57600080fd5b5060005461022690600160a01b900463ffffffff1681565b60405163ffffffff90911681526020016101f9565b34801561024757600080fd5b5061025b610256366004611be2565b610687565b6040516101f9929190611c80565b34801561027557600080fd5b506101ef620f424081565b34801561028c57600080fd5b506102b47f000000000000000000000000000000000000000000000000000000000000000081565b6040516001600160a01b0390911681526020016101f9565b3480156102d857600080fd5b506101996106aa565b3480156102ed57600080fd5b506101996102fc366004611ca2565b6106be565b34801561030d57600080fd5b506101ef61031c366004611d55565b6106da565b34801561032d57600080fd5b506000546001600160a01b03166102b4565b34801561034b57600080fd5b5061019961035a366004611b5b565b6107f3565b34801561036b57600080fd5b506103746108cc565b6040516001600160c01b0390911681526020016101f9565b34801561039857600080fd5b506101996103a7366004611b9d565b610966565b3480156103b857600080fd5b506102267f000000000000000000000000000000000000000000000000000000000000000081565b3480156103ec57600080fd5b506102267f000000000000000000000000000000000000000000000000000000000000000081565b34801561042057600080fd5b506102b47f000000000000000000000000000000000000000000000000000000000000000081565b34801561045457600080fd5b5061019961099d565b34801561046957600080fd5b50610199610478366004611dbb565b610a1a565b34801561048957600080fd5b506101ef610a99565b610199610b29565b3480156104a657600080fd5b506101ef7f000000000000000000000000000000000000000000000000000000000000000081565b3480156104da57600080fd5b506101ef7f000000000000000000000000000000000000000000000000000000000000000081565b34801561050e57600080fd5b506102b47f000000000000000000000000000000000000000000000000000000000000000081565b34801561054257600080fd5b50610199610551366004611dbb565b610b8b565b34801561056257600080fd5b506102b47f000000000000000000000000000000000000000000000000000000000000000081565b610592610bce565b604051621cb65b60e51b815263ffffffff821660048201527f00000000000000000000000000000000000000000000000000000000000000006001600160a01b031690630396cb609034906024016000604051808303818588803b1580156105f957600080fd5b505af115801561060d573d6000803e3d6000fd5b505050505050565b61061d610bce565b60405163040b850f60e31b81526001600160a01b038381166004830152602482018390527f0000000000000000000000000000000000000000000000000000000000000000169063205c287890604401600060405180830381600087803b1580156105f957600080fd5b60606000610693610bfb565b61069e858585610c6b565b91509150935093915050565b6106b2610bce565b6106bc60006112a4565b565b6106c6610bfb565b6106d385858585856112f4565b5050505050565b600084358060208701356106f16040890189611dd8565b6040516106ff929190611e26565b60405190819003902061071560608a018a611dd8565b604051610723929190611e26565b60405190819003902060808a013561073e60e08c018c611dd8565b61074d91603491601491611e36565b61075691611e60565b604080516001600160a01b0390971660208801528601949094526060850192909252608084015260a08381019190915260c08381019290925288013560e0830152870135610100820152466101208201523061014082015265ffffffffffff80871661016083015285166101808201526101a081018490526101c00160405160208183030381529060405280519060200120915050949350505050565b6107fb610bce565b620f42408163ffffffff1610156108255760405163693d9a8160e11b815260040160405180910390fd5b7f000000000000000000000000000000000000000000000000000000000000000063ffffffff168163ffffffff16111561087257604051633838f8af60e11b815260040160405180910390fd5b6000805463ffffffff60a01b1916600160a01b63ffffffff8416908102919091179091556040519081527f9ea1f42ce64c70800407f967ac1fa12212ba11a4cf535076a37dd1dbffc87b019060200160405180910390a150565b6000806108f87f0000000000000000000000000000000000000000000000000000000000000000611685565b905060006109257f0000000000000000000000000000000000000000000000000000000000000000611685565b90506000826109547f000000000000000000000000000000000000000000000000000000000000000084611e94565b61095e9190611edc565b949350505050565b61096e610bce565b6109997f0000000000000000000000000000000000000000000000000000000000000000838361176b565b5050565b6109a5610bce565b7f00000000000000000000000000000000000000000000000000000000000000006001600160a01b031663bb9fe6bf6040518163ffffffff1660e01b8152600401600060405180830381600087803b158015610a0057600080fd5b505af1158015610a14573d6000803e3d6000fd5b50505050565b610a22610bce565b60405163611d2e7560e11b81526001600160a01b0382811660048301527f0000000000000000000000000000000000000000000000000000000000000000169063c23a5cea90602401600060405180830381600087803b158015610a8557600080fd5b505af11580156106d3573d6000803e3d6000fd5b6040516370a0823160e01b81523060048201526000907f00000000000000000000000000000000000000000000000000000000000000006001600160a01b0316906370a0823190602401602060405180830381865afa158015610b00573d6000803e3d6000fd5b505050506040513d601f19601f82011682018060405250810190610b249190611f02565b905090565b60405163b760faf960e01b81523060048201527f00000000000000000000000000000000000000000000000000000000000000006001600160a01b03169063b760faf99034906024016000604051808303818588803b158015610a8557600080fd5b610b93610bce565b6001600160a01b038116610bc257604051631e4fbdf760e01b8152600060048201526024015b60405180910390fd5b610bcb816112a4565b50565b6000546001600160a01b031633146106bc5760405163118cdaa760e01b8152336004820152602401610bb9565b336001600160a01b037f000000000000000000000000000000000000000000000000000000000000000016146106bc5760405162461bcd60e51b815260206004820152601560248201527414d95b99195c881b9bdd08115b9d1c9e541bda5b9d605a1b6044820152606401610bb9565b60606000803681610c87610c8260e08a018a611dd8565b6117b1565b92509250925060048360ff1610610cb1576040516337f4524360e01b815260040160405180910390fd5b6000610cbb6108cc565b9050600080610cc98b61180f565b905060ff86161580610cde57508560ff166001145b15610d6c57610cf8620f4240670de0b6b3a7640000611f1b565b6000546001600160c01b03851690600160a01b900463ffffffff16610d3d847f0000000000000000000000000000000000000000000000000000000000000000611f1b565b610d47908d611f32565b610d519190611f1b565b610d5b9190611f1b565b610d659190611f45565b9150610df1565b610d81620f4240670de0b6b3a7640000611f1b565b6000546001600160c01b03851690600160a01b900463ffffffff16610dc6847f0000000000000000000000000000000000000000000000000000000000000000611f1b565b610dd0908d611f32565b610dda9190611f1b565b610de49190611f1b565b610dee9190611f45565b91505b508460ff16600003610ea357610e357f0000000000000000000000000000000000000000000000000000000000000000610e2e60208d018d611dbb565b308461182f565b8082610e4460208d018d611dbb565b8b604051602001610e89949392919093845260409290921b67ffffffffffffffff1916602084015260601b6001600160601b0319166038830152604c820152606c0190565b604051602081830303815290604052965060009550611297565b8460ff16600103610f6e5760208314610ecf57604051633fb36d9d60e11b815260040160405180910390fd5b610edd602060008587611e36565b610ee691611e60565b600003610f0657604051633b50362560e11b815260040160405180910390fd5b610f14602060008587611e36565b610f1d91611e60565b811115610f3d57604051635e57ef5760e01b815260040160405180910390fd5b610e357f0000000000000000000000000000000000000000000000000000000000000000610e2e60208d018d611dbb565b8460ff166002036110f0576020831015610f9b57604051633fb36d9d60e11b815260040160405180910390fd5b6000610faa6014828688611e36565b610fb391611f59565b60601c9050600061104482610ffd8e610fd0601a60148b8d611e36565b610fd991611f89565b60d01c610fea6020601a8c8e611e36565b610ff391611f89565b60d01c60006106da565b61100a886020818c611e36565b8080601f01602080910402602001604051908101604052809392919081815260200183838082843760009201919091525061188392505050565b90506110727f000000000000000000000000000000000000000000000000000000000000000083308661182f565b828461108160208f018f611dbb565b8d85604051602001611097959493929190611fb7565b60408051601f1981840301815291905298506110e781156110bc601a6014898b611e36565b6110c591611f89565b60d01c6110d66020601a8a8c611e36565b6110df91611f89565b60d01c6118e5565b97505050611297565b604083101561111257604051633fb36d9d60e11b815260040160405180910390fd5b6000611122603460208688611e36565b61112b91611f59565b60601c905061113e602060008688611e36565b61114791611e60565b60000361116757604051633b50362560e11b815260040160405180910390fd5b611175602060008688611e36565b61117e91611e60565b82111561119e57604051635e57ef5760e01b815260040160405180910390fd5b6000611200826111f38e6111b6603a60348b8d611e36565b6111bf91611f89565b60d01c6111d06040603a8c8e611e36565b6111d991611f89565b60d01c6111ea602060008d8f611e36565b61031c91611e60565b61100a886040818c611e36565b905061122e7f000000000000000000000000000000000000000000000000000000000000000083308661182f565b828461123d60208f018f611dbb565b8d85604051602001611253959493929190611fb7565b60408051601f1981840301815291905298506112928115611278603a6034898b611e36565b61128191611f89565b60d01c6110d66040603a8a8c611e36565b975050505b5050505050935093915050565b600080546001600160a01b038381166001600160a01b0319831681178455604051919092169283917f8be0079c531659141344cd1fd0a4f28419497f9722a3daafe3b4186f6b6457e09190a35050565b60006113036020828688611e36565b61130c91611e60565b9050600061131e603860208789611e36565b61132791611ffd565b60401c9050600061133c604c6038888a611e36565b61134591611f59565b60601c9050600061135a606c604c898b611e36565b61136391611e60565b9050608087900361156b576000611385620f4240670de0b6b3a7640000611f1b565b6000546001600160c01b03861690600160a01b900463ffffffff166113ca897f0000000000000000000000000000000000000000000000000000000000000000611f1b565b6113d4908b611f32565b6113de9190611f1b565b6113e89190611f1b565b6113f29190611f45565b905060006114046080606c8b8d611e36565b61140d91611f59565b60601c905060006114407f000000000000000000000000000000000000000000000000000000000000000086308661191d565b905080156114d3576114737f0000000000000000000000000000000000000000000000000000000000000000838961176b565b604080518481526001600160c01b038816602082015260008183015290516001600160a01b03848116929088169187917fc17fe1e2287d25ac4fb440d6972be81ad64f6c3d0b8ca6ac1f6c9c6011250c52919081900360600190a4611563565b6115077f000000000000000000000000000000000000000000000000000000000000000083611502868b61202c565b61176b565b604080518481526001600160c01b038816602082015260018183015290516001600160a01b03848116929088169187917fc17fe1e2287d25ac4fb440d6972be81ad64f6c3d0b8ca6ac1f6c9c6011250c52919081900360600190a45b50505061167a565b6000611582620f4240670de0b6b3a7640000611f1b565b6000546001600160c01b03861690600160a01b900463ffffffff166115c7897f0000000000000000000000000000000000000000000000000000000000000000611f1b565b6115d1908b611f32565b6115db9190611f1b565b6115e59190611f1b565b6115ef9190611f45565b90506116207f000000000000000000000000000000000000000000000000000000000000000084611502848961202c565b604080518281526001600160c01b038616602082015260009181018290526001600160a01b0385169084907fc17fe1e2287d25ac4fb440d6972be81ad64f6c3d0b8ca6ac1f6c9c6011250c529060600160405180910390a4505b505050505050505050565b6000806000836001600160a01b031663feaf968c6040518163ffffffff1660e01b815260040160a060405180830381865afa1580156116c8573d6000803e3d6000fd5b505050506040513d601f19601f820116820180604052508101906116ec9190612059565b509350509250506000821361171457604051631319f4b960e11b815260040160405180910390fd5b61174463ffffffff7f0000000000000000000000000000000000000000000000000000000000000000164261202c565b811015611764576040516308b9f95b60e01b815260040160405180910390fd5b5092915050565b816014528060345263a9059cbb60601b60005260206000604460106000875af13d1560016000511417166117a7576390b8ec186000526004601cfd5b6000603452505050565b6000368160358410156117d75760006117cc81803681611e36565b925092509250611808565b848460348181106117ea576117ea6120a9565b919091013560f81c90506118018560358189611e36565b9250925092505b9250925092565b60006fffffffffffffffffffffffffffffffff60c0830135165b92915050565b60405181606052826040528360601b602c526323b872dd60601b600c52602060006064601c6000895af13d15600160005114171661187557637939f4246000526004601cfd5b600060605260405250505050565b60008060006118928585611967565b50909250905060008160038111156118ac576118ac6120bf565b1480156118ca5750856001600160a01b0316826001600160a01b0316145b806118db57506118db8686866119b1565b9695505050505050565b600060d08265ffffffffffff16901b60a08465ffffffffffff16901b8561190d576000611910565b60015b60ff161717949350505050565b600060405182606052836040528460601b602c526323b872dd60601b600c52602060006064601c60008a5af13d156001600051141716915060006060528060405250949350505050565b600080600083516041036119a15760208401516040850151606086015160001a61199388828585611a8c565b955095509550505050611808565b5050815160009150600290611808565b6000806000856001600160a01b031685856040516024016119d39291906120d5565b60408051601f198184030181529181526020820180516001600160e01b0316630b135d3f60e11b17905251611a0891906120ee565b600060405180830381855afa9150503d8060008114611a43576040519150601f19603f3d011682016040523d82523d6000602084013e611a48565b606091505b5091509150818015611a5c57506020815110155b80156118db57508051630b135d3f60e11b90611a819083016020908101908401611f02565b149695505050505050565b600080807f7fffffffffffffffffffffffffffffff5d576e7357a4501ddfe92f46681b20a0841115611ac75750600091506003905082611b51565b604080516000808252602082018084528a905260ff891692820192909252606081018790526080810186905260019060a0016020604051602081039080840390855afa158015611b1b573d6000803e3d6000fd5b5050604051601f1901519150506001600160a01b038116611b4757506000925060019150829050611b51565b9250600091508190505b9450945094915050565b600060208284031215611b6d57600080fd5b813563ffffffff81168114611b8157600080fd5b9392505050565b6001600160a01b0381168114610bcb57600080fd5b60008060408385031215611bb057600080fd5b8235611bbb81611b88565b946020939093013593505050565b60006101208284031215611bdc57600080fd5b50919050565b600080600060608486031215611bf757600080fd5b833567ffffffffffffffff811115611c0e57600080fd5b611c1a86828701611bc9565b9660208601359650604090950135949350505050565b60005b83811015611c4b578181015183820152602001611c33565b50506000910152565b60008151808452611c6c816020860160208601611c30565b601f01601f19169290920160200192915050565b604081526000611c936040830185611c54565b90508260208301529392505050565b600080600080600060808688031215611cba57600080fd5b853560038110611cc957600080fd5b9450602086013567ffffffffffffffff80821115611ce657600080fd5b818801915088601f830112611cfa57600080fd5b813581811115611d0957600080fd5b896020828501011115611d1b57600080fd5b9699602092909201985095966040810135965060600135945092505050565b803565ffffffffffff81168114611d5057600080fd5b919050565b60008060008060808587031215611d6b57600080fd5b843567ffffffffffffffff811115611d8257600080fd5b611d8e87828801611bc9565b945050611d9d60208601611d3a565b9250611dab60408601611d3a565b9396929550929360600135925050565b600060208284031215611dcd57600080fd5b8135611b8181611b88565b6000808335601e19843603018112611def57600080fd5b83018035915067ffffffffffffffff821115611e0a57600080fd5b602001915036819003821315611e1f57600080fd5b9250929050565b8183823760009101908152919050565b60008085851115611e4657600080fd5b83861115611e5357600080fd5b5050820193919092039150565b8035602083101561182957600019602084900360031b1b1692915050565b634e487b7160e01b600052601160045260246000fd5b6001600160c01b03828116828216818102831692918115828504821417611ebd57611ebd611e7e565b50505092915050565b634e487b7160e01b600052601260045260246000fd5b60006001600160c01b0383811680611ef657611ef6611ec6565b92169190910492915050565b600060208284031215611f1457600080fd5b5051919050565b808202811582820484141761182957611829611e7e565b8082018082111561182957611829611e7e565b600082611f5457611f54611ec6565b500490565b6001600160601b03198135818116916014851015611f815780818660140360031b1b83161692505b505092915050565b6001600160d01b03198135818116916006851015611f815760069490940360031b84901b1690921692915050565b94855260409390931b67ffffffffffffffff19166020850152606091821b6001600160601b03199081166038860152604c85019190915291901b16606c82015260800190565b67ffffffffffffffff198135818116916018851015611f815760189490940360031b84901b1690921692915050565b8181038181111561182957611829611e7e565b805169ffffffffffffffffffff81168114611d5057600080fd5b600080600080600060a0868803121561207157600080fd5b61207a8661203f565b945060208601519350604086015192506060860151915061209d6080870161203f565b90509295509295909350565b634e487b7160e01b600052603260045260246000fd5b634e487b7160e01b600052602160045260246000fd5b82815260406020820152600061095e6040830184611c54565b60008251612100818460208701611c30565b919091019291505056fea264697066735822122058ee57979bd5fe0100b97c2767f7e61c1a32b47d8a4072a6c3fe28a15c7c46fb64736f6c63430008170033",
  "devdoc": {
    "author": "Pimlico (https://github.com/pimlicolabs/erc20-paymaster/blob/main/src/ERC20PaymasterV06.sol)Using Solady (https://github.com/vectorized/solady)",
    "custom:security-contact": "security@pimlico.io",
    "details": "Inherits from BaseERC20Paymaster.",
    "errors": {
      "OracleDecimalsInvalid()": [
        {
          "details": "The oracle decimals are not set to 8."
        }
      ],
      "OraclePriceNotPositive()": [
        {
          "details": "The oracle price is less than or equal to zero."
        }
      ],
      "OraclePriceStale()": [
        {
          "details": "The oracle price is stale."
        }
      ],
      "OwnableInvalidOwner(address)": [
        {
          "details": "The owner is not a valid owner account. (eg. `address(0)`)"
        }
      ],
      "OwnableUnauthorizedAccount(address)": [
        {
          "details": "The caller account is not authorized to perform an operation."
        }
      ],
      "PaymasterDataLengthInvalid()": [
        {
          "details": "The paymaster data length is invalid for the selected mode."
        }
      ],
      "PaymasterDataModeInvalid()": [
        {
          "details": "The paymaster data mode is invalid. The mode should be 0, 1, 2, or 3."
        }
      ],
      "PriceMarkupTooHigh()": [
        {
          "details": "The price markup selected is higher than the price markup limit."
        }
      ],
      "PriceMarkupTooLow()": [
        {
          "details": "The price markup selected is lower than break-even."
        }
      ],
      "TokenAmountTooHigh()": [
        {
          "details": "The token amount is higher than the limit set."
        }
      ],
      "TokenLimitZero()": [
        {
          "details": "The token limit is set to zero in a paymaster mode that uses a limit."
        }
      ]
    },
    "events": {
      "MarkupUpdated(uint32)": {
        "details": "Emitted when the price markup is updated."
      },
      "UserOperationSponsored(bytes32,address,address,uint256,uint256,bool)": {
        "details": "Emitted when a user operation is sponsored by the paymaster."
      }
    },
    "kind": "dev",
    "methods": {
      "addStake(uint32)": {
        "params": {
          "unstakeDelaySec": "- The unstake delay for this paymaster. Can only be increased."
        }
      },
      "getHash((address,uint256,bytes,bytes,bytes32,uint256,bytes32,bytes,bytes),uint48,uint48,uint256)": {
        "params": {
          "tokenLimit": "The maximum amount of tokens allowed for the user operation. 0 if no limit.",
          "userOp": "The user operation data.",
          "validAfter": "The timestamp after which the user operation is valid.",
          "validUntil": "The timestamp until which the user operation is valid."
        }
      },
      "getPrice()": {
        "returns": {
          "_0": "price The latest token price fetched from the oracles."
        }
      },
      "owner()": {
        "details": "Returns the address of the current owner."
      },
      "postOp(uint8,bytes,uint256,uint256)": {
        "params": {
          "actualGasCost": "- Actual gas used so far (without this postOp call).",
          "actualUserOpFeePerGas": "- the gas price this UserOp pays. This value is based on the UserOp's maxFeePerGas                        and maxPriorityFee (and basefee)                        It is not the same as tx.gasprice, which is what the bundler pays.",
          "context": "- The context value returned by validatePaymasterUserOp",
          "mode": "- Enum with the following options:                        opSucceeded - User operation succeeded.                        opReverted  - User op reverted. The paymaster still has to pay for gas.                        postOpReverted - never passed in a call to postOp()."
        }
      },
      "renounceOwnership()": {
        "details": "Leaves the contract without owner. It will not be possible to call `onlyOwner` functions. Can only be called by the current owner. NOTE: Renouncing ownership will leave the contract without an owner, thereby disabling any functionality that is only available to the owner."
      },
      "transferOwnership(address)": {
        "details": "Transfers ownership of the contract to a new account (`newOwner`). Can only be called by the current owner."
      },
      "updateMarkup(uint32)": {
        "params": {
          "_priceMarkup": "The new price markup percentage (1e6 = 100%)."
        }
      },
      "validatePaymasterUserOp((address,uint256,bytes,bytes,bytes32,uint256,bytes32,bytes,bytes),bytes32,uint256)": {
        "params": {
          "maxCost": "- The maximum cost of this transaction (based on maximum gas and gas price from userOp).",
          "userOp": "- The user operation.",
          "userOpHash": "- Hash of the user's request data."
        },
        "returns": {
          "context": "       - Value to send to a postOp. Zero length to signify postOp is not required.",
          "validationData": "- Signature and time-range of this operation, encoded the same as the return                          value of validateUserOperation.                          <20-byte> sigAuthorizer - 0 for valid signature, 1 to mark signature failure,                                                    other values are invalid for paymaster.                          <6-byte> validUntil - last timestamp this operation is valid. 0 for \"indefinite\"                          <6-byte> validAfter - first timestamp this operation is valid                          Note that the validation code cannot use block.timestamp (or block.number) directly."
        }
      },
      "withdrawStake(address)": {
        "params": {
          "withdrawAddress": "- The address to send withdrawn value."
        }
      },
      "withdrawTo(address,uint256)": {
        "params": {
          "amount": "- Amount to withdraw.",
          "withdrawAddress": "- Target to send to."
        }
      },
      "withdrawToken(address,uint256)": {
        "params": {
          "amount": "The amount of tokens to transfer.",
          "to": "The address to transfer the tokens to."
        }
      }
    },
    "title": "ERC20PaymasterV07",
    "version": 1
  },
  "userdoc": {
    "kind": "user",
    "methods": {
      "addStake(uint32)": {
        "notice": "Add stake for this paymaster. This method can also carry eth value to add to the current stake."
      },
      "deposit()": {
        "notice": "Add a deposit for this paymaster, used for paying for transaction fees."
      },
      "getDeposit()": {
        "notice": "Return current paymaster's deposit on the entryPoint."
      },
      "getHash((address,uint256,bytes,bytes,bytes32,uint256,bytes32,bytes,bytes),uint48,uint48,uint256)": {
        "notice": "Hashes the user operation data."
      },
      "getPrice()": {
        "notice": "Fetches the latest token price."
      },
      "postOp(uint8,bytes,uint256,uint256)": {
        "notice": "Post-operation handler. Must verify sender is the entryPoint."
      },
      "unlockStake()": {
        "notice": "Unlock the stake, in order to withdraw it. The paymaster can't serve requests once unlocked, until it calls addStake again"
      },
      "updateMarkup(uint32)": {
        "notice": "Updates the price markup."
      },
      "validatePaymasterUserOp((address,uint256,bytes,bytes,bytes32,uint256,bytes32,bytes,bytes),bytes32,uint256)": {
        "notice": "Payment validation: check if paymaster agrees to pay. Must verify sender is the entryPoint. Revert to reject this request. Note that bundlers will reject this method if it changes the state, unless the paymaster is trusted (whitelisted). The paymaster pre-pays using its deposit, and receive back a refund after the postOp method returns."
      },
      "withdrawStake(address)": {
        "notice": "Withdraw the entire paymaster's stake. stake must be unlocked first (and then wait for the unstakeDelay to be over)"
      },
      "withdrawTo(address,uint256)": {
        "notice": "Withdraw value from the deposit."
      },
      "withdrawToken(address,uint256)": {
        "notice": "Allows the contract owner to withdraw a specified amount of tokens from the contract."
      }
    },
    "notice": "An ERC-4337 Paymaster contract which is able to sponsor gas fees in exchange for ERC-20 tokens. The contract refunds excess tokens. It also allows updating price configuration and withdrawing tokens by the contract owner. The contract uses oracles to fetch the latest token prices. The paymaster supports standard and up-rebasing ERC-20 tokens. It does not support down-rebasing and fee-on-transfer tokens.",
    "version": 1
  },
  "storageLayout": {
    "storage": [
      {
        "astId": 8,
        "contract": "src/modular-etherspot-wallet/ERC20PaymasterEP07/ERC20PaymasterV07.sol:ERC20Paymaster",
        "label": "_owner",
        "offset": 0,
        "slot": "0",
        "type": "t_address"
      },
      {
        "astId": 2815,
        "contract": "src/modular-etherspot-wallet/ERC20PaymasterEP07/ERC20PaymasterV07.sol:ERC20Paymaster",
        "label": "priceMarkup",
        "offset": 20,
        "slot": "0",
        "type": "t_uint32"
      }
    ],
    "types": {
      "t_address": {
        "encoding": "inplace",
        "label": "address",
        "numberOfBytes": "20"
      },
      "t_uint32": {
        "encoding": "inplace",
        "label": "uint32",
        "numberOfBytes": "4"
      }
    }
  }
}