{
  "_format": "hh-sol-artifact-1",
  "contractName": "EntryPoint",
  "sourceName": "src/core/EntryPoint.sol",
  "abi": [
    {
      "inputs": [
        {
          "internalType": "uint256",
          "name": "preOpGas",
          "type": "uint256"
        },
        {
          "internalType": "uint256",
          "name": "paid",
          "type": "uint256"
        },
        {
          "internalType": "uint64",
          "name": "validAfter",
          "type": "uint64"
        },
        {
          "internalType": "uint64",
          "name": "validBefore",
          "type": "uint64"
        },
        {
          "internalType": "bool",
          "name": "targetSuccess",
          "type": "bool"
        },
        {
          "internalType": "bytes",
          "name": "targetResult",
          "type": "bytes"
        }
      ],
      "name": "ExecutionResult",
      "type": "error"
    },
    {
      "inputs": [
        {
          "internalType": "uint256",
          "name": "opIndex",
          "type": "uint256"
        },
        {
          "internalType": "address",
          "name": "paymaster",
          "type": "address"
        },
        {
          "internalType": "string",
          "name": "reason",
          "type": "string"
        }
      ],
      "name": "FailedOp",
      "type": "error"
    },
    {
      "inputs": [
        {
          "internalType": "address",
          "name": "sender",
          "type": "address"
        }
      ],
      "name": "SenderAddressResult",
      "type": "error"
    },
    {
      "inputs": [
        {
          "internalType": "address",
          "name": "aggregator",
          "type": "address"
        }
      ],
      "name": "SignatureValidationFailed",
      "type": "error"
    },
    {
      "inputs": [
        {
          "components": [
            {
              "internalType": "uint256",
              "name": "preOpGas",
              "type": "uint256"
            },
            {
              "internalType": "uint256",
              "name": "prefund",
              "type": "uint256"
            },
            {
              "internalType": "bool",
              "name": "sigFailed",
              "type": "bool"
            },
            {
              "internalType": "uint64",
              "name": "validAfter",
              "type": "uint64"
            },
            {
              "internalType": "uint64",
              "name": "validUntil",
              "type": "uint64"
            },
            {
              "internalType": "bytes",
              "name": "paymasterContext",
              "type": "bytes"
            }
          ],
          "internalType": "struct IEntryPoint.ReturnInfo",
          "name": "returnInfo",
          "type": "tuple"
        },
        {
          "components": [
            {
              "internalType": "uint256",
              "name": "stake",
              "type": "uint256"
            },
            {
              "internalType": "uint256",
              "name": "unstakeDelaySec",
              "type": "uint256"
            }
          ],
          "internalType": "struct IStakeManager.StakeInfo",
          "name": "senderInfo",
          "type": "tuple"
        },
        {
          "components": [
            {
              "internalType": "uint256",
              "name": "stake",
              "type": "uint256"
            },
            {
              "internalType": "uint256",
              "name": "unstakeDelaySec",
              "type": "uint256"
            }
          ],
          "internalType": "struct IStakeManager.StakeInfo",
          "name": "factoryInfo",
          "type": "tuple"
        },
        {
          "components": [
            {
              "internalType": "uint256",
              "name": "stake",
              "type": "uint256"
            },
            {
              "internalType": "uint256",
              "name": "unstakeDelaySec",
              "type": "uint256"
            }
          ],
          "internalType": "struct IStakeManager.StakeInfo",
          "name": "paymasterInfo",
          "type": "tuple"
        }
      ],
      "name": "ValidationResult",
      "type": "error"
    },
    {
      "inputs": [
        {
          "components": [
            {
              "internalType": "uint256",
              "name": "preOpGas",
              "type": "uint256"
            },
            {
              "internalType": "uint256",
              "name": "prefund",
              "type": "uint256"
            },
            {
              "internalType": "bool",
              "name": "sigFailed",
              "type": "bool"
            },
            {
              "internalType": "uint64",
              "name": "validAfter",
              "type": "uint64"
            },
            {
              "internalType": "uint64",
              "name": "validUntil",
              "type": "uint64"
            },
            {
              "internalType": "bytes",
              "name": "paymasterContext",
              "type": "bytes"
            }
          ],
          "internalType": "struct IEntryPoint.ReturnInfo",
          "name": "returnInfo",
          "type": "tuple"
        },
        {
          "components": [
            {
              "internalType": "uint256",
              "name": "stake",
              "type": "uint256"
            },
            {
              "internalType": "uint256",
              "name": "unstakeDelaySec",
              "type": "uint256"
            }
          ],
          "internalType": "struct IStakeManager.StakeInfo",
          "name": "senderInfo",
          "type": "tuple"
        },
        {
          "components": [
            {
              "internalType": "uint256",
              "name": "stake",
              "type": "uint256"
            },
            {
              "internalType": "uint256",
              "name": "unstakeDelaySec",
              "type": "uint256"
            }
          ],
          "internalType": "struct IStakeManager.StakeInfo",
          "name": "factoryInfo",
          "type": "tuple"
        },
        {
          "components": [
            {
              "internalType": "uint256",
              "name": "stake",
              "type": "uint256"
            },
            {
              "internalType": "uint256",
              "name": "unstakeDelaySec",
              "type": "uint256"
            }
          ],
          "internalType": "struct IStakeManager.StakeInfo",
          "name": "paymasterInfo",
          "type": "tuple"
        },
        {
          "components": [
            {
              "internalType": "address",
              "name": "actualAggregator",
              "type": "address"
            },
            {
              "components": [
                {
                  "internalType": "uint256",
                  "name": "stake",
                  "type": "uint256"
                },
                {
                  "internalType": "uint256",
                  "name": "unstakeDelaySec",
                  "type": "uint256"
                }
              ],
              "internalType": "struct IStakeManager.StakeInfo",
              "name": "stakeInfo",
              "type": "tuple"
            }
          ],
          "internalType": "struct IEntryPoint.AggregatorStakeInfo",
          "name": "aggregatorInfo",
          "type": "tuple"
        }
      ],
      "name": "ValidationResultWithAggregation",
      "type": "error"
    },
    {
      "anonymous": false,
      "inputs": [
        {
          "indexed": true,
          "internalType": "bytes32",
          "name": "userOpHash",
          "type": "bytes32"
        },
        {
          "indexed": true,
          "internalType": "address",
          "name": "sender",
          "type": "address"
        },
        {
          "indexed": false,
          "internalType": "address",
          "name": "factory",
          "type": "address"
        },
        {
          "indexed": false,
          "internalType": "address",
          "name": "paymaster",
          "type": "address"
        }
      ],
      "name": "AccountDeployed",
      "type": "event"
    },
    {
      "anonymous": false,
      "inputs": [
        {
          "indexed": true,
          "internalType": "address",
          "name": "account",
          "type": "address"
        },
        {
          "indexed": false,
          "internalType": "uint256",
          "name": "totalDeposit",
          "type": "uint256"
        }
      ],
      "name": "Deposited",
      "type": "event"
    },
    {
      "anonymous": false,
      "inputs": [
        {
          "indexed": false,
          "internalType": "address",
          "name": "aggregator",
          "type": "address"
        }
      ],
      "name": "SignatureAggregatorChanged",
      "type": "event"
    },
    {
      "anonymous": false,
      "inputs": [
        {
          "indexed": true,
          "internalType": "address",
          "name": "account",
          "type": "address"
        },
        {
          "indexed": false,
          "internalType": "uint256",
          "name": "totalStaked",
          "type": "uint256"
        },
        {
          "indexed": false,
          "internalType": "uint256",
          "name": "withdrawTime",
          "type": "uint256"
        }
      ],
      "name": "StakeLocked",
      "type": "event"
    },
    {
      "anonymous": false,
      "inputs": [
        {
          "indexed": true,
          "internalType": "address",
          "name": "account",
          "type": "address"
        },
        {
          "indexed": false,
          "internalType": "uint256",
          "name": "withdrawTime",
          "type": "uint256"
        }
      ],
      "name": "StakeUnlocked",
      "type": "event"
    },
    {
      "anonymous": false,
      "inputs": [
        {
          "indexed": true,
          "internalType": "address",
          "name": "account",
          "type": "address"
        },
        {
          "indexed": false,
          "internalType": "address",
          "name": "withdrawAddress",
          "type": "address"
        },
        {
          "indexed": false,
          "internalType": "uint256",
          "name": "amount",
          "type": "uint256"
        }
      ],
      "name": "StakeWithdrawn",
      "type": "event"
    },
    {
      "anonymous": false,
      "inputs": [
        {
          "indexed": true,
          "internalType": "bytes32",
          "name": "userOpHash",
          "type": "bytes32"
        },
        {
          "indexed": true,
          "internalType": "address",
          "name": "sender",
          "type": "address"
        },
        {
          "indexed": true,
          "internalType": "address",
          "name": "paymaster",
          "type": "address"
        },
        {
          "indexed": false,
          "internalType": "uint256",
          "name": "nonce",
          "type": "uint256"
        },
        {
          "indexed": false,
          "internalType": "bool",
          "name": "success",
          "type": "bool"
        },
        {
          "indexed": false,
          "internalType": "uint256",
          "name": "actualGasCost",
          "type": "uint256"
        },
        {
          "indexed": false,
          "internalType": "uint256",
          "name": "actualGasUsed",
          "type": "uint256"
        }
      ],
      "name": "UserOperationEvent",
      "type": "event"
    },
    {
      "anonymous": false,
      "inputs": [
        {
          "indexed": true,
          "internalType": "bytes32",
          "name": "userOpHash",
          "type": "bytes32"
        },
        {
          "indexed": true,
          "internalType": "address",
          "name": "sender",
          "type": "address"
        },
        {
          "indexed": false,
          "internalType": "uint256",
          "name": "nonce",
          "type": "uint256"
        },
        {
          "indexed": false,
          "internalType": "bytes",
          "name": "revertReason",
          "type": "bytes"
        }
      ],
      "name": "UserOperationRevertReason",
      "type": "event"
    },
    {
      "anonymous": false,
      "inputs": [
        {
          "indexed": true,
          "internalType": "address",
          "name": "account",
          "type": "address"
        },
        {
          "indexed": false,
          "internalType": "address",
          "name": "withdrawAddress",
          "type": "address"
        },
        {
          "indexed": false,
          "internalType": "uint256",
          "name": "amount",
          "type": "uint256"
        }
      ],
      "name": "Withdrawn",
      "type": "event"
    },
    {
      "inputs": [],
      "name": "SIG_VALIDATION_FAILED",
      "outputs": [
        {
          "internalType": "uint256",
          "name": "",
          "type": "uint256"
        }
      ],
      "stateMutability": "view",
      "type": "function"
    },
    {
      "inputs": [
        {
          "internalType": "address",
          "name": "sender",
          "type": "address"
        },
        {
          "internalType": "address",
          "name": "paymaster",
          "type": "address"
        }
      ],
      "name": "_simulateFindAggregator",
      "outputs": [],
      "stateMutability": "view",
      "type": "function"
    },
    {
      "inputs": [
        {
          "internalType": "uint32",
          "name": "_unstakeDelaySec",
          "type": "uint32"
        }
      ],
      "name": "addStake",
      "outputs": [],
      "stateMutability": "payable",
      "type": "function"
    },
    {
      "inputs": [
        {
          "internalType": "address",
          "name": "account",
          "type": "address"
        }
      ],
      "name": "balanceOf",
      "outputs": [
        {
          "internalType": "uint256",
          "name": "",
          "type": "uint256"
        }
      ],
      "stateMutability": "view",
      "type": "function"
    },
    {
      "inputs": [
        {
          "internalType": "address",
          "name": "account",
          "type": "address"
        }
      ],
      "name": "depositTo",
      "outputs": [],
      "stateMutability": "payable",
      "type": "function"
    },
    {
      "inputs": [
        {
          "internalType": "address",
          "name": "",
          "type": "address"
        }
      ],
      "name": "deposits",
      "outputs": [
        {
          "internalType": "uint112",
          "name": "deposit",
          "type": "uint112"
        },
        {
          "internalType": "bool",
          "name": "staked",
          "type": "bool"
        },
        {
          "internalType": "uint112",
          "name": "stake",
          "type": "uint112"
        },
        {
          "internalType": "uint32",
          "name": "unstakeDelaySec",
          "type": "uint32"
        },
        {
          "internalType": "uint64",
          "name": "withdrawTime",
          "type": "uint64"
        }
      ],
      "stateMutability": "view",
      "type": "function"
    },
    {
      "inputs": [
        {
          "internalType": "address",
          "name": "account",
          "type": "address"
        }
      ],
      "name": "getDepositInfo",
      "outputs": [
        {
          "components": [
            {
              "internalType": "uint112",
              "name": "deposit",
              "type": "uint112"
            },
            {
              "internalType": "bool",
              "name": "staked",
              "type": "bool"
            },
            {
              "internalType": "uint112",
              "name": "stake",
              "type": "uint112"
            },
            {
              "internalType": "uint32",
              "name": "unstakeDelaySec",
              "type": "uint32"
            },
            {
              "internalType": "uint64",
              "name": "withdrawTime",
              "type": "uint64"
            }
          ],
          "internalType": "struct IStakeManager.DepositInfo",
          "name": "info",
          "type": "tuple"
        }
      ],
      "stateMutability": "view",
      "type": "function"
    },
    {
      "inputs": [
        {
          "internalType": "bytes",
          "name": "initCode",
          "type": "bytes"
        }
      ],
      "name": "getSenderAddress",
      "outputs": [],
      "stateMutability": "nonpayable",
      "type": "function"
    },
    {
      "inputs": [
        {
          "components": [
            {
              "internalType": "address",
              "name": "sender",
              "type": "address"
            },
            {
              "internalType": "uint256",
              "name": "nonce",
              "type": "uint256"
            },
            {
              "internalType": "bytes",
              "name": "initCode",
              "type": "bytes"
            },
            {
              "internalType": "bytes",
              "name": "callData",
              "type": "bytes"
            },
            {
              "internalType": "uint256",
              "name": "callGasLimit",
              "type": "uint256"
            },
            {
              "internalType": "uint256",
              "name": "verificationGasLimit",
              "type": "uint256"
            },
            {
              "internalType": "uint256",
              "name": "preVerificationGas",
              "type": "uint256"
            },
            {
              "internalType": "uint256",
              "name": "maxFeePerGas",
              "type": "uint256"
            },
            {
              "internalType": "uint256",
              "name": "maxPriorityFeePerGas",
              "type": "uint256"
            },
            {
              "internalType": "bytes",
              "name": "paymasterAndData",
              "type": "bytes"
            },
            {
              "internalType": "bytes",
              "name": "signature",
              "type": "bytes"
            }
          ],
          "internalType": "struct UserOperation",
          "name": "userOp",
          "type": "tuple"
        }
      ],
      "name": "getUserOpHash",
      "outputs": [
        {
          "internalType": "bytes32",
          "name": "",
          "type": "bytes32"
        }
      ],
      "stateMutability": "view",
      "type": "function"
    },
    {
      "inputs": [
        {
          "components": [
            {
              "components": [
                {
                  "internalType": "address",
                  "name": "sender",
                  "type": "address"
                },
                {
                  "internalType": "uint256",
                  "name": "nonce",
                  "type": "uint256"
                },
                {
                  "internalType": "bytes",
                  "name": "initCode",
                  "type": "bytes"
                },
                {
                  "internalType": "bytes",
                  "name": "callData",
                  "type": "bytes"
                },
                {
                  "internalType": "uint256",
                  "name": "callGasLimit",
                  "type": "uint256"
                },
                {
                  "internalType": "uint256",
                  "name": "verificationGasLimit",
                  "type": "uint256"
                },
                {
                  "internalType": "uint256",
                  "name": "preVerificationGas",
                  "type": "uint256"
                },
                {
                  "internalType": "uint256",
                  "name": "maxFeePerGas",
                  "type": "uint256"
                },
                {
                  "internalType": "uint256",
                  "name": "maxPriorityFeePerGas",
                  "type": "uint256"
                },
                {
                  "internalType": "bytes",
                  "name": "paymasterAndData",
                  "type": "bytes"
                },
                {
                  "internalType": "bytes",
                  "name": "signature",
                  "type": "bytes"
                }
              ],
              "internalType": "struct UserOperation[]",
              "name": "userOps",
              "type": "tuple[]"
            },
            {
              "internalType": "contract IAggregator",
              "name": "aggregator",
              "type": "address"
            },
            {
              "internalType": "bytes",
              "name": "signature",
              "type": "bytes"
            }
          ],
          "internalType": "struct IEntryPoint.UserOpsPerAggregator[]",
          "name": "opsPerAggregator",
          "type": "tuple[]"
        },
        {
          "internalType": "address payable",
          "name": "beneficiary",
          "type": "address"
        }
      ],
      "name": "handleAggregatedOps",
      "outputs": [],
      "stateMutability": "nonpayable",
      "type": "function"
    },
    {
      "inputs": [
        {
          "components": [
            {
              "internalType": "address",
              "name": "sender",
              "type": "address"
            },
            {
              "internalType": "uint256",
              "name": "nonce",
              "type": "uint256"
            },
            {
              "internalType": "bytes",
              "name": "initCode",
              "type": "bytes"
            },
            {
              "internalType": "bytes",
              "name": "callData",
              "type": "bytes"
            },
            {
              "internalType": "uint256",
              "name": "callGasLimit",
              "type": "uint256"
            },
            {
              "internalType": "uint256",
              "name": "verificationGasLimit",
              "type": "uint256"
            },
            {
              "internalType": "uint256",
              "name": "preVerificationGas",
              "type": "uint256"
            },
            {
              "internalType": "uint256",
              "name": "maxFeePerGas",
              "type": "uint256"
            },
            {
              "internalType": "uint256",
              "name": "maxPriorityFeePerGas",
              "type": "uint256"
            },
            {
              "internalType": "bytes",
              "name": "paymasterAndData",
              "type": "bytes"
            },
            {
              "internalType": "bytes",
              "name": "signature",
              "type": "bytes"
            }
          ],
          "internalType": "struct UserOperation[]",
          "name": "ops",
          "type": "tuple[]"
        },
        {
          "internalType": "address payable",
          "name": "beneficiary",
          "type": "address"
        }
      ],
      "name": "handleOps",
      "outputs": [],
      "stateMutability": "nonpayable",
      "type": "function"
    },
    {
      "inputs": [
        {
          "internalType": "bytes",
          "name": "callData",
          "type": "bytes"
        },
        {
          "components": [
            {
              "components": [
                {
                  "internalType": "address",
                  "name": "sender",
                  "type": "address"
                },
                {
                  "internalType": "uint256",
                  "name": "nonce",
                  "type": "uint256"
                },
                {
                  "internalType": "uint256",
                  "name": "callGasLimit",
                  "type": "uint256"
                },
                {
                  "internalType": "uint256",
                  "name": "verificationGasLimit",
                  "type": "uint256"
                },
                {
                  "internalType": "uint256",
                  "name": "preVerificationGas",
                  "type": "uint256"
                },
                {
                  "internalType": "address",
                  "name": "paymaster",
                  "type": "address"
                },
                {
                  "internalType": "uint256",
                  "name": "maxFeePerGas",
                  "type": "uint256"
                },
                {
                  "internalType": "uint256",
                  "name": "maxPriorityFeePerGas",
                  "type": "uint256"
                }
              ],
              "internalType": "struct EntryPoint.MemoryUserOp",
              "name": "mUserOp",
              "type": "tuple"
            },
            {
              "internalType": "bytes32",
              "name": "userOpHash",
              "type": "bytes32"
            },
            {
              "internalType": "uint256",
              "name": "prefund",
              "type": "uint256"
            },
            {
              "internalType": "uint256",
              "name": "contextOffset",
              "type": "uint256"
            },
            {
              "internalType": "uint256",
              "name": "preOpGas",
              "type": "uint256"
            }
          ],
          "internalType": "struct EntryPoint.UserOpInfo",
          "name": "opInfo",
          "type": "tuple"
        },
        {
          "internalType": "bytes",
          "name": "context",
          "type": "bytes"
        }
      ],
      "name": "innerHandleOp",
      "outputs": [
        {
          "internalType": "uint256",
          "name": "actualGasCost",
          "type": "uint256"
        }
      ],
      "stateMutability": "nonpayable",
      "type": "function"
    },
    {
      "inputs": [
        {
          "components": [
            {
              "internalType": "address",
              "name": "sender",
              "type": "address"
            },
            {
              "internalType": "uint256",
              "name": "nonce",
              "type": "uint256"
            },
            {
              "internalType": "bytes",
              "name": "initCode",
              "type": "bytes"
            },
            {
              "internalType": "bytes",
              "name": "callData",
              "type": "bytes"
            },
            {
              "internalType": "uint256",
              "name": "callGasLimit",
              "type": "uint256"
            },
            {
              "internalType": "uint256",
              "name": "verificationGasLimit",
              "type": "uint256"
            },
            {
              "internalType": "uint256",
              "name": "preVerificationGas",
              "type": "uint256"
            },
            {
              "internalType": "uint256",
              "name": "maxFeePerGas",
              "type": "uint256"
            },
            {
              "internalType": "uint256",
              "name": "maxPriorityFeePerGas",
              "type": "uint256"
            },
            {
              "internalType": "bytes",
              "name": "paymasterAndData",
              "type": "bytes"
            },
            {
              "internalType": "bytes",
              "name": "signature",
              "type": "bytes"
            }
          ],
          "internalType": "struct UserOperation",
          "name": "op",
          "type": "tuple"
        },
        {
          "internalType": "address",
          "name": "target",
          "type": "address"
        },
        {
          "internalType": "bytes",
          "name": "targetCallData",
          "type": "bytes"
        }
      ],
      "name": "simulateHandleOp",
      "outputs": [],
      "stateMutability": "nonpayable",
      "type": "function"
    },
    {
      "inputs": [
        {
          "components": [
            {
              "internalType": "address",
              "name": "sender",
              "type": "address"
            },
            {
              "internalType": "uint256",
              "name": "nonce",
              "type": "uint256"
            },
            {
              "internalType": "bytes",
              "name": "initCode",
              "type": "bytes"
            },
            {
              "internalType": "bytes",
              "name": "callData",
              "type": "bytes"
            },
            {
              "internalType": "uint256",
              "name": "callGasLimit",
              "type": "uint256"
            },
            {
              "internalType": "uint256",
              "name": "verificationGasLimit",
              "type": "uint256"
            },
            {
              "internalType": "uint256",
              "name": "preVerificationGas",
              "type": "uint256"
            },
            {
              "internalType": "uint256",
              "name": "maxFeePerGas",
              "type": "uint256"
            },
            {
              "internalType": "uint256",
              "name": "maxPriorityFeePerGas",
              "type": "uint256"
            },
            {
              "internalType": "bytes",
              "name": "paymasterAndData",
              "type": "bytes"
            },
            {
              "internalType": "bytes",
              "name": "signature",
              "type": "bytes"
            }
          ],
          "internalType": "struct UserOperation",
          "name": "userOp",
          "type": "tuple"
        }
      ],
      "name": "simulateValidation",
      "outputs": [],
      "stateMutability": "nonpayable",
      "type": "function"
    },
    {
      "inputs": [],
      "name": "unlockStake",
      "outputs": [],
      "stateMutability": "nonpayable",
      "type": "function"
    },
    {
      "inputs": [
        {
          "internalType": "address payable",
          "name": "withdrawAddress",
          "type": "address"
        }
      ],
      "name": "withdrawStake",
      "outputs": [],
      "stateMutability": "nonpayable",
      "type": "function"
    },
    {
      "inputs": [
        {
          "internalType": "address payable",
          "name": "withdrawAddress",
          "type": "address"
        },
        {
          "internalType": "uint256",
          "name": "withdrawAmount",
          "type": "uint256"
        }
      ],
      "name": "withdrawTo",
      "outputs": [],
      "stateMutability": "nonpayable",
      "type": "function"
    },
    {
      "stateMutability": "payable",
      "type": "receive"
    }
  ],
  "bytecode": "0x60a0604052604051620000129062000076565b604051809103906000f0801580156200002f573d6000803e3d6000fd5b5073ffffffffffffffffffffffffffffffffffffffff1660809073ffffffffffffffffffffffffffffffffffffffff168152503480156200006f57600080fd5b5062000084565b61046f806200a20783390190565b60805161a160620000a76000396000818161220c0152616a50015261a1606000f3fe6080604052600436106101025760003560e01c80639b249f6911610095578063bb9fe6bf11610064578063bb9fe6bf1461034f578063c23a5cea14610366578063d6383f941461038f578063ee219423146103b8578063fc7e286d146103e157610126565b80639b249f69146102a4578063a47a3fbc146102cd578063a6193531146102f6578063b760faf91461033357610126565b80634b1d7cf5116100d15780634b1d7cf5146101d65780635287ce12146101ff57806370a082311461023c5780638f41ec5a1461027957610126565b80630396cb601461012b5780631d732756146101475780631fad948c14610184578063205c2878146101ad57610126565b366101265761011b671e30f2d9228d6b8a60c01b610422565b61012433610425565b005b600080fd5b61014560048036038101906101409190616fd3565b61056d565b005b34801561015357600080fd5b5061016e600480360381019061016991906173d0565b610b09565b60405161017b9190617471565b60405180910390f35b34801561019057600080fd5b506101ab60048036038101906101a69190617520565b61104a565b005b3480156101b957600080fd5b506101d460048036038101906101cf9190617580565b611348565b005b3480156101e257600080fd5b506101fd60048036038101906101f89190617616565b6116ad565b005b34801561020b57600080fd5b5061022660048036038101906102219190617676565b611f9d565b6040516102339190617781565b60405180910390f35b34801561024857600080fd5b50610263600480360381019061025e9190617676565b61212c565b6040516102709190617471565b60405180910390f35b34801561028557600080fd5b5061028e6121dd565b60405161029b9190617471565b60405180910390f35b3480156102b057600080fd5b506102cb60048036038101906102c6919061779c565b6121e2565b005b3480156102d957600080fd5b506102f460048036038101906102ef91906177e9565b6122e4565b005b34801561030257600080fd5b5061031d6004803603810190610318919061784e565b6126a7565b60405161032a91906178a6565b60405180910390f35b61034d60048036038101906103489190617676565b610425565b005b34801561035b57600080fd5b5061036461271f565b005b34801561037257600080fd5b5061038d600480360381019061038891906178c1565b612a28565b005b34801561039b57600080fd5b506103b660048036038101906103b191906178ee565b612f63565b005b3480156103c457600080fd5b506103df60048036038101906103da919061784e565b61327a565b005b3480156103ed57600080fd5b5061040860048036038101906104039190617676565b61370a565b6040516104199594939291906179ba565b60405180910390f35b50565b610439675e5a30754c476f7160c01b610422565b61044d67db2663185685f96c60c01b610422565b6104616793d969e0941e61c960c01b610422565b61046b81346137a5565b61047f6702d3e997d02da41f60c01b610422565b610493679dcd0a90581b845260c01b610422565b60008060008373ffffffffffffffffffffffffffffffffffffffff1673ffffffffffffffffffffffffffffffffffffffff16815260200190815260200160002090506104e9672c2740e4cb8d937660c01b610422565b6104fd6798e4d93dda861bc660c01b610422565b8173ffffffffffffffffffffffffffffffffffffffff167f2da466a7b24304f47e87fa2e1e5a81b9831ce54fec19055ce277ca2f39ba42c48260000160009054906101000a90046dffffffffffffffffffffffffffff166040516105619190617a48565b60405180910390a25050565b61058167b0b7d336a0bb7a6d60c01b610422565b61059567c78401355a26567460c01b610422565b6105a9679f17f63be099fd7360c01b610422565b60008060003373ffffffffffffffffffffffffffffffffffffffff1673ffffffffffffffffffffffffffffffffffffffff16815260200190815260200160002090506105ff6758d770ce8d5371f860c01b610422565b61061367bd0a20bb2b6b182a60c01b610422565b6106276749eacab164e275e160c01b610422565b60008263ffffffff1611610670576040517f08c379a000000000000000000000000000000000000000000000000000000000815260040161066790617ac0565b60405180910390fd5b6106846772e0c727614ff2c260c01b610422565b61069867f478211a6df522ed60c01b610422565b6106ac67ea64cde96e54009d60c01b610422565b6106c067d7e4dc364a4cefed60c01b610422565b8060010160009054906101000a900463ffffffff1663ffffffff168263ffffffff161015610723576040517f08c379a000000000000000000000000000000000000000000000000000000000815260040161071a90617b2c565b60405180910390fd5b61073767dd04fc6eebbf727c60c01b610422565b61074b67b9ff70cdf3f4388a60c01b610422565b61075f67c47a56c438862ce860c01b610422565b60003482600001600f9054906101000a90046dffffffffffffffffffffffffffff166dffffffffffffffffffffffffffff1661079b9190617b7b565b90506107b167668b20cf7a26100760c01b610422565b6107c567ff718aa01d6294fb60c01b610422565b6107d967cd043f43d3a8105160c01b610422565b6000811161081c576040517f08c379a000000000000000000000000000000000000000000000000000000000815260040161081390617c1d565b60405180910390fd5b61083067d7a84415d7d02f4260c01b610422565b61084467b5713d6993058cd660c01b610422565b61085867dd4e03ec8e42ee2860c01b610422565b61086c6794a14586dfa6ef3f60c01b610422565b6dffffffffffffffffffffffffffff801681106108be576040517f08c379a00000000000000000000000000000000000000000000000000000000081526004016108b590617c89565b60405180910390fd5b6108d267efb82b206825fcfa60c01b610422565b6108e6679f879f363de8f1c560c01b610422565b6040518060a001604052808360000160009054906101000a90046dffffffffffffffffffffffffffff166dffffffffffffffffffffffffffff168152602001600115158152602001826dffffffffffffffffffffffffffff1681526020018463ffffffff168152602001600067ffffffffffffffff168152506000803373ffffffffffffffffffffffffffffffffffffffff1673ffffffffffffffffffffffffffffffffffffffff16815260200190815260200160002060008201518160000160006101000a8154816dffffffffffffffffffffffffffff02191690836dffffffffffffffffffffffffffff160217905550602082015181600001600e6101000a81548160ff021916908315150217905550604082015181600001600f6101000a8154816dffffffffffffffffffffffffffff02191690836dffffffffffffffffffffffffffff16021790555060608201518160010160006101000a81548163ffffffff021916908363ffffffff16021790555060808201518160010160046101000a81548167ffffffffffffffff021916908367ffffffffffffffff160217905550905050610aa067d144062e30c0fbb060c01b610422565b610ab467316f4380446baf2160c01b610422565b3373ffffffffffffffffffffffffffffffffffffffff167fa5ae833d0bb1dcd632d98a8b70973e8516812898e19bf27b70071ebc8dc52c018285604051610afc929190617cda565b60405180910390a2505050565b6000610b1f677731a7ce609c49c860c01b61397d565b610b336775ab2b94c1fbcb7160c01b61397d565b610b476701d4585d2614f9ba60c01b61397d565b60005a9050610b60675263c60d830fe81a60c01b61397d565b610b7467146704a1a41afcc160c01b61397d565b610b8867bfbe03bebbd419dc60c01b61397d565b3073ffffffffffffffffffffffffffffffffffffffff163373ffffffffffffffffffffffffffffffffffffffff1614610bf6576040517f08c379a0000000000000000000000000000000000000000000000000000000008152600401610bed90617d4f565b60405180910390fd5b610c0a672a741e60ca5320cc60c01b61397d565b610c1e67682c946751a165b260c01b61397d565b610c3267ed2c76328c3d399c60c01b61397d565b600085600001519050610c4f67bdfbebb549f0ba0960c01b61397d565b610c636703cc059767cd05c260c01b61397d565b600081604001519050610c80678ed123c58a4047b460c01b61397d565b610c9467add97596d3e89bb660c01b61397d565b610ca867994174a8aaa8412a60c01b61397d565b61138882606001518201015a1015610d0c57610cce67c84a3c720c2a081a60c01b61397d565b610ce2677101f157f8d6d0dc60c01b61397d565b7fdeaddead0000000000000000000000000000000000000000000000000000000060005260206000fd5b610d20679952989ff7f2bc6b60c01b61397d565b610d3467a350f3ec033540ff60c01b61397d565b610d486752c229b6af8d9b0460c01b61397d565b6000610d5e6770f32f348681ee1060c01b61397d565b610d7267a3034ebf3dd4987060c01b61397d565b600089511115610f6357610d9067b7f5f377564f89b060c01b61397d565b610da467384a34e8d24f011a60c01b61397d565b610db867d7c4445e91f4acba60c01b61397d565b6000610dcb846000015160008c86613980565b9050610de1670c45a065d0c325c160c01b61397d565b610df567a28e9d67e62ed59a60c01b61397d565b80610f4857610e0e6735f0aa33fae298e460c01b61397d565b610e2267456b851dd767aea160c01b61397d565b610e3667c871437d8bb2b66360c01b61397d565b6000610e436108006139c1565b9050610e5967246f1013daec789060c01b61397d565b610e6d67d40f586e318ef8f460c01b61397d565b600081511115610f1557610e8b67ebe54ed90b4ca38760c01b61397d565b610e9f6749885321acb7079860c01b61397d565b610eb367687f0d0bb04f21b360c01b61397d565b846000015173ffffffffffffffffffffffffffffffffffffffff168a602001517f1c4fada7374c0a9ee8841fc38afe82932dc0f8e69012e927f061a8bae611a201876020015184604051610f08929190617df7565b60405180910390a3610f2a565b610f296774ad5669084b503c60c01b61397d565b5b610f3e67be44b4cae688a5c660c01b61397d565b6001925050610f5d565b610f5c6753b7d5ab0860334360c01b61397d565b5b50610f78565b610f7767e6a1ea99d8562db660c01b61397d565b5b610f8c671985253c2f83daea60c01b61397d565b610fa067ed0f0c09630eb1f260c01b61397d565b610fb4677a8fb8c954e366c760c01b61397d565b600088608001515a8603019050610fd5677d7e9262b2e5660060c01b61397d565b610fe967f596a0d41adea94360c01b61397d565b61103b6000838b8b8b8080601f016020809104026020016040519081016040528093929190818152602001838380828437600081840152601f19601f8201169050808301925050505050505085613a19565b95505050505050949350505050565b61105e67a7448500f9fe546160c01b61397d565b61107267f91c4168de9b576760c01b61397d565b6110866773ed0f369e6a085b60c01b61397d565b60008383905090506110a267bc574d1d015ef47760c01b61397d565b6110b66752b6f21189442bc260c01b61397d565b60008167ffffffffffffffff8111156110d2576110d161701b565b5b60405190808252806020026020018201604052801561110b57816020015b6110f8616e5f565b8152602001906001900390816110f05790505b509050611122675f9ead17d1eaacb660c01b61397d565b611136671c1cccbc0ba1f28460c01b61397d565b61114a67af6a1daca0e49fe260c01b61397d565b60005b8281101561124157611169676a12ea7775e7399760c01b61397d565b61117d675badcdf62dc6c70c60c01b61397d565b600082828151811061119257611191617e27565b5b602002602001015190506111b06731af55975a1bf28260c01b61397d565b6111c467edae075382940dd960c01b61397d565b6000806111f8848a8a878181106111de576111dd617e27565b5b90506020028101906111f09190617e65565b85600061413c565b509150915061121167e025af8feabd0ec160c01b61397d565b61122567b4b67723263d525b60c01b61397d565b61123184848484614605565b505050808060010191505061114d565b506112566734c7a49241bf19b460c01b61397d565b61126a67cefbe288342c5a8860c01b61397d565b60006112806772c0b96f867de0d460c01b61397d565b611294678e204d860c3e3c1060c01b61397d565b60005b8381101561130d576112b367f6415c4970a7ac2c60c01b61397d565b6112fc818888848181106112ca576112c9617e27565b5b90506020028101906112dc9190617e65565b8584815181106112ef576112ee617e27565b5b6020026020010151614930565b820191508080600101915050611297565b5061132267e376290a70fba0c160c01b61397d565b61133667ce2544a78fd529a060c01b61397d565b6113408482614c10565b505050505050565b61135c671eba31f9394e6cc160c01b610422565b61137067f6d4a070a875637a60c01b610422565b611384676a5a2ee13c18352960c01b610422565b60008060003373ffffffffffffffffffffffffffffffffffffffff1673ffffffffffffffffffffffffffffffffffffffff16815260200190815260200160002090506113da67e201136e1095162460c01b610422565b6113ee67207b788cd4e173fb60c01b610422565b611402670570775c13c343a560c01b610422565b8060000160009054906101000a90046dffffffffffffffffffffffffffff166dffffffffffffffffffffffffffff16821115611473576040517f08c379a000000000000000000000000000000000000000000000000000000000815260040161146a90617eda565b60405180910390fd5b61148767dba46165b363615960c01b610422565b61149b676f4f7a18a970dc1860c01b610422565b818160000160009054906101000a90046dffffffffffffffffffffffffffff166dffffffffffffffffffffffffffff166114d59190617efa565b8160000160006101000a8154816dffffffffffffffffffffffffffff02191690836dffffffffffffffffffffffffffff16021790555061151f67883cc2a776897c8060c01b610422565b6115336787d477a46cd355d760c01b610422565b3373ffffffffffffffffffffffffffffffffffffffff167fd1c19fbcd4551a5edfb66d43d2e337c04837afda3482b42bdf569a8fccdae5fb848460405161157b929190617f83565b60405180910390a261159767fd5b052b9bac41ae60c01b610422565b6115ab67df15b3a9a8668eab60c01b610422565b60008373ffffffffffffffffffffffffffffffffffffffff16836040516115d190617fdd565b60006040518083038185875af1925050503d806000811461160e576040519150601f19603f3d011682016040523d82523d6000602084013e611613565b606091505b5050905061162b673c5bf6721979db8660c01b610422565b61163f6741316a0212570a7660c01b610422565b611653679eb692277b169d8360c01b610422565b80611693576040517f08c379a000000000000000000000000000000000000000000000000000000000815260040161168a9061803e565b60405180910390fd5b6116a76772603cd3e181ae5960c01b610422565b50505050565b6116c167d093d319784939f660c01b61397d565b6116d567d66bb72f1627d1e560c01b61397d565b6116e9679abba19d16ab70bf60c01b61397d565b600083839050905061170567583373853070525160c01b61397d565b611719671e610db75e19c02f60c01b61397d565b600061172f676016f7e6b032c68f60c01b61397d565b611743672efbc4ca12f111bb60c01b61397d565b60005b828110156117b857611762676766bfa9b0403a6360c01b61397d565b85858281811061177557611774617e27565b5b9050602002810190611787919061805e565b80600001906117969190618086565b9050826117a39190617b7b565b915080806117b0906180e9565b915050611746565b506117cd677c0632a2701bd1a660c01b61397d565b6117e167793118d2f2ff41c060c01b61397d565b60008167ffffffffffffffff8111156117fd576117fc61701b565b5b60405190808252806020026020018201604052801561183657816020015b611823616e5f565b81526020019060019003908161181b5790505b50905061184d671d5f3cf771d95e2c60c01b61397d565b61186167dd05cca263e4779c60c01b61397d565b600061187767f29d0a8b55a67a5160c01b61397d565b61188b67e4afec603eddfd0860c01b61397d565b60005b84811015611c70576118aa67cb1ff5aa158abf3660c01b61397d565b6118be674283342df3580c1460c01b61397d565b368888838181106118d2576118d1617e27565b5b90506020028101906118e4919061805e565b90506118fa6736fc2b19d36707c160c01b61397d565b61190e673b2939de74cb021f60c01b61397d565b3660008280600001906119219190618086565b9150915061193967bec1cd9ae042436f60c01b61397d565b61194d6716a7ecdbd03a811160c01b61397d565b60008360200160208101906119629190618170565b9050611978672f310746976abb0860c01b61397d565b61198c67d26dc069e5e8247660c01b61397d565b60008383905090506119a8674ef4331dc807bcc660c01b61397d565b6119bc6736712ef511201bc360c01b61397d565b60005b81811015611ada576119db6733d69ce0191d721460c01b61397d565b6119ef67d6ff1f9f31b3095360c01b61397d565b6000898981518110611a0457611a03617e27565b5b60200260200101519050611a2267946716ba5dea144a60c01b61397d565b611a3667253341778a37429a60c01b61397d565b600080611a698b898987818110611a5057611a4f617e27565b5b9050602002810190611a629190617e65565b858961413c565b5091509150611a826766ca5ea22900302f60c01b61397d565b611a9667b1518f6725f22cac60c01b61397d565b611aa284848484614605565b611ab667aa0c3d947fdd339b60c01b61397d565b8a80611ac1906180e9565b9b50505050508080611ad2906180e9565b9150506119bf565b50611aef671e80edd6f45efd7a60c01b61397d565b611b0367e406e2806429154a60c01b61397d565b600073ffffffffffffffffffffffffffffffffffffffff168273ffffffffffffffffffffffffffffffffffffffff1614611c4357611b4b67aea26780423b454560c01b61397d565b611b5f675bb9145f245840e160c01b61397d565b611b7367df69177c4276605c60c01b61397d565b8173ffffffffffffffffffffffffffffffffffffffff1663e3563a4f8585888060400190611ba1919061819d565b6040518563ffffffff1660e01b8152600401611bc09493929190618566565b60006040518083038186803b158015611bd857600080fd5b505afa925050508015611be9575060015b611c3e57611c016762a8a791241ed01d60c01b61397d565b816040517f86a9f750000000000000000000000000000000000000000000000000000000008152600401611c3591906185b0565b60405180910390fd5b611c58565b611c5767d4ed318f2ecfb11060c01b61397d565b5b50505050508080611c68906180e9565b91505061188e565b50611c856766c531d4eeaf4c7260c01b61397d565b611c9967119fda911122335260c01b61397d565b6000611caf673be7a33504dac70f60c01b61397d565b60009150611cc767b0bc1a0e51f33d4460c01b61397d565b611cdb67b9909e711fbeff6560c01b61397d565b60005b85811015611f0057611cfa67a8e8b66d2e9403c860c01b61397d565b611d0e6721e2bbd68af4829b60c01b61397d565b36898983818110611d2257611d21617e27565b5b9050602002810190611d34919061805e565b9050611d4a671cbd620d4a8a853660c01b61397d565b611d5e6730a32e486ef2745b60c01b61397d565b7f575ff3acadd5ab348fe1855e217e0f3678f8d767d7494c9f9fefbee2e17cca4d816020016020810190611d929190618170565b604051611d9f91906185b0565b60405180910390a1611dbb672030c689dedc58ef60c01b61397d565b611dcf679ab5c115767f4b7060c01b61397d565b366000828060000190611de29190618086565b91509150611dfa67486e7aa95de8a89060c01b61397d565b611e0e6743c4dbad7edf6b3d60c01b61397d565b6000828290509050611e2a671752f7fd131eccb160c01b61397d565b611e3e675bde3f31790ca62060c01b61397d565b60005b81811015611ee857611e5d67eb845d5d51e1c32c60c01b61397d565b611ea688858584818110611e7457611e73617e27565b5b9050602002810190611e869190617e65565b8b8b81518110611e9957611e98617e27565b5b6020026020010151614930565b87611eb19190617b7b565b9650611ec767ebce58275291e63860c01b61397d565b8780611ed2906180e9565b9850508080611ee0906180e9565b915050611e41565b50505050508080611ef8906180e9565b915050611cde565b50611f1567897374e345d3edfa60c01b61397d565b611f296778fbe5aa2106dd8b60c01b61397d565b7f575ff3acadd5ab348fe1855e217e0f3678f8d767d7494c9f9fefbee2e17cca4d6000604051611f5991906185b0565b60405180910390a1611f7567f3e98ddefb83f38e60c01b61397d565b611f8967b69c0bef6580814460c01b61397d565b611f938682614c10565b5050505050505050565b611fa5616e97565b611fb9671d4147a00017bd6a60c01b610422565b611fcd673fae2f0fcfbaafb360c01b610422565b611fe167a7388ed1311a8a3060c01b610422565b6000808373ffffffffffffffffffffffffffffffffffffffff1673ffffffffffffffffffffffffffffffffffffffff1681526020019081526020016000206040518060a00160405290816000820160009054906101000a90046dffffffffffffffffffffffffffff166dffffffffffffffffffffffffffff166dffffffffffffffffffffffffffff16815260200160008201600e9054906101000a900460ff1615151515815260200160008201600f9054906101000a90046dffffffffffffffffffffffffffff166dffffffffffffffffffffffffffff166dffffffffffffffffffffffffffff1681526020016001820160009054906101000a900463ffffffff1663ffffffff1663ffffffff1681526020016001820160049054906101000a900467ffffffffffffffff1667ffffffffffffffff1667ffffffffffffffff16815250509050919050565b600061214267d078cfda15d820bb60c01b610422565b61215667467bd1c97b52dec460c01b610422565b61216a672f1da1b6c38fe82a60c01b610422565b6000808373ffffffffffffffffffffffffffffffffffffffff1673ffffffffffffffffffffffffffffffffffffffff16815260200190815260200160002060000160009054906101000a90046dffffffffffffffffffffffffffff166dffffffffffffffffffffffffffff169050919050565b600181565b6121f6678e1a2ec09084183160c01b61397d565b61220a67544a1abf9606b8b660c01b61397d565b7f000000000000000000000000000000000000000000000000000000000000000073ffffffffffffffffffffffffffffffffffffffff1663570e1a3683836040518363ffffffff1660e01b81526004016122659291906185cb565b6020604051808303816000875af1158015612284573d6000803e3d6000fd5b505050506040513d601f19601f820116820180604052508101906122a89190618604565b6040517f6ca7b8060000000000000000000000000000000000000000000000000000000081526004016122db91906185b0565b60405180910390fd5b6122f867a8c5f43492d4383760c01b61397d565b61230c67a78d2fc6f679396660c01b61397d565b61232067e157e5f5606d336e60c01b61397d565b61233467779332c1fd952bf860c01b61397d565b3073ffffffffffffffffffffffffffffffffffffffff163373ffffffffffffffffffffffffffffffffffffffff16146123a2576040517f08c379a000000000000000000000000000000000000000000000000000000000815260040161239990617d4f565b60405180910390fd5b6123b667feb04cad5fcd2beb60c01b61397d565b6123ca67b9374b932a896fe060c01b61397d565b6123de678521f1470c1c443860c01b61397d565b60006123f46736a1de4561d4d94960c01b61397d565b61240867ef2fd4229afc9a7260c01b61397d565b60008373ffffffffffffffffffffffffffffffffffffffff163b141561249f5761243c67b76099947373737f60c01b61397d565b612450673cd856146631a9c560c01b61397d565b612464679c31be2cacf38de160c01b61397d565b6040517f08c379a00000000000000000000000000000000000000000000000000000000081526004016124969061867d565b60405180910390fd5b6124b3670cac50e2cbf9aacb60c01b61397d565b6124c767e537e70530f3d88660c01b61397d565b6124db67eafeae2358fb28e260c01b61397d565b600073ffffffffffffffffffffffffffffffffffffffff168273ffffffffffffffffffffffffffffffffffffffff161415801561252f575060008273ffffffffffffffffffffffffffffffffffffffff163b145b156125ab57612548678904509d55819be860c01b61397d565b61255c676b0105c0b60d84d660c01b61397d565b612570670bb1314d8143d6f560c01b61397d565b6040517f08c379a00000000000000000000000000000000000000000000000000000000081526004016125a2906186e9565b60405180910390fd5b6125bf67e5e68bfab84e440760c01b61397d565b6125d36787bf8df4f08f454c60c01b61397d565b6125e76740b12c6b3965b24160c01b61397d565b8273ffffffffffffffffffffffffffffffffffffffff16633ad59dbc6040518163ffffffff1660e01b8152600401602060405180830381865afa92505050801561264f57506040513d601f19601f8201168201806040525081019061264c9190618604565b60015b612670576126676778ff105218e7835960c01b61397d565b60009050612689565b612684674598966fb764add960c01b61397d565b809150505b61269d67814e085948aea04160c01b61397d565b8060005260206000fd5b60006126bd67fe017d3bf33273be60c01b61397d565b6126d16768cb7023b1598c8a60c01b61397d565b6126e567604057ffb22e130f60c01b61397d565b6126ee82614e0d565b304660405160200161270293929190618709565b604051602081830303815290604052805190602001209050919050565b61273367a71e5b954a216b6e60c01b610422565b61274767b2e27d447806a9d260c01b610422565b61275b67c3aeb5da8a4875fa60c01b610422565b60008060003373ffffffffffffffffffffffffffffffffffffffff1673ffffffffffffffffffffffffffffffffffffffff16815260200190815260200160002090506127b167cd21158cc1ce8d9f60c01b610422565b6127c567899964aa6aeded5260c01b610422565b6127d967a9ee11a1687f8cb160c01b610422565b60008160010160009054906101000a900463ffffffff1663ffffffff161415612837576040517f08c379a000000000000000000000000000000000000000000000000000000000815260040161282e9061878c565b60405180910390fd5b61284b6751540480fbdf054360c01b610422565b61285f67f379de6e150a7a3a60c01b610422565b612873678e11585efeabd5c660c01b610422565b61288767bf301432663c5b5960c01b610422565b80600001600e9054906101000a900460ff166128d8576040517f08c379a00000000000000000000000000000000000000000000000000000000081526004016128cf906187f8565b60405180910390fd5b6128ec67b3561928dd5de46160c01b610422565b612900670a94440fb879b3d860c01b610422565b61291467e39faa9a7b9302b860c01b610422565b60008160010160009054906101000a900463ffffffff1663ffffffff164261293c9190618818565b905061295267230c5b488c94454760c01b610422565b808260010160046101000a81548167ffffffffffffffff021916908367ffffffffffffffff16021790555061299167fa8e4f389c905b3360c01b610422565b600082600001600e6101000a81548160ff0219169083151502179055506129c267ef8316e82cc676cf60c01b610422565b6129d667e4eb7a1e955ffa9260c01b610422565b3373ffffffffffffffffffffffffffffffffffffffff167ffa9b3c14cc825c412c9ed81b3ba365a5b459439403f18829e572ed53a4180f0a82604051612a1c9190618887565b60405180910390a25050565b612a3c679f0e8cb6f8f66c8c60c01b610422565b612a506772254aaa8865a34360c01b610422565b612a6467d616ef2115b2c40560c01b610422565b60008060003373ffffffffffffffffffffffffffffffffffffffff1673ffffffffffffffffffffffffffffffffffffffff1681526020019081526020016000209050612aba67b9cb8de34b96f0ff60c01b610422565b612ace67114d6d3be392693260c01b610422565b600081600001600f9054906101000a90046dffffffffffffffffffffffffffff166dffffffffffffffffffffffffffff169050612b15673b89f23558819ca260c01b610422565b612b29679491b8d8b70395ee60c01b610422565b612b3d672b86cd486d0cc06660c01b610422565b60008111612b80576040517f08c379a0000000000000000000000000000000000000000000000000000000008152600401612b77906188ee565b60405180910390fd5b612b9467200229008cb978c560c01b610422565b612ba867b2d0f5c8bd7ae85b60c01b610422565b612bbc676c3e66ce64ac7b3a60c01b610422565b612bd067bf68213db3e4dfbd60c01b610422565b60008260010160049054906101000a900467ffffffffffffffff1667ffffffffffffffff1611612c35576040517f08c379a0000000000000000000000000000000000000000000000000000000008152600401612c2c9061895a565b60405180910390fd5b612c49670d4531b4e544324e60c01b610422565b612c5d67ac28cffb62ee3f0160c01b610422565b612c7167e948ddd1ab432bd460c01b610422565b612c856787305f2868897d8660c01b610422565b428260010160049054906101000a900467ffffffffffffffff1667ffffffffffffffff161115612cea576040517f08c379a0000000000000000000000000000000000000000000000000000000008152600401612ce1906189c6565b60405180910390fd5b612cfe67678d794e5e842ebb60c01b610422565b612d12676fc8ed0d0ac2684560c01b610422565b60008260010160006101000a81548163ffffffff021916908363ffffffff160217905550612d4a679df12a1a7b4c640860c01b610422565b60008260010160046101000a81548167ffffffffffffffff021916908367ffffffffffffffff160217905550612d8966785a93a927fbdc60c01b610422565b600082600001600f6101000a8154816dffffffffffffffffffffffffffff02191690836dffffffffffffffffffffffffffff160217905550612dd567bd742e845db188e860c01b610422565b612de967a65c804d22e671ec60c01b610422565b3373ffffffffffffffffffffffffffffffffffffffff167fb7c918e0e249f999e965cafeb6c664271b3f4317d296461500e71da39f0cbda38483604051612e31929190617f83565b60405180910390a2612e4d676df27747bd8cf03a60c01b610422565b612e61677308f8c7bf40c93260c01b610422565b60008373ffffffffffffffffffffffffffffffffffffffff1682604051612e8790617fdd565b60006040518083038185875af1925050503d8060008114612ec4576040519150601f19603f3d011682016040523d82523d6000602084013e612ec9565b606091505b50509050612ee167d433f62534627ced60c01b610422565b612ef567c6ffb3c7f69f558660c01b610422565b612f09671cd69d4f65423cf160c01b610422565b80612f49576040517f08c379a0000000000000000000000000000000000000000000000000000000008152600401612f4090618a32565b60405180910390fd5b612f5d677652cc309833c3cd60c01b610422565b50505050565b612f776762ea925c274f30f860c01b61397d565b612f8b67b47b2af5c45d1bb960c01b61397d565b612f9f67b13c5b1b3c8f3db560c01b61397d565b612fa7616e5f565b612fbb67b7537aaa75ad7fc660c01b61397d565b612fcf670f5b76e2b62057d160c01b61397d565b600080612fe060008885600161413c565b5091509150612ff967b83aa4483f841ec060c01b61397d565b61300d671ce24b6b0985303060c01b61397d565b60008061301a8484614e62565b9250925050613033672d0aefa166ade73460c01b61397d565b6130476723d6fae851f6ce0160c01b61397d565b61304f614ff3565b61306367c2dd941a9c6b160c60c01b61397d565b61307767b48a849d3f0a9fe260c01b61397d565b600061308560008b88614930565b905061309b6738a38bff617b398360c01b61397d565b6130af671f0dccd400388cd860c01b61397d565b6130b7614ff3565b6130cb672d99032bdfd6af2360c01b61397d565b6130df670186a649a59ec63a60c01b61397d565b60006130f567bc15baf0bd91156260c01b61397d565b61310967d2a4e41c76a83c8160c01b61397d565b606061311f67e311e74d0364068960c01b61397d565b61313367debf593e449d464460c01b61397d565b600073ffffffffffffffffffffffffffffffffffffffff168b73ffffffffffffffffffffffffffffffffffffffff16146132065761317b6703e74490cee5c6a960c01b61397d565b61318f67918f7d94e5550f8b60c01b61397d565b8a73ffffffffffffffffffffffffffffffffffffffff168a8a6040516131b6929190618a77565b6000604051808303816000865af19150503d80600081146131f3576040519150601f19603f3d011682016040523d82523d6000602084013e6131f8565b606091505b50809250819350505061321b565b61321a67dc8abe819f923eac60c01b61397d565b5b61322f67d5762afa2f91ce5660c01b61397d565b876080015183868685856040517f8ec8198700000000000000000000000000000000000000000000000000000000815260040161327196959493929190618a90565b60405180910390fd5b61328e670ab726ef898caad660c01b61397d565b6132a2670b7e4db075f9d5cc60c01b61397d565b6132b6674383b9a7631b3d9960c01b61397d565b6132be616e5f565b6132d267236a737a5be4b3d960c01b61397d565b6132e667031b70dddb757fc160c01b61397d565b60008060006132f960008686600161413c565b9250925092506133136721363059f30a85b060c01b61397d565b61332767b803e643735bf5de60c01b61397d565b600061333a856000015160a00151615021565b905061335067627775fa4ce7dc7c60c01b61397d565b61336467dafff67f1fb0970860c01b61397d565b6000613377866000015160000151615021565b905061338d6749d6fddc66c8d8a260c01b61397d565b6133a167ad3ee975a41e1ea460c01b61397d565b6133a9616ef8565b6133bd673e20a22502e2002460c01b61397d565b6133d1670b9688983ffb28d060c01b61397d565b6133e56730289b3b2e11f26060c01b61397d565b3660008980604001906133f8919061819d565b915091506134106767bd7f7aef836d3f60c01b61397d565b61342467a1a4360ac9436dda60c01b61397d565b60006014838390501015801561344a575061344967c3679663b0d669c860c01b615131565b5b806134655750613464676e0dee53bf24d2d760c01b61513c565b5b613470576000613493565b828260009060149261348493929190618b02565b9061348f9190618b81565b60601c5b90506134a96701ac44699c334b4260c01b61397d565b6134b281615021565b93505050506134cb67c10c10bae21a735c60c01b61397d565b6134df6790f2ab5d879fd1bb60c01b61397d565b60008060006134ee8989614e62565b92509250925061350867ad107b68cb26808060c01b61397d565b61351c671027f25ca196573460c01b61397d565b60006040518060c001604052808c6080015181526020018c60400151815260200185151581526020018467ffffffffffffffff1681526020018367ffffffffffffffff1681526020016135728d60600151615143565b815250905061358b676d7f0c9e45f4f7c760c01b61397d565b61359f67cfbd7f7eb614f0c460c01b61397d565b600073ffffffffffffffffffffffffffffffffffffffff168873ffffffffffffffffffffffffffffffffffffffff161461369f576135e767af02892bbccf3f6860c01b61397d565b6135fb67c9b8af1e4e1d8ee160c01b61397d565b61360f67f6728bf1661701b260c01b61397d565b600060405180604001604052808a73ffffffffffffffffffffffffffffffffffffffff1681526020016136418b615021565b815250905061365a6733860c88f393744760c01b61397d565b8187878a846040517f356877a3000000000000000000000000000000000000000000000000000000008152600401613696959493929190618d2f565b60405180910390fd5b6136b367b780b10d645e840c60c01b61397d565b6136c7673b6f741d6850e29d60c01b61397d565b808686896040517ff04297e90000000000000000000000000000000000000000000000000000000081526004016137019493929190618d8a565b60405180910390fd5b60006020528060005260406000206000915090508060000160009054906101000a90046dffffffffffffffffffffffffffff169080600001600e9054906101000a900460ff169080600001600f9054906101000a90046dffffffffffffffffffffffffffff16908060010160009054906101000a900463ffffffff16908060010160049054906101000a900467ffffffffffffffff16905085565b6137b967c3e6a575db81fa2b60c01b610422565b6137cd672da50fc5fe772ed160c01b610422565b6137e1677865a7e6286f870860c01b610422565b60008060008473ffffffffffffffffffffffffffffffffffffffff1673ffffffffffffffffffffffffffffffffffffffff168152602001908152602001600020905061383767ccf5c6412a7f9a5c60c01b610422565b61384b678c9f97edcaeeacb660c01b610422565b6000828260000160009054906101000a90046dffffffffffffffffffffffffffff166dffffffffffffffffffffffffffff166138879190617b7b565b905061389d67a9a4d600377ff68960c01b610422565b6138b167e0e5858bd9adeb3860c01b610422565b6138c56787462bd16aade2cb60c01b610422565b6dffffffffffffffffffffffffffff8016811115613918576040517f08c379a000000000000000000000000000000000000000000000000000000000815260040161390f90618e22565b60405180910390fd5b61392c67e682720e7a9e392e60c01b610422565b61394067171fcee0e9eb2d9760c01b610422565b808260000160006101000a8154816dffffffffffffffffffffffffffff02191690836dffffffffffffffffffffffffffff16021790555050505050565b50565b600061399667fd1255cba6c7196860c01b615175565b6139aa679ef0fc982de55ac060c01b615175565b600080845160208601878987f19050949350505050565b60606139d7673ca49cd51d4f546160c01b615175565b6139eb67b1f3c2ed3027286c60c01b615175565b3d828111156139f8578290505b604051602082018101604052818152816000602083013e8092505050919050565b6000613a2f675e450090e7b4b10b60c01b61397d565b613a436706a99d7eb78f5e9b60c01b61397d565b613a57675d4628bb3690568b60c01b61397d565b60005a9050613a706776c8134ecd67169160c01b61397d565b613a8467fa5c6a6bf2b4dbd860c01b61397d565b613a9867c5b0e74b62ca5e4360c01b61397d565b6000613aae6729c4b0f9f2413f2e60c01b61397d565b613ac267b26d4475b3520fd160c01b61397d565b600086600001519050613adf67ee92d22a25c7aa6460c01b61397d565b613af36784dabe92ceb55c3f60c01b61397d565b6000613afe82615178565b9050613b1467478b52a7ad1b103660c01b61397d565b613b2867224f782e6f6bd11060c01b61397d565b60008260a001519050613b456784f8cb1198bcab2160c01b61397d565b613b59674b71c6563877517660c01b61397d565b600073ffffffffffffffffffffffffffffffffffffffff168173ffffffffffffffffffffffffffffffffffffffff161415613bc257613ba267e861a0d34f23c66160c01b61397d565b613bb667d2ebf0c16e77a95660c01b61397d565b82600001519350613eee565b613bd667a473b3d0665ebfc860c01b61397d565b613bea6749157b0399853f3b60c01b61397d565b809350613c0167a76ffb3706db67c860c01b61397d565b613c15671fe22d80944ef19d60c01b61397d565b600088511115613ed957613c3367eee374f396bbfbba60c01b61397d565b613c476709fb048ebf9d42b360c01b61397d565b8187029550613c6067a6c127dada78723360c01b61397d565b613c7467cd3d3b594653d22f60c01b61397d565b600280811115613c8757613c86618e42565b5b8a6002811115613c9a57613c99618e42565b5b14613d5557613cb367899ff489b531e75060c01b61397d565b613cc76713bd28d7c9cebbce60c01b61397d565b613cdb67c6a7de308ce4186a60c01b61397d565b8073ffffffffffffffffffffffffffffffffffffffff1663a9a2340984606001518c8b8a6040518563ffffffff1660e01b8152600401613d1d93929190618eb9565b600060405180830381600088803b158015613d3757600080fd5b5087f1158015613d4b573d6000803e3d6000fd5b5050505050613ed4565b613d6967e52b699d0af1e47160c01b61397d565b613d7d674284565b4b4f474060c01b61397d565b613d91675d67aea29228a2ce60c01b61397d565b8073ffffffffffffffffffffffffffffffffffffffff1663a9a2340984606001518c8b8a6040518563ffffffff1660e01b8152600401613dd393929190618eb9565b600060405180830381600088803b158015613ded57600080fd5b5087f193505050508015613dff575060015b613ed357613e0b618f04565b806308c379a01415613e7f5750613e20618f26565b80613e2b5750613e81565b613e3f67b67887f6ebe31f5660c01b61397d565b8b82826040517efa072b000000000000000000000000000000000000000000000000000000008152600401613e7693929190619000565b60405180910390fd5b505b613e9567d3ff9387f50f193a60c01b61397d565b8a816040517efa072b000000000000000000000000000000000000000000000000000000008152600401613eca92919061908a565b60405180910390fd5b5b613eed565b613eec66c9a608967d88e160c01b61397d565b5b5b613f0267135ae1cac1ba024160c01b61397d565b5a850387019650613f1d67ed64cd3a66bd16b960c01b61397d565b8187029550613f3667ac60629e5ae09e7460c01b61397d565b613f4a67c747bcb9629c8efc60c01b61397d565b8589604001511015613fbc57613f6a671a6ba83f50e4f4f060c01b61397d565b613f7e6770b3e544865a7cda60c01b61397d565b8a816040517efa072b000000000000000000000000000000000000000000000000000000008152600401613fb3929190619112565b60405180910390fd5b613fd06762083c92ad1d401060c01b61397d565b613fe46784a8dc1e3e04444860c01b61397d565b613ff8672a556df1d6be5f9960c01b61397d565b6000868a60400151039050614017676a0f285f619e76c460c01b61397d565b61402b6750ec4912e348436560c01b61397d565b61403585826137a5565b61404967037959fcdd286acf60c01b61397d565b61405d67d56c0ba2aaeb63a960c01b61397d565b600080600281111561407257614071618e42565b5b8c600281111561408557614084618e42565b5b14905061409c674087a643934c679360c01b61397d565b6140b067ab22b92e2d2f984760c01b61397d565b8460a0015173ffffffffffffffffffffffffffffffffffffffff16856000015173ffffffffffffffffffffffffffffffffffffffff168c602001517f49628fd1471006c1482da88028e9ce4dbb080b815c9b0344d39e5a8e6ec1419f8860200151858d8f604051614124949392919061914e565b60405180910390a45050505050505095945050505050565b600080600061415567777f762885b4e8ba60c01b61397d565b614169671bec24654d2a9e6760c01b61397d565b61417d6717adbb38f2d695f460c01b61397d565b60005a90506141966754601cde927720c460c01b61397d565b6141aa6727fc733fc566451c60c01b61397d565b6000866000015190506141c767511899378c59239a60c01b61397d565b6141db677d9667b2690d17a660c01b61397d565b6141e588826152cc565b6141f866e64aa786d6b69160c01b61397d565b614201886126a7565b87602001818152505061421e67d6c5c5b9f7d3a75f60c01b61397d565b6142326790e922a4789875c860c01b61397d565b60008861010001358960e0013583604001518460600151856080015117171717905061426867d4e124316ce1116a60c01b61397d565b61427c676c1a9e4498e3622460c01b61397d565b61429067310a9966161a28a260c01b61397d565b6effffffffffffffffffffffffffffff80168111156142e4576040517f08c379a00000000000000000000000000000000000000000000000000000000081526004016142db906191df565b60405180910390fd5b6142f867bb65f7701990d31c60c01b61397d565b61430c6766c2973b7e470de060c01b61397d565b61432067776ab65715ccfe5b60c01b61397d565b6000614336676faf94f0fb8ab1cb60c01b61397d565b61434a67fe3e7ef0ef617e0960c01b61397d565b600061435584615604565b905061436b673c5d6fc7c9833b5660c01b61397d565b6143788c8c8c8c85615739565b809a508198508294505050506143986708e97f095d553d7960c01b61397d565b6143ac67bd1671872b76ea3b60c01b61397d565b6143b4614ff3565b6143c867fcbc4c7391aaa88860c01b61397d565b6143dc67ee12597339bda7d460c01b61397d565b60606143f26799f62ba9d5d081f360c01b61397d565b614406678ba499a4201ceb3e60c01b61397d565b600073ffffffffffffffffffffffffffffffffffffffff168560a0015173ffffffffffffffffffffffffffffffffffffffff16146144805761445267cde7e2e716b7411e60c01b61397d565b61446667356d36a1758b952b60c01b61397d565b6144738d8d8d858761609d565b8099508192505050614495565b6144946736c570d5ea93d23060c01b61397d565b5b6144a967ae8902a5233e9be760c01b61397d565b6144bd673922cab58a6a581760c01b61397d565b6144d16746aa3e694b4ec4d360c01b61397d565b60005a870390506144ec67ae95617664e39cb160c01b61397d565b61450067cff3826e3336bedc60c01b61397d565b808d60a00135101561457657614520678acdf3b0cdf44ab660c01b61397d565b61453467ddb93fcfb880c8f960c01b61397d565b8d8660a001516040517efa072b00000000000000000000000000000000000000000000000000000000815260040161456d92919061924b565b60405180910390fd5b61458a67d63616087102e8ab60c01b61397d565b61459e67a500fd1e108c287d60c01b61397d565b828c60400181815250506145bc673e87c6a762b4a0cf60c01b61397d565b6145c582616599565b8c60600181815250506145e267560befc4b01ffa5360c01b61397d565b8c60c001355a8803018c6080018181525050505050505050509450945094915050565b61461967dda107f810df1f8760c01b61397d565b61462d675d0ee7376d59e87660c01b61397d565b614641676963802e2f7efa7b60c01b61397d565b60008061464d846165cb565b9150915061466567789c639acc7a5fbc60c01b61397d565b614679675509e886b126b2aa60c01b61397d565b81156146e6576146936724f34bc234d2013160c01b61397d565b6146a767090bc6aec08572eb60c01b61397d565b8560006040517efa072b0000000000000000000000000000000000000000000000000000000081526004016146dd9291906192d3565b60405180910390fd5b6146fa675034b39376610c3360c01b61397d565b61470e67351ffeb5bf265f9760c01b61397d565b614722670d973b4739f92a2b60c01b61397d565b801561478f5761473c67e4af299196cab12c60c01b61397d565b6147506772595a1e8c3ee64d60c01b61397d565b8560006040517efa072b00000000000000000000000000000000000000000000000000000000815260040161478692919061935b565b60405180910390fd5b6147a3677bfbf167dd171fc160c01b61397d565b6147b767a80bcfde6c4f2db360c01b61397d565b6147c0836165cb565b80925081935050506147dc673f38892916adc8c560c01b61397d565b6147f06781aa5d5dcb658b2060c01b61397d565b81156148645761480a67885e60bb7b8de35060c01b61397d565b61481e67a84086ac2ab20ac560c01b61397d565b85856000015160a001516040517efa072b00000000000000000000000000000000000000000000000000000000815260040161485b9291906193e3565b60405180910390fd5b61487867e66f7c7e5c54fd3360c01b61397d565b61488c67be07ac924956d3f060c01b61397d565b6148a0678ec9c1602ef509ba60c01b61397d565b8015614914576148ba671e7c015a60b02a2460c01b61397d565b6148ce67e4f847d14a669f9860c01b61397d565b85856000015160a001516040517efa072b00000000000000000000000000000000000000000000000000000000815260040161490b929190619491565b60405180910390fd5b614928679d90f1d75c96986160c01b61397d565b505050505050565b600061494667af98e1bcb8a10cd260c01b61397d565b61495a67ad81d592275d4e0960c01b61397d565b61496e679065295e5d625c6b60c01b61397d565b60005a905061498767c80900f6eb42731f60c01b61397d565b61499b670210d9358123c18260c01b61397d565b60006149aa8460600151615143565b90506149c067e0b3424acc9d51f060c01b61397d565b6149d467ae4088d811dc3f5d60c01b61397d565b3073ffffffffffffffffffffffffffffffffffffffff16631d732756868060600190614a00919061819d565b87856040518563ffffffff1660e01b8152600401614a2194939291906195eb565b6020604051808303816000875af1925050508015614a5d57506040513d601f19601f82011682018060405250810190614a5a9190619649565b60015b614bee57614a7567ba994b6436c5f14160c01b61397d565b614a89676c4768bd5decb09560c01b61397d565b6000614a9f67b25d968e05a0aaaa60c01b61397d565b60206000803e6000519050614abe676cc0a12386e7a82f60c01b61397d565b614ad267bfe8bb45ea44e4e460c01b61397d565b7fdeaddead00000000000000000000000000000000000000000000000000000000811415614b6857614b0e67e10bd94e6f988c5c60c01b61397d565b614b22677754fba776df123b60c01b61397d565b86856000015160a001516040517efa072b000000000000000000000000000000000000000000000000000000008152600401614b5f9291906196c2565b60405180910390fd5b614b7c67c5edaae2db0a94fb60c01b61397d565b614b90675258e3d17c69d00f60c01b61397d565b614ba467bcd0333325a22cdb60c01b61397d565b600085608001515a85614bb79190617efa565b614bc19190617b7b565b9050614bd767c5358d8cf63fb28760c01b61397d565b614be5886002888685613a19565b94505050614c07565b614c0267de2927797eebf39160c01b61397d565b809350505b50509392505050565b614c246731f37b188fdb3d0860c01b61397d565b614c386775d1254d1382591960c01b61397d565b614c4c67d6f3f42c3037ed8460c01b61397d565b614c6067ecf36e74a70f73c460c01b61397d565b600073ffffffffffffffffffffffffffffffffffffffff168273ffffffffffffffffffffffffffffffffffffffff161415614cd0576040517f08c379a0000000000000000000000000000000000000000000000000000000008152600401614cc79061974a565b60405180910390fd5b614ce4676a0cf1b1be977b3e60c01b61397d565b614cf867a8b27852069b808560c01b61397d565b614d0c67d8445313597c9f9560c01b61397d565b60008273ffffffffffffffffffffffffffffffffffffffff1682604051614d3290617fdd565b60006040518083038185875af1925050503d8060008114614d6f576040519150601f19603f3d011682016040523d82523d6000602084013e614d74565b606091505b50509050614d8c678b0e4ebb08b5b93e60c01b61397d565b614da06776b83ce7b447d06160c01b61397d565b614db4670a9f028fc4a212cc60c01b61397d565b80614df4576040517f08c379a0000000000000000000000000000000000000000000000000000000008152600401614deb906197b6565b60405180910390fd5b614e0867a90879a9c196f64b60c01b61397d565b505050565b6000614e23678efc0b6e0ef34a5e60c01b616731565b614e3767a412a2c8a10541c160c01b616731565b614e4b676f142dcb28d9357960c01b616731565b614e5482616734565b805190602001209050919050565b6000806000614e7b6734ec88571258387d60c01b61397d565b614e8f67edb5992c8bf1962660c01b61397d565b614e98856167c6565b809350819450829550505050614eb86736929d4b0a108e9760c01b61397d565b614ecc67add136851d856df960c01b61397d565b6000806000614eda876167c6565b925092509250614ef4673a0ed1135a49d5eb60c01b61397d565b8580614efd5750825b9550614f1367b4f0c649c49e2fc560c01b61397d565b614f276701b35667b1bb647060c01b61397d565b8167ffffffffffffffff168567ffffffffffffffff161015614f5f57614f5767c1a2494465a561fa60c01b61397d565b819450614f74565b614f7367dae67bd1dc985a0f60c01b61397d565b5b614f8867b358e0a6c63c8a0260c01b61397d565b614f9c67f7beff0536f1b79260c01b61397d565b8067ffffffffffffffff168467ffffffffffffffff161115614fd457614fcc67fd6dec7d2c9609c860c01b61397d565b809350614fe9565b614fe867c96b9a5dbf31b01760c01b61397d565b5b5050509250925092565b615007673694232fd223b56a60c01b61397d565b61501b6773084575d0c5a83e60c01b61397d565b43600052565b615029616ef8565b61503d67167da5ed6ec78d7860c01b610422565b615051670a0122f65d3bfbf060c01b610422565b61506567323c782aeb82d06660c01b610422565b60008060008473ffffffffffffffffffffffffffffffffffffffff1673ffffffffffffffffffffffffffffffffffffffff16815260200190815260200160002090506150bb674c4efc656799625f60c01b610422565b80600001600f9054906101000a90046dffffffffffffffffffffffffffff166dffffffffffffffffffffffffffff1682600001818152505061510767be03877dfb8468ec60c01b610422565b8060010160009054906101000a900463ffffffff1663ffffffff1682602001818152505050919050565b600060019050919050565b6000919050565b606061515967c61b74d321cd57c360c01b61397d565b61516d67bfb5356415188f9e60c01b61397d565b819050919050565b50565b600061518e6704ec19ae08f3443860c01b61397d565b6151a2677326d8e1db7c0ae960c01b61397d565b6151b6670edae1062232908a60c01b61397d565b6151ca67b3758d2e92f5f65360c01b61397d565b60008260c0015190506151e76726bf481285d72ede60c01b61397d565b6151fb67aea4cc3b87299def60c01b61397d565b60008360e00151905061521867f29c8094b6fff53d60c01b61397d565b61522c672f162dfe9e7337aa60c01b61397d565b8082141561527a5761524867fd80e90ab37d87d360c01b61397d565b61525c6780a283fc2b69ef1460c01b61397d565b61527067fa384e6547e24cb360c01b61397d565b81925050506152c7565b61528e6773065d4b8a59492260c01b61397d565b6152a26788c010a3a3aa744660c01b61397d565b6152b667933bda3c92bcf3b660c01b61397d565b6152c282488301616846565b925050505b919050565b6152e0673279980d42a9dff860c01b61397d565b6152f4670c747fa9d6590a2060c01b61397d565b8160000160208101906153079190617676565b816000019073ffffffffffffffffffffffffffffffffffffffff16908173ffffffffffffffffffffffffffffffffffffffff168152505061535267d7fb3a07538646d160c01b61397d565b816020013581602001818152505061537467f7a80c247f324a2060c01b61397d565b816080013581604001818152505061539667f9f627aae70e2bb660c01b61397d565b8160a001358160600181815250506153b867a7a9c52b52c2fb7e60c01b61397d565b8160c001358160800181815250506153da674bdc2ba2d8aa599660c01b61397d565b8160e001358160c00181815250506153fc676eec79d4aae4b84f60c01b61397d565b8161010001358160e001818152505061541f67f57c51d2d8ccf28660c01b61397d565b6154336766d677da6b244bd560c01b61397d565b36600083806101200190615447919061819d565b9150915061545f67720a6d5aa858785660c01b61397d565b61547367f89324315489240460c01b61397d565b600082829050111561559c57615493675424806b8d0a4e9e60c01b61397d565b6154a767ef174872b836f03f60c01b61397d565b6154bb672993173e9193e7e860c01b61397d565b6154cf670ae3c0335b9133b260c01b61397d565b6014828290501015615516576040517f08c379a000000000000000000000000000000000000000000000000000000000815260040161550d90619822565b60405180910390fd5b61552a67b1a2466b11c0c3fe60c01b61397d565b61553e67159703cb981d8ba360c01b61397d565b818160009060149261555293929190618b02565b9061555d9190618b81565b60601c8360a0019073ffffffffffffffffffffffffffffffffffffffff16908173ffffffffffffffffffffffffffffffffffffffff16815250506155fe565b6155b06798f36b1b4e302d4e60c01b61397d565b6155c4674e7541c88d1f391660c01b61397d565b60008360a0019073ffffffffffffffffffffffffffffffffffffffff16908173ffffffffffffffffffffffffffffffffffffffff16815250505b50505050565b600061561a67501e38ebe897a2f060c01b61397d565b61562e6709c4df24595224e060c01b61397d565b615642673274d11c3db1699160c01b61397d565b615656675ddf4bc2b351210560c01b61397d565b60008073ffffffffffffffffffffffffffffffffffffffff168360a0015173ffffffffffffffffffffffffffffffffffffffff16141580156156a857506156a767c21d7c82f8cc603660c01b615131565b5b806156c357506156c267f4c2575379e7ff2460c01b61513c565b5b6156ce5760016156d1565b60035b60ff1690506156ea67cf38dff3b92aab6b60c01b61397d565b6156fe6745731acd08b40dea60c01b61397d565b60008360800151828560600151028560400151010190506157296723fc197f6c1f0a1560c01b61397d565b8360c00151810292505050919050565b6000806000615752670a02c67b52344fb660c01b61397d565b61576667d015ac1ff9dba4ef60c01b61397d565b61577a67bc3fdb373fe494a360c01b61397d565b61578e67eec10058b561e82c60c01b61397d565b60005a90506157a767da9c6d384bea243560c01b61397d565b6157bb6731e04de12551cb6260c01b61397d565b6000876000015190506157d867d02177e339e0746a60c01b61397d565b6157ec67c12b1a233944069a60c01b61397d565b600081600001519050615809679778e17e095445d160c01b61397d565b61581d673ac4180d44402f9560c01b61397d565b6158378b8a8c8060400190615832919061819d565b6168d2565b61584b67078b7b0e22ea422c60c01b61397d565b61585f67e45aa76e259a013160c01b61397d565b60008260a00151905061587c6749b611e62a96b7c560c01b61397d565b61589067f974c915ba4369ec60c01b61397d565b600173ffffffffffffffffffffffffffffffffffffffff168973ffffffffffffffffffffffffffffffffffffffff161415615b30576158d9671acb5db2729204c260c01b61397d565b6158ed67a541c994456cf13660c01b61397d565b61590167d9ed8d066484b57c60c01b61397d565b615909614ff3565b61591d67b5e28ec1ef7bcc1760c01b61397d565b6159316771d140661a66d6d360c01b61397d565b3073ffffffffffffffffffffffffffffffffffffffff1663a47a3fbc83836040518363ffffffff1660e01b815260040161596c929190619842565b60006040518083038186803b15801561598457600080fd5b505afa925050508015615995575060015b615b2a576159a1618f04565b806308c379a01415615a1557506159b6618f26565b806159c15750615a17565b6159d5671c4e10c95796a7fb60c01b61397d565b8c82826040517efa072b000000000000000000000000000000000000000000000000000000008152600401615a0c93929190619000565b60405180910390fd5b505b3d8060008114615a43576040519150601f19603f3d011682016040523d82523d6000602084013e615a48565b606091505b50615a5d6788973d70f625112560c01b61397d565b615a7167ebc92276ad01daf660c01b61397d565b6020815114615ae357615a8e670bad66e77d026c2760c01b61397d565b615aa267233c52be9f656bcd60c01b61397d565b600082826040517efa072b000000000000000000000000000000000000000000000000000000008152600401615ada939291906198a6565b60405180910390fd5b615af76784dd8a5d4339ff5960c01b61397d565b615b0b6752d2ff9618512ece60c01b61397d565b80806020019051810190615b1f91906198f9565b965086995050615b2b565b5b615b45565b615b446742b7647b99cd82f360c01b61397d565b5b615b5967d5f27c5f5e97803e60c01b61397d565b615b6d67ff79ef07f09fa45960c01b61397d565b6000615b8367be94d9750c7fbd3d60c01b61397d565b615b97674b4078ea68cda83e60c01b61397d565b600073ffffffffffffffffffffffffffffffffffffffff168273ffffffffffffffffffffffffffffffffffffffff161415615c7a57615be067768dd74827663fce60c01b61397d565b615bf467ac8001d103aec2eb60c01b61397d565b615c08670dade25b83abe54460c01b61397d565b6000615c138461212c565b9050615c29671a9bf7f0cbc651bf60c01b61397d565b8981118015615c485750615c47672640066074e82e0660c01b615131565b5b80615c635750615c626768af56e016d54e5560c01b61513c565b5b615c6f57808a03615c72565b60005b915050615c8f565b615c8e679af5e4793d5e488a60c01b61397d565b5b615ca367cc4b251bedea1e1f60c01b61397d565b615cb7675ef1e07d1b15ed4160c01b61397d565b8273ffffffffffffffffffffffffffffffffffffffff16630825d1fc85606001518e8e602001518e866040518663ffffffff1660e01b8152600401615cff9493929190619a8a565b60206040518083038160008887f193505050508015615d3c57506040513d601f19601f82011682018060405250810190615d399190619649565b60015b615e1257615d48618f04565b806308c379a01415615dbd5750615d5d618f26565b80615d685750615dbf565b615d7c6702f406984c1dc3ad60c01b61397d565b8d6000826040517efa072b000000000000000000000000000000000000000000000000000000008152600401615db493929190619000565b60405180910390fd5b505b615dd36719a9fe19be8df38f60c01b61397d565b8c60006040517efa072b000000000000000000000000000000000000000000000000000000008152600401615e09929190619b22565b60405180910390fd5b615e26676c33cc9d149d2c4960c01b61397d565b80965050615e3e67431c2e5f90e49b1560c01b61397d565b615e526795cbea3386ad291e60c01b61397d565b600073ffffffffffffffffffffffffffffffffffffffff168273ffffffffffffffffffffffffffffffffffffffff16141561605f57615e9b67cbd7a9cf1d0611a660c01b61397d565b615eaf67d65311c3b271212d60c01b61397d565b615ec3670d55039b0dee997860c01b61397d565b60008060008573ffffffffffffffffffffffffffffffffffffffff1673ffffffffffffffffffffffffffffffffffffffff1681526020019081526020016000209050615f1967863734448972bce060c01b61397d565b615f2d671150b98f590741cd60c01b61397d565b60008160000160009054906101000a90046dffffffffffffffffffffffffffff166dffffffffffffffffffffffffffff169050615f7467f28d2ffa96f8cfab60c01b61397d565b615f8867deb2c35477fd1e7960c01b61397d565b808b1115615ff757615fa46724a2f00cf8bddb8160c01b61397d565b615fb86799d190ea1f66e67160c01b61397d565b8e60006040517efa072b000000000000000000000000000000000000000000000000000000008152600401615fee929190619baa565b60405180910390fd5b61600b67ac0540e39f5cd09260c01b61397d565b61601f678ca67fcac465214d60c01b61397d565b8a81038260000160006101000a8154816dffffffffffffffffffffffffffff02191690836dffffffffffffffffffffffffffff1602179055505050616074565b6160736740a9feade9d24b8660c01b61397d565b5b6160886763829381ecd377cb60c01b61397d565b5a850397505050505050955095509592505050565b606060006160b5673023828e35a408ee60c01b61397d565b6160c967a5aec926d2bae6e760c01b61397d565b6160dd6738998d322ed8f9a060c01b61397d565b6160f167c604c2b55eb338a960c01b61397d565b60008560000151905061610e6768024ae0517a496160c01b61397d565b61612267249d827ad3a8b98760c01b61397d565b60008160600151905061613f6787a641231b5bf6fb60c01b61397d565b6161536707ea1da5d68a952a60c01b61397d565b616167675768dbe0f4dc8c1860c01b61397d565b8481116161a9576040517f08c379a00000000000000000000000000000000000000000000000000000000081526004016161a090619c32565b60405180910390fd5b6161bd6775d845868a1865d460c01b61397d565b6161d167c2abd9574946ae4160c01b61397d565b6161e56781a2ee48925045c160c01b61397d565b60008582039050616200670929207c1ee442d460c01b61397d565b6162146766f748404685dc1a60c01b61397d565b60008360a001519050616231671c0e5487195f8af360c01b61397d565b61624567e167e81893412c8260c01b61397d565b60008060008373ffffffffffffffffffffffffffffffffffffffff1673ffffffffffffffffffffffffffffffffffffffff168152602001908152602001600020905061629b672b70eb40db36df7d60c01b61397d565b6162af6750f69626065894a260c01b61397d565b60008160000160009054906101000a90046dffffffffffffffffffffffffffff166dffffffffffffffffffffffffffff1690506162f667cca552607675328060c01b61397d565b61630a671f6c826fe63dbda060c01b61397d565b89811015616378576163266760e7231c1fa0ecd660c01b61397d565b61633a67b338358f670600b760c01b61397d565b8c836040517efa072b00000000000000000000000000000000000000000000000000000000815260040161636f929190619c9e565b60405180910390fd5b61638c67b1767da8225a6b5560c01b61397d565b6163a0676d73e39f6f876d5860c01b61397d565b8981038260000160006101000a8154816dffffffffffffffffffffffffffff02191690836dffffffffffffffffffffffffffff1602179055506163ed67bb7c10d8b04bd5ac60c01b61397d565b616401672e4a1e8ea721f56960c01b61397d565b8273ffffffffffffffffffffffffffffffffffffffff1663f465c77e858e8e602001518e6040518563ffffffff1660e01b815260040161644393929190619cda565b60006040518083038160008887f19350505050801561648557506040513d6000823e3d601f19601f820116820180604052508101906164829190619d88565b60015b61655957616491618f04565b806308c379a0141561650557506164a6618f26565b806164b15750616507565b6164c567239d64eb1669550a60c01b61397d565b8d84826040517efa072b0000000000000000000000000000000000000000000000000000000081526004016164fc93929190619000565b60405180910390fd5b505b61651b67e258e4ec009af23660c01b61397d565b8c836040517efa072b000000000000000000000000000000000000000000000000000000008152600401616550929190619e30565b60405180910390fd5b61656d67d9c7f63e755ad2d460c01b61397d565b81995061658467af2709fdcac8082d60c01b61397d565b80985050505050505050509550959350505050565b60006165af6767b9191b45aae53a60c01b61397d565b6165c36701c6cf1ead6e5a0f60c01b61397d565b819050919050565b6000806165e2678c4518086eb81e9d60c01b61397d565b6165f6674975dd67fb47adea60c01b61397d565b61660a67fe5d03bd4e3b0ad260c01b61397d565b600083141561665b5761662767ad94d668a560b59a60c01b61397d565b61663b6791433cd6e13c24ce60c01b61397d565b61664f67831b88adf36c7bf760c01b61397d565b6000809150915061672c565b61666f67f4403e5297940dc360c01b61397d565b616683675d053d0583fd873e60c01b61397d565b61669767fa20530c20e82fd960c01b61397d565b60006166ad676fb2a3ec0c6ca93a60c01b61397d565b6166c1672a53646ec2f2f8cd60c01b61397d565b60006166d767673114b87625bd1e60c01b61397d565b6166e0856167c6565b8167ffffffffffffffff1691508067ffffffffffffffff16905080935081945082965050505061671a677dca1b0a120d515b60c01b61397d565b8042118061672757508142105b925050505b915091565b50565b606061674a67e2f65444bb7a869960c01b616731565b61675e677451d5c0f2b6051960c01b616731565b61677267c5c078270cfb899b60c01b616731565b36600083806101400190616786919061819d565b9150915061679e675af762593322d4ce60c01b616731565b8360208184030360405194506020810185016040528085528082602087013750505050919050565b60008060006167df6763983828a126755360c01b61397d565b6167f3674889607d2d1a542860c01b61397d565b60008460ff1614159250616811671315131962c07c1260c01b61397d565b6001600885901c6168229190619e76565b90506168386759be31232283341f60c01b61397d565b604884901c91509193909250565b600061685c67ab35a23ca46bab8460c01b61397d565b6168706757e29d7b84c7c92f60c01b61397d565b61688467f59ede56f31d5a4f60c01b61397d565b81831080156168a357506168a267c2c796b0b7f79ab160c01b615131565b5b806168be57506168bd67f48bea71c7cc3f9c60c01b61513c565b5b6168c857816168ca565b825b905092915050565b6168e667babec4a9c9ae8c9b60c01b61397d565b6168fa67f37ac80fa74ba4c060c01b61397d565b61690e670669cae855eb54fe60c01b61397d565b60008282905014616e445761692d678bc54028b31b71af60c01b61397d565b61694167b61c4c871129163f60c01b61397d565b616955672b7a952a39b55f9060c01b61397d565b6000836000015160000151905061697667453f170f64797bd560c01b61397d565b61698a67848cebf0494985a360c01b61397d565b60008173ffffffffffffffffffffffffffffffffffffffff163b14616a10576169bd678428726773c4b28560c01b61397d565b6169d1675214f2210613f15260c01b61397d565b8460006040517efa072b000000000000000000000000000000000000000000000000000000008152600401616a07929190619f56565b60405180910390fd5b616a24676c8af0287e866ded60c01b61397d565b616a3867eeed92357a28f6f660c01b61397d565b616a4c67177d248e3186a12e60c01b61397d565b60007f000000000000000000000000000000000000000000000000000000000000000073ffffffffffffffffffffffffffffffffffffffff1663570e1a3686600001516060015186866040518463ffffffff1660e01b8152600401616ab29291906185cb565b60206040518083038160008887f1158015616ad1573d6000803e3d6000fd5b50505050506040513d601f19601f82011682018060405250810190616af69190618604565b9050616b0c67b8e2ede9d3f530cd60c01b61397d565b616b2067d96bab4d4a305c7e60c01b61397d565b600073ffffffffffffffffffffffffffffffffffffffff168173ffffffffffffffffffffffffffffffffffffffff161415616bbc57616b69673d94d026ed830fc660c01b61397d565b616b7d67b5a6b7c31ce9672b60c01b61397d565b8560006040517efa072b000000000000000000000000000000000000000000000000000000008152600401616bb3929190619fde565b60405180910390fd5b616bd067421953e53c1a5c2d60c01b61397d565b616be4673d5d10e3cb7a2e5060c01b61397d565b616bf8672dda3049cdba92e860c01b61397d565b8173ffffffffffffffffffffffffffffffffffffffff168173ffffffffffffffffffffffffffffffffffffffff1614616c9257616c3f67a800faf966aae25b60c01b61397d565b616c53675d13470ad416a8e260c01b61397d565b8560006040517efa072b000000000000000000000000000000000000000000000000000000008152600401616c8992919061a066565b60405180910390fd5b616ca6673d4c81b08dc3a6bc60c01b61397d565b616cba67ec9c997a3af97b6060c01b61397d565b616cce678b35c91626d41f6460c01b61397d565b60008173ffffffffffffffffffffffffffffffffffffffff163b1415616d5557616d02670450ae552560e70960c01b61397d565b616d166771db3107d42d2c0160c01b61397d565b8560006040517efa072b000000000000000000000000000000000000000000000000000000008152600401616d4c92919061a0ee565b60405180910390fd5b616d69673438dfadcc870f3860c01b61397d565b616d7d67860205a5ddb6c42560c01b61397d565b616d9167f05a614a5991d72760c01b61397d565b60008484600090601492616da793929190618b02565b90616db29190618b81565b60601c9050616dcb67552a07bf4383df2b60c01b61397d565b616ddf677c1b7d4fd743a38e60c01b61397d565b8273ffffffffffffffffffffffffffffffffffffffff1686602001517fd51a9c61267aa6196961883ecf5ff2da6619c37dac0fa92122513fb32c032d2d83896000015160a00151604051616e34929190619842565b60405180910390a3505050616e59565b616e58674b7b5c06d394291560c01b61397d565b5b50505050565b6040518060a00160405280616e72616f12565b8152602001600080191681526020016000815260200160008152602001600081525090565b6040518060a0016040528060006dffffffffffffffffffffffffffff16815260200160001515815260200160006dffffffffffffffffffffffffffff168152602001600063ffffffff168152602001600067ffffffffffffffff1681525090565b604051806040016040528060008152602001600081525090565b604051806101000160405280600073ffffffffffffffffffffffffffffffffffffffff16815260200160008152602001600081526020016000815260200160008152602001600073ffffffffffffffffffffffffffffffffffffffff16815260200160008152602001600081525090565b6000604051905090565b600080fd5b600080fd5b600063ffffffff82169050919050565b616fb081616f97565b8114616fbb57600080fd5b50565b600081359050616fcd81616fa7565b92915050565b600060208284031215616fe957616fe8616f8d565b5b6000616ff784828501616fbe565b91505092915050565b600080fd5b600080fd5b6000601f19601f8301169050919050565b7f4e487b7100000000000000000000000000000000000000000000000000000000600052604160045260246000fd5b6170538261700a565b810181811067ffffffffffffffff821117156170725761707161701b565b5b80604052505050565b6000617085616f83565b9050617091828261704a565b919050565b600067ffffffffffffffff8211156170b1576170b061701b565b5b6170ba8261700a565b9050602081019050919050565b82818337600083830152505050565b60006170e96170e484617096565b61707b565b90508281526020810184848401111561710557617104617005565b5b6171108482856170c7565b509392505050565b600082601f83011261712d5761712c617000565b5b813561713d8482602086016170d6565b91505092915050565b600080fd5b600073ffffffffffffffffffffffffffffffffffffffff82169050919050565b60006171768261714b565b9050919050565b6171868161716b565b811461719157600080fd5b50565b6000813590506171a38161717d565b92915050565b6000819050919050565b6171bc816171a9565b81146171c757600080fd5b50565b6000813590506171d9816171b3565b92915050565b600061010082840312156171f6576171f5617146565b5b61720161010061707b565b9050600061721184828501617194565b6000830152506020617225848285016171ca565b6020830152506040617239848285016171ca565b604083015250606061724d848285016171ca565b6060830152506080617261848285016171ca565b60808301525060a061727584828501617194565b60a08301525060c0617289848285016171ca565b60c08301525060e061729d848285016171ca565b60e08301525092915050565b6000819050919050565b6172bc816172a9565b81146172c757600080fd5b50565b6000813590506172d9816172b3565b92915050565b600061018082840312156172f6576172f5617146565b5b61730060a061707b565b90506000617310848285016171df565b600083015250610100617325848285016172ca565b60208301525061012061733a848285016171ca565b60408301525061014061734f848285016171ca565b606083015250610160617364848285016171ca565b60808301525092915050565b600080fd5b600080fd5b60008083601f8401126173905761738f617000565b5b8235905067ffffffffffffffff8111156173ad576173ac617370565b5b6020830191508360018202830111156173c9576173c8617375565b5b9250929050565b6000806000806101c085870312156173eb576173ea616f8d565b5b600085013567ffffffffffffffff81111561740957617408616f92565b5b61741587828801617118565b9450506020617426878288016172df565b9350506101a085013567ffffffffffffffff81111561744857617447616f92565b5b6174548782880161737a565b925092505092959194509250565b61746b816171a9565b82525050565b60006020820190506174866000830184617462565b92915050565b60008083601f8401126174a2576174a1617000565b5b8235905067ffffffffffffffff8111156174bf576174be617370565b5b6020830191508360208202830111156174db576174da617375565b5b9250929050565b60006174ed8261714b565b9050919050565b6174fd816174e2565b811461750857600080fd5b50565b60008135905061751a816174f4565b92915050565b60008060006040848603121561753957617538616f8d565b5b600084013567ffffffffffffffff81111561755757617556616f92565b5b6175638682870161748c565b935093505060206175768682870161750b565b9150509250925092565b6000806040838503121561759757617596616f8d565b5b60006175a58582860161750b565b92505060206175b6858286016171ca565b9150509250929050565b60008083601f8401126175d6576175d5617000565b5b8235905067ffffffffffffffff8111156175f3576175f2617370565b5b60208301915083602082028301111561760f5761760e617375565b5b9250929050565b60008060006040848603121561762f5761762e616f8d565b5b600084013567ffffffffffffffff81111561764d5761764c616f92565b5b617659868287016175c0565b9350935050602061766c8682870161750b565b9150509250925092565b60006020828403121561768c5761768b616f8d565b5b600061769a84828501617194565b91505092915050565b60006dffffffffffffffffffffffffffff82169050919050565b6176c6816176a3565b82525050565b60008115159050919050565b6176e1816176cc565b82525050565b6176f081616f97565b82525050565b600067ffffffffffffffff82169050919050565b617713816176f6565b82525050565b60a08201600082015161772f60008501826176bd565b50602082015161774260208501826176d8565b50604082015161775560408501826176bd565b50606082015161776860608501826176e7565b50608082015161777b608085018261770a565b50505050565b600060a0820190506177966000830184617719565b92915050565b600080602083850312156177b3576177b2616f8d565b5b600083013567ffffffffffffffff8111156177d1576177d0616f92565b5b6177dd8582860161737a565b92509250509250929050565b60008060408385031215617800576177ff616f8d565b5b600061780e85828601617194565b925050602061781f85828601617194565b9150509250929050565b600080fd5b6000610160828403121561784557617844617829565b5b81905092915050565b60006020828403121561786457617863616f8d565b5b600082013567ffffffffffffffff81111561788257617881616f92565b5b61788e8482850161782e565b91505092915050565b6178a0816172a9565b82525050565b60006020820190506178bb6000830184617897565b92915050565b6000602082840312156178d7576178d6616f8d565b5b60006178e58482850161750b565b91505092915050565b6000806000806060858703121561790857617907616f8d565b5b600085013567ffffffffffffffff81111561792657617925616f92565b5b6179328782880161782e565b945050602061794387828801617194565b935050604085013567ffffffffffffffff81111561796457617963616f92565b5b6179708782880161737a565b925092505092959194509250565b617987816176a3565b82525050565b617996816176cc565b82525050565b6179a581616f97565b82525050565b6179b4816176f6565b82525050565b600060a0820190506179cf600083018861797e565b6179dc602083018761798d565b6179e9604083018661797e565b6179f6606083018561799c565b617a0360808301846179ab565b9695505050505050565b6000819050919050565b6000617a32617a2d617a28846176a3565b617a0d565b6171a9565b9050919050565b617a4281617a17565b82525050565b6000602082019050617a5d6000830184617a39565b92915050565b600082825260208201905092915050565b7f6d757374207370656369667920756e7374616b652064656c6179000000000000600082015250565b6000617aaa601a83617a63565b9150617ab582617a74565b602082019050919050565b60006020820190508181036000830152617ad981617a9d565b9050919050565b7f63616e6e6f7420646563726561736520756e7374616b652074696d6500000000600082015250565b6000617b16601c83617a63565b9150617b2182617ae0565b602082019050919050565b60006020820190508181036000830152617b4581617b09565b9050919050565b7f4e487b7100000000000000000000000000000000000000000000000000000000600052601160045260246000fd5b6000617b86826171a9565b9150617b91836171a9565b9250827fffffffffffffffffffffffffffffffffffffffffffffffffffffffffffffffff03821115617bc657617bc5617b4c565b5b828201905092915050565b7f6e6f207374616b65207370656369666965640000000000000000000000000000600082015250565b6000617c07601283617a63565b9150617c1282617bd1565b602082019050919050565b60006020820190508181036000830152617c3681617bfa565b9050919050565b7f7374616b65206f766572666c6f77000000000000000000000000000000000000600082015250565b6000617c73600e83617a63565b9150617c7e82617c3d565b602082019050919050565b60006020820190508181036000830152617ca281617c66565b9050919050565b6000617cc4617cbf617cba84616f97565b617a0d565b6171a9565b9050919050565b617cd481617ca9565b82525050565b6000604082019050617cef6000830185617462565b617cfc6020830184617ccb565b9392505050565b7f4141393220696e7465726e616c2063616c6c206f6e6c79000000000000000000600082015250565b6000617d39601783617a63565b9150617d4482617d03565b602082019050919050565b60006020820190508181036000830152617d6881617d2c565b9050919050565b600081519050919050565b600082825260208201905092915050565b60005b83811015617da9578082015181840152602081019050617d8e565b83811115617db8576000848401525b50505050565b6000617dc982617d6f565b617dd38185617d7a565b9350617de3818560208601617d8b565b617dec8161700a565b840191505092915050565b6000604082019050617e0c6000830185617462565b8181036020830152617e1e8184617dbe565b90509392505050565b7f4e487b7100000000000000000000000000000000000000000000000000000000600052603260045260246000fd5b600080fd5b600080fd5b600080fd5b60008235600161016003833603038112617e8257617e81617e56565b5b80830191505092915050565b7f576974686472617720616d6f756e7420746f6f206c6172676500000000000000600082015250565b6000617ec4601983617a63565b9150617ecf82617e8e565b602082019050919050565b60006020820190508181036000830152617ef381617eb7565b9050919050565b6000617f05826171a9565b9150617f10836171a9565b925082821015617f2357617f22617b4c565b5b828203905092915050565b6000617f49617f44617f3f8461714b565b617a0d565b61714b565b9050919050565b6000617f5b82617f2e565b9050919050565b6000617f6d82617f50565b9050919050565b617f7d81617f62565b82525050565b6000604082019050617f986000830185617f74565b617fa56020830184617462565b9392505050565b600081905092915050565b50565b6000617fc7600083617fac565b9150617fd282617fb7565b600082019050919050565b6000617fe882617fba565b9150819050919050565b7f6661696c656420746f2077697468647261770000000000000000000000000000600082015250565b6000618028601283617a63565b915061803382617ff2565b602082019050919050565b600060208201905081810360008301526180578161801b565b9050919050565b60008235600160600383360303811261807a57618079617e56565b5b80830191505092915050565b600080833560016020038436030381126180a3576180a2617e56565b5b80840192508235915067ffffffffffffffff8211156180c5576180c4617e5b565b5b6020830192506020820236038313156180e1576180e0617e60565b5b509250929050565b60006180f4826171a9565b91507fffffffffffffffffffffffffffffffffffffffffffffffffffffffffffffffff82141561812757618126617b4c565b5b600182019050919050565b600061813d8261716b565b9050919050565b61814d81618132565b811461815857600080fd5b50565b60008135905061816a81618144565b92915050565b60006020828403121561818657618185616f8d565b5b60006181948482850161815b565b91505092915050565b600080833560016020038436030381126181ba576181b9617e56565b5b80840192508235915067ffffffffffffffff8211156181dc576181db617e5b565b5b6020830192506001820236038313156181f8576181f7617e60565b5b509250929050565b600082825260208201905092915050565b6000819050919050565b600061822a6020840184617194565b905092915050565b61823b8161716b565b82525050565b600061825060208401846171ca565b905092915050565b618261816171a9565b82525050565b600080fd5b600080fd5b600080fd5b6000808335600160200384360303811261829357618292618271565b5b83810192508235915060208301925067ffffffffffffffff8211156182bb576182ba618267565b5b6001820236038413156182d1576182d061826c565b5b509250929050565b600082825260208201905092915050565b60006182f683856182d9565b93506183038385846170c7565b61830c8361700a565b840190509392505050565b6000610160830161832b600084018461821b565b6183386000860182618232565b506183466020840184618241565b6183536020860182618258565b506183616040840184618276565b85830360408701526183748382846182ea565b925050506183856060840184618276565b85830360608701526183988382846182ea565b925050506183a96080840184618241565b6183b66080860182618258565b506183c460a0840184618241565b6183d160a0860182618258565b506183df60c0840184618241565b6183ec60c0860182618258565b506183fa60e0840184618241565b61840760e0860182618258565b50618416610100840184618241565b618424610100860182618258565b50618433610120840184618276565b8583036101208701526184478382846182ea565b92505050618459610140840184618276565b85830361014087015261846d8382846182ea565b925050508091505092915050565b60006184878383618317565b905092915050565b600082356001610160038336030381126184ac576184ab618271565b5b82810191505092915050565b6000602082019050919050565b60006184d18385618200565b9350836020840285016184e384618211565b8060005b878110156185275784840389526184fe828461848f565b618508858261847b565b9450618513836184b8565b925060208a019950506001810190506184e7565b50829750879450505050509392505050565b60006185458385617d7a565b93506185528385846170c7565b61855b8361700a565b840190509392505050565b600060408201905081810360008301526185818186886184c5565b90508181036020830152618596818486618539565b905095945050505050565b6185aa8161716b565b82525050565b60006020820190506185c560008301846185a1565b92915050565b600060208201905081810360008301526185e6818486618539565b90509392505050565b6000815190506185fe8161717d565b92915050565b60006020828403121561861a57618619616f8d565b5b6000618628848285016185ef565b91505092915050565b7f41413230206163636f756e74206e6f74206465706c6f79656400000000000000600082015250565b6000618667601983617a63565b915061867282618631565b602082019050919050565b600060208201905081810360008301526186968161865a565b9050919050565b7f41413330207061796d6173746572206e6f74206465706c6f7965640000000000600082015250565b60006186d3601b83617a63565b91506186de8261869d565b602082019050919050565b60006020820190508181036000830152618702816186c6565b9050919050565b600060608201905061871e6000830186617897565b61872b60208301856185a1565b6187386040830184617462565b949350505050565b7f6e6f74207374616b656400000000000000000000000000000000000000000000600082015250565b6000618776600a83617a63565b915061878182618740565b602082019050919050565b600060208201905081810360008301526187a581618769565b9050919050565b7f616c726561647920756e7374616b696e67000000000000000000000000000000600082015250565b60006187e2601183617a63565b91506187ed826187ac565b602082019050919050565b60006020820190508181036000830152618811816187d5565b9050919050565b6000618823826176f6565b915061882e836176f6565b92508267ffffffffffffffff0382111561884b5761884a617b4c565b5b828201905092915050565b600061887161886c618867846176f6565b617a0d565b6171a9565b9050919050565b61888181618856565b82525050565b600060208201905061889c6000830184618878565b92915050565b7f4e6f207374616b6520746f207769746864726177000000000000000000000000600082015250565b60006188d8601483617a63565b91506188e3826188a2565b602082019050919050565b60006020820190508181036000830152618907816188cb565b9050919050565b7f6d7573742063616c6c20756e6c6f636b5374616b652829206669727374000000600082015250565b6000618944601d83617a63565b915061894f8261890e565b602082019050919050565b6000602082019050818103600083015261897381618937565b9050919050565b7f5374616b65207769746864726177616c206973206e6f74206475650000000000600082015250565b60006189b0601b83617a63565b91506189bb8261897a565b602082019050919050565b600060208201905081810360008301526189df816189a3565b9050919050565b7f6661696c656420746f207769746864726177207374616b650000000000000000600082015250565b6000618a1c601883617a63565b9150618a27826189e6565b602082019050919050565b60006020820190508181036000830152618a4b81618a0f565b9050919050565b6000618a5e8385617fac565b9350618a6b8385846170c7565b82840190509392505050565b6000618a84828486618a52565b91508190509392505050565b600060c082019050618aa56000830189617462565b618ab26020830188617462565b618abf60408301876179ab565b618acc60608301866179ab565b618ad9608083018561798d565b81810360a0830152618aeb8184617dbe565b9050979650505050505050565b600080fd5b600080fd5b60008085851115618b1657618b15618af8565b5b83861115618b2757618b26618afd565b5b6001850283019150848603905094509492505050565b600082905092915050565b60007fffffffffffffffffffffffffffffffffffffffff00000000000000000000000082169050919050565b600082821b905092915050565b6000618b8d8383618b3d565b82618b988135618b48565b92506014821015618bd857618bd37fffffffffffffffffffffffffffffffffffffffff00000000000000000000000083601403600802618b74565b831692505b505092915050565b6000618beb82617d6f565b618bf581856182d9565b9350618c05818560208601617d8b565b618c0e8161700a565b840191505092915050565b600060c083016000830151618c316000860182618258565b506020830151618c446020860182618258565b506040830151618c5760408601826176d8565b506060830151618c6a606086018261770a565b506080830151618c7d608086018261770a565b5060a083015184820360a0860152618c958282618be0565b9150508091505092915050565b604082016000820151618cb86000850182618258565b506020820151618ccb6020850182618258565b50505050565b604082016000820151618ce76000850182618258565b506020820151618cfa6020850182618258565b50505050565b606082016000820151618d166000850182618232565b506020820151618d296020850182618cd1565b50505050565b6000610140820190508181036000830152618d4a8188618c19565b9050618d596020830187618ca2565b618d666060830186618ca2565b618d7360a0830185618ca2565b618d8060e0830184618d00565b9695505050505050565b600060e0820190508181036000830152618da48187618c19565b9050618db36020830186618ca2565b618dc06060830185618ca2565b618dcd60a0830184618ca2565b95945050505050565b7f6465706f736974206f766572666c6f7700000000000000000000000000000000600082015250565b6000618e0c601083617a63565b9150618e1782618dd6565b602082019050919050565b60006020820190508181036000830152618e3b81618dff565b9050919050565b7f4e487b7100000000000000000000000000000000000000000000000000000000600052602160045260246000fd5b60038110618e8257618e81618e42565b5b50565b6000819050618e9382618e71565b919050565b6000618ea382618e85565b9050919050565b618eb381618e98565b82525050565b6000606082019050618ece6000830186618eaa565b8181036020830152618ee08185617dbe565b9050618eef6040830184617462565b949350505050565b60008160e01c9050919050565b600060033d1115618f235760046000803e618f20600051618ef7565b90505b90565b600060443d1015618f3657618fb9565b618f3e616f83565b60043d036004823e80513d602482011167ffffffffffffffff82111715618f66575050618fb9565b808201805167ffffffffffffffff811115618f845750505050618fb9565b80602083010160043d038501811115618fa1575050505050618fb9565b618fb08260200185018661704a565b82955050505050505b90565b600081519050919050565b6000618fd282618fbc565b618fdc8185617a63565b9350618fec818560208601617d8b565b618ff58161700a565b840191505092915050565b60006060820190506190156000830186617462565b61902260208301856185a1565b81810360408301526190348184618fc7565b9050949350505050565b7f41353020706f73744f7020726576657274000000000000000000000000000000600082015250565b6000619074601183617a63565b915061907f8261903e565b602082019050919050565b600060608201905061909f6000830185617462565b6190ac60208301846185a1565b81810360408301526190bd81619067565b90509392505050565b7f4135312070726566756e642062656c6f772061637475616c476173436f737400600082015250565b60006190fc601f83617a63565b9150619107826190c6565b602082019050919050565b60006060820190506191276000830185617462565b61913460208301846185a1565b8181036040830152619145816190ef565b90509392505050565b60006080820190506191636000830187617462565b619170602083018661798d565b61917d6040830185617462565b61918a6060830184617462565b95945050505050565b7f41413934206761732076616c756573206f766572666c6f770000000000000000600082015250565b60006191c9601883617a63565b91506191d482619193565b602082019050919050565b600060208201905081810360008301526191f8816191bc565b9050919050565b7f41413430206f76657220766572696669636174696f6e4761734c696d69740000600082015250565b6000619235601e83617a63565b9150619240826191ff565b602082019050919050565b60006060820190506192606000830185617462565b61926d60208301846185a1565b818103604083015261927e81619228565b90509392505050565b7f41413234207369676e6174757265206572726f72000000000000000000000000600082015250565b60006192bd601483617a63565b91506192c882619287565b602082019050919050565b60006060820190506192e86000830185617462565b6192f560208301846185a1565b8181036040830152619306816192b0565b90509392505050565b7f414132322065787069726564206f72206e6f7420647565000000000000000000600082015250565b6000619345601783617a63565b91506193508261930f565b602082019050919050565b60006060820190506193706000830185617462565b61937d60208301846185a1565b818103604083015261938e81619338565b90509392505050565b7f41413334207369676e6174757265206572726f72000000000000000000000000600082015250565b60006193cd601483617a63565b91506193d882619397565b602082019050919050565b60006060820190506193f86000830185617462565b61940560208301846185a1565b8181036040830152619416816193c0565b90509392505050565b7f41413332207061796d61737465722065787069726564206f72206e6f7420647560008201527f6500000000000000000000000000000000000000000000000000000000000000602082015250565b600061947b602183617a63565b91506194868261941f565b604082019050919050565b60006060820190506194a66000830185617462565b6194b360208301846185a1565b81810360408301526194c48161946e565b90509392505050565b610100820160008201516194e46000850182618232565b5060208201516194f76020850182618258565b50604082015161950a6040850182618258565b50606082015161951d6060850182618258565b5060808201516195306080850182618258565b5060a082015161954360a0850182618232565b5060c082015161955660c0850182618258565b5060e082015161956960e0850182618258565b50505050565b619578816172a9565b82525050565b6101808201600082015161959560008501826194cd565b5060208201516195a961010085018261956f565b5060408201516195bd610120850182618258565b5060608201516195d1610140850182618258565b5060808201516195e5610160850182618258565b50505050565b60006101c0820190508181036000830152619607818688618539565b9050619616602083018561957e565b8181036101a08301526196298184617dbe565b905095945050505050565b600081519050619643816171b3565b92915050565b60006020828403121561965f5761965e616f8d565b5b600061966d84828501619634565b91505092915050565b7f41413935206f7574206f66206761730000000000000000000000000000000000600082015250565b60006196ac600f83617a63565b91506196b782619676565b602082019050919050565b60006060820190506196d76000830185617462565b6196e460208301846185a1565b81810360408301526196f58161969f565b90509392505050565b7f4141393020696e76616c69642062656e65666963696172790000000000000000600082015250565b6000619734601883617a63565b915061973f826196fe565b602082019050919050565b6000602082019050818103600083015261976381619727565b9050919050565b7f41413931206661696c65642073656e6420746f2062656e656669636961727900600082015250565b60006197a0601f83617a63565b91506197ab8261976a565b602082019050919050565b600060208201905081810360008301526197cf81619793565b9050919050565b7f4141393320696e76616c6964207061796d6173746572416e6444617461000000600082015250565b600061980c601d83617a63565b9150619817826197d6565b602082019050919050565b6000602082019050818103600083015261983b816197ff565b9050919050565b600060408201905061985760008301856185a1565b61986460208301846185a1565b9392505050565b6000819050919050565b600061989061988b6198868461986b565b617a0d565b6171a9565b9050919050565b6198a081619875565b82525050565b60006060820190506198bb6000830186619897565b6198c860208301856185a1565b81810360408301526198da8184618fc7565b9050949350505050565b6000815190506198f3816174f4565b92915050565b60006020828403121561990f5761990e616f8d565b5b600061991d848285016198e4565b91505092915050565b6000610160830161993a600084018461821b565b6199476000860182618232565b506199556020840184618241565b6199626020860182618258565b506199706040840184618276565b85830360408701526199838382846182ea565b925050506199946060840184618276565b85830360608701526199a78382846182ea565b925050506199b86080840184618241565b6199c56080860182618258565b506199d360a0840184618241565b6199e060a0860182618258565b506199ee60c0840184618241565b6199fb60c0860182618258565b50619a0960e0840184618241565b619a1660e0860182618258565b50619a25610100840184618241565b619a33610100860182618258565b50619a42610120840184618276565b858303610120870152619a568382846182ea565b92505050619a68610140840184618276565b858303610140870152619a7c8382846182ea565b925050508091505092915050565b60006080820190508181036000830152619aa48187619926565b9050619ab36020830186617897565b619ac060408301856185a1565b619acd6060830184617462565b95945050505050565b7f4141323320726576657274656420286f72204f4f472900000000000000000000600082015250565b6000619b0c601683617a63565b9150619b1782619ad6565b602082019050919050565b6000606082019050619b376000830185617462565b619b4460208301846185a1565b8181036040830152619b5581619aff565b90509392505050565b7f41413231206469646e2774207061792070726566756e64000000000000000000600082015250565b6000619b94601783617a63565b9150619b9f82619b5e565b602082019050919050565b6000606082019050619bbf6000830185617462565b619bcc60208301846185a1565b8181036040830152619bdd81619b87565b90509392505050565b7f4141343120746f6f206c6974746c6520766572696669636174696f6e47617300600082015250565b6000619c1c601f83617a63565b9150619c2782619be6565b602082019050919050565b60006020820190508181036000830152619c4b81619c0f565b9050919050565b7f41413331207061796d6173746572206465706f73697420746f6f206c6f770000600082015250565b6000619c88601e83617a63565b9150619c9382619c52565b602082019050919050565b6000606082019050619cb36000830185617462565b619cc060208301846185a1565b8181036040830152619cd181619c7b565b90509392505050565b60006060820190508181036000830152619cf48186619926565b9050619d036020830185617897565b619d106040830184617462565b949350505050565b6000619d2b619d2684617096565b61707b565b905082815260208101848484011115619d4757619d46617005565b5b619d52848285617d8b565b509392505050565b600082601f830112619d6f57619d6e617000565b5b8151619d7f848260208601619d18565b91505092915050565b60008060408385031215619d9f57619d9e616f8d565b5b600083015167ffffffffffffffff811115619dbd57619dbc616f92565b5b619dc985828601619d5a565b9250506020619dda85828601619634565b9150509250929050565b7f4141333320726576657274656420286f72204f4f472900000000000000000000600082015250565b6000619e1a601683617a63565b9150619e2582619de4565b602082019050919050565b6000606082019050619e456000830185617462565b619e5260208301846185a1565b8181036040830152619e6381619e0d565b90509392505050565b6000819050919050565b6000619e8182619e6c565b9150619e8c83619e6c565b9250827f800000000000000000000000000000000000000000000000000000000000000001821260008412151615619ec757619ec6617b4c565b5b827f7fffffffffffffffffffffffffffffffffffffffffffffffffffffffffffffff018213600084121615619eff57619efe617b4c565b5b828203905092915050565b7f414131302073656e64657220616c726561647920636f6e737472756374656400600082015250565b6000619f40601f83617a63565b9150619f4b82619f0a565b602082019050919050565b6000606082019050619f6b6000830185617462565b619f7860208301846185a1565b8181036040830152619f8981619f33565b90509392505050565b7f4141313320696e6974436f6465206661696c6564206f72204f4f470000000000600082015250565b6000619fc8601b83617a63565b9150619fd382619f92565b602082019050919050565b6000606082019050619ff36000830185617462565b61a00060208301846185a1565b818103604083015261a01181619fbb565b90509392505050565b7f4141313420696e6974436f6465206d7573742072657475726e2073656e646572600082015250565b600061a050602083617a63565b915061a05b8261a01a565b602082019050919050565b600060608201905061a07b6000830185617462565b61a08860208301846185a1565b818103604083015261a0998161a043565b90509392505050565b7f4141313520696e6974436f6465206d757374206372656174652073656e646572600082015250565b600061a0d8602083617a63565b915061a0e38261a0a2565b602082019050919050565b600060608201905061a1036000830185617462565b61a11060208301846185a1565b818103604083015261a1218161a0cb565b9050939250505056fea26469706673582212200a4a6d00c024a3b5efeb383221d25344f485e9ace18ab71bc75e8dbb80cbf79364736f6c634300080c0033608060405234801561001057600080fd5b5061044f806100206000396000f3fe608060405234801561001057600080fd5b506004361061002b5760003560e01c8063570e1a3614610030575b600080fd5b61004a60048036038101906100459190610288565b610060565b6040516100579190610316565b60405180910390f35b600061007667babf262f6507996260c01b610216565b61008a67b4f3a196a4753e5f60c01b610216565b61009e67ecd465d25d727fd560c01b610216565b600083836000906014926100b49392919061033b565b906100bf91906103ba565b60601c90506100d8675c8f2a44dca8353160c01b610216565b6100ec67fa6821634d4f60fa60c01b610216565b6000848460149080926101019392919061033b565b8080601f016020809104026020016040519081016040528093929190818152602001838380828437600081840152601f19601f82011690508083019250505050505050905061015a673ab92cceda544a5760c01b610216565b61016e67eea0c68892583a1d60c01b610216565b60006101846769ae7bdc6cff41ca60c01b610216565b602060008351602085016000875af1905060005193506101ae67ac3910e26aa0e4f660c01b610216565b6101c267d4c22122c5e0994960c01b610216565b806101f8576101db671f467dbbed5b664660c01b610216565b6101ef67f6273808d93ca17e60c01b610216565b6000935061020d565b61020c67e64fb6a5a0673f8860c01b610216565b5b50505092915050565b50565b600080fd5b600080fd5b600080fd5b600080fd5b600080fd5b60008083601f84011261024857610247610223565b5b8235905067ffffffffffffffff81111561026557610264610228565b5b6020830191508360018202830111156102815761028061022d565b5b9250929050565b6000806020838503121561029f5761029e610219565b5b600083013567ffffffffffffffff8111156102bd576102bc61021e565b5b6102c985828601610232565b92509250509250929050565b600073ffffffffffffffffffffffffffffffffffffffff82169050919050565b6000610300826102d5565b9050919050565b610310816102f5565b82525050565b600060208201905061032b6000830184610307565b92915050565b600080fd5b600080fd5b6000808585111561034f5761034e610331565b5b838611156103605761035f610336565b5b6001850283019150848603905094509492505050565b600082905092915050565b60007fffffffffffffffffffffffffffffffffffffffff00000000000000000000000082169050919050565b600082821b905092915050565b60006103c68383610376565b826103d18135610381565b925060148210156104115761040c7fffffffffffffffffffffffffffffffffffffffff000000000000000000000000836014036008026103ad565b831692505b50509291505056fea2646970667358221220eaa97b28421cdfc7738551bfc77ba40117c74b8e40311910495e9c8aa74e619c64736f6c634300080c0033",
  "linkReferences": {},
  "deployedLinkReferences": {}
}