{
  "_format": "hh-sol-artifact-1",
  "contractName": "TestSignatureAggregator",
  "sourceName": "src/test/TestSignatureAggregator.sol",
  "abi": [
    {
      "inputs": [
        {
          "internalType": "contract IEntryPoint",
          "name": "entryPoint",
          "type": "address"
        },
        {
          "internalType": "uint32",
          "name": "delay",
          "type": "uint32"
        }
      ],
      "name": "addStake",
      "outputs": [],
      "stateMutability": "payable",
      "type": "function"
    },
    {
      "inputs": [
        {
          "components": [
            {
              "internalType": "address",
              "name": "sender",
              "type": "address"
            },
            {
              "internalType": "uint256",
              "name": "nonce",
              "type": "uint256"
            },
            {
              "internalType": "bytes",
              "name": "initCode",
              "type": "bytes"
            },
            {
              "internalType": "bytes",
              "name": "callData",
              "type": "bytes"
            },
            {
              "internalType": "uint256",
              "name": "callGasLimit",
              "type": "uint256"
            },
            {
              "internalType": "uint256",
              "name": "verificationGasLimit",
              "type": "uint256"
            },
            {
              "internalType": "uint256",
              "name": "preVerificationGas",
              "type": "uint256"
            },
            {
              "internalType": "uint256",
              "name": "maxFeePerGas",
              "type": "uint256"
            },
            {
              "internalType": "uint256",
              "name": "maxPriorityFeePerGas",
              "type": "uint256"
            },
            {
              "internalType": "bytes",
              "name": "paymasterAndData",
              "type": "bytes"
            },
            {
              "internalType": "bytes",
              "name": "signature",
              "type": "bytes"
            }
          ],
          "internalType": "struct UserOperation[]",
          "name": "userOps",
          "type": "tuple[]"
        }
      ],
      "name": "aggregateSignatures",
      "outputs": [
        {
          "internalType": "bytes",
          "name": "aggregatesSignature",
          "type": "bytes"
        }
      ],
      "stateMutability": "pure",
      "type": "function"
    },
    {
      "inputs": [
        {
          "components": [
            {
              "internalType": "address",
              "name": "sender",
              "type": "address"
            },
            {
              "internalType": "uint256",
              "name": "nonce",
              "type": "uint256"
            },
            {
              "internalType": "bytes",
              "name": "initCode",
              "type": "bytes"
            },
            {
              "internalType": "bytes",
              "name": "callData",
              "type": "bytes"
            },
            {
              "internalType": "uint256",
              "name": "callGasLimit",
              "type": "uint256"
            },
            {
              "internalType": "uint256",
              "name": "verificationGasLimit",
              "type": "uint256"
            },
            {
              "internalType": "uint256",
              "name": "preVerificationGas",
              "type": "uint256"
            },
            {
              "internalType": "uint256",
              "name": "maxFeePerGas",
              "type": "uint256"
            },
            {
              "internalType": "uint256",
              "name": "maxPriorityFeePerGas",
              "type": "uint256"
            },
            {
              "internalType": "bytes",
              "name": "paymasterAndData",
              "type": "bytes"
            },
            {
              "internalType": "bytes",
              "name": "signature",
              "type": "bytes"
            }
          ],
          "internalType": "struct UserOperation[]",
          "name": "userOps",
          "type": "tuple[]"
        },
        {
          "internalType": "bytes",
          "name": "signature",
          "type": "bytes"
        }
      ],
      "name": "validateSignatures",
      "outputs": [],
      "stateMutability": "pure",
      "type": "function"
    },
    {
      "inputs": [
        {
          "components": [
            {
              "internalType": "address",
              "name": "sender",
              "type": "address"
            },
            {
              "internalType": "uint256",
              "name": "nonce",
              "type": "uint256"
            },
            {
              "internalType": "bytes",
              "name": "initCode",
              "type": "bytes"
            },
            {
              "internalType": "bytes",
              "name": "callData",
              "type": "bytes"
            },
            {
              "internalType": "uint256",
              "name": "callGasLimit",
              "type": "uint256"
            },
            {
              "internalType": "uint256",
              "name": "verificationGasLimit",
              "type": "uint256"
            },
            {
              "internalType": "uint256",
              "name": "preVerificationGas",
              "type": "uint256"
            },
            {
              "internalType": "uint256",
              "name": "maxFeePerGas",
              "type": "uint256"
            },
            {
              "internalType": "uint256",
              "name": "maxPriorityFeePerGas",
              "type": "uint256"
            },
            {
              "internalType": "bytes",
              "name": "paymasterAndData",
              "type": "bytes"
            },
            {
              "internalType": "bytes",
              "name": "signature",
              "type": "bytes"
            }
          ],
          "internalType": "struct UserOperation",
          "name": "",
          "type": "tuple"
        }
      ],
      "name": "validateUserOpSignature",
      "outputs": [
        {
          "internalType": "bytes",
          "name": "",
          "type": "bytes"
        }
      ],
      "stateMutability": "pure",
      "type": "function"
    }
  ],
  "bytecode": "0x608060405234801561001057600080fd5b50610cb2806100206000396000f3fe60806040526004361061003f5760003560e01c8063275e2d7914610044578063451711591461008157806364c530cd1461009d578063e3563a4f146100da575b600080fd5b34801561005057600080fd5b5061006b60048036038101906100669190610606565b610103565b60405161007891906106ec565b60405180910390f35b61009b600480360381019061009691906107ba565b610228565b005b3480156100a957600080fd5b506100c460048036038101906100bf919061081f565b6102d4565b6040516100d191906106ec565b60405180910390f35b3480156100e657600080fd5b5061010160048036038101906100fc91906108be565b610329565b005b606061011967b34558390fd601bc60c01b610594565b61012d672460e95bb0dc561a60c01b610594565b61014167b5569ce3a642753c60c01b610594565b60006101576736054e3fac3090d860c01b610594565b61016b678ae2f4ec9ed14e3960c01b610594565b60005b848490508110156101d65761018d671b7bf7590f3ef1a660c01b610594565b8484828181106101a05761019f61093f565b5b90506020028101906101b29190610973565b60200135826101c191906109d5565b915080806101ce90610a2b565b91505061016e565b506101eb6731670ff20c44417560c01b610594565b6101ff67900d79a681b9c48a60c01b610594565b806040516020016102109190610a83565b60405160208183030381529060405291505092915050565b61023c67eb428cf27aacf20560c01b610594565b610250674763f85866ca583b60c01b610594565b61026467db2925dece31cb0060c01b610594565b8173ffffffffffffffffffffffffffffffffffffffff16630396cb6034836040518363ffffffff1660e01b815260040161029e9190610aad565b6000604051808303818588803b1580156102b757600080fd5b505af11580156102cb573d6000803e3d6000fd5b50505050505050565b60606102ea6719eb500c5739c95d60c01b610594565b6102fe675d05682ab207f3c560c01b610594565b610312673fe67bc8b76767a260c01b610594565b604051806020016040528060008152509050919050565b61033d67120f7e0225ef6b8d60c01b610594565b61035167f5a0faaa3edecb8660c01b610594565b61036567c1be4b75b24987c260c01b610594565b600061037b67ff3c3fba750177d560c01b610594565b61038f67a2aa787e869317c460c01b610594565b60005b85859050811015610428576103b167f3b4bc63e9393e6a60c01b610594565b6103c567026fed8cd943d0d360c01b610594565b60008686838181106103da576103d961093f565b5b90506020028101906103ec9190610973565b60200135905061040667a7aaa22b9cbc805660c01b610594565b808361041291906109d5565b925050808061042090610a2b565b915050610392565b5061043d679a15f21829ee46ce60c01b610594565b61045167f9ea7236710f1fa360c01b610594565b6104656776d521ac1f3f2cd660c01b610594565b602083839050146104ab576040517f08c379a00000000000000000000000000000000000000000000000000000000081526004016104a290610b4b565b60405180910390fd5b6104bf673e455611234ea0fb60c01b610594565b6104d367c3e96c666987723a60c01b610594565b6104e7679c63e7b4e91de4fd60c01b610594565b600083838101906104f89190610b97565b905061050e6793abf06931d76cdd60c01b610594565b610522674f00b4cc215755d160c01b610594565b610536673e2c9ed32f087e6060c01b610594565b818114610578576040517f08c379a000000000000000000000000000000000000000000000000000000000815260040161056f90610c5c565b60405180910390fd5b61058c67319de1f263561a0b60c01b610594565b505050505050565b50565b600080fd5b600080fd5b600080fd5b600080fd5b600080fd5b60008083601f8401126105c6576105c56105a1565b5b8235905067ffffffffffffffff8111156105e3576105e26105a6565b5b6020830191508360208202830111156105ff576105fe6105ab565b5b9250929050565b6000806020838503121561061d5761061c610597565b5b600083013567ffffffffffffffff81111561063b5761063a61059c565b5b610647858286016105b0565b92509250509250929050565b600081519050919050565b600082825260208201905092915050565b60005b8381101561068d578082015181840152602081019050610672565b8381111561069c576000848401525b50505050565b6000601f19601f8301169050919050565b60006106be82610653565b6106c8818561065e565b93506106d881856020860161066f565b6106e1816106a2565b840191505092915050565b6000602082019050818103600083015261070681846106b3565b905092915050565b600073ffffffffffffffffffffffffffffffffffffffff82169050919050565b60006107398261070e565b9050919050565b600061074b8261072e565b9050919050565b61075b81610740565b811461076657600080fd5b50565b60008135905061077881610752565b92915050565b600063ffffffff82169050919050565b6107978161077e565b81146107a257600080fd5b50565b6000813590506107b48161078e565b92915050565b600080604083850312156107d1576107d0610597565b5b60006107df85828601610769565b92505060206107f0858286016107a5565b9150509250929050565b600080fd5b60006101608284031215610816576108156107fa565b5b81905092915050565b60006020828403121561083557610834610597565b5b600082013567ffffffffffffffff8111156108535761085261059c565b5b61085f848285016107ff565b91505092915050565b60008083601f84011261087e5761087d6105a1565b5b8235905067ffffffffffffffff81111561089b5761089a6105a6565b5b6020830191508360018202830111156108b7576108b66105ab565b5b9250929050565b600080600080604085870312156108d8576108d7610597565b5b600085013567ffffffffffffffff8111156108f6576108f561059c565b5b610902878288016105b0565b9450945050602085013567ffffffffffffffff8111156109255761092461059c565b5b61093187828801610868565b925092505092959194509250565b7f4e487b7100000000000000000000000000000000000000000000000000000000600052603260045260246000fd5b600080fd5b600082356001610160038336030381126109905761098f61096e565b5b80830191505092915050565b6000819050919050565b7f4e487b7100000000000000000000000000000000000000000000000000000000600052601160045260246000fd5b60006109e08261099c565b91506109eb8361099c565b9250827fffffffffffffffffffffffffffffffffffffffffffffffffffffffffffffffff03821115610a2057610a1f6109a6565b5b828201905092915050565b6000610a368261099c565b91507fffffffffffffffffffffffffffffffffffffffffffffffffffffffffffffffff821415610a6957610a686109a6565b5b600182019050919050565b610a7d8161099c565b82525050565b6000602082019050610a986000830184610a74565b92915050565b610aa78161077e565b82525050565b6000602082019050610ac26000830184610a9e565b92915050565b600082825260208201905092915050565b7f546573745369676e617475726556616c696461746f723a20736967206d75737460008201527f2062652075696e74000000000000000000000000000000000000000000000000602082015250565b6000610b35602883610ac8565b9150610b4082610ad9565b604082019050919050565b60006020820190508181036000830152610b6481610b28565b9050919050565b610b748161099c565b8114610b7f57600080fd5b50565b600081359050610b9181610b6b565b92915050565b600060208284031215610bad57610bac610597565b5b6000610bbb84828501610b82565b91505092915050565b7f546573745369676e617475726556616c696461746f723a20616767726567617460008201527f6564207369676e6174757265206d69736d6174636820286e6f6e63652073756d60208201527f2900000000000000000000000000000000000000000000000000000000000000604082015250565b6000610c46604183610ac8565b9150610c5182610bc4565b606082019050919050565b60006020820190508181036000830152610c7581610c39565b905091905056fea2646970667358221220846350976944fdc871bd024835e44c05e4fc7ca6a4bce84bce348a856ee05f5d64736f6c634300080c0033",
  "linkReferences": {},
  "deployedLinkReferences": {}
}