{
  "address": "0x2f771DCa6Ffa3879e48355E8A4aF5b81d82A6164",
  "abi": [
    {
      "inputs": [],
      "stateMutability": "nonpayable",
      "type": "constructor"
    },
    {
      "anonymous": false,
      "inputs": [
        {
          "indexed": true,
          "internalType": "address",
          "name": "wallet",
          "type": "address"
        },
        {
          "indexed": true,
          "internalType": "address",
          "name": "owner",
          "type": "address"
        },
        {
          "indexed": false,
          "internalType": "uint256",
          "name": "index",
          "type": "uint256"
        }
      ],
      "name": "AccountCreation",
      "type": "event"
    },
    {
      "inputs": [],
      "name": "accountCreationCode",
      "outputs": [
        {
          "internalType": "bytes",
          "name": "",
          "type": "bytes"
        }
      ],
      "stateMutability": "pure",
      "type": "function"
    },
    {
      "inputs": [],
      "name": "accountImplementation",
      "outputs": [
        {
          "internalType": "address",
          "name": "",
          "type": "address"
        }
      ],
      "stateMutability": "view",
      "type": "function"
    },
    {
      "inputs": [
        {
          "internalType": "contract IEntryPoint",
          "name": "entryPoint",
          "type": "address"
        },
        {
          "internalType": "address",
          "name": "owner",
          "type": "address"
        },
        {
          "internalType": "uint256",
          "name": "index",
          "type": "uint256"
        }
      ],
      "name": "createAccount",
      "outputs": [
        {
          "internalType": "address",
          "name": "ret",
          "type": "address"
        }
      ],
      "stateMutability": "nonpayable",
      "type": "function"
    },
    {
      "inputs": [
        {
          "internalType": "contract IEntryPoint",
          "name": "entryPoint",
          "type": "address"
        },
        {
          "internalType": "address",
          "name": "owner",
          "type": "address"
        },
        {
          "internalType": "uint256",
          "name": "index",
          "type": "uint256"
        }
      ],
      "name": "getAddress",
      "outputs": [
        {
          "internalType": "address",
          "name": "proxy",
          "type": "address"
        }
      ],
      "stateMutability": "view",
      "type": "function"
    }
  ],
  "transactionHash": "0x92bee02f11b3768d90a374f91e0d573cceb870cce92064c2e196014f2d18dde8",
  "args": [],
  "numDeployments": 1,
  "solcInputHash": "1bc79802d12ae0b4ebb2e08badbbe042",
  "bytecode": "0x60a060405234801561001057600080fd5b5060405161001d9061004b565b604051809103906000f080158015610039573d6000803e3d6000fd5b506001600160a01b0316608052610058565b6131708061072183390190565b6080516106a161008060003960008181608601528181610152015261029401526106a16000f3fe608060405234801561001057600080fd5b506004361061004c5760003560e01c806308a6354e1461005157806311464fbe146100815780631230aea2146100a857806331c884df146100bb575b600080fd5b61006461005f366004610445565b6100d0565b6040516001600160a01b0390911681526020015b60405180910390f35b6100647f000000000000000000000000000000000000000000000000000000000000000081565b6100646100b6366004610445565b6101ec565b6100c36103a4565b60405161007891906104aa565b6000806100dd85856103ce565b90506000818051906020012084604051602001610104929190918252602082015260400190565b60405160208183030381529060405280519060200120905060006040518060200161012e90610420565b601f1982820381018352601f90910116604081905261017b91906001600160a01b037f000000000000000000000000000000000000000000000000000000000000000016906020016104dd565b60408051808303601f1901815282825280516020918201206001600160f81b0319828501523060601b6bffffffffffffffffffffffff191660218501526035840195909552605580840195909552815180840390950185526075909201905282519201919091209695505050505050565b6000806101fa8585856100d0565b90506001600160a01b0381163b1561021357905061039d565b600061021f86866103ce565b90506000818051906020012085604051602001610246929190918252602082015260400190565b60405160208183030381529060405280519060200120905060006040518060200161027090610420565b601f1982820381018352601f9091011660408190526102bd91906001600160a01b037f000000000000000000000000000000000000000000000000000000000000000016906020016104dd565b6040516020818303038152906040529050818151826020016000f594506001600160a01b03851661032a5760405162461bcd60e51b815260206004820152601360248201527210dc99585d194c8818d85b1b0819985a5b1959606a1b604482015260640160405180910390fd5b82511561034b57600080600085516020870160008a5af10361034b57600080fd5b866001600160a01b0316856001600160a01b03167f8967dcaa00d8fcb9bb2b5beff4aaf8c020063512cf08fbe11fec37a1e3a150f28860405161039091815260200190565b60405180910390a3505050505b9392505050565b6060604051806020016103b690610420565b601f1982820381018352601f90910116604052919050565b6040516001600160a01b0380841660248301528216604482015260609060640160408051601f198184030181529190526020810180516001600160e01b031663485cc95560e01b179052905092915050565b61016c8061050083390190565b6001600160a01b038116811461044257600080fd5b50565b60008060006060848603121561045a57600080fd5b83356104658161042d565b925060208401356104758161042d565b929592945050506040919091013590565b60005b838110156104a1578181015183820152602001610489565b50506000910152565b60208152600082518060208401526104c9816040850160208701610486565b601f01601f19169190910160400192915050565b600083516104ef818460208801610486565b919091019182525060200191905056fe608060405234801561001057600080fd5b5060405161016c38038061016c83398101604081905261002f916100b0565b6001600160a01b0381166100895760405162461bcd60e51b815260206004820152601860248201527f496e76616c696420616464726573732070726f76696465640000000000000000604482015260640160405180910390fd5b7f360894a13ba1a3210667c828492db98dca3e2076cc3735a920a3ca505d382bbc556100e0565b6000602082840312156100c257600080fd5b81516001600160a01b03811681146100d957600080fd5b9392505050565b607e806100ee6000396000f3fe60806040527f360894a13ba1a3210667c828492db98dca3e2076cc3735a920a3ca505d382bbc543660008037600080366000845af43d6000803e806042573d6000fd5b503d6000f3fea2646970667358221220bf4792713f0ae541fee868815c68df07e96dbe0616b01cc209b0004f92ee91a964736f6c63430008110033a264697066735822122048492e64a4b200947ee65b05996ea7a11d6eca5f1de129c9a4c9f3bcdc2850c964736f6c6343000811003360e0604052306080526103e860a05261025860c0523480156200002157600080fd5b506200002c62000032565b620000f4565b600054610100900460ff16156200009f5760405162461bcd60e51b815260206004820152602760248201527f496e697469616c697a61626c653a20636f6e747261637420697320696e697469604482015266616c697a696e6760c81b606482015260840160405180910390fd5b60005460ff9081161015620000f2576000805460ff191660ff9081179091556040519081527f7f26b83ff96e1f2b6a682f133852f6798a09c465da95921460cefb38474024989060200160405180910390a15b565b60805160a05160c051613030620001406000396000611a2901526000611a61015260008181610b3a01528181610b7a01528181610ff70152818161103701526110c601526130306000f3fe6080604052600436106101e65760003560e01c80634d44560d11610102578063b0d691fe11610095578063c3db883811610064578063c3db8838146105ac578063c7f758a8146105c1578063d087d288146105f1578063f23a6e611461060657600080fd5b8063b0d691fe14610520578063b61d27f614610548578063bc197c8114610568578063c399ec881461059757600080fd5b80637065cb48116100d15780637065cb48146104a057806371404156146104c05780637dcab4ce146104e0578063a526d83b1461050057600080fd5b80634d44560d146104425780634f1ef2861461046257806352d1902d1461047557806354387ad71461048a57600080fd5b8063201e41a21161017a5780633a871cdd116101495780633a871cdd146103da57806347e1da2a146103fa578063485cc9551461041a5780634a58db191461043a57600080fd5b8063201e41a2146103645780632dfca445146103845780632f54bf6e1461039a5780633659cfe6146103ba57600080fd5b8063150b7a02116101b6578063150b7a02146102bf5780631626ba7e14610304578063173825d9146103245780631b71bb6e1461034457600080fd5b806223de291461021f57806301ffc9a7146102465780630c68ba211461027b5780630db026221461029b57600080fd5b3661021a57604051349033907f6bfe7d1a46050e376574ac8bf67e7ceefae9d5c3ea3f3d8f42d08fb5e10736ec90600090a3005b600080fd5b34801561022b57600080fd5b5061024461023a366004612750565b5050505050505050565b005b34801561025257600080fd5b50610266610261366004612801565b610633565b60405190151581526020015b60405180910390f35b34801561028757600080fd5b5061026661029636600461282b565b610685565b3480156102a757600080fd5b506102b160015481565b604051908152602001610272565b3480156102cb57600080fd5b506102eb6102da366004612848565b630a85bd0160e11b95945050505050565b6040516001600160e01b03199091168152602001610272565b34801561031057600080fd5b506102eb61031f3660046128bb565b6106a3565b34801561033057600080fd5b5061024461033f36600461282b565b61071a565b34801561035057600080fd5b5061024461035f36600461282b565b610799565b34801561037057600080fd5b5061024461037f366004612907565b6108a3565b34801561039057600080fd5b506102b160035481565b3480156103a657600080fd5b506102666103b536600461282b565b610b12565b3480156103c657600080fd5b506102446103d536600461282b565b610b30565b3480156103e657600080fd5b506102b16103f5366004612920565b610c0c565b34801561040657600080fd5b506102446104153660046129b9565b610c2b565b34801561042657600080fd5b50610244610435366004612a53565b610dca565b610244610edf565b34801561044e57600080fd5b5061024461045d366004612a8c565b610f4a565b610244610470366004612ace565b610fed565b34801561048157600080fd5b506102b16110b9565b34801561049657600080fd5b506102b160025481565b3480156104ac57600080fd5b506102446104bb36600461282b565b61116c565b3480156104cc57600080fd5b506102446104db36600461282b565b6111a4565b3480156104ec57600080fd5b506102446104fb36600461282b565b6111dc565b34801561050c57600080fd5b5061024461051b36600461282b565b611422565b34801561052c57600080fd5b506007546040516001600160a01b039091168152602001610272565b34801561055457600080fd5b50610244610563366004612b92565b61145a565b34801561057457600080fd5b506102eb610583366004612bee565b63bc197c8160e01b98975050505050505050565b3480156105a357600080fd5b506102b1611505565b3480156105b857600080fd5b50610244611589565b3480156105cd57600080fd5b506105e16105dc366004612907565b611695565b6040516102729493929190612c8c565b3480156105fd57600080fd5b506102b16117a8565b34801561061257600080fd5b506102eb610621366004612cfa565b63f23a6e6160e01b9695505050505050565b60006001600160e01b03198216630a85bd0160e11b148061066457506001600160e01b03198216630271189760e51b145b8061067f57506001600160e01b031982166301ffc9a760e01b145b92915050565b6001600160a01b031660009081526005602052604090205460ff1690565b6000806106e68585858080601f0160208091040260200160405190810160405280939291908181526020018383808284376000920191909152506117f192505050565b90506106f181610b12565b156107065750630b135d3f60e11b9050610713565b506001600160e01b031990505b9392505050565b61072333610b12565b8061072d57503330145b8061073c575061073c33610685565b61078d5760405162461bcd60e51b815260206004820152601c60248201527f41434c3a3a206f6e6c79206f776e6572206f7220677561726469616e0000000060448201526064015b60405180910390fd5b61079681611815565b50565b6107a233610b12565b806107ac57503330145b6107c85760405162461bcd60e51b815260040161078490612d64565b6001600160a01b03811661083a5760405162461bcd60e51b815260206004820152603360248201527f457468657273706f7457616c6c65743a3a20456e747279506f696e7420616464604482015272726573732063616e6e6f74206265207a65726f60681b6064820152608401610784565b600754604080516001600160a01b03928316815291831660208301527f450909c1478d09248269d4ad4fa8cba61ca3f50faed58c7aedefa51c7f62b83a910160405180910390a1600780546001600160a01b0319166001600160a01b0392909216919091179055565b6108ac33610685565b6108ee5760405162461bcd60e51b815260206004820152601360248201527220a1a61d1d1037b7363c9033bab0b93234b0b760691b6044820152606401610784565b60035481111561093c5760405162461bcd60e51b81526020600482015260196024820152781050d30e8e881a5b9d985b1a59081c1c9bdc1bdcd85b081a59603a1b6044820152606401610784565b6109458161198c565b156109a15760405162461bcd60e51b815260206004820152602660248201527f41434c3a3a20677561726469616e20616c7265616479207369676e65642070726044820152651bdc1bdcd85b60d21b6064820152608401610784565b600380546000908152600660205260409020015460ff1615610a055760405162461bcd60e51b815260206004820152601f60248201527f41434c3a3a2070726f706f73616c20616c7265616479207265736f6c766564006044820152606401610784565b600081815260066020908152604082206002810180546001818101835591855292842090920180546001600160a01b031916331790558383528101805491929091610a51908490612da4565b90915550506000818152600660205260409020546001600160a01b0316610a7782611a0d565b15610aa75760038054600090815260066020526040902001805460ff19166001179055610aa381611a99565b5050565b600082815260066020526040908190206001015490517f49c70961209a4b7094f03ff1e54f2dd8f38425aa77a72af54804727d9c1472af91610b0691859185919283526001600160a01b03919091166020830152604082015260600190565b60405180910390a15050565b6001600160a01b031660009081526004602052604090205460ff1690565b6001600160a01b037f0000000000000000000000000000000000000000000000000000000000000000163003610b785760405162461bcd60e51b815260040161078490612db7565b7f00000000000000000000000000000000000000000000000000000000000000006001600160a01b0316610bc1600080516020612fb4833981519152546001600160a01b031690565b6001600160a01b031614610be75760405162461bcd60e51b815260040161078490612e03565b610bf081611c06565b6040805160008082526020820190925261079691839190611c35565b6000610c16611da0565b610c208484611dfc565b905061071382611ec1565b6007546001600160a01b031633811480610c495750610c4933610b12565b610c955760405162461bcd60e51b815260206004820152601d60248201527f41434c3a3a206e6f74206f776e6572206f7220656e747279506f696e740000006044820152606401610784565b8515801590610ca357508584145b8015610cae57508382145b610d165760405162461bcd60e51b815260206004820152603360248201527f457468657273706f7457616c6c65743a3a206578656375746542617463683a2060448201527277726f6e67206172726179206c656e6774687360681b6064820152608401610784565b60005b8681101561023a57610dc2888883818110610d3657610d36612e4f565b9050602002016020810190610d4b919061282b565b878784818110610d5d57610d5d612e4f565b90506020020135868685818110610d7657610d76612e4f565b9050602002810190610d889190612e65565b8080601f016020809104026020016040519081016040528093929190818152602001838380828437600092019190915250611f0e92505050565b600101610d19565b600054610100900460ff1615808015610dea5750600054600160ff909116105b80610e045750303b158015610e04575060005460ff166001145b610e675760405162461bcd60e51b815260206004820152602e60248201527f496e697469616c697a61626c653a20636f6e747261637420697320616c72656160448201526d191e481a5b9a5d1a585b1a5e995960921b6064820152608401610784565b6000805460ff191660011790558015610e8a576000805461ff0019166101001790555b610e948383611f7e565b8015610eda576000805461ff0019169055604051600181527f7f26b83ff96e1f2b6a682f133852f6798a09c465da95921460cefb38474024989060200160405180910390a15b505050565b6007546001600160a01b031660405163b760faf960e01b81523060048201526001600160a01b03919091169063b760faf99034906024016000604051808303818588803b158015610f2f57600080fd5b505af1158015610f43573d6000803e3d6000fd5b5050505050565b610f5333610b12565b80610f5d57503330145b610f795760405162461bcd60e51b815260040161078490612d64565b6007546001600160a01b031660405163040b850f60e31b81526001600160a01b03848116600483015260248201849052919091169063205c287890604401600060405180830381600087803b158015610fd157600080fd5b505af1158015610fe5573d6000803e3d6000fd5b505050505050565b6001600160a01b037f00000000000000000000000000000000000000000000000000000000000000001630036110355760405162461bcd60e51b815260040161078490612db7565b7f00000000000000000000000000000000000000000000000000000000000000006001600160a01b031661107e600080516020612fb4833981519152546001600160a01b031690565b6001600160a01b0316146110a45760405162461bcd60e51b815260040161078490612e03565b6110ad82611c06565b610aa382826001611c35565b6000306001600160a01b037f000000000000000000000000000000000000000000000000000000000000000016146111595760405162461bcd60e51b815260206004820152603860248201527f555550535570677261646561626c653a206d757374206e6f742062652063616c60448201527f6c6564207468726f7567682064656c656761746563616c6c00000000000000006064820152608401610784565b50600080516020612fb483398151915290565b61117533610b12565b8061117f57503330145b61119b5760405162461bcd60e51b815260040161078490612d64565b61079681611a99565b6111ad33610b12565b806111b757503330145b6111d35760405162461bcd60e51b815260040161078490612d64565b61079681611fe0565b6111e533610685565b6112275760405162461bcd60e51b815260206004820152601360248201527220a1a61d1d1037b7363c9033bab0b93234b0b760691b6044820152606401610784565b600360025410156112a05760405162461bcd60e51b815260206004820152603b60248201527f41434c3a3a206e6f7420656e6f75676820677561726469616e7320746f20707260448201527f6f706f7365206e6577206f776e657220286d696e696d756d20332900000000006064820152608401610784565b600354600090815260066020526040902060020154158015906112d75750600380546000908152600660205260409020015460ff16155b156113335760405162461bcd60e51b815260206004820152602660248201527f41434c3a3a206c61746573742070726f706f73616c206e6f74207965742072656044820152651cdbdb1d995960d21b6064820152608401610784565b600354611341906001612da4565b6003818155600091825260066020908152604080842080546001600160a01b0387166001600160a01b031991821617909155835485528185206002018054600181810183559187529386209093018054909116331790559154835290822081018054919290916113b2908490612da4565b9091555050600380546000908152600660209081526040918290208301805460ff19169055915481519081526001600160a01b038416928101929092523382820152517f1d66a9a8742996ed3cd2ef39261401cbd7cffd856851b944c947596cfc9f4b609181900360600190a150565b61142b33610b12565b8061143557503330145b6114515760405162461bcd60e51b815260040161078490612d64565b610796816120b9565b6007546001600160a01b031633811480611478575061147833610b12565b6114c45760405162461bcd60e51b815260206004820152601d60248201527f41434c3a3a206e6f74206f776e6572206f7220656e747279506f696e740000006044820152606401610784565b610f43858585858080601f016020809104026020016040519081016040528093929190818152602001838380828437600092019190915250611f0e92505050565b60006115196007546001600160a01b031690565b6040516370a0823160e01b81523060048201526001600160a01b0391909116906370a08231906024015b602060405180830381865afa158015611560573d6000803e3d6000fd5b505050506040513d601f19601f820116820180604052508101906115849190612eac565b905090565b61159233610b12565b8061159c57503330145b806115ab57506115ab33610685565b6115f75760405162461bcd60e51b815260206004820152601c60248201527f41434c3a3a206f6e6c79206f776e6572206f7220677561726469616e000000006044820152606401610784565b6003805460009081526006602052604080822080546001600160a01b03191690559154815290812061162e916002909101906126c7565b600380546000908152600660209081526040808320600190810184905584548452928190208401805460ff1916909317909255915490519081527f6a239e06d9a29b35438953e8d6466081859f29d514a83de9dd2b320ace419c5d910160405180910390a1565b600080606060006003548511156116ea5760405162461bcd60e51b81526020600482015260196024820152781050d30e8e881a5b9d985b1a59081c1c9bdc1bdcd85b081a59603a1b6044820152606401610784565b6000858152600660209081526040808320815160808101835281546001600160a01b0316815260018201548185015260028201805484518187028101870186528181529295939486019383018282801561176d57602002820191906000526020600020905b81546001600160a01b0316815260019091019060200180831161174f575b50505091835250506003919091015460ff16151560209182015281519082015160408301516060909301519199909850919650945092505050565b60006117bc6007546001600160a01b031690565b604051631aab3f0d60e11b8152306004820152600060248201526001600160a01b0391909116906335567e1a90604401611543565b6000806000611800858561222a565b9150915061180d8161226f565b509392505050565b6001600160a01b03811633036118635760405162461bcd60e51b815260206004820152601360248201527220a1a61d1d103932b6b7bb34b7339039b2b63360691b6044820152606401610784565b6001600160a01b03811660009081526004602052604090205460ff166118cb5760405162461bcd60e51b815260206004820152601860248201527f41434c3a3a206e6f6e2d6578697374616e74206f776e657200000000000000006044820152606401610784565b600180541161191c5760405162461bcd60e51b815260206004820181905260248201527f41434c3a3a2077616c6c65742063616e6e6f74206265206f776e65726c6573736044820152606401610784565b6040516001600160a01b03821681527f58619076adf5bb0943d100ef88d52d7c3fd691b19d3a9071b555b651fbf418da9060200160405180910390a16001600160a01b0381166000908152600460205260409020805460ff19169055600180546119869190612ec5565b60015550565b6000805b600083815260066020526040902060020154811015611a045760008381526006602052604090206002018054339190839081106119cf576119cf612e4f565b6000918252602090912001546001600160a01b0316036119f25750600192915050565b806119fc81612ed8565b915050611990565b50600092915050565b600254600082815260066020526040812060010154909161ffff7f00000000000000000000000000000000000000000000000000000000000000001691611a87906fffffffffffffffffffffffffffffffff7f00000000000000000000000000000000000000000000000000000000000000001690612ef1565b611a919190612f08565b101592915050565b6001600160a01b038116611ae45760405162461bcd60e51b815260206004820152601260248201527141434c3a3a207a65726f206164647265737360701b6044820152606401610784565b6001600160a01b03811660009081526004602052604090205460ff1615611b435760405162461bcd60e51b815260206004820152601360248201527220a1a61d1d1030b63932b0b23c9037bbb732b960691b6044820152606401610784565b611b4c81610685565b15611b995760405162461bcd60e51b815260206004820152601e60248201527f41434c3a3a20677561726469616e2063616e6e6f74206265206f776e657200006044820152606401610784565b6040516001600160a01b03821681527f994a936646fe87ffe4f1e469d3d6aa417d6b855598397f323de5b449f765f0c39060200160405180910390a16001600160a01b0381166000908152600460205260409020805460ff19166001908117909155805461198691612da4565b611c0f33610b12565b80611c1957503330145b6107965760405162461bcd60e51b815260040161078490612d64565b7f4910fdfa16fed3260ed0e7147f7cc6da11a60208b5b9406d12a635614ffd91435460ff1615611c6857610eda836123b9565b826001600160a01b03166352d1902d6040518163ffffffff1660e01b8152600401602060405180830381865afa925050508015611cc2575060408051601f3d908101601f19168201909252611cbf91810190612eac565b60015b611d255760405162461bcd60e51b815260206004820152602e60248201527f45524331393637557067726164653a206e657720696d706c656d656e7461746960448201526d6f6e206973206e6f74205555505360901b6064820152608401610784565b600080516020612fb48339815191528114611d945760405162461bcd60e51b815260206004820152602960248201527f45524331393637557067726164653a20756e737570706f727465642070726f786044820152681a58589b195555525160ba1b6064820152608401610784565b50610eda838383612455565b6007546001600160a01b03163314611dfa5760405162461bcd60e51b815260206004820152601c60248201527f6163636f756e743a206e6f742066726f6d20456e747279506f696e74000000006044820152606401610784565b565b600080611e56836040517f19457468657265756d205369676e6564204d6573736167653a0a3332000000006020820152603c8101829052600090605c01604051602081830303815290604052805190602001209050919050565b9050611ea96103b5611e6c610140870187612e65565b8080601f01602080910402602001604051908101604052809392919081815260200183838082843760009201919091525086939250506117f19050565b611eb757600191505061067f565b5060009392505050565b801561079657604051600090339060001990849084818181858888f193505050503d8060008114610f43576040519150601f19603f3d011682016040523d82523d6000602084013e610f43565b600080846001600160a01b03168484604051611f2a9190612f4e565b60006040518083038185875af1925050503d8060008114611f67576040519150601f19603f3d011682016040523d82523d6000602084013e611f6c565b606091505b509150915081610f4357805160208201fd5b600780546001600160a01b0319166001600160a01b038416179055611fa281611a99565b6007546040516001600160a01b038084169216907f7de3ed105440056cd9149fc06ecd82c66b9c67841d6dcf50c16a08cc9a5ea2c490600090a35050565b6001600160a01b03811660009081526005602052604090205460ff166120485760405162461bcd60e51b815260206004820152601b60248201527f41434c3a3a206e6f6e2d6578697374616e7420677561726469616e00000000006044820152606401610784565b6040516001600160a01b03821681527fb8107d0c6b40be480ce3172ee66ba6d64b71f6b1685a851340036e6e2e3e3c529060200160405180910390a16001600160a01b0381166000908152600560205260409020805460ff191690556002546120b390600190612ec5565b60025550565b6001600160a01b0381166121045760405162461bcd60e51b815260206004820152601260248201527141434c3a3a207a65726f206164647265737360701b6044820152606401610784565b6001600160a01b03811660009081526005602052604090205460ff16156121665760405162461bcd60e51b815260206004820152601660248201527520a1a61d1d1030b63932b0b23c9033bab0b93234b0b760511b6044820152606401610784565b61216f81610b12565b156121bc5760405162461bcd60e51b815260206004820152601e60248201527f41434c3a3a20677561726469616e2063616e6e6f74206265206f776e657200006044820152606401610784565b6040516001600160a01b03821681527f038596bb31e2e7d3d9f184d4c98b310103f6d7f5830e5eec32bffe6f1728f9699060200160405180910390a16001600160a01b0381166000908152600560205260409020805460ff191660019081179091556002546120b391612da4565b60008082516041036122605760208301516040840151606085015160001a61225487828585612480565b94509450505050612268565b506000905060025b9250929050565b600081600481111561228357612283612f6a565b0361228b5750565b600181600481111561229f5761229f612f6a565b036122ec5760405162461bcd60e51b815260206004820152601860248201527f45434453413a20696e76616c6964207369676e617475726500000000000000006044820152606401610784565b600281600481111561230057612300612f6a565b0361234d5760405162461bcd60e51b815260206004820152601f60248201527f45434453413a20696e76616c6964207369676e6174757265206c656e677468006044820152606401610784565b600381600481111561236157612361612f6a565b036107965760405162461bcd60e51b815260206004820152602260248201527f45434453413a20696e76616c6964207369676e6174757265202773272076616c604482015261756560f01b6064820152608401610784565b6001600160a01b0381163b6124265760405162461bcd60e51b815260206004820152602d60248201527f455243313936373a206e657720696d706c656d656e746174696f6e206973206e60448201526c1bdd08184818dbdb9d1c9858dd609a1b6064820152608401610784565b600080516020612fb483398151915280546001600160a01b0319166001600160a01b0392909216919091179055565b61245e83612544565b60008251118061246b5750805b15610eda5761247a8383612584565b50505050565b6000807f7fffffffffffffffffffffffffffffff5d576e7357a4501ddfe92f46681b20a08311156124b7575060009050600361253b565b6040805160008082526020820180845289905260ff881692820192909252606081018690526080810185905260019060a0016020604051602081039080840390855afa15801561250b573d6000803e3d6000fd5b5050604051601f1901519150506001600160a01b0381166125345760006001925092505061253b565b9150600090505b94509492505050565b61254d816123b9565b6040516001600160a01b038216907fbc7cd75a20ee27fd9adebab32041f755214dbc6bffa90cc0225b39da2e5c2d3b90600090a250565b60606107138383604051806060016040528060278152602001612fd4602791396060600080856001600160a01b0316856040516125c19190612f4e565b600060405180830381855af49150503d80600081146125fc576040519150601f19603f3d011682016040523d82523d6000602084013e612601565b606091505b50915091506126128683838761261c565b9695505050505050565b6060831561268b578251600003612684576001600160a01b0385163b6126845760405162461bcd60e51b815260206004820152601d60248201527f416464726573733a2063616c6c20746f206e6f6e2d636f6e74726163740000006044820152606401610784565b5081612695565b612695838361269d565b949350505050565b8151156126ad5781518083602001fd5b8060405162461bcd60e51b81526004016107849190612f80565b508054600082559060005260206000209081019061079691905b808211156126f557600081556001016126e1565b5090565b6001600160a01b038116811461079657600080fd5b60008083601f84011261272057600080fd5b50813567ffffffffffffffff81111561273857600080fd5b60208301915083602082850101111561226857600080fd5b60008060008060008060008060c0898b03121561276c57600080fd5b8835612777816126f9565b97506020890135612787816126f9565b96506040890135612797816126f9565b955060608901359450608089013567ffffffffffffffff808211156127bb57600080fd5b6127c78c838d0161270e565b909650945060a08b01359150808211156127e057600080fd5b506127ed8b828c0161270e565b999c989b5096995094979396929594505050565b60006020828403121561281357600080fd5b81356001600160e01b03198116811461071357600080fd5b60006020828403121561283d57600080fd5b8135610713816126f9565b60008060008060006080868803121561286057600080fd5b853561286b816126f9565b9450602086013561287b816126f9565b935060408601359250606086013567ffffffffffffffff81111561289e57600080fd5b6128aa8882890161270e565b969995985093965092949392505050565b6000806000604084860312156128d057600080fd5b83359250602084013567ffffffffffffffff8111156128ee57600080fd5b6128fa8682870161270e565b9497909650939450505050565b60006020828403121561291957600080fd5b5035919050565b60008060006060848603121561293557600080fd5b833567ffffffffffffffff81111561294c57600080fd5b8401610160818703121561295f57600080fd5b95602085013595506040909401359392505050565b60008083601f84011261298657600080fd5b50813567ffffffffffffffff81111561299e57600080fd5b6020830191508360208260051b850101111561226857600080fd5b600080600080600080606087890312156129d257600080fd5b863567ffffffffffffffff808211156129ea57600080fd5b6129f68a838b01612974565b90985096506020890135915080821115612a0f57600080fd5b612a1b8a838b01612974565b90965094506040890135915080821115612a3457600080fd5b50612a4189828a01612974565b979a9699509497509295939492505050565b60008060408385031215612a6657600080fd5b8235612a71816126f9565b91506020830135612a81816126f9565b809150509250929050565b60008060408385031215612a9f57600080fd5b8235612aaa816126f9565b946020939093013593505050565b634e487b7160e01b600052604160045260246000fd5b60008060408385031215612ae157600080fd5b8235612aec816126f9565b9150602083013567ffffffffffffffff80821115612b0957600080fd5b818501915085601f830112612b1d57600080fd5b813581811115612b2f57612b2f612ab8565b604051601f8201601f19908116603f01168101908382118183101715612b5757612b57612ab8565b81604052828152886020848701011115612b7057600080fd5b8260208601602083013760006020848301015280955050505050509250929050565b60008060008060608587031215612ba857600080fd5b8435612bb3816126f9565b935060208501359250604085013567ffffffffffffffff811115612bd657600080fd5b612be28782880161270e565b95989497509550505050565b60008060008060008060008060a0898b031215612c0a57600080fd5b8835612c15816126f9565b97506020890135612c25816126f9565b9650604089013567ffffffffffffffff80821115612c4257600080fd5b612c4e8c838d01612974565b909850965060608b0135915080821115612c6757600080fd5b612c738c838d01612974565b909650945060808b01359150808211156127e057600080fd5b6001600160a01b0385811682526020808301869052608060408401819052855190840181905260009286830192909160a0860190855b81811015612ce0578551851683529483019491830191600101612cc2565b505080945050505050821515606083015295945050505050565b60008060008060008060a08789031215612d1357600080fd5b8635612d1e816126f9565b95506020870135612d2e816126f9565b94506040870135935060608701359250608087013567ffffffffffffffff811115612d5857600080fd5b612a4189828a0161270e565b60208082526010908201526f20a1a61d1d1037b7363c9037bbb732b960811b604082015260600190565b634e487b7160e01b600052601160045260246000fd5b8082018082111561067f5761067f612d8e565b6020808252602c908201527f46756e6374696f6e206d7573742062652063616c6c6564207468726f7567682060408201526b19195b1959d85d1958d85b1b60a21b606082015260800190565b6020808252602c908201527f46756e6374696f6e206d7573742062652063616c6c6564207468726f7567682060408201526b6163746976652070726f787960a01b606082015260800190565b634e487b7160e01b600052603260045260246000fd5b6000808335601e19843603018112612e7c57600080fd5b83018035915067ffffffffffffffff821115612e9757600080fd5b60200191503681900382131561226857600080fd5b600060208284031215612ebe57600080fd5b5051919050565b8181038181111561067f5761067f612d8e565b600060018201612eea57612eea612d8e565b5060010190565b808202811582820484141761067f5761067f612d8e565b600082612f2557634e487b7160e01b600052601260045260246000fd5b500490565b60005b83811015612f45578181015183820152602001612f2d565b50506000910152565b60008251612f60818460208701612f2a565b9190910192915050565b634e487b7160e01b600052602160045260246000fd5b6020815260008251806020840152612f9f816040850160208701612f2a565b601f01601f1916919091016040019291505056fe360894a13ba1a3210667c828492db98dca3e2076cc3735a920a3ca505d382bbc416464726573733a206c6f772d6c6576656c2064656c65676174652063616c6c206661696c6564a2646970667358221220eea1ebd94136963ff7035d99bcfb958946149a821b7a0b359d4693dd73d67cac64736f6c63430008110033",
  "devdoc": {
    "kind": "dev",
    "methods": {
      "accountCreationCode()": {
        "details": "Allows to retrieve the creation code used for the Proxy deployment. With this it is easily possible to calculate predicted address."
      },
      "createAccount(address,address,uint256)": {
        "params": {
          "entryPoint": "address of the EntryPoint contract",
          "index": "extra salt that allows to deploy more account if needed for same owner",
          "owner": "owner of the account to be deployed"
        },
        "returns": {
          "ret": "the address of the deployed account"
        }
      },
      "getAddress(address,address,uint256)": {
        "params": {
          "entryPoint": "address of the EntryPoint contract",
          "index": "extra salt that allows to deploy more account if needed for same owner",
          "owner": "owner of the account to be deployed"
        }
      }
    },
    "title": "Proxy Factory - Allows to create a new proxy contract and execute a message call to the new proxy within one transaction.",
    "version": 1
  },
  "userdoc": {
    "kind": "user",
    "methods": {
      "createAccount(address,address,uint256)": {
        "notice": "Creates a new account"
      },
      "getAddress(address,address,uint256)": {
        "notice": "Deploys account using create2"
      }
    },
    "version": 1
  },
  "storageLayout": {
    "storage": [],
    "types": null
  }
}