{
  "_format": "hh-sol-artifact-1",
  "contractName": "BLSAccountFactory",
  "sourceName": "src/bls/BLSAccountFactory.sol",
  "abi": [
    {
      "inputs": [
        {
          "internalType": "contract IEntryPoint",
          "name": "entryPoint",
          "type": "address"
        },
        {
          "internalType": "address",
          "name": "aggregator",
          "type": "address"
        }
      ],
      "stateMutability": "nonpayable",
      "type": "constructor"
    },
    {
      "inputs": [],
      "name": "accountImplementation",
      "outputs": [
        {
          "internalType": "contract BLSAccount",
          "name": "",
          "type": "address"
        }
      ],
      "stateMutability": "view",
      "type": "function"
    },
    {
      "inputs": [
        {
          "internalType": "uint256",
          "name": "salt",
          "type": "uint256"
        },
        {
          "internalType": "uint256[4]",
          "name": "aPublicKey",
          "type": "uint256[4]"
        }
      ],
      "name": "createAccount",
      "outputs": [
        {
          "internalType": "contract BLSAccount",
          "name": "",
          "type": "address"
        }
      ],
      "stateMutability": "nonpayable",
      "type": "function"
    },
    {
      "inputs": [
        {
          "internalType": "uint256",
          "name": "salt",
          "type": "uint256"
        },
        {
          "internalType": "uint256[4]",
          "name": "aPublicKey",
          "type": "uint256[4]"
        }
      ],
      "name": "getAddress",
      "outputs": [
        {
          "internalType": "address",
          "name": "",
          "type": "address"
        }
      ],
      "stateMutability": "view",
      "type": "function"
    }
  ],
  "bytecode": "0x60a06040523480156200001157600080fd5b50604051620047b3380380620047b383398181016040528101906200003791906200016a565b81816040516200004790620000ad565b620000549291906200022d565b604051809103906000f08015801562000071573d6000803e3d6000fd5b5073ffffffffffffffffffffffffffffffffffffffff1660808173ffffffffffffffffffffffffffffffffffffffff168152505050506200025a565b613057806200175c83390190565b600080fd5b600073ffffffffffffffffffffffffffffffffffffffff82169050919050565b6000620000ed82620000c0565b9050919050565b60006200010182620000e0565b9050919050565b6200011381620000f4565b81146200011f57600080fd5b50565b600081519050620001338162000108565b92915050565b6200014481620000e0565b81146200015057600080fd5b50565b600081519050620001648162000139565b92915050565b60008060408385031215620001845762000183620000bb565b5b6000620001948582860162000122565b9250506020620001a78582860162000153565b9150509250929050565b6000819050919050565b6000620001dc620001d6620001d084620000c0565b620001b1565b620000c0565b9050919050565b6000620001f082620001bb565b9050919050565b60006200020482620001e3565b9050919050565b6200021681620001f7565b82525050565b6200022781620000e0565b82525050565b60006040820190506200024460008301856200020b565b6200025360208301846200021c565b9392505050565b6080516114d9620002836000396000818160db01528181610145015261023601526114d96000f3fe60806040523480156200001157600080fd5b5060043610620000465760003560e01c806311464fbe146200004b57806319c2a1b2146200006d578063de3398dd14620000a3575b600080fd5b62000055620000d9565b604051620000649190620003e1565b60405180910390f35b6200008b6004803603810190620000859190620005ab565b620000fd565b6040516200009a9190620003e1565b60405180910390f35b620000c16004803603810190620000bb9190620005ab565b62000204565b604051620000d0919062000617565b60405180910390f35b7f000000000000000000000000000000000000000000000000000000000000000081565b6000806200010c848462000204565b905060008173ffffffffffffffffffffffffffffffffffffffff163b905060008111156200013f578192505050620001fe565b8460001b7f000000000000000000000000000000000000000000000000000000000000000085604051602401620001779190620006ef565b60405160208183030381529060405263ee472f3660e01b6020820180517bffffffffffffffffffffffffffffffffffffffffffffffffffffffff8381831617835250505050604051620001ca9062000348565b620001d79291906200079f565b8190604051809103906000f5905080158015620001f8573d6000803e3d6000fd5b50925050505b92915050565b6000620002fe8360001b60405180602001620002209062000348565b6020820181038252601f19601f820116604052507f000000000000000000000000000000000000000000000000000000000000000085604051602401620002689190620006ef565b60405160208183030381529060405263ee472f3660e01b6020820180517bffffffffffffffffffffffffffffffffffffffffffffffffffffffff8381831617835250505050604051602001620002c09291906200079f565b604051602081830303815290604052604051602001620002e292919062000815565b6040516020818303038152906040528051906020012062000306565b905092915050565b6000620003158383306200031d565b905092915050565b6000604051836040820152846020820152828152600b810160ff815360558120925050509392505050565b610c66806200083e83390190565b600073ffffffffffffffffffffffffffffffffffffffff82169050919050565b6000819050919050565b6000620003a16200039b620003958462000356565b62000376565b62000356565b9050919050565b6000620003b58262000380565b9050919050565b6000620003c982620003a8565b9050919050565b620003db81620003bc565b82525050565b6000602082019050620003f86000830184620003d0565b92915050565b6000604051905090565b600080fd5b6000819050919050565b62000422816200040d565b81146200042e57600080fd5b50565b600081359050620004428162000417565b92915050565b600080fd5b6000601f19601f8301169050919050565b7f4e487b7100000000000000000000000000000000000000000000000000000000600052604160045260246000fd5b62000498826200044d565b810181811067ffffffffffffffff82111715620004ba57620004b96200045e565b5b80604052505050565b6000620004cf620003fe565b9050620004dd82826200048d565b919050565b600067ffffffffffffffff8211156200050057620004ff6200045e565b5b602082029050919050565b600080fd5b6000620005276200052184620004e2565b620004c3565b905080602084028301858111156200054457620005436200050b565b5b835b818110156200057157806200055c888262000431565b84526020840193505060208101905062000546565b5050509392505050565b600082601f83011262000593576200059262000448565b5b6004620005a284828562000510565b91505092915050565b60008060a08385031215620005c557620005c462000408565b5b6000620005d58582860162000431565b9250506020620005e8858286016200057b565b9150509250929050565b6000620005ff8262000356565b9050919050565b6200061181620005f2565b82525050565b60006020820190506200062e600083018462000606565b92915050565b600060049050919050565b600081905092915050565b6000819050919050565b6200065f816200040d565b82525050565b600062000673838362000654565b60208301905092915050565b6000602082019050919050565b620006978162000634565b620006a381846200063f565b9250620006b0826200064a565b8060005b83811015620006e7578151620006cb878262000665565b9650620006d8836200067f565b925050600181019050620006b4565b505050505050565b60006080820190506200070660008301846200068c565b92915050565b600081519050919050565b600082825260208201905092915050565b60005b83811015620007485780820151818401526020810190506200072b565b8381111562000758576000848401525b50505050565b60006200076b826200070c565b62000777818562000717565b93506200078981856020860162000728565b62000794816200044d565b840191505092915050565b6000604082019050620007b6600083018562000606565b8181036020830152620007ca81846200075e565b90509392505050565b600081905092915050565b6000620007eb826200070c565b620007f78185620007d3565b93506200080981856020860162000728565b80840191505092915050565b6000620008238285620007de565b9150620008318284620007de565b9150819050939250505056fe608060405260405162000c6638038062000c6683398181016040528101906200002991906200058b565b6200003d828260006200004560201b60201c565b5050620007e2565b62000056836200008860201b60201c565b600082511180620000645750805b156200008357620000818383620000df60201b620000371760201c565b505b505050565b62000099816200011560201b60201c565b8073ffffffffffffffffffffffffffffffffffffffff167fbc7cd75a20ee27fd9adebab32041f755214dbc6bffa90cc0225b39da2e5c2d3b60405160405180910390a250565b60606200010d838360405180606001604052806027815260200162000c3f60279139620001eb60201b60201c565b905092915050565b6200012b816200027d60201b620000641760201c565b6200016d576040517f08c379a0000000000000000000000000000000000000000000000000000000008152600401620001649062000678565b60405180910390fd5b80620001a77f360894a13ba1a3210667c828492db98dca3e2076cc3735a920a3ca505d382bbc60001b620002a060201b620000871760201c565b60000160006101000a81548173ffffffffffffffffffffffffffffffffffffffff021916908373ffffffffffffffffffffffffffffffffffffffff16021790555050565b60606000808573ffffffffffffffffffffffffffffffffffffffff1685604051620002179190620006e7565b600060405180830381855af49150503d806000811462000254576040519150601f19603f3d011682016040523d82523d6000602084013e62000259565b606091505b50915091506200027286838387620002aa60201b60201c565b925050509392505050565b6000808273ffffffffffffffffffffffffffffffffffffffff163b119050919050565b6000819050919050565b606083156200031b576000835114156200031257620002cf856200027d60201b60201c565b62000311576040517f08c379a0000000000000000000000000000000000000000000000000000000008152600401620003089062000750565b60405180910390fd5b5b8290506200032e565b6200032d83836200033660201b60201c565b5b949350505050565b6000825111156200034a5781518083602001fd5b806040517f08c379a0000000000000000000000000000000000000000000000000000000008152600401620003809190620007be565b60405180910390fd5b6000604051905090565b600080fd5b600080fd5b600073ffffffffffffffffffffffffffffffffffffffff82169050919050565b6000620003ca826200039d565b9050919050565b620003dc81620003bd565b8114620003e857600080fd5b50565b600081519050620003fc81620003d1565b92915050565b600080fd5b600080fd5b6000601f19601f8301169050919050565b7f4e487b7100000000000000000000000000000000000000000000000000000000600052604160045260246000fd5b62000457826200040c565b810181811067ffffffffffffffff821117156200047957620004786200041d565b5b80604052505050565b60006200048e62000389565b90506200049c82826200044c565b919050565b600067ffffffffffffffff821115620004bf57620004be6200041d565b5b620004ca826200040c565b9050602081019050919050565b60005b83811015620004f7578082015181840152602081019050620004da565b8381111562000507576000848401525b50505050565b6000620005246200051e84620004a1565b62000482565b90508281526020810184848401111562000543576200054262000407565b5b62000550848285620004d7565b509392505050565b600082601f83011262000570576200056f62000402565b5b8151620005828482602086016200050d565b91505092915050565b60008060408385031215620005a557620005a462000393565b5b6000620005b585828601620003eb565b925050602083015167ffffffffffffffff811115620005d957620005d862000398565b5b620005e78582860162000558565b9150509250929050565b600082825260208201905092915050565b7f455243313936373a206e657720696d706c656d656e746174696f6e206973206e60008201527f6f74206120636f6e747261637400000000000000000000000000000000000000602082015250565b600062000660602d83620005f1565b91506200066d8262000602565b604082019050919050565b60006020820190508181036000830152620006938162000651565b9050919050565b600081519050919050565b600081905092915050565b6000620006bd826200069a565b620006c98185620006a5565b9350620006db818560208601620004d7565b80840191505092915050565b6000620006f58284620006b0565b915081905092915050565b7f416464726573733a2063616c6c20746f206e6f6e2d636f6e7472616374000000600082015250565b600062000738601d83620005f1565b9150620007458262000700565b602082019050919050565b600060208201905081810360008301526200076b8162000729565b9050919050565b600081519050919050565b60006200078a8262000772565b620007968185620005f1565b9350620007a8818560208601620004d7565b620007b3816200040c565b840191505092915050565b60006020820190508181036000830152620007da81846200077d565b905092915050565b61044d80620007f26000396000f3fe6080604052366100135761001161001d565b005b61001b61001d565b005b610025610091565b610035610030610093565b6100a2565b565b606061005c83836040518060600160405280602781526020016103f1602791396100c8565b905092915050565b6000808273ffffffffffffffffffffffffffffffffffffffff163b119050919050565b6000819050919050565b565b600061009d61014e565b905090565b3660008037600080366000845af43d6000803e80600081146100c3573d6000f35b3d6000fd5b60606000808573ffffffffffffffffffffffffffffffffffffffff16856040516100f291906102e5565b600060405180830381855af49150503d806000811461012d576040519150601f19603f3d011682016040523d82523d6000602084013e610132565b606091505b5091509150610143868383876101a5565b925050509392505050565b600061017c7f360894a13ba1a3210667c828492db98dca3e2076cc3735a920a3ca505d382bbc60001b610087565b60000160009054906101000a900473ffffffffffffffffffffffffffffffffffffffff16905090565b6060831561020857600083511415610200576101c085610064565b6101ff576040517f08c379a00000000000000000000000000000000000000000000000000000000081526004016101f690610359565b60405180910390fd5b5b829050610213565b610212838361021b565b5b949350505050565b60008251111561022e5781518083602001fd5b806040517f08c379a000000000000000000000000000000000000000000000000000000000815260040161026291906103ce565b60405180910390fd5b600081519050919050565b600081905092915050565b60005b8381101561029f578082015181840152602081019050610284565b838111156102ae576000848401525b50505050565b60006102bf8261026b565b6102c98185610276565b93506102d9818560208601610281565b80840191505092915050565b60006102f182846102b4565b915081905092915050565b600082825260208201905092915050565b7f416464726573733a2063616c6c20746f206e6f6e2d636f6e7472616374000000600082015250565b6000610343601d836102fc565b915061034e8261030d565b602082019050919050565b6000602082019050818103600083015261037281610336565b9050919050565b600081519050919050565b6000601f19601f8301169050919050565b60006103a082610379565b6103aa81856102fc565b93506103ba818560208601610281565b6103c381610384565b840191505092915050565b600060208201905081810360008301526103e88184610395565b90509291505056fe416464726573733a206c6f772d6c6576656c2064656c65676174652063616c6c206661696c6564a26469706673582212208ad4146271bd98bb13ece6afc62770990d3bf29bbc2f7844d0262322b35b283564736f6c634300080c0033416464726573733a206c6f772d6c6576656c2064656c65676174652063616c6c206661696c6564a2646970667358221220428efbc48ce66b9f053fdb0c31e13ebdfdb1ac6a95bcaaeabe2a014847383cb364736f6c634300080c003360e06040523073ffffffffffffffffffffffffffffffffffffffff1660809073ffffffffffffffffffffffffffffffffffffffff168152503480156200004457600080fd5b50604051620030573803806200305783398181016040528101906200006a91906200018b565b818073ffffffffffffffffffffffffffffffffffffffff1660a08173ffffffffffffffffffffffffffffffffffffffff1681525050508073ffffffffffffffffffffffffffffffffffffffff1660c08173ffffffffffffffffffffffffffffffffffffffff16815250505050620001d2565b600080fd5b600073ffffffffffffffffffffffffffffffffffffffff82169050919050565b60006200010e82620000e1565b9050919050565b6000620001228262000101565b9050919050565b620001348162000115565b81146200014057600080fd5b50565b600081519050620001548162000129565b92915050565b620001658162000101565b81146200017157600080fd5b50565b60008151905062000185816200015a565b92915050565b60008060408385031215620001a557620001a4620000dc565b5b6000620001b58582860162000143565b9250506020620001c88582860162000174565b9150509250929050565b60805160a05160c051612e2462000233600039600081816105aa015281816107590152610f2e015260008181610acc01526115990152600081816105ce0152818161065d0152818161087f0152818161090e01526109be0152612e246000f3fe60806040526004361061010d5760003560e01c806352d1902d11610095578063b61d27f611610064578063b61d27f614610322578063c399ec881461034b578063c4d66de814610376578063e02afbae1461039f578063ee472f36146103ca57610114565b806352d1902d146102765780638da5cb5b146102a1578063affed0e0146102cc578063b0d691fe146102f757610114565b80633659cfe6116100dc5780633659cfe6146101d35780633ad59dbc146101fc5780634a58db19146102275780634d44560d146102315780634f1ef2861461025a57610114565b80630825d1fc1461011957806318dfb3c71461015657806318fc5c441461017f578063245a7bfc146101a857610114565b3661011457005b600080fd5b34801561012557600080fd5b50610140600480360381019061013b9190611a40565b6103f3565b60405161014d9190611ad2565b60405180910390f35b34801561016257600080fd5b5061017d60048036038101906101789190611ba8565b61043f565b005b34801561018b57600080fd5b506101a660048036038101906101a19190611d66565b610551565b005b3480156101b457600080fd5b506101bd6105a8565b6040516101ca9190611da2565b60405180910390f35b3480156101df57600080fd5b506101fa60048036038101906101f59190611dbd565b6105cc565b005b34801561020857600080fd5b50610211610755565b60405161021e9190611da2565b60405180910390f35b61022f61077d565b005b34801561023d57600080fd5b5061025860048036038101906102539190611e28565b6107fd565b005b610274600480360381019061026f9190611f1d565b61087d565b005b34801561028257600080fd5b5061028b6109ba565b6040516102989190611f88565b60405180910390f35b3480156102ad57600080fd5b506102b6610a73565b6040516102c39190611da2565b60405180910390f35b3480156102d857600080fd5b506102e1610a99565b6040516102ee9190611ad2565b60405180910390f35b34801561030357600080fd5b5061030c610ac8565b6040516103199190612002565b60405180910390f35b34801561032e57600080fd5b5061034960048036038101906103449190612073565b610af0565b005b34801561035757600080fd5b50610360610b4d565b60405161036d9190611ad2565b60405180910390f35b34801561038257600080fd5b5061039d60048036038101906103989190611dbd565b610bd5565b005b3480156103ab57600080fd5b506103b4610d15565b6040516103c19190612192565b60405180910390f35b3480156103d657600080fd5b506103f160048036038101906103ec9190611d66565b610d60565b005b60006103fd610eb3565b610408858585610f2a565b9050600085806040019061041c91906121bc565b9050141561042e5761042d85610fc5565b5b61043782611073565b949350505050565b61044761110f565b81819050848490501461048f576040517f08c379a0000000000000000000000000000000000000000000000000000000008152600401610486906122a2565b60405180910390fd5b60005b8484905081101561054a576105378585838181106104b3576104b26122c2565b5b90506020020160208101906104c89190611dbd565b60008585858181106104dd576104dc6122c2565b5b90506020028101906104ef91906121bc565b8080601f016020809104026020016040519081016040528093929190818152602001838380828437600081840152601f19601f820116905080830192505050505050506111de565b808061054290612320565b915050610492565b5050505050565b610559611262565b7f42e4c4ce1432650f17e41c4ea77ed12c0ab20b229d3ffd84a2ebc9f8abb25a8360028260405161058b92919061242d565b60405180910390a18060029060046105a49291906118be565b5050565b7f000000000000000000000000000000000000000000000000000000000000000081565b7f000000000000000000000000000000000000000000000000000000000000000073ffffffffffffffffffffffffffffffffffffffff163073ffffffffffffffffffffffffffffffffffffffff16141561065b576040517f08c379a0000000000000000000000000000000000000000000000000000000008152600401610652906124c9565b60405180910390fd5b7f000000000000000000000000000000000000000000000000000000000000000073ffffffffffffffffffffffffffffffffffffffff1661069a61132a565b73ffffffffffffffffffffffffffffffffffffffff16146106f0576040517f08c379a00000000000000000000000000000000000000000000000000000000081526004016106e79061255b565b60405180910390fd5b6106f981611381565b61075281600067ffffffffffffffff81111561071857610717611c3a565b5b6040519080825280601f01601f19166020018201604052801561074a5781602001600182028036833780820191505090505b50600061138c565b50565b60007f0000000000000000000000000000000000000000000000000000000000000000905090565b6000610787610ac8565b73ffffffffffffffffffffffffffffffffffffffff16346040516107aa906125ac565b60006040518083038185875af1925050503d80600081146107e7576040519150601f19603f3d011682016040523d82523d6000602084013e6107ec565b606091505b50509050806107fa57600080fd5b50565b610805611262565b61080d610ac8565b73ffffffffffffffffffffffffffffffffffffffff1663205c287883836040518363ffffffff1660e01b81526004016108479291906125d0565b600060405180830381600087803b15801561086157600080fd5b505af1158015610875573d6000803e3d6000fd5b505050505050565b7f000000000000000000000000000000000000000000000000000000000000000073ffffffffffffffffffffffffffffffffffffffff163073ffffffffffffffffffffffffffffffffffffffff16141561090c576040517f08c379a0000000000000000000000000000000000000000000000000000000008152600401610903906124c9565b60405180910390fd5b7f000000000000000000000000000000000000000000000000000000000000000073ffffffffffffffffffffffffffffffffffffffff1661094b61132a565b73ffffffffffffffffffffffffffffffffffffffff16146109a1576040517f08c379a00000000000000000000000000000000000000000000000000000000081526004016109989061255b565b60405180910390fd5b6109aa82611381565b6109b68282600161138c565b5050565b60007f000000000000000000000000000000000000000000000000000000000000000073ffffffffffffffffffffffffffffffffffffffff163073ffffffffffffffffffffffffffffffffffffffff1614610a4a576040517f08c379a0000000000000000000000000000000000000000000000000000000008152600401610a419061266b565b60405180910390fd5b7f360894a13ba1a3210667c828492db98dca3e2076cc3735a920a3ca505d382bbc60001b905090565b600160009054906101000a900473ffffffffffffffffffffffffffffffffffffffff1681565b60008060029054906101000a90046bffffffffffffffffffffffff166bffffffffffffffffffffffff16905090565b60007f0000000000000000000000000000000000000000000000000000000000000000905090565b610af861110f565b610b47848484848080601f016020809104026020016040519081016040528093929190818152602001838380828437600081840152601f19601f820116905080830192505050505050506111de565b50505050565b6000610b57610ac8565b73ffffffffffffffffffffffffffffffffffffffff166370a08231306040518263ffffffff1660e01b8152600401610b8f9190611da2565b602060405180830381865afa158015610bac573d6000803e3d6000fd5b505050506040513d601f19601f82011682018060405250810190610bd091906126a0565b905090565b60008060019054906101000a900460ff16159050808015610c065750600160008054906101000a900460ff1660ff16105b80610c335750610c15306114fa565b158015610c325750600160008054906101000a900460ff1660ff16145b5b610c72576040517f08c379a0000000000000000000000000000000000000000000000000000000008152600401610c699061273f565b60405180910390fd5b60016000806101000a81548160ff021916908360ff1602179055508015610caf576001600060016101000a81548160ff0219169083151502179055505b610cb88261151d565b8015610d115760008060016101000a81548160ff0219169083151502179055507f7f26b83ff96e1f2b6a682f133852f6798a09c465da95921460cefb38474024986001604051610d0891906127a7565b60405180910390a15b5050565b610d1d6118fe565b6002600480602002604051908101604052809291908260048015610d56576020028201915b815481526020019060010190808311610d42575b5050505050905090565b60008060019054906101000a900460ff16159050808015610d915750600160008054906101000a900460ff1660ff16105b80610dbe5750610da0306114fa565b158015610dbd5750600160008054906101000a900460ff1660ff16145b5b610dfd576040517f08c379a0000000000000000000000000000000000000000000000000000000008152600401610df49061273f565b60405180910390fd5b60016000806101000a81548160ff021916908360ff1602179055508015610e3a576001600060016101000a81548160ff0219169083151502179055505b610e44600061151d565b816002906004610e559291906118be565b508015610eaf5760008060016101000a81548160ff0219169083151502179055507f7f26b83ff96e1f2b6a682f133852f6798a09c465da95921460cefb38474024986001604051610ea691906127a7565b60405180910390a15b5050565b610ebb610ac8565b73ffffffffffffffffffffffffffffffffffffffff163373ffffffffffffffffffffffffffffffffffffffff1614610f28576040517f08c379a0000000000000000000000000000000000000000000000000000000008152600401610f1f90612834565b60405180910390fd5b565b60007f000000000000000000000000000000000000000000000000000000000000000073ffffffffffffffffffffffffffffffffffffffff168273ffffffffffffffffffffffffffffffffffffffff1614610fba576040517f08c379a0000000000000000000000000000000000000000000000000000000008152600401610fb1906128a0565b60405180910390fd5b600090509392505050565b80602001356000600281819054906101000a90046bffffffffffffffffffffffff1680929190610ff4906128d8565b91906101000a8154816bffffffffffffffffffffffff02191690836bffffffffffffffffffffffff1602179055506bffffffffffffffffffffffff1614611070576040517f08c379a000000000000000000000000000000000000000000000000000000000815260040161106790612959565b60405180910390fd5b50565b6000811461110c5760003373ffffffffffffffffffffffffffffffffffffffff16827fffffffffffffffffffffffffffffffffffffffffffffffffffffffffffffffff906040516110c3906125ac565b600060405180830381858888f193505050503d8060008114611101576040519150601f19603f3d011682016040523d82523d6000602084013e611106565b606091505b50509050505b50565b611117610ac8565b73ffffffffffffffffffffffffffffffffffffffff163373ffffffffffffffffffffffffffffffffffffffff16148061119d5750600160009054906101000a900473ffffffffffffffffffffffffffffffffffffffff1673ffffffffffffffffffffffffffffffffffffffff163373ffffffffffffffffffffffffffffffffffffffff16145b6111dc576040517f08c379a00000000000000000000000000000000000000000000000000000000081526004016111d3906129eb565b60405180910390fd5b565b6000808473ffffffffffffffffffffffffffffffffffffffff1684846040516112079190612a7a565b60006040518083038185875af1925050503d8060008114611244576040519150601f19603f3d011682016040523d82523d6000602084013e611249565b606091505b50915091508161125b57805160208201fd5b5050505050565b600160009054906101000a900473ffffffffffffffffffffffffffffffffffffffff1673ffffffffffffffffffffffffffffffffffffffff163373ffffffffffffffffffffffffffffffffffffffff1614806112e957503073ffffffffffffffffffffffffffffffffffffffff163373ffffffffffffffffffffffffffffffffffffffff16145b611328576040517f08c379a000000000000000000000000000000000000000000000000000000000815260040161131f90612add565b60405180910390fd5b565b60006113587f360894a13ba1a3210667c828492db98dca3e2076cc3735a920a3ca505d382bbc60001b6115fd565b60000160009054906101000a900473ffffffffffffffffffffffffffffffffffffffff16905090565b611389611262565b50565b6113b87f4910fdfa16fed3260ed0e7147f7cc6da11a60208b5b9406d12a635614ffd914360001b611607565b60000160009054906101000a900460ff16156113dc576113d783611611565b6114f5565b8273ffffffffffffffffffffffffffffffffffffffff166352d1902d6040518163ffffffff1660e01b8152600401602060405180830381865afa92505050801561144457506040513d601f19601f820116820180604052508101906114419190612b12565b60015b611483576040517f08c379a000000000000000000000000000000000000000000000000000000000815260040161147a90612bb1565b60405180910390fd5b7f360894a13ba1a3210667c828492db98dca3e2076cc3735a920a3ca505d382bbc60001b81146114e8576040517f08c379a00000000000000000000000000000000000000000000000000000000081526004016114df90612c43565b60405180910390fd5b506114f48383836116ca565b5b505050565b6000808273ffffffffffffffffffffffffffffffffffffffff163b119050919050565b80600160006101000a81548173ffffffffffffffffffffffffffffffffffffffff021916908373ffffffffffffffffffffffffffffffffffffffff160217905550600160009054906101000a900473ffffffffffffffffffffffffffffffffffffffff1673ffffffffffffffffffffffffffffffffffffffff167f000000000000000000000000000000000000000000000000000000000000000073ffffffffffffffffffffffffffffffffffffffff167fc053dd35e22ddb3ae5f46f48289137bbba99fdd1068c0f7d3069bb62dab393fd60405160405180910390a350565b6000819050919050565b6000819050919050565b61161a816114fa565b611659576040517f08c379a000000000000000000000000000000000000000000000000000000000815260040161165090612cd5565b60405180910390fd5b806116867f360894a13ba1a3210667c828492db98dca3e2076cc3735a920a3ca505d382bbc60001b6115fd565b60000160006101000a81548173ffffffffffffffffffffffffffffffffffffffff021916908373ffffffffffffffffffffffffffffffffffffffff16021790555050565b6116d3836116f6565b6000825111806116e05750805b156116f1576116ef8383611745565b505b505050565b6116ff81611611565b8073ffffffffffffffffffffffffffffffffffffffff167fbc7cd75a20ee27fd9adebab32041f755214dbc6bffa90cc0225b39da2e5c2d3b60405160405180910390a250565b606061176a8383604051806060016040528060278152602001612dc860279139611772565b905092915050565b60606000808573ffffffffffffffffffffffffffffffffffffffff168560405161179c9190612a7a565b600060405180830381855af49150503d80600081146117d7576040519150601f19603f3d011682016040523d82523d6000602084013e6117dc565b606091505b50915091506117ed868383876117f8565b925050509392505050565b6060831561185b5760008351141561185357611813856114fa565b611852576040517f08c379a000000000000000000000000000000000000000000000000000000000815260040161184990612d41565b60405180910390fd5b5b829050611866565b611865838361186e565b5b949350505050565b6000825111156118815781518083602001fd5b806040517f08c379a00000000000000000000000000000000000000000000000000000000081526004016118b59190612da5565b60405180910390fd5b82600481019282156118ed579160200282015b828111156118ec5782518255916020019190600101906118d1565b5b5090506118fa9190611920565b5090565b6040518060800160405280600490602082028036833780820191505090505090565b5b80821115611939576000816000905550600101611921565b5090565b6000604051905090565b600080fd5b600080fd5b600080fd5b6000610160828403121561196d5761196c611951565b5b81905092915050565b6000819050919050565b61198981611976565b811461199457600080fd5b50565b6000813590506119a681611980565b92915050565b600073ffffffffffffffffffffffffffffffffffffffff82169050919050565b60006119d7826119ac565b9050919050565b6119e7816119cc565b81146119f257600080fd5b50565b600081359050611a04816119de565b92915050565b6000819050919050565b611a1d81611a0a565b8114611a2857600080fd5b50565b600081359050611a3a81611a14565b92915050565b60008060008060808587031215611a5a57611a59611947565b5b600085013567ffffffffffffffff811115611a7857611a7761194c565b5b611a8487828801611956565b9450506020611a9587828801611997565b9350506040611aa6878288016119f5565b9250506060611ab787828801611a2b565b91505092959194509250565b611acc81611a0a565b82525050565b6000602082019050611ae76000830184611ac3565b92915050565b600080fd5b600080fd5b600080fd5b60008083601f840112611b1257611b11611aed565b5b8235905067ffffffffffffffff811115611b2f57611b2e611af2565b5b602083019150836020820283011115611b4b57611b4a611af7565b5b9250929050565b60008083601f840112611b6857611b67611aed565b5b8235905067ffffffffffffffff811115611b8557611b84611af2565b5b602083019150836020820283011115611ba157611ba0611af7565b5b9250929050565b60008060008060408587031215611bc257611bc1611947565b5b600085013567ffffffffffffffff811115611be057611bdf61194c565b5b611bec87828801611afc565b9450945050602085013567ffffffffffffffff811115611c0f57611c0e61194c565b5b611c1b87828801611b52565b925092505092959194509250565b6000601f19601f8301169050919050565b7f4e487b7100000000000000000000000000000000000000000000000000000000600052604160045260246000fd5b611c7282611c29565b810181811067ffffffffffffffff82111715611c9157611c90611c3a565b5b80604052505050565b6000611ca461193d565b9050611cb08282611c69565b919050565b600067ffffffffffffffff821115611cd057611ccf611c3a565b5b602082029050919050565b6000611cee611ce984611cb5565b611c9a565b90508060208402830185811115611d0857611d07611af7565b5b835b81811015611d315780611d1d8882611a2b565b845260208401935050602081019050611d0a565b5050509392505050565b600082601f830112611d5057611d4f611aed565b5b6004611d5d848285611cdb565b91505092915050565b600060808284031215611d7c57611d7b611947565b5b6000611d8a84828501611d3b565b91505092915050565b611d9c816119cc565b82525050565b6000602082019050611db76000830184611d93565b92915050565b600060208284031215611dd357611dd2611947565b5b6000611de1848285016119f5565b91505092915050565b6000611df5826119ac565b9050919050565b611e0581611dea565b8114611e1057600080fd5b50565b600081359050611e2281611dfc565b92915050565b60008060408385031215611e3f57611e3e611947565b5b6000611e4d85828601611e13565b9250506020611e5e85828601611a2b565b9150509250929050565b600080fd5b600067ffffffffffffffff821115611e8857611e87611c3a565b5b611e9182611c29565b9050602081019050919050565b82818337600083830152505050565b6000611ec0611ebb84611e6d565b611c9a565b905082815260208101848484011115611edc57611edb611e68565b5b611ee7848285611e9e565b509392505050565b600082601f830112611f0457611f03611aed565b5b8135611f14848260208601611ead565b91505092915050565b60008060408385031215611f3457611f33611947565b5b6000611f42858286016119f5565b925050602083013567ffffffffffffffff811115611f6357611f6261194c565b5b611f6f85828601611eef565b9150509250929050565b611f8281611976565b82525050565b6000602082019050611f9d6000830184611f79565b92915050565b6000819050919050565b6000611fc8611fc3611fbe846119ac565b611fa3565b6119ac565b9050919050565b6000611fda82611fad565b9050919050565b6000611fec82611fcf565b9050919050565b611ffc81611fe1565b82525050565b60006020820190506120176000830184611ff3565b92915050565b60008083601f84011261203357612032611aed565b5b8235905067ffffffffffffffff8111156120505761204f611af2565b5b60208301915083600182028301111561206c5761206b611af7565b5b9250929050565b6000806000806060858703121561208d5761208c611947565b5b600061209b878288016119f5565b94505060206120ac87828801611a2b565b935050604085013567ffffffffffffffff8111156120cd576120cc61194c565b5b6120d98782880161201d565b925092505092959194509250565b600060049050919050565b600081905092915050565b6000819050919050565b61211081611a0a565b82525050565b60006121228383612107565b60208301905092915050565b6000602082019050919050565b612144816120e7565b61214e81846120f2565b9250612159826120fd565b8060005b8381101561218a5781516121718782612116565b965061217c8361212e565b92505060018101905061215d565b505050505050565b60006080820190506121a7600083018461213b565b92915050565b600080fd5b600080fd5b600080fd5b600080833560016020038436030381126121d9576121d86121ad565b5b80840192508235915067ffffffffffffffff8211156121fb576121fa6121b2565b5b602083019250600182023603831315612217576122166121b7565b5b509250929050565b600082825260208201905092915050565b7f457468657273706f744163636f756e743a3a206578656375746542617463682060008201527f2d2077726f6e67206172726179206c656e677468730000000000000000000000602082015250565b600061228c60358361221f565b915061229782612230565b604082019050919050565b600060208201905081810360008301526122bb8161227f565b9050919050565b7f4e487b7100000000000000000000000000000000000000000000000000000000600052603260045260246000fd5b7f4e487b7100000000000000000000000000000000000000000000000000000000600052601160045260246000fd5b600061232b82611a0a565b91507fffffffffffffffffffffffffffffffffffffffffffffffffffffffffffffffff82141561235e5761235d6122f1565b5b600182019050919050565b600060049050919050565b6000819050919050565b60008160001c9050919050565b6000819050919050565b60006123a86123a38361237e565b61238b565b9050919050565b60006123bb8254612395565b9050919050565b6000600182019050919050565b6123d881612369565b6123e281846120f2565b92506123ed82612374565b8060005b8381101561242557612402826123af565b61240c8782612116565b9650612417836123c2565b9250506001810190506123f1565b505050505050565b60006101008201905061244360008301856123cf565b612450608083018461213b565b9392505050565b7f46756e6374696f6e206d7573742062652063616c6c6564207468726f7567682060008201527f64656c656761746563616c6c0000000000000000000000000000000000000000602082015250565b60006124b3602c8361221f565b91506124be82612457565b604082019050919050565b600060208201905081810360008301526124e2816124a6565b9050919050565b7f46756e6374696f6e206d7573742062652063616c6c6564207468726f7567682060008201527f6163746976652070726f78790000000000000000000000000000000000000000602082015250565b6000612545602c8361221f565b9150612550826124e9565b604082019050919050565b6000602082019050818103600083015261257481612538565b9050919050565b600081905092915050565b50565b600061259660008361257b565b91506125a182612586565b600082019050919050565b60006125b782612589565b9150819050919050565b6125ca81611dea565b82525050565b60006040820190506125e560008301856125c1565b6125f26020830184611ac3565b9392505050565b7f555550535570677261646561626c653a206d757374206e6f742062652063616c60008201527f6c6564207468726f7567682064656c656761746563616c6c0000000000000000602082015250565b600061265560388361221f565b9150612660826125f9565b604082019050919050565b6000602082019050818103600083015261268481612648565b9050919050565b60008151905061269a81611a14565b92915050565b6000602082840312156126b6576126b5611947565b5b60006126c48482850161268b565b91505092915050565b7f496e697469616c697a61626c653a20636f6e747261637420697320616c72656160008201527f647920696e697469616c697a6564000000000000000000000000000000000000602082015250565b6000612729602e8361221f565b9150612734826126cd565b604082019050919050565b600060208201905081810360008301526127588161271c565b9050919050565b6000819050919050565b600060ff82169050919050565b600061279161278c6127878461275f565b611fa3565b612769565b9050919050565b6127a181612776565b82525050565b60006020820190506127bc6000830184612798565b92915050565b7f457468657273706f744163636f756e743a204e6f742066726f6d20456e74727960008201527f506f696e74000000000000000000000000000000000000000000000000000000602082015250565b600061281e60258361221f565b9150612829826127c2565b604082019050919050565b6000602082019050818103600083015261284d81612811565b9050919050565b7f424c534163636f756e743a2077726f6e672061676772656761746f7200000000600082015250565b600061288a601c8361221f565b915061289582612854565b602082019050919050565b600060208201905081810360008301526128b98161287d565b9050919050565b60006bffffffffffffffffffffffff82169050919050565b60006128e3826128c0565b91506bffffffffffffffffffffffff821415612902576129016122f1565b5b600182019050919050565b7f457468657273706f744163636f756e743a3a20496e76616c6964206e6f6e6365600082015250565b600061294360208361221f565b915061294e8261290d565b602082019050919050565b6000602082019050818103600083015261297281612936565b9050919050565b7f457468657273706f744163636f756e743a3a204e6f74204f776e6572206f722060008201527f456e747279506f696e7400000000000000000000000000000000000000000000602082015250565b60006129d5602a8361221f565b91506129e082612979565b604082019050919050565b60006020820190508181036000830152612a04816129c8565b9050919050565b600081519050919050565b60005b83811015612a34578082015181840152602081019050612a19565b83811115612a43576000848401525b50505050565b6000612a5482612a0b565b612a5e818561257b565b9350612a6e818560208601612a16565b80840191505092915050565b6000612a868284612a49565b915081905092915050565b7f457468657273706f744163636f756e743a3a204f6e6c79206f776e6572000000600082015250565b6000612ac7601d8361221f565b9150612ad282612a91565b602082019050919050565b60006020820190508181036000830152612af681612aba565b9050919050565b600081519050612b0c81611980565b92915050565b600060208284031215612b2857612b27611947565b5b6000612b3684828501612afd565b91505092915050565b7f45524331393637557067726164653a206e657720696d706c656d656e7461746960008201527f6f6e206973206e6f742055555053000000000000000000000000000000000000602082015250565b6000612b9b602e8361221f565b9150612ba682612b3f565b604082019050919050565b60006020820190508181036000830152612bca81612b8e565b9050919050565b7f45524331393637557067726164653a20756e737570706f727465642070726f7860008201527f6961626c65555549440000000000000000000000000000000000000000000000602082015250565b6000612c2d60298361221f565b9150612c3882612bd1565b604082019050919050565b60006020820190508181036000830152612c5c81612c20565b9050919050565b7f455243313936373a206e657720696d706c656d656e746174696f6e206973206e60008201527f6f74206120636f6e747261637400000000000000000000000000000000000000602082015250565b6000612cbf602d8361221f565b9150612cca82612c63565b604082019050919050565b60006020820190508181036000830152612cee81612cb2565b9050919050565b7f416464726573733a2063616c6c20746f206e6f6e2d636f6e7472616374000000600082015250565b6000612d2b601d8361221f565b9150612d3682612cf5565b602082019050919050565b60006020820190508181036000830152612d5a81612d1e565b9050919050565b600081519050919050565b6000612d7782612d61565b612d81818561221f565b9350612d91818560208601612a16565b612d9a81611c29565b840191505092915050565b60006020820190508181036000830152612dbf8184612d6c565b90509291505056fe416464726573733a206c6f772d6c6576656c2064656c65676174652063616c6c206661696c6564a264697066735822122087c717a246d6d4a2ee0f3b64e5e9f9123dcf6c080351a6c708d1ee5a1f55c5c464736f6c634300080c0033",
  "linkReferences": {},
  "deployedLinkReferences": {}
}