{
  "_format": "hh-sol-artifact-1",
  "contractName": "BLSAccount",
  "sourceName": "src/BLSAccount.sol",
  "abi": [
    {
      "inputs": [
        {
          "internalType": "contract IEntryPoint",
          "name": "anEntryPoint",
          "type": "address"
        },
        {
          "internalType": "address",
          "name": "anAggregator",
          "type": "address"
        }
      ],
      "stateMutability": "nonpayable",
      "type": "constructor"
    },
    {
      "anonymous": false,
      "inputs": [
        {
          "indexed": false,
          "internalType": "address",
          "name": "previousAdmin",
          "type": "address"
        },
        {
          "indexed": false,
          "internalType": "address",
          "name": "newAdmin",
          "type": "address"
        }
      ],
      "name": "AdminChanged",
      "type": "event"
    },
    {
      "anonymous": false,
      "inputs": [
        {
          "indexed": true,
          "internalType": "address",
          "name": "beacon",
          "type": "address"
        }
      ],
      "name": "BeaconUpgraded",
      "type": "event"
    },
    {
      "anonymous": false,
      "inputs": [
        {
          "indexed": true,
          "internalType": "contract IEntryPoint",
          "name": "entryPoint",
          "type": "address"
        },
        {
          "indexed": true,
          "internalType": "address",
          "name": "owner",
          "type": "address"
        }
      ],
      "name": "EtherspotInitialized",
      "type": "event"
    },
    {
      "anonymous": false,
      "inputs": [
        {
          "indexed": false,
          "internalType": "uint8",
          "name": "version",
          "type": "uint8"
        }
      ],
      "name": "Initialized",
      "type": "event"
    },
    {
      "anonymous": false,
      "inputs": [
        {
          "indexed": false,
          "internalType": "uint256[4]",
          "name": "oldPublicKey",
          "type": "uint256[4]"
        },
        {
          "indexed": false,
          "internalType": "uint256[4]",
          "name": "newPublicKey",
          "type": "uint256[4]"
        }
      ],
      "name": "PublicKeyChanged",
      "type": "event"
    },
    {
      "anonymous": false,
      "inputs": [
        {
          "indexed": true,
          "internalType": "address",
          "name": "implementation",
          "type": "address"
        }
      ],
      "name": "Upgraded",
      "type": "event"
    },
    {
      "inputs": [],
      "name": "addDeposit",
      "outputs": [],
      "stateMutability": "payable",
      "type": "function"
    },
    {
      "inputs": [],
      "name": "aggregator",
      "outputs": [
        {
          "internalType": "address",
          "name": "",
          "type": "address"
        }
      ],
      "stateMutability": "view",
      "type": "function"
    },
    {
      "inputs": [],
      "name": "entryPoint",
      "outputs": [
        {
          "internalType": "contract IEntryPoint",
          "name": "",
          "type": "address"
        }
      ],
      "stateMutability": "view",
      "type": "function"
    },
    {
      "inputs": [
        {
          "internalType": "address",
          "name": "dest",
          "type": "address"
        },
        {
          "internalType": "uint256",
          "name": "value",
          "type": "uint256"
        },
        {
          "internalType": "bytes",
          "name": "func",
          "type": "bytes"
        }
      ],
      "name": "execute",
      "outputs": [],
      "stateMutability": "nonpayable",
      "type": "function"
    },
    {
      "inputs": [
        {
          "internalType": "address[]",
          "name": "dest",
          "type": "address[]"
        },
        {
          "internalType": "bytes[]",
          "name": "func",
          "type": "bytes[]"
        }
      ],
      "name": "executeBatch",
      "outputs": [],
      "stateMutability": "nonpayable",
      "type": "function"
    },
    {
      "inputs": [],
      "name": "getAggregator",
      "outputs": [
        {
          "internalType": "address",
          "name": "",
          "type": "address"
        }
      ],
      "stateMutability": "view",
      "type": "function"
    },
    {
      "inputs": [],
      "name": "getBlsPublicKey",
      "outputs": [
        {
          "internalType": "uint256[4]",
          "name": "",
          "type": "uint256[4]"
        }
      ],
      "stateMutability": "view",
      "type": "function"
    },
    {
      "inputs": [],
      "name": "getDeposit",
      "outputs": [
        {
          "internalType": "uint256",
          "name": "",
          "type": "uint256"
        }
      ],
      "stateMutability": "view",
      "type": "function"
    },
    {
      "inputs": [
        {
          "internalType": "address",
          "name": "anOwner",
          "type": "address"
        }
      ],
      "name": "initialize",
      "outputs": [],
      "stateMutability": "nonpayable",
      "type": "function"
    },
    {
      "inputs": [
        {
          "internalType": "uint256[4]",
          "name": "aPublicKey",
          "type": "uint256[4]"
        }
      ],
      "name": "initialize",
      "outputs": [],
      "stateMutability": "nonpayable",
      "type": "function"
    },
    {
      "inputs": [],
      "name": "nonce",
      "outputs": [
        {
          "internalType": "uint256",
          "name": "",
          "type": "uint256"
        }
      ],
      "stateMutability": "view",
      "type": "function"
    },
    {
      "inputs": [],
      "name": "owner",
      "outputs": [
        {
          "internalType": "address",
          "name": "",
          "type": "address"
        }
      ],
      "stateMutability": "view",
      "type": "function"
    },
    {
      "inputs": [],
      "name": "proxiableUUID",
      "outputs": [
        {
          "internalType": "bytes32",
          "name": "",
          "type": "bytes32"
        }
      ],
      "stateMutability": "view",
      "type": "function"
    },
    {
      "inputs": [
        {
          "internalType": "uint256[4]",
          "name": "newPublicKey",
          "type": "uint256[4]"
        }
      ],
      "name": "setBlsPublicKey",
      "outputs": [],
      "stateMutability": "nonpayable",
      "type": "function"
    },
    {
      "inputs": [
        {
          "internalType": "address",
          "name": "newImplementation",
          "type": "address"
        }
      ],
      "name": "upgradeTo",
      "outputs": [],
      "stateMutability": "nonpayable",
      "type": "function"
    },
    {
      "inputs": [
        {
          "internalType": "address",
          "name": "newImplementation",
          "type": "address"
        },
        {
          "internalType": "bytes",
          "name": "data",
          "type": "bytes"
        }
      ],
      "name": "upgradeToAndCall",
      "outputs": [],
      "stateMutability": "payable",
      "type": "function"
    },
    {
      "inputs": [
        {
          "components": [
            {
              "internalType": "address",
              "name": "sender",
              "type": "address"
            },
            {
              "internalType": "uint256",
              "name": "nonce",
              "type": "uint256"
            },
            {
              "internalType": "bytes",
              "name": "initCode",
              "type": "bytes"
            },
            {
              "internalType": "bytes",
              "name": "callData",
              "type": "bytes"
            },
            {
              "internalType": "uint256",
              "name": "callGasLimit",
              "type": "uint256"
            },
            {
              "internalType": "uint256",
              "name": "verificationGasLimit",
              "type": "uint256"
            },
            {
              "internalType": "uint256",
              "name": "preVerificationGas",
              "type": "uint256"
            },
            {
              "internalType": "uint256",
              "name": "maxFeePerGas",
              "type": "uint256"
            },
            {
              "internalType": "uint256",
              "name": "maxPriorityFeePerGas",
              "type": "uint256"
            },
            {
              "internalType": "bytes",
              "name": "paymasterAndData",
              "type": "bytes"
            },
            {
              "internalType": "bytes",
              "name": "signature",
              "type": "bytes"
            }
          ],
          "internalType": "struct UserOperation",
          "name": "userOp",
          "type": "tuple"
        },
        {
          "internalType": "bytes32",
          "name": "userOpHash",
          "type": "bytes32"
        },
        {
          "internalType": "address",
          "name": "aggregator",
          "type": "address"
        },
        {
          "internalType": "uint256",
          "name": "missingAccountFunds",
          "type": "uint256"
        }
      ],
      "name": "validateUserOp",
      "outputs": [
        {
          "internalType": "uint256",
          "name": "deadline",
          "type": "uint256"
        }
      ],
      "stateMutability": "nonpayable",
      "type": "function"
    },
    {
      "inputs": [
        {
          "internalType": "address payable",
          "name": "withdrawAddress",
          "type": "address"
        },
        {
          "internalType": "uint256",
          "name": "amount",
          "type": "uint256"
        }
      ],
      "name": "withdrawDepositTo",
      "outputs": [],
      "stateMutability": "nonpayable",
      "type": "function"
    },
    {
      "stateMutability": "payable",
      "type": "receive"
    }
  ],
  "bytecode": "0x60e06040523073ffffffffffffffffffffffffffffffffffffffff1660809073ffffffffffffffffffffffffffffffffffffffff168152503480156200004457600080fd5b5060405162003bab38038062003bab83398181016040528101906200006a919062000201565b81620000876746fa2d7d308fe41c60c01b6200014c60201b60201c565b620000a3678bdf8bbd6c9b708860c01b6200014c60201b60201c565b8073ffffffffffffffffffffffffffffffffffffffff1660a08173ffffffffffffffffffffffffffffffffffffffff168152505050620000f467031903b37929c12860c01b6200014f60201b60201c565b6200011067f16159070ba5d35160c01b6200014f60201b60201c565b8073ffffffffffffffffffffffffffffffffffffffff1660c08173ffffffffffffffffffffffffffffffffffffffff1681525050505062000248565b50565b50565b600080fd5b600073ffffffffffffffffffffffffffffffffffffffff82169050919050565b6000620001848262000157565b9050919050565b6000620001988262000177565b9050919050565b620001aa816200018b565b8114620001b657600080fd5b50565b600081519050620001ca816200019f565b92915050565b620001db8162000177565b8114620001e757600080fd5b50565b600081519050620001fb81620001d0565b92915050565b600080604083850312156200021b576200021a62000152565b5b60006200022b85828601620001b9565b92505060206200023e85828601620001ea565b9150509250929050565b60805160a05160c051613902620002a96000396000818161084301528181610a2e015261163e015260008181610f59015261206c015260008181610867015281816108f601528181610c9301528181610d220152610dd201526139026000f3fe60806040526004361061010d5760003560e01c806352d1902d11610095578063b61d27f611610064578063b61d27f614610322578063c399ec881461034b578063c4d66de814610376578063e02afbae1461039f578063ee472f36146103ca57610114565b806352d1902d146102765780638da5cb5b146102a1578063affed0e0146102cc578063b0d691fe146102f757610114565b80633659cfe6116100dc5780633659cfe6146101d35780633ad59dbc146101fc5780634a58db19146102275780634d44560d146102315780634f1ef2861461025a57610114565b80630825d1fc1461011957806318dfb3c71461015657806318fc5c441461017f578063245a7bfc146101a857610114565b3661011457005b600080fd5b34801561012557600080fd5b50610140600480360381019061013b919061251e565b6103f3565b60405161014d91906125b0565b60405180910390f35b34801561016257600080fd5b5061017d60048036038101906101789190612686565b610534565b005b34801561018b57600080fd5b506101a660048036038101906101a19190612844565b610722565b005b3480156101b457600080fd5b506101bd610841565b6040516101ca9190612880565b60405180910390f35b3480156101df57600080fd5b506101fa60048036038101906101f5919061289b565b610865565b005b34801561020857600080fd5b506102116109ee565b60405161021e9190612880565b60405180910390f35b61022f610a52565b005b34801561023d57600080fd5b5061025860048036038101906102539190612906565b610b5e565b005b610274600480360381019061026f91906129fb565b610c91565b005b34801561028257600080fd5b5061028b610dce565b6040516102989190612a66565b60405180910390f35b3480156102ad57600080fd5b506102b6610e87565b6040516102c39190612880565b60405180910390f35b3480156102d857600080fd5b506102e1610ead565b6040516102ee91906125b0565b60405180910390f35b34801561030357600080fd5b5061030c610f19565b6040516103199190612ae0565b60405180910390f35b34801561032e57600080fd5b5061034960048036038101906103449190612b51565b610f7d565b005b34801561035757600080fd5b5061036061103e565b60405161036d91906125b0565b60405180910390f35b34801561038257600080fd5b5061039d6004803603810190610398919061289b565b611102565b005b3480156103ab57600080fd5b506103b46112a6565b6040516103c19190612c70565b60405180910390f35b3480156103d657600080fd5b506103f160048036038101906103ec9190612844565b61132d565b005b600061040967da08b129ae15dff060c01b6114f8565b61041d67313d7290b650cc4760c01b6114f8565b61043167a5d6461ba975a9da60c01b6114f8565b6104396114fb565b61044d6772c456dbb4baf25f60c01b6114f8565b6104588585856115d6565b905061046e67453c6e2a9d0f520960c01b6114f8565b610482678c9c42950318cf7c60c01b6114f8565b60008580604001906104949190612c9a565b905014156104e6576104b0672ab6cfe5a93e60a160c01b6114f8565b6104c467ff42b522b7f4be4e60c01b6114f8565b6104d8670b7b670d7d56088b60c01b6114f8565b6104e185611711565b6104fb565b6104fa67f4c5fd5998e12c3460c01b6114f8565b5b61050f6738e6e189013d788260c01b6114f8565b61052367c55de5ed6711d9bd60c01b6114f8565b61052c82611823565b949350505050565b6105486772445922c05e345d60c01b611964565b61055c67de9158228d8f145760c01b611964565b610570675458a7aa0eb5c78060c01b611964565b610578611967565b61058c673bec1854ba4f24cc60c01b611964565b6105a0679d0787255b6a993460c01b611964565b6105b467d7afcec3a5287fbf60c01b611964565b8181905084849050146105fc576040517f08c379a00000000000000000000000000000000000000000000000000000000081526004016105f390612d80565b60405180910390fd5b610610672509d24c8ae5067560c01b611964565b61062467eecc27fe99ce405060c01b611964565b61063867e2157ddfc0a00f2460c01b611964565b60005b8484905081101561071b5761065a67adc8429755f372ba60c01b611964565b61066e674f9b9d9b8143e14b60c01b611964565b61070885858381811061068457610683612da0565b5b9050602002016020810190610699919061289b565b60008585858181106106ae576106ad612da0565b5b90506020028101906106c09190612c9a565b8080601f016020809104026020016040519081016040528093929190818152602001838380828437600081840152601f19601f82011690508083019250505050505050611ad2565b808061071390612dfe565b91505061063b565b5050505050565b61073667b53de32c975a3a2960c01b611bf6565b61074a671aa220bca62207ad60c01b611964565b61075e67acd4d0daa1c484e360c01b611964565b610772678a6b812bb6caf76c60c01b611964565b61077a611bf9565b61078e678bf075cd8e87f7f860c01b611964565b6107a2678f2be07f22312e0b60c01b611bf6565b6107b667424f39fd5deaba9b60c01b611bf6565b6107ca6770766c39fe0b3f9160c01b611bf6565b6107de67034aa5b146e3cf5c60c01b611bf6565b7f42e4c4ce1432650f17e41c4ea77ed12c0ab20b229d3ffd84a2ebc9f8abb25a83600282604051610810929190612f0b565b60405180910390a161082c6762c16d42346e80e060c01b611bf6565b80600290600461083d92919061239c565b5050565b7f000000000000000000000000000000000000000000000000000000000000000081565b7f000000000000000000000000000000000000000000000000000000000000000073ffffffffffffffffffffffffffffffffffffffff163073ffffffffffffffffffffffffffffffffffffffff1614156108f4576040517f08c379a00000000000000000000000000000000000000000000000000000000081526004016108eb90612fa7565b60405180910390fd5b7f000000000000000000000000000000000000000000000000000000000000000073ffffffffffffffffffffffffffffffffffffffff16610933611d5d565b73ffffffffffffffffffffffffffffffffffffffff1614610989576040517f08c379a000000000000000000000000000000000000000000000000000000000815260040161098090613039565b60405180910390fd5b61099281611db4565b6109eb81600067ffffffffffffffff8111156109b1576109b0612718565b5b6040519080825280601f01601f1916602001820160405280156109e35781602001600182028036833780820191505090505b506000611e0f565b50565b6000610a0467a63eb8276f59854960c01b611bf6565b610a18672825a03246e6b85860c01b611bf6565b610a2c67a333791b87a6ab0260c01b611bf6565b7f0000000000000000000000000000000000000000000000000000000000000000905090565b610a66670fd9e27a8f2b98a060c01b611964565b610a7a6781ffa960366bc12460c01b611964565b610a8e67fde60ee860f163dc60c01b611964565b6000610a98610f19565b73ffffffffffffffffffffffffffffffffffffffff1634604051610abb9061308a565b60006040518083038185875af1925050503d8060008114610af8576040519150601f19603f3d011682016040523d82523d6000602084013e610afd565b606091505b50509050610b1567d38e8a8dba37fa5660c01b611964565b610b2967f435fa9dcab5980c60c01b611964565b610b3d676c0374ff302f295460c01b611964565b80610b4757600080fd5b610b5b67d1a90a7b45c82f8f60c01b611964565b50565b610b7267c519d7a096d38c3960c01b611964565b610b86671aa220bca62207ad60c01b611964565b610b9a67acd4d0daa1c484e360c01b611964565b610bae678a6b812bb6caf76c60c01b611964565b610bb6611bf9565b610bca678bf075cd8e87f7f860c01b611964565b610bde67e5bc0f6492a1e8e860c01b611964565b610bf267a2ad9cdb3b9210ba60c01b611964565b610c0566edff885a292ffe60c01b611964565b610c1967f22d60c41bef317860c01b611964565b610c21610f19565b73ffffffffffffffffffffffffffffffffffffffff1663205c287883836040518363ffffffff1660e01b8152600401610c5b9291906130ae565b600060405180830381600087803b158015610c7557600080fd5b505af1158015610c89573d6000803e3d6000fd5b505050505050565b7f000000000000000000000000000000000000000000000000000000000000000073ffffffffffffffffffffffffffffffffffffffff163073ffffffffffffffffffffffffffffffffffffffff161415610d20576040517f08c379a0000000000000000000000000000000000000000000000000000000008152600401610d1790612fa7565b60405180910390fd5b7f000000000000000000000000000000000000000000000000000000000000000073ffffffffffffffffffffffffffffffffffffffff16610d5f611d5d565b73ffffffffffffffffffffffffffffffffffffffff1614610db5576040517f08c379a0000000000000000000000000000000000000000000000000000000008152600401610dac90613039565b60405180910390fd5b610dbe82611db4565b610dca82826001611e0f565b5050565b60007f000000000000000000000000000000000000000000000000000000000000000073ffffffffffffffffffffffffffffffffffffffff163073ffffffffffffffffffffffffffffffffffffffff1614610e5e576040517f08c379a0000000000000000000000000000000000000000000000000000000008152600401610e5590613149565b60405180910390fd5b7f360894a13ba1a3210667c828492db98dca3e2076cc3735a920a3ca505d382bbc60001b905090565b600160009054906101000a900473ffffffffffffffffffffffffffffffffffffffff1681565b6000610ec36709209a0cb9c1899a60c01b611964565b610ed767523b235d591ab25660c01b611964565b610eeb6744bc98a673b857c160c01b611964565b600060029054906101000a90046bffffffffffffffffffffffff166bffffffffffffffffffffffff16905090565b6000610f2f6762d4180056729b6060c01b611964565b610f436719f3e8473f48235660c01b611964565b610f576702f87b83f812edfb60c01b611964565b7f0000000000000000000000000000000000000000000000000000000000000000905090565b610f9167b220b794418d2a8e60c01b611964565b610fa5673a0f559cc07ee88960c01b611964565b610fb967445996d52501879c60c01b611964565b610fc1611967565b610fd567990e7ce27c43097560c01b611964565b610fe967a6a7c54d6546427560c01b611964565b611038848484848080601f016020809104026020016040519081016040528093929190818152602001838380828437600081840152601f19601f82011690508083019250505050505050611ad2565b50505050565b6000611054670f80a84fe2357fc360c01b611964565b611068675e79fcacabb451e860c01b611964565b61107c672157430d3d29419f60c01b611964565b611084610f19565b73ffffffffffffffffffffffffffffffffffffffff166370a08231306040518263ffffffff1660e01b81526004016110bc9190612880565b602060405180830381865afa1580156110d9573d6000803e3d6000fd5b505050506040513d601f19601f820116820180604052508101906110fd919061317e565b905090565b61111667415c61c098f727a960c01b611964565b60008060019054906101000a900460ff161590508080156111475750600160008054906101000a900460ff1660ff16105b80611174575061115630611f7d565b1580156111735750600160008054906101000a900460ff1660ff16145b5b6111b3576040517f08c379a00000000000000000000000000000000000000000000000000000000081526004016111aa9061321d565b60405180910390fd5b60016000806101000a81548160ff021916908360ff16021790555080156111f0576001600060016101000a81548160ff0219169083151502179055505b61120467952aa274d343f4f260c01b611964565b611218673d599b280d77fcd660c01b611964565b61122c6759cbedbbd1b6250560c01b611964565b61124067b0d219178ed6484260c01b611964565b61124982611fa0565b80156112a25760008060016101000a81548160ff0219169083151502179055507f7f26b83ff96e1f2b6a682f133852f6798a09c465da95921460cefb384740249860016040516112999190613285565b60405180910390a15b5050565b6112ae6123dc565b6112c2675744952a140ca31760c01b611bf6565b6112d667e7f26ddb1bc70abc60c01b611bf6565b6112ea67f260d8c691dad30860c01b611bf6565b6002600480602002604051908101604052809291908260048015611323576020028201915b81548152602001906001019080831161130f575b5050505050905090565b61134167f98844a66d0bbc7560c01b611bf6565b60008060019054906101000a900460ff161590508080156113725750600160008054906101000a900460ff1660ff16105b8061139f575061138130611f7d565b15801561139e5750600160008054906101000a900460ff1660ff16145b5b6113de576040517f08c379a00000000000000000000000000000000000000000000000000000000081526004016113d59061321d565b60405180910390fd5b60016000806101000a81548160ff021916908360ff160217905550801561141b576001600060016101000a81548160ff0219169083151502179055505b61142f677f3f9dbf02ff1a7660c01b611bf6565b61144367ad156dfe6c316dc060c01b611bf6565b611457676b5fb05d1483d12c60c01b611bf6565b61146b678e057256e0bb45c860c01b611bf6565b6114756000611fa0565b611489675c7abc77da36bddd60c01b611bf6565b81600290600461149a92919061239c565b5080156114f45760008060016101000a81548160ff0219169083151502179055507f7f26b83ff96e1f2b6a682f133852f6798a09c465da95921460cefb384740249860016040516114eb9190613285565b60405180910390a15b5050565b50565b61150f67838067bf83de6c1360c01b6114f8565b611523670834fbf3b7f8a2fb60c01b6114f8565b61153767ee846fe880e61de860c01b6114f8565b61154b6790efb0bfc2df6e4f60c01b6114f8565b611553610f19565b73ffffffffffffffffffffffffffffffffffffffff163373ffffffffffffffffffffffffffffffffffffffff16146115c0576040517f08c379a00000000000000000000000000000000000000000000000000000000081526004016115b790613312565b60405180910390fd5b6115d46720cdcbe1a5dfa95d60c01b6114f8565b565b60006115ec676b4e392faa519f5560c01b611bf6565b611600678510c6e60888216060c01b611bf6565b61161467b49c0014a920051160c01b611bf6565b6116286755ed0d972e4965a260c01b611bf6565b61163c672cc10b197bf473c160c01b611bf6565b7f000000000000000000000000000000000000000000000000000000000000000073ffffffffffffffffffffffffffffffffffffffff168273ffffffffffffffffffffffffffffffffffffffff16146116ca576040517f08c379a00000000000000000000000000000000000000000000000000000000081526004016116c19061337e565b60405180910390fd5b6116de67ae75026aa51080d060c01b611bf6565b6116f2679f990d60a596cf4160c01b611bf6565b61170667d1fd5103a699d9cc60c01b611bf6565b600090509392505050565b61172567a7c22d9e393196d260c01b611964565b611739677311040b0313321a60c01b611964565b61174d67751e9f600ba2f64c60c01b611964565b61176167ace822577c21990a60c01b611964565b80602001356000600281819054906101000a90046bffffffffffffffffffffffff1680929190611790906133b6565b91906101000a8154816bffffffffffffffffffffffff02191690836bffffffffffffffffffffffff1602179055506bffffffffffffffffffffffff161461180c576040517f08c379a000000000000000000000000000000000000000000000000000000000815260040161180390613437565b60405180910390fd5b611820674d1d44a4116654ad60c01b611964565b50565b611837675750eaca8182d20360c01b6114f8565b61184b67aee29aeda46588dc60c01b6114f8565b61185f67a27e874f4eb11a9160c01b6114f8565b6000811461194c5761187b6768c52f8d9f6b53ab60c01b6114f8565b61188f676b1854d536ea0e9f60c01b6114f8565b6118a3677829c2d80618deb960c01b6114f8565b60003373ffffffffffffffffffffffffffffffffffffffff16827fffffffffffffffffffffffffffffffffffffffffffffffffffffffffffffffff906040516118eb9061308a565b600060405180830381858888f193505050503d8060008114611929576040519150601f19603f3d011682016040523d82523d6000602084013e61192e565b606091505b5050905061194667bc36d1ad5a91a12c60c01b6114f8565b50611961565b6119606781bc15672c58b82d60c01b6114f8565b5b50565b50565b61197b67f45bcd27ad0dd92860c01b611964565b61198f67b1d1aa9a22a00ac160c01b611964565b6119a3673ac980fdd8333d2660c01b611964565b6119b767aa833b8c9c8c558c60c01b611964565b6119bf610f19565b73ffffffffffffffffffffffffffffffffffffffff163373ffffffffffffffffffffffffffffffffffffffff16148015611a095750611a0867aef8de721c5fe8b160c01b6120d0565b5b80611a7d5750600160009054906101000a900473ffffffffffffffffffffffffffffffffffffffff1673ffffffffffffffffffffffffffffffffffffffff163373ffffffffffffffffffffffffffffffffffffffff16148015611a7c5750611a7b67a25de712c8f80f5260c01b6120d0565b5b5b611abc576040517f08c379a0000000000000000000000000000000000000000000000000000000008152600401611ab3906134c9565b60405180910390fd5b611ad0676a473edf778b787f60c01b611964565b565b611ae6672c5bb24e839bc30f60c01b611964565b611afa67f48a8206e475f2c760c01b611964565b611b0e676db9a460f2c27c1d60c01b611964565b6000808473ffffffffffffffffffffffffffffffffffffffff168484604051611b379190613558565b60006040518083038185875af1925050503d8060008114611b74576040519150601f19603f3d011682016040523d82523d6000602084013e611b79565b606091505b5091509150611b9267c8fd51c1d8016af060c01b611964565b611ba6671807ac774d8d7c1260c01b611964565b81611bdb57611bbf675067326c13a8e29960c01b611964565b611bd3671b36adb728082ea160c01b611964565b805160208201fd5b611bef67e61000f1417761c260c01b611964565b5050505050565b50565b611c0d67d27842c20719a41c60c01b611964565b611c2167d753a453a72bf81f60c01b611964565b611c3567406e38719fc27cc260c01b611964565b611c4967f51db7f751ac907260c01b611964565b600160009054906101000a900473ffffffffffffffffffffffffffffffffffffffff1673ffffffffffffffffffffffffffffffffffffffff163373ffffffffffffffffffffffffffffffffffffffff16148015611cb65750611cb5670d79729373811de860c01b6120d0565b5b80611d0857503073ffffffffffffffffffffffffffffffffffffffff163373ffffffffffffffffffffffffffffffffffffffff16148015611d075750611d0667bd5c7db614ac147660c01b6120d0565b5b5b611d47576040517f08c379a0000000000000000000000000000000000000000000000000000000008152600401611d3e906135bb565b60405180910390fd5b611d5b67b7325711d515174060c01b611964565b565b6000611d8b7f360894a13ba1a3210667c828492db98dca3e2076cc3735a920a3ca505d382bbc60001b6120db565b60000160009054906101000a900473ffffffffffffffffffffffffffffffffffffffff16905090565b611dc86776d830b746fb8e1160c01b611964565b611ddc673ceefeb28f041f8860c01b611964565b611df067864098b11ac3b58b60c01b611964565b611e04672b0abf7f1cba2fb960c01b611964565b611e0c611bf9565b50565b611e3b7f4910fdfa16fed3260ed0e7147f7cc6da11a60208b5b9406d12a635614ffd914360001b6120e5565b60000160009054906101000a900460ff1615611e5f57611e5a836120ef565b611f78565b8273ffffffffffffffffffffffffffffffffffffffff166352d1902d6040518163ffffffff1660e01b8152600401602060405180830381865afa925050508015611ec757506040513d601f19601f82011682018060405250810190611ec491906135f0565b60015b611f06576040517f08c379a0000000000000000000000000000000000000000000000000000000008152600401611efd9061368f565b60405180910390fd5b7f360894a13ba1a3210667c828492db98dca3e2076cc3735a920a3ca505d382bbc60001b8114611f6b576040517f08c379a0000000000000000000000000000000000000000000000000000000008152600401611f6290613721565b60405180910390fd5b50611f778383836121a8565b5b505050565b6000808273ffffffffffffffffffffffffffffffffffffffff163b119050919050565b611fb467394c1c58d848971160c01b611964565b611fc86744c9bb2d8cb3558860c01b611964565b80600160006101000a81548173ffffffffffffffffffffffffffffffffffffffff021916908373ffffffffffffffffffffffffffffffffffffffff16021790555061201d675e4f33138d2e7bd060c01b611964565b61203167946075acfbc758e860c01b611964565b600160009054906101000a900473ffffffffffffffffffffffffffffffffffffffff1673ffffffffffffffffffffffffffffffffffffffff167f000000000000000000000000000000000000000000000000000000000000000073ffffffffffffffffffffffffffffffffffffffff167fc053dd35e22ddb3ae5f46f48289137bbba99fdd1068c0f7d3069bb62dab393fd60405160405180910390a350565b600060019050919050565b6000819050919050565b6000819050919050565b6120f881611f7d565b612137576040517f08c379a000000000000000000000000000000000000000000000000000000000815260040161212e906137b3565b60405180910390fd5b806121647f360894a13ba1a3210667c828492db98dca3e2076cc3735a920a3ca505d382bbc60001b6120db565b60000160006101000a81548173ffffffffffffffffffffffffffffffffffffffff021916908373ffffffffffffffffffffffffffffffffffffffff16021790555050565b6121b1836121d4565b6000825111806121be5750805b156121cf576121cd8383612223565b505b505050565b6121dd816120ef565b8073ffffffffffffffffffffffffffffffffffffffff167fbc7cd75a20ee27fd9adebab32041f755214dbc6bffa90cc0225b39da2e5c2d3b60405160405180910390a250565b606061224883836040518060600160405280602781526020016138a660279139612250565b905092915050565b60606000808573ffffffffffffffffffffffffffffffffffffffff168560405161227a9190613558565b600060405180830381855af49150503d80600081146122b5576040519150601f19603f3d011682016040523d82523d6000602084013e6122ba565b606091505b50915091506122cb868383876122d6565b925050509392505050565b6060831561233957600083511415612331576122f185611f7d565b612330576040517f08c379a00000000000000000000000000000000000000000000000000000000081526004016123279061381f565b60405180910390fd5b5b829050612344565b612343838361234c565b5b949350505050565b60008251111561235f5781518083602001fd5b806040517f08c379a00000000000000000000000000000000000000000000000000000000081526004016123939190613883565b60405180910390fd5b82600481019282156123cb579160200282015b828111156123ca5782518255916020019190600101906123af565b5b5090506123d891906123fe565b5090565b6040518060800160405280600490602082028036833780820191505090505090565b5b808211156124175760008160009055506001016123ff565b5090565b6000604051905090565b600080fd5b600080fd5b600080fd5b6000610160828403121561244b5761244a61242f565b5b81905092915050565b6000819050919050565b61246781612454565b811461247257600080fd5b50565b6000813590506124848161245e565b92915050565b600073ffffffffffffffffffffffffffffffffffffffff82169050919050565b60006124b58261248a565b9050919050565b6124c5816124aa565b81146124d057600080fd5b50565b6000813590506124e2816124bc565b92915050565b6000819050919050565b6124fb816124e8565b811461250657600080fd5b50565b600081359050612518816124f2565b92915050565b6000806000806080858703121561253857612537612425565b5b600085013567ffffffffffffffff8111156125565761255561242a565b5b61256287828801612434565b945050602061257387828801612475565b9350506040612584878288016124d3565b925050606061259587828801612509565b91505092959194509250565b6125aa816124e8565b82525050565b60006020820190506125c560008301846125a1565b92915050565b600080fd5b600080fd5b600080fd5b60008083601f8401126125f0576125ef6125cb565b5b8235905067ffffffffffffffff81111561260d5761260c6125d0565b5b602083019150836020820283011115612629576126286125d5565b5b9250929050565b60008083601f840112612646576126456125cb565b5b8235905067ffffffffffffffff811115612663576126626125d0565b5b60208301915083602082028301111561267f5761267e6125d5565b5b9250929050565b600080600080604085870312156126a05761269f612425565b5b600085013567ffffffffffffffff8111156126be576126bd61242a565b5b6126ca878288016125da565b9450945050602085013567ffffffffffffffff8111156126ed576126ec61242a565b5b6126f987828801612630565b925092505092959194509250565b6000601f19601f8301169050919050565b7f4e487b7100000000000000000000000000000000000000000000000000000000600052604160045260246000fd5b61275082612707565b810181811067ffffffffffffffff8211171561276f5761276e612718565b5b80604052505050565b600061278261241b565b905061278e8282612747565b919050565b600067ffffffffffffffff8211156127ae576127ad612718565b5b602082029050919050565b60006127cc6127c784612793565b612778565b905080602084028301858111156127e6576127e56125d5565b5b835b8181101561280f57806127fb8882612509565b8452602084019350506020810190506127e8565b5050509392505050565b600082601f83011261282e5761282d6125cb565b5b600461283b8482856127b9565b91505092915050565b60006080828403121561285a57612859612425565b5b600061286884828501612819565b91505092915050565b61287a816124aa565b82525050565b60006020820190506128956000830184612871565b92915050565b6000602082840312156128b1576128b0612425565b5b60006128bf848285016124d3565b91505092915050565b60006128d38261248a565b9050919050565b6128e3816128c8565b81146128ee57600080fd5b50565b600081359050612900816128da565b92915050565b6000806040838503121561291d5761291c612425565b5b600061292b858286016128f1565b925050602061293c85828601612509565b9150509250929050565b600080fd5b600067ffffffffffffffff82111561296657612965612718565b5b61296f82612707565b9050602081019050919050565b82818337600083830152505050565b600061299e6129998461294b565b612778565b9050828152602081018484840111156129ba576129b9612946565b5b6129c584828561297c565b509392505050565b600082601f8301126129e2576129e16125cb565b5b81356129f284826020860161298b565b91505092915050565b60008060408385031215612a1257612a11612425565b5b6000612a20858286016124d3565b925050602083013567ffffffffffffffff811115612a4157612a4061242a565b5b612a4d858286016129cd565b9150509250929050565b612a6081612454565b82525050565b6000602082019050612a7b6000830184612a57565b92915050565b6000819050919050565b6000612aa6612aa1612a9c8461248a565b612a81565b61248a565b9050919050565b6000612ab882612a8b565b9050919050565b6000612aca82612aad565b9050919050565b612ada81612abf565b82525050565b6000602082019050612af56000830184612ad1565b92915050565b60008083601f840112612b1157612b106125cb565b5b8235905067ffffffffffffffff811115612b2e57612b2d6125d0565b5b602083019150836001820283011115612b4a57612b496125d5565b5b9250929050565b60008060008060608587031215612b6b57612b6a612425565b5b6000612b79878288016124d3565b9450506020612b8a87828801612509565b935050604085013567ffffffffffffffff811115612bab57612baa61242a565b5b612bb787828801612afb565b925092505092959194509250565b600060049050919050565b600081905092915050565b6000819050919050565b612bee816124e8565b82525050565b6000612c008383612be5565b60208301905092915050565b6000602082019050919050565b612c2281612bc5565b612c2c8184612bd0565b9250612c3782612bdb565b8060005b83811015612c68578151612c4f8782612bf4565b9650612c5a83612c0c565b925050600181019050612c3b565b505050505050565b6000608082019050612c856000830184612c19565b92915050565b600080fd5b600080fd5b600080fd5b60008083356001602003843603038112612cb757612cb6612c8b565b5b80840192508235915067ffffffffffffffff821115612cd957612cd8612c90565b5b602083019250600182023603831315612cf557612cf4612c95565b5b509250929050565b600082825260208201905092915050565b7f457468657273706f744163636f756e743a3a206578656375746542617463682060008201527f2d2077726f6e67206172726179206c656e677468730000000000000000000000602082015250565b6000612d6a603583612cfd565b9150612d7582612d0e565b604082019050919050565b60006020820190508181036000830152612d9981612d5d565b9050919050565b7f4e487b7100000000000000000000000000000000000000000000000000000000600052603260045260246000fd5b7f4e487b7100000000000000000000000000000000000000000000000000000000600052601160045260246000fd5b6000612e09826124e8565b91507fffffffffffffffffffffffffffffffffffffffffffffffffffffffffffffffff821415612e3c57612e3b612dcf565b5b600182019050919050565b600060049050919050565b6000819050919050565b60008160001c9050919050565b6000819050919050565b6000612e86612e8183612e5c565b612e69565b9050919050565b6000612e998254612e73565b9050919050565b6000600182019050919050565b612eb681612e47565b612ec08184612bd0565b9250612ecb82612e52565b8060005b83811015612f0357612ee082612e8d565b612eea8782612bf4565b9650612ef583612ea0565b925050600181019050612ecf565b505050505050565b600061010082019050612f216000830185612ead565b612f2e6080830184612c19565b9392505050565b7f46756e6374696f6e206d7573742062652063616c6c6564207468726f7567682060008201527f64656c656761746563616c6c0000000000000000000000000000000000000000602082015250565b6000612f91602c83612cfd565b9150612f9c82612f35565b604082019050919050565b60006020820190508181036000830152612fc081612f84565b9050919050565b7f46756e6374696f6e206d7573742062652063616c6c6564207468726f7567682060008201527f6163746976652070726f78790000000000000000000000000000000000000000602082015250565b6000613023602c83612cfd565b915061302e82612fc7565b604082019050919050565b6000602082019050818103600083015261305281613016565b9050919050565b600081905092915050565b50565b6000613074600083613059565b915061307f82613064565b600082019050919050565b600061309582613067565b9150819050919050565b6130a8816128c8565b82525050565b60006040820190506130c3600083018561309f565b6130d060208301846125a1565b9392505050565b7f555550535570677261646561626c653a206d757374206e6f742062652063616c60008201527f6c6564207468726f7567682064656c656761746563616c6c0000000000000000602082015250565b6000613133603883612cfd565b915061313e826130d7565b604082019050919050565b6000602082019050818103600083015261316281613126565b9050919050565b600081519050613178816124f2565b92915050565b60006020828403121561319457613193612425565b5b60006131a284828501613169565b91505092915050565b7f496e697469616c697a61626c653a20636f6e747261637420697320616c72656160008201527f647920696e697469616c697a6564000000000000000000000000000000000000602082015250565b6000613207602e83612cfd565b9150613212826131ab565b604082019050919050565b60006020820190508181036000830152613236816131fa565b9050919050565b6000819050919050565b600060ff82169050919050565b600061326f61326a6132658461323d565b612a81565b613247565b9050919050565b61327f81613254565b82525050565b600060208201905061329a6000830184613276565b92915050565b7f457468657273706f744163636f756e743a204e6f742066726f6d20456e74727960008201527f506f696e74000000000000000000000000000000000000000000000000000000602082015250565b60006132fc602583612cfd565b9150613307826132a0565b604082019050919050565b6000602082019050818103600083015261332b816132ef565b9050919050565b7f424c534163636f756e743a2077726f6e672061676772656761746f7200000000600082015250565b6000613368601c83612cfd565b915061337382613332565b602082019050919050565b600060208201905081810360008301526133978161335b565b9050919050565b60006bffffffffffffffffffffffff82169050919050565b60006133c18261339e565b91506bffffffffffffffffffffffff8214156133e0576133df612dcf565b5b600182019050919050565b7f457468657273706f744163636f756e743a3a20496e76616c6964206e6f6e6365600082015250565b6000613421602083612cfd565b915061342c826133eb565b602082019050919050565b6000602082019050818103600083015261345081613414565b9050919050565b7f457468657273706f744163636f756e743a3a204e6f74204f776e6572206f722060008201527f456e747279506f696e7400000000000000000000000000000000000000000000602082015250565b60006134b3602a83612cfd565b91506134be82613457565b604082019050919050565b600060208201905081810360008301526134e2816134a6565b9050919050565b600081519050919050565b60005b838110156135125780820151818401526020810190506134f7565b83811115613521576000848401525b50505050565b6000613532826134e9565b61353c8185613059565b935061354c8185602086016134f4565b80840191505092915050565b60006135648284613527565b915081905092915050565b7f457468657273706f744163636f756e743a3a204f6e6c79206f776e6572000000600082015250565b60006135a5601d83612cfd565b91506135b08261356f565b602082019050919050565b600060208201905081810360008301526135d481613598565b9050919050565b6000815190506135ea8161245e565b92915050565b60006020828403121561360657613605612425565b5b6000613614848285016135db565b91505092915050565b7f45524331393637557067726164653a206e657720696d706c656d656e7461746960008201527f6f6e206973206e6f742055555053000000000000000000000000000000000000602082015250565b6000613679602e83612cfd565b91506136848261361d565b604082019050919050565b600060208201905081810360008301526136a88161366c565b9050919050565b7f45524331393637557067726164653a20756e737570706f727465642070726f7860008201527f6961626c65555549440000000000000000000000000000000000000000000000602082015250565b600061370b602983612cfd565b9150613716826136af565b604082019050919050565b6000602082019050818103600083015261373a816136fe565b9050919050565b7f455243313936373a206e657720696d706c656d656e746174696f6e206973206e60008201527f6f74206120636f6e747261637400000000000000000000000000000000000000602082015250565b600061379d602d83612cfd565b91506137a882613741565b604082019050919050565b600060208201905081810360008301526137cc81613790565b9050919050565b7f416464726573733a2063616c6c20746f206e6f6e2d636f6e7472616374000000600082015250565b6000613809601d83612cfd565b9150613814826137d3565b602082019050919050565b60006020820190508181036000830152613838816137fc565b9050919050565b600081519050919050565b60006138558261383f565b61385f8185612cfd565b935061386f8185602086016134f4565b61387881612707565b840191505092915050565b6000602082019050818103600083015261389d818461384a565b90509291505056fe416464726573733a206c6f772d6c6576656c2064656c65676174652063616c6c206661696c6564a2646970667358221220af5b17a3981a6f3a844527b9cda0dc521d4dc2afc2a1def7c2e44b67bae7d8f264736f6c634300080c0033",
  "linkReferences": {},
  "deployedLinkReferences": {}
}