{
  "_format": "hh-sol-artifact-1",
  "contractName": "TestPaymasterAcceptAll",
  "sourceName": "src/test/TestPaymasterAcceptAll.sol",
  "abi": [
    {
      "inputs": [
        {
          "internalType": "contract IEntryPoint",
          "name": "_entryPoint",
          "type": "address"
        }
      ],
      "stateMutability": "nonpayable",
      "type": "constructor"
    },
    {
      "anonymous": false,
      "inputs": [
        {
          "indexed": true,
          "internalType": "address",
          "name": "previousOwner",
          "type": "address"
        },
        {
          "indexed": true,
          "internalType": "address",
          "name": "newOwner",
          "type": "address"
        }
      ],
      "name": "OwnershipTransferred",
      "type": "event"
    },
    {
      "inputs": [
        {
          "internalType": "uint32",
          "name": "unstakeDelaySec",
          "type": "uint32"
        }
      ],
      "name": "addStake",
      "outputs": [],
      "stateMutability": "payable",
      "type": "function"
    },
    {
      "inputs": [],
      "name": "deposit",
      "outputs": [],
      "stateMutability": "payable",
      "type": "function"
    },
    {
      "inputs": [],
      "name": "entryPoint",
      "outputs": [
        {
          "internalType": "contract IEntryPoint",
          "name": "",
          "type": "address"
        }
      ],
      "stateMutability": "view",
      "type": "function"
    },
    {
      "inputs": [],
      "name": "getDeposit",
      "outputs": [
        {
          "internalType": "uint256",
          "name": "",
          "type": "uint256"
        }
      ],
      "stateMutability": "view",
      "type": "function"
    },
    {
      "inputs": [],
      "name": "owner",
      "outputs": [
        {
          "internalType": "address",
          "name": "",
          "type": "address"
        }
      ],
      "stateMutability": "view",
      "type": "function"
    },
    {
      "inputs": [
        {
          "internalType": "enum IPaymaster.PostOpMode",
          "name": "mode",
          "type": "uint8"
        },
        {
          "internalType": "bytes",
          "name": "context",
          "type": "bytes"
        },
        {
          "internalType": "uint256",
          "name": "actualGasCost",
          "type": "uint256"
        }
      ],
      "name": "postOp",
      "outputs": [],
      "stateMutability": "nonpayable",
      "type": "function"
    },
    {
      "inputs": [],
      "name": "renounceOwnership",
      "outputs": [],
      "stateMutability": "nonpayable",
      "type": "function"
    },
    {
      "inputs": [
        {
          "internalType": "contract IEntryPoint",
          "name": "_entryPoint",
          "type": "address"
        }
      ],
      "name": "setEntryPoint",
      "outputs": [],
      "stateMutability": "nonpayable",
      "type": "function"
    },
    {
      "inputs": [
        {
          "internalType": "address",
          "name": "newOwner",
          "type": "address"
        }
      ],
      "name": "transferOwnership",
      "outputs": [],
      "stateMutability": "nonpayable",
      "type": "function"
    },
    {
      "inputs": [],
      "name": "unlockStake",
      "outputs": [],
      "stateMutability": "nonpayable",
      "type": "function"
    },
    {
      "inputs": [
        {
          "components": [
            {
              "internalType": "address",
              "name": "sender",
              "type": "address"
            },
            {
              "internalType": "uint256",
              "name": "nonce",
              "type": "uint256"
            },
            {
              "internalType": "bytes",
              "name": "initCode",
              "type": "bytes"
            },
            {
              "internalType": "bytes",
              "name": "callData",
              "type": "bytes"
            },
            {
              "internalType": "uint256",
              "name": "callGasLimit",
              "type": "uint256"
            },
            {
              "internalType": "uint256",
              "name": "verificationGasLimit",
              "type": "uint256"
            },
            {
              "internalType": "uint256",
              "name": "preVerificationGas",
              "type": "uint256"
            },
            {
              "internalType": "uint256",
              "name": "maxFeePerGas",
              "type": "uint256"
            },
            {
              "internalType": "uint256",
              "name": "maxPriorityFeePerGas",
              "type": "uint256"
            },
            {
              "internalType": "bytes",
              "name": "paymasterAndData",
              "type": "bytes"
            },
            {
              "internalType": "bytes",
              "name": "signature",
              "type": "bytes"
            }
          ],
          "internalType": "struct UserOperation",
          "name": "userOp",
          "type": "tuple"
        },
        {
          "internalType": "bytes32",
          "name": "userOpHash",
          "type": "bytes32"
        },
        {
          "internalType": "uint256",
          "name": "maxCost",
          "type": "uint256"
        }
      ],
      "name": "validatePaymasterUserOp",
      "outputs": [
        {
          "internalType": "bytes",
          "name": "context",
          "type": "bytes"
        },
        {
          "internalType": "uint256",
          "name": "deadline",
          "type": "uint256"
        }
      ],
      "stateMutability": "view",
      "type": "function"
    },
    {
      "inputs": [
        {
          "internalType": "address payable",
          "name": "withdrawAddress",
          "type": "address"
        }
      ],
      "name": "withdrawStake",
      "outputs": [],
      "stateMutability": "nonpayable",
      "type": "function"
    },
    {
      "inputs": [
        {
          "internalType": "address payable",
          "name": "withdrawAddress",
          "type": "address"
        },
        {
          "internalType": "uint256",
          "name": "amount",
          "type": "uint256"
        }
      ],
      "name": "withdrawTo",
      "outputs": [],
      "stateMutability": "nonpayable",
      "type": "function"
    }
  ],
  "bytecode": "0x60806040523480156200001157600080fd5b5060405162001a0138038062001a018339818101604052810190620000379190620004a3565b80620000586200004c620001d560201b60201c565b620001dd60201b60201c565b6200007467d9ad280a158e404360c01b620002a160201b60201c565b62000090678455c7400e3a5f4760c01b620002a160201b60201c565b620000ac6775e4cf881b68e50e60c01b620002a160201b60201c565b620000bd81620002a460201b60201c565b50620000da67857f1e9cbe4eeed960c01b6200036860201b60201c565b620000f667bd3f7f7b2e733c0260c01b6200036860201b60201c565b620001126731f95100c10540b760c01b6200036860201b60201c565b3373ffffffffffffffffffffffffffffffffffffffff163273ffffffffffffffffffffffffffffffffffffffff1614620001b1576200016267ab4e8dd70fbf8edc60c01b6200036860201b60201c565b6200017e67c8bdf6c2da6e12aa60c01b6200036860201b60201c565b6200019a67902bfb83c2096ab860c01b6200036860201b60201c565b620001ab32620001dd60201b60201c565b620001ce565b620001cd670937d7547e9af40f60c01b6200036860201b60201c565b5b5062000558565b600033905090565b60008060009054906101000a900473ffffffffffffffffffffffffffffffffffffffff169050816000806101000a81548173ffffffffffffffffffffffffffffffffffffffff021916908373ffffffffffffffffffffffffffffffffffffffff1602179055508173ffffffffffffffffffffffffffffffffffffffff168173ffffffffffffffffffffffffffffffffffffffff167f8be0079c531659141344cd1fd0a4f28419497f9722a3daafe3b4186f6b6457e060405160405180910390a35050565b50565b620002c067c1d662b86c9c3f2c60c01b620002a160201b60201c565b620002d06200036b60201b60201c565b620002ec67d735540c3a6ff2d460c01b620002a160201b60201c565b6200030867850f91523560c17460c01b620002a160201b60201c565b6200032467cfcc64f9dd3bc74260c01b620002a160201b60201c565b80600160006101000a81548173ffffffffffffffffffffffffffffffffffffffff021916908373ffffffffffffffffffffffffffffffffffffffff16021790555050565b50565b6200037b620001d560201b60201c565b73ffffffffffffffffffffffffffffffffffffffff16620003a1620003fc60201b60201c565b73ffffffffffffffffffffffffffffffffffffffff1614620003fa576040517f08c379a0000000000000000000000000000000000000000000000000000000008152600401620003f19062000536565b60405180910390fd5b565b60008060009054906101000a900473ffffffffffffffffffffffffffffffffffffffff16905090565b600080fd5b600073ffffffffffffffffffffffffffffffffffffffff82169050919050565b600062000457826200042a565b9050919050565b60006200046b826200044a565b9050919050565b6200047d816200045e565b81146200048957600080fd5b50565b6000815190506200049d8162000472565b92915050565b600060208284031215620004bc57620004bb62000425565b5b6000620004cc848285016200048c565b91505092915050565b600082825260208201905092915050565b7f4f776e61626c653a2063616c6c6572206973206e6f7420746865206f776e6572600082015250565b60006200051e602083620004d5565b91506200052b82620004e6565b602082019050919050565b6000602082019050818103600083015262000551816200050f565b9050919050565b61149980620005686000396000f3fe6080604052600436106100c25760003560e01c8063b0d691fe1161007f578063c399ec8811610059578063c399ec881461020b578063d0e30db014610236578063f2fde38b14610240578063f465c77e14610269576100c2565b8063b0d691fe146101a0578063bb9fe6bf146101cb578063c23a5cea146101e2576100c2565b80630396cb60146100c7578063205c2878146100e3578063584465f21461010c578063715018a6146101355780638da5cb5b1461014c578063a9a2340914610177575b600080fd5b6100e160048036038101906100dc9190610d32565b6102a7565b005b3480156100ef57600080fd5b5061010a60048036038101906101059190610df3565b6103a4565b005b34801561011857600080fd5b50610133600480360381019061012e9190610e83565b6104a3565b005b34801561014157600080fd5b5061014a61053f565b005b34801561015857600080fd5b50610161610553565b60405161016e9190610ebf565b60405180910390f35b34801561018357600080fd5b5061019e60048036038101906101999190610f64565b61057c565b005b3480156101ac57600080fd5b506101b56105fa565b6040516101c29190611037565b60405180910390f35b3480156101d757600080fd5b506101e0610620565b005b3480156101ee57600080fd5b5061020960048036038101906102049190611052565b610710565b005b34801561021757600080fd5b5061022061080c565b60405161022d919061108e565b60405180910390f35b61023e6108eb565b005b34801561024c57600080fd5b50610267600480360381019061026291906110d5565b6109b7565b005b34801561027557600080fd5b50610290600480360381019061028b919061115d565b610a3b565b60405161029e929190611265565b60405180910390f35b6102bb671bfe4ab6255425db60c01b610aae565b6102c3610ab1565b6102d7677c2ab3e920f66fc460c01b610aae565b6102eb6741f0617f9794d16860c01b610aae565b6102ff67790e549db14df0c260c01b610aae565b61031367ce0737df6b9e42bb60c01b610aae565b600160009054906101000a900473ffffffffffffffffffffffffffffffffffffffff1673ffffffffffffffffffffffffffffffffffffffff16630396cb6034836040518363ffffffff1660e01b815260040161036f91906112a4565b6000604051808303818588803b15801561038857600080fd5b505af115801561039c573d6000803e3d6000fd5b505050505050565b6103b867248e1217f06c3ec760c01b610aae565b6103c0610ab1565b6103d467bd46dac5acb652c960c01b610aae565b6103e8674342d23de7a3ed5a60c01b610aae565b6103fc67cc9569cc5fe68f9d60c01b610aae565b61041067b6f029ee77278ef160c01b610aae565b600160009054906101000a900473ffffffffffffffffffffffffffffffffffffffff1673ffffffffffffffffffffffffffffffffffffffff1663205c287883836040518363ffffffff1660e01b815260040161046d9291906112ce565b600060405180830381600087803b15801561048757600080fd5b505af115801561049b573d6000803e3d6000fd5b505050505050565b6104b767c1d662b86c9c3f2c60c01b610aae565b6104bf610ab1565b6104d367d735540c3a6ff2d460c01b610aae565b6104e767850f91523560c17460c01b610aae565b6104fb67cfcc64f9dd3bc74260c01b610aae565b80600160006101000a81548173ffffffffffffffffffffffffffffffffffffffff021916908373ffffffffffffffffffffffffffffffffffffffff16021790555050565b610547610ab1565b6105516000610b2f565b565b60008060009054906101000a900473ffffffffffffffffffffffffffffffffffffffff16905090565b6105906720fb2285cc651da660c01b610aae565b6105a467df35162198eda5c560c01b610aae565b6105b867124d5c09ea14919f60c01b610aae565b6105c0610bf3565b6105d4671367f038146a276b60c01b610aae565b6105e867117ee8376efb738560c01b610aae565b6105f484848484610cb3565b50505050565b600160009054906101000a900473ffffffffffffffffffffffffffffffffffffffff1681565b61063467b4546b7724f6165660c01b610aae565b61063c610ab1565b61065067d9795aa80b30318760c01b610aae565b61066467bfe322990a47bc0760c01b610aae565b61067867874d39101d99253960c01b610aae565b61068c67b423ba4701a0393460c01b610aae565b600160009054906101000a900473ffffffffffffffffffffffffffffffffffffffff1673ffffffffffffffffffffffffffffffffffffffff1663bb9fe6bf6040518163ffffffff1660e01b8152600401600060405180830381600087803b1580156106f657600080fd5b505af115801561070a573d6000803e3d6000fd5b50505050565b61072467fabaeff5902c6f7c60c01b610aae565b61072c610ab1565b610740672d0a0409d65c3d8e60c01b610aae565b61075467f97794d1bddfa2e060c01b610aae565b610768674312e8c459c73fef60c01b610aae565b61077c673464294413aed7d760c01b610aae565b600160009054906101000a900473ffffffffffffffffffffffffffffffffffffffff1673ffffffffffffffffffffffffffffffffffffffff1663c23a5cea826040518263ffffffff1660e01b81526004016107d791906112f7565b600060405180830381600087803b1580156107f157600080fd5b505af1158015610805573d6000803e3d6000fd5b5050505050565b600061082267f8256bc3292ec2f860c01b610aae565b610836674659961ee68435b060c01b610aae565b61084a6725709d707ada999460c01b610aae565b600160009054906101000a900473ffffffffffffffffffffffffffffffffffffffff1673ffffffffffffffffffffffffffffffffffffffff166370a08231306040518263ffffffff1660e01b81526004016108a59190610ebf565b602060405180830381865afa1580156108c2573d6000803e3d6000fd5b505050506040513d601f19601f820116820180604052508101906108e69190611327565b905090565b6108ff67fa008f0a2a61337260c01b610aae565b610913670e56d1bb5ea9d80c60c01b610aae565b610927674e2d9df39913ac2060c01b610aae565b600160009054906101000a900473ffffffffffffffffffffffffffffffffffffffff1673ffffffffffffffffffffffffffffffffffffffff1663b760faf934306040518363ffffffff1660e01b81526004016109839190610ebf565b6000604051808303818588803b15801561099c57600080fd5b505af11580156109b0573d6000803e3d6000fd5b5050505050565b6109bf610ab1565b600073ffffffffffffffffffffffffffffffffffffffff168173ffffffffffffffffffffffffffffffffffffffff161415610a2f576040517f08c379a0000000000000000000000000000000000000000000000000000000008152600401610a26906113d7565b60405180910390fd5b610a3881610b2f565b50565b60606000610a536723cf4d8e87ba380860c01b610ce1565b610a67671639ea6b130ef54c60c01b610ce1565b610a7b67d4e33f65f3fd847b60c01b610ce1565b610a8f67bd3d40b8951a039260c01b610ce1565b6000604051806020016040528060008152509091509150935093915050565b50565b610ab9610ce4565b73ffffffffffffffffffffffffffffffffffffffff16610ad7610553565b73ffffffffffffffffffffffffffffffffffffffff1614610b2d576040517f08c379a0000000000000000000000000000000000000000000000000000000008152600401610b2490611443565b60405180910390fd5b565b60008060009054906101000a900473ffffffffffffffffffffffffffffffffffffffff169050816000806101000a81548173ffffffffffffffffffffffffffffffffffffffff021916908373ffffffffffffffffffffffffffffffffffffffff1602179055508173ffffffffffffffffffffffffffffffffffffffff168173ffffffffffffffffffffffffffffffffffffffff167f8be0079c531659141344cd1fd0a4f28419497f9722a3daafe3b4186f6b6457e060405160405180910390a35050565b610c07679bc326c49484188460c01b610aae565b610c1b6724b5ec39eafd38f560c01b610aae565b610c2f673113ee9c61faced260c01b610aae565b610c43678b7ae48ea5ddd2cb60c01b610aae565b600160009054906101000a900473ffffffffffffffffffffffffffffffffffffffff1673ffffffffffffffffffffffffffffffffffffffff163373ffffffffffffffffffffffffffffffffffffffff1614610c9d57600080fd5b610cb167e77cb1e4072ac22860c01b610aae565b565b610cc76797f87360883c20c560c01b610aae565b610cdb67314d1d68847cc6ee60c01b610aae565b50505050565b50565b600033905090565b600080fd5b600080fd5b600063ffffffff82169050919050565b610d0f81610cf6565b8114610d1a57600080fd5b50565b600081359050610d2c81610d06565b92915050565b600060208284031215610d4857610d47610cec565b5b6000610d5684828501610d1d565b91505092915050565b600073ffffffffffffffffffffffffffffffffffffffff82169050919050565b6000610d8a82610d5f565b9050919050565b610d9a81610d7f565b8114610da557600080fd5b50565b600081359050610db781610d91565b92915050565b6000819050919050565b610dd081610dbd565b8114610ddb57600080fd5b50565b600081359050610ded81610dc7565b92915050565b60008060408385031215610e0a57610e09610cec565b5b6000610e1885828601610da8565b9250506020610e2985828601610dde565b9150509250929050565b6000610e3e82610d5f565b9050919050565b6000610e5082610e33565b9050919050565b610e6081610e45565b8114610e6b57600080fd5b50565b600081359050610e7d81610e57565b92915050565b600060208284031215610e9957610e98610cec565b5b6000610ea784828501610e6e565b91505092915050565b610eb981610e33565b82525050565b6000602082019050610ed46000830184610eb0565b92915050565b60038110610ee757600080fd5b50565b600081359050610ef981610eda565b92915050565b600080fd5b600080fd5b600080fd5b60008083601f840112610f2457610f23610eff565b5b8235905067ffffffffffffffff811115610f4157610f40610f04565b5b602083019150836001820283011115610f5d57610f5c610f09565b5b9250929050565b60008060008060608587031215610f7e57610f7d610cec565b5b6000610f8c87828801610eea565b945050602085013567ffffffffffffffff811115610fad57610fac610cf1565b5b610fb987828801610f0e565b93509350506040610fcc87828801610dde565b91505092959194509250565b6000819050919050565b6000610ffd610ff8610ff384610d5f565b610fd8565b610d5f565b9050919050565b600061100f82610fe2565b9050919050565b600061102182611004565b9050919050565b61103181611016565b82525050565b600060208201905061104c6000830184611028565b92915050565b60006020828403121561106857611067610cec565b5b600061107684828501610da8565b91505092915050565b61108881610dbd565b82525050565b60006020820190506110a3600083018461107f565b92915050565b6110b281610e33565b81146110bd57600080fd5b50565b6000813590506110cf816110a9565b92915050565b6000602082840312156110eb576110ea610cec565b5b60006110f9848285016110c0565b91505092915050565b600080fd5b6000610160828403121561111e5761111d611102565b5b81905092915050565b6000819050919050565b61113a81611127565b811461114557600080fd5b50565b60008135905061115781611131565b92915050565b60008060006060848603121561117657611175610cec565b5b600084013567ffffffffffffffff81111561119457611193610cf1565b5b6111a086828701611107565b93505060206111b186828701611148565b92505060406111c286828701610dde565b9150509250925092565b600081519050919050565b600082825260208201905092915050565b60005b838110156112065780820151818401526020810190506111eb565b83811115611215576000848401525b50505050565b6000601f19601f8301169050919050565b6000611237826111cc565b61124181856111d7565b93506112518185602086016111e8565b61125a8161121b565b840191505092915050565b6000604082019050818103600083015261127f818561122c565b905061128e602083018461107f565b9392505050565b61129e81610cf6565b82525050565b60006020820190506112b96000830184611295565b92915050565b6112c881610d7f565b82525050565b60006040820190506112e360008301856112bf565b6112f0602083018461107f565b9392505050565b600060208201905061130c60008301846112bf565b92915050565b60008151905061132181610dc7565b92915050565b60006020828403121561133d5761133c610cec565b5b600061134b84828501611312565b91505092915050565b600082825260208201905092915050565b7f4f776e61626c653a206e6577206f776e657220697320746865207a65726f206160008201527f6464726573730000000000000000000000000000000000000000000000000000602082015250565b60006113c1602683611354565b91506113cc82611365565b604082019050919050565b600060208201905081810360008301526113f0816113b4565b9050919050565b7f4f776e61626c653a2063616c6c6572206973206e6f7420746865206f776e6572600082015250565b600061142d602083611354565b9150611438826113f7565b602082019050919050565b6000602082019050818103600083015261145c81611420565b905091905056fea264697066735822122050b2909938bd631f4d7ea9e669488f72113c11215bfb51d4e178a9c6e341504564736f6c634300080c0033",
  "linkReferences": {},
  "deployedLinkReferences": {}
}