{
  "_format": "hh-sol-artifact-1",
  "contractName": "MaliciousAccount",
  "sourceName": "src/test/MaliciousAccount.sol",
  "abi": [
    {
      "inputs": [
        {
          "internalType": "contract IEntryPoint",
          "name": "_ep",
          "type": "address"
        }
      ],
      "stateMutability": "payable",
      "type": "constructor"
    },
    {
      "inputs": [
        {
          "components": [
            {
              "internalType": "address",
              "name": "sender",
              "type": "address"
            },
            {
              "internalType": "uint256",
              "name": "nonce",
              "type": "uint256"
            },
            {
              "internalType": "bytes",
              "name": "initCode",
              "type": "bytes"
            },
            {
              "internalType": "bytes",
              "name": "callData",
              "type": "bytes"
            },
            {
              "internalType": "uint256",
              "name": "callGasLimit",
              "type": "uint256"
            },
            {
              "internalType": "uint256",
              "name": "verificationGasLimit",
              "type": "uint256"
            },
            {
              "internalType": "uint256",
              "name": "preVerificationGas",
              "type": "uint256"
            },
            {
              "internalType": "uint256",
              "name": "maxFeePerGas",
              "type": "uint256"
            },
            {
              "internalType": "uint256",
              "name": "maxPriorityFeePerGas",
              "type": "uint256"
            },
            {
              "internalType": "bytes",
              "name": "paymasterAndData",
              "type": "bytes"
            },
            {
              "internalType": "bytes",
              "name": "signature",
              "type": "bytes"
            }
          ],
          "internalType": "struct UserOperation",
          "name": "userOp",
          "type": "tuple"
        },
        {
          "internalType": "bytes32",
          "name": "",
          "type": "bytes32"
        },
        {
          "internalType": "address",
          "name": "",
          "type": "address"
        },
        {
          "internalType": "uint256",
          "name": "missingAccountFunds",
          "type": "uint256"
        }
      ],
      "name": "validateUserOp",
      "outputs": [
        {
          "internalType": "uint256",
          "name": "sigTimeRange",
          "type": "uint256"
        }
      ],
      "stateMutability": "nonpayable",
      "type": "function"
    }
  ],
  "bytecode": "0x60806040526040516107ad3803806107ad83398181016040528101906100259190610117565b61003f674ad48cc57d39a3cf60c01b61009f60201b60201c565b61005967dfcc0067bd8283fc60c01b61009f60201b60201c565b806000806101000a81548173ffffffffffffffffffffffffffffffffffffffff021916908373ffffffffffffffffffffffffffffffffffffffff16021790555050610144565b50565b600080fd5b600073ffffffffffffffffffffffffffffffffffffffff82169050919050565b60006100d2826100a7565b9050919050565b60006100e4826100c7565b9050919050565b6100f4816100d9565b81146100ff57600080fd5b50565b600081519050610111816100eb565b92915050565b60006020828403121561012d5761012c6100a2565b5b600061013b84828501610102565b91505092915050565b61065a806101536000396000f3fe608060405234801561001057600080fd5b506004361061002b5760003560e01c80630825d1fc14610030575b600080fd5b61004a600480360381019061004591906103b7565b610060565b6040516100579190610449565b60405180910390f35b6000610076675a1f646aa9f0382660c01b6102bb565b61008a67eb5e54fe6516d1d360c01b6102bb565b61009e671e2c531922af96b560c01b6102bb565b60008054906101000a900473ffffffffffffffffffffffffffffffffffffffff1673ffffffffffffffffffffffffffffffffffffffff1663b760faf983306040518363ffffffff1660e01b81526004016100f89190610473565b6000604051808303818588803b15801561011157600080fd5b505af1158015610125573d6000803e3d6000fd5b505050505061013e67f9ffef343282695160c01b6102bb565b610152672b0fb0bbb049052860c01b6102bb565b60008560c001358660a00135876080013561016d91906104bd565b61017791906104bd565b905061018d679baad0f08448cd3c60c01b6102bb565b6101a167323b46f13da4561960c01b6102bb565b600081846101af9190610542565b90506101c567b1245c57ea09cf7d60c01b6102bb565b6101d9678af003975da6711060c01b6102bb565b6000876101000135826101ec9190610573565b9050610202679d01e13dc4400cf760c01b6102bb565b61021667221874380c8e827760c01b6102bb565b61022a67f5e520e449d2d9c160c01b6102bb565b87602001358114610270576040517f08c379a000000000000000000000000000000000000000000000000000000000815260040161026790610604565b60405180910390fd5b610284675f7c001cab97d1e060c01b6102bb565b61029867dce93810d4243c6360c01b6102bb565b6102ac675acef97a3d63c95860c01b6102bb565b60009350505050949350505050565b50565b600080fd5b600080fd5b600080fd5b600061016082840312156102e4576102e36102c8565b5b81905092915050565b6000819050919050565b610300816102ed565b811461030b57600080fd5b50565b60008135905061031d816102f7565b92915050565b600073ffffffffffffffffffffffffffffffffffffffff82169050919050565b600061034e82610323565b9050919050565b61035e81610343565b811461036957600080fd5b50565b60008135905061037b81610355565b92915050565b6000819050919050565b61039481610381565b811461039f57600080fd5b50565b6000813590506103b18161038b565b92915050565b600080600080608085870312156103d1576103d06102be565b5b600085013567ffffffffffffffff8111156103ef576103ee6102c3565b5b6103fb878288016102cd565b945050602061040c8782880161030e565b935050604061041d8782880161036c565b925050606061042e878288016103a2565b91505092959194509250565b61044381610381565b82525050565b600060208201905061045e600083018461043a565b92915050565b61046d81610343565b82525050565b60006020820190506104886000830184610464565b92915050565b7f4e487b7100000000000000000000000000000000000000000000000000000000600052601160045260246000fd5b60006104c882610381565b91506104d383610381565b9250827fffffffffffffffffffffffffffffffffffffffffffffffffffffffffffffffff038211156105085761050761048e565b5b828201905092915050565b7f4e487b7100000000000000000000000000000000000000000000000000000000600052601260045260246000fd5b600061054d82610381565b915061055883610381565b92508261056857610567610513565b5b828204905092915050565b600061057e82610381565b915061058983610381565b92508282101561059c5761059b61048e565b5b828203905092915050565b600082825260208201905092915050565b7f5265766572742061667465722066697273742076616c69646174696f6e000000600082015250565b60006105ee601d836105a7565b91506105f9826105b8565b602082019050919050565b6000602082019050818103600083015261061d816105e1565b905091905056fea26469706673582212200f3296f0fd1a674feada25fab09212085aa62ee01cbd7045f3c8390ee4ac1a3064736f6c634300080c0033",
  "linkReferences": {},
  "deployedLinkReferences": {}
}