{
  "address": "0xc710261Cc6Ba2540a4d728dd03700cA92c3eC9fA",
  "abi": [
    {
      "inputs": [],
      "name": "AccountAccessUnauthorized",
      "type": "error"
    },
    {
      "inputs": [],
      "name": "AccountInitializationFailed",
      "type": "error"
    },
    {
      "inputs": [],
      "name": "AddingInvalidGuardian",
      "type": "error"
    },
    {
      "inputs": [],
      "name": "AddingInvalidOwner",
      "type": "error"
    },
    {
      "inputs": [],
      "name": "AlreadySignedProposal",
      "type": "error"
    },
    {
      "inputs": [],
      "name": "CannotRemoveLastValidator",
      "type": "error"
    },
    {
      "inputs": [],
      "name": "ExecutionFailed",
      "type": "error"
    },
    {
      "inputs": [],
      "name": "FallbackInvalidCallType",
      "type": "error"
    },
    {
      "inputs": [
        {
          "internalType": "address",
          "name": "currentHook",
          "type": "address"
        }
      ],
      "name": "HookAlreadyInstalled",
      "type": "error"
    },
    {
      "inputs": [],
      "name": "HookPostCheckFailed",
      "type": "error"
    },
    {
      "inputs": [
        {
          "internalType": "address",
          "name": "caller",
          "type": "address"
        }
      ],
      "name": "InvalidFallbackCaller",
      "type": "error"
    },
    {
      "inputs": [
        {
          "internalType": "address",
          "name": "module",
          "type": "address"
        }
      ],
      "name": "InvalidModule",
      "type": "error"
    },
    {
      "inputs": [],
      "name": "InvalidProposal",
      "type": "error"
    },
    {
      "inputs": [],
      "name": "LinkedList_AlreadyInitialized",
      "type": "error"
    },
    {
      "inputs": [
        {
          "internalType": "address",
          "name": "entry",
          "type": "address"
        }
      ],
      "name": "LinkedList_EntryAlreadyInList",
      "type": "error"
    },
    {
      "inputs": [
        {
          "internalType": "address",
          "name": "entry",
          "type": "address"
        }
      ],
      "name": "LinkedList_InvalidEntry",
      "type": "error"
    },
    {
      "inputs": [],
      "name": "LinkedList_InvalidPage",
      "type": "error"
    },
    {
      "inputs": [
        {
          "internalType": "bytes4",
          "name": "selector",
          "type": "bytes4"
        }
      ],
      "name": "NoFallbackHandler",
      "type": "error"
    },
    {
      "inputs": [],
      "name": "NotEnoughGuardians",
      "type": "error"
    },
    {
      "inputs": [],
      "name": "OnlyGuardian",
      "type": "error"
    },
    {
      "inputs": [],
      "name": "OnlyOwnerOrGuardianOrSelf",
      "type": "error"
    },
    {
      "inputs": [],
      "name": "OnlyOwnerOrSelf",
      "type": "error"
    },
    {
      "inputs": [],
      "name": "OnlyProxy",
      "type": "error"
    },
    {
      "inputs": [],
      "name": "ProposalResolved",
      "type": "error"
    },
    {
      "inputs": [],
      "name": "ProposalTimelocked",
      "type": "error"
    },
    {
      "inputs": [],
      "name": "ProposalUnresolved",
      "type": "error"
    },
    {
      "inputs": [],
      "name": "RemovingInvalidGuardian",
      "type": "error"
    },
    {
      "inputs": [],
      "name": "RemovingInvalidOwner",
      "type": "error"
    },
    {
      "inputs": [
        {
          "internalType": "CallType",
          "name": "callType",
          "type": "bytes1"
        }
      ],
      "name": "UnsupportedCallType",
      "type": "error"
    },
    {
      "inputs": [
        {
          "internalType": "ExecType",
          "name": "execType",
          "type": "bytes1"
        }
      ],
      "name": "UnsupportedExecType",
      "type": "error"
    },
    {
      "inputs": [
        {
          "internalType": "uint256",
          "name": "moduleType",
          "type": "uint256"
        }
      ],
      "name": "UnsupportedModuleType",
      "type": "error"
    },
    {
      "inputs": [],
      "name": "WalletNeedsOwner",
      "type": "error"
    },
    {
      "anonymous": false,
      "inputs": [
        {
          "indexed": false,
          "internalType": "address",
          "name": "account",
          "type": "address"
        },
        {
          "indexed": false,
          "internalType": "address",
          "name": "newGuardian",
          "type": "address"
        }
      ],
      "name": "GuardianAdded",
      "type": "event"
    },
    {
      "anonymous": false,
      "inputs": [
        {
          "indexed": false,
          "internalType": "address",
          "name": "account",
          "type": "address"
        },
        {
          "indexed": false,
          "internalType": "address",
          "name": "removedGuardian",
          "type": "address"
        }
      ],
      "name": "GuardianRemoved",
      "type": "event"
    },
    {
      "anonymous": false,
      "inputs": [
        {
          "indexed": false,
          "internalType": "uint256",
          "name": "moduleTypeId",
          "type": "uint256"
        },
        {
          "indexed": false,
          "internalType": "address",
          "name": "module",
          "type": "address"
        }
      ],
      "name": "ModuleInstalled",
      "type": "event"
    },
    {
      "anonymous": false,
      "inputs": [
        {
          "indexed": false,
          "internalType": "uint256",
          "name": "moduleTypeId",
          "type": "uint256"
        },
        {
          "indexed": false,
          "internalType": "address",
          "name": "module",
          "type": "address"
        }
      ],
      "name": "ModuleUninstalled",
      "type": "event"
    },
    {
      "anonymous": false,
      "inputs": [
        {
          "indexed": false,
          "internalType": "address",
          "name": "account",
          "type": "address"
        },
        {
          "indexed": false,
          "internalType": "address",
          "name": "newOwner",
          "type": "address"
        }
      ],
      "name": "OwnerAdded",
      "type": "event"
    },
    {
      "anonymous": false,
      "inputs": [
        {
          "indexed": false,
          "internalType": "address",
          "name": "account",
          "type": "address"
        },
        {
          "indexed": false,
          "internalType": "address",
          "name": "removedOwner",
          "type": "address"
        }
      ],
      "name": "OwnerRemoved",
      "type": "event"
    },
    {
      "anonymous": false,
      "inputs": [
        {
          "indexed": false,
          "internalType": "address",
          "name": "account",
          "type": "address"
        },
        {
          "indexed": false,
          "internalType": "uint256",
          "name": "proposalId",
          "type": "uint256"
        },
        {
          "indexed": false,
          "internalType": "address",
          "name": "discardedBy",
          "type": "address"
        }
      ],
      "name": "ProposalDiscarded",
      "type": "event"
    },
    {
      "anonymous": false,
      "inputs": [
        {
          "indexed": false,
          "internalType": "address",
          "name": "account",
          "type": "address"
        },
        {
          "indexed": false,
          "internalType": "uint256",
          "name": "proposalId",
          "type": "uint256"
        },
        {
          "indexed": false,
          "internalType": "address",
          "name": "newOwnerProposed",
          "type": "address"
        },
        {
          "indexed": false,
          "internalType": "address",
          "name": "proposer",
          "type": "address"
        }
      ],
      "name": "ProposalSubmitted",
      "type": "event"
    },
    {
      "anonymous": false,
      "inputs": [
        {
          "indexed": false,
          "internalType": "address",
          "name": "account",
          "type": "address"
        },
        {
          "indexed": false,
          "internalType": "uint256",
          "name": "proposalId",
          "type": "uint256"
        },
        {
          "indexed": false,
          "internalType": "address",
          "name": "newOwnerProposed",
          "type": "address"
        },
        {
          "indexed": false,
          "internalType": "uint256",
          "name": "approvalCount",
          "type": "uint256"
        }
      ],
      "name": "QuorumNotReached",
      "type": "event"
    },
    {
      "anonymous": false,
      "inputs": [
        {
          "indexed": false,
          "internalType": "uint256",
          "name": "batchExecutionindex",
          "type": "uint256"
        },
        {
          "indexed": false,
          "internalType": "bytes",
          "name": "result",
          "type": "bytes"
        }
      ],
      "name": "TryExecuteUnsuccessful",
      "type": "event"
    },
    {
      "stateMutability": "payable",
      "type": "fallback"
    },
    {
      "inputs": [],
      "name": "accountId",
      "outputs": [
        {
          "internalType": "string",
          "name": "",
          "type": "string"
        }
      ],
      "stateMutability": "view",
      "type": "function"
    },
    {
      "inputs": [
        {
          "internalType": "address",
          "name": "_newGuardian",
          "type": "address"
        }
      ],
      "name": "addGuardian",
      "outputs": [],
      "stateMutability": "nonpayable",
      "type": "function"
    },
    {
      "inputs": [
        {
          "internalType": "address",
          "name": "_newOwner",
          "type": "address"
        }
      ],
      "name": "addOwner",
      "outputs": [],
      "stateMutability": "nonpayable",
      "type": "function"
    },
    {
      "inputs": [
        {
          "internalType": "uint256",
          "name": "_newTimelock",
          "type": "uint256"
        }
      ],
      "name": "changeProposalTimelock",
      "outputs": [],
      "stateMutability": "nonpayable",
      "type": "function"
    },
    {
      "inputs": [],
      "name": "discardCurrentProposal",
      "outputs": [],
      "stateMutability": "nonpayable",
      "type": "function"
    },
    {
      "inputs": [],
      "name": "entryPoint",
      "outputs": [
        {
          "internalType": "address",
          "name": "",
          "type": "address"
        }
      ],
      "stateMutability": "view",
      "type": "function"
    },
    {
      "inputs": [
        {
          "internalType": "ModeCode",
          "name": "mode",
          "type": "bytes32"
        },
        {
          "internalType": "bytes",
          "name": "executionCalldata",
          "type": "bytes"
        }
      ],
      "name": "execute",
      "outputs": [],
      "stateMutability": "payable",
      "type": "function"
    },
    {
      "inputs": [
        {
          "internalType": "ModeCode",
          "name": "mode",
          "type": "bytes32"
        },
        {
          "internalType": "bytes",
          "name": "executionCalldata",
          "type": "bytes"
        }
      ],
      "name": "executeFromExecutor",
      "outputs": [
        {
          "internalType": "bytes[]",
          "name": "returnData",
          "type": "bytes[]"
        }
      ],
      "stateMutability": "payable",
      "type": "function"
    },
    {
      "inputs": [
        {
          "components": [
            {
              "internalType": "address",
              "name": "sender",
              "type": "address"
            },
            {
              "internalType": "uint256",
              "name": "nonce",
              "type": "uint256"
            },
            {
              "internalType": "bytes",
              "name": "initCode",
              "type": "bytes"
            },
            {
              "internalType": "bytes",
              "name": "callData",
              "type": "bytes"
            },
            {
              "internalType": "bytes32",
              "name": "accountGasLimits",
              "type": "bytes32"
            },
            {
              "internalType": "uint256",
              "name": "preVerificationGas",
              "type": "uint256"
            },
            {
              "internalType": "bytes32",
              "name": "gasFees",
              "type": "bytes32"
            },
            {
              "internalType": "bytes",
              "name": "paymasterAndData",
              "type": "bytes"
            },
            {
              "internalType": "bytes",
              "name": "signature",
              "type": "bytes"
            }
          ],
          "internalType": "struct PackedUserOperation",
          "name": "userOp",
          "type": "tuple"
        }
      ],
      "name": "executeUserOp",
      "outputs": [],
      "stateMutability": "payable",
      "type": "function"
    },
    {
      "inputs": [
        {
          "internalType": "bytes4",
          "name": "functionSig",
          "type": "bytes4"
        }
      ],
      "name": "getActiveFallbackHandler",
      "outputs": [
        {
          "components": [
            {
              "internalType": "address",
              "name": "handler",
              "type": "address"
            },
            {
              "internalType": "CallType",
              "name": "calltype",
              "type": "bytes1"
            },
            {
              "internalType": "address[]",
              "name": "allowedCallers",
              "type": "address[]"
            }
          ],
          "internalType": "struct ModuleManager.FallbackHandler",
          "name": "",
          "type": "tuple"
        }
      ],
      "stateMutability": "view",
      "type": "function"
    },
    {
      "inputs": [],
      "name": "getActiveHook",
      "outputs": [
        {
          "internalType": "address",
          "name": "hook",
          "type": "address"
        }
      ],
      "stateMutability": "view",
      "type": "function"
    },
    {
      "inputs": [
        {
          "internalType": "address",
          "name": "cursor",
          "type": "address"
        },
        {
          "internalType": "uint256",
          "name": "size",
          "type": "uint256"
        }
      ],
      "name": "getExecutorsPaginated",
      "outputs": [
        {
          "internalType": "address[]",
          "name": "array",
          "type": "address[]"
        },
        {
          "internalType": "address",
          "name": "next",
          "type": "address"
        }
      ],
      "stateMutability": "view",
      "type": "function"
    },
    {
      "inputs": [
        {
          "internalType": "uint256",
          "name": "_proposalId",
          "type": "uint256"
        }
      ],
      "name": "getProposal",
      "outputs": [
        {
          "internalType": "address",
          "name": "ownerProposed_",
          "type": "address"
        },
        {
          "internalType": "uint256",
          "name": "approvalCount_",
          "type": "uint256"
        },
        {
          "internalType": "address[]",
          "name": "guardiansApproved_",
          "type": "address[]"
        },
        {
          "internalType": "bool",
          "name": "resolved_",
          "type": "bool"
        },
        {
          "internalType": "uint256",
          "name": "proposedAt_",
          "type": "uint256"
        }
      ],
      "stateMutability": "view",
      "type": "function"
    },
    {
      "inputs": [
        {
          "internalType": "address",
          "name": "cursor",
          "type": "address"
        },
        {
          "internalType": "uint256",
          "name": "size",
          "type": "uint256"
        }
      ],
      "name": "getValidatorPaginated",
      "outputs": [
        {
          "internalType": "address[]",
          "name": "array",
          "type": "address[]"
        },
        {
          "internalType": "address",
          "name": "next",
          "type": "address"
        }
      ],
      "stateMutability": "view",
      "type": "function"
    },
    {
      "inputs": [],
      "name": "guardianCosign",
      "outputs": [],
      "stateMutability": "nonpayable",
      "type": "function"
    },
    {
      "inputs": [],
      "name": "guardianCount",
      "outputs": [
        {
          "internalType": "uint256",
          "name": "",
          "type": "uint256"
        }
      ],
      "stateMutability": "view",
      "type": "function"
    },
    {
      "inputs": [
        {
          "internalType": "address",
          "name": "_newOwner",
          "type": "address"
        }
      ],
      "name": "guardianPropose",
      "outputs": [],
      "stateMutability": "nonpayable",
      "type": "function"
    },
    {
      "inputs": [],
      "name": "implementation",
      "outputs": [
        {
          "internalType": "address",
          "name": "",
          "type": "address"
        }
      ],
      "stateMutability": "view",
      "type": "function"
    },
    {
      "inputs": [
        {
          "internalType": "bytes",
          "name": "data",
          "type": "bytes"
        }
      ],
      "name": "initializeAccount",
      "outputs": [],
      "stateMutability": "payable",
      "type": "function"
    },
    {
      "inputs": [
        {
          "internalType": "uint256",
          "name": "moduleTypeId",
          "type": "uint256"
        },
        {
          "internalType": "address",
          "name": "module",
          "type": "address"
        },
        {
          "internalType": "bytes",
          "name": "initData",
          "type": "bytes"
        }
      ],
      "name": "installModule",
      "outputs": [],
      "stateMutability": "payable",
      "type": "function"
    },
    {
      "inputs": [
        {
          "internalType": "address",
          "name": "_address",
          "type": "address"
        }
      ],
      "name": "isGuardian",
      "outputs": [
        {
          "internalType": "bool",
          "name": "",
          "type": "bool"
        }
      ],
      "stateMutability": "view",
      "type": "function"
    },
    {
      "inputs": [
        {
          "internalType": "uint256",
          "name": "moduleTypeId",
          "type": "uint256"
        },
        {
          "internalType": "address",
          "name": "module",
          "type": "address"
        },
        {
          "internalType": "bytes",
          "name": "additionalContext",
          "type": "bytes"
        }
      ],
      "name": "isModuleInstalled",
      "outputs": [
        {
          "internalType": "bool",
          "name": "",
          "type": "bool"
        }
      ],
      "stateMutability": "view",
      "type": "function"
    },
    {
      "inputs": [
        {
          "internalType": "address",
          "name": "_address",
          "type": "address"
        }
      ],
      "name": "isOwner",
      "outputs": [
        {
          "internalType": "bool",
          "name": "",
          "type": "bool"
        }
      ],
      "stateMutability": "view",
      "type": "function"
    },
    {
      "inputs": [
        {
          "internalType": "bytes32",
          "name": "hash",
          "type": "bytes32"
        },
        {
          "internalType": "bytes",
          "name": "data",
          "type": "bytes"
        }
      ],
      "name": "isValidSignature",
      "outputs": [
        {
          "internalType": "bytes4",
          "name": "",
          "type": "bytes4"
        }
      ],
      "stateMutability": "view",
      "type": "function"
    },
    {
      "inputs": [],
      "name": "ownerCount",
      "outputs": [
        {
          "internalType": "uint256",
          "name": "",
          "type": "uint256"
        }
      ],
      "stateMutability": "view",
      "type": "function"
    },
    {
      "inputs": [],
      "name": "proposalId",
      "outputs": [
        {
          "internalType": "uint256",
          "name": "",
          "type": "uint256"
        }
      ],
      "stateMutability": "view",
      "type": "function"
    },
    {
      "inputs": [],
      "name": "proposalTimelock",
      "outputs": [
        {
          "internalType": "uint256",
          "name": "",
          "type": "uint256"
        }
      ],
      "stateMutability": "view",
      "type": "function"
    },
    {
      "inputs": [
        {
          "internalType": "address",
          "name": "_guardian",
          "type": "address"
        }
      ],
      "name": "removeGuardian",
      "outputs": [],
      "stateMutability": "nonpayable",
      "type": "function"
    },
    {
      "inputs": [
        {
          "internalType": "address",
          "name": "_owner",
          "type": "address"
        }
      ],
      "name": "removeOwner",
      "outputs": [],
      "stateMutability": "nonpayable",
      "type": "function"
    },
    {
      "inputs": [
        {
          "internalType": "ModeCode",
          "name": "mode",
          "type": "bytes32"
        }
      ],
      "name": "supportsExecutionMode",
      "outputs": [
        {
          "internalType": "bool",
          "name": "isSupported",
          "type": "bool"
        }
      ],
      "stateMutability": "view",
      "type": "function"
    },
    {
      "inputs": [
        {
          "internalType": "uint256",
          "name": "modulTypeId",
          "type": "uint256"
        }
      ],
      "name": "supportsModule",
      "outputs": [
        {
          "internalType": "bool",
          "name": "",
          "type": "bool"
        }
      ],
      "stateMutability": "view",
      "type": "function"
    },
    {
      "inputs": [
        {
          "internalType": "uint256",
          "name": "moduleTypeId",
          "type": "uint256"
        },
        {
          "internalType": "address",
          "name": "module",
          "type": "address"
        },
        {
          "internalType": "bytes",
          "name": "deInitData",
          "type": "bytes"
        }
      ],
      "name": "uninstallModule",
      "outputs": [],
      "stateMutability": "payable",
      "type": "function"
    },
    {
      "inputs": [
        {
          "components": [
            {
              "internalType": "address",
              "name": "sender",
              "type": "address"
            },
            {
              "internalType": "uint256",
              "name": "nonce",
              "type": "uint256"
            },
            {
              "internalType": "bytes",
              "name": "initCode",
              "type": "bytes"
            },
            {
              "internalType": "bytes",
              "name": "callData",
              "type": "bytes"
            },
            {
              "internalType": "bytes32",
              "name": "accountGasLimits",
              "type": "bytes32"
            },
            {
              "internalType": "uint256",
              "name": "preVerificationGas",
              "type": "uint256"
            },
            {
              "internalType": "bytes32",
              "name": "gasFees",
              "type": "bytes32"
            },
            {
              "internalType": "bytes",
              "name": "paymasterAndData",
              "type": "bytes"
            },
            {
              "internalType": "bytes",
              "name": "signature",
              "type": "bytes"
            }
          ],
          "internalType": "struct PackedUserOperation",
          "name": "userOp",
          "type": "tuple"
        },
        {
          "internalType": "bytes32",
          "name": "userOpHash",
          "type": "bytes32"
        },
        {
          "internalType": "uint256",
          "name": "missingAccountFunds",
          "type": "uint256"
        }
      ],
      "name": "validateUserOp",
      "outputs": [
        {
          "internalType": "uint256",
          "name": "validSignature",
          "type": "uint256"
        }
      ],
      "stateMutability": "payable",
      "type": "function"
    },
    {
      "stateMutability": "payable",
      "type": "receive"
    }
  ],
  "transactionHash": "0x924cd70d3c7c6982b4439ef85ebd8d104f686e0cfe4f37fda65a169410b73eed",
  "args": [],
  "numDeployments": 1,
  "solcInputHash": "9b2e263def7f73db209e399f208d48db",
  "bytecode": "0x60a06040523060805234801561001457600080fd5b506080516140ed610037600039600081816104ca0152610d7401526140ed6000f3fe6080604052600436106101f25760003560e01c80637dcab4ce1161010d578063bf57159b116100a0578063d691c9641161006f578063d691c964146106de578063e9ae5c53146106fe578063ea5f61d014610711578063eac9b20d14610731578063f2dc691d1461075e576101f9565b8063bf57159b14610662578063c3db883814610678578063c7f758a81461068d578063d03c7914146106be576101f9565b8063a1c0d459116100dc578063a1c0d459146105ec578063a526d83b1461060c578063a71763a81461062c578063b0d691fe1461063f576101f9565b80637dcab4ce1461053f578063855713681461055f5780639517e29f1461058d5780639cfd7cff146105a0576101f9565b80632f54bf6e116101855780635c60da1b116101545780635c60da1b146104b85780637065cb48146104ec578063714041561461050c57806372aea6541461052c576101f9565b80632f54bf6e1461045a57806341c9ddff1461047a5780634b6a14191461048f57806354387ad7146104a2576101f9565b80631626ba7e116101c15780631626ba7e146103d8578063173825d91461041157806319822f7c146104315780632dfca44514610444576101f9565b80630a664dba146103325780630c68ba21146103645780630db0262214610394578063112d3a7d146103b8576101f9565b366101f957005b61020e6000356001600160e01b03191661077e565b6000610218610831565b600080356001600160e01b03191681526002919091016020526040902080549091506001600160a01b03811690600160a01b900460f81b8161028057604051632464e76d60e11b81526001600160e01b03196000351660048201526024015b60405180910390fd5b61028e81607f60f91b610855565b156102e25760408051368101909152366000823760408051601481019091523360601b90526000803660140183865afa90506102d03d60408051918201905290565b3d6000823e816102de573d81fd5b3d81f35b6102ed816000610855565b156103305760408051368101909152366000823760408051601481019091523360601b9052600080366014018382875af190506102d03d60408051918201905290565b005b34801561033e57600080fd5b5061034761086c565b6040516001600160a01b0390911681526020015b60405180910390f35b34801561037057600080fd5b5061038461037f366004613627565b610889565b604051901515815260200161035b565b3480156103a057600080fd5b506103aa60005481565b60405190815260200161035b565b3480156103c457600080fd5b506103846103d3366004613685565b6108a7565b3480156103e457600080fd5b506103f86103f33660046136e0565b61090c565b6040516001600160e01b0319909116815260200161035b565b34801561041d57600080fd5b5061033061042c366004613627565b6109e2565b6103aa61043f366004613744565b610aa9565b34801561045057600080fd5b506103aa60025481565b34801561046657600080fd5b50610384610475366004613627565b610b8f565b34801561048657600080fd5b50610330610bad565b61033061049d366004613791565b610d6a565b3480156104ae57600080fd5b506103aa60015481565b3480156104c457600080fd5b506103477f000000000000000000000000000000000000000000000000000000000000000081565b3480156104f857600080fd5b50610330610507366004613627565b610e5e565b34801561051857600080fd5b50610330610527366004613627565b610f1c565b61033061053a3660046137d2565b610fb9565b34801561054b57600080fd5b5061033061055a366004613627565b611099565b34801561056b57600080fd5b5061057f61057a366004613806565b61125e565b60405161035b929190613877565b61033061059b366004613685565b611285565b3480156105ac57600080fd5b50604080518082018252601e81527f657468657273706f7477616c6c65742e6d6f64756c61722e76312e302e3000006020820152905161035b91906138f1565b3480156105f857600080fd5b50610330610607366004613904565b611374565b34801561061857600080fd5b50610330610627366004613627565b6113a9565b61033061063a366004613685565b611467565b34801561064b57600080fd5b506f71727de22e5e9d8baf0edac6f37da032610347565b34801561066e57600080fd5b506103aa60035481565b34801561068457600080fd5b50610330611530565b34801561069957600080fd5b506106ad6106a8366004613904565b611673565b60405161035b95949392919061391d565b3480156106ca57600080fd5b506103846106d9366004613904565b61177d565b6106f16106ec3660046136e0565b61181c565b60405161035b9190613958565b61033061070c3660046136e0565b611e73565b34801561071d57600080fd5b5061057f61072c366004613806565b6122e8565b34801561073d57600080fd5b5061075161074c3660046139d2565b612305565b60405161035b91906139ef565b34801561076a57600080fd5b50610384610779366004613904565b6123dd565b6000610788610831565b6001600160e01b0319831660009081526002919091016020908152604091829020600101805483518184028101840190945280845290918301828280156107f857602002820191906000526020600020905b81546001600160a01b031681526001909101906020018083116107da575b50505050509050610809813361242c565b151560000361082d576040516332cf492b60e11b8152336004820152602401610277565b5050565b7ff88ce1fdb7fb1cbd3282e49729100fa3f2d6ee9f797961fe4fb1871cea89ea0290565b6001600160f81b0319828116908216145b92915050565b60006108846000805160206140988339815191525490565b905090565b6001600160a01b031660009081526005602052604090205460ff1690565b6000600185036108c1576108ba84612439565b9050610904565b600285036108d2576108ba84612457565b600385036108ef576108ba6108e9838501856139d2565b85612471565b60048503610900576108ba846124af565b5060005b949350505050565b60008061091c6014828587613a6d565b61092591613a97565b60601c905061093381612439565b61095b57604051635c93ff2f60e11b81526001600160a01b0382166004820152602401610277565b6001600160a01b03811663f551e2ee3387610979876014818b613a6d565b6040518563ffffffff1660e01b81526004016109989493929190613af3565b602060405180830381865afa1580156109b5573d6000803e3d6000fd5b505050506040513d601f19601f820116820180604052508101906109d99190613b25565b95945050505050565b6109eb33610b8f565b806109f557503330145b610a12576040516311d9f09160e01b815260040160405180910390fd5b610a1b81610b8f565b610a385760405163f1369ccb60e01b815260040160405180910390fd5b600160005411610a5b5760405163021870b960e11b815260040160405180910390fd5b610a64816124e1565b604080513081526001600160a01b03831660208201527fe594d081b4382713733fe631966432c9cea5199afb2db5c3c1931f9f9300367991015b60405180910390a150565b6000336f71727de22e5e9d8baf0edac6f37da03214610adb57604051635629665f60e11b815260040160405180910390fd5b816020850135606081901c90610af082612439565b610aff57600193505050610b75565b604051639700320360e01b81526001600160a01b03831690639700320390610b2d908a908a90600401613b87565b6020604051808303816000875af1158015610b4c573d6000803e3d6000fd5b505050506040513d601f19601f82011682018060405250810190610b709190613c86565b935050505b8015610b875760003860003884335af1505b509392505050565b6001600160a01b031660009081526004602052604090205460ff1690565b610bb633610889565b610bd357604051636570ecab60e11b815260040160405180910390fd5b600254600081815260066020526040812090829003610c0557604051631dc0650160e31b815260040160405180910390fd5b610c0e82612516565b15610c2c576040516320181a3560e21b815260040160405180910390fd5b610c4e600254600090815260066020526040902054600160a01b900460ff1690565b15610c6c57604051638b19dbcb60e01b815260040160405180910390fd5b60008281526006602090815260408220600180820180549182018155845291832090910180546001600160a01b03191633179055838252600201805491610cb283613cb5565b909155505080546001600160a01b0316610ccb8361258d565b15610cfd576000838152600660205260409020805460ff60a01b1916600160a01b179055610cf8816125c7565b505050565b6000838152600660209081526040918290206002015482513081529182018690526001600160a01b0384169282019290925260608101919091527f7afa94f51443879f537b9be4f09d5d734c2c233b788d2f6af6565add34706bab906080015b60405180910390a1505050565b6001600160a01b037f0000000000000000000000000000000000000000000000000000000000000000163003610db3576040516308e3edd160e41b815260040160405180910390fd5b610dbb6125f7565b60008080610dcb84860186613d91565b925092509250610dda836125c7565b6000826001600160a01b031682604051610df49190613df2565b600060405180830381855af49150503d8060008114610e2f576040519150601f19603f3d011682016040523d82523d6000602084013e610e34565b606091505b5050905080610e5657604051631b79777760e11b815260040160405180910390fd5b505050505050565b610e6733610b8f565b80610e7157503330145b610e8e576040516311d9f09160e01b815260040160405180910390fd5b6001600160a01b0381161580610ea85750610ea881610889565b80610eb75750610eb781610b8f565b15610ed557604051631a1aefc560e21b815260040160405180910390fd5b610ede816125c7565b604080513081526001600160a01b03831660208201527fc82bdbbf677a2462f2a7e22e4ba9abd209496b69cd7b868b3b1d28f76e09a40a9101610a9e565b610f2533610b8f565b80610f2f57503330145b610f4c576040516311d9f09160e01b815260040160405180910390fd5b610f5581610889565b610f725760405163985f453960e01b815260040160405180910390fd5b610f7b8161261b565b604080513081526001600160a01b03831660208201527fee943cdb81826d5909c559c6b1ae6908fcaf2dbc16c4b730346736b486283e8b9101610a9e565b336f71727de22e5e9d8baf0edac6f37da0321480610fd657503330145b610ff357604051635629665f60e11b815260040160405180910390fd5b3660006110036060840184613e0e565b611011916004908290613a6d565b915091506000306001600160a01b03168383604051611031929190613e54565b600060405180830381855af49150503d806000811461106c576040519150601f19603f3d011682016040523d82523d6000602084013e611071565b606091505b505090508061109357604051632b3f6d1160e21b815260040160405180910390fd5b50505050565b6110a233610889565b6110bf57604051636570ecab60e11b815260040160405180910390fd5b6001600160a01b03811615806110d957506110d981610889565b806110e857506110e881610b8f565b1561110657604051631a1aefc560e21b815260040160405180910390fd5b6003600154101561112a57604051636bb07db960e11b815260040160405180910390fd5b600254600090815260066020526040902060018101541580159061115757508054600160a01b900460ff16155b1561117557604051639fa6dc5760e01b815260040160405180910390fd5b600060025460016111869190613e64565b6000818152600660209081526040822080546001600160a01b0388166001600160a01b03199182161782556001808301805491820181558552928420909201805490921633179091558282526002018054929350906111e483613cb5565b9091555050600081815260066020908152604091829020805460ff60a01b1916815542600390910155600283905581513081529081018390526001600160a01b038516918101919091523360608201527f9fb4a8d051aad8866705f4d52eb05a29939e15ad43dd4aab82cf31806759eac390608001610d5d565b606060008061126b610831565b905061127881868661267c565b92509250505b9250929050565b336f71727de22e5e9d8baf0edac6f37da03214806112a257503330145b6112bf57604051635629665f60e11b815260040160405180910390fd5b600184036112d7576112d2838383612828565b61132c565b600284036112ea576112d28383836128a4565b600384036112fd576112d28383836128bd565b60048403611310576112d2838383612aee565b60405163041c38b360e41b815260048101859052602401610277565b604080518581526001600160a01b03851660208201527fd21d0b289f126c4b473ea641963e766833c2f13866e4ff480abd787c100ef12391015b60405180910390a150505050565b61137d33610b8f565b8061138757503330145b6113a4576040516311d9f09160e01b815260040160405180910390fd5b600355565b6113b233610b8f565b806113bc57503330145b6113d9576040516311d9f09160e01b815260040160405180910390fd5b6001600160a01b03811615806113f357506113f381610889565b80611402575061140281610b8f565b156114205760405163053bd11560e31b815260040160405180910390fd5b61142981612b51565b604080513081526001600160a01b03831660208201527fbc3292102fa77e083913064b282926717cdfaede4d35f553d66366c0a3da755a9101610a9e565b336f71727de22e5e9d8baf0edac6f37da032148061148457503330145b6114a157604051635629665f60e11b815260040160405180910390fd5b600184036114b9576114b4838383612b83565b6114f2565b600284036114cc576114b4838383612c14565b600384036114df576114b4838383612c32565b60048403611310576114b4838383612f0f565b604080518581526001600160a01b03851660208201527f341347516a9de374859dfda710fa4828b2d48cb57d4fbe4c1149612b8e02276e9101611366565b61153933610b8f565b80611548575061154833610889565b8061155257503330145b61156f576040516302d8be6160e21b815260040160405180910390fd5b60025460009081526006602052604081206003549091901561159357600354611598565b620151805b90506115bc600254600090815260066020526040902054600160a01b900460ff1690565b156115da57604051638b19dbcb60e01b815260040160405180910390fd5b60006115e533610889565b90508080156116035750428284600301546116009190613e64565b10155b156116215760405163ae18e9c760e01b815260040160405180910390fd5b825460ff60a01b1916600160a01b17835560025460408051308152602081019290925233908201527faf7f1090397448391393dc134b45d6d20e79a9d2a8f5a82fb42d1514a55ecbf990606001610d5d565b60008060608180851580611688575060025486115b156116a657604051631dc0650160e31b815260040160405180910390fd5b6000868152600660209081526040808320815160a08101835281546001600160a01b0381168252600160a01b900460ff1615158185015260018201805484518187028101870186528181529295939486019383018282801561173157602002820191906000526020600020905b81546001600160a01b03168152600190910190602001808311611713575b5050505050815260200160028201548152602001600382015481525050905080600001518160600151826040015183602001518460800151955095509550955095505091939590929450565b600081600881901b61179382600160f81b610855565b156117a157600192506117e4565b6117ac826000610855565b156117ba57600192506117e4565b6117cc826001600160f81b0319610855565b156117da57600192506117e4565b5060009392505050565b6117ef816000610855565b156117fd5760019250611815565b61180b81600160f81b610855565b156117da57600192505b5050919050565b60606000611828610831565b60010190506118378133612f8b565b61185657604051635c93ff2f60e11b8152336004820152602401610277565b600061186e6000805160206140988339815191525490565b90506001600160a01b038116611b2e5785600881901b61189282600160f81b610855565b1561190157863587016020810190356118ac836000610855565b156118c2576118bb8282612fc5565b96506118fa565b6118d083600160f81b610855565b156118df576118bb828261309d565b826040516308c3ee0360e11b81526004016102779190613e77565b5050611b27565b61190c826000610855565b15611a5a576000803660006119218b8b6131ca565b6040805160018082528183019092529498509296509094509250816020015b606081526020019060019003908161194057905050985060006119638682610855565b15611997576119748585858561321b565b8a60008151811061198757611987613e8c565b6020026020010181905250611a50565b6119a586600160f81b610855565b15611a35576119b685858585613251565b8b6000815181106119c9576119c9613e8c565b6020908102919091010152905080611a30577fe723f28f104e46b47fd3531f3608374ac226bcf3ddda334a23a266453e0efdb760008b600081518110611a1157611a11613e8c565b6020026020010151604051611a27929190613ea2565b60405180910390a15b611a50565b856040516308c3ee0360e11b81526004016102779190613e77565b5050505050611b27565b611a6c826001600160f81b0319610855565b15611b0c576000611a80601482898b613a6d565b611a8991613a97565b60601c9050366000611a9e896014818d613a6d565b9092509050611aae846000610855565b15611ac457611abe838383613282565b50611b04565b611ad284600160f81b610855565b15611ae957611ae28383836132b6565b5050611b04565b836040516308c3ee0360e11b81526004016102779190613e77565b505050611b27565b81604051632e5bf3f960e21b81526004016102779190613e77565b5050611e6a565b604051631057c74d60e11b81526000906001600160a01b038316906320af8e9a90611b6190339085903690600401613ebb565b6000604051808303816000875af1158015611b80573d6000803e3d6000fd5b505050506040513d6000823e601f3d908101601f19168201604052611ba89190810190613ee0565b905086600881901b611bbe82600160f81b610855565b15611c125787358801602081019035611bd8836000610855565b15611bee57611be78282612fc5565b9750611c0b565b611bfc83600160f81b610855565b156118df57611be7828261309d565b5050611dda565b611c1d826000610855565b15611d4b57600080366000611c328c8c6131ca565b6040805160018082528183019092529498509296509094509250816020015b6060815260200190600190039081611c515790505099506000611c748682610855565b15611ca857611c858585858561321b565b8b600081518110611c9857611c98613e8c565b6020026020010181905250611d41565b611cb686600160f81b610855565b15611a3557611cc785858585613251565b8c600081518110611cda57611cda613e8c565b6020908102919091010152905080611d41577fe723f28f104e46b47fd3531f3608374ac226bcf3ddda334a23a266453e0efdb760008c600081518110611d2257611d22613e8c565b6020026020010151604051611d38929190613ea2565b60405180910390a15b5050505050611dda565b611d5d826001600160f81b0319610855565b15611b0c576000611d716014828a8c613a6d565b611d7a91613a97565b60601c9050366000611d8f8a6014818e613a6d565b9092509050611d9f846000610855565b15611db557611daf838383613282565b50611dd6565b611dc384600160f81b610855565b15611ae957611dd38383836132b6565b50505b5050505b5050604051630b9dfbed60e11b81526001600160a01b0383169063173bf7da90611e089084906004016138f1565b6020604051808303816000875af1158015611e27573d6000803e3d6000fd5b505050506040513d601f19601f82011682018060405250810190611e4b9190613f4d565b611e685760405163546b3e6360e01b815260040160405180910390fd5b505b50509392505050565b336f71727de22e5e9d8baf0edac6f37da0321480611e9057503330145b611ead57604051635629665f60e11b815260040160405180910390fd5b6000611ec56000805160206140988339815191525490565b90506001600160a01b0381166120695783600881901b611ee982600160f81b610855565b15611f3c5784358501602081019035611f03836000610855565b15611f1857611f128282612fc5565b50611f35565b611f2683600160f81b610855565b156118df57611f12828261309d565b5050612062565b611f47826000610855565b15611fd357600080366000611f5c89896131ca565b9350935093509350611f7285600060f81b610855565b15611f8957611f838484848461321b565b50611fca565b611f9785600160f81b610855565b15611faf57611fa884848484613251565b5050611fca565b846040516308c3ee0360e11b81526004016102779190613e77565b50505050612062565b611fe5826001600160f81b0319610855565b15611b0c576000611ff96014828789613a6d565b61200291613a97565b60601c9050366000612017876014818b613a6d565b9092509050612027846000610855565b1561203d57612037838383613282565b5061205e565b61204b84600160f81b610855565b15611ae95761205b8383836132b6565b50505b5050505b5050611093565b604051631057c74d60e11b81526000906001600160a01b038316906320af8e9a9061209c90339085903690600401613ebb565b6000604051808303816000875af11580156120bb573d6000803e3d6000fd5b505050506040513d6000823e601f3d908101601f191682016040526120e39190810190613ee0565b905084600881901b6120f982600160f81b610855565b1561214c5785358601602081019035612113836000610855565b15612128576121228282612fc5565b50612145565b61213683600160f81b610855565b156118df57612122828261309d565b5050612253565b612157826000610855565b156121c45760008036600061216c8a8a6131ca565b935093509350935061218285600060f81b610855565b15612199576121938484848461321b565b506121bb565b6121a785600160f81b610855565b15611faf576121b884848484613251565b50505b50505050612253565b6121d6826001600160f81b0319610855565b15611b0c5760006121ea601482888a613a6d565b6121f391613a97565b60601c9050366000612208886014818c613a6d565b9092509050612218846000610855565b1561222e57612228838383613282565b5061224f565b61223c84600160f81b610855565b15611ae95761224c8383836132b6565b50505b5050505b5050604051630b9dfbed60e11b81526001600160a01b0383169063173bf7da906122819084906004016138f1565b6020604051808303816000875af11580156122a0573d6000803e3d6000fd5b505050506040513d601f19601f820116820180604052508101906122c49190613f4d565b6122e15760405163546b3e6360e01b815260040160405180910390fd5b5050505050565b60606000806122f5610831565b600101905061127881868661267c565b60408051606080820183526000808352602083015291810191909152612329610831565b6001600160e01b0319831660009081526002919091016020908152604091829020825160608101845281546001600160a01b0381168252600160a01b900460f81b6001600160f81b03191681840152600182018054855181860281018601875281815292959394938601938301828280156123cd57602002820191906000526020600020905b81546001600160a01b031681526001909101906020018083116123af575b5050505050815250509050919050565b6000600182036123ef57506001919050565b600282036123ff57506001919050565b6003820361240f57506001919050565b6004820361241f57506001919050565b506000919050565b919050565b6000806109d984846132e5565b600080612444610831565b90506124508184612f8b565b9392505050565b600080612462610831565b60010190506124508184612f8b565b60008061247c610831565b6001600160e01b0319949094166000908152600290940160205250506040909120546001600160a01b0390811691161490565b6000816001600160a01b03166124d16000805160206140988339815191525490565b6001600160a01b03161492915050565b6001600160a01b0381166000908152600460205260408120805460ff191690558054908061250e83613f6f565b919050555050565b6000805b60008381526006602052604090206001015481101561258457600083815260066020526040902060010180543391908390811061255957612559613e8c565b6000918252602090912001546001600160a01b03160361257c5750600192915050565b60010161251a565b50600092915050565b6001546000828152600660205260408120600201549091610258916125b5906103e890613f86565b6125bf9190613f9d565b101592915050565b6001600160a01b0381166000908152600460205260408120805460ff191660011790558054908061250e83613cb5565b6000612601610831565b905061260f8160010161334b565b6126188161334b565b50565b6001600160a01b0381166000908152600560205260408120805460ff19169055600180549161264983613f6f565b9190505550612670600254600090815260066020526040902054600160a01b900460ff1690565b61261857612618611530565b606060006001600160a01b0384166001148015906126a1575061269f8585612f8b565b155b156126ca57604051637c84ecfb60e01b81526001600160a01b0385166004820152602401610277565b826000036126eb5760405163f725081760e01b815260040160405180910390fd5b826001600160401b0381111561270357612703613cce565b60405190808252806020026020018201604052801561272c578160200160208202803683370190505b506001600160a01b03808616600090815260208890526040812054929450911691505b6001600160a01b0382161580159061277157506001600160a01b038216600114155b801561277c57508381105b156127d6578183828151811061279457612794613e8c565b6001600160a01b0392831660209182029290920181019190915292811660009081529287905260409092205490911690806127ce81613cb5565b91505061274f565b6001600160a01b0382166001148015906127f05750600081115b1561281c5782612801600183613fbf565b8151811061281157612811613e8c565b602002602001015191505b80835250935093915050565b6000612832610831565b905061283e81856133a8565b6040516306d61fe760e41b81526001600160a01b03851690636d61fe709061286c9086908690600401613fd2565b600060405180830381600087803b15801561288657600080fd5b505af115801561289a573d6000803e3d6000fd5b5050505050505050565b60006128ae610831565b600101905061283e81856133a8565b600082828080601f016020809104026020016040519081016040528093929190818152602001838380828437600092018290525060408051818a01356020818102601f01601f19168301909352969750893596918a018035965090945060609350915b8181101561293f57602081028381016060013590860152600101612920565b50506040810135602081830103356060818152818385016020830137935061297592508591506001600160f81b03199050610855565b1561299357604051633accf26360e11b815260040160405180910390fd5b61299c8461347e565b156129e95760405162461bcd60e51b815260206004820152601e60248201527f46756e6374696f6e2073656c6563746f7220616c7265616479207573656400006044820152606401610277565b604080516060810182526001600160a01b038a1681526001600160f81b031985166020820152908101839052612a1d610831565b6001600160e01b0319861660009081526002919091016020908152604091829020835181548584015160f81c600160a01b026001600160a81b03199091166001600160a01b0390921691909117178155918301518051612a83926001850192019061358d565b50506040516306d61fe760e41b81526001600160a01b038a169150636d61fe7090612ab29084906004016138f1565b600060405180830381600087803b158015612acc57600080fd5b505af1158015612ae0573d6000803e3d6000fd5b505050505050505050505050565b6000612b066000805160206140988339815191525490565b90506001600160a01b03811615612b3b5760405163741cbe0360e01b81526001600160a01b0382166004820152602401610277565b61283e8460008051602061409883398151915255565b6001600160a01b0381166000908152600560205260408120805460ff1916600190811790915580549161264983613cb5565b6000612b8d610831565b9050600080612b9e84860186613fe6565b9092509050612bae8383886134b8565b604051638a91b0e360e01b81526001600160a01b03871690638a91b0e390612bda9084906004016138f1565b600060405180830381600087803b158015612bf457600080fd5b505af1158015612c08573d6000803e3d6000fd5b50505050505050505050565b6000612c1e610831565b6001019050600080612b9e84860186613fe6565b6000612c416004828486613a6d565b612c4a91614035565b90506000612c5b8360048187613a6d565b8080601f016020809104026020016040519081016040528093929190818152602001838380828437600092019190915250929350612c9e925084915061347e9050565b612cea5760405162461bcd60e51b815260206004820152601a60248201527f46756e6374696f6e2073656c6563746f72206e6f7420757365640000000000006044820152606401610277565b6000612cf4610831565b6001600160e01b0319841660009081526002919091016020908152604091829020825160608101845281546001600160a01b0381168252600160a01b900460f81b6001600160f81b0319168184015260018201805485518186028101860187528181529295939493860193830182828015612d9857602002820191906000526020600020905b81546001600160a01b03168152600190910190602001808311612d7a575b5050505050815250509050856001600160a01b031681600001516001600160a01b031614612e1b5760405162461bcd60e51b815260206004820152602a60248201527f46756e6374696f6e2073656c6563746f72206e6f74207573656420627920746860448201526934b9903430b7323632b960b11b6064820152608401610277565b6020810151612e32816001600160f81b0319610855565b15612e5057604051633accf26360e11b815260040160405180910390fd5b60408051600080825260808201835260208201818152928201526060810181905290612e7a610831565b6001600160e01b0319871660009081526002919091016020908152604091829020835181548584015160f81c600160a01b026001600160a81b03199091166001600160a01b0390921691909117178155918301518051612ee0926001850192019061358d565b5050604051638a91b0e360e01b81526001600160a01b038a169150638a91b0e390612ab29087906004016138f1565b612f26600060008051602061409883398151915255565b604051638a91b0e360e01b81526001600160a01b03841690638a91b0e390612f549085908590600401613fd2565b600060405180830381600087803b158015612f6e57600080fd5b505af1158015612f82573d6000803e3d6000fd5b50505050505050565b600060016001600160a01b038316148015906124505750506001600160a01b03908116600090815260209290925260409091205416151590565b606081806001600160401b03811115612fe057612fe0613cce565b60405190808252806020026020018201604052801561301357816020015b6060815260200190600190039081612ffe5790505b50915060005b81811015613095573685858381811061303457613034613e8c565b90506020028101906130469190614063565b905061306f6130586020830183613627565b602083013561306a6040850185613e0e565b61321b565b84838151811061308157613081613e8c565b602090810291909101015250600101613019565b505092915050565b606081806001600160401b038111156130b8576130b8613cce565b6040519080825280602002602001820160405280156130eb57816020015b60608152602001906001900390816130d65790505b50915060005b81811015613095573685858381811061310c5761310c613e8c565b905060200281019061311e9190614063565b905060006131496131326020840184613627565b60208401356131446040860186613e0e565b613251565b86858151811061315b5761315b613e8c565b60209081029190910101529050806131c0577fe723f28f104e46b47fd3531f3608374ac226bcf3ddda334a23a266453e0efdb7838685815181106131a1576131a1613e8c565b60200260200101516040516131b7929190613ea2565b60405180910390a15b50506001016130f1565b60008036816131dc6014828789613a6d565b6131e591613a97565b60601c93506131f8603460148789613a6d565b61320191614079565b92506132108560348189613a6d565b949793965094505050565b60405181838237600038838387895af1613238573d6000823e3d81fd5b3d8152602081013d6000823e3d01604052949350505050565b604051600090828482376000388483888a5af191503d8152602081013d6000823e3d81016040525094509492505050565b604051818382376000388383875af461329e573d6000823e3d81fd5b3d8152602081013d6000823e3d016040529392505050565b604051600090828482376000388483885af491503d8152602081013d6000823e3d810160405250935093915050565b81516000908190815b8181101561333d57846001600160a01b031686828151811061331257613312613e8c565b60200260200101516001600160a01b0316036133355792506001915061127e9050565b6001016132ee565b506000958695509350505050565b60016000908152602082905260409020546001600160a01b031615613383576040516329e42f3360e11b815260040160405180910390fd5b60016000818152602092909252604090912080546001600160a01b0319169091179055565b6001600160a01b03811615806133c757506001600160a01b0381166001145b156133f057604051637c84ecfb60e01b81526001600160a01b0382166004820152602401610277565b6001600160a01b03818116600090815260208490526040902054161561343457604051631034f46960e21b81526001600160a01b0382166004820152602401610277565b60016000818152602093909352604080842080546001600160a01b039485168087529286208054959091166001600160a01b03199586161790559190935280549091169091179055565b600080613489610831565b6001600160e01b03199093166000908152600293909301602052505060409020546001600160a01b0316151590565b6001600160a01b03811615806134d757506001600160a01b0381166001145b1561350057604051637c84ecfb60e01b81526001600160a01b0383166004820152602401610277565b6001600160a01b0382811660009081526020859052604090205481169082161461354857604051637c84ecfb60e01b81526001600160a01b0382166004820152602401610277565b6001600160a01b0390811660008181526020949094526040808520805494841686529085208054949093166001600160a01b0319948516179092559092528154169055565b8280548282559060005260206000209081019282156135e2579160200282015b828111156135e257825182546001600160a01b0319166001600160a01b039091161782556020909201916001909101906135ad565b506135ee9291506135f2565b5090565b5b808211156135ee57600081556001016135f3565b6001600160a01b038116811461261857600080fd5b803561242781613607565b60006020828403121561363957600080fd5b813561245081613607565b60008083601f84011261365657600080fd5b5081356001600160401b0381111561366d57600080fd5b60208301915083602082850101111561127e57600080fd5b6000806000806060858703121561369b57600080fd5b8435935060208501356136ad81613607565b925060408501356001600160401b038111156136c857600080fd5b6136d487828801613644565b95989497509550505050565b6000806000604084860312156136f557600080fd5b8335925060208401356001600160401b0381111561371257600080fd5b61371e86828701613644565b9497909650939450505050565b6000610120828403121561373e57600080fd5b50919050565b60008060006060848603121561375957600080fd5b83356001600160401b0381111561376f57600080fd5b61377b8682870161372b565b9660208601359650604090950135949350505050565b600080602083850312156137a457600080fd5b82356001600160401b038111156137ba57600080fd5b6137c685828601613644565b90969095509350505050565b6000602082840312156137e457600080fd5b81356001600160401b038111156137fa57600080fd5b6109048482850161372b565b6000806040838503121561381957600080fd5b823561382481613607565b946020939093013593505050565b60008151808452602080850194506020840160005b8381101561386c5781516001600160a01b031687529582019590820190600101613847565b509495945050505050565b60408152600061388a6040830185613832565b905060018060a01b03831660208301529392505050565b60005b838110156138bc5781810151838201526020016138a4565b50506000910152565b600081518084526138dd8160208601602086016138a1565b601f01601f19169290920160200192915050565b60208152600061245060208301846138c5565b60006020828403121561391657600080fd5b5035919050565b60018060a01b038616815284602082015260a06040820152600061394460a0830186613832565b931515606083015250608001529392505050565b600060208083016020845280855180835260408601915060408160051b87010192506020870160005b828110156139af57603f1988860301845261399d8583516138c5565b94509285019290850190600101613981565b5092979650505050505050565b6001600160e01b03198116811461261857600080fd5b6000602082840312156139e457600080fd5b8135612450816139bc565b602080825282516001600160a01b0390811683830152838201516001600160f81b031916604080850191909152840151606080850152805160808501819052600093929183019190849060a08701905b80831015613a6157845184168252938501936001929092019190850190613a3f565b50979650505050505050565b60008085851115613a7d57600080fd5b83861115613a8a57600080fd5b5050820193919092039150565b6bffffffffffffffffffffffff1981358181169160148510156130955760149490940360031b84901b1690921692915050565b81835281816020850137506000828201602090810191909152601f909101601f19169091010190565b60018060a01b0385168152836020820152606060408201526000613b1b606083018486613aca565b9695505050505050565b600060208284031215613b3757600080fd5b8151612450816139bc565b6000808335601e19843603018112613b5957600080fd5b83016020810192503590506001600160401b03811115613b7857600080fd5b80360382131561127e57600080fd5b60408152613ba860408201613b9b8561361c565b6001600160a01b03169052565b602083013560608201526000613bc16040850185613b42565b610120806080860152613bd961016086018385613aca565b9250613be86060880188613b42565b9250603f19808786030160a0880152613c02858584613aca565b9450608089013560c088015260a089013560e0880152610100935060c089013584880152613c3360e08a018a613b42565b9250818887030184890152613c49868483613aca565b955050613c58848a018a613b42565b9450925080878603016101408801525050613c74838383613aca565b93505050508260208301529392505050565b600060208284031215613c9857600080fd5b5051919050565b634e487b7160e01b600052601160045260246000fd5b600060018201613cc757613cc7613c9f565b5060010190565b634e487b7160e01b600052604160045260246000fd5b604051601f8201601f191681016001600160401b0381118282101715613d0c57613d0c613cce565b604052919050565b60006001600160401b03821115613d2d57613d2d613cce565b50601f01601f191660200190565b600082601f830112613d4c57600080fd5b8135613d5f613d5a82613d14565b613ce4565b818152846020838601011115613d7457600080fd5b816020850160208301376000918101602001919091529392505050565b600080600060608486031215613da657600080fd5b8335613db181613607565b92506020840135613dc181613607565b915060408401356001600160401b03811115613ddc57600080fd5b613de886828701613d3b565b9150509250925092565b60008251613e048184602087016138a1565b9190910192915050565b6000808335601e19843603018112613e2557600080fd5b8301803591506001600160401b03821115613e3f57600080fd5b60200191503681900382131561127e57600080fd5b8183823760009101908152919050565b8082018082111561086657610866613c9f565b6001600160f81b031991909116815260200190565b634e487b7160e01b600052603260045260246000fd5b82815260406020820152600061090460408301846138c5565b6001600160a01b03841681526040602082018190526000906109d99083018486613aca565b600060208284031215613ef257600080fd5b81516001600160401b03811115613f0857600080fd5b8201601f81018413613f1957600080fd5b8051613f27613d5a82613d14565b818152856020838501011115613f3c57600080fd5b6109d98260208301602086016138a1565b600060208284031215613f5f57600080fd5b8151801515811461245057600080fd5b600081613f7e57613f7e613c9f565b506000190190565b808202811582820484141761086657610866613c9f565b600082613fba57634e487b7160e01b600052601260045260246000fd5b500490565b8181038181111561086657610866613c9f565b602081526000610904602083018486613aca565b60008060408385031215613ff957600080fd5b823561400481613607565b915060208301356001600160401b0381111561401f57600080fd5b61402b85828601613d3b565b9150509250929050565b6001600160e01b031981358181169160048510156130955760049490940360031b84901b1690921692915050565b60008235605e19833603018112613e0457600080fd5b8035602083101561086657600019602084900360031b1b169291505056fe36e05829dd1b9a4411d96a3549582172d7f071c1c0db5c573fcf94eb28431608a26469706673582212204ed810819e647f95a7c6fe5f2e6cd135b2c09e8e50f907384304dd77b61e586264736f6c63430008170033",
  "devdoc": {
    "kind": "dev",
    "methods": {
      "accountId()": {
        "details": "see {IERC7579Account}."
      },
      "addGuardian(address)": {
        "details": "Only owner or wallet.",
        "params": {
          "_newGuardian": "address of new guardian to add to wallet."
        }
      },
      "addOwner(address)": {
        "details": "Only owner or wallet.",
        "params": {
          "_newOwner": "address of new owner to add."
        }
      },
      "changeProposalTimelock(uint256)": {
        "details": "Only owner or wallet.",
        "params": {
          "_newTimelock": "new timelock in seconds."
        }
      },
      "discardCurrentProposal()": {
        "details": "Only owner or guardian or wallet. Must be after the proposal timelock is met."
      },
      "execute(bytes32,bytes)": {
        "details": "see {IERC7579Account}.this function is only callable by the entry point or the account itselfthis function demonstrates how to implement CallType SINGLE and BATCH and ExecType DEFAULT and TRYthis function demonstrates how to implement hook support (modifier)"
      },
      "executeFromExecutor(bytes32,bytes)": {
        "details": "see {IERC7579Account}.this function is only callable by an installed executor modulethis function demonstrates how to implement CallType SINGLE and BATCH and ExecType DEFAULT and TRYthis function demonstrates how to implement hook support (modifier)"
      },
      "executeUserOp((address,uint256,bytes,bytes,bytes32,uint256,bytes32,bytes,bytes))": {
        "details": "see {IERC7579Account}."
      },
      "getProposal(uint256)": {
        "params": {
          "_proposalId": "proposal id to return data for."
        },
        "returns": {
          "approvalCount_": "number of guardians that have approved the proposal.",
          "guardiansApproved_": "array of guardian addresses that have approved proposal.",
          "ownerProposed_": "the new owner proposed.",
          "proposedAt_": "timestamp of when proposal was initiated.",
          "resolved_": "bool is the proposal resolved."
        }
      },
      "guardianCosign()": {
        "details": "Only guardian. Must meet minimum threshold of 60% of total guardians to add new owner."
      },
      "guardianPropose(address)": {
        "details": "Only guardian.",
        "params": {
          "_newOwner": "the proposed new owner for the wallet."
        }
      },
      "initializeAccount(bytes)": {
        "details": "see {IERC7579Account}."
      },
      "installModule(uint256,address,bytes)": {
        "details": "see {IERC7579Account}."
      },
      "isGuardian(address)": {
        "params": {
          "_address": "address to check if guardian of wallet."
        },
        "returns": {
          "_0": "bool."
        }
      },
      "isModuleInstalled(uint256,address,bytes)": {
        "details": "see {IERC7579Account}."
      },
      "isOwner(address)": {
        "params": {
          "_address": "address to check if owner of wallet."
        },
        "returns": {
          "_0": "bool."
        }
      },
      "isValidSignature(bytes32,bytes)": {
        "details": "ERC-1271 isValidSignature         This function is intended to be used to validate a smart account signature and may forward the call to a validator module",
        "params": {
          "data": "The data that is signed",
          "hash": "The hash of the data that is signed"
        }
      },
      "removeGuardian(address)": {
        "details": "Only owner or wallet.",
        "params": {
          "_guardian": "address of existing guardian to remove."
        }
      },
      "removeOwner(address)": {
        "details": "Only owner or wallet.",
        "params": {
          "_owner": "address of wallet owner to remove ."
        }
      },
      "supportsExecutionMode(bytes32)": {
        "details": "see {IERC7579Account}."
      },
      "supportsModule(uint256)": {
        "details": "see {IERC7579Account}."
      },
      "uninstallModule(uint256,address,bytes)": {
        "details": "see {IERC7579Account}."
      },
      "validateUserOp((address,uint256,bytes,bytes,bytes32,uint256,bytes32,bytes,bytes),bytes32,uint256)": {
        "details": "see {IERC7579Account}."
      }
    },
    "version": 1
  },
  "userdoc": {
    "errors": {
      "OnlyOwnerOrSelf()": [
        {
          "notice": "AccessController"
        }
      ]
    },
    "events": {
      "OwnerAdded(address,address)": {
        "notice": "Events"
      }
    },
    "kind": "user",
    "methods": {
      "addGuardian(address)": {
        "notice": "Add guardian for the wallet."
      },
      "addOwner(address)": {
        "notice": "Add owner to the wallet."
      },
      "changeProposalTimelock(uint256)": {
        "notice": "Change the timelock on proposals. The minimum time (secs) that a proposal is allowed to be discarded."
      },
      "discardCurrentProposal()": {
        "notice": "Discards the current proposal."
      },
      "getExecutorsPaginated(address,uint256)": {
        "notice": "THIS IS NOT PART OF THE STANDARD Helper Function to access linked list"
      },
      "getProposal(uint256)": {
        "notice": "Returns new owner proposal data."
      },
      "getValidatorPaginated(address,uint256)": {
        "notice": "THIS IS NOT PART OF THE STANDARD Helper Function to access linked list"
      },
      "guardianCosign()": {
        "notice": "Cosigns a new owner proposal."
      },
      "guardianPropose(address)": {
        "notice": "Creates a new owner proposal (adds new owner to wallet)."
      },
      "isGuardian(address)": {
        "notice": "Checks if _address is guardian of wallet."
      },
      "isOwner(address)": {
        "notice": "Checks if _address is owner of wallet."
      },
      "removeGuardian(address)": {
        "notice": "Remove guardian from the wallet."
      },
      "removeOwner(address)": {
        "notice": "Remove owner from wallet."
      }
    },
    "version": 1
  },
  "storageLayout": {
    "storage": [
      {
        "astId": 2376,
        "contract": "src/modular-etherspot-wallet/wallet/ModularEtherspotWallet.sol:ModularEtherspotWallet",
        "label": "ownerCount",
        "offset": 0,
        "slot": "0",
        "type": "t_uint256"
      },
      {
        "astId": 2378,
        "contract": "src/modular-etherspot-wallet/wallet/ModularEtherspotWallet.sol:ModularEtherspotWallet",
        "label": "guardianCount",
        "offset": 0,
        "slot": "1",
        "type": "t_uint256"
      },
      {
        "astId": 2380,
        "contract": "src/modular-etherspot-wallet/wallet/ModularEtherspotWallet.sol:ModularEtherspotWallet",
        "label": "proposalId",
        "offset": 0,
        "slot": "2",
        "type": "t_uint256"
      },
      {
        "astId": 2382,
        "contract": "src/modular-etherspot-wallet/wallet/ModularEtherspotWallet.sol:ModularEtherspotWallet",
        "label": "proposalTimelock",
        "offset": 0,
        "slot": "3",
        "type": "t_uint256"
      },
      {
        "astId": 2387,
        "contract": "src/modular-etherspot-wallet/wallet/ModularEtherspotWallet.sol:ModularEtherspotWallet",
        "label": "_owners",
        "offset": 0,
        "slot": "4",
        "type": "t_mapping(t_address,t_bool)"
      },
      {
        "astId": 2391,
        "contract": "src/modular-etherspot-wallet/wallet/ModularEtherspotWallet.sol:ModularEtherspotWallet",
        "label": "_guardians",
        "offset": 0,
        "slot": "5",
        "type": "t_mapping(t_address,t_bool)"
      },
      {
        "astId": 2396,
        "contract": "src/modular-etherspot-wallet/wallet/ModularEtherspotWallet.sol:ModularEtherspotWallet",
        "label": "_proposals",
        "offset": 0,
        "slot": "6",
        "type": "t_mapping(t_uint256,t_struct(NewOwnerProposal)5698_storage)"
      }
    ],
    "types": {
      "t_address": {
        "encoding": "inplace",
        "label": "address",
        "numberOfBytes": "20"
      },
      "t_array(t_address)dyn_storage": {
        "base": "t_address",
        "encoding": "dynamic_array",
        "label": "address[]",
        "numberOfBytes": "32"
      },
      "t_bool": {
        "encoding": "inplace",
        "label": "bool",
        "numberOfBytes": "1"
      },
      "t_mapping(t_address,t_bool)": {
        "encoding": "mapping",
        "key": "t_address",
        "label": "mapping(address => bool)",
        "numberOfBytes": "32",
        "value": "t_bool"
      },
      "t_mapping(t_uint256,t_struct(NewOwnerProposal)5698_storage)": {
        "encoding": "mapping",
        "key": "t_uint256",
        "label": "mapping(uint256 => struct IAccessController.NewOwnerProposal)",
        "numberOfBytes": "32",
        "value": "t_struct(NewOwnerProposal)5698_storage"
      },
      "t_struct(NewOwnerProposal)5698_storage": {
        "encoding": "inplace",
        "label": "struct IAccessController.NewOwnerProposal",
        "members": [
          {
            "astId": 5688,
            "contract": "src/modular-etherspot-wallet/wallet/ModularEtherspotWallet.sol:ModularEtherspotWallet",
            "label": "newOwnerProposed",
            "offset": 0,
            "slot": "0",
            "type": "t_address"
          },
          {
            "astId": 5690,
            "contract": "src/modular-etherspot-wallet/wallet/ModularEtherspotWallet.sol:ModularEtherspotWallet",
            "label": "resolved",
            "offset": 20,
            "slot": "0",
            "type": "t_bool"
          },
          {
            "astId": 5693,
            "contract": "src/modular-etherspot-wallet/wallet/ModularEtherspotWallet.sol:ModularEtherspotWallet",
            "label": "guardiansApproved",
            "offset": 0,
            "slot": "1",
            "type": "t_array(t_address)dyn_storage"
          },
          {
            "astId": 5695,
            "contract": "src/modular-etherspot-wallet/wallet/ModularEtherspotWallet.sol:ModularEtherspotWallet",
            "label": "approvalCount",
            "offset": 0,
            "slot": "2",
            "type": "t_uint256"
          },
          {
            "astId": 5697,
            "contract": "src/modular-etherspot-wallet/wallet/ModularEtherspotWallet.sol:ModularEtherspotWallet",
            "label": "proposedAt",
            "offset": 0,
            "slot": "3",
            "type": "t_uint256"
          }
        ],
        "numberOfBytes": "128"
      },
      "t_uint256": {
        "encoding": "inplace",
        "label": "uint256",
        "numberOfBytes": "32"
      }
    }
  }
}