{
  "address": "0xcaDBADcFeD5530A49762DFc9d1d712CcD6b09b25",
  "abi": [
    {
      "inputs": [
        {
          "internalType": "address",
          "name": "_implementation",
          "type": "address"
        },
        {
          "internalType": "address",
          "name": "_owner",
          "type": "address"
        }
      ],
      "stateMutability": "nonpayable",
      "type": "constructor"
    },
    {
      "inputs": [],
      "name": "AlreadyInitialized",
      "type": "error"
    },
    {
      "inputs": [],
      "name": "FactoryStaker_InvalidEPAddress",
      "type": "error"
    },
    {
      "inputs": [],
      "name": "NewOwnerIsZeroAddress",
      "type": "error"
    },
    {
      "inputs": [],
      "name": "NoHandoverRequest",
      "type": "error"
    },
    {
      "inputs": [],
      "name": "Unauthorized",
      "type": "error"
    },
    {
      "anonymous": false,
      "inputs": [
        {
          "indexed": true,
          "internalType": "address",
          "name": "account",
          "type": "address"
        },
        {
          "indexed": true,
          "internalType": "address",
          "name": "owner",
          "type": "address"
        }
      ],
      "name": "ModularAccountDeployed",
      "type": "event"
    },
    {
      "anonymous": false,
      "inputs": [
        {
          "indexed": true,
          "internalType": "address",
          "name": "pendingOwner",
          "type": "address"
        }
      ],
      "name": "OwnershipHandoverCanceled",
      "type": "event"
    },
    {
      "anonymous": false,
      "inputs": [
        {
          "indexed": true,
          "internalType": "address",
          "name": "pendingOwner",
          "type": "address"
        }
      ],
      "name": "OwnershipHandoverRequested",
      "type": "event"
    },
    {
      "anonymous": false,
      "inputs": [
        {
          "indexed": true,
          "internalType": "address",
          "name": "oldOwner",
          "type": "address"
        },
        {
          "indexed": true,
          "internalType": "address",
          "name": "newOwner",
          "type": "address"
        }
      ],
      "name": "OwnershipTransferred",
      "type": "event"
    },
    {
      "inputs": [
        {
          "internalType": "bytes32",
          "name": "_salt",
          "type": "bytes32"
        },
        {
          "internalType": "bytes",
          "name": "initCode",
          "type": "bytes"
        }
      ],
      "name": "_getSalt",
      "outputs": [
        {
          "internalType": "bytes32",
          "name": "salt",
          "type": "bytes32"
        }
      ],
      "stateMutability": "pure",
      "type": "function"
    },
    {
      "inputs": [
        {
          "internalType": "address",
          "name": "_epAddress",
          "type": "address"
        },
        {
          "internalType": "uint32",
          "name": "_unstakeDelaySec",
          "type": "uint32"
        }
      ],
      "name": "addStake",
      "outputs": [],
      "stateMutability": "payable",
      "type": "function"
    },
    {
      "inputs": [],
      "name": "cancelOwnershipHandover",
      "outputs": [],
      "stateMutability": "payable",
      "type": "function"
    },
    {
      "inputs": [
        {
          "internalType": "address",
          "name": "pendingOwner",
          "type": "address"
        }
      ],
      "name": "completeOwnershipHandover",
      "outputs": [],
      "stateMutability": "payable",
      "type": "function"
    },
    {
      "inputs": [
        {
          "internalType": "bytes32",
          "name": "salt",
          "type": "bytes32"
        },
        {
          "internalType": "bytes",
          "name": "initCode",
          "type": "bytes"
        }
      ],
      "name": "createAccount",
      "outputs": [
        {
          "internalType": "address",
          "name": "",
          "type": "address"
        }
      ],
      "stateMutability": "payable",
      "type": "function"
    },
    {
      "inputs": [
        {
          "internalType": "bytes32",
          "name": "salt",
          "type": "bytes32"
        },
        {
          "internalType": "bytes",
          "name": "initcode",
          "type": "bytes"
        }
      ],
      "name": "getAddress",
      "outputs": [
        {
          "internalType": "address",
          "name": "",
          "type": "address"
        }
      ],
      "stateMutability": "view",
      "type": "function"
    },
    {
      "inputs": [],
      "name": "implementation",
      "outputs": [
        {
          "internalType": "address",
          "name": "",
          "type": "address"
        }
      ],
      "stateMutability": "view",
      "type": "function"
    },
    {
      "inputs": [],
      "name": "owner",
      "outputs": [
        {
          "internalType": "address",
          "name": "result",
          "type": "address"
        }
      ],
      "stateMutability": "view",
      "type": "function"
    },
    {
      "inputs": [
        {
          "internalType": "address",
          "name": "pendingOwner",
          "type": "address"
        }
      ],
      "name": "ownershipHandoverExpiresAt",
      "outputs": [
        {
          "internalType": "uint256",
          "name": "result",
          "type": "uint256"
        }
      ],
      "stateMutability": "view",
      "type": "function"
    },
    {
      "inputs": [],
      "name": "renounceOwnership",
      "outputs": [],
      "stateMutability": "payable",
      "type": "function"
    },
    {
      "inputs": [],
      "name": "requestOwnershipHandover",
      "outputs": [],
      "stateMutability": "payable",
      "type": "function"
    },
    {
      "inputs": [
        {
          "internalType": "address",
          "name": "newOwner",
          "type": "address"
        }
      ],
      "name": "transferOwnership",
      "outputs": [],
      "stateMutability": "payable",
      "type": "function"
    },
    {
      "inputs": [
        {
          "internalType": "address",
          "name": "_epAddress",
          "type": "address"
        }
      ],
      "name": "unlockStake",
      "outputs": [],
      "stateMutability": "nonpayable",
      "type": "function"
    },
    {
      "inputs": [
        {
          "internalType": "address",
          "name": "_epAddress",
          "type": "address"
        },
        {
          "internalType": "address payable",
          "name": "_withdrawTo",
          "type": "address"
        }
      ],
      "name": "withdrawStake",
      "outputs": [],
      "stateMutability": "nonpayable",
      "type": "function"
    }
  ],
  "transactionHash": "0x0386e0965d424d9b8b57ce1f9c4b998e25605c40b06010cfb2a8ebe1285b7225",
  "args": [
    "0x3aa509fd07B09d5a8b944c96ae6eE767fe75C465",
    "0x09FD4F6088f2025427AB1e89257A44747081Ed59"
  ],
  "numDeployments": 2,
  "solcInputHash": "63e959732b043da759ee6dbaffcb00d6",
  "bytecode": "0x60a060405234801561001057600080fd5b50604051610b0e380380610b0e83398101604081905261002f916100a4565b806100398161004c565b50506001600160a01b03166080526100d7565b6001600160a01b0316638b78c6d8198190558060007f8be0079c531659141344cd1fd0a4f28419497f9722a3daafe3b4186f6b6457e08180a350565b80516001600160a01b038116811461009f57600080fd5b919050565b600080604083850312156100b757600080fd5b6100c083610088565b91506100ce60208401610088565b90509250929050565b608051610a0e6101006000396000818161016c0152818161050401526105b30152610a0e6000f3fe6080604052600436106100dd5760003560e01c80638da5cb5b1161007f578063f04e283e11610059578063f04e283e14610207578063f2fde38b1461021a578063f8a593701461022d578063fee81cf41461024057600080fd5b80638da5cb5b146101ae578063b36f9705146101c7578063d959fd0e146101e757600080fd5b806354d1f13d116100bb57806354d1f13d1461011f57806356c717f5146101275780635c60da1b1461015a578063715018a6146101a657600080fd5b806325692962146100e257806345171159146100ec5780634a1ce599146100ff575b600080fd5b6100ea610273565b005b6100ea6100fa36600461087f565b6102c3565b34801561010b57600080fd5b506100ea61011a3660046108c1565b610356565b6100ea6103db565b34801561013357600080fd5b506101476101423660046108e5565b610417565b6040519081526020015b60405180910390f35b34801561016657600080fd5b5061018e7f000000000000000000000000000000000000000000000000000000000000000081565b6040516001600160a01b039091168152602001610151565b6100ea61044d565b3480156101ba57600080fd5b50638b78c6d8195461018e565b3480156101d357600080fd5b506100ea6101e2366004610961565b610461565b3480156101f357600080fd5b5061018e6102023660046108e5565b6104ef565b6100ea6102153660046108c1565b610533565b6100ea6102283660046108c1565b610573565b61018e61023b3660046108e5565b61059a565b34801561024c57600080fd5b5061014761025b3660046108c1565b63389a75e1600c908152600091909152602090205490565b60006202a30067ffffffffffffffff164201905063389a75e1600c5233600052806020600c2055337fdbf36a107da19e49527a7176a1babf963b4b0ff8cde35ee35d6cd8f1f9ac7e1d600080a250565b6102cb610682565b6001600160a01b0382166102f2576040516301650c7760e51b815260040160405180910390fd5b604051621cb65b60e51b815263ffffffff821660048201526001600160a01b03831690630396cb609034906024016000604051808303818588803b15801561033957600080fd5b505af115801561034d573d6000803e3d6000fd5b50505050505050565b61035e610682565b6001600160a01b038116610385576040516301650c7760e51b815260040160405180910390fd5b806001600160a01b031663bb9fe6bf6040518163ffffffff1660e01b8152600401600060405180830381600087803b1580156103c057600080fd5b505af11580156103d4573d6000803e3d6000fd5b5050505050565b63389a75e1600c523360005260006020600c2055337ffa7b8eab7da67f412cc9575ed43464468f9bfbae89d1675917346ca6d8fe3c92600080a2565b600083838360405160200161042e9392919061098f565b6040516020818303038152906040528051906020012090509392505050565b610455610682565b61045f600061069d565b565b610469610682565b6001600160a01b038216610490576040516301650c7760e51b815260040160405180910390fd5b60405163611d2e7560e11b81526001600160a01b03828116600483015283169063c23a5cea90602401600060405180830381600087803b1580156104d357600080fd5b505af11580156104e7573d6000803e3d6000fd5b505050505050565b6000806104fd858585610417565b905061052a7f000000000000000000000000000000000000000000000000000000000000000082306106db565b95945050505050565b61053b610682565b63389a75e1600c52806000526020600c20805442111561056357636f5e88186000526004601cfd5b600090556105708161069d565b50565b61057b610682565b8060601b61059157637448fbae6000526004601cfd5b6105708161069d565b6000806105a8858585610417565b90506000806105d8347f000000000000000000000000000000000000000000000000000000000000000085610764565b915091508161067857604051634b6a141960e01b81526001600160a01b03821690634b6a14199061060f90899089906004016109a9565b600060405180830381600087803b15801561062957600080fd5b505af115801561063d573d6000803e3d6000fd5b50506040513392506001600160a01b03841691507f1637bbe505dfa57dd508725e4a807eafc818ed7f588e2bae3e57f195ea53ad7090600090a35b9695505050505050565b638b78c6d81954331461045f576382b429006000526004601cfd5b638b78c6d81980546001600160a01b039092169182907f8be0079c531659141344cd1fd0a4f28419497f9722a3daafe3b4186f6b6457e0600080a355565b60008061075785604080517fcc3735a920a3ca505d382bbc545af43d6000803e6038573d6000fd5b3d6000f360609081527f5155f3363d3d373d3d363d7f360894a13ba1a3210667c828492db98dca3e20768352616009602052601e9390935268603d3d8160223d3973600a52605f6021209152600090915290565b905061052a818585610848565b6000806040517fcc3735a920a3ca505d382bbc545af43d6000803e6038573d6000fd5b3d6000f36060527f5155f3363d3d373d3d363d7f360894a13ba1a3210667c828492db98dca3e207660405261600960205284601e5268603d3d8160223d3973600a52605f60212060358201523060581b815260ff8153836015820152605581209150813b6108105783605f602188f591508161080b5763301164256000526004601cfd5b610836565b6001925085156108365760003860003889865af16108365763b12d13eb6000526004601cfd5b80604052506000606052935093915050565b600060ff60005350603592835260601b60015260155260556000908120915290565b6001600160a01b038116811461057057600080fd5b6000806040838503121561089257600080fd5b823561089d8161086a565b9150602083013563ffffffff811681146108b657600080fd5b809150509250929050565b6000602082840312156108d357600080fd5b81356108de8161086a565b9392505050565b6000806000604084860312156108fa57600080fd5b83359250602084013567ffffffffffffffff8082111561091957600080fd5b818601915086601f83011261092d57600080fd5b81358181111561093c57600080fd5b87602082850101111561094e57600080fd5b6020830194508093505050509250925092565b6000806040838503121561097457600080fd5b823561097f8161086a565b915060208301356108b68161086a565b838152818360208301376000910160200190815292915050565b60208152816020820152818360408301376000818301604090810191909152601f909201601f1916010191905056fea2646970667358221220014d86a5f7d6b8b6b9beed5c94b7d729f35babd5cd824885537dced4cfcd959964736f6c63430008170033",
  "devdoc": {
    "errors": {
      "AlreadyInitialized()": [
        {
          "details": "Cannot double-initialize."
        }
      ],
      "NewOwnerIsZeroAddress()": [
        {
          "details": "The `newOwner` cannot be the zero address."
        }
      ],
      "NoHandoverRequest()": [
        {
          "details": "The `pendingOwner` does not have a valid handover request."
        }
      ],
      "Unauthorized()": [
        {
          "details": "The caller is not authorized to call the function."
        }
      ]
    },
    "events": {
      "OwnershipHandoverCanceled(address)": {
        "details": "The ownership handover to `pendingOwner` has been canceled."
      },
      "OwnershipHandoverRequested(address)": {
        "details": "An ownership handover to `pendingOwner` has been requested."
      },
      "OwnershipTransferred(address,address)": {
        "details": "The ownership is transferred from `oldOwner` to `newOwner`. This event is intentionally kept the same as OpenZeppelin's Ownable to be compatible with indexers and [EIP-173](https://eips.ethereum.org/EIPS/eip-173), despite it not being as lightweight as a single argument event."
      }
    },
    "kind": "dev",
    "methods": {
      "cancelOwnershipHandover()": {
        "details": "Cancels the two-step ownership handover to the caller, if any."
      },
      "completeOwnershipHandover(address)": {
        "details": "Allows the owner to complete the two-step ownership handover to `pendingOwner`. Reverts if there is no existing ownership handover requested by `pendingOwner`."
      },
      "owner()": {
        "details": "Returns the owner of the contract."
      },
      "ownershipHandoverExpiresAt(address)": {
        "details": "Returns the expiry timestamp for the two-step ownership handover to `pendingOwner`."
      },
      "renounceOwnership()": {
        "details": "Allows the owner to renounce their ownership."
      },
      "requestOwnershipHandover()": {
        "details": "Request a two-step ownership handover to the caller. The request will automatically expire in 48 hours (172800 seconds) by default."
      },
      "transferOwnership(address)": {
        "details": "Allows the owner to transfer the ownership to `newOwner`."
      }
    },
    "version": 1
  },
  "userdoc": {
    "kind": "user",
    "methods": {},
    "version": 1
  },
  "storageLayout": {
    "storage": [],
    "types": null
  }
}